{
  "address": "0x50b78d18f42B42942483F9e85a9507FaB1A75CbE",
  "abi": [
    {
      "inputs": [
        {
          "internalType": "string",
          "name": "uriPostExpiry",
          "type": "string"
        }
      ],
      "stateMutability": "nonpayable",
      "type": "constructor"
    },
    {
      "anonymous": false,
      "inputs": [
        {
          "indexed": true,
          "internalType": "address",
          "name": "account",
          "type": "address"
        },
        {
          "indexed": true,
          "internalType": "address",
          "name": "operator",
          "type": "address"
        },
        {
          "indexed": false,
          "internalType": "bool",
          "name": "approved",
          "type": "bool"
        }
      ],
      "name": "ApprovalForAll",
      "type": "event"
    },
    {
      "anonymous": false,
      "inputs": [
        {
          "indexed": true,
          "internalType": "address",
          "name": "previousOwner",
          "type": "address"
        },
        {
          "indexed": true,
          "internalType": "address",
          "name": "newOwner",
          "type": "address"
        }
      ],
      "name": "OwnershipTransferred",
      "type": "event"
    },
    {
      "anonymous": false,
      "inputs": [
        {
          "indexed": false,
          "internalType": "address",
          "name": "account",
          "type": "address"
        }
      ],
      "name": "Paused",
      "type": "event"
    },
    {
      "anonymous": false,
      "inputs": [
        {
          "indexed": true,
          "internalType": "address",
          "name": "operator",
          "type": "address"
        },
        {
          "indexed": true,
          "internalType": "address",
          "name": "from",
          "type": "address"
        },
        {
          "indexed": true,
          "internalType": "address",
          "name": "to",
          "type": "address"
        },
        {
          "indexed": false,
          "internalType": "uint256[]",
          "name": "ids",
          "type": "uint256[]"
        },
        {
          "indexed": false,
          "internalType": "uint256[]",
          "name": "values",
          "type": "uint256[]"
        }
      ],
      "name": "TransferBatch",
      "type": "event"
    },
    {
      "anonymous": false,
      "inputs": [
        {
          "indexed": true,
          "internalType": "address",
          "name": "operator",
          "type": "address"
        },
        {
          "indexed": true,
          "internalType": "address",
          "name": "from",
          "type": "address"
        },
        {
          "indexed": true,
          "internalType": "address",
          "name": "to",
          "type": "address"
        },
        {
          "indexed": false,
          "internalType": "uint256",
          "name": "id",
          "type": "uint256"
        },
        {
          "indexed": false,
          "internalType": "uint256",
          "name": "value",
          "type": "uint256"
        }
      ],
      "name": "TransferSingle",
      "type": "event"
    },
    {
      "anonymous": false,
      "inputs": [
        {
          "indexed": false,
          "internalType": "string",
          "name": "value",
          "type": "string"
        },
        {
          "indexed": true,
          "internalType": "uint256",
          "name": "id",
          "type": "uint256"
        }
      ],
      "name": "URI",
      "type": "event"
    },
    {
      "anonymous": false,
      "inputs": [
        {
          "indexed": false,
          "internalType": "address",
          "name": "account",
          "type": "address"
        }
      ],
      "name": "Unpaused",
      "type": "event"
    },
    {
      "anonymous": false,
      "inputs": [
        {
          "indexed": false,
          "internalType": "address",
          "name": "from",
          "type": "address"
        },
        {
          "indexed": false,
          "internalType": "address",
          "name": "to",
          "type": "address"
        },
        {
          "indexed": false,
          "internalType": "uint256[]",
          "name": "tokenIds",
          "type": "uint256[]"
        },
        {
          "indexed": false,
          "internalType": "uint256[]",
          "name": "amounts",
          "type": "uint256[]"
        },
        {
          "indexed": false,
          "internalType": "uint256",
          "name": "value",
          "type": "uint256"
        }
      ],
      "name": "batchPayment",
      "type": "event"
    },
    {
      "anonymous": false,
      "inputs": [
        {
          "indexed": false,
          "internalType": "uint256",
          "name": "tokenId",
          "type": "uint256"
        },
        {
          "indexed": false,
          "internalType": "string",
          "name": "tokenName",
          "type": "string"
        },
        {
          "indexed": false,
          "internalType": "uint256",
          "name": "amount",
          "type": "uint256"
        },
        {
          "indexed": false,
          "internalType": "uint256",
          "name": "expiry",
          "type": "uint256"
        },
        {
          "indexed": false,
          "internalType": "address",
          "name": "creator",
          "type": "address"
        }
      ],
      "name": "newTokenTypeCreated",
      "type": "event"
    },
    {
      "anonymous": false,
      "inputs": [
        {
          "indexed": false,
          "internalType": "address",
          "name": "from",
          "type": "address"
        },
        {
          "indexed": false,
          "internalType": "address",
          "name": "to",
          "type": "address"
        },
        {
          "indexed": false,
          "internalType": "uint256",
          "name": "tokenId",
          "type": "uint256"
        },
        {
          "indexed": false,
          "internalType": "uint256",
          "name": "amount",
          "type": "uint256"
        },
        {
          "indexed": false,
          "internalType": "uint256",
          "name": "value",
          "type": "uint256"
        }
      ],
      "name": "payment",
      "type": "event"
    },
    {
      "inputs": [
        {
          "internalType": "address",
          "name": "account",
          "type": "address"
        },
        {
          "internalType": "uint256",
          "name": "id",
          "type": "uint256"
        }
      ],
      "name": "balanceOf",
      "outputs": [
        {
          "internalType": "uint256",
          "name": "",
          "type": "uint256"
        }
      ],
      "stateMutability": "view",
      "type": "function"
    },
    {
      "inputs": [
        {
          "internalType": "address[]",
          "name": "accounts",
          "type": "address[]"
        },
        {
          "internalType": "uint256[]",
          "name": "ids",
          "type": "uint256[]"
        }
      ],
      "name": "balanceOfBatch",
      "outputs": [
        {
          "internalType": "uint256[]",
          "name": "",
          "type": "uint256[]"
        }
      ],
      "stateMutability": "view",
      "type": "function"
    },
    {
      "inputs": [
        {
          "internalType": "address",
          "name": "account",
          "type": "address"
        },
        {
          "internalType": "uint256",
          "name": "id",
          "type": "uint256"
        },
        {
          "internalType": "uint256",
          "name": "value",
          "type": "uint256"
        }
      ],
      "name": "burn",
      "outputs": [],
      "stateMutability": "nonpayable",
      "type": "function"
    },
    {
      "inputs": [
        {
          "internalType": "address",
          "name": "account",
          "type": "address"
        },
        {
          "internalType": "uint256[]",
          "name": "ids",
          "type": "uint256[]"
        },
        {
          "internalType": "uint256[]",
          "name": "values",
          "type": "uint256[]"
        }
      ],
      "name": "burnBatch",
      "outputs": [],
      "stateMutability": "nonpayable",
      "type": "function"
    },
    {
      "inputs": [
        {
          "internalType": "string",
          "name": "companyName",
          "type": "string"
        },
        {
          "internalType": "uint256",
          "name": "spotAmount",
          "type": "uint256"
        },
        {
          "internalType": "uint256",
          "name": "tokenExpiry",
          "type": "uint256"
        },
        {
          "internalType": "string",
          "name": "tokenURI",
          "type": "string"
        }
      ],
      "name": "createTokenType",
      "outputs": [],
      "stateMutability": "nonpayable",
      "type": "function"
    },
    {
      "inputs": [],
      "name": "expiry",
      "outputs": [
        {
          "internalType": "uint256",
          "name": "",
          "type": "uint256"
        }
      ],
      "stateMutability": "view",
      "type": "function"
    },
    {
      "inputs": [
        {
          "internalType": "uint256",
          "name": "extendedExpiry",
          "type": "uint256"
        }
      ],
      "name": "extendExpiry",
      "outputs": [],
      "stateMutability": "nonpayable",
      "type": "function"
    },
    {
      "inputs": [],
      "name": "getSpotValueOfAllExistingTokens",
      "outputs": [
        {
          "internalType": "uint256",
          "name": "",
          "type": "uint256"
        }
      ],
      "stateMutability": "view",
      "type": "function"
    },
    {
      "inputs": [
        {
          "internalType": "uint256",
          "name": "tokenId",
          "type": "uint256"
        }
      ],
      "name": "getTokenDetails",
      "outputs": [
        {
          "internalType": "string",
          "name": "",
          "type": "string"
        },
        {
          "internalType": "uint256",
          "name": "",
          "type": "uint256"
        },
        {
          "internalType": "uint256",
          "name": "",
          "type": "uint256"
        },
        {
          "internalType": "address",
          "name": "",
          "type": "address"
        }
      ],
      "stateMutability": "view",
      "type": "function"
    },
    {
      "inputs": [
        {
          "internalType": "string",
          "name": "tokenName",
          "type": "string"
        }
      ],
      "name": "getTokenIdFromName",
      "outputs": [
        {
          "internalType": "uint256",
          "name": "",
          "type": "uint256"
        }
      ],
      "stateMutability": "view",
      "type": "function"
    },
    {
      "inputs": [
        {
          "internalType": "address",
          "name": "creator",
          "type": "address"
        }
      ],
      "name": "getTokenIdsFromCreator",
      "outputs": [
        {
          "internalType": "uint256[]",
          "name": "",
          "type": "uint256[]"
        }
      ],
      "stateMutability": "view",
      "type": "function"
    },
    {
      "inputs": [
        {
          "internalType": "address",
          "name": "_spotToken",
          "type": "address"
        },
        {
          "internalType": "uint256",
          "name": "_expiry",
          "type": "uint256"
        }
      ],
      "name": "initialise",
      "outputs": [],
      "stateMutability": "nonpayable",
      "type": "function"
    },
    {
      "inputs": [],
      "name": "initilased",
      "outputs": [
        {
          "internalType": "bool",
          "name": "",
          "type": "bool"
        }
      ],
      "stateMutability": "view",
      "type": "function"
    },
    {
      "inputs": [
        {
          "internalType": "address",
          "name": "account",
          "type": "address"
        },
        {
          "internalType": "address",
          "name": "operator",
          "type": "address"
        }
      ],
      "name": "isApprovedForAll",
      "outputs": [
        {
          "internalType": "bool",
          "name": "",
          "type": "bool"
        }
      ],
      "stateMutability": "view",
      "type": "function"
    },
    {
      "inputs": [
        {
          "internalType": "address",
          "name": "",
          "type": "address"
        }
      ],
      "name": "merchantList",
      "outputs": [
        {
          "internalType": "bool",
          "name": "",
          "type": "bool"
        }
      ],
      "stateMutability": "view",
      "type": "function"
    },
    {
      "inputs": [
        {
          "internalType": "uint256",
          "name": "tokenId",
          "type": "uint256"
        },
        {
          "internalType": "uint256",
          "name": "amount",
          "type": "uint256"
        },
        {
          "internalType": "address",
          "name": "receiver",
          "type": "address"
        }
      ],
      "name": "mint",
      "outputs": [],
      "stateMutability": "nonpayable",
      "type": "function"
    },
    {
      "inputs": [
        {
          "internalType": "uint256[]",
          "name": "tokenIds",
          "type": "uint256[]"
        },
        {
          "internalType": "uint256[]",
          "name": "amounts",
          "type": "uint256[]"
        },
        {
          "internalType": "address",
          "name": "receiver",
          "type": "address"
        }
      ],
      "name": "mintBatch",
      "outputs": [],
      "stateMutability": "nonpayable",
      "type": "function"
    },
    {
      "inputs": [],
      "name": "owner",
      "outputs": [
        {
          "internalType": "address",
          "name": "",
          "type": "address"
        }
      ],
      "stateMutability": "view",
      "type": "function"
    },
    {
      "inputs": [],
      "name": "paused",
      "outputs": [
        {
          "internalType": "bool",
          "name": "",
          "type": "bool"
        }
      ],
      "stateMutability": "view",
      "type": "function"
    },
    {
      "inputs": [],
      "name": "renounceOwnership",
      "outputs": [],
      "stateMutability": "nonpayable",
      "type": "function"
    },
    {
      "inputs": [
        {
          "internalType": "address",
          "name": "from",
          "type": "address"
        },
        {
          "internalType": "address",
          "name": "to",
          "type": "address"
        },
        {
          "internalType": "uint256[]",
          "name": "ids",
          "type": "uint256[]"
        },
        {
          "internalType": "uint256[]",
          "name": "amounts",
          "type": "uint256[]"
        },
        {
          "internalType": "bytes",
          "name": "data",
          "type": "bytes"
        }
      ],
      "name": "safeBatchTransferFrom",
      "outputs": [],
      "stateMutability": "nonpayable",
      "type": "function"
    },
    {
      "inputs": [
        {
          "internalType": "address",
          "name": "from",
          "type": "address"
        },
        {
          "internalType": "address",
          "name": "to",
          "type": "address"
        },
        {
          "internalType": "uint256",
          "name": "id",
          "type": "uint256"
        },
        {
          "internalType": "uint256",
          "name": "amount",
          "type": "uint256"
        },
        {
          "internalType": "bytes",
          "name": "data",
          "type": "bytes"
        }
      ],
      "name": "safeTransferFrom",
      "outputs": [],
      "stateMutability": "nonpayable",
      "type": "function"
    },
    {
      "inputs": [
        {
          "internalType": "address[]",
          "name": "addresses",
          "type": "address[]"
        }
      ],
      "name": "seedMerchantList",
      "outputs": [],
      "stateMutability": "nonpayable",
      "type": "function"
    },
    {
      "inputs": [
        {
          "internalType": "address",
          "name": "operator",
          "type": "address"
        },
        {
          "internalType": "bool",
          "name": "approved",
          "type": "bool"
        }
      ],
      "name": "setApprovalForAll",
      "outputs": [],
      "stateMutability": "nonpayable",
      "type": "function"
    },
    {
      "inputs": [],
      "name": "spotToken",
      "outputs": [
        {
          "internalType": "address",
          "name": "",
          "type": "address"
        }
      ],
      "stateMutability": "view",
      "type": "function"
    },
    {
      "inputs": [
        {
          "internalType": "bytes4",
          "name": "interfaceId",
          "type": "bytes4"
        }
      ],
      "name": "supportsInterface",
      "outputs": [
        {
          "internalType": "bool",
          "name": "",
          "type": "bool"
        }
      ],
      "stateMutability": "view",
      "type": "function"
    },
    {
      "inputs": [
        {
          "internalType": "address",
          "name": "newOwner",
          "type": "address"
        }
      ],
      "name": "transferOwnership",
      "outputs": [],
      "stateMutability": "nonpayable",
      "type": "function"
    },
    {
      "inputs": [
        {
          "internalType": "uint256",
          "name": "id",
          "type": "uint256"
        }
      ],
      "name": "uri",
      "outputs": [
        {
          "internalType": "string",
          "name": "",
          "type": "string"
        }
      ],
      "stateMutability": "view",
      "type": "function"
    },
    {
      "inputs": [],
      "name": "withdrawFunds",
      "outputs": [],
      "stateMutability": "nonpayable",
      "type": "function"
    }
  ],
  "transactionHash": "0x50112f90a81c641073e9bffffc86bc79b4da047d90665d60748fa96d3de5ab7e",
  "args": [
    "uri1"
  ],
  "numDeployments": 1,
  "solcInputHash": "a18beec79d7bf1d294e735967c525e28",
  "bytecode": "0x6080604052600060068190556007556008805460ff191690553480156200002557600080fd5b5060405162003827380380620038278339810160408190526200004891620001bf565b604080516020810190915260008152620000628162000098565b506200006e33620000b1565b6003805460ff60a01b1916905580516200009090600990602084019062000103565b5050620002d8565b8051620000ad90600290602084019062000103565b5050565b600380546001600160a01b038381166001600160a01b0319831681179093556040519116919082907f8be0079c531659141344cd1fd0a4f28419497f9722a3daafe3b4186f6b6457e090600090a35050565b82805462000111906200029b565b90600052602060002090601f01602090048101928262000135576000855562000180565b82601f106200015057805160ff191683800117855562000180565b8280016001018555821562000180579182015b828111156200018057825182559160200191906001019062000163565b506200018e92915062000192565b5090565b5b808211156200018e576000815560010162000193565b634e487b7160e01b600052604160045260246000fd5b60006020808385031215620001d357600080fd5b82516001600160401b0380821115620001eb57600080fd5b818501915085601f8301126200020057600080fd5b815181811115620002155762000215620001a9565b604051601f8201601f19908116603f01168101908382118183101715620002405762000240620001a9565b8160405282815288868487010111156200025957600080fd5b600093505b828410156200027d57848401860151818501870152928501926200025e565b828411156200028f5760008684830101525b98975050505050505050565b600181811c90821680620002b057607f821691505b60208210811415620002d257634e487b7160e01b600052602260045260246000fd5b50919050565b61353f80620002e86000396000f3fe608060405234801561001057600080fd5b50600436106101ce5760003560e01c80635c975abb11610104578063c1e03728116100a2578063e985e9c511610071578063e985e9c5146103f1578063f242432a1461042d578063f2fde38b14610440578063f5298aca1461045357600080fd5b8063c1e03728146103a5578063e184c9be146103c8578063e4f70433146103d1578063e7d3fe6b146103de57600080fd5b80638da5cb5b116100de5780638da5cb5b1461036657806392da668414610377578063a22cb4651461037f578063bc279b0d1461039257600080fd5b80635c975abb146103395780636b20c4541461034b578063715018a61461035e57600080fd5b806326b54164116101715780632eb2c2d61161014b5780632eb2c2d6146102ed5780633b4d206b146103005780634e1273f41461031357806350d264ca1461032657600080fd5b806326b5416414610297578063294adb5a146102aa5780632a0ab641146102cd57600080fd5b80630b354cbb116101ad5780630b354cbb146102475780630e89341c1461025a578063196ea3c51461027a57806324600fc31461028f57600080fd5b8062fdd58e146101d357806301ffc9a7146101f95780630ad894621461021c575b600080fd5b6101e66101e13660046126dc565b610466565b6040519081526020015b60405180910390f35b61020c61020736600461271c565b6104fc565b60405190151581526020016101f0565b60045461022f906001600160a01b031681565b6040516001600160a01b0390911681526020016101f0565b6101e66102553660046127ee565b61054e565b61026d610268366004612822565b610576565b6040516101f09190612893565b61028d610288366004612941565b61061b565b005b61028d61068f565b61028d6102a5366004612975565b6107c4565b61020c6102b83660046129eb565b600a6020526000908152604090205460ff1681565b6102e06102db3660046129eb565b610a28565b6040516101f09190612a41565b61028d6102fb366004612aba565b610a93565b61028d61030e3660046126dc565b610e29565b6102e0610321366004612b63565b610ec2565b61028d610334366004612822565b610feb565b600354600160a01b900460ff1661020c565b61028d610359366004612bc6565b61105c565b61028d6110a4565b6003546001600160a01b031661022f565b6101e66110b8565b61028d61038d366004612c47565b6110ca565b61028d6103a0366004612c7e565b6110d5565b6103b86103b3366004612822565b6112b5565b6040516101f09493929190612cf1565b6101e660055481565b60085461020c9060ff1681565b61028d6103ec366004612d29565b611386565b61020c6103ff366004612d55565b6001600160a01b03918216600090815260016020908152604080832093909416825291909152205460ff1690565b61028d61043b366004612d88565b6114ae565b61028d61044e3660046129eb565b611697565b61028d610461366004612dec565b61170d565b60006001600160a01b0383166104d65760405162461bcd60e51b815260206004820152602a60248201527f455243313135353a2061646472657373207a65726f206973206e6f742061207660448201526930b634b21037bbb732b960b11b60648201526084015b60405180910390fd5b506000908152602081815260408083206001600160a01b03949094168352929052205490565b60006001600160e01b03198216636cdb3d1360e11b148061052d57506001600160e01b031982166303a24d0760e21b145b8061054857506301ffc9a760e01b6001600160e01b03198316145b92915050565b6000600c826040516105609190612e1f565b9081526020016040518091039020549050919050565b6000818152600b6020526040902060040180546060919061059690612e3b565b80601f01602080910402602001604051908101604052809291908181526020018280546105c290612e3b565b801561060f5780601f106105e45761010080835404028352916020019161060f565b820191906000526020600020905b8154815290600101906020018083116105f257829003601f168201915b50505050509050919050565b610623611750565b60005b815181101561068b576001600a600084848151811061064757610647612e76565b6020908102919091018101516001600160a01b03168252810191909152604001600020805460ff19169115159190911790558061068381612ea2565b915050610626565b5050565b610697611750565b6005544210156106f35760405162461bcd60e51b815260206004820152602160248201527f54686520766f7563686572732068617665206e6f7420796574206578706972656044820152601960fa1b60648201526084016104cd565b6106fb6117aa565b600454600090610714906001600160a01b0316306117f7565b60045490915061072e906001600160a01b031633836118d2565b6107c16009805461073e90612e3b565b80601f016020809104026020016040519081016040528092919081815260200182805461076a90612e3b565b80156107b75780601f1061078c576101008083540402835291602001916107b7565b820191906000526020600020905b81548152906001019060200180831161079a57829003601f168201915b50505050506119b6565b50565b6107cc611750565b6005548211156108305760405162461bcd60e51b815260206004820152602960248201527f546f6b656e206578706972792063616e27742065786365656420636f6e74726160448201526863742065787072697960b81b60648201526084016104cd565b42821161088b5760405162461bcd60e51b8152602060048201526024808201527f546f6b656e206578706972792073686f756c6420626520696e207468652066756044820152637475726560e01b60648201526084016104cd565b826108d85760405162461bcd60e51b815260206004820152601760248201527f53706f7420616d6f756e742063616e6e6f74206265203000000000000000000060448201526064016104cd565b6000846108e4856119c9565b6040516020016108f5929190612ebd565b60408051601f198184030181529181526006546000908152600b6020908152919020825192935061092a929091840190612627565b50600680546000908152600b60209081526040808320600101889055835483528083206002018790558354835280832060030180546001600160a01b0319163317905592548252919020835161098892600490920191850190612627565b50600654600c8260405161099c9190612e1f565b908152604080516020928190038301812093909355336000818152600d8452918220600680548254600181018455928552949093200192909255547f26ac42a87cddf489a9610c5435ed144b63f17f9dd19bcb6f06ed21f1d0aba8a792610a0892859189918991612eec565b60405180910390a1600654610a1e906001611ace565b6006555050505050565b6001600160a01b0381166000908152600d602090815260409182902080548351818402810184019094528084526060939283018282801561060f57602002820191906000526020600020905b815481526020019060010190808311610a745750505050509050919050565b610a9b6117aa565b600554421115610abd5760405162461bcd60e51b81526004016104cd90612f2b565b6001600160a01b038516331480610ad95750610ad985336103ff565b610af55760405162461bcd60e51b81526004016104cd90612f62565b8151835114610b465760405162461bcd60e51b815260206004820181905260248201527f556e657175616c2069647320616e6420616d6f756e747320737570706c69656460448201526064016104cd565b6001600160a01b0384166000908152600a602052604090205460ff16151560011415610d58576000805b8451811015610c9057600b6000868381518110610b8f57610b8f612e76565b602002602001015181526020019081526020016000206001015460001415610bc95760405162461bcd60e51b81526004016104cd90612fb1565b42600b6000878481518110610be057610be0612e76565b602002602001015181526020019081526020016000206002015411610c175760405162461bcd60e51b81526004016104cd90612fde565b610c7c610c75600b6000888581518110610c3357610c33612e76565b6020026020010151815260200190815260200160002060010154868481518110610c5f57610c5f612e76565b6020026020010151611ae190919063ffffffff16565b8390611ace565b915080610c8881612ea2565b915050610b70565b50600454600090610caa906001600160a01b0316306117f7565b905080610cc283600754611aed90919063ffffffff16565b10610cdf5760405162461bcd60e51b81526004016104cd90613008565b610cea878686611af9565b600454610d01906001600160a01b031687846118d2565b600754610d0e9083611aed565b6007556040517fd587ac0c9a5ce53ab901e6a20fa96541a25651cd447300e42978fe8377568b0090610d49908990899089908990889061303f565b60405180910390a15050610e22565b60005b8351811015610e1457600b6000858381518110610d7a57610d7a612e76565b602002602001015181526020019081526020016000206001015460001415610db45760405162461bcd60e51b81526004016104cd90612fb1565b42600b6000868481518110610dcb57610dcb612e76565b602002602001015181526020019081526020016000206002015411610e025760405162461bcd60e51b81526004016104cd90612fde565b80610e0c81612ea2565b915050610d5b565b50610e228585858585611c85565b5050505050565b610e31611750565b60085460ff1615610e8f5760405162461bcd60e51b815260206004820152602260248201527f546f6b656e2068617320616c7265616479206265656e20696e697469616c6973604482015261195960f21b60648201526084016104cd565b600480546001600160a01b0319166001600160a01b0393909316929092179091556005556008805460ff19166001179055565b60608151835114610f275760405162461bcd60e51b815260206004820152602960248201527f455243313135353a206163636f756e747320616e6420696473206c656e677468604482015268040dad2e6dac2e8c6d60bb1b60648201526084016104cd565b600083516001600160401b03811115610f4257610f42612739565b604051908082528060200260200182016040528015610f6b578160200160208202803683370190505b50905060005b8451811015610fe357610fb6858281518110610f8f57610f8f612e76565b6020026020010151858381518110610fa957610fa9612e76565b6020026020010151610466565b828281518110610fc857610fc8612e76565b6020908102919091010152610fdc81612ea2565b9050610f71565b509392505050565b610ff3611750565b60055481116110575760405162461bcd60e51b815260206004820152602a60248201527f4e657720657870697279206d757374206265206c6172676572207468616e20746044820152691a194818dd5c9c995b9d60b21b60648201526084016104cd565b600555565b6001600160a01b038316331480611078575061107883336103ff565b6110945760405162461bcd60e51b81526004016104cd90612f62565b61109f838383611af9565b505050565b6110ac611750565b6110b66000611e21565b565b60006110c2611750565b506007545b90565b61068b338383611e73565b6110dd611750565b6005544211156110ff5760405162461bcd60e51b81526004016104cd90612f2b565b6111076117aa565b81518351146111585760405162461bcd60e51b815260206004820181905260248201527f556e657175616c2069647320616e6420616d6f756e747320737570706c69656460448201526064016104cd565b6000805b845181101561123357600b600086838151811061117b5761117b612e76565b6020026020010151815260200190815260200160002060010154600014156111b55760405162461bcd60e51b81526004016104cd90612fb1565b42600b60008784815181106111cc576111cc612e76565b6020026020010151815260200190815260200160002060020154116112035760405162461bcd60e51b81526004016104cd90612fde565b61121f610c75600b6000888581518110610c3357610c33612e76565b91508061122b81612ea2565b91505061115c565b5060045460009061124d906001600160a01b0316306117f7565b90508061126583600754611ace90919063ffffffff16565b11156112835760405162461bcd60e51b81526004016104cd90613008565b61129e83868660405180602001604052806000815250611f54565b6007546112ab9083611ace565b6007555050505050565b6000818152600b6020526040812060018101546002820154600383015483546060959485948594919390926001600160a01b039091169084906112f790612e3b565b80601f016020809104026020016040519081016040528092919081815260200182805461132390612e3b565b80156113705780601f1061134557610100808354040283529160200191611370565b820191906000526020600020905b81548152906001019060200180831161135357829003601f168201915b5050505050935093509350935093509193509193565b61138e611750565b6005544211156113b05760405162461bcd60e51b81526004016104cd90612f2b565b6113b86117aa565b6000838152600b60205260409020600101546113e65760405162461bcd60e51b81526004016104cd90612fb1565b6000838152600b602052604090206002015442106114165760405162461bcd60e51b81526004016104cd90612fde565b60045460009061142f906001600160a01b0316306117f7565b6000858152600b602052604081206001015491925090611450908590611ae1565b90508161146882600754611ace90919063ffffffff16565b11156114865760405162461bcd60e51b81526004016104cd90613008565b6114a18386866040518060200160405280600081525061209f565b6007546112ab9082611ace565b6114b66117aa565b6005544211156114d85760405162461bcd60e51b81526004016104cd90612f2b565b6001600160a01b0385163314806114f457506114f485336103ff565b6115105760405162461bcd60e51b81526004016104cd90612f62565b6000838152600b602052604090206001015461153e5760405162461bcd60e51b81526004016104cd90612fb1565b6000838152600b6020526040902060020154421061156e5760405162461bcd60e51b81526004016104cd90612fde565b6001600160a01b0384166000908152600a602052604090205460ff1615156001141561168a576000838152600b60205260408120600101546115b1908490611ae1565b6004549091506000906115cd906001600160a01b0316306117f7565b9050806115e583600754611aed90919063ffffffff16565b106116025760405162461bcd60e51b81526004016104cd90613008565b61160d878686612179565b600454611624906001600160a01b031687846118d2565b6007546116319083611aed565b600755604080516001600160a01b03808a1682528816602082015290810186905260608101859052608081018390527fae844ff7283ad40e40f859c62cd1c68164ec1cd7e674812d259b64a2383b92ec9060a001610d49565b610e22858585858561227d565b61169f611750565b6001600160a01b0381166117045760405162461bcd60e51b815260206004820152602660248201527f4f776e61626c653a206e6577206f776e657220697320746865207a65726f206160448201526564647265737360d01b60648201526084016104cd565b6107c181611e21565b6001600160a01b038316331480611729575061172983336103ff565b6117455760405162461bcd60e51b81526004016104cd90612f62565b61109f838383612179565b6003546001600160a01b031633146110b65760405162461bcd60e51b815260206004820181905260248201527f4f776e61626c653a2063616c6c6572206973206e6f7420746865206f776e657260448201526064016104cd565b600354600160a01b900460ff16156110b65760405162461bcd60e51b815260206004820152601060248201526f14185d5cd8589b194e881c185d5cd95960821b60448201526064016104cd565b604080516001600160a01b0383811660248084019190915283518084039091018152604490920183526020820180516001600160e01b03166370a0823160e01b179052915160009283928392918716916118519190612e1f565b6000604051808303816000865af19150503d806000811461188e576040519150601f19603f3d011682016040523d82523d6000602084013e611893565b606091505b5091509150816118b55760405162461bcd60e51b81526004016104cd90613090565b808060200190518101906118c991906130d7565b95945050505050565b604080516001600160a01b038481166024830152604480830185905283518084039091018152606490920183526020820180516001600160e01b031663a9059cbb60e01b179052915160009283929087169161192e9190612e1f565b6000604051808303816000865af19150503d806000811461196b576040519150601f19603f3d011682016040523d82523d6000602084013e611970565b606091505b509150915081801561199a57508051158061199a57508080602001905181019061199a91906130f0565b610e225760405162461bcd60e51b81526004016104cd90613090565b805161068b906002906020840190612627565b6060816119ed5750506040805180820190915260018152600360fc1b602082015290565b8160005b8115611a175780611a0181612ea2565b9150611a109050600a83613123565b91506119f1565b6000816001600160401b03811115611a3157611a31612739565b6040519080825280601f01601f191660200182016040528015611a5b576020820181803683370190505b5090505b8415611ac657611a70600183613137565b9150611a7d600a8661314e565b611a88906030613162565b60f81b818381518110611a9d57611a9d612e76565b60200101906001600160f81b031916908160001a905350611abf600a86613123565b9450611a5f565b949350505050565b6000611ada8284613162565b9392505050565b6000611ada828461317a565b6000611ada8284613137565b6001600160a01b038316611b1f5760405162461bcd60e51b81526004016104cd90613199565b8051825114611b405760405162461bcd60e51b81526004016104cd906131dc565b604080516020810190915260009081905233905b8351811015611c16576000848281518110611b7157611b71612e76565b602002602001015190506000848381518110611b8f57611b8f612e76565b602090810291909101810151600084815280835260408082206001600160a01b038c168352909352919091205490915081811015611bdf5760405162461bcd60e51b81526004016104cd90613224565b6000928352602083815260408085206001600160a01b038b1686529091529092209103905580611c0e81612ea2565b915050611b54565b5060006001600160a01b0316846001600160a01b0316826001600160a01b03167f4a39dc06d4c0dbc64b70af90fd698a233a518aa5d07e595d983b8c0526c8f7fb8686604051611c67929190613268565b60405180910390a46040805160208101909152600090525b50505050565b8151835114611ca65760405162461bcd60e51b81526004016104cd906131dc565b6001600160a01b038416611ccc5760405162461bcd60e51b81526004016104cd9061328d565b3360005b8451811015611db3576000858281518110611ced57611ced612e76565b602002602001015190506000858381518110611d0b57611d0b612e76565b602090810291909101810151600084815280835260408082206001600160a01b038e168352909352919091205490915081811015611d5b5760405162461bcd60e51b81526004016104cd906132d2565b6000838152602081815260408083206001600160a01b038e8116855292528083208585039055908b16825281208054849290611d98908490613162565b9250508190555050505080611dac90612ea2565b9050611cd0565b50846001600160a01b0316866001600160a01b0316826001600160a01b03167f4a39dc06d4c0dbc64b70af90fd698a233a518aa5d07e595d983b8c0526c8f7fb8787604051611e03929190613268565b60405180910390a4611e198187878787876123a7565b505050505050565b600380546001600160a01b038381166001600160a01b0319831681179093556040519116919082907f8be0079c531659141344cd1fd0a4f28419497f9722a3daafe3b4186f6b6457e090600090a35050565b816001600160a01b0316836001600160a01b03161415611ee75760405162461bcd60e51b815260206004820152602960248201527f455243313135353a2073657474696e6720617070726f76616c20737461747573604482015268103337b91039b2b63360b91b60648201526084016104cd565b6001600160a01b03838116600081815260016020908152604080832094871680845294825291829020805460ff191686151590811790915591519182527f17307eab39ab6107e8899845ad3d59bd9653f200f220920489ca2b5937696c31910160405180910390a3505050565b6001600160a01b038416611f7a5760405162461bcd60e51b81526004016104cd9061331c565b8151835114611f9b5760405162461bcd60e51b81526004016104cd906131dc565b3360005b845181101561203757838181518110611fba57611fba612e76565b6020026020010151600080878481518110611fd757611fd7612e76565b602002602001015181526020019081526020016000206000886001600160a01b03166001600160a01b03168152602001908152602001600020600082825461201f9190613162565b9091555081905061202f81612ea2565b915050611f9f565b50846001600160a01b031660006001600160a01b0316826001600160a01b03167f4a39dc06d4c0dbc64b70af90fd698a233a518aa5d07e595d983b8c0526c8f7fb8787604051612088929190613268565b60405180910390a4610e22816000878787876123a7565b6001600160a01b0384166120c55760405162461bcd60e51b81526004016104cd9061331c565b3360006120d185612512565b905060006120de85612512565b90506000868152602081815260408083206001600160a01b038b16845290915281208054879290612110908490613162565b909155505060408051878152602081018790526001600160a01b03808a1692600092918716917fc3d58168c5ae7397731d063d5bbf3d657854427343f4c083240f7aacaa2d0f62910160405180910390a46121708360008989898961255d565b50505050505050565b6001600160a01b03831661219f5760405162461bcd60e51b81526004016104cd90613199565b3360006121ab84612512565b905060006121b884612512565b60408051602080820183526000918290528882528181528282206001600160a01b038b16835290522054909150848110156122055760405162461bcd60e51b81526004016104cd90613224565b6000868152602081815260408083206001600160a01b038b81168086529184528285208a8703905582518b81529384018a90529092908816917fc3d58168c5ae7397731d063d5bbf3d657854427343f4c083240f7aacaa2d0f62910160405180910390a4604080516020810190915260009052612170565b6001600160a01b0384166122a35760405162461bcd60e51b81526004016104cd9061328d565b3360006122af85612512565b905060006122bc85612512565b90506000868152602081815260408083206001600160a01b038c168452909152902054858110156122ff5760405162461bcd60e51b81526004016104cd906132d2565b6000878152602081815260408083206001600160a01b038d8116855292528083208985039055908a1682528120805488929061233c908490613162565b909155505060408051888152602081018890526001600160a01b03808b16928c821692918816917fc3d58168c5ae7397731d063d5bbf3d657854427343f4c083240f7aacaa2d0f62910160405180910390a461239c848a8a8a8a8a61255d565b505050505050505050565b6001600160a01b0384163b15611e195760405163bc197c8160e01b81526001600160a01b0385169063bc197c81906123eb908990899088908890889060040161335d565b602060405180830381600087803b15801561240557600080fd5b505af1925050508015612435575060408051601f3d908101601f19168201909252612432918101906133bb565b60015b6124e2576124416133d8565b806308c379a0141561247b57506124566133f3565b80612461575061247d565b8060405162461bcd60e51b81526004016104cd9190612893565b505b60405162461bcd60e51b815260206004820152603460248201527f455243313135353a207472616e7366657220746f206e6f6e20455243313135356044820152732932b1b2b4bb32b91034b6b83632b6b2b73a32b960611b60648201526084016104cd565b6001600160e01b0319811663bc197c8160e01b146121705760405162461bcd60e51b81526004016104cd9061347c565b6040805160018082528183019092526060916000919060208083019080368337019050509050828160008151811061254c5761254c612e76565b602090810291909101015292915050565b6001600160a01b0384163b15611e195760405163f23a6e6160e01b81526001600160a01b0385169063f23a6e61906125a190899089908890889088906004016134c4565b602060405180830381600087803b1580156125bb57600080fd5b505af19250505080156125eb575060408051601f3d908101601f191682019092526125e8918101906133bb565b60015b6125f7576124416133d8565b6001600160e01b0319811663f23a6e6160e01b146121705760405162461bcd60e51b81526004016104cd9061347c565b82805461263390612e3b565b90600052602060002090601f016020900481019282612655576000855561269b565b82601f1061266e57805160ff191683800117855561269b565b8280016001018555821561269b579182015b8281111561269b578251825591602001919060010190612680565b506126a79291506126ab565b5090565b5b808211156126a757600081556001016126ac565b80356001600160a01b03811681146126d757600080fd5b919050565b600080604083850312156126ef57600080fd5b6126f8836126c0565b946020939093013593505050565b6001600160e01b0319811681146107c157600080fd5b60006020828403121561272e57600080fd5b8135611ada81612706565b634e487b7160e01b600052604160045260246000fd5b601f8201601f191681016001600160401b038111828210171561277457612774612739565b6040525050565b600082601f83011261278c57600080fd5b81356001600160401b038111156127a5576127a5612739565b6040516127bc601f8301601f19166020018261274f565b8181528460208386010111156127d157600080fd5b816020850160208301376000918101602001919091529392505050565b60006020828403121561280057600080fd5b81356001600160401b0381111561281657600080fd5b611ac68482850161277b565b60006020828403121561283457600080fd5b5035919050565b60005b8381101561285657818101518382015260200161283e565b83811115611c7f5750506000910152565b6000815180845261287f81602086016020860161283b565b601f01601f19169290920160200192915050565b602081526000611ada6020830184612867565b60006001600160401b038211156128bf576128bf612739565b5060051b60200190565b600082601f8301126128da57600080fd5b813560206128e7826128a6565b6040516128f4828261274f565b83815260059390931b850182019282810191508684111561291457600080fd5b8286015b8481101561293657612929816126c0565b8352918301918301612918565b509695505050505050565b60006020828403121561295357600080fd5b81356001600160401b0381111561296957600080fd5b611ac6848285016128c9565b6000806000806080858703121561298b57600080fd5b84356001600160401b03808211156129a257600080fd5b6129ae8883890161277b565b9550602087013594506040870135935060608701359150808211156129d257600080fd5b506129df8782880161277b565b91505092959194509250565b6000602082840312156129fd57600080fd5b611ada826126c0565b600081518084526020808501945080840160005b83811015612a3657815187529582019590820190600101612a1a565b509495945050505050565b602081526000611ada6020830184612a06565b600082601f830112612a6557600080fd5b81356020612a72826128a6565b604051612a7f828261274f565b83815260059390931b8501820192828101915086841115612a9f57600080fd5b8286015b848110156129365780358352918301918301612aa3565b600080600080600060a08688031215612ad257600080fd5b612adb866126c0565b9450612ae9602087016126c0565b935060408601356001600160401b0380821115612b0557600080fd5b612b1189838a01612a54565b94506060880135915080821115612b2757600080fd5b612b3389838a01612a54565b93506080880135915080821115612b4957600080fd5b50612b568882890161277b565b9150509295509295909350565b60008060408385031215612b7657600080fd5b82356001600160401b0380821115612b8d57600080fd5b612b99868387016128c9565b93506020850135915080821115612baf57600080fd5b50612bbc85828601612a54565b9150509250929050565b600080600060608486031215612bdb57600080fd5b612be4846126c0565b925060208401356001600160401b0380821115612c0057600080fd5b612c0c87838801612a54565b93506040860135915080821115612c2257600080fd5b50612c2f86828701612a54565b9150509250925092565b80151581146107c157600080fd5b60008060408385031215612c5a57600080fd5b612c63836126c0565b91506020830135612c7381612c39565b809150509250929050565b600080600060608486031215612c9357600080fd5b83356001600160401b0380821115612caa57600080fd5b612cb687838801612a54565b94506020860135915080821115612ccc57600080fd5b50612cd986828701612a54565b925050612ce8604085016126c0565b90509250925092565b608081526000612d046080830187612867565b60208301959095525060408101929092526001600160a01b0316606090910152919050565b600080600060608486031215612d3e57600080fd5b8335925060208401359150612ce8604085016126c0565b60008060408385031215612d6857600080fd5b612d71836126c0565b9150612d7f602084016126c0565b90509250929050565b600080600080600060a08688031215612da057600080fd5b612da9866126c0565b9450612db7602087016126c0565b9350604086013592506060860135915060808601356001600160401b03811115612de057600080fd5b612b568882890161277b565b600080600060608486031215612e0157600080fd5b612e0a846126c0565b95602085013595506040909401359392505050565b60008251612e3181846020870161283b565b9190910192915050565b600181811c90821680612e4f57607f821691505b60208210811415612e7057634e487b7160e01b600052602260045260246000fd5b50919050565b634e487b7160e01b600052603260045260246000fd5b634e487b7160e01b600052601160045260246000fd5b6000600019821415612eb657612eb6612e8c565b5060010190565b60008351612ecf81846020880161283b565b835190830190612ee381836020880161283b565b01949350505050565b85815260a060208201526000612f0560a0830187612867565b60408301959095525060608101929092526001600160a01b031660809091015292915050565b60208082526019908201527f54686520766f7563686572732068617665206578706972656400000000000000604082015260600190565b6020808252602f908201527f455243313135353a2063616c6c6572206973206e6f7420746f6b656e206f776e60408201526e195c881b9bdc88185c1c1c9bdd9959608a1b606082015260800190565b602080825260139082015272496e76616c696420746f6b656e20696428732960681b604082015260600190565b60208082526010908201526f151bdad95b8a1cca48195e1c1a5c995960821b604082015260600190565b60208082526018908201527f496e73756666696369656e742073706f7420746f6b656e730000000000000000604082015260600190565b6001600160a01b0386811682528516602082015260a06040820181905260009061306b90830186612a06565b828103606084015261307d8186612a06565b9150508260808301529695505050505050565b60208082526027908201527f496e746572616374696f6e2077697468207468652073706f7420746f6b656e206040820152663330b4b632b21760c91b606082015260800190565b6000602082840312156130e957600080fd5b5051919050565b60006020828403121561310257600080fd5b8151611ada81612c39565b634e487b7160e01b600052601260045260246000fd5b6000826131325761313261310d565b500490565b60008282101561314957613149612e8c565b500390565b60008261315d5761315d61310d565b500690565b6000821982111561317557613175612e8c565b500190565b600081600019048311821515161561319457613194612e8c565b500290565b60208082526023908201527f455243313135353a206275726e2066726f6d20746865207a65726f206164647260408201526265737360e81b606082015260800190565b60208082526028908201527f455243313135353a2069647320616e6420616d6f756e7473206c656e677468206040820152670dad2e6dac2e8c6d60c31b606082015260800190565b60208082526024908201527f455243313135353a206275726e20616d6f756e7420657863656564732062616c604082015263616e636560e01b606082015260800190565b60408152600061327b6040830185612a06565b82810360208401526118c98185612a06565b60208082526025908201527f455243313135353a207472616e7366657220746f20746865207a65726f206164604082015264647265737360d81b606082015260800190565b6020808252602a908201527f455243313135353a20696e73756666696369656e742062616c616e636520666f60408201526939103a3930b739b332b960b11b606082015260800190565b60208082526021908201527f455243313135353a206d696e7420746f20746865207a65726f206164647265736040820152607360f81b606082015260800190565b6001600160a01b0386811682528516602082015260a06040820181905260009061338990830186612a06565b828103606084015261339b8186612a06565b905082810360808401526133af8185612867565b98975050505050505050565b6000602082840312156133cd57600080fd5b8151611ada81612706565b600060033d11156110c75760046000803e5060005160e01c90565b600060443d10156134015790565b6040516003193d81016004833e81513d6001600160401b03816024840111818411171561343057505050505090565b82850191508151818111156134485750505050505090565b843d87010160208285010111156134625750505050505090565b6134716020828601018761274f565b509095945050505050565b60208082526028908201527f455243313135353a204552433131353552656365697665722072656a656374656040820152676420746f6b656e7360c01b606082015260800190565b6001600160a01b03868116825285166020820152604081018490526060810183905260a0608082018190526000906134fe90830184612867565b97965050505050505056fea264697066735822122006bbb5e0ed4b6a03a2446ee7887d7d936d97aacab86928758b17e889eee0e10b64736f6c63430008090033",
  "devdoc": {
    "kind": "dev",
    "methods": {
      "balanceOf(address,uint256)": {
        "details": "See {IERC1155-balanceOf}. Requirements: - `account` cannot be the zero address."
      },
      "balanceOfBatch(address[],uint256[])": {
        "details": "See {IERC1155-balanceOfBatch}. Requirements: - `accounts` and `ids` must have the same length."
      },
      "isApprovedForAll(address,address)": {
        "details": "See {IERC1155-isApprovedForAll}."
      },
      "owner()": {
        "details": "Returns the address of the current owner."
      },
      "paused()": {
        "details": "Returns true if the contract is paused, and false otherwise."
      },
      "renounceOwnership()": {
        "details": "Leaves the contract without owner. It will not be possible to call `onlyOwner` functions anymore. Can only be called by the current owner. NOTE: Renouncing ownership will leave the contract without an owner, thereby removing any functionality that is only available to the owner."
      },
      "safeBatchTransferFrom(address,address,uint256[],uint256[],bytes)": {
        "details": "See {IERC1155-safeBatchTransferFrom}."
      },
      "safeTransferFrom(address,address,uint256,uint256,bytes)": {
        "details": "See {IERC1155-safeTransferFrom}."
      },
      "setApprovalForAll(address,bool)": {
        "details": "See {IERC1155-setApprovalForAll}."
      },
      "supportsInterface(bytes4)": {
        "details": "See {IERC165-supportsInterface}."
      },
      "transferOwnership(address)": {
        "details": "Transfers ownership of the contract to a new account (`newOwner`). Can only be called by the current owner."
      }
    },
    "version": 1
  },
  "userdoc": {
    "kind": "user",
    "methods": {},
    "version": 1
  },
  "storageLayout": {
    "storage": [
      {
        "astId": 249,
        "contract": "contracts/PBM.sol:PBM",
        "label": "_balances",
        "offset": 0,
        "slot": "0",
        "type": "t_mapping(t_uint256,t_mapping(t_address,t_uint256))"
      },
      {
        "astId": 255,
        "contract": "contracts/PBM.sol:PBM",
        "label": "_operatorApprovals",
        "offset": 0,
        "slot": "1",
        "type": "t_mapping(t_address,t_mapping(t_address,t_bool))"
      },
      {
        "astId": 257,
        "contract": "contracts/PBM.sol:PBM",
        "label": "_uri",
        "offset": 0,
        "slot": "2",
        "type": "t_string_storage"
      },
      {
        "astId": 7,
        "contract": "contracts/PBM.sol:PBM",
        "label": "_owner",
        "offset": 0,
        "slot": "3",
        "type": "t_address"
      },
      {
        "astId": 133,
        "contract": "contracts/PBM.sol:PBM",
        "label": "_paused",
        "offset": 20,
        "slot": "3",
        "type": "t_bool"
      },
      {
        "astId": 3298,
        "contract": "contracts/PBM.sol:PBM",
        "label": "spotToken",
        "offset": 0,
        "slot": "4",
        "type": "t_address"
      },
      {
        "astId": 3300,
        "contract": "contracts/PBM.sol:PBM",
        "label": "expiry",
        "offset": 0,
        "slot": "5",
        "type": "t_uint256"
      },
      {
        "astId": 3303,
        "contract": "contracts/PBM.sol:PBM",
        "label": "tokenTypeCount",
        "offset": 0,
        "slot": "6",
        "type": "t_uint256"
      },
      {
        "astId": 3306,
        "contract": "contracts/PBM.sol:PBM",
        "label": "spotValueOfAllExistingTokens",
        "offset": 0,
        "slot": "7",
        "type": "t_uint256"
      },
      {
        "astId": 3309,
        "contract": "contracts/PBM.sol:PBM",
        "label": "initilased",
        "offset": 0,
        "slot": "8",
        "type": "t_bool"
      },
      {
        "astId": 3311,
        "contract": "contracts/PBM.sol:PBM",
        "label": "URIPostExpiry",
        "offset": 0,
        "slot": "9",
        "type": "t_string_storage"
      },
      {
        "astId": 3401,
        "contract": "contracts/PBM.sol:PBM",
        "label": "merchantList",
        "offset": 0,
        "slot": "10",
        "type": "t_mapping(t_address,t_bool)"
      },
      {
        "astId": 3406,
        "contract": "contracts/PBM.sol:PBM",
        "label": "tokenTypes",
        "offset": 0,
        "slot": "11",
        "type": "t_mapping(t_uint256,t_struct(TokenConfig)3397_storage)"
      },
      {
        "astId": 3410,
        "contract": "contracts/PBM.sol:PBM",
        "label": "tokenNameToId",
        "offset": 0,
        "slot": "12",
        "type": "t_mapping(t_string_memory_ptr,t_uint256)"
      },
      {
        "astId": 3415,
        "contract": "contracts/PBM.sol:PBM",
        "label": "tokenCreatorToIds",
        "offset": 0,
        "slot": "13",
        "type": "t_mapping(t_address,t_array(t_uint256)dyn_storage)"
      }
    ],
    "types": {
      "t_address": {
        "encoding": "inplace",
        "label": "address",
        "numberOfBytes": "20"
      },
      "t_array(t_uint256)dyn_storage": {
        "base": "t_uint256",
        "encoding": "dynamic_array",
        "label": "uint256[]",
        "numberOfBytes": "32"
      },
      "t_bool": {
        "encoding": "inplace",
        "label": "bool",
        "numberOfBytes": "1"
      },
      "t_mapping(t_address,t_array(t_uint256)dyn_storage)": {
        "encoding": "mapping",
        "key": "t_address",
        "label": "mapping(address => uint256[])",
        "numberOfBytes": "32",
        "value": "t_array(t_uint256)dyn_storage"
      },
      "t_mapping(t_address,t_bool)": {
        "encoding": "mapping",
        "key": "t_address",
        "label": "mapping(address => bool)",
        "numberOfBytes": "32",
        "value": "t_bool"
      },
      "t_mapping(t_address,t_mapping(t_address,t_bool))": {
        "encoding": "mapping",
        "key": "t_address",
        "label": "mapping(address => mapping(address => bool))",
        "numberOfBytes": "32",
        "value": "t_mapping(t_address,t_bool)"
      },
      "t_mapping(t_address,t_uint256)": {
        "encoding": "mapping",
        "key": "t_address",
        "label": "mapping(address => uint256)",
        "numberOfBytes": "32",
        "value": "t_uint256"
      },
      "t_mapping(t_string_memory_ptr,t_uint256)": {
        "encoding": "mapping",
        "key": "t_string_memory_ptr",
        "label": "mapping(string => uint256)",
        "numberOfBytes": "32",
        "value": "t_uint256"
      },
      "t_mapping(t_uint256,t_mapping(t_address,t_uint256))": {
        "encoding": "mapping",
        "key": "t_uint256",
        "label": "mapping(uint256 => mapping(address => uint256))",
        "numberOfBytes": "32",
        "value": "t_mapping(t_address,t_uint256)"
      },
      "t_mapping(t_uint256,t_struct(TokenConfig)3397_storage)": {
        "encoding": "mapping",
        "key": "t_uint256",
        "label": "mapping(uint256 => struct PBM.TokenConfig)",
        "numberOfBytes": "32",
        "value": "t_struct(TokenConfig)3397_storage"
      },
      "t_string_memory_ptr": {
        "encoding": "bytes",
        "label": "string",
        "numberOfBytes": "32"
      },
      "t_string_storage": {
        "encoding": "bytes",
        "label": "string",
        "numberOfBytes": "32"
      },
      "t_struct(TokenConfig)3397_storage": {
        "encoding": "inplace",
        "label": "struct PBM.TokenConfig",
        "members": [
          {
            "astId": 3388,
            "contract": "contracts/PBM.sol:PBM",
            "label": "name",
            "offset": 0,
            "slot": "0",
            "type": "t_string_storage"
          },
          {
            "astId": 3390,
            "contract": "contracts/PBM.sol:PBM",
            "label": "amount",
            "offset": 0,
            "slot": "1",
            "type": "t_uint256"
          },
          {
            "astId": 3392,
            "contract": "contracts/PBM.sol:PBM",
            "label": "expiry",
            "offset": 0,
            "slot": "2",
            "type": "t_uint256"
          },
          {
            "astId": 3394,
            "contract": "contracts/PBM.sol:PBM",
            "label": "creator",
            "offset": 0,
            "slot": "3",
            "type": "t_address"
          },
          {
            "astId": 3396,
            "contract": "contracts/PBM.sol:PBM",
            "label": "uri",
            "offset": 0,
            "slot": "4",
            "type": "t_string_storage"
          }
        ],
        "numberOfBytes": "160"
      },
      "t_uint256": {
        "encoding": "inplace",
        "label": "uint256",
        "numberOfBytes": "32"
      }
    }
  }
}