{
  "contractName": "PBM",
  "abi": [
    {
      "inputs": [
        {
          "internalType": "address",
          "name": "_spotToken",
          "type": "address"
        },
        {
          "internalType": "uint256",
          "name": "_expiry",
          "type": "uint256"
        },
        {
          "internalType": "string",
          "name": "_uriPostExpiry",
          "type": "string"
        }
      ],
      "stateMutability": "nonpayable",
      "type": "constructor"
    },
    {
      "anonymous": false,
      "inputs": [
        {
          "indexed": true,
          "internalType": "address",
          "name": "account",
          "type": "address"
        },
        {
          "indexed": true,
          "internalType": "address",
          "name": "operator",
          "type": "address"
        },
        {
          "indexed": false,
          "internalType": "bool",
          "name": "approved",
          "type": "bool"
        }
      ],
      "name": "ApprovalForAll",
      "type": "event"
    },
    {
      "anonymous": false,
      "inputs": [
        {
          "indexed": false,
          "internalType": "address",
          "name": "from",
          "type": "address"
        },
        {
          "indexed": false,
          "internalType": "address",
          "name": "to",
          "type": "address"
        },
        {
          "indexed": false,
          "internalType": "uint256[]",
          "name": "tokenIds",
          "type": "uint256[]"
        },
        {
          "indexed": false,
          "internalType": "uint256[]",
          "name": "amounts",
          "type": "uint256[]"
        },
        {
          "indexed": false,
          "internalType": "address",
          "name": "ERC20Token",
          "type": "address"
        },
        {
          "indexed": false,
          "internalType": "uint256",
          "name": "ERC20TokenValue",
          "type": "uint256"
        }
      ],
      "name": "MerchantPayment",
      "type": "event"
    },
    {
      "anonymous": false,
      "inputs": [
        {
          "indexed": true,
          "internalType": "address",
          "name": "previousOwner",
          "type": "address"
        },
        {
          "indexed": true,
          "internalType": "address",
          "name": "newOwner",
          "type": "address"
        }
      ],
      "name": "OwnershipTransferred",
      "type": "event"
    },
    {
      "anonymous": false,
      "inputs": [
        {
          "indexed": false,
          "internalType": "address",
          "name": "beneficiary",
          "type": "address"
        },
        {
          "indexed": false,
          "internalType": "uint256",
          "name": "PBMTokenId",
          "type": "uint256"
        },
        {
          "indexed": false,
          "internalType": "address",
          "name": "ERC20Token",
          "type": "address"
        },
        {
          "indexed": false,
          "internalType": "uint256",
          "name": "ERC20TokenValue",
          "type": "uint256"
        }
      ],
      "name": "PBMrevokeWithdraw",
      "type": "event"
    },
    {
      "anonymous": false,
      "inputs": [
        {
          "indexed": false,
          "internalType": "address",
          "name": "account",
          "type": "address"
        }
      ],
      "name": "Paused",
      "type": "event"
    },
    {
      "anonymous": false,
      "inputs": [
        {
          "indexed": true,
          "internalType": "address",
          "name": "operator",
          "type": "address"
        },
        {
          "indexed": true,
          "internalType": "address",
          "name": "from",
          "type": "address"
        },
        {
          "indexed": true,
          "internalType": "address",
          "name": "to",
          "type": "address"
        },
        {
          "indexed": false,
          "internalType": "uint256[]",
          "name": "ids",
          "type": "uint256[]"
        },
        {
          "indexed": false,
          "internalType": "uint256[]",
          "name": "values",
          "type": "uint256[]"
        }
      ],
      "name": "TransferBatch",
      "type": "event"
    },
    {
      "anonymous": false,
      "inputs": [
        {
          "indexed": true,
          "internalType": "address",
          "name": "operator",
          "type": "address"
        },
        {
          "indexed": true,
          "internalType": "address",
          "name": "from",
          "type": "address"
        },
        {
          "indexed": true,
          "internalType": "address",
          "name": "to",
          "type": "address"
        },
        {
          "indexed": false,
          "internalType": "uint256",
          "name": "id",
          "type": "uint256"
        },
        {
          "indexed": false,
          "internalType": "uint256",
          "name": "value",
          "type": "uint256"
        }
      ],
      "name": "TransferSingle",
      "type": "event"
    },
    {
      "anonymous": false,
      "inputs": [
        {
          "indexed": false,
          "internalType": "string",
          "name": "value",
          "type": "string"
        },
        {
          "indexed": true,
          "internalType": "uint256",
          "name": "id",
          "type": "uint256"
        }
      ],
      "name": "URI",
      "type": "event"
    },
    {
      "anonymous": false,
      "inputs": [
        {
          "indexed": false,
          "internalType": "address",
          "name": "account",
          "type": "address"
        }
      ],
      "name": "Unpaused",
      "type": "event"
    },
    {
      "inputs": [
        {
          "internalType": "address",
          "name": "account",
          "type": "address"
        },
        {
          "internalType": "uint256",
          "name": "id",
          "type": "uint256"
        }
      ],
      "name": "balanceOf",
      "outputs": [
        {
          "internalType": "uint256",
          "name": "",
          "type": "uint256"
        }
      ],
      "stateMutability": "view",
      "type": "function"
    },
    {
      "inputs": [
        {
          "internalType": "address[]",
          "name": "accounts",
          "type": "address[]"
        },
        {
          "internalType": "uint256[]",
          "name": "ids",
          "type": "uint256[]"
        }
      ],
      "name": "balanceOfBatch",
      "outputs": [
        {
          "internalType": "uint256[]",
          "name": "",
          "type": "uint256[]"
        }
      ],
      "stateMutability": "view",
      "type": "function"
    },
    {
      "inputs": [],
      "name": "contractExpiry",
      "outputs": [
        {
          "internalType": "uint256",
          "name": "",
          "type": "uint256"
        }
      ],
      "stateMutability": "view",
      "type": "function"
    },
    {
      "inputs": [
        {
          "internalType": "address",
          "name": "account",
          "type": "address"
        },
        {
          "internalType": "address",
          "name": "operator",
          "type": "address"
        }
      ],
      "name": "isApprovedForAll",
      "outputs": [
        {
          "internalType": "bool",
          "name": "",
          "type": "bool"
        }
      ],
      "stateMutability": "view",
      "type": "function"
    },
    {
      "inputs": [
        {
          "internalType": "address",
          "name": "",
          "type": "address"
        }
      ],
      "name": "merchantList",
      "outputs": [
        {
          "internalType": "bool",
          "name": "",
          "type": "bool"
        }
      ],
      "stateMutability": "view",
      "type": "function"
    },
    {
      "inputs": [],
      "name": "owner",
      "outputs": [
        {
          "internalType": "address",
          "name": "",
          "type": "address"
        }
      ],
      "stateMutability": "view",
      "type": "function"
    },
    {
      "inputs": [],
      "name": "paused",
      "outputs": [
        {
          "internalType": "bool",
          "name": "",
          "type": "bool"
        }
      ],
      "stateMutability": "view",
      "type": "function"
    },
    {
      "inputs": [],
      "name": "pbmTokenManager",
      "outputs": [
        {
          "internalType": "address",
          "name": "",
          "type": "address"
        }
      ],
      "stateMutability": "view",
      "type": "function"
    },
    {
      "inputs": [],
      "name": "renounceOwnership",
      "outputs": [],
      "stateMutability": "nonpayable",
      "type": "function"
    },
    {
      "inputs": [
        {
          "internalType": "address",
          "name": "operator",
          "type": "address"
        },
        {
          "internalType": "bool",
          "name": "approved",
          "type": "bool"
        }
      ],
      "name": "setApprovalForAll",
      "outputs": [],
      "stateMutability": "nonpayable",
      "type": "function"
    },
    {
      "inputs": [],
      "name": "spotToken",
      "outputs": [
        {
          "internalType": "address",
          "name": "",
          "type": "address"
        }
      ],
      "stateMutability": "view",
      "type": "function"
    },
    {
      "inputs": [
        {
          "internalType": "bytes4",
          "name": "interfaceId",
          "type": "bytes4"
        }
      ],
      "name": "supportsInterface",
      "outputs": [
        {
          "internalType": "bool",
          "name": "",
          "type": "bool"
        }
      ],
      "stateMutability": "view",
      "type": "function"
    },
    {
      "inputs": [
        {
          "internalType": "address",
          "name": "newOwner",
          "type": "address"
        }
      ],
      "name": "transferOwnership",
      "outputs": [],
      "stateMutability": "nonpayable",
      "type": "function"
    },
    {
      "inputs": [
        {
          "internalType": "uint256",
          "name": "newExpiry",
          "type": "uint256"
        }
      ],
      "name": "updatePBMExpiry",
      "outputs": [],
      "stateMutability": "nonpayable",
      "type": "function"
    },
    {
      "inputs": [
        {
          "internalType": "address[]",
          "name": "addresses",
          "type": "address[]"
        }
      ],
      "name": "addMerchantAddresses",
      "outputs": [],
      "stateMutability": "nonpayable",
      "type": "function"
    },
    {
      "inputs": [
        {
          "internalType": "address[]",
          "name": "addresses",
          "type": "address[]"
        }
      ],
      "name": "removeMerchantAddresses",
      "outputs": [],
      "stateMutability": "nonpayable",
      "type": "function"
    },
    {
      "inputs": [
        {
          "internalType": "string",
          "name": "companyName",
          "type": "string"
        },
        {
          "internalType": "uint256",
          "name": "spotAmount",
          "type": "uint256"
        },
        {
          "internalType": "uint256",
          "name": "tokenExpiry",
          "type": "uint256"
        },
        {
          "internalType": "address",
          "name": "creator",
          "type": "address"
        },
        {
          "internalType": "string",
          "name": "tokenURI",
          "type": "string"
        }
      ],
      "name": "createPBMTokenType",
      "outputs": [],
      "stateMutability": "nonpayable",
      "type": "function"
    },
    {
      "inputs": [
        {
          "internalType": "uint256",
          "name": "tokenId",
          "type": "uint256"
        },
        {
          "internalType": "uint256",
          "name": "amount",
          "type": "uint256"
        },
        {
          "internalType": "address",
          "name": "receiver",
          "type": "address"
        }
      ],
      "name": "mint",
      "outputs": [],
      "stateMutability": "nonpayable",
      "type": "function"
    },
    {
      "inputs": [
        {
          "internalType": "uint256[]",
          "name": "tokenIds",
          "type": "uint256[]"
        },
        {
          "internalType": "uint256[]",
          "name": "amounts",
          "type": "uint256[]"
        },
        {
          "internalType": "address",
          "name": "receiver",
          "type": "address"
        }
      ],
      "name": "batchMint",
      "outputs": [],
      "stateMutability": "nonpayable",
      "type": "function"
    },
    {
      "inputs": [
        {
          "internalType": "address",
          "name": "from",
          "type": "address"
        },
        {
          "internalType": "address",
          "name": "to",
          "type": "address"
        },
        {
          "internalType": "uint256",
          "name": "id",
          "type": "uint256"
        },
        {
          "internalType": "uint256",
          "name": "amount",
          "type": "uint256"
        },
        {
          "internalType": "bytes",
          "name": "data",
          "type": "bytes"
        }
      ],
      "name": "safeTransferFrom",
      "outputs": [],
      "stateMutability": "nonpayable",
      "type": "function"
    },
    {
      "inputs": [
        {
          "internalType": "address",
          "name": "from",
          "type": "address"
        },
        {
          "internalType": "address",
          "name": "to",
          "type": "address"
        },
        {
          "internalType": "uint256[]",
          "name": "ids",
          "type": "uint256[]"
        },
        {
          "internalType": "uint256[]",
          "name": "amounts",
          "type": "uint256[]"
        },
        {
          "internalType": "bytes",
          "name": "data",
          "type": "bytes"
        }
      ],
      "name": "safeBatchTransferFrom",
      "outputs": [],
      "stateMutability": "nonpayable",
      "type": "function"
    },
    {
      "inputs": [
        {
          "internalType": "uint256",
          "name": "tokenId",
          "type": "uint256"
        }
      ],
      "name": "revokePBM",
      "outputs": [],
      "stateMutability": "nonpayable",
      "type": "function"
    },
    {
      "inputs": [
        {
          "internalType": "uint256",
          "name": "tokenId",
          "type": "uint256"
        }
      ],
      "name": "getTokenDetails",
      "outputs": [
        {
          "internalType": "string",
          "name": "",
          "type": "string"
        },
        {
          "internalType": "uint256",
          "name": "",
          "type": "uint256"
        },
        {
          "internalType": "uint256",
          "name": "",
          "type": "uint256"
        },
        {
          "internalType": "address",
          "name": "",
          "type": "address"
        }
      ],
      "stateMutability": "view",
      "type": "function"
    },
    {
      "inputs": [
        {
          "internalType": "uint256",
          "name": "tokenId",
          "type": "uint256"
        }
      ],
      "name": "uri",
      "outputs": [
        {
          "internalType": "string",
          "name": "",
          "type": "string"
        }
      ],
      "stateMutability": "view",
      "type": "function"
    }
  ],
  "bytecode": "0x60806040523480156200001157600080fd5b5060405162007d4e38038062007d4e8339818101604052810190620000379190620003b2565b6040518060200160405280600081525062000058816200015e60201b60201c565b50620000796200006d6200017a60201b60201c565b6200018260201b60201c565b6000600360146101000a81548160ff02191690831515021790555082600460006101000a81548173ffffffffffffffffffffffffffffffffffffffff021916908373ffffffffffffffffffffffffffffffffffffffff1602179055508160068190555080604051620000eb9062000248565b620000f791906200046e565b604051809103906000f08015801562000114573d6000803e3d6000fd5b50600560006101000a81548173ffffffffffffffffffffffffffffffffffffffff021916908373ffffffffffffffffffffffffffffffffffffffff160217905550505050620006a4565b80600290805190602001906200017692919062000256565b5050565b600033905090565b6000600360009054906101000a900473ffffffffffffffffffffffffffffffffffffffff16905081600360006101000a81548173ffffffffffffffffffffffffffffffffffffffff021916908373ffffffffffffffffffffffffffffffffffffffff1602179055508173ffffffffffffffffffffffffffffffffffffffff168173ffffffffffffffffffffffffffffffffffffffff167f8be0079c531659141344cd1fd0a4f28419497f9722a3daafe3b4186f6b6457e060405160405180910390a35050565b61236d80620059e183390190565b828054620002649062000581565b90600052602060002090601f016020900481019282620002885760008555620002d4565b82601f10620002a357805160ff1916838001178555620002d4565b82800160010185558215620002d4579182015b82811115620002d3578251825591602001919060010190620002b6565b5b509050620002e39190620002e7565b5090565b5b8082111562000302576000816000905550600101620002e8565b5090565b60006200031d6200031784620004bb565b62000492565b9050828152602081018484840111156200033c576200033b62000650565b5b620003498482856200054b565b509392505050565b600081519050620003628162000670565b92915050565b600082601f83011262000380576200037f6200064b565b5b81516200039284826020860162000306565b91505092915050565b600081519050620003ac816200068a565b92915050565b600080600060608486031215620003ce57620003cd6200065a565b5b6000620003de8682870162000351565b9350506020620003f1868287016200039b565b925050604084015167ffffffffffffffff81111562000415576200041462000655565b5b620004238682870162000368565b9150509250925092565b60006200043a82620004f1565b620004468185620004fc565b9350620004588185602086016200054b565b62000463816200065f565b840191505092915050565b600060208201905081810360008301526200048a81846200042d565b905092915050565b60006200049e620004b1565b9050620004ac8282620005b7565b919050565b6000604051905090565b600067ffffffffffffffff821115620004d957620004d86200061c565b5b620004e4826200065f565b9050602081019050919050565b600081519050919050565b600082825260208201905092915050565b60006200051a8262000521565b9050919050565b600073ffffffffffffffffffffffffffffffffffffffff82169050919050565b6000819050919050565b60005b838110156200056b5780820151818401526020810190506200054e565b838111156200057b576000848401525b50505050565b600060028204905060018216806200059a57607f821691505b60208210811415620005b157620005b0620005ed565b5b50919050565b620005c2826200065f565b810181811067ffffffffffffffff82111715620005e457620005e36200061c565b5b80604052505050565b7f4e487b7100000000000000000000000000000000000000000000000000000000600052602260045260246000fd5b7f4e487b7100000000000000000000000000000000000000000000000000000000600052604160045260246000fd5b600080fd5b600080fd5b600080fd5b600080fd5b6000601f19601f8301169050919050565b6200067b816200050d565b81146200068757600080fd5b50565b620006958162000541565b8114620006a157600080fd5b50565b61532d80620006b46000396000f3fe608060405234801561001057600080fd5b50600436106101575760003560e01c8063715018a6116100c3578063e10adc161161007c578063e10adc16146103c7578063e7d3fe6b146103e3578063e985e9c5146103ff578063f242432a1461042f578063f2fde38b1461044b578063fb34b2011461046757610157565b8063715018a61461031657806373e17e761461032057806389aba6421461033c5780638da5cb5b1461035a578063a22cb46514610378578063c1e037281461039457610157565b806330a5d1c01161011557806330a5d1c0146102565780634e1273f414610272578063517c01aa146102a25780635c975abb146102be5780635ed7be9d146102dc57806363be47d2146102f857610157565b8062fdd58e1461015c57806301ffc9a71461018c5780630ad89462146101bc5780630e89341c146101da578063294adb5a1461020a5780632eb2c2d61461023a575b600080fd5b610176600480360381019061017191906139e0565b610483565b6040516101839190614809565b60405180910390f35b6101a660048036038101906101a19190613b99565b61054c565b6040516101b39190614491565b60405180910390f35b6101c461062e565b6040516101d19190614247565b60405180910390f35b6101f460048036038101906101ef9190613d72565b610654565b60405161020191906144ac565b60405180910390f35b610224600480360381019061021f91906137cd565b61070d565b6040516102319190614491565b60405180910390f35b610254600480360381019061024f919061383a565b61072d565b005b610270600480360381019061026b9190613a20565b610ab5565b005b61028c60048036038101906102879190613a69565b610b96565b6040516102999190614438565b60405180910390f35b6102bc60048036038101906102b79190613d72565b610caf565b005b6102c6610d51565b6040516102d39190614491565b60405180910390f35b6102f660048036038101906102f19190613cbf565b610d68565b005b610300610e10565b60405161030d9190614247565b60405180910390f35b61031e610e36565b005b61033a60048036038101906103359190613d72565b610e4a565b005b6103446110db565b6040516103519190614809565b60405180910390f35b6103626110e1565b60405161036f9190614247565b60405180910390f35b610392600480360381019061038d91906139a0565b61110b565b005b6103ae60048036038101906103a99190613d72565b611121565b6040516103be94939291906144ce565b60405180910390f35b6103e160048036038101906103dc9190613a20565b6111e7565b005b6103fd60048036038101906103f89190613dcc565b6112c8565b005b610419600480360381019061041491906137fa565b611478565b6040516104269190614491565b60405180910390f35b61044960048036038101906104449190613909565b61150c565b005b610465600480360381019061046091906137cd565b611812565b005b610481600480360381019061047c9190613ae1565b611896565b005b60008073ffffffffffffffffffffffffffffffffffffffff168373ffffffffffffffffffffffffffffffffffffffff1614156104f4576040517f08c379a00000000000000000000000000000000000000000000000000000000081526004016104eb90614649565b60405180910390fd5b60008083815260200190815260200160002060008473ffffffffffffffffffffffffffffffffffffffff1673ffffffffffffffffffffffffffffffffffffffff16815260200190815260200160002054905092915050565b60007fd9b67a26000000000000000000000000000000000000000000000000000000007bffffffffffffffffffffffffffffffffffffffffffffffffffffffff1916827bffffffffffffffffffffffffffffffffffffffffffffffffffffffff1916148061061757507f0e89341c000000000000000000000000000000000000000000000000000000007bffffffffffffffffffffffffffffffffffffffffffffffffffffffff1916827bffffffffffffffffffffffffffffffffffffffffffffffffffffffff1916145b80610627575061062682611ad8565b5b9050919050565b600460009054906101000a900473ffffffffffffffffffffffffffffffffffffffff1681565b6060600560009054906101000a900473ffffffffffffffffffffffffffffffffffffffff1673ffffffffffffffffffffffffffffffffffffffff16630e89341c836040518263ffffffff1660e01b81526004016106b19190614809565b60006040518083038186803b1580156106c957600080fd5b505afa1580156106dd573d6000803e3d6000fd5b505050506040513d6000823e3d601f19601f820116820180604052508101906107069190613bf3565b9050919050565b60076020528060005260406000206000915054906101000a900460ff1681565b610735611b42565b61073d611b8c565b73ffffffffffffffffffffffffffffffffffffffff168573ffffffffffffffffffffffffffffffffffffffff16148061078357506107828561077d611b8c565b611478565b5b6107c2576040517f08c379a00000000000000000000000000000000000000000000000000000000081526004016107b9906145a9565b60405180910390fd5b8151835114610806576040517f08c379a00000000000000000000000000000000000000000000000000000000081526004016107fd90614749565b60405180910390fd5b600760008573ffffffffffffffffffffffffffffffffffffffff1673ffffffffffffffffffffffffffffffffffffffff16815260200190815260200160002060009054906101000a900460ff1615610aa0576000805b845181101561096f57600560009054906101000a900473ffffffffffffffffffffffffffffffffffffffff1673ffffffffffffffffffffffffffffffffffffffff1663d10424c78683815181106108b6576108b5614be0565b5b60200260200101516040518263ffffffff1660e01b81526004016108da9190614809565b60206040518083038186803b1580156108f257600080fd5b505afa158015610906573d6000803e3d6000fd5b505050506040513d601f19601f8201168201806040525081019061092a9190613d9f565b84828151811061093d5761093c614be0565b5b602002602001015161094f9190614a27565b8261095a91906149d1565b9150808061096790614b68565b91505061085c565b5061097b868585611b94565b600560009054906101000a900473ffffffffffffffffffffffffffffffffffffffff1673ffffffffffffffffffffffffffffffffffffffff1663e21c8b5985856040518363ffffffff1660e01b81526004016109d892919061445a565b600060405180830381600087803b1580156109f257600080fd5b505af1158015610a06573d6000803e3d6000fd5b50505050610a37600460009054906101000a900473ffffffffffffffffffffffffffffffffffffffff168683611e63565b7f68c9cd42836993caa70415e61f3c3baceb0bb31dcb22af6e5e0db98fa8870fac86868686600460009054906101000a900473ffffffffffffffffffffffffffffffffffffffff1686604051610a9296959493929190614262565b60405180910390a150610aae565b610aad8585858585611fb8565b5b5050505050565b610abd6122da565b6006544210610b01576040517f08c379a0000000000000000000000000000000000000000000000000000000008152600401610af890614629565b60405180910390fd5b60005b8151811015610b9257600060076000848481518110610b2657610b25614be0565b5b602002602001015173ffffffffffffffffffffffffffffffffffffffff1673ffffffffffffffffffffffffffffffffffffffff16815260200190815260200160002060006101000a81548160ff0219169083151502179055508080610b8a90614b68565b915050610b04565b5050565b60608151835114610bdc576040517f08c379a0000000000000000000000000000000000000000000000000000000008152600401610bd390614789565b60405180910390fd5b6000835167ffffffffffffffff811115610bf957610bf8614c0f565b5b604051908082528060200260200182016040528015610c275781602001602082028036833780820191505090505b50905060005b8451811015610ca457610c74858281518110610c4c57610c4b614be0565b5b6020026020010151858381518110610c6757610c66614be0565b5b6020026020010151610483565b828281518110610c8757610c86614be0565b5b60200260200101818152505080610c9d90614b68565b9050610c2d565b508091505092915050565b610cb76122da565b610cbf611b42565b6006544210610d03576040517f08c379a0000000000000000000000000000000000000000000000000000000008152600401610cfa90614629565b60405180910390fd5b6006548111610d47576040517f08c379a0000000000000000000000000000000000000000000000000000000008152600401610d3e90614729565b60405180910390fd5b8060068190555050565b6000600360149054906101000a900460ff16905090565b610d706122da565b600560009054906101000a900473ffffffffffffffffffffffffffffffffffffffff1673ffffffffffffffffffffffffffffffffffffffff166380d69c8a86868686866006546040518763ffffffff1660e01b8152600401610dd79695949392919061451a565b600060405180830381600087803b158015610df157600080fd5b505af1158015610e05573d6000803e3d6000fd5b505050505050505050565b600560009054906101000a900473ffffffffffffffffffffffffffffffffffffffff1681565b610e3e6122da565b610e486000612358565b565b610e52611b42565b6000600560009054906101000a900473ffffffffffffffffffffffffffffffffffffffff1673ffffffffffffffffffffffffffffffffffffffff1663234661c4836040518263ffffffff1660e01b8152600401610eaf9190614809565b60206040518083038186803b158015610ec757600080fd5b505afa158015610edb573d6000803e3d6000fd5b505050506040513d601f19601f82011682018060405250810190610eff9190613d9f565b90506000600560009054906101000a900473ffffffffffffffffffffffffffffffffffffffff1673ffffffffffffffffffffffffffffffffffffffff1663d10424c7846040518263ffffffff1660e01b8152600401610f5e9190614809565b60206040518083038186803b158015610f7657600080fd5b505afa158015610f8a573d6000803e3d6000fd5b505050506040513d601f19601f82011682018060405250810190610fae9190613d9f565b82610fb99190614a27565b9050600560009054906101000a900473ffffffffffffffffffffffffffffffffffffffff1673ffffffffffffffffffffffffffffffffffffffff166336a3409c84336040518363ffffffff1660e01b8152600401611018929190614824565b600060405180830381600087803b15801561103257600080fd5b505af1158015611046573d6000803e3d6000fd5b50505050611077600460009054906101000a900473ffffffffffffffffffffffffffffffffffffffff163383611e63565b7fa1c359e2aefcb2a02fa122099023552498d16ee2c91b81d3cfd8cd086f037d443384600460009054906101000a900473ffffffffffffffffffffffffffffffffffffffff16846040516110ce94939291906143f3565b60405180910390a1505050565b60065481565b6000600360009054906101000a900473ffffffffffffffffffffffffffffffffffffffff16905090565b61111d611116611b8c565b838361241e565b5050565b60606000806000600560009054906101000a900473ffffffffffffffffffffffffffffffffffffffff1673ffffffffffffffffffffffffffffffffffffffff1663c1e03728866040518263ffffffff1660e01b81526004016111839190614809565b60006040518083038186803b15801561119b57600080fd5b505afa1580156111af573d6000803e3d6000fd5b505050506040513d6000823e3d601f19601f820116820180604052508101906111d89190613c3c565b93509350935093509193509193565b6111ef6122da565b6006544210611233576040517f08c379a000000000000000000000000000000000000000000000000000000000815260040161122a90614629565b60405180910390fd5b60005b81518110156112c45760016007600084848151811061125857611257614be0565b5b602002602001015173ffffffffffffffffffffffffffffffffffffffff1673ffffffffffffffffffffffffffffffffffffffff16815260200190815260200160002060006101000a81548160ff02191690831515021790555080806112bc90614b68565b915050611236565b5050565b6112d0611b42565b6000600560009054906101000a900473ffffffffffffffffffffffffffffffffffffffff1673ffffffffffffffffffffffffffffffffffffffff1663d10424c7856040518263ffffffff1660e01b815260040161132d9190614809565b60206040518083038186803b15801561134557600080fd5b505afa158015611359573d6000803e3d6000fd5b505050506040513d601f19601f8201168201806040525081019061137d9190613d9f565b836113889190614a27565b90506113b8600460009054906101000a900473ffffffffffffffffffffffffffffffffffffffff1633308461258b565b600560009054906101000a900473ffffffffffffffffffffffffffffffffffffffff1673ffffffffffffffffffffffffffffffffffffffff1663f600d9f46113ff866126e3565b611408866126e3565b6040518363ffffffff1660e01b815260040161142592919061445a565b600060405180830381600087803b15801561143f57600080fd5b505af1158015611453573d6000803e3d6000fd5b505050506114728285856040518060200160405280600081525061275d565b50505050565b6000600160008473ffffffffffffffffffffffffffffffffffffffff1673ffffffffffffffffffffffffffffffffffffffff16815260200190815260200160002060008373ffffffffffffffffffffffffffffffffffffffff1673ffffffffffffffffffffffffffffffffffffffff16815260200190815260200160002060009054906101000a900460ff16905092915050565b611514611b42565b61151c611b8c565b73ffffffffffffffffffffffffffffffffffffffff168573ffffffffffffffffffffffffffffffffffffffff16148061156257506115618561155c611b8c565b611478565b5b6115a1576040517f08c379a0000000000000000000000000000000000000000000000000000000008152600401611598906145a9565b60405180910390fd5b600760008573ffffffffffffffffffffffffffffffffffffffff1673ffffffffffffffffffffffffffffffffffffffff16815260200190815260200160002060009054906101000a900460ff16156117fd576000600560009054906101000a900473ffffffffffffffffffffffffffffffffffffffff1673ffffffffffffffffffffffffffffffffffffffff1663d10424c7856040518263ffffffff1660e01b81526004016116509190614809565b60206040518083038186803b15801561166857600080fd5b505afa15801561167c573d6000803e3d6000fd5b505050506040513d601f19601f820116820180604052508101906116a09190613d9f565b836116ab9190614a27565b90506116b886858561290e565b600560009054906101000a900473ffffffffffffffffffffffffffffffffffffffff1673ffffffffffffffffffffffffffffffffffffffff1663e21c8b596116ff866126e3565b611708866126e3565b6040518363ffffffff1660e01b815260040161172592919061445a565b600060405180830381600087803b15801561173f57600080fd5b505af1158015611753573d6000803e3d6000fd5b50505050611784600460009054906101000a900473ffffffffffffffffffffffffffffffffffffffff168683611e63565b7f68c9cd42836993caa70415e61f3c3baceb0bb31dcb22af6e5e0db98fa8870fac86866117b0876126e3565b6117b9876126e3565b600460009054906101000a900473ffffffffffffffffffffffffffffffffffffffff16866040516117ef96959493929190614262565b60405180910390a15061180b565b61180a8585858585612b55565b5b5050505050565b61181a6122da565b600073ffffffffffffffffffffffffffffffffffffffff168173ffffffffffffffffffffffffffffffffffffffff16141561188a576040517f08c379a0000000000000000000000000000000000000000000000000000000008152600401611881906145e9565b60405180910390fd5b61189381612358565b50565b61189e611b42565b81518351146118e2576040517f08c379a00000000000000000000000000000000000000000000000000000000081526004016118d990614749565b60405180910390fd5b6000805b84518110156119f957600560009054906101000a900473ffffffffffffffffffffffffffffffffffffffff1673ffffffffffffffffffffffffffffffffffffffff1663d10424c78683815181106119405761193f614be0565b5b60200260200101516040518263ffffffff1660e01b81526004016119649190614809565b60206040518083038186803b15801561197c57600080fd5b505afa158015611990573d6000803e3d6000fd5b505050506040513d601f19601f820116820180604052508101906119b49190613d9f565b8482815181106119c7576119c6614be0565b5b60200260200101516119d99190614a27565b826119e491906149d1565b915080806119f190614b68565b9150506118e6565b50611a28600460009054906101000a900473ffffffffffffffffffffffffffffffffffffffff1633308461258b565b600560009054906101000a900473ffffffffffffffffffffffffffffffffffffffff1673ffffffffffffffffffffffffffffffffffffffff1663f600d9f485856040518363ffffffff1660e01b8152600401611a8592919061445a565b600060405180830381600087803b158015611a9f57600080fd5b505af1158015611ab3573d6000803e3d6000fd5b50505050611ad282858560405180602001604052806000815250612df1565b50505050565b60007f01ffc9a7000000000000000000000000000000000000000000000000000000007bffffffffffffffffffffffffffffffffffffffffffffffffffffffff1916827bffffffffffffffffffffffffffffffffffffffffffffffffffffffff1916149050919050565b611b4a610d51565b15611b8a576040517f08c379a0000000000000000000000000000000000000000000000000000000008152600401611b8190614689565b60405180910390fd5b565b600033905090565b600073ffffffffffffffffffffffffffffffffffffffff168373ffffffffffffffffffffffffffffffffffffffff161415611c04576040517f08c379a0000000000000000000000000000000000000000000000000000000008152600401611bfb906146c9565b60405180910390fd5b8051825114611c48576040517f08c379a0000000000000000000000000000000000000000000000000000000008152600401611c3f906147a9565b60405180910390fd5b6000611c52611b8c565b9050611c728185600086866040518060200160405280600081525061301e565b60005b8351811015611dbf576000848281518110611c9357611c92614be0565b5b602002602001015190506000848381518110611cb257611cb1614be0565b5b60200260200101519050600080600084815260200190815260200160002060008973ffffffffffffffffffffffffffffffffffffffff1673ffffffffffffffffffffffffffffffffffffffff16815260200190815260200160002054905081811015611d53576040517f08c379a0000000000000000000000000000000000000000000000000000000008152600401611d4a90614609565b60405180910390fd5b81810360008085815260200190815260200160002060008a73ffffffffffffffffffffffffffffffffffffffff1673ffffffffffffffffffffffffffffffffffffffff168152602001908152602001600020819055505050508080611db790614b68565b915050611c75565b50600073ffffffffffffffffffffffffffffffffffffffff168473ffffffffffffffffffffffffffffffffffffffff168273ffffffffffffffffffffffffffffffffffffffff167f4a39dc06d4c0dbc64b70af90fd698a233a518aa5d07e595d983b8c0526c8f7fb8686604051611e3792919061445a565b60405180910390a4611e5d81856000868660405180602001604052806000815250613026565b50505050565b6000808473ffffffffffffffffffffffffffffffffffffffff1663a9059cbb60e01b8585604051602401611e989291906143ca565b604051602081830303815290604052907bffffffffffffffffffffffffffffffffffffffffffffffffffffffff19166020820180517bffffffffffffffffffffffffffffffffffffffffffffffffffffffff8381831617835250505050604051611f029190614230565b6000604051808303816000865af19150503d8060008114611f3f576040519150601f19603f3d011682016040523d82523d6000602084013e611f44565b606091505b5091509150818015611f725750600081511480611f71575080806020019051810190611f709190613b6c565b5b5b611fb1576040517f08c379a0000000000000000000000000000000000000000000000000000000008152600401611fa8906147e9565b60405180910390fd5b5050505050565b8151835114611ffc576040517f08c379a0000000000000000000000000000000000000000000000000000000008152600401611ff3906147a9565b60405180910390fd5b600073ffffffffffffffffffffffffffffffffffffffff168473ffffffffffffffffffffffffffffffffffffffff16141561206c576040517f08c379a0000000000000000000000000000000000000000000000000000000008152600401612063906146a9565b60405180910390fd5b6000612076611b8c565b905061208681878787878761301e565b60005b84518110156122375760008582815181106120a7576120a6614be0565b5b6020026020010151905060008583815181106120c6576120c5614be0565b5b60200260200101519050600080600084815260200190815260200160002060008b73ffffffffffffffffffffffffffffffffffffffff1673ffffffffffffffffffffffffffffffffffffffff16815260200190815260200160002054905081811015612167576040517f08c379a000000000000000000000000000000000000000000000000000000000815260040161215e906146e9565b60405180910390fd5b81810360008085815260200190815260200160002060008c73ffffffffffffffffffffffffffffffffffffffff1673ffffffffffffffffffffffffffffffffffffffff168152602001908152602001600020819055508160008085815260200190815260200160002060008b73ffffffffffffffffffffffffffffffffffffffff1673ffffffffffffffffffffffffffffffffffffffff168152602001908152602001600020600082825461221c91906149d1565b925050819055505050508061223090614b68565b9050612089565b508473ffffffffffffffffffffffffffffffffffffffff168673ffffffffffffffffffffffffffffffffffffffff168273ffffffffffffffffffffffffffffffffffffffff167f4a39dc06d4c0dbc64b70af90fd698a233a518aa5d07e595d983b8c0526c8f7fb87876040516122ae92919061445a565b60405180910390a46122c4818787878787613026565b6122d281878787878761302e565b505050505050565b6122e2611b8c565b73ffffffffffffffffffffffffffffffffffffffff166123006110e1565b73ffffffffffffffffffffffffffffffffffffffff1614612356576040517f08c379a000000000000000000000000000000000000000000000000000000000815260040161234d90614709565b60405180910390fd5b565b6000600360009054906101000a900473ffffffffffffffffffffffffffffffffffffffff16905081600360006101000a81548173ffffffffffffffffffffffffffffffffffffffff021916908373ffffffffffffffffffffffffffffffffffffffff1602179055508173ffffffffffffffffffffffffffffffffffffffff168173ffffffffffffffffffffffffffffffffffffffff167f8be0079c531659141344cd1fd0a4f28419497f9722a3daafe3b4186f6b6457e060405160405180910390a35050565b8173ffffffffffffffffffffffffffffffffffffffff168373ffffffffffffffffffffffffffffffffffffffff16141561248d576040517f08c379a000000000000000000000000000000000000000000000000000000000815260040161248490614769565b60405180910390fd5b80600160008573ffffffffffffffffffffffffffffffffffffffff1673ffffffffffffffffffffffffffffffffffffffff16815260200190815260200160002060008473ffffffffffffffffffffffffffffffffffffffff1673ffffffffffffffffffffffffffffffffffffffff16815260200190815260200160002060006101000a81548160ff0219169083151502179055508173ffffffffffffffffffffffffffffffffffffffff168373ffffffffffffffffffffffffffffffffffffffff167f17307eab39ab6107e8899845ad3d59bd9653f200f220920489ca2b5937696c318360405161257e9190614491565b60405180910390a3505050565b6000808573ffffffffffffffffffffffffffffffffffffffff166323b872dd60e01b8686866040516024016125c293929190614339565b604051602081830303815290604052907bffffffffffffffffffffffffffffffffffffffffffffffffffffffff19166020820180517bffffffffffffffffffffffffffffffffffffffffffffffffffffffff838183161783525050505060405161262c9190614230565b6000604051808303816000865af19150503d8060008114612669576040519150601f19603f3d011682016040523d82523d6000602084013e61266e565b606091505b509150915081801561269c575060008151148061269b57508080602001905181019061269a9190613b6c565b5b5b6126db576040517f08c379a00000000000000000000000000000000000000000000000000000000081526004016126d290614669565b60405180910390fd5b505050505050565b60606000600167ffffffffffffffff81111561270257612701614c0f565b5b6040519080825280602002602001820160405280156127305781602001602082028036833780820191505090505b509050828160008151811061274857612747614be0565b5b60200260200101818152505080915050919050565b600073ffffffffffffffffffffffffffffffffffffffff168473ffffffffffffffffffffffffffffffffffffffff1614156127cd576040517f08c379a00000000000000000000000000000000000000000000000000000000081526004016127c4906147c9565b60405180910390fd5b60006127d7611b8c565b905060006127e485613215565b905060006127f185613215565b90506128028360008985858961301e565b8460008088815260200190815260200160002060008973ffffffffffffffffffffffffffffffffffffffff1673ffffffffffffffffffffffffffffffffffffffff168152602001908152602001600020600082825461286191906149d1565b925050819055508673ffffffffffffffffffffffffffffffffffffffff16600073ffffffffffffffffffffffffffffffffffffffff168473ffffffffffffffffffffffffffffffffffffffff167fc3d58168c5ae7397731d063d5bbf3d657854427343f4c083240f7aacaa2d0f6289896040516128df92919061484d565b60405180910390a46128f683600089858589613026565b6129058360008989898961328f565b50505050505050565b600073ffffffffffffffffffffffffffffffffffffffff168373ffffffffffffffffffffffffffffffffffffffff16141561297e576040517f08c379a0000000000000000000000000000000000000000000000000000000008152600401612975906146c9565b60405180910390fd5b6000612988611b8c565b9050600061299584613215565b905060006129a284613215565b90506129c28387600085856040518060200160405280600081525061301e565b600080600087815260200190815260200160002060008873ffffffffffffffffffffffffffffffffffffffff1673ffffffffffffffffffffffffffffffffffffffff16815260200190815260200160002054905084811015612a59576040517f08c379a0000000000000000000000000000000000000000000000000000000008152600401612a5090614609565b60405180910390fd5b84810360008088815260200190815260200160002060008973ffffffffffffffffffffffffffffffffffffffff1673ffffffffffffffffffffffffffffffffffffffff16815260200190815260200160002081905550600073ffffffffffffffffffffffffffffffffffffffff168773ffffffffffffffffffffffffffffffffffffffff168573ffffffffffffffffffffffffffffffffffffffff167fc3d58168c5ae7397731d063d5bbf3d657854427343f4c083240f7aacaa2d0f628989604051612b2692919061484d565b60405180910390a4612b4c84886000868660405180602001604052806000815250613026565b50505050505050565b600073ffffffffffffffffffffffffffffffffffffffff168473ffffffffffffffffffffffffffffffffffffffff161415612bc5576040517f08c379a0000000000000000000000000000000000000000000000000000000008152600401612bbc906146a9565b60405180910390fd5b6000612bcf611b8c565b90506000612bdc85613215565b90506000612be985613215565b9050612bf983898985858961301e565b600080600088815260200190815260200160002060008a73ffffffffffffffffffffffffffffffffffffffff1673ffffffffffffffffffffffffffffffffffffffff16815260200190815260200160002054905085811015612c90576040517f08c379a0000000000000000000000000000000000000000000000000000000008152600401612c87906146e9565b60405180910390fd5b85810360008089815260200190815260200160002060008b73ffffffffffffffffffffffffffffffffffffffff1673ffffffffffffffffffffffffffffffffffffffff168152602001908152602001600020819055508560008089815260200190815260200160002060008a73ffffffffffffffffffffffffffffffffffffffff1673ffffffffffffffffffffffffffffffffffffffff1681526020019081526020016000206000828254612d4591906149d1565b925050819055508773ffffffffffffffffffffffffffffffffffffffff168973ffffffffffffffffffffffffffffffffffffffff168573ffffffffffffffffffffffffffffffffffffffff167fc3d58168c5ae7397731d063d5bbf3d657854427343f4c083240f7aacaa2d0f628a8a604051612dc292919061484d565b60405180910390a4612dd8848a8a86868a613026565b612de6848a8a8a8a8a61328f565b505050505050505050565b600073ffffffffffffffffffffffffffffffffffffffff168473ffffffffffffffffffffffffffffffffffffffff161415612e61576040517f08c379a0000000000000000000000000000000000000000000000000000000008152600401612e58906147c9565b60405180910390fd5b8151835114612ea5576040517f08c379a0000000000000000000000000000000000000000000000000000000008152600401612e9c906147a9565b60405180910390fd5b6000612eaf611b8c565b9050612ec08160008787878761301e565b60005b8451811015612f7957838181518110612edf57612ede614be0565b5b6020026020010151600080878481518110612efd57612efc614be0565b5b6020026020010151815260200190815260200160002060008873ffffffffffffffffffffffffffffffffffffffff1673ffffffffffffffffffffffffffffffffffffffff1681526020019081526020016000206000828254612f5f91906149d1565b925050819055508080612f7190614b68565b915050612ec3565b508473ffffffffffffffffffffffffffffffffffffffff16600073ffffffffffffffffffffffffffffffffffffffff168273ffffffffffffffffffffffffffffffffffffffff167f4a39dc06d4c0dbc64b70af90fd698a233a518aa5d07e595d983b8c0526c8f7fb8787604051612ff192919061445a565b60405180910390a461300881600087878787613026565b6130178160008787878761302e565b5050505050565b505050505050565b505050505050565b61304d8473ffffffffffffffffffffffffffffffffffffffff16613476565b1561320d578373ffffffffffffffffffffffffffffffffffffffff1663bc197c8187878686866040518663ffffffff1660e01b81526004016130939594939291906142d1565b602060405180830381600087803b1580156130ad57600080fd5b505af19250505080156130de57506040513d601f19601f820116820180604052508101906130db9190613bc6565b60015b613184576130ea614c3e565b806308c379a0141561314757506130ff615205565b8061310a5750613149565b806040517f08c379a000000000000000000000000000000000000000000000000000000000815260040161313e91906144ac565b60405180910390fd5b505b6040517f08c379a000000000000000000000000000000000000000000000000000000000815260040161317b90614589565b60405180910390fd5b63bc197c8160e01b7bffffffffffffffffffffffffffffffffffffffffffffffffffffffff1916817bffffffffffffffffffffffffffffffffffffffffffffffffffffffff19161461320b576040517f08c379a0000000000000000000000000000000000000000000000000000000008152600401613202906145c9565b60405180910390fd5b505b505050505050565b60606000600167ffffffffffffffff81111561323457613233614c0f565b5b6040519080825280602002602001820160405280156132625781602001602082028036833780820191505090505b509050828160008151811061327a57613279614be0565b5b60200260200101818152505080915050919050565b6132ae8473ffffffffffffffffffffffffffffffffffffffff16613476565b1561346e578373ffffffffffffffffffffffffffffffffffffffff1663f23a6e6187878686866040518663ffffffff1660e01b81526004016132f4959493929190614370565b602060405180830381600087803b15801561330e57600080fd5b505af192505050801561333f57506040513d601f19601f8201168201806040525081019061333c9190613bc6565b60015b6133e55761334b614c3e565b806308c379a014156133a85750613360615205565b8061336b57506133aa565b806040517f08c379a000000000000000000000000000000000000000000000000000000000815260040161339f91906144ac565b60405180910390fd5b505b6040517f08c379a00000000000000000000000000000000000000000000000000000000081526004016133dc90614589565b60405180910390fd5b63f23a6e6160e01b7bffffffffffffffffffffffffffffffffffffffffffffffffffffffff1916817bffffffffffffffffffffffffffffffffffffffffffffffffffffffff19161461346c576040517f08c379a0000000000000000000000000000000000000000000000000000000008152600401613463906145c9565b60405180910390fd5b505b505050505050565b6000808273ffffffffffffffffffffffffffffffffffffffff163b119050919050565b60006134ac6134a78461489b565b614876565b905080838252602082019050828560208602820111156134cf576134ce614c65565b5b60005b858110156134ff57816134e5888261363f565b8452602084019350602083019250506001810190506134d2565b5050509392505050565b600061351c613517846148c7565b614876565b9050808382526020820190508285602086028201111561353f5761353e614c65565b5b60005b8581101561356f578161355588826137a3565b845260208401935060208301925050600181019050613542565b5050509392505050565b600061358c613587846148f3565b614876565b9050828152602081018484840111156135a8576135a7614c6a565b5b6135b3848285614af5565b509392505050565b60006135ce6135c984614924565b614876565b9050828152602081018484840111156135ea576135e9614c6a565b5b6135f5848285614af5565b509392505050565b600061361061360b84614924565b614876565b90508281526020810184848401111561362c5761362b614c6a565b5b613637848285614b04565b509392505050565b60008135905061364e8161529b565b92915050565b6000815190506136638161529b565b92915050565b600082601f83011261367e5761367d614c60565b5b813561368e848260208601613499565b91505092915050565b600082601f8301126136ac576136ab614c60565b5b81356136bc848260208601613509565b91505092915050565b6000813590506136d4816152b2565b92915050565b6000815190506136e9816152b2565b92915050565b6000813590506136fe816152c9565b92915050565b600081519050613713816152c9565b92915050565b600082601f83011261372e5761372d614c60565b5b813561373e848260208601613579565b91505092915050565b600082601f83011261375c5761375b614c60565b5b813561376c8482602086016135bb565b91505092915050565b600082601f83011261378a57613789614c60565b5b815161379a8482602086016135fd565b91505092915050565b6000813590506137b2816152e0565b92915050565b6000815190506137c7816152e0565b92915050565b6000602082840312156137e3576137e2614c74565b5b60006137f18482850161363f565b91505092915050565b6000806040838503121561381157613810614c74565b5b600061381f8582860161363f565b92505060206138308582860161363f565b9150509250929050565b600080600080600060a0868803121561385657613855614c74565b5b60006138648882890161363f565b95505060206138758882890161363f565b945050604086013567ffffffffffffffff81111561389657613895614c6f565b5b6138a288828901613697565b935050606086013567ffffffffffffffff8111156138c3576138c2614c6f565b5b6138cf88828901613697565b925050608086013567ffffffffffffffff8111156138f0576138ef614c6f565b5b6138fc88828901613719565b9150509295509295909350565b600080600080600060a0868803121561392557613924614c74565b5b60006139338882890161363f565b95505060206139448882890161363f565b9450506040613955888289016137a3565b9350506060613966888289016137a3565b925050608086013567ffffffffffffffff81111561398757613986614c6f565b5b61399388828901613719565b9150509295509295909350565b600080604083850312156139b7576139b6614c74565b5b60006139c58582860161363f565b92505060206139d6858286016136c5565b9150509250929050565b600080604083850312156139f7576139f6614c74565b5b6000613a058582860161363f565b9250506020613a16858286016137a3565b9150509250929050565b600060208284031215613a3657613a35614c74565b5b600082013567ffffffffffffffff811115613a5457613a53614c6f565b5b613a6084828501613669565b91505092915050565b60008060408385031215613a8057613a7f614c74565b5b600083013567ffffffffffffffff811115613a9e57613a9d614c6f565b5b613aaa85828601613669565b925050602083013567ffffffffffffffff811115613acb57613aca614c6f565b5b613ad785828601613697565b9150509250929050565b600080600060608486031215613afa57613af9614c74565b5b600084013567ffffffffffffffff811115613b1857613b17614c6f565b5b613b2486828701613697565b935050602084013567ffffffffffffffff811115613b4557613b44614c6f565b5b613b5186828701613697565b9250506040613b628682870161363f565b9150509250925092565b600060208284031215613b8257613b81614c74565b5b6000613b90848285016136da565b91505092915050565b600060208284031215613baf57613bae614c74565b5b6000613bbd848285016136ef565b91505092915050565b600060208284031215613bdc57613bdb614c74565b5b6000613bea84828501613704565b91505092915050565b600060208284031215613c0957613c08614c74565b5b600082015167ffffffffffffffff811115613c2757613c26614c6f565b5b613c3384828501613775565b91505092915050565b60008060008060808587031215613c5657613c55614c74565b5b600085015167ffffffffffffffff811115613c7457613c73614c6f565b5b613c8087828801613775565b9450506020613c91878288016137b8565b9350506040613ca2878288016137b8565b9250506060613cb387828801613654565b91505092959194509250565b600080600080600060a08688031215613cdb57613cda614c74565b5b600086013567ffffffffffffffff811115613cf957613cf8614c6f565b5b613d0588828901613747565b9550506020613d16888289016137a3565b9450506040613d27888289016137a3565b9350506060613d388882890161363f565b925050608086013567ffffffffffffffff811115613d5957613d58614c6f565b5b613d6588828901613747565b9150509295509295909350565b600060208284031215613d8857613d87614c74565b5b6000613d96848285016137a3565b91505092915050565b600060208284031215613db557613db4614c74565b5b6000613dc3848285016137b8565b91505092915050565b600080600060608486031215613de557613de4614c74565b5b6000613df3868287016137a3565b9350506020613e04868287016137a3565b9250506040613e158682870161363f565b9150509250925092565b6000613e2b8383614212565b60208301905092915050565b613e4081614a81565b82525050565b6000613e5182614965565b613e5b8185614993565b9350613e6683614955565b8060005b83811015613e97578151613e7e8882613e1f565b9750613e8983614986565b925050600181019050613e6a565b5085935050505092915050565b613ead81614a93565b82525050565b6000613ebe82614970565b613ec881856149a4565b9350613ed8818560208601614b04565b613ee181614c79565b840191505092915050565b6000613ef782614970565b613f0181856149b5565b9350613f11818560208601614b04565b80840191505092915050565b6000613f288261497b565b613f3281856149c0565b9350613f42818560208601614b04565b613f4b81614c79565b840191505092915050565b6000613f636034836149c0565b9150613f6e82614c97565b604082019050919050565b6000613f86602f836149c0565b9150613f9182614ce6565b604082019050919050565b6000613fa96028836149c0565b9150613fb482614d35565b604082019050919050565b6000613fcc6026836149c0565b9150613fd782614d84565b604082019050919050565b6000613fef6024836149c0565b9150613ffa82614dd3565b604082019050919050565b60006140126018836149c0565b915061401d82614e22565b602082019050919050565b6000614035602a836149c0565b915061404082614e4b565b604082019050919050565b60006140586026836149c0565b915061406382614e9a565b604082019050919050565b600061407b6010836149c0565b915061408682614ee9565b602082019050919050565b600061409e6025836149c0565b91506140a982614f12565b604082019050919050565b60006140c16023836149c0565b91506140cc82614f61565b604082019050919050565b60006140e4602a836149c0565b91506140ef82614fb0565b604082019050919050565b60006141076020836149c0565b915061411282614fff565b602082019050919050565b600061412a6014836149c0565b915061413582615028565b602082019050919050565b600061414d6020836149c0565b915061415882615051565b602082019050919050565b60006141706029836149c0565b915061417b8261507a565b604082019050919050565b60006141936029836149c0565b915061419e826150c9565b604082019050919050565b60006141b66028836149c0565b91506141c182615118565b604082019050919050565b60006141d96021836149c0565b91506141e482615167565b604082019050919050565b60006141fc6027836149c0565b9150614207826151b6565b604082019050919050565b61421b81614aeb565b82525050565b61422a81614aeb565b82525050565b600061423c8284613eec565b915081905092915050565b600060208201905061425c6000830184613e37565b92915050565b600060c0820190506142776000830189613e37565b6142846020830188613e37565b81810360408301526142968187613e46565b905081810360608301526142aa8186613e46565b90506142b96080830185613e37565b6142c660a0830184614221565b979650505050505050565b600060a0820190506142e66000830188613e37565b6142f36020830187613e37565b81810360408301526143058186613e46565b905081810360608301526143198185613e46565b9050818103608083015261432d8184613eb3565b90509695505050505050565b600060608201905061434e6000830186613e37565b61435b6020830185613e37565b6143686040830184614221565b949350505050565b600060a0820190506143856000830188613e37565b6143926020830187613e37565b61439f6040830186614221565b6143ac6060830185614221565b81810360808301526143be8184613eb3565b90509695505050505050565b60006040820190506143df6000830185613e37565b6143ec6020830184614221565b9392505050565b60006080820190506144086000830187613e37565b6144156020830186614221565b6144226040830185613e37565b61442f6060830184614221565b95945050505050565b600060208201905081810360008301526144528184613e46565b905092915050565b600060408201905081810360008301526144748185613e46565b905081810360208301526144888184613e46565b90509392505050565b60006020820190506144a66000830184613ea4565b92915050565b600060208201905081810360008301526144c68184613f1d565b905092915050565b600060808201905081810360008301526144e88187613f1d565b90506144f76020830186614221565b6145046040830185614221565b6145116060830184613e37565b95945050505050565b600060c08201905081810360008301526145348189613f1d565b90506145436020830188614221565b6145506040830187614221565b61455d6060830186613e37565b818103608083015261456f8185613f1d565b905061457e60a0830184614221565b979650505050505050565b600060208201905081810360008301526145a281613f56565b9050919050565b600060208201905081810360008301526145c281613f79565b9050919050565b600060208201905081810360008301526145e281613f9c565b9050919050565b6000602082019050818103600083015261460281613fbf565b9050919050565b6000602082019050818103600083015261462281613fe2565b9050919050565b6000602082019050818103600083015261464281614005565b9050919050565b6000602082019050818103600083015261466281614028565b9050919050565b600060208201905081810360008301526146828161404b565b9050919050565b600060208201905081810360008301526146a28161406e565b9050919050565b600060208201905081810360008301526146c281614091565b9050919050565b600060208201905081810360008301526146e2816140b4565b9050919050565b60006020820190508181036000830152614702816140d7565b9050919050565b60006020820190508181036000830152614722816140fa565b9050919050565b600060208201905081810360008301526147428161411d565b9050919050565b6000602082019050818103600083015261476281614140565b9050919050565b6000602082019050818103600083015261478281614163565b9050919050565b600060208201905081810360008301526147a281614186565b9050919050565b600060208201905081810360008301526147c2816141a9565b9050919050565b600060208201905081810360008301526147e2816141cc565b9050919050565b60006020820190508181036000830152614802816141ef565b9050919050565b600060208201905061481e6000830184614221565b92915050565b60006040820190506148396000830185614221565b6148466020830184613e37565b9392505050565b60006040820190506148626000830185614221565b61486f6020830184614221565b9392505050565b6000614880614891565b905061488c8282614b37565b919050565b6000604051905090565b600067ffffffffffffffff8211156148b6576148b5614c0f565b5b602082029050602081019050919050565b600067ffffffffffffffff8211156148e2576148e1614c0f565b5b602082029050602081019050919050565b600067ffffffffffffffff82111561490e5761490d614c0f565b5b61491782614c79565b9050602081019050919050565b600067ffffffffffffffff82111561493f5761493e614c0f565b5b61494882614c79565b9050602081019050919050565b6000819050602082019050919050565b600081519050919050565b600081519050919050565b600081519050919050565b6000602082019050919050565b600082825260208201905092915050565b600082825260208201905092915050565b600081905092915050565b600082825260208201905092915050565b60006149dc82614aeb565b91506149e783614aeb565b9250827fffffffffffffffffffffffffffffffffffffffffffffffffffffffffffffffff03821115614a1c57614a1b614bb1565b5b828201905092915050565b6000614a3282614aeb565b9150614a3d83614aeb565b9250817fffffffffffffffffffffffffffffffffffffffffffffffffffffffffffffffff0483118215151615614a7657614a75614bb1565b5b828202905092915050565b6000614a8c82614acb565b9050919050565b60008115159050919050565b60007fffffffff0000000000000000000000000000000000000000000000000000000082169050919050565b600073ffffffffffffffffffffffffffffffffffffffff82169050919050565b6000819050919050565b82818337600083830152505050565b60005b83811015614b22578082015181840152602081019050614b07565b83811115614b31576000848401525b50505050565b614b4082614c79565b810181811067ffffffffffffffff82111715614b5f57614b5e614c0f565b5b80604052505050565b6000614b7382614aeb565b91507fffffffffffffffffffffffffffffffffffffffffffffffffffffffffffffffff821415614ba657614ba5614bb1565b5b600182019050919050565b7f4e487b7100000000000000000000000000000000000000000000000000000000600052601160045260246000fd5b7f4e487b7100000000000000000000000000000000000000000000000000000000600052603260045260246000fd5b7f4e487b7100000000000000000000000000000000000000000000000000000000600052604160045260246000fd5b600060033d1115614c5d5760046000803e614c5a600051614c8a565b90505b90565b600080fd5b600080fd5b600080fd5b600080fd5b600080fd5b6000601f19601f8301169050919050565b60008160e01c9050919050565b7f455243313135353a207472616e7366657220746f206e6f6e204552433131353560008201527f526563656976657220696d706c656d656e746572000000000000000000000000602082015250565b7f455243313135353a2063616c6c6572206973206e6f7420746f6b656e206f776e60008201527f6572206e6f7220617070726f7665640000000000000000000000000000000000602082015250565b7f455243313135353a204552433131353552656365697665722072656a6563746560008201527f6420746f6b656e73000000000000000000000000000000000000000000000000602082015250565b7f4f776e61626c653a206e6577206f776e657220697320746865207a65726f206160008201527f6464726573730000000000000000000000000000000000000000000000000000602082015250565b7f455243313135353a206275726e20616d6f756e7420657863656564732062616c60008201527f616e636500000000000000000000000000000000000000000000000000000000602082015250565b7f50424d3a20636f6e747261637420697320657870697265640000000000000000600082015250565b7f455243313135353a2061646472657373207a65726f206973206e6f742061207660008201527f616c6964206f776e657200000000000000000000000000000000000000000000602082015250565b7f45524332303a20496e737566666963656e742062616c616e6365206f7220617060008201527f70726f76616c0000000000000000000000000000000000000000000000000000602082015250565b7f5061757361626c653a2070617573656400000000000000000000000000000000600082015250565b7f455243313135353a207472616e7366657220746f20746865207a65726f20616460008201527f6472657373000000000000000000000000000000000000000000000000000000602082015250565b7f455243313135353a206275726e2066726f6d20746865207a65726f206164647260008201527f6573730000000000000000000000000000000000000000000000000000000000602082015250565b7f455243313135353a20696e73756666696369656e742062616c616e636520666f60008201527f72207472616e7366657200000000000000000000000000000000000000000000602082015250565b7f4f776e61626c653a2063616c6c6572206973206e6f7420746865206f776e6572600082015250565b7f50424d203a20696e76616c696420657870697279000000000000000000000000600082015250565b7f556e657175616c2069647320616e6420616d6f756e747320737570706c696564600082015250565b7f455243313135353a2073657474696e6720617070726f76616c2073746174757360008201527f20666f722073656c660000000000000000000000000000000000000000000000602082015250565b7f455243313135353a206163636f756e747320616e6420696473206c656e67746860008201527f206d69736d617463680000000000000000000000000000000000000000000000602082015250565b7f455243313135353a2069647320616e6420616d6f756e7473206c656e6774682060008201527f6d69736d61746368000000000000000000000000000000000000000000000000602082015250565b7f455243313135353a206d696e7420746f20746865207a65726f2061646472657360008201527f7300000000000000000000000000000000000000000000000000000000000000602082015250565b7f496e746572616374696f6e2077697468207468652073706f7420746f6b656e2060008201527f6661696c65642e00000000000000000000000000000000000000000000000000602082015250565b600060443d101561521557615298565b61521d614891565b60043d036004823e80513d602482011167ffffffffffffffff82111715615245575050615298565b808201805167ffffffffffffffff8111156152635750505050615298565b80602083010160043d038501811115615280575050505050615298565b61528f82602001850186614b37565b82955050505050505b90565b6152a481614a81565b81146152af57600080fd5b50565b6152bb81614a93565b81146152c657600080fd5b50565b6152d281614a9f565b81146152dd57600080fd5b50565b6152e981614aeb565b81146152f457600080fd5b5056fea2646970667358221220e1c8eaddf2c77f7829d02cde31fd85e8d62d72c842511ba299a9f408344db69564736f6c6343000807003360a060405260006001553480156200001657600080fd5b506040516200236d3803806200236d83398181016040528101906200003c9190620002ad565b6200005c62000050620000b360201b60201c565b620000bb60201b60201c565b3073ffffffffffffffffffffffffffffffffffffffff1660808173ffffffffffffffffffffffffffffffffffffffff1660601b815250508060029080519060200190620000ab9291906200017f565b505062000482565b600033905090565b60008060009054906101000a900473ffffffffffffffffffffffffffffffffffffffff169050816000806101000a81548173ffffffffffffffffffffffffffffffffffffffff021916908373ffffffffffffffffffffffffffffffffffffffff1602179055508173ffffffffffffffffffffffffffffffffffffffff168173ffffffffffffffffffffffffffffffffffffffff167f8be0079c531659141344cd1fd0a4f28419497f9722a3daafe3b4186f6b6457e060405160405180910390a35050565b8280546200018d9062000393565b90600052602060002090601f016020900481019282620001b15760008555620001fd565b82601f10620001cc57805160ff1916838001178555620001fd565b82800160010185558215620001fd579182015b82811115620001fc578251825591602001919060010190620001df565b5b5090506200020c919062000210565b5090565b5b808211156200022b57600081600090555060010162000211565b5090565b600062000246620002408462000327565b620002fe565b90508281526020810184848401111562000265576200026462000462565b5b620002728482856200035d565b509392505050565b600082601f8301126200029257620002916200045d565b5b8151620002a48482602086016200022f565b91505092915050565b600060208284031215620002c657620002c56200046c565b5b600082015167ffffffffffffffff811115620002e757620002e662000467565b5b620002f5848285016200027a565b91505092915050565b60006200030a6200031d565b9050620003188282620003c9565b919050565b6000604051905090565b600067ffffffffffffffff8211156200034557620003446200042e565b5b620003508262000471565b9050602081019050919050565b60005b838110156200037d57808201518184015260208101905062000360565b838111156200038d576000848401525b50505050565b60006002820490506001821680620003ac57607f821691505b60208210811415620003c357620003c2620003ff565b5b50919050565b620003d48262000471565b810181811067ffffffffffffffff82111715620003f657620003f56200042e565b5b80604052505050565b7f4e487b7100000000000000000000000000000000000000000000000000000000600052602260045260246000fd5b7f4e487b7100000000000000000000000000000000000000000000000000000000600052604160045260246000fd5b600080fd5b600080fd5b600080fd5b600080fd5b6000601f19601f8301169050919050565b60805160601c611ecc620004a16000396000610fde0152611ecc6000f3fe608060405234801561001057600080fd5b50600436106100cf5760003560e01c80638da5cb5b1161008c578063d10424c711610066578063d10424c714610227578063e21c8b5914610257578063f2fde38b14610273578063f600d9f41461028f576100cf565b80638da5cb5b146101a6578063934689a9146101c4578063c1e03728146101f4576100cf565b80630e89341c146100d4578063234661c41461010457806336a3409c1461013457806348fd09f514610150578063715018a61461018057806380d69c8a1461018a575b600080fd5b6100ee60048036038101906100e9919061152d565b6102ab565b6040516100fb9190611780565b60405180910390f35b61011e6004803603810190610119919061152d565b610403565b60405161012b91906118ce565b60405180910390f35b61014e6004803603810190610149919061155a565b61049d565b005b61016a600480360381019061016591906113a7565b61058b565b6040516101779190611765565b60405180910390f35b610188610603565b005b6101a4600480360381019061019f9190611468565b610617565b005b6101ae61088a565b6040516101bb919061174a565b60405180910390f35b6101de60048036038101906101d9919061152d565b6108b3565b6040516101eb919061174a565b60405180910390f35b61020e6004803603810190610209919061152d565b61096d565b60405161021e94939291906117a2565b60405180910390f35b610241600480360381019061023c919061152d565b610b04565b60405161024e91906118ce565b60405180910390f35b610271600480360381019061026c91906113f0565b610b9e565b005b61028d6004803603810190610288919061137a565b610cda565b005b6102a960048036038101906102a491906113f0565b610d5e565b005b60606003600083815260200190815260200160002060020154421061035c57600280546102d790611b31565b80601f016020809104026020016040519081016040528092919081815260200182805461030390611b31565b80156103505780601f1061032557610100808354040283529160200191610350565b820191906000526020600020905b81548152906001019060200180831161033357829003601f168201915b505050505090506103fe565b60036000838152602001908152602001600020600501805461037d90611b31565b80601f01602080910402602001604051908101604052809291908181526020018280546103a990611b31565b80156103f65780601f106103cb576101008083540402835291602001916103f6565b820191906000526020600020905b8154815290600101906020018083116103d957829003601f168201915b505050505090505b919050565b6000806003600084815260200190815260200160002060010154141580156104405750600360008381526020019081526020016000206002015442105b61047f576040517f08c379a00000000000000000000000000000000000000000000000000000000081526004016104769061180e565b60405180910390fd5b60036000838152602001908152602001600020600401549050919050565b6104a5610e9a565b6003600083815260200190815260200160002060030160009054906101000a900473ffffffffffffffffffffffffffffffffffffffff1673ffffffffffffffffffffffffffffffffffffffff168173ffffffffffffffffffffffffffffffffffffffff1614801561052c575060036000838152602001908152602001600020600201544210155b61056b576040517f08c379a0000000000000000000000000000000000000000000000000000000008152600401610562906117ee565b60405180910390fd5b600060036000848152602001908152602001600020600401819055505050565b600080600090505b82518110156105f85760036000828152602001908152602001600020600201544211806105d6575060006003600083815260200190815260200160002060010154145b156105e55760009150506105fe565b80806105f090611b94565b915050610593565b50600190505b919050565b61060b610e9a565b6106156000610f18565b565b61061f610e9a565b610627610fdc565b8084111561066a576040517f08c379a00000000000000000000000000000000000000000000000000000000081526004016106619061186e565b60405180910390fd5b4284116106ac576040517f08c379a00000000000000000000000000000000000000000000000000000000081526004016106a39061188e565b60405180910390fd5b60008514156106f0576040517f08c379a00000000000000000000000000000000000000000000000000000000081526004016106e7906118ae565b60405180910390fd5b6000866106fc87611036565b60405160200161070d929190611726565b604051602081830303815290604052905080600360006001548152602001908152602001600020600001908051906020019061074a92919061119f565b50856003600060015481526020019081526020016000206001018190555084600360006001548152602001908152602001600020600201819055508360036000600154815260200190815260200160002060030160006101000a81548173ffffffffffffffffffffffffffffffffffffffff021916908373ffffffffffffffffffffffffffffffffffffffff16021790555060006003600060015481526020019081526020016000206004018190555082600360006001548152602001908152602001600020600501908051906020019061082692919061119f565b507fbbb805bf89819da42bb55052edd2bf6db1c2256ec4c19cf1607de95efc92762f600154828888886040516108609594939291906118e9565b60405180910390a1600180600082825461087a91906119ec565b9250508190555050505050505050565b60008060009054906101000a900473ffffffffffffffffffffffffffffffffffffffff16905090565b6000806003600084815260200190815260200160002060010154141580156108f05750600360008381526020019081526020016000206002015442105b61092f576040517f08c379a00000000000000000000000000000000000000000000000000000000081526004016109269061180e565b60405180910390fd5b6003600083815260200190815260200160002060030160009054906101000a900473ffffffffffffffffffffffffffffffffffffffff169050919050565b60606000806000806003600087815260200190815260200160002060010154141580156109af5750600360008681526020019081526020016000206002015442105b6109ee576040517f08c379a00000000000000000000000000000000000000000000000000000000081526004016109e59061180e565b60405180910390fd5b60036000868152602001908152602001600020600001600360008781526020019081526020016000206001015460036000888152602001908152602001600020600201546003600089815260200190815260200160002060030160009054906101000a900473ffffffffffffffffffffffffffffffffffffffff16838054610a7590611b31565b80601f0160208091040260200160405190810160405280929190818152602001828054610aa190611b31565b8015610aee5780601f10610ac357610100808354040283529160200191610aee565b820191906000526020600020905b815481529060010190602001808311610ad157829003601f168201915b5050505050935093509350935093509193509193565b600080600360008481526020019081526020016000206001015414158015610b415750600360008381526020019081526020016000206002015442105b610b80576040517f08c379a0000000000000000000000000000000000000000000000000000000008152600401610b779061180e565b60405180910390fd5b60036000838152602001908152602001600020600101549050919050565b610ba6610e9a565b60005b8251811015610cd557600060036000858481518110610bcb57610bca611c9b565b5b602002602001015181526020019081526020016000206001015414158015610c22575060036000848381518110610c0557610c04611c9b565b5b602002602001015181526020019081526020016000206002015442105b610c61576040517f08c379a0000000000000000000000000000000000000000000000000000000008152600401610c589061180e565b60405180910390fd5b818181518110610c7457610c73611c9b565b5b602002602001015160036000858481518110610c9357610c92611c9b565b5b602002602001015181526020019081526020016000206004016000828254610cbb9190611a73565b925050819055508080610ccd90611b94565b915050610ba9565b505050565b610ce2610e9a565b600073ffffffffffffffffffffffffffffffffffffffff168173ffffffffffffffffffffffffffffffffffffffff161415610d52576040517f08c379a0000000000000000000000000000000000000000000000000000000008152600401610d499061182e565b60405180910390fd5b610d5b81610f18565b50565b610d66610e9a565b60005b8251811015610e9557600060036000858481518110610d8b57610d8a611c9b565b5b602002602001015181526020019081526020016000206001015414158015610de2575060036000848381518110610dc557610dc4611c9b565b5b602002602001015181526020019081526020016000206002015442105b610e21576040517f08c379a0000000000000000000000000000000000000000000000000000000008152600401610e189061180e565b60405180910390fd5b818181518110610e3457610e33611c9b565b5b602002602001015160036000858481518110610e5357610e52611c9b565b5b602002602001015181526020019081526020016000206004016000828254610e7b91906119ec565b925050819055508080610e8d90611b94565b915050610d69565b505050565b610ea2611197565b73ffffffffffffffffffffffffffffffffffffffff16610ec061088a565b73ffffffffffffffffffffffffffffffffffffffff1614610f16576040517f08c379a0000000000000000000000000000000000000000000000000000000008152600401610f0d9061184e565b60405180910390fd5b565b60008060009054906101000a900473ffffffffffffffffffffffffffffffffffffffff169050816000806101000a81548173ffffffffffffffffffffffffffffffffffffffff021916908373ffffffffffffffffffffffffffffffffffffffff1602179055508173ffffffffffffffffffffffffffffffffffffffff168173ffffffffffffffffffffffffffffffffffffffff167f8be0079c531659141344cd1fd0a4f28419497f9722a3daafe3b4186f6b6457e060405160405180910390a35050565b7f000000000000000000000000000000000000000000000000000000000000000073ffffffffffffffffffffffffffffffffffffffff163073ffffffffffffffffffffffffffffffffffffffff161461103457600080fd5b565b6060600082141561107e576040518060400160405280600181526020017f30000000000000000000000000000000000000000000000000000000000000008152509050611192565b600082905060005b600082146110b057808061109990611b94565b915050600a826110a99190611a42565b9150611086565b60008167ffffffffffffffff8111156110cc576110cb611cca565b5b6040519080825280601f01601f1916602001820160405280156110fe5781602001600182028036833780820191505090505b5090505b6000851461118b576001826111179190611a73565b9150600a856111269190611bdd565b603061113291906119ec565b60f81b81838151811061114857611147611c9b565b5b60200101907effffffffffffffffffffffffffffffffffffffffffffffffffffffffffffff1916908160001a905350600a856111849190611a42565b9450611102565b8093505050505b919050565b600033905090565b8280546111ab90611b31565b90600052602060002090601f0160209004810192826111cd5760008555611214565b82601f106111e657805160ff1916838001178555611214565b82800160010185558215611214579182015b828111156112135782518255916020019190600101906111f8565b5b5090506112219190611225565b5090565b5b8082111561123e576000816000905550600101611226565b5090565b600061125561125084611968565b611943565b9050808382526020820190508285602086028201111561127857611277611cfe565b5b60005b858110156112a8578161128e8882611365565b84526020840193506020830192505060018101905061127b565b5050509392505050565b60006112c56112c084611994565b611943565b9050828152602081018484840111156112e1576112e0611d03565b5b6112ec848285611aef565b509392505050565b60008135905061130381611e68565b92915050565b600082601f83011261131e5761131d611cf9565b5b813561132e848260208601611242565b91505092915050565b600082601f83011261134c5761134b611cf9565b5b813561135c8482602086016112b2565b91505092915050565b60008135905061137481611e7f565b92915050565b6000602082840312156113905761138f611d0d565b5b600061139e848285016112f4565b91505092915050565b6000602082840312156113bd576113bc611d0d565b5b600082013567ffffffffffffffff8111156113db576113da611d08565b5b6113e784828501611309565b91505092915050565b6000806040838503121561140757611406611d0d565b5b600083013567ffffffffffffffff81111561142557611424611d08565b5b61143185828601611309565b925050602083013567ffffffffffffffff81111561145257611451611d08565b5b61145e85828601611309565b9150509250929050565b60008060008060008060c0878903121561148557611484611d0d565b5b600087013567ffffffffffffffff8111156114a3576114a2611d08565b5b6114af89828a01611337565b96505060206114c089828a01611365565b95505060406114d189828a01611365565b94505060606114e289828a016112f4565b935050608087013567ffffffffffffffff81111561150357611502611d08565b5b61150f89828a01611337565b92505060a061152089828a01611365565b9150509295509295509295565b60006020828403121561154357611542611d0d565b5b600061155184828501611365565b91505092915050565b6000806040838503121561157157611570611d0d565b5b600061157f85828601611365565b9250506020611590858286016112f4565b9150509250929050565b6115a381611aa7565b82525050565b6115b281611ab9565b82525050565b60006115c3826119c5565b6115cd81856119d0565b93506115dd818560208601611afe565b6115e681611d12565b840191505092915050565b60006115fc826119c5565b61160681856119e1565b9350611616818560208601611afe565b80840191505092915050565b600061162f6011836119d0565b915061163a82611d23565b602082019050919050565b60006116526018836119d0565b915061165d82611d4c565b602082019050919050565b60006116756026836119d0565b915061168082611d75565b604082019050919050565b60006116986020836119d0565b91506116a382611dc4565b602082019050919050565b60006116bb6016836119d0565b91506116c682611ded565b602082019050919050565b60006116de6016836119d0565b91506116e982611e16565b602082019050919050565b60006117016010836119d0565b915061170c82611e3f565b602082019050919050565b61172081611ae5565b82525050565b600061173282856115f1565b915061173e82846115f1565b91508190509392505050565b600060208201905061175f600083018461159a565b92915050565b600060208201905061177a60008301846115a9565b92915050565b6000602082019050818103600083015261179a81846115b8565b905092915050565b600060808201905081810360008301526117bc81876115b8565b90506117cb6020830186611717565b6117d86040830185611717565b6117e5606083018461159a565b95945050505050565b6000602082019050818103600083015261180781611622565b9050919050565b6000602082019050818103600083015261182781611645565b9050919050565b6000602082019050818103600083015261184781611668565b9050919050565b600060208201905081810360008301526118678161168b565b9050919050565b60006020820190508181036000830152611887816116ae565b9050919050565b600060208201905081810360008301526118a7816116d1565b9050919050565b600060208201905081810360008301526118c7816116f4565b9050919050565b60006020820190506118e36000830184611717565b92915050565b600060a0820190506118fe6000830188611717565b818103602083015261191081876115b8565b905061191f6040830186611717565b61192c6060830185611717565b611939608083018461159a565b9695505050505050565b600061194d61195e565b90506119598282611b63565b919050565b6000604051905090565b600067ffffffffffffffff82111561198357611982611cca565b5b602082029050602081019050919050565b600067ffffffffffffffff8211156119af576119ae611cca565b5b6119b882611d12565b9050602081019050919050565b600081519050919050565b600082825260208201905092915050565b600081905092915050565b60006119f782611ae5565b9150611a0283611ae5565b9250827fffffffffffffffffffffffffffffffffffffffffffffffffffffffffffffffff03821115611a3757611a36611c0e565b5b828201905092915050565b6000611a4d82611ae5565b9150611a5883611ae5565b925082611a6857611a67611c3d565b5b828204905092915050565b6000611a7e82611ae5565b9150611a8983611ae5565b925082821015611a9c57611a9b611c0e565b5b828203905092915050565b6000611ab282611ac5565b9050919050565b60008115159050919050565b600073ffffffffffffffffffffffffffffffffffffffff82169050919050565b6000819050919050565b82818337600083830152505050565b60005b83811015611b1c578082015181840152602081019050611b01565b83811115611b2b576000848401525b50505050565b60006002820490506001821680611b4957607f821691505b60208210811415611b5d57611b5c611c6c565b5b50919050565b611b6c82611d12565b810181811067ffffffffffffffff82111715611b8b57611b8a611cca565b5b80604052505050565b6000611b9f82611ae5565b91507fffffffffffffffffffffffffffffffffffffffffffffffffffffffffffffffff821415611bd257611bd1611c0e565b5b600182019050919050565b6000611be882611ae5565b9150611bf383611ae5565b925082611c0357611c02611c3d565b5b828206905092915050565b7f4e487b7100000000000000000000000000000000000000000000000000000000600052601160045260246000fd5b7f4e487b7100000000000000000000000000000000000000000000000000000000600052601260045260246000fd5b7f4e487b7100000000000000000000000000000000000000000000000000000000600052602260045260246000fd5b7f4e487b7100000000000000000000000000000000000000000000000000000000600052603260045260246000fd5b7f4e487b7100000000000000000000000000000000000000000000000000000000600052604160045260246000fd5b600080fd5b600080fd5b600080fd5b600080fd5b600080fd5b6000601f19601f8301169050919050565b7f50424d206e6f74207265766f6b61626c65000000000000000000000000000000600082015250565b7f50424d3a20496e76616c696420546f6b656e2049642873290000000000000000600082015250565b7f4f776e61626c653a206e6577206f776e657220697320746865207a65726f206160008201527f6464726573730000000000000000000000000000000000000000000000000000602082015250565b7f4f776e61626c653a2063616c6c6572206973206e6f7420746865206f776e6572600082015250565b7f496e76616c696420746f6b656e206578706972792d3100000000000000000000600082015250565b7f496e76616c696420746f6b656e206578706972792d3200000000000000000000600082015250565b7f53706f7420616d6f756e74206973203000000000000000000000000000000000600082015250565b611e7181611aa7565b8114611e7c57600080fd5b50565b611e8881611ae5565b8114611e9357600080fd5b5056fea264697066735822122003d2c7548bfc0c9b3c8c2f1d65e97d34dd0543e725d3dd1aa72978f11f92865264736f6c63430008070033",
  "immutableReferences": {},
  "source": "// SPDX-License-Identifier: MIT\npragma solidity ^0.8.7;\n\nimport \"@openzeppelin/contracts/token/ERC1155/ERC1155.sol\";\nimport \"@openzeppelin/contracts/access/Ownable.sol\";\nimport \"@openzeppelin/contracts/security/Pausable.sol\";\n\nimport \"./ERC20Helper.sol\";  \nimport \"./PBMTokenManager.sol\";\nimport \"./IPBM.sol\";  \n\ncontract PBM is ERC1155, Ownable, Pausable, IPBM {  \n    \n    // undelrying ERC-20 tokens\n    address public spotToken ; \n    // address of the token manager\n    address public pbmTokenManager; \n\n    // time of expiry ( epoch )\n    uint256 public contractExpiry ; \n    // list of merchants who are able to receive the underlying ERC-20 tokens\n    mapping (address => bool) public merchantList ; \n\n    constructor(address _spotToken, uint256 _expiry, string memory _uriPostExpiry) ERC1155(\"\") {\n        spotToken = _spotToken ;\n        contractExpiry = _expiry ; \n\n        pbmTokenManager = address(new PBMTokenManager(_uriPostExpiry)) ; \n    }\n    \n    /**\n     * @dev See {IPBM-udpatePBMExpiry}.\n     *\n     * Requirements:\n     *\n     * - caller must be owner \n     * - contract must not be paused\n     * - contract must not be expired\n     * - `newExpiry` must be larger the existing expiry\n     */\n    function updatePBMExpiry(uint256 newExpiry)\n    external\n    override \n    onlyOwner\n    whenNotPaused\n    {   \n        require(block.timestamp < contractExpiry, \"PBM: contract is expired\");\n        require(newExpiry > contractExpiry, \"PBM : invalid expiry\" ) ; \n        contractExpiry = newExpiry; \n    }\n\n    /**\n     * @dev See {IPBM-addMerchantAddresses}.\n     *\n     * Requirements:\n     *\n     * - caller must be owner \n     * - contract must not be expired\n     */\n    function addMerchantAddresses(address[] memory addresses) \n    external\n    override\n    onlyOwner\n    {\n        require(block.timestamp < contractExpiry, \"PBM: contract is expired\");\n        for (uint256 i = 0; i < addresses.length; i++) {\n            merchantList[addresses[i]] = true;\n        }\n    }  \n\n    /**\n     * @dev See {IPBM-removeMerchantAddresses}.\n     *\n     * Requirements:\n     *\n     * - caller must be owner \n     * - contract must not be expired\n     */\n    function removeMerchantAddresses(address[] memory addresses) \n    external \n    override\n    onlyOwner\n    {\n        require(block.timestamp < contractExpiry, \"PBM: contract is expired\");\n        for (uint256 i = 0; i < addresses.length; i++) {\n            merchantList[addresses[i]] = false;\n        } \n    }\n\n    /**\n     * @dev See {IPBM-createPBMTokenType}.\n     *\n     * Requirements:\n     *\n     * - caller must be owner \n     * - contract must not be expired\n     * - `amount` should not be 0\n     */\n    function createPBMTokenType(string memory companyName, uint256 spotAmount, uint256 tokenExpiry,address creator, string memory tokenURI) \n    external \n    override\n    onlyOwner \n    {        \n        PBMTokenManager(pbmTokenManager).createTokenType(companyName, spotAmount, tokenExpiry, creator,  tokenURI, contractExpiry);\n    }\n\n    /**\n     * @dev See {IPBM-mint}.\n     *     \n     * IMPT: Before minting, the caller should approve the contract address to spend ERC-20 tokens on behalf of the caller.\n     *       This can be done by calling the `approve` or `increaseMinterAllowance` functions of the ERC-20 contract and specifying `_spender` to be the PBM contract address. \n             Ref : https://eips.ethereum.org/EIPS/eip-20\n     *\n     * Requirements:\n     *\n     * - contract must not be paused\n     * - tokens must not be expired\n     * - `tokenId` should be a valid id that has already been created\n     * - caller should have the necessary amount of the ERC-20 tokens required to mint\n     * - caller should have approved the PBM contract to spend the ERC-20 tokens\n     */\n    function mint(uint256 tokenId, uint256 amount, address receiver) \n    external  \n    override\n    whenNotPaused\n    {\n        uint256 valueOfNewTokens = amount*(PBMTokenManager(pbmTokenManager).getTokenValue(tokenId)); \n\n        //Transfer the spot token from the user to the contract to wrap it\n        ERC20Helper.safeTransferFrom(spotToken, msg.sender, address(this), valueOfNewTokens);\n\n        // mint the token if the contract - wrapping the xsgd\n        PBMTokenManager(pbmTokenManager).increaseBalanceSupply(serialise(tokenId), serialise(amount)) ; \n        _mint(receiver, tokenId, amount, ''); \n    }\n\n    /**\n     * @dev See {IPBM-batchMint}.\n     *     \n     * IMPT: Before minting, the caller should approve the contract address to spend ERC-20 tokens on behalf of the caller.\n     *       This can be done by calling the `approve` or `increaseMinterAllowance` functions of the ERC-20 contract and specifying `_spender` to be the PBM contract address. \n             Ref : https://eips.ethereum.org/EIPS/eip-20\n     *\n     * Requirements:\n     *\n     * - contract must not be paused\n     * - tokens must not be expired\n     * - `tokenIds` should all be valid ids that have already been created\n     * - `tokenIds` and `amounts` list need to have the same number of values\n     * - caller should have the necessary amount of the ERC-20 tokens required to mint\n     * - caller should have approved the PBM contract to spend the ERC-20 tokens\n     */\n    function batchMint(uint256[] memory tokenIds, uint256[] memory amounts, address receiver) \n    external \n    override\n    whenNotPaused\n    {   \n        require(tokenIds.length == amounts.length, \"Unequal ids and amounts supplied\"); \n\n        // calculate the value of the new tokens\n        uint256 valueOfNewTokens = 0 ; \n\n        for (uint256 i = 0; i < tokenIds.length; i++) {\n            valueOfNewTokens += (amounts[i]*(PBMTokenManager(pbmTokenManager).getTokenValue(tokenIds[i])));  \n        } \n\n        // Transfer spot tokenf from user to contract to wrap it\n        ERC20Helper.safeTransferFrom(spotToken, msg.sender, address(this), valueOfNewTokens);\n        PBMTokenManager(pbmTokenManager).increaseBalanceSupply(tokenIds, amounts);\n        _mintBatch(receiver, tokenIds, amounts, '');\n    }\n\n\n    /**\n     * @dev See {IPBM-safeTransferFrom}.\n     *     \n     *\n     * Requirements:\n     *\n     * - contract must not be paused\n     * - tokens must not be expired\n     * - `tokenId` should be a valid ids that has already been created\n     * - caller should have the PBMs that are being transferred (or)\n     *          caller should have the approval to spend the PBMs on behalf of the owner (`from` addresss)\n     */\n    function safeTransferFrom( address from, address to, uint256 id, uint256 amount, bytes memory data) \n    public   \n    override(ERC1155, IPBM)\n    whenNotPaused  \n    {\n        require(\n            from == _msgSender() || isApprovedForAll(from, _msgSender()),\n            \"ERC1155: caller is not token owner nor approved\"\n        );\n\n        if (merchantList[to]){\n            uint256 valueOfTokens = amount*(PBMTokenManager(pbmTokenManager).getTokenValue(id)); \n\n            // burn and transfer underlying ERC-20\n            _burn(from, id, amount);\n            PBMTokenManager(pbmTokenManager).decreaseBalanceSupply(serialise(id), serialise(amount)) ; \n            ERC20Helper.safeTransfer(spotToken, to, valueOfTokens);\n            emit MerchantPayment(from, to, serialise(id), serialise(amount), spotToken, valueOfTokens);\n\n        } else {\n            _safeTransferFrom(from, to, id, amount, data);\n        }\n \n    }\n\n    /**\n     * @dev See {IPBM-safeBatchTransferFrom}.\n     *     \n     *\n     * Requirements:\n     *\n     * - contract must not be paused\n     * - tokens must not be expired\n     * - `tokenIds` should all be  valid ids that has already been created\n     * - `tokenIds` and `amounts` list need to have the same number of values\n     * - caller should have the PBMs that are being transferred (or)\n     *          caller should have the approval to spend the PBMs on behalf of the owner (`from` addresss)\n     */ \n    function safeBatchTransferFrom(address from,address to,uint256[] memory ids,uint256[] memory amounts, bytes memory data) \n    public  \n    override(ERC1155, IPBM)\n    whenNotPaused \n    {\n        require(\n            from == _msgSender() || isApprovedForAll(from, _msgSender()),\n            \"ERC1155: caller is not token owner nor approved\"\n        );\n        require(ids.length == amounts.length, \"Unequal ids and amounts supplied\"); \n\n        if (merchantList[to]){\n            uint256 valueOfTokens = 0 ; \n            for (uint256 i = 0; i < ids.length; i++) {\n                valueOfTokens += (amounts[i]*(PBMTokenManager(pbmTokenManager).getTokenValue(ids[i]))) ; \n            } \n\n            _burnBatch(from, ids, amounts);\n            PBMTokenManager(pbmTokenManager).decreaseBalanceSupply(ids, amounts);\n            ERC20Helper.safeTransfer(spotToken, to, valueOfTokens);\n\n            emit MerchantPayment(from, to, ids, amounts, spotToken, valueOfTokens);\n\n        } else {\n            _safeBatchTransferFrom(from, to, ids, amounts, data);\n        }\n    }\n    \n    /**\n     * @dev See {IPBM-revokePBM}.\n     *\n     * Requirements:\n     *\n     * - `tokenId` should be a valid ids that has already been created\n     * - caller must be the creator of the tokenType \n     * - token must be expired\n     */ \n    function revokePBM(uint256 tokenId) \n    external \n    override\n    whenNotPaused \n    {\n        uint256 PBMTokenBalanceSupply = PBMTokenManager(pbmTokenManager).getTokenCount(tokenId); \n        uint256 valueOfTokens = PBMTokenBalanceSupply*(PBMTokenManager(pbmTokenManager).getTokenValue(tokenId)); \n\n        PBMTokenManager(pbmTokenManager).revokePBM(tokenId, msg.sender); \n\n        // transfering underlying ERC20 tokens\n        ERC20Helper.safeTransfer(spotToken, msg.sender, valueOfTokens);\n\n        emit PBMrevokeWithdraw(msg.sender, tokenId, spotToken, valueOfTokens);\n\n    }\n    /**\n     * @dev See {IPBM-getTokenDetails}.\n     *\n     */ \n    function getTokenDetails(uint256 tokenId) \n    external \n    view \n    override\n    returns (string memory, uint256, uint256, address) \n    {\n        return PBMTokenManager(pbmTokenManager).getTokenDetails(tokenId); \n    }\n\n    /**\n     * @dev See {IPBM-uri}.\n     *\n     */ \n    function uri(uint256 tokenId)\n    public  \n    view\n    override(ERC1155, IPBM)\n    returns (string memory)\n    {\n        return PBMTokenManager(pbmTokenManager).uri(tokenId);\n    }\n\n    function serialise(uint256 num)\n    internal \n    pure\n    returns (uint256[] memory) {\n        uint256[] memory array  = new uint256[](1) ; \n        array[0] = num ; \n        return array ;\n    }\n}",
  "sourcePath": "/Users/mihir/Desktop/code/Orchid-PBM/contracts/PBM.sol",
  "compiler": {
    "name": "solc",
    "version": "0.8.7+commit.e28d00a7.Emscripten.clang"
  },
  "schemaVersion": "3.4.3",
  "updatedAt": "2022-09-19T10:48:04.332Z",
  "devdoc": {
    "kind": "dev",
    "methods": {
      "addMerchantAddresses(address[])": {
        "details": "See {IPBM-addMerchantAddresses}. Requirements: - caller must be owner  - contract must not be expired"
      },
      "balanceOf(address,uint256)": {
        "details": "See {IERC1155-balanceOf}. Requirements: - `account` cannot be the zero address."
      },
      "balanceOfBatch(address[],uint256[])": {
        "details": "See {IERC1155-balanceOfBatch}. Requirements: - `accounts` and `ids` must have the same length."
      },
      "batchMint(uint256[],uint256[],address)": {
        "details": "See {IPBM-batchMint}.      IMPT: Before minting, the caller should approve the contract address to spend ERC-20 tokens on behalf of the caller.       This can be done by calling the `approve` or `increaseMinterAllowance` functions of the ERC-20 contract and specifying `_spender` to be the PBM contract address.  Ref : https://eips.ethereum.org/EIPS/eip-20 Requirements: - contract must not be paused - tokens must not be expired - `tokenIds` should all be valid ids that have already been created - `tokenIds` and `amounts` list need to have the same number of values - caller should have the necessary amount of the ERC-20 tokens required to mint - caller should have approved the PBM contract to spend the ERC-20 tokens"
      },
      "createPBMTokenType(string,uint256,uint256,address,string)": {
        "details": "See {IPBM-createPBMTokenType}. Requirements: - caller must be owner  - contract must not be expired - `amount` should not be 0"
      },
      "getTokenDetails(uint256)": {
        "details": "See {IPBM-getTokenDetails}."
      },
      "isApprovedForAll(address,address)": {
        "details": "See {IERC1155-isApprovedForAll}."
      },
      "mint(uint256,uint256,address)": {
        "details": "See {IPBM-mint}.      IMPT: Before minting, the caller should approve the contract address to spend ERC-20 tokens on behalf of the caller.       This can be done by calling the `approve` or `increaseMinterAllowance` functions of the ERC-20 contract and specifying `_spender` to be the PBM contract address.  Ref : https://eips.ethereum.org/EIPS/eip-20 Requirements: - contract must not be paused - tokens must not be expired - `tokenId` should be a valid id that has already been created - caller should have the necessary amount of the ERC-20 tokens required to mint - caller should have approved the PBM contract to spend the ERC-20 tokens"
      },
      "owner()": {
        "details": "Returns the address of the current owner."
      },
      "paused()": {
        "details": "Returns true if the contract is paused, and false otherwise."
      },
      "removeMerchantAddresses(address[])": {
        "details": "See {IPBM-removeMerchantAddresses}. Requirements: - caller must be owner  - contract must not be expired"
      },
      "renounceOwnership()": {
        "details": "Leaves the contract without owner. It will not be possible to call `onlyOwner` functions anymore. Can only be called by the current owner. NOTE: Renouncing ownership will leave the contract without an owner, thereby removing any functionality that is only available to the owner."
      },
      "revokePBM(uint256)": {
        "details": "See {IPBM-revokePBM}. Requirements: - `tokenId` should be a valid ids that has already been created - caller must be the creator of the tokenType  - token must be expired"
      },
      "safeBatchTransferFrom(address,address,uint256[],uint256[],bytes)": {
        "details": "See {IPBM-safeBatchTransferFrom}.      Requirements: - contract must not be paused - tokens must not be expired - `tokenIds` should all be  valid ids that has already been created - `tokenIds` and `amounts` list need to have the same number of values - caller should have the PBMs that are being transferred (or)          caller should have the approval to spend the PBMs on behalf of the owner (`from` addresss)"
      },
      "safeTransferFrom(address,address,uint256,uint256,bytes)": {
        "details": "See {IPBM-safeTransferFrom}.      Requirements: - contract must not be paused - tokens must not be expired - `tokenId` should be a valid ids that has already been created - caller should have the PBMs that are being transferred (or)          caller should have the approval to spend the PBMs on behalf of the owner (`from` addresss)"
      },
      "setApprovalForAll(address,bool)": {
        "details": "See {IERC1155-setApprovalForAll}."
      },
      "supportsInterface(bytes4)": {
        "details": "See {IERC165-supportsInterface}."
      },
      "transferOwnership(address)": {
        "details": "Transfers ownership of the contract to a new account (`newOwner`). Can only be called by the current owner."
      },
      "updatePBMExpiry(uint256)": {
        "details": "See {IPBM-udpatePBMExpiry}. Requirements: - caller must be owner  - contract must not be paused - contract must not be expired - `newExpiry` must be larger the existing expiry"
      },
      "uri(uint256)": {
        "details": "See {IPBM-uri}."
      }
    },
    "version": 1
  },
  "userdoc": {
    "events": {
      "MerchantPayment(address,address,uint256[],uint256[],address,uint256)": {
        "notice": "Emitted when underlying ERC-20 tokens are transferred to a whitelisted merchant ( payment )"
      },
      "PBMrevokeWithdraw(address,uint256,address,uint256)": {
        "notice": "Emitted when a PBM type creator withdraws the underlying ERC-20 tokens from all the remaining expired PBMs"
      }
    },
    "kind": "user",
    "methods": {},
    "version": 1
  }
}