{
  "contractName": "PBM",
  "abi": [
    {
      "inputs": [
        {
          "internalType": "address",
          "name": "_spotToken",
          "type": "address"
        },
        {
          "internalType": "uint256",
          "name": "_expiry",
          "type": "uint256"
        },
        {
          "internalType": "string",
          "name": "_uriPostExpiry",
          "type": "string"
        }
      ],
      "stateMutability": "nonpayable",
      "type": "constructor"
    },
    {
      "anonymous": false,
      "inputs": [
        {
          "indexed": true,
          "internalType": "address",
          "name": "account",
          "type": "address"
        },
        {
          "indexed": true,
          "internalType": "address",
          "name": "operator",
          "type": "address"
        },
        {
          "indexed": false,
          "internalType": "bool",
          "name": "approved",
          "type": "bool"
        }
      ],
      "name": "ApprovalForAll",
      "type": "event"
    },
    {
      "anonymous": false,
      "inputs": [
        {
          "indexed": true,
          "internalType": "address",
          "name": "previousOwner",
          "type": "address"
        },
        {
          "indexed": true,
          "internalType": "address",
          "name": "newOwner",
          "type": "address"
        }
      ],
      "name": "OwnershipTransferred",
      "type": "event"
    },
    {
      "anonymous": false,
      "inputs": [
        {
          "indexed": false,
          "internalType": "address",
          "name": "beneficiary",
          "type": "address"
        },
        {
          "indexed": false,
          "internalType": "uint256",
          "name": "PBMTokenId",
          "type": "uint256"
        },
        {
          "indexed": false,
          "internalType": "address",
          "name": "ERC20Token",
          "type": "address"
        },
        {
          "indexed": false,
          "internalType": "uint256",
          "name": "ERC20TokenValue",
          "type": "uint256"
        }
      ],
      "name": "PBMrevokeWithdraw",
      "type": "event"
    },
    {
      "anonymous": false,
      "inputs": [
        {
          "indexed": false,
          "internalType": "address",
          "name": "account",
          "type": "address"
        }
      ],
      "name": "Paused",
      "type": "event"
    },
    {
      "anonymous": false,
      "inputs": [
        {
          "indexed": true,
          "internalType": "address",
          "name": "operator",
          "type": "address"
        },
        {
          "indexed": true,
          "internalType": "address",
          "name": "from",
          "type": "address"
        },
        {
          "indexed": true,
          "internalType": "address",
          "name": "to",
          "type": "address"
        },
        {
          "indexed": false,
          "internalType": "uint256[]",
          "name": "ids",
          "type": "uint256[]"
        },
        {
          "indexed": false,
          "internalType": "uint256[]",
          "name": "values",
          "type": "uint256[]"
        }
      ],
      "name": "TransferBatch",
      "type": "event"
    },
    {
      "anonymous": false,
      "inputs": [
        {
          "indexed": true,
          "internalType": "address",
          "name": "operator",
          "type": "address"
        },
        {
          "indexed": true,
          "internalType": "address",
          "name": "from",
          "type": "address"
        },
        {
          "indexed": true,
          "internalType": "address",
          "name": "to",
          "type": "address"
        },
        {
          "indexed": false,
          "internalType": "uint256",
          "name": "id",
          "type": "uint256"
        },
        {
          "indexed": false,
          "internalType": "uint256",
          "name": "value",
          "type": "uint256"
        }
      ],
      "name": "TransferSingle",
      "type": "event"
    },
    {
      "anonymous": false,
      "inputs": [
        {
          "indexed": false,
          "internalType": "string",
          "name": "value",
          "type": "string"
        },
        {
          "indexed": true,
          "internalType": "uint256",
          "name": "id",
          "type": "uint256"
        }
      ],
      "name": "URI",
      "type": "event"
    },
    {
      "anonymous": false,
      "inputs": [
        {
          "indexed": false,
          "internalType": "address",
          "name": "account",
          "type": "address"
        }
      ],
      "name": "Unpaused",
      "type": "event"
    },
    {
      "anonymous": false,
      "inputs": [
        {
          "indexed": false,
          "internalType": "address",
          "name": "from",
          "type": "address"
        },
        {
          "indexed": false,
          "internalType": "address",
          "name": "to",
          "type": "address"
        },
        {
          "indexed": false,
          "internalType": "uint256[]",
          "name": "tokenIds",
          "type": "uint256[]"
        },
        {
          "indexed": false,
          "internalType": "uint256[]",
          "name": "amounts",
          "type": "uint256[]"
        },
        {
          "indexed": false,
          "internalType": "uint256",
          "name": "value",
          "type": "uint256"
        }
      ],
      "name": "merchantPayment",
      "type": "event"
    },
    {
      "inputs": [
        {
          "internalType": "address",
          "name": "account",
          "type": "address"
        },
        {
          "internalType": "uint256",
          "name": "id",
          "type": "uint256"
        }
      ],
      "name": "balanceOf",
      "outputs": [
        {
          "internalType": "uint256",
          "name": "",
          "type": "uint256"
        }
      ],
      "stateMutability": "view",
      "type": "function",
      "constant": true
    },
    {
      "inputs": [
        {
          "internalType": "address[]",
          "name": "accounts",
          "type": "address[]"
        },
        {
          "internalType": "uint256[]",
          "name": "ids",
          "type": "uint256[]"
        }
      ],
      "name": "balanceOfBatch",
      "outputs": [
        {
          "internalType": "uint256[]",
          "name": "",
          "type": "uint256[]"
        }
      ],
      "stateMutability": "view",
      "type": "function",
      "constant": true
    },
    {
      "inputs": [],
      "name": "contractExpiry",
      "outputs": [
        {
          "internalType": "uint256",
          "name": "",
          "type": "uint256"
        }
      ],
      "stateMutability": "view",
      "type": "function",
      "constant": true
    },
    {
      "inputs": [
        {
          "internalType": "address",
          "name": "account",
          "type": "address"
        },
        {
          "internalType": "address",
          "name": "operator",
          "type": "address"
        }
      ],
      "name": "isApprovedForAll",
      "outputs": [
        {
          "internalType": "bool",
          "name": "",
          "type": "bool"
        }
      ],
      "stateMutability": "view",
      "type": "function",
      "constant": true
    },
    {
      "inputs": [
        {
          "internalType": "address",
          "name": "",
          "type": "address"
        }
      ],
      "name": "merchantList",
      "outputs": [
        {
          "internalType": "bool",
          "name": "",
          "type": "bool"
        }
      ],
      "stateMutability": "view",
      "type": "function",
      "constant": true
    },
    {
      "inputs": [],
      "name": "owner",
      "outputs": [
        {
          "internalType": "address",
          "name": "",
          "type": "address"
        }
      ],
      "stateMutability": "view",
      "type": "function",
      "constant": true
    },
    {
      "inputs": [],
      "name": "paused",
      "outputs": [
        {
          "internalType": "bool",
          "name": "",
          "type": "bool"
        }
      ],
      "stateMutability": "view",
      "type": "function",
      "constant": true
    },
    {
      "inputs": [],
      "name": "pbmTokenManager",
      "outputs": [
        {
          "internalType": "address",
          "name": "",
          "type": "address"
        }
      ],
      "stateMutability": "view",
      "type": "function",
      "constant": true
    },
    {
      "inputs": [],
      "name": "renounceOwnership",
      "outputs": [],
      "stateMutability": "nonpayable",
      "type": "function"
    },
    {
      "inputs": [
        {
          "internalType": "address",
          "name": "operator",
          "type": "address"
        },
        {
          "internalType": "bool",
          "name": "approved",
          "type": "bool"
        }
      ],
      "name": "setApprovalForAll",
      "outputs": [],
      "stateMutability": "nonpayable",
      "type": "function"
    },
    {
      "inputs": [],
      "name": "spotToken",
      "outputs": [
        {
          "internalType": "address",
          "name": "",
          "type": "address"
        }
      ],
      "stateMutability": "view",
      "type": "function",
      "constant": true
    },
    {
      "inputs": [
        {
          "internalType": "bytes4",
          "name": "interfaceId",
          "type": "bytes4"
        }
      ],
      "name": "supportsInterface",
      "outputs": [
        {
          "internalType": "bool",
          "name": "",
          "type": "bool"
        }
      ],
      "stateMutability": "view",
      "type": "function",
      "constant": true
    },
    {
      "inputs": [
        {
          "internalType": "address",
          "name": "newOwner",
          "type": "address"
        }
      ],
      "name": "transferOwnership",
      "outputs": [],
      "stateMutability": "nonpayable",
      "type": "function"
    },
    {
      "inputs": [
        {
          "internalType": "uint256",
          "name": "extendedExpiry",
          "type": "uint256"
        }
      ],
      "name": "extendPBMExpiry",
      "outputs": [],
      "stateMutability": "nonpayable",
      "type": "function"
    },
    {
      "inputs": [
        {
          "internalType": "address[]",
          "name": "addresses",
          "type": "address[]"
        }
      ],
      "name": "addMerchantAddresses",
      "outputs": [],
      "stateMutability": "nonpayable",
      "type": "function"
    },
    {
      "inputs": [
        {
          "internalType": "address[]",
          "name": "addresses",
          "type": "address[]"
        }
      ],
      "name": "removeMerchantAddresses",
      "outputs": [],
      "stateMutability": "nonpayable",
      "type": "function"
    },
    {
      "inputs": [
        {
          "internalType": "string",
          "name": "companyName",
          "type": "string"
        },
        {
          "internalType": "uint256",
          "name": "spotAmount",
          "type": "uint256"
        },
        {
          "internalType": "uint256",
          "name": "tokenExpiry",
          "type": "uint256"
        },
        {
          "internalType": "address",
          "name": "creator",
          "type": "address"
        },
        {
          "internalType": "string",
          "name": "tokenURI",
          "type": "string"
        }
      ],
      "name": "createPBMTokenType",
      "outputs": [],
      "stateMutability": "nonpayable",
      "type": "function"
    },
    {
      "inputs": [
        {
          "internalType": "uint256",
          "name": "tokenId",
          "type": "uint256"
        },
        {
          "internalType": "uint256",
          "name": "amount",
          "type": "uint256"
        },
        {
          "internalType": "address",
          "name": "receiver",
          "type": "address"
        }
      ],
      "name": "mint",
      "outputs": [],
      "stateMutability": "nonpayable",
      "type": "function"
    },
    {
      "inputs": [
        {
          "internalType": "uint256[]",
          "name": "tokenIds",
          "type": "uint256[]"
        },
        {
          "internalType": "uint256[]",
          "name": "amounts",
          "type": "uint256[]"
        },
        {
          "internalType": "address",
          "name": "receiver",
          "type": "address"
        }
      ],
      "name": "batchMint",
      "outputs": [],
      "stateMutability": "nonpayable",
      "type": "function"
    },
    {
      "inputs": [
        {
          "internalType": "address",
          "name": "from",
          "type": "address"
        },
        {
          "internalType": "address",
          "name": "to",
          "type": "address"
        },
        {
          "internalType": "uint256",
          "name": "id",
          "type": "uint256"
        },
        {
          "internalType": "uint256",
          "name": "amount",
          "type": "uint256"
        },
        {
          "internalType": "bytes",
          "name": "data",
          "type": "bytes"
        }
      ],
      "name": "safeTransferFrom",
      "outputs": [],
      "stateMutability": "nonpayable",
      "type": "function"
    },
    {
      "inputs": [
        {
          "internalType": "address",
          "name": "from",
          "type": "address"
        },
        {
          "internalType": "address",
          "name": "to",
          "type": "address"
        },
        {
          "internalType": "uint256[]",
          "name": "ids",
          "type": "uint256[]"
        },
        {
          "internalType": "uint256[]",
          "name": "amounts",
          "type": "uint256[]"
        },
        {
          "internalType": "bytes",
          "name": "data",
          "type": "bytes"
        }
      ],
      "name": "safeBatchTransferFrom",
      "outputs": [],
      "stateMutability": "nonpayable",
      "type": "function"
    },
    {
      "inputs": [
        {
          "internalType": "uint256",
          "name": "tokenId",
          "type": "uint256"
        }
      ],
      "name": "revokePBM",
      "outputs": [],
      "stateMutability": "nonpayable",
      "type": "function"
    },
    {
      "inputs": [
        {
          "internalType": "uint256",
          "name": "tokenId",
          "type": "uint256"
        }
      ],
      "name": "getTokenDetails",
      "outputs": [
        {
          "internalType": "string",
          "name": "",
          "type": "string"
        },
        {
          "internalType": "uint256",
          "name": "",
          "type": "uint256"
        },
        {
          "internalType": "uint256",
          "name": "",
          "type": "uint256"
        },
        {
          "internalType": "address",
          "name": "",
          "type": "address"
        }
      ],
      "stateMutability": "view",
      "type": "function",
      "constant": true
    },
    {
      "inputs": [
        {
          "internalType": "uint256",
          "name": "tokenId",
          "type": "uint256"
        }
      ],
      "name": "uri",
      "outputs": [
        {
          "internalType": "string",
          "name": "",
          "type": "string"
        }
      ],
      "stateMutability": "view",
      "type": "function",
      "constant": true
    }
  ],
  "bytecode": "0x60806040523480156200001157600080fd5b506040516200806a3803806200806a8339818101604052810190620000379190620003b2565b6040518060200160405280600081525062000058816200015e60201b60201c565b50620000796200006d6200017a60201b60201c565b6200018260201b60201c565b6000600360146101000a81548160ff02191690831515021790555082600460006101000a81548173ffffffffffffffffffffffffffffffffffffffff021916908373ffffffffffffffffffffffffffffffffffffffff1602179055508160058190555080604051620000eb9062000248565b620000f791906200046e565b604051809103906000f08015801562000114573d6000803e3d6000fd5b50600860006101000a81548173ffffffffffffffffffffffffffffffffffffffff021916908373ffffffffffffffffffffffffffffffffffffffff160217905550505050620006a4565b80600290805190602001906200017692919062000256565b5050565b600033905090565b6000600360009054906101000a900473ffffffffffffffffffffffffffffffffffffffff16905081600360006101000a81548173ffffffffffffffffffffffffffffffffffffffff021916908373ffffffffffffffffffffffffffffffffffffffff1602179055508173ffffffffffffffffffffffffffffffffffffffff168173ffffffffffffffffffffffffffffffffffffffff167f8be0079c531659141344cd1fd0a4f28419497f9722a3daafe3b4186f6b6457e060405160405180910390a35050565b612049806200602183390190565b828054620002649062000581565b90600052602060002090601f016020900481019282620002885760008555620002d4565b82601f10620002a357805160ff1916838001178555620002d4565b82800160010185558215620002d4579182015b82811115620002d3578251825591602001919060010190620002b6565b5b509050620002e39190620002e7565b5090565b5b8082111562000302576000816000905550600101620002e8565b5090565b60006200031d6200031784620004bb565b62000492565b9050828152602081018484840111156200033c576200033b62000650565b5b620003498482856200054b565b509392505050565b600081519050620003628162000670565b92915050565b600082601f83011262000380576200037f6200064b565b5b81516200039284826020860162000306565b91505092915050565b600081519050620003ac816200068a565b92915050565b600080600060608486031215620003ce57620003cd6200065a565b5b6000620003de8682870162000351565b9350506020620003f1868287016200039b565b925050604084015167ffffffffffffffff81111562000415576200041462000655565b5b620004238682870162000368565b9150509250925092565b60006200043a82620004f1565b620004468185620004fc565b9350620004588185602086016200054b565b62000463816200065f565b840191505092915050565b600060208201905081810360008301526200048a81846200042d565b905092915050565b60006200049e620004b1565b9050620004ac8282620005b7565b919050565b6000604051905090565b600067ffffffffffffffff821115620004d957620004d86200061c565b5b620004e4826200065f565b9050602081019050919050565b600081519050919050565b600082825260208201905092915050565b60006200051a8262000521565b9050919050565b600073ffffffffffffffffffffffffffffffffffffffff82169050919050565b6000819050919050565b60005b838110156200056b5780820151818401526020810190506200054e565b838111156200057b576000848401525b50505050565b600060028204905060018216806200059a57607f821691505b60208210811415620005b157620005b0620005ed565b5b50919050565b620005c2826200065f565b810181811067ffffffffffffffff82111715620005e457620005e36200061c565b5b80604052505050565b7f4e487b7100000000000000000000000000000000000000000000000000000000600052602260045260246000fd5b7f4e487b7100000000000000000000000000000000000000000000000000000000600052604160045260246000fd5b600080fd5b600080fd5b600080fd5b600080fd5b6000601f19601f8301169050919050565b6200067b816200050d565b81146200068757600080fd5b50565b620006958162000541565b8114620006a157600080fd5b50565b61596d80620006b46000396000f3fe608060405234801561001057600080fd5b50600436106101575760003560e01c806373e17e76116100c3578063e10adc161161007c578063e10adc16146103c7578063e7d3fe6b146103e3578063e985e9c5146103ff578063f242432a1461042f578063f2fde38b1461044b578063fb34b2011461046757610157565b806373e17e761461030457806389aba642146103205780638da5cb5b1461033e57806398a200bc1461035c578063a22cb46514610378578063c1e037281461039457610157565b806330a5d1c01161011557806330a5d1c0146102565780634e1273f4146102725780635c975abb146102a25780635ed7be9d146102c057806363be47d2146102dc578063715018a6146102fa57610157565b8062fdd58e1461015c57806301ffc9a71461018c5780630ad89462146101bc5780630e89341c146101da578063294adb5a1461020a5780632eb2c2d61461023a575b600080fd5b61017660048036038101906101719190613f0a565b610483565b6040516101839190614dab565b60405180910390f35b6101a660048036038101906101a191906140c3565b61054c565b6040516101b391906149f3565b60405180910390f35b6101c461062e565b6040516101d191906147b7565b60405180910390f35b6101f460048036038101906101ef919061429c565b610654565b6040516102019190614a0e565b60405180910390f35b610224600480360381019061021f9190613cf7565b61070d565b60405161023191906149f3565b60405180910390f35b610254600480360381019061024f9190613d64565b61072d565b005b610270600480360381019061026b9190613f4a565b610bcd565b005b61028c60048036038101906102879190613f93565b610cae565b604051610299919061499a565b60405180910390f35b6102aa610dc7565b6040516102b791906149f3565b60405180910390f35b6102da60048036038101906102d591906141e9565b610dde565b005b6102e4610ed2565b6040516102f191906147b7565b60405180910390f35b610302610ef8565b005b61031e6004803603810190610319919061429c565b610f0c565b005b6103286111a4565b6040516103359190614dab565b60405180910390f35b6103466111aa565b60405161035391906147b7565b60405180910390f35b6103766004803603810190610371919061429c565b6111d4565b005b610392600480360381019061038d9190613eca565b611276565b005b6103ae60048036038101906103a9919061429c565b61128c565b6040516103be9493929190614a30565b60405180910390f35b6103e160048036038101906103dc9190613f4a565b611352565b005b6103fd60048036038101906103f891906142f6565b611433565b005b61041960048036038101906104149190613d24565b611720565b60405161042691906149f3565b60405180910390f35b61044960048036038101906104449190613e33565b6117b4565b005b61046560048036038101906104609190613cf7565b611bd3565b005b610481600480360381019061047c919061400b565b611c57565b005b60008073ffffffffffffffffffffffffffffffffffffffff168373ffffffffffffffffffffffffffffffffffffffff1614156104f4576040517f08c379a00000000000000000000000000000000000000000000000000000000081526004016104eb90614beb565b60405180910390fd5b60008083815260200190815260200160002060008473ffffffffffffffffffffffffffffffffffffffff1673ffffffffffffffffffffffffffffffffffffffff16815260200190815260200160002054905092915050565b60007fd9b67a26000000000000000000000000000000000000000000000000000000007bffffffffffffffffffffffffffffffffffffffffffffffffffffffff1916827bffffffffffffffffffffffffffffffffffffffffffffffffffffffff1916148061061757507f0e89341c000000000000000000000000000000000000000000000000000000007bffffffffffffffffffffffffffffffffffffffffffffffffffffffff1916827bffffffffffffffffffffffffffffffffffffffffffffffffffffffff1916145b80610627575061062682611fd6565b5b9050919050565b600460009054906101000a900473ffffffffffffffffffffffffffffffffffffffff1681565b6060600860009054906101000a900473ffffffffffffffffffffffffffffffffffffffff1673ffffffffffffffffffffffffffffffffffffffff16630e89341c836040518263ffffffff1660e01b81526004016106b19190614dab565b60006040518083038186803b1580156106c957600080fd5b505afa1580156106dd573d6000803e3d6000fd5b505050506040513d6000823e3d601f19601f82011682018060405250810190610706919061411d565b9050919050565b60066020528060005260406000206000915054906101000a900460ff1681565b6005544210610771576040517f08c379a000000000000000000000000000000000000000000000000000000000815260040161076890614bcb565b60405180910390fd5b610779612040565b61078161208a565b73ffffffffffffffffffffffffffffffffffffffff168573ffffffffffffffffffffffffffffffffffffffff1614806107c757506107c6856107c161208a565b611720565b5b610806576040517f08c379a00000000000000000000000000000000000000000000000000000000081526004016107fd90614b0b565b60405180910390fd5b815183511461084a576040517f08c379a000000000000000000000000000000000000000000000000000000000815260040161084190614ceb565b60405180910390fd5b600860009054906101000a900473ffffffffffffffffffffffffffffffffffffffff1673ffffffffffffffffffffffffffffffffffffffff166348fd09f5846040518263ffffffff1660e01b81526004016108a5919061499a565b60206040518083038186803b1580156108bd57600080fd5b505afa1580156108d1573d6000803e3d6000fd5b505050506040513d601f19601f820116820180604052508101906108f59190614096565b610934576040517f08c379a000000000000000000000000000000000000000000000000000000000815260040161092b90614b4b565b60405180910390fd5b600660008573ffffffffffffffffffffffffffffffffffffffff1673ffffffffffffffffffffffffffffffffffffffff16815260200190815260200160002060009054906101000a900460ff1615610bb8576000805b8451811015610aab57610a96610a87600860009054906101000a900473ffffffffffffffffffffffffffffffffffffffff1673ffffffffffffffffffffffffffffffffffffffff1663d10424c78885815181106109ea576109e9615182565b5b60200260200101516040518263ffffffff1660e01b8152600401610a0e9190614dab565b60206040518083038186803b158015610a2657600080fd5b505afa158015610a3a573d6000803e3d6000fd5b505050506040513d601f19601f82011682018060405250810190610a5e91906142c9565b868481518110610a7157610a70615182565b5b602002602001015161209290919063ffffffff16565b836120a890919063ffffffff16565b91508080610aa39061510a565b91505061098a565b50610ab78685856120be565b600860009054906101000a900473ffffffffffffffffffffffffffffffffffffffff1673ffffffffffffffffffffffffffffffffffffffff1663e21c8b5985856040518363ffffffff1660e01b8152600401610b149291906149bc565b600060405180830381600087803b158015610b2e57600080fd5b505af1158015610b42573d6000803e3d6000fd5b50505050610b73600460009054906101000a900473ffffffffffffffffffffffffffffffffffffffff16868361238d565b7f419b93ad2d194278adbe153d01aa6ad9b2ff2487d4ec47f0d2ee147eb74b005a8686868685604051610baa95949392919061483a565b60405180910390a150610bc6565b610bc585858585856124e2565b5b5050505050565b6005544210610c11576040517f08c379a0000000000000000000000000000000000000000000000000000000008152600401610c0890614bcb565b60405180910390fd5b610c19612804565b60005b8151811015610caa57600060066000848481518110610c3e57610c3d615182565b5b602002602001015173ffffffffffffffffffffffffffffffffffffffff1673ffffffffffffffffffffffffffffffffffffffff16815260200190815260200160002060006101000a81548160ff0219169083151502179055508080610ca29061510a565b915050610c1c565b5050565b60608151835114610cf4576040517f08c379a0000000000000000000000000000000000000000000000000000000008152600401610ceb90614d2b565b60405180910390fd5b6000835167ffffffffffffffff811115610d1157610d106151b1565b5b604051908082528060200260200182016040528015610d3f5781602001602082028036833780820191505090505b50905060005b8451811015610dbc57610d8c858281518110610d6457610d63615182565b5b6020026020010151858381518110610d7f57610d7e615182565b5b6020026020010151610483565b828281518110610d9f57610d9e615182565b5b60200260200101818152505080610db59061510a565b9050610d45565b508091505092915050565b6000600360149054906101000a900460ff16905090565b610de6612804565b6005544210610e2a576040517f08c379a0000000000000000000000000000000000000000000000000000000008152600401610e2190614bcb565b60405180910390fd5b610e32612040565b600860009054906101000a900473ffffffffffffffffffffffffffffffffffffffff1673ffffffffffffffffffffffffffffffffffffffff166380d69c8a86868686866005546040518763ffffffff1660e01b8152600401610e9996959493929190614a7c565b600060405180830381600087803b158015610eb357600080fd5b505af1158015610ec7573d6000803e3d6000fd5b505050505050505050565b600860009054906101000a900473ffffffffffffffffffffffffffffffffffffffff1681565b610f00612804565b610f0a6000612882565b565b610f14612040565b6000600860009054906101000a900473ffffffffffffffffffffffffffffffffffffffff1673ffffffffffffffffffffffffffffffffffffffff1663234661c4836040518263ffffffff1660e01b8152600401610f719190614dab565b60206040518083038186803b158015610f8957600080fd5b505afa158015610f9d573d6000803e3d6000fd5b505050506040513d601f19601f82011682018060405250810190610fc191906142c9565b90506000611082600860009054906101000a900473ffffffffffffffffffffffffffffffffffffffff1673ffffffffffffffffffffffffffffffffffffffff1663d10424c7856040518263ffffffff1660e01b81526004016110239190614dab565b60206040518083038186803b15801561103b57600080fd5b505afa15801561104f573d6000803e3d6000fd5b505050506040513d601f19601f8201168201806040525081019061107391906142c9565b8361209290919063ffffffff16565b9050600860009054906101000a900473ffffffffffffffffffffffffffffffffffffffff1673ffffffffffffffffffffffffffffffffffffffff166336a3409c84336040518363ffffffff1660e01b81526004016110e1929190614dc6565b600060405180830381600087803b1580156110fb57600080fd5b505af115801561110f573d6000803e3d6000fd5b50505050611140600460009054906101000a900473ffffffffffffffffffffffffffffffffffffffff16338361238d565b7fa1c359e2aefcb2a02fa122099023552498d16ee2c91b81d3cfd8cd086f037d443384600460009054906101000a900473ffffffffffffffffffffffffffffffffffffffff16846040516111979493929190614955565b60405180910390a1505050565b60055481565b6000600360009054906101000a900473ffffffffffffffffffffffffffffffffffffffff16905090565b6111dc612804565b6005544210611220576040517f08c379a000000000000000000000000000000000000000000000000000000000815260040161121790614bcb565b60405180910390fd5b611228612040565b600554811161126c576040517f08c379a000000000000000000000000000000000000000000000000000000000815260040161126390614cab565b60405180910390fd5b8060058190555050565b61128861128161208a565b8383612948565b5050565b60606000806000600860009054906101000a900473ffffffffffffffffffffffffffffffffffffffff1673ffffffffffffffffffffffffffffffffffffffff1663c1e03728866040518263ffffffff1660e01b81526004016112ee9190614dab565b60006040518083038186803b15801561130657600080fd5b505afa15801561131a573d6000803e3d6000fd5b505050506040513d6000823e3d601f19601f820116820180604052508101906113439190614166565b93509350935093509193509193565b6005544210611396576040517f08c379a000000000000000000000000000000000000000000000000000000000815260040161138d90614bcb565b60405180910390fd5b61139e612804565b60005b815181101561142f576001600660008484815181106113c3576113c2615182565b5b602002602001015173ffffffffffffffffffffffffffffffffffffffff1673ffffffffffffffffffffffffffffffffffffffff16815260200190815260200160002060006101000a81548160ff02191690831515021790555080806114279061510a565b9150506113a1565b5050565b6005544210611477576040517f08c379a000000000000000000000000000000000000000000000000000000000815260040161146e90614bcb565b60405180910390fd5b61147f612040565b600860009054906101000a900473ffffffffffffffffffffffffffffffffffffffff1673ffffffffffffffffffffffffffffffffffffffff166348fd09f56114c685612ab5565b6040518263ffffffff1660e01b81526004016114e2919061499a565b60206040518083038186803b1580156114fa57600080fd5b505afa15801561150e573d6000803e3d6000fd5b505050506040513d601f19601f820116820180604052508101906115329190614096565b611571576040517f08c379a000000000000000000000000000000000000000000000000000000000815260040161156890614b6b565b60405180910390fd5b6000611630600860009054906101000a900473ffffffffffffffffffffffffffffffffffffffff1673ffffffffffffffffffffffffffffffffffffffff1663d10424c7866040518263ffffffff1660e01b81526004016115d19190614dab565b60206040518083038186803b1580156115e957600080fd5b505afa1580156115fd573d6000803e3d6000fd5b505050506040513d601f19601f8201168201806040525081019061162191906142c9565b8461209290919063ffffffff16565b9050611660600460009054906101000a900473ffffffffffffffffffffffffffffffffffffffff16333084612b2f565b600860009054906101000a900473ffffffffffffffffffffffffffffffffffffffff1673ffffffffffffffffffffffffffffffffffffffff1663f600d9f46116a786612ab5565b6116b086612ab5565b6040518363ffffffff1660e01b81526004016116cd9291906149bc565b600060405180830381600087803b1580156116e757600080fd5b505af11580156116fb573d6000803e3d6000fd5b5050505061171a82858560405180602001604052806000815250612c87565b50505050565b6000600160008473ffffffffffffffffffffffffffffffffffffffff1673ffffffffffffffffffffffffffffffffffffffff16815260200190815260200160002060008373ffffffffffffffffffffffffffffffffffffffff1673ffffffffffffffffffffffffffffffffffffffff16815260200190815260200160002060009054906101000a900460ff16905092915050565b60055442106117f8576040517f08c379a00000000000000000000000000000000000000000000000000000000081526004016117ef90614bcb565b60405180910390fd5b611800612040565b61180861208a565b73ffffffffffffffffffffffffffffffffffffffff168573ffffffffffffffffffffffffffffffffffffffff16148061184e575061184d8561184861208a565b611720565b5b61188d576040517f08c379a000000000000000000000000000000000000000000000000000000000815260040161188490614b0b565b60405180910390fd5b600860009054906101000a900473ffffffffffffffffffffffffffffffffffffffff1673ffffffffffffffffffffffffffffffffffffffff166348fd09f56118d485612ab5565b6040518263ffffffff1660e01b81526004016118f0919061499a565b60206040518083038186803b15801561190857600080fd5b505afa15801561191c573d6000803e3d6000fd5b505050506040513d601f19601f820116820180604052508101906119409190614096565b61197f576040517f08c379a000000000000000000000000000000000000000000000000000000000815260040161197690614b6b565b60405180910390fd5b600660008573ffffffffffffffffffffffffffffffffffffffff1673ffffffffffffffffffffffffffffffffffffffff16815260200190815260200160002060009054906101000a900460ff1615611bbe576000611a90600860009054906101000a900473ffffffffffffffffffffffffffffffffffffffff1673ffffffffffffffffffffffffffffffffffffffff1663d10424c7866040518263ffffffff1660e01b8152600401611a319190614dab565b60206040518083038186803b158015611a4957600080fd5b505afa158015611a5d573d6000803e3d6000fd5b505050506040513d601f19601f82011682018060405250810190611a8191906142c9565b8461209290919063ffffffff16565b9050611a9d868585612e38565b600860009054906101000a900473ffffffffffffffffffffffffffffffffffffffff1673ffffffffffffffffffffffffffffffffffffffff1663e21c8b59611ae486612ab5565b611aed86612ab5565b6040518363ffffffff1660e01b8152600401611b0a9291906149bc565b600060405180830381600087803b158015611b2457600080fd5b505af1158015611b38573d6000803e3d6000fd5b50505050611b69600460009054906101000a900473ffffffffffffffffffffffffffffffffffffffff16868361238d565b7f419b93ad2d194278adbe153d01aa6ad9b2ff2487d4ec47f0d2ee147eb74b005a8686611b9587612ab5565b611b9e87612ab5565b85604051611bb095949392919061483a565b60405180910390a150611bcc565b611bcb858585858561307f565b5b5050505050565b611bdb612804565b600073ffffffffffffffffffffffffffffffffffffffff168173ffffffffffffffffffffffffffffffffffffffff161415611c4b576040517f08c379a0000000000000000000000000000000000000000000000000000000008152600401611c4290614b8b565b60405180910390fd5b611c5481612882565b50565b6005544210611c9b576040517f08c379a0000000000000000000000000000000000000000000000000000000008152600401611c9290614bcb565b60405180910390fd5b611ca3612040565b8151835114611ce7576040517f08c379a0000000000000000000000000000000000000000000000000000000008152600401611cde90614ceb565b60405180910390fd5b6000600860009054906101000a900473ffffffffffffffffffffffffffffffffffffffff1673ffffffffffffffffffffffffffffffffffffffff166348fd09f5856040518263ffffffff1660e01b8152600401611d44919061499a565b60206040518083038186803b158015611d5c57600080fd5b505afa158015611d70573d6000803e3d6000fd5b505050506040513d601f19601f82011682018060405250810190611d949190614096565b611dd3576040517f08c379a0000000000000000000000000000000000000000000000000000000008152600401611dca90614b4b565b60405180910390fd5b60005b8451811015611ef757611ee2611ed3600860009054906101000a900473ffffffffffffffffffffffffffffffffffffffff1673ffffffffffffffffffffffffffffffffffffffff1663d10424c7888581518110611e3657611e35615182565b5b60200260200101516040518263ffffffff1660e01b8152600401611e5a9190614dab565b60206040518083038186803b158015611e7257600080fd5b505afa158015611e86573d6000803e3d6000fd5b505050506040513d601f19601f82011682018060405250810190611eaa91906142c9565b868481518110611ebd57611ebc615182565b5b602002602001015161209290919063ffffffff16565b836120a890919063ffffffff16565b91508080611eef9061510a565b915050611dd6565b50611f26600460009054906101000a900473ffffffffffffffffffffffffffffffffffffffff16333084612b2f565b600860009054906101000a900473ffffffffffffffffffffffffffffffffffffffff1673ffffffffffffffffffffffffffffffffffffffff1663f600d9f485856040518363ffffffff1660e01b8152600401611f839291906149bc565b600060405180830381600087803b158015611f9d57600080fd5b505af1158015611fb1573d6000803e3d6000fd5b50505050611fd08285856040518060200160405280600081525061331b565b50505050565b60007f01ffc9a7000000000000000000000000000000000000000000000000000000007bffffffffffffffffffffffffffffffffffffffffffffffffffffffff1916827bffffffffffffffffffffffffffffffffffffffffffffffffffffffff1916149050919050565b612048610dc7565b15612088576040517f08c379a000000000000000000000000000000000000000000000000000000000815260040161207f90614c2b565b60405180910390fd5b565b600033905090565b600081836120a09190614fc9565b905092915050565b600081836120b69190614f73565b905092915050565b600073ffffffffffffffffffffffffffffffffffffffff168373ffffffffffffffffffffffffffffffffffffffff16141561212e576040517f08c379a000000000000000000000000000000000000000000000000000000000815260040161212590614c6b565b60405180910390fd5b8051825114612172576040517f08c379a000000000000000000000000000000000000000000000000000000000815260040161216990614d4b565b60405180910390fd5b600061217c61208a565b905061219c81856000868660405180602001604052806000815250613548565b60005b83518110156122e95760008482815181106121bd576121bc615182565b5b6020026020010151905060008483815181106121dc576121db615182565b5b60200260200101519050600080600084815260200190815260200160002060008973ffffffffffffffffffffffffffffffffffffffff1673ffffffffffffffffffffffffffffffffffffffff1681526020019081526020016000205490508181101561227d576040517f08c379a000000000000000000000000000000000000000000000000000000000815260040161227490614bab565b60405180910390fd5b81810360008085815260200190815260200160002060008a73ffffffffffffffffffffffffffffffffffffffff1673ffffffffffffffffffffffffffffffffffffffff1681526020019081526020016000208190555050505080806122e19061510a565b91505061219f565b50600073ffffffffffffffffffffffffffffffffffffffff168473ffffffffffffffffffffffffffffffffffffffff168273ffffffffffffffffffffffffffffffffffffffff167f4a39dc06d4c0dbc64b70af90fd698a233a518aa5d07e595d983b8c0526c8f7fb86866040516123619291906149bc565b60405180910390a461238781856000868660405180602001604052806000815250613550565b50505050565b6000808473ffffffffffffffffffffffffffffffffffffffff1663a9059cbb60e01b85856040516024016123c292919061492c565b604051602081830303815290604052907bffffffffffffffffffffffffffffffffffffffffffffffffffffffff19166020820180517bffffffffffffffffffffffffffffffffffffffffffffffffffffffff838183161783525050505060405161242c91906147a0565b6000604051808303816000865af19150503d8060008114612469576040519150601f19603f3d011682016040523d82523d6000602084013e61246e565b606091505b509150915081801561249c575060008151148061249b57508080602001905181019061249a9190614096565b5b5b6124db576040517f08c379a00000000000000000000000000000000000000000000000000000000081526004016124d290614d8b565b60405180910390fd5b5050505050565b8151835114612526576040517f08c379a000000000000000000000000000000000000000000000000000000000815260040161251d90614d4b565b60405180910390fd5b600073ffffffffffffffffffffffffffffffffffffffff168473ffffffffffffffffffffffffffffffffffffffff161415612596576040517f08c379a000000000000000000000000000000000000000000000000000000000815260040161258d90614c4b565b60405180910390fd5b60006125a061208a565b90506125b0818787878787613548565b60005b84518110156127615760008582815181106125d1576125d0615182565b5b6020026020010151905060008583815181106125f0576125ef615182565b5b60200260200101519050600080600084815260200190815260200160002060008b73ffffffffffffffffffffffffffffffffffffffff1673ffffffffffffffffffffffffffffffffffffffff16815260200190815260200160002054905081811015612691576040517f08c379a000000000000000000000000000000000000000000000000000000000815260040161268890614c8b565b60405180910390fd5b81810360008085815260200190815260200160002060008c73ffffffffffffffffffffffffffffffffffffffff1673ffffffffffffffffffffffffffffffffffffffff168152602001908152602001600020819055508160008085815260200190815260200160002060008b73ffffffffffffffffffffffffffffffffffffffff1673ffffffffffffffffffffffffffffffffffffffff16815260200190815260200160002060008282546127469190614f73565b925050819055505050508061275a9061510a565b90506125b3565b508473ffffffffffffffffffffffffffffffffffffffff168673ffffffffffffffffffffffffffffffffffffffff168273ffffffffffffffffffffffffffffffffffffffff167f4a39dc06d4c0dbc64b70af90fd698a233a518aa5d07e595d983b8c0526c8f7fb87876040516127d89291906149bc565b60405180910390a46127ee818787878787613550565b6127fc818787878787613558565b505050505050565b61280c61208a565b73ffffffffffffffffffffffffffffffffffffffff1661282a6111aa565b73ffffffffffffffffffffffffffffffffffffffff1614612880576040517f08c379a000000000000000000000000000000000000000000000000000000000815260040161287790614ccb565b60405180910390fd5b565b6000600360009054906101000a900473ffffffffffffffffffffffffffffffffffffffff16905081600360006101000a81548173ffffffffffffffffffffffffffffffffffffffff021916908373ffffffffffffffffffffffffffffffffffffffff1602179055508173ffffffffffffffffffffffffffffffffffffffff168173ffffffffffffffffffffffffffffffffffffffff167f8be0079c531659141344cd1fd0a4f28419497f9722a3daafe3b4186f6b6457e060405160405180910390a35050565b8173ffffffffffffffffffffffffffffffffffffffff168373ffffffffffffffffffffffffffffffffffffffff1614156129b7576040517f08c379a00000000000000000000000000000000000000000000000000000000081526004016129ae90614d0b565b60405180910390fd5b80600160008573ffffffffffffffffffffffffffffffffffffffff1673ffffffffffffffffffffffffffffffffffffffff16815260200190815260200160002060008473ffffffffffffffffffffffffffffffffffffffff1673ffffffffffffffffffffffffffffffffffffffff16815260200190815260200160002060006101000a81548160ff0219169083151502179055508173ffffffffffffffffffffffffffffffffffffffff168373ffffffffffffffffffffffffffffffffffffffff167f17307eab39ab6107e8899845ad3d59bd9653f200f220920489ca2b5937696c3183604051612aa891906149f3565b60405180910390a3505050565b60606000600167ffffffffffffffff811115612ad457612ad36151b1565b5b604051908082528060200260200182016040528015612b025781602001602082028036833780820191505090505b5090508281600081518110612b1a57612b19615182565b5b60200260200101818152505080915050919050565b6000808573ffffffffffffffffffffffffffffffffffffffff166323b872dd60e01b868686604051602401612b669392919061489b565b604051602081830303815290604052907bffffffffffffffffffffffffffffffffffffffffffffffffffffffff19166020820180517bffffffffffffffffffffffffffffffffffffffffffffffffffffffff8381831617835250505050604051612bd091906147a0565b6000604051808303816000865af19150503d8060008114612c0d576040519150601f19603f3d011682016040523d82523d6000602084013e612c12565b606091505b5091509150818015612c405750600081511480612c3f575080806020019051810190612c3e9190614096565b5b5b612c7f576040517f08c379a0000000000000000000000000000000000000000000000000000000008152600401612c7690614c0b565b60405180910390fd5b505050505050565b600073ffffffffffffffffffffffffffffffffffffffff168473ffffffffffffffffffffffffffffffffffffffff161415612cf7576040517f08c379a0000000000000000000000000000000000000000000000000000000008152600401612cee90614d6b565b60405180910390fd5b6000612d0161208a565b90506000612d0e8561373f565b90506000612d1b8561373f565b9050612d2c83600089858589613548565b8460008088815260200190815260200160002060008973ffffffffffffffffffffffffffffffffffffffff1673ffffffffffffffffffffffffffffffffffffffff1681526020019081526020016000206000828254612d8b9190614f73565b925050819055508673ffffffffffffffffffffffffffffffffffffffff16600073ffffffffffffffffffffffffffffffffffffffff168473ffffffffffffffffffffffffffffffffffffffff167fc3d58168c5ae7397731d063d5bbf3d657854427343f4c083240f7aacaa2d0f628989604051612e09929190614def565b60405180910390a4612e2083600089858589613550565b612e2f836000898989896137b9565b50505050505050565b600073ffffffffffffffffffffffffffffffffffffffff168373ffffffffffffffffffffffffffffffffffffffff161415612ea8576040517f08c379a0000000000000000000000000000000000000000000000000000000008152600401612e9f90614c6b565b60405180910390fd5b6000612eb261208a565b90506000612ebf8461373f565b90506000612ecc8461373f565b9050612eec83876000858560405180602001604052806000815250613548565b600080600087815260200190815260200160002060008873ffffffffffffffffffffffffffffffffffffffff1673ffffffffffffffffffffffffffffffffffffffff16815260200190815260200160002054905084811015612f83576040517f08c379a0000000000000000000000000000000000000000000000000000000008152600401612f7a90614bab565b60405180910390fd5b84810360008088815260200190815260200160002060008973ffffffffffffffffffffffffffffffffffffffff1673ffffffffffffffffffffffffffffffffffffffff16815260200190815260200160002081905550600073ffffffffffffffffffffffffffffffffffffffff168773ffffffffffffffffffffffffffffffffffffffff168573ffffffffffffffffffffffffffffffffffffffff167fc3d58168c5ae7397731d063d5bbf3d657854427343f4c083240f7aacaa2d0f628989604051613050929190614def565b60405180910390a461307684886000868660405180602001604052806000815250613550565b50505050505050565b600073ffffffffffffffffffffffffffffffffffffffff168473ffffffffffffffffffffffffffffffffffffffff1614156130ef576040517f08c379a00000000000000000000000000000000000000000000000000000000081526004016130e690614c4b565b60405180910390fd5b60006130f961208a565b905060006131068561373f565b905060006131138561373f565b9050613123838989858589613548565b600080600088815260200190815260200160002060008a73ffffffffffffffffffffffffffffffffffffffff1673ffffffffffffffffffffffffffffffffffffffff168152602001908152602001600020549050858110156131ba576040517f08c379a00000000000000000000000000000000000000000000000000000000081526004016131b190614c8b565b60405180910390fd5b85810360008089815260200190815260200160002060008b73ffffffffffffffffffffffffffffffffffffffff1673ffffffffffffffffffffffffffffffffffffffff168152602001908152602001600020819055508560008089815260200190815260200160002060008a73ffffffffffffffffffffffffffffffffffffffff1673ffffffffffffffffffffffffffffffffffffffff168152602001908152602001600020600082825461326f9190614f73565b925050819055508773ffffffffffffffffffffffffffffffffffffffff168973ffffffffffffffffffffffffffffffffffffffff168573ffffffffffffffffffffffffffffffffffffffff167fc3d58168c5ae7397731d063d5bbf3d657854427343f4c083240f7aacaa2d0f628a8a6040516132ec929190614def565b60405180910390a4613302848a8a86868a613550565b613310848a8a8a8a8a6137b9565b505050505050505050565b600073ffffffffffffffffffffffffffffffffffffffff168473ffffffffffffffffffffffffffffffffffffffff16141561338b576040517f08c379a000000000000000000000000000000000000000000000000000000000815260040161338290614d6b565b60405180910390fd5b81518351146133cf576040517f08c379a00000000000000000000000000000000000000000000000000000000081526004016133c690614d4b565b60405180910390fd5b60006133d961208a565b90506133ea81600087878787613548565b60005b84518110156134a35783818151811061340957613408615182565b5b602002602001015160008087848151811061342757613426615182565b5b6020026020010151815260200190815260200160002060008873ffffffffffffffffffffffffffffffffffffffff1673ffffffffffffffffffffffffffffffffffffffff16815260200190815260200160002060008282546134899190614f73565b92505081905550808061349b9061510a565b9150506133ed565b508473ffffffffffffffffffffffffffffffffffffffff16600073ffffffffffffffffffffffffffffffffffffffff168273ffffffffffffffffffffffffffffffffffffffff167f4a39dc06d4c0dbc64b70af90fd698a233a518aa5d07e595d983b8c0526c8f7fb878760405161351b9291906149bc565b60405180910390a461353281600087878787613550565b61354181600087878787613558565b5050505050565b505050505050565b505050505050565b6135778473ffffffffffffffffffffffffffffffffffffffff166139a0565b15613737578373ffffffffffffffffffffffffffffffffffffffff1663bc197c8187878686866040518663ffffffff1660e01b81526004016135bd9594939291906147d2565b602060405180830381600087803b1580156135d757600080fd5b505af192505050801561360857506040513d601f19601f8201168201806040525081019061360591906140f0565b60015b6136ae576136146151e0565b806308c379a014156136715750613629615845565b806136345750613673565b806040517f08c379a00000000000000000000000000000000000000000000000000000000081526004016136689190614a0e565b60405180910390fd5b505b6040517f08c379a00000000000000000000000000000000000000000000000000000000081526004016136a590614aeb565b60405180910390fd5b63bc197c8160e01b7bffffffffffffffffffffffffffffffffffffffffffffffffffffffff1916817bffffffffffffffffffffffffffffffffffffffffffffffffffffffff191614613735576040517f08c379a000000000000000000000000000000000000000000000000000000000815260040161372c90614b2b565b60405180910390fd5b505b505050505050565b60606000600167ffffffffffffffff81111561375e5761375d6151b1565b5b60405190808252806020026020018201604052801561378c5781602001602082028036833780820191505090505b50905082816000815181106137a4576137a3615182565b5b60200260200101818152505080915050919050565b6137d88473ffffffffffffffffffffffffffffffffffffffff166139a0565b15613998578373ffffffffffffffffffffffffffffffffffffffff1663f23a6e6187878686866040518663ffffffff1660e01b815260040161381e9594939291906148d2565b602060405180830381600087803b15801561383857600080fd5b505af192505050801561386957506040513d601f19601f8201168201806040525081019061386691906140f0565b60015b61390f576138756151e0565b806308c379a014156138d2575061388a615845565b8061389557506138d4565b806040517f08c379a00000000000000000000000000000000000000000000000000000000081526004016138c99190614a0e565b60405180910390fd5b505b6040517f08c379a000000000000000000000000000000000000000000000000000000000815260040161390690614aeb565b60405180910390fd5b63f23a6e6160e01b7bffffffffffffffffffffffffffffffffffffffffffffffffffffffff1916817bffffffffffffffffffffffffffffffffffffffffffffffffffffffff191614613996576040517f08c379a000000000000000000000000000000000000000000000000000000000815260040161398d90614b2b565b60405180910390fd5b505b505050505050565b6000808273ffffffffffffffffffffffffffffffffffffffff163b119050919050565b60006139d66139d184614e3d565b614e18565b905080838252602082019050828560208602820111156139f9576139f8615207565b5b60005b85811015613a295781613a0f8882613b69565b8452602084019350602083019250506001810190506139fc565b5050509392505050565b6000613a46613a4184614e69565b614e18565b90508083825260208201905082856020860282011115613a6957613a68615207565b5b60005b85811015613a995781613a7f8882613ccd565b845260208401935060208301925050600181019050613a6c565b5050509392505050565b6000613ab6613ab184614e95565b614e18565b905082815260208101848484011115613ad257613ad161520c565b5b613add848285615097565b509392505050565b6000613af8613af384614ec6565b614e18565b905082815260208101848484011115613b1457613b1361520c565b5b613b1f848285615097565b509392505050565b6000613b3a613b3584614ec6565b614e18565b905082815260208101848484011115613b5657613b5561520c565b5b613b618482856150a6565b509392505050565b600081359050613b78816158db565b92915050565b600081519050613b8d816158db565b92915050565b600082601f830112613ba857613ba7615202565b5b8135613bb88482602086016139c3565b91505092915050565b600082601f830112613bd657613bd5615202565b5b8135613be6848260208601613a33565b91505092915050565b600081359050613bfe816158f2565b92915050565b600081519050613c13816158f2565b92915050565b600081359050613c2881615909565b92915050565b600081519050613c3d81615909565b92915050565b600082601f830112613c5857613c57615202565b5b8135613c68848260208601613aa3565b91505092915050565b600082601f830112613c8657613c85615202565b5b8135613c96848260208601613ae5565b91505092915050565b600082601f830112613cb457613cb3615202565b5b8151613cc4848260208601613b27565b91505092915050565b600081359050613cdc81615920565b92915050565b600081519050613cf181615920565b92915050565b600060208284031215613d0d57613d0c615216565b5b6000613d1b84828501613b69565b91505092915050565b60008060408385031215613d3b57613d3a615216565b5b6000613d4985828601613b69565b9250506020613d5a85828601613b69565b9150509250929050565b600080600080600060a08688031215613d8057613d7f615216565b5b6000613d8e88828901613b69565b9550506020613d9f88828901613b69565b945050604086013567ffffffffffffffff811115613dc057613dbf615211565b5b613dcc88828901613bc1565b935050606086013567ffffffffffffffff811115613ded57613dec615211565b5b613df988828901613bc1565b925050608086013567ffffffffffffffff811115613e1a57613e19615211565b5b613e2688828901613c43565b9150509295509295909350565b600080600080600060a08688031215613e4f57613e4e615216565b5b6000613e5d88828901613b69565b9550506020613e6e88828901613b69565b9450506040613e7f88828901613ccd565b9350506060613e9088828901613ccd565b925050608086013567ffffffffffffffff811115613eb157613eb0615211565b5b613ebd88828901613c43565b9150509295509295909350565b60008060408385031215613ee157613ee0615216565b5b6000613eef85828601613b69565b9250506020613f0085828601613bef565b9150509250929050565b60008060408385031215613f2157613f20615216565b5b6000613f2f85828601613b69565b9250506020613f4085828601613ccd565b9150509250929050565b600060208284031215613f6057613f5f615216565b5b600082013567ffffffffffffffff811115613f7e57613f7d615211565b5b613f8a84828501613b93565b91505092915050565b60008060408385031215613faa57613fa9615216565b5b600083013567ffffffffffffffff811115613fc857613fc7615211565b5b613fd485828601613b93565b925050602083013567ffffffffffffffff811115613ff557613ff4615211565b5b61400185828601613bc1565b9150509250929050565b60008060006060848603121561402457614023615216565b5b600084013567ffffffffffffffff81111561404257614041615211565b5b61404e86828701613bc1565b935050602084013567ffffffffffffffff81111561406f5761406e615211565b5b61407b86828701613bc1565b925050604061408c86828701613b69565b9150509250925092565b6000602082840312156140ac576140ab615216565b5b60006140ba84828501613c04565b91505092915050565b6000602082840312156140d9576140d8615216565b5b60006140e784828501613c19565b91505092915050565b60006020828403121561410657614105615216565b5b600061411484828501613c2e565b91505092915050565b60006020828403121561413357614132615216565b5b600082015167ffffffffffffffff81111561415157614150615211565b5b61415d84828501613c9f565b91505092915050565b600080600080608085870312156141805761417f615216565b5b600085015167ffffffffffffffff81111561419e5761419d615211565b5b6141aa87828801613c9f565b94505060206141bb87828801613ce2565b93505060406141cc87828801613ce2565b92505060606141dd87828801613b7e565b91505092959194509250565b600080600080600060a0868803121561420557614204615216565b5b600086013567ffffffffffffffff81111561422357614222615211565b5b61422f88828901613c71565b955050602061424088828901613ccd565b945050604061425188828901613ccd565b935050606061426288828901613b69565b925050608086013567ffffffffffffffff81111561428357614282615211565b5b61428f88828901613c71565b9150509295509295909350565b6000602082840312156142b2576142b1615216565b5b60006142c084828501613ccd565b91505092915050565b6000602082840312156142df576142de615216565b5b60006142ed84828501613ce2565b91505092915050565b60008060006060848603121561430f5761430e615216565b5b600061431d86828701613ccd565b935050602061432e86828701613ccd565b925050604061433f86828701613b69565b9150509250925092565b60006143558383614782565b60208301905092915050565b61436a81615023565b82525050565b600061437b82614f07565b6143858185614f35565b935061439083614ef7565b8060005b838110156143c15781516143a88882614349565b97506143b383614f28565b925050600181019050614394565b5085935050505092915050565b6143d781615035565b82525050565b60006143e882614f12565b6143f28185614f46565b93506144028185602086016150a6565b61440b8161521b565b840191505092915050565b600061442182614f12565b61442b8185614f57565b935061443b8185602086016150a6565b80840191505092915050565b600061445282614f1d565b61445c8185614f62565b935061446c8185602086016150a6565b6144758161521b565b840191505092915050565b600061448d603483614f62565b915061449882615239565b604082019050919050565b60006144b0602f83614f62565b91506144bb82615288565b604082019050919050565b60006144d3602883614f62565b91506144de826152d7565b604082019050919050565b60006144f6602183614f62565b915061450182615326565b604082019050919050565b6000614519601e83614f62565b915061452482615375565b602082019050919050565b600061453c602683614f62565b91506145478261539e565b604082019050919050565b600061455f602483614f62565b915061456a826153ed565b604082019050919050565b6000614582601883614f62565b915061458d8261543c565b602082019050919050565b60006145a5602a83614f62565b91506145b082615465565b604082019050919050565b60006145c8602683614f62565b91506145d3826154b4565b604082019050919050565b60006145eb601083614f62565b91506145f682615503565b602082019050919050565b600061460e602583614f62565b91506146198261552c565b604082019050919050565b6000614631602383614f62565b915061463c8261557b565b604082019050919050565b6000614654602a83614f62565b915061465f826155ca565b604082019050919050565b6000614677602583614f62565b915061468282615619565b604082019050919050565b600061469a602083614f62565b91506146a582615668565b602082019050919050565b60006146bd602083614f62565b91506146c882615691565b602082019050919050565b60006146e0602983614f62565b91506146eb826156ba565b604082019050919050565b6000614703602983614f62565b915061470e82615709565b604082019050919050565b6000614726602883614f62565b915061473182615758565b604082019050919050565b6000614749602183614f62565b9150614754826157a7565b604082019050919050565b600061476c602783614f62565b9150614777826157f6565b604082019050919050565b61478b8161508d565b82525050565b61479a8161508d565b82525050565b60006147ac8284614416565b915081905092915050565b60006020820190506147cc6000830184614361565b92915050565b600060a0820190506147e76000830188614361565b6147f46020830187614361565b81810360408301526148068186614370565b9050818103606083015261481a8185614370565b9050818103608083015261482e81846143dd565b90509695505050505050565b600060a08201905061484f6000830188614361565b61485c6020830187614361565b818103604083015261486e8186614370565b905081810360608301526148828185614370565b90506148916080830184614791565b9695505050505050565b60006060820190506148b06000830186614361565b6148bd6020830185614361565b6148ca6040830184614791565b949350505050565b600060a0820190506148e76000830188614361565b6148f46020830187614361565b6149016040830186614791565b61490e6060830185614791565b818103608083015261492081846143dd565b90509695505050505050565b60006040820190506149416000830185614361565b61494e6020830184614791565b9392505050565b600060808201905061496a6000830187614361565b6149776020830186614791565b6149846040830185614361565b6149916060830184614791565b95945050505050565b600060208201905081810360008301526149b48184614370565b905092915050565b600060408201905081810360008301526149d68185614370565b905081810360208301526149ea8184614370565b90509392505050565b6000602082019050614a0860008301846143ce565b92915050565b60006020820190508181036000830152614a288184614447565b905092915050565b60006080820190508181036000830152614a4a8187614447565b9050614a596020830186614791565b614a666040830185614791565b614a736060830184614361565b95945050505050565b600060c0820190508181036000830152614a968189614447565b9050614aa56020830188614791565b614ab26040830187614791565b614abf6060830186614361565b8181036080830152614ad18185614447565b9050614ae060a0830184614791565b979650505050505050565b60006020820190508181036000830152614b0481614480565b9050919050565b60006020820190508181036000830152614b24816144a3565b9050919050565b60006020820190508181036000830152614b44816144c6565b9050919050565b60006020820190508181036000830152614b64816144e9565b9050919050565b60006020820190508181036000830152614b848161450c565b9050919050565b60006020820190508181036000830152614ba48161452f565b9050919050565b60006020820190508181036000830152614bc481614552565b9050919050565b60006020820190508181036000830152614be481614575565b9050919050565b60006020820190508181036000830152614c0481614598565b9050919050565b60006020820190508181036000830152614c24816145bb565b9050919050565b60006020820190508181036000830152614c44816145de565b9050919050565b60006020820190508181036000830152614c6481614601565b9050919050565b60006020820190508181036000830152614c8481614624565b9050919050565b60006020820190508181036000830152614ca481614647565b9050919050565b60006020820190508181036000830152614cc48161466a565b9050919050565b60006020820190508181036000830152614ce48161468d565b9050919050565b60006020820190508181036000830152614d04816146b0565b9050919050565b60006020820190508181036000830152614d24816146d3565b9050919050565b60006020820190508181036000830152614d44816146f6565b9050919050565b60006020820190508181036000830152614d6481614719565b9050919050565b60006020820190508181036000830152614d848161473c565b9050919050565b60006020820190508181036000830152614da48161475f565b9050919050565b6000602082019050614dc06000830184614791565b92915050565b6000604082019050614ddb6000830185614791565b614de86020830184614361565b9392505050565b6000604082019050614e046000830185614791565b614e116020830184614791565b9392505050565b6000614e22614e33565b9050614e2e82826150d9565b919050565b6000604051905090565b600067ffffffffffffffff821115614e5857614e576151b1565b5b602082029050602081019050919050565b600067ffffffffffffffff821115614e8457614e836151b1565b5b602082029050602081019050919050565b600067ffffffffffffffff821115614eb057614eaf6151b1565b5b614eb98261521b565b9050602081019050919050565b600067ffffffffffffffff821115614ee157614ee06151b1565b5b614eea8261521b565b9050602081019050919050565b6000819050602082019050919050565b600081519050919050565b600081519050919050565b600081519050919050565b6000602082019050919050565b600082825260208201905092915050565b600082825260208201905092915050565b600081905092915050565b600082825260208201905092915050565b6000614f7e8261508d565b9150614f898361508d565b9250827fffffffffffffffffffffffffffffffffffffffffffffffffffffffffffffffff03821115614fbe57614fbd615153565b5b828201905092915050565b6000614fd48261508d565b9150614fdf8361508d565b9250817fffffffffffffffffffffffffffffffffffffffffffffffffffffffffffffffff048311821515161561501857615017615153565b5b828202905092915050565b600061502e8261506d565b9050919050565b60008115159050919050565b60007fffffffff0000000000000000000000000000000000000000000000000000000082169050919050565b600073ffffffffffffffffffffffffffffffffffffffff82169050919050565b6000819050919050565b82818337600083830152505050565b60005b838110156150c45780820151818401526020810190506150a9565b838111156150d3576000848401525b50505050565b6150e28261521b565b810181811067ffffffffffffffff82111715615101576151006151b1565b5b80604052505050565b60006151158261508d565b91507fffffffffffffffffffffffffffffffffffffffffffffffffffffffffffffffff82141561514857615147615153565b5b600182019050919050565b7f4e487b7100000000000000000000000000000000000000000000000000000000600052601160045260246000fd5b7f4e487b7100000000000000000000000000000000000000000000000000000000600052603260045260246000fd5b7f4e487b7100000000000000000000000000000000000000000000000000000000600052604160045260246000fd5b600060033d11156151ff5760046000803e6151fc60005161522c565b90505b90565b600080fd5b600080fd5b600080fd5b600080fd5b600080fd5b6000601f19601f8301169050919050565b60008160e01c9050919050565b7f455243313135353a207472616e7366657220746f206e6f6e204552433131353560008201527f526563656976657220696d706c656d656e746572000000000000000000000000602082015250565b7f455243313135353a2063616c6c6572206973206e6f7420746f6b656e206f776e60008201527f6572206e6f7220617070726f7665640000000000000000000000000000000000602082015250565b7f455243313135353a204552433131353552656365697665722072656a6563746560008201527f6420746f6b656e73000000000000000000000000000000000000000000000000602082015250565b7f50424d3a20496e76616c696420746f6b656e2069642873292070726f7669646560008201527f6400000000000000000000000000000000000000000000000000000000000000602082015250565b7f50424d3a20496e76616c696420746f6b656e2069642070726f76696465640000600082015250565b7f4f776e61626c653a206e6577206f776e657220697320746865207a65726f206160008201527f6464726573730000000000000000000000000000000000000000000000000000602082015250565b7f455243313135353a206275726e20616d6f756e7420657863656564732062616c60008201527f616e636500000000000000000000000000000000000000000000000000000000602082015250565b7f50424d3a20636f6e747261637420697320657870697265640000000000000000600082015250565b7f455243313135353a2061646472657373207a65726f206973206e6f742061207660008201527f616c6964206f776e657200000000000000000000000000000000000000000000602082015250565b7f45524332303a20496e737566666963656e742062616c616e6365206f7220617060008201527f70726f76616c0000000000000000000000000000000000000000000000000000602082015250565b7f5061757361626c653a2070617573656400000000000000000000000000000000600082015250565b7f455243313135353a207472616e7366657220746f20746865207a65726f20616460008201527f6472657373000000000000000000000000000000000000000000000000000000602082015250565b7f455243313135353a206275726e2066726f6d20746865207a65726f206164647260008201527f6573730000000000000000000000000000000000000000000000000000000000602082015250565b7f455243313135353a20696e73756666696369656e742062616c616e636520666f60008201527f72207472616e7366657200000000000000000000000000000000000000000000602082015250565b7f50424d203a206e657720657870697279206561726c696572207468616e20637560008201527f7272656e74000000000000000000000000000000000000000000000000000000602082015250565b7f4f776e61626c653a2063616c6c6572206973206e6f7420746865206f776e6572600082015250565b7f556e657175616c2069647320616e6420616d6f756e747320737570706c696564600082015250565b7f455243313135353a2073657474696e6720617070726f76616c2073746174757360008201527f20666f722073656c660000000000000000000000000000000000000000000000602082015250565b7f455243313135353a206163636f756e747320616e6420696473206c656e67746860008201527f206d69736d617463680000000000000000000000000000000000000000000000602082015250565b7f455243313135353a2069647320616e6420616d6f756e7473206c656e6774682060008201527f6d69736d61746368000000000000000000000000000000000000000000000000602082015250565b7f455243313135353a206d696e7420746f20746865207a65726f2061646472657360008201527f7300000000000000000000000000000000000000000000000000000000000000602082015250565b7f496e746572616374696f6e2077697468207468652073706f7420746f6b656e2060008201527f6661696c65642e00000000000000000000000000000000000000000000000000602082015250565b600060443d1015615855576158d8565b61585d614e33565b60043d036004823e80513d602482011167ffffffffffffffff821117156158855750506158d8565b808201805167ffffffffffffffff8111156158a357505050506158d8565b80602083010160043d0385018111156158c05750505050506158d8565b6158cf826020018501866150d9565b82955050505050505b90565b6158e481615023565b81146158ef57600080fd5b50565b6158fb81615035565b811461590657600080fd5b50565b61591281615041565b811461591d57600080fd5b50565b6159298161508d565b811461593457600080fd5b5056fea26469706673582212202da6404ee9ca97fca2d93d818f8fc0f9cfca2c96db205585f31e2d0e5df8980864736f6c6343000807003360a060405260006001553480156200001657600080fd5b50604051620020493803806200204983398181016040528101906200003c9190620002ad565b6200005c62000050620000b360201b60201c565b620000bb60201b60201c565b3073ffffffffffffffffffffffffffffffffffffffff1660808173ffffffffffffffffffffffffffffffffffffffff1660601b815250508060029080519060200190620000ab9291906200017f565b505062000482565b600033905090565b60008060009054906101000a900473ffffffffffffffffffffffffffffffffffffffff169050816000806101000a81548173ffffffffffffffffffffffffffffffffffffffff021916908373ffffffffffffffffffffffffffffffffffffffff1602179055508173ffffffffffffffffffffffffffffffffffffffff168173ffffffffffffffffffffffffffffffffffffffff167f8be0079c531659141344cd1fd0a4f28419497f9722a3daafe3b4186f6b6457e060405160405180910390a35050565b8280546200018d9062000393565b90600052602060002090601f016020900481019282620001b15760008555620001fd565b82601f10620001cc57805160ff1916838001178555620001fd565b82800160010185558215620001fd579182015b82811115620001fc578251825591602001919060010190620001df565b5b5090506200020c919062000210565b5090565b5b808211156200022b57600081600090555060010162000211565b5090565b600062000246620002408462000327565b620002fe565b90508281526020810184848401111562000265576200026462000462565b5b620002728482856200035d565b509392505050565b600082601f8301126200029257620002916200045d565b5b8151620002a48482602086016200022f565b91505092915050565b600060208284031215620002c657620002c56200046c565b5b600082015167ffffffffffffffff811115620002e757620002e662000467565b5b620002f5848285016200027a565b91505092915050565b60006200030a6200031d565b9050620003188282620003c9565b919050565b6000604051905090565b600067ffffffffffffffff8211156200034557620003446200042e565b5b620003508262000471565b9050602081019050919050565b60005b838110156200037d57808201518184015260208101905062000360565b838111156200038d576000848401525b50505050565b60006002820490506001821680620003ac57607f821691505b60208210811415620003c357620003c2620003ff565b5b50919050565b620003d48262000471565b810181811067ffffffffffffffff82111715620003f657620003f56200042e565b5b80604052505050565b7f4e487b7100000000000000000000000000000000000000000000000000000000600052602260045260246000fd5b7f4e487b7100000000000000000000000000000000000000000000000000000000600052604160045260246000fd5b600080fd5b600080fd5b600080fd5b600080fd5b6000601f19601f8301169050919050565b60805160601c611ba8620004a16000396000610cfa0152611ba86000f3fe608060405234801561001057600080fd5b50600436106100cf5760003560e01c80638da5cb5b1161008c578063d10424c711610066578063d10424c714610227578063e21c8b5914610257578063f2fde38b14610273578063f600d9f41461028f576100cf565b80638da5cb5b146101a6578063934689a9146101c4578063c1e03728146101f4576100cf565b80630e89341c146100d4578063234661c41461010457806336a3409c1461013457806348fd09f514610150578063715018a61461018057806380d69c8a1461018a575b600080fd5b6100ee60048036038101906100e99190611275565b6102ab565b6040516100fb91906114a5565b60405180910390f35b61011e60048036038101906101199190611275565b610403565b60405161012b91906115d3565b60405180910390f35b61014e600480360381019061014991906112a2565b610423565b005b61016a600480360381019061016591906110ef565b610511565b604051610177919061148a565b60405180910390f35b610188610589565b005b6101a4600480360381019061019f91906111b0565b61059d565b005b6101ae610812565b6040516101bb919061146f565b60405180910390f35b6101de60048036038101906101d99190611275565b61083b565b6040516101eb919061146f565b60405180910390f35b61020e60048036038101906102099190611275565b61087b565b60405161021e94939291906114c7565b60405180910390f35b610241600480360381019061023c9190611275565b610998565b60405161024e91906115d3565b60405180910390f35b610271600480360381019061026c9190611138565b6109b8565b005b61028d600480360381019061028891906110c2565b610a75565b005b6102a960048036038101906102a49190611138565b610af9565b005b60606003600083815260200190815260200160002060020154421061035c57600280546102d790611836565b80601f016020809104026020016040519081016040528092919081815260200182805461030390611836565b80156103505780601f1061032557610100808354040283529160200191610350565b820191906000526020600020905b81548152906001019060200180831161033357829003601f168201915b505050505090506103fe565b60036000838152602001908152602001600020600501805461037d90611836565b80601f01602080910402602001604051908101604052809291908181526020018280546103a990611836565b80156103f65780601f106103cb576101008083540402835291602001916103f6565b820191906000526020600020905b8154815290600101906020018083116103d957829003601f168201915b505050505090505b919050565b600060036000838152602001908152602001600020600401549050919050565b61042b610bb6565b6003600083815260200190815260200160002060030160009054906101000a900473ffffffffffffffffffffffffffffffffffffffff1673ffffffffffffffffffffffffffffffffffffffff168173ffffffffffffffffffffffffffffffffffffffff161480156104b2575060036000838152602001908152602001600020600201544210155b6104f1576040517f08c379a00000000000000000000000000000000000000000000000000000000081526004016104e890611513565b60405180910390fd5b600060036000848152602001908152602001600020600401819055505050565b600080600090505b825181101561057e57600360008281526020019081526020016000206002015442118061055c575060006003600083815260200190815260200160002060010154145b1561056b576000915050610584565b808061057690611899565b915050610519565b50600190505b919050565b610591610bb6565b61059b6000610c34565b565b6105a5610bb6565b6105ad610cf8565b808411156105f0576040517f08c379a00000000000000000000000000000000000000000000000000000000081526004016105e790611573565b60405180910390fd5b428411610632576040517f08c379a000000000000000000000000000000000000000000000000000000000815260040161062990611593565b60405180910390fd5b6000851415610676576040517f08c379a000000000000000000000000000000000000000000000000000000000815260040161066d906115b3565b60405180910390fd5b60008661068287610d52565b60405160200161069392919061144b565b60405160208183030381529060405290508060036000600154815260200190815260200160002060000190805190602001906106d0929190610ee7565b50856003600060015481526020019081526020016000206001018190555084600360006001548152602001908152602001600020600201819055508360036000600154815260200190815260200160002060030160006101000a81548173ffffffffffffffffffffffffffffffffffffffff021916908373ffffffffffffffffffffffffffffffffffffffff1602179055506000600360006001548152602001908152602001600020600401819055508260036000600154815260200190815260200160002060050190805190602001906107ac929190610ee7565b507fbbb805bf89819da42bb55052edd2bf6db1c2256ec4c19cf1607de95efc92762f600154828888886040516107e69594939291906115ee565b60405180910390a161080360018054610eb390919063ffffffff16565b60018190555050505050505050565b60008060009054906101000a900473ffffffffffffffffffffffffffffffffffffffff16905090565b60006003600083815260200190815260200160002060030160009054906101000a900473ffffffffffffffffffffffffffffffffffffffff169050919050565b6060600080600060036000868152602001908152602001600020600001600360008781526020019081526020016000206001015460036000888152602001908152602001600020600201546003600089815260200190815260200160002060030160009054906101000a900473ffffffffffffffffffffffffffffffffffffffff1683805461090990611836565b80601f016020809104026020016040519081016040528092919081815260200182805461093590611836565b80156109825780601f1061095757610100808354040283529160200191610982565b820191906000526020600020905b81548152906001019060200180831161096557829003601f168201915b5050505050935093509350935093509193509193565b600060036000838152602001908152602001600020600101549050919050565b6109c0610bb6565b60005b8251811015610a7057610a298282815181106109e2576109e16119a0565b5b602002602001015160036000868581518110610a0157610a006119a0565b5b6020026020010151815260200190815260200160002060040154610ec990919063ffffffff16565b60036000858481518110610a4057610a3f6119a0565b5b60200260200101518152602001908152602001600020600401819055508080610a6890611899565b9150506109c3565b505050565b610a7d610bb6565b600073ffffffffffffffffffffffffffffffffffffffff168173ffffffffffffffffffffffffffffffffffffffff161415610aed576040517f08c379a0000000000000000000000000000000000000000000000000000000008152600401610ae490611533565b60405180910390fd5b610af681610c34565b50565b610b01610bb6565b60005b8251811015610bb157610b6a828281518110610b2357610b226119a0565b5b602002602001015160036000868581518110610b4257610b416119a0565b5b6020026020010151815260200190815260200160002060040154610eb390919063ffffffff16565b60036000858481518110610b8157610b806119a0565b5b60200260200101518152602001908152602001600020600401819055508080610ba990611899565b915050610b04565b505050565b610bbe610edf565b73ffffffffffffffffffffffffffffffffffffffff16610bdc610812565b73ffffffffffffffffffffffffffffffffffffffff1614610c32576040517f08c379a0000000000000000000000000000000000000000000000000000000008152600401610c2990611553565b60405180910390fd5b565b60008060009054906101000a900473ffffffffffffffffffffffffffffffffffffffff169050816000806101000a81548173ffffffffffffffffffffffffffffffffffffffff021916908373ffffffffffffffffffffffffffffffffffffffff1602179055508173ffffffffffffffffffffffffffffffffffffffff168173ffffffffffffffffffffffffffffffffffffffff167f8be0079c531659141344cd1fd0a4f28419497f9722a3daafe3b4186f6b6457e060405160405180910390a35050565b7f000000000000000000000000000000000000000000000000000000000000000073ffffffffffffffffffffffffffffffffffffffff163073ffffffffffffffffffffffffffffffffffffffff1614610d5057600080fd5b565b60606000821415610d9a576040518060400160405280600181526020017f30000000000000000000000000000000000000000000000000000000000000008152509050610eae565b600082905060005b60008214610dcc578080610db590611899565b915050600a82610dc59190611747565b9150610da2565b60008167ffffffffffffffff811115610de857610de76119cf565b5b6040519080825280601f01601f191660200182016040528015610e1a5781602001600182028036833780820191505090505b5090505b60008514610ea757600182610e339190611778565b9150600a85610e4291906118e2565b6030610e4e91906116f1565b60f81b818381518110610e6457610e636119a0565b5b60200101907effffffffffffffffffffffffffffffffffffffffffffffffffffffffffffff1916908160001a905350600a85610ea09190611747565b9450610e1e565b8093505050505b919050565b60008183610ec191906116f1565b905092915050565b60008183610ed79190611778565b905092915050565b600033905090565b828054610ef390611836565b90600052602060002090601f016020900481019282610f155760008555610f5c565b82601f10610f2e57805160ff1916838001178555610f5c565b82800160010185558215610f5c579182015b82811115610f5b578251825591602001919060010190610f40565b5b509050610f699190610f6d565b5090565b5b80821115610f86576000816000905550600101610f6e565b5090565b6000610f9d610f988461166d565b611648565b90508083825260208201905082856020860282011115610fc057610fbf611a03565b5b60005b85811015610ff05781610fd688826110ad565b845260208401935060208301925050600181019050610fc3565b5050509392505050565b600061100d61100884611699565b611648565b90508281526020810184848401111561102957611028611a08565b5b6110348482856117f4565b509392505050565b60008135905061104b81611b44565b92915050565b600082601f830112611066576110656119fe565b5b8135611076848260208601610f8a565b91505092915050565b600082601f830112611094576110936119fe565b5b81356110a4848260208601610ffa565b91505092915050565b6000813590506110bc81611b5b565b92915050565b6000602082840312156110d8576110d7611a12565b5b60006110e68482850161103c565b91505092915050565b60006020828403121561110557611104611a12565b5b600082013567ffffffffffffffff81111561112357611122611a0d565b5b61112f84828501611051565b91505092915050565b6000806040838503121561114f5761114e611a12565b5b600083013567ffffffffffffffff81111561116d5761116c611a0d565b5b61117985828601611051565b925050602083013567ffffffffffffffff81111561119a57611199611a0d565b5b6111a685828601611051565b9150509250929050565b60008060008060008060c087890312156111cd576111cc611a12565b5b600087013567ffffffffffffffff8111156111eb576111ea611a0d565b5b6111f789828a0161107f565b965050602061120889828a016110ad565b955050604061121989828a016110ad565b945050606061122a89828a0161103c565b935050608087013567ffffffffffffffff81111561124b5761124a611a0d565b5b61125789828a0161107f565b92505060a061126889828a016110ad565b9150509295509295509295565b60006020828403121561128b5761128a611a12565b5b6000611299848285016110ad565b91505092915050565b600080604083850312156112b9576112b8611a12565b5b60006112c7858286016110ad565b92505060206112d88582860161103c565b9150509250929050565b6112eb816117ac565b82525050565b6112fa816117be565b82525050565b600061130b826116ca565b61131581856116d5565b9350611325818560208601611803565b61132e81611a17565b840191505092915050565b6000611344826116ca565b61134e81856116e6565b935061135e818560208601611803565b80840191505092915050565b60006113776011836116d5565b915061138282611a28565b602082019050919050565b600061139a6026836116d5565b91506113a582611a51565b604082019050919050565b60006113bd6020836116d5565b91506113c882611aa0565b602082019050919050565b60006113e06016836116d5565b91506113eb82611ac9565b602082019050919050565b60006114036016836116d5565b915061140e82611af2565b602082019050919050565b60006114266010836116d5565b915061143182611b1b565b602082019050919050565b611445816117ea565b82525050565b60006114578285611339565b91506114638284611339565b91508190509392505050565b600060208201905061148460008301846112e2565b92915050565b600060208201905061149f60008301846112f1565b92915050565b600060208201905081810360008301526114bf8184611300565b905092915050565b600060808201905081810360008301526114e18187611300565b90506114f0602083018661143c565b6114fd604083018561143c565b61150a60608301846112e2565b95945050505050565b6000602082019050818103600083015261152c8161136a565b9050919050565b6000602082019050818103600083015261154c8161138d565b9050919050565b6000602082019050818103600083015261156c816113b0565b9050919050565b6000602082019050818103600083015261158c816113d3565b9050919050565b600060208201905081810360008301526115ac816113f6565b9050919050565b600060208201905081810360008301526115cc81611419565b9050919050565b60006020820190506115e8600083018461143c565b92915050565b600060a082019050611603600083018861143c565b81810360208301526116158187611300565b9050611624604083018661143c565b611631606083018561143c565b61163e60808301846112e2565b9695505050505050565b6000611652611663565b905061165e8282611868565b919050565b6000604051905090565b600067ffffffffffffffff821115611688576116876119cf565b5b602082029050602081019050919050565b600067ffffffffffffffff8211156116b4576116b36119cf565b5b6116bd82611a17565b9050602081019050919050565b600081519050919050565b600082825260208201905092915050565b600081905092915050565b60006116fc826117ea565b9150611707836117ea565b9250827fffffffffffffffffffffffffffffffffffffffffffffffffffffffffffffffff0382111561173c5761173b611913565b5b828201905092915050565b6000611752826117ea565b915061175d836117ea565b92508261176d5761176c611942565b5b828204905092915050565b6000611783826117ea565b915061178e836117ea565b9250828210156117a1576117a0611913565b5b828203905092915050565b60006117b7826117ca565b9050919050565b60008115159050919050565b600073ffffffffffffffffffffffffffffffffffffffff82169050919050565b6000819050919050565b82818337600083830152505050565b60005b83811015611821578082015181840152602081019050611806565b83811115611830576000848401525b50505050565b6000600282049050600182168061184e57607f821691505b6020821081141561186257611861611971565b5b50919050565b61187182611a17565b810181811067ffffffffffffffff821117156118905761188f6119cf565b5b80604052505050565b60006118a4826117ea565b91507fffffffffffffffffffffffffffffffffffffffffffffffffffffffffffffffff8214156118d7576118d6611913565b5b600182019050919050565b60006118ed826117ea565b91506118f8836117ea565b92508261190857611907611942565b5b828206905092915050565b7f4e487b7100000000000000000000000000000000000000000000000000000000600052601160045260246000fd5b7f4e487b7100000000000000000000000000000000000000000000000000000000600052601260045260246000fd5b7f4e487b7100000000000000000000000000000000000000000000000000000000600052602260045260246000fd5b7f4e487b7100000000000000000000000000000000000000000000000000000000600052603260045260246000fd5b7f4e487b7100000000000000000000000000000000000000000000000000000000600052604160045260246000fd5b600080fd5b600080fd5b600080fd5b600080fd5b600080fd5b6000601f19601f8301169050919050565b7f50424d206e6f74207265766f6b61626c65000000000000000000000000000000600082015250565b7f4f776e61626c653a206e6577206f776e657220697320746865207a65726f206160008201527f6464726573730000000000000000000000000000000000000000000000000000602082015250565b7f4f776e61626c653a2063616c6c6572206973206e6f7420746865206f776e6572600082015250565b7f496e76616c696420746f6b656e206578706972792d3100000000000000000000600082015250565b7f496e76616c696420746f6b656e206578706972792d3200000000000000000000600082015250565b7f53706f7420616d6f756e74206973203000000000000000000000000000000000600082015250565b611b4d816117ac565b8114611b5857600080fd5b50565b611b64816117ea565b8114611b6f57600080fd5b5056fea2646970667358221220f3ed86d61f86b37e35eb5cb92d9223d675f309513c1946d7a65a3747c6886ea964736f6c63430008070033",
  "immutableReferences": {},
  "source": "// SPDX-License-Identifier: MIT\npragma solidity ^0.8.7;\n\nimport \"@openzeppelin/contracts/token/ERC1155/ERC1155.sol\";\nimport \"@openzeppelin/contracts/access/Ownable.sol\";\nimport \"@openzeppelin/contracts/utils/Strings.sol\";\nimport \"@openzeppelin/contracts/utils/math/SafeMath.sol\";\nimport \"@openzeppelin/contracts/security/Pausable.sol\";\n\nimport \"./ERC20Helper.sol\";  \nimport \"./PBMTokenManager.sol\"; \n\ncontract PBM is ERC1155, Ownable, Pausable {  \n    using Strings for uint256;\n    using SafeMath for uint256 ; \n\n    address public spotToken ; \n    uint256 public contractExpiry ; \n    mapping (address => bool) public merchantList ; \n\n    string private uriPostExpiry ; \n    address public pbmTokenManager; \n    \n    event merchantPayment(address from , address to, uint256[] tokenIds, uint256[] amounts, uint256 value); \n    event PBMrevokeWithdraw(address beneficiary, uint256 PBMTokenId, address ERC20Token, uint256 ERC20TokenValue);\n\n\n    constructor(address _spotToken, uint256 _expiry, string memory _uriPostExpiry) ERC1155(\"\") {\n        spotToken = _spotToken ;\n        contractExpiry = _expiry ; \n\n        pbmTokenManager = address(new PBMTokenManager(_uriPostExpiry)) ; \n    }\n\n    modifier whenContractNotExpired() {\n        require(block.timestamp < contractExpiry, \"PBM: contract is expired\");\n        _;\n    }\n    \n    function extendPBMExpiry(uint256 extendedExpiry)\n    external \n    onlyOwner\n    whenContractNotExpired\n    whenNotPaused\n    {   \n        require(extendedExpiry > contractExpiry, \"PBM : new expiry earlier than current\" ) ; \n        contractExpiry = extendedExpiry; \n    }\n\n    function addMerchantAddresses(address[] memory addresses) \n    external\n    whenContractNotExpired\n    onlyOwner {\n        for (uint256 i = 0; i < addresses.length; i++) {\n            merchantList[addresses[i]] = true;\n        }\n    }  \n\n    function removeMerchantAddresses(address[] memory addresses) \n    external \n    whenContractNotExpired\n    onlyOwner\n    {\n        for (uint256 i = 0; i < addresses.length; i++) {\n            merchantList[addresses[i]] = false;\n        } \n    }\n\n    function createPBMTokenType(string memory companyName, uint256 spotAmount, uint256 tokenExpiry,address creator, string memory tokenURI) \n    external \n    onlyOwner \n    whenContractNotExpired\n    whenNotPaused\n    {        \n        PBMTokenManager(pbmTokenManager).createTokenType(companyName, spotAmount, tokenExpiry, creator,  tokenURI, contractExpiry);\n    }\n\n    function mint(uint256 tokenId, uint256 amount, address receiver) \n    external  \n    whenContractNotExpired\n    whenNotPaused\n    {\n        require(PBMTokenManager(pbmTokenManager).areTokensValid(serialise(tokenId)), \"PBM: Invalid token id provided\");\n        uint256 valueOfNewTokens = amount.mul(PBMTokenManager(pbmTokenManager).getTokenValue(tokenId)); \n\n        //Transfer the spot token from the user to the contract to wrap it\n        ERC20Helper.safeTransferFrom(spotToken, msg.sender, address(this), valueOfNewTokens);\n\n        // mint the token if the contract - wrapping the xsgd\n        PBMTokenManager(pbmTokenManager).increaseBalanceSupply(serialise(tokenId), serialise(amount)) ; \n        _mint(receiver, tokenId, amount, ''); \n    }\n\n    function batchMint(uint256[] memory tokenIds, uint256[] memory amounts, address receiver) \n    external \n    whenContractNotExpired\n    whenNotPaused\n    {   \n        require(tokenIds.length == amounts.length, \"Unequal ids and amounts supplied\"); \n\n        // calculate the value of the new tokens\n        uint256 valueOfNewTokens = 0 ; \n        require(PBMTokenManager(pbmTokenManager).areTokensValid(tokenIds), \"PBM: Invalid token id(s) provided\");\n\n        for (uint256 i = 0; i < tokenIds.length; i++) {\n            valueOfNewTokens = valueOfNewTokens.add(amounts[i].mul(PBMTokenManager(pbmTokenManager).getTokenValue(tokenIds[i])));  \n        } \n\n        // Transfer spot tokenf from user to contract to wrap it\n        ERC20Helper.safeTransferFrom(spotToken, msg.sender, address(this), valueOfNewTokens);\n        PBMTokenManager(pbmTokenManager).increaseBalanceSupply(tokenIds, amounts);\n        _mintBatch(receiver, tokenIds, amounts, '');\n    }\n\n    function safeTransferFrom( address from, address to, uint256 id, uint256 amount, bytes memory data) \n    public   \n    override\n    whenContractNotExpired\n    whenNotPaused  \n    {\n        require(\n            from == _msgSender() || isApprovedForAll(from, _msgSender()),\n            \"ERC1155: caller is not token owner nor approved\"\n        );\n\n        require(PBMTokenManager(pbmTokenManager).areTokensValid(serialise(id)), \"PBM: Invalid token id provided\");\n\n        if (merchantList[to]){\n            uint256 valueOfTokens = amount.mul(PBMTokenManager(pbmTokenManager).getTokenValue(id)); \n\n            // burn and transfer underlying ERC-20\n            _burn(from, id, amount);\n            PBMTokenManager(pbmTokenManager).decreaseBalanceSupply(serialise(id), serialise(amount)) ; \n            ERC20Helper.safeTransfer(spotToken, to, valueOfTokens);\n            emit merchantPayment(from, to, serialise(id), serialise(amount), valueOfTokens);\n\n        } else {\n            _safeTransferFrom(from, to, id, amount, data);\n        }\n \n    }\n    \n    function safeBatchTransferFrom(address from,address to,uint256[] memory ids,uint256[] memory amounts, bytes memory data) \n    public  \n    override\n    whenContractNotExpired\n    whenNotPaused \n    {\n        require(\n            from == _msgSender() || isApprovedForAll(from, _msgSender()),\n            \"ERC1155: caller is not token owner nor approved\"\n        );\n        require(ids.length == amounts.length, \"Unequal ids and amounts supplied\"); \n        require(PBMTokenManager(pbmTokenManager).areTokensValid(ids), \"PBM: Invalid token id(s) provided\");\n\n        if (merchantList[to]){\n            uint256 valueOfTokens = 0 ; \n            for (uint256 i = 0; i < ids.length; i++) {\n                valueOfTokens = valueOfTokens.add(amounts[i].mul(PBMTokenManager(pbmTokenManager).getTokenValue(ids[i]))) ; \n            } \n\n            _burnBatch(from, ids, amounts);\n            PBMTokenManager(pbmTokenManager).decreaseBalanceSupply(ids, amounts);\n            ERC20Helper.safeTransfer(spotToken, to, valueOfTokens);\n\n            emit merchantPayment(from, to, ids, amounts, valueOfTokens);\n\n        } else {\n            _safeBatchTransferFrom(from, to, ids, amounts, data);\n        }\n    }\n    \n    function revokePBM(uint256 tokenId) \n    external \n    whenNotPaused \n    {\n        uint256 PBMTokenBalanceSupply = PBMTokenManager(pbmTokenManager).getTokenCount(tokenId); \n        uint256 valueOfTokens = PBMTokenBalanceSupply.mul(PBMTokenManager(pbmTokenManager).getTokenValue(tokenId)); \n\n        PBMTokenManager(pbmTokenManager).revokePBM(tokenId, msg.sender); \n\n        // transfering underlying ERC20 tokens\n        ERC20Helper.safeTransfer(spotToken, msg.sender, valueOfTokens);\n\n        emit PBMrevokeWithdraw(msg.sender, tokenId, spotToken, valueOfTokens);\n\n    }\n\n    function getTokenDetails(uint256 tokenId) \n    external \n    view \n    returns (string memory, uint256, uint256, address) \n    {\n        return PBMTokenManager(pbmTokenManager).getTokenDetails(tokenId); \n    }\n\n    function uri(uint256 tokenId)\n    public  \n    view\n    override(ERC1155)\n    returns (string memory)\n    {\n        return PBMTokenManager(pbmTokenManager).uri(tokenId);\n    }\n\n    function serialise(uint256 num)\n    internal \n    pure\n    returns (uint256[] memory) {\n        uint256[] memory array  = new uint256[](1) ; \n        array[0] = num ; \n        return array ;\n    }\n}",
  "sourcePath": "/Users/mihir/Desktop/code/Orchid-PBM/contracts/PBM.sol",
  "compiler": {
    "name": "solc",
    "version": "0.8.7+commit.e28d00a7.Emscripten.clang"
  },
  "schemaVersion": "3.4.3",
  "updatedAt": "2022-09-15T09:25:14.287Z",
  "networkType": "ethereum",
  "devdoc": {
    "kind": "dev",
    "methods": {
      "balanceOf(address,uint256)": {
        "details": "See {IERC1155-balanceOf}. Requirements: - `account` cannot be the zero address."
      },
      "balanceOfBatch(address[],uint256[])": {
        "details": "See {IERC1155-balanceOfBatch}. Requirements: - `accounts` and `ids` must have the same length."
      },
      "isApprovedForAll(address,address)": {
        "details": "See {IERC1155-isApprovedForAll}."
      },
      "owner()": {
        "details": "Returns the address of the current owner."
      },
      "paused()": {
        "details": "Returns true if the contract is paused, and false otherwise."
      },
      "renounceOwnership()": {
        "details": "Leaves the contract without owner. It will not be possible to call `onlyOwner` functions anymore. Can only be called by the current owner. NOTE: Renouncing ownership will leave the contract without an owner, thereby removing any functionality that is only available to the owner."
      },
      "safeBatchTransferFrom(address,address,uint256[],uint256[],bytes)": {
        "details": "See {IERC1155-safeBatchTransferFrom}."
      },
      "safeTransferFrom(address,address,uint256,uint256,bytes)": {
        "details": "See {IERC1155-safeTransferFrom}."
      },
      "setApprovalForAll(address,bool)": {
        "details": "See {IERC1155-setApprovalForAll}."
      },
      "supportsInterface(bytes4)": {
        "details": "See {IERC165-supportsInterface}."
      },
      "transferOwnership(address)": {
        "details": "Transfers ownership of the contract to a new account (`newOwner`). Can only be called by the current owner."
      }
    },
    "version": 1
  },
  "userdoc": {
    "kind": "user",
    "methods": {},
    "version": 1
  }
}