{
  "contractName": "PBM",
  "abi": [
    {
      "inputs": [
        {
          "internalType": "address",
          "name": "_spotToken",
          "type": "address"
        },
        {
          "internalType": "uint256",
          "name": "_expiry",
          "type": "uint256"
        },
        {
          "internalType": "string",
          "name": "_uriPostExpiry",
          "type": "string"
        }
      ],
      "stateMutability": "nonpayable",
      "type": "constructor"
    },
    {
      "anonymous": false,
      "inputs": [
        {
          "indexed": true,
          "internalType": "address",
          "name": "account",
          "type": "address"
        },
        {
          "indexed": true,
          "internalType": "address",
          "name": "operator",
          "type": "address"
        },
        {
          "indexed": false,
          "internalType": "bool",
          "name": "approved",
          "type": "bool"
        }
      ],
      "name": "ApprovalForAll",
      "type": "event"
    },
    {
      "anonymous": false,
      "inputs": [
        {
          "indexed": true,
          "internalType": "address",
          "name": "previousOwner",
          "type": "address"
        },
        {
          "indexed": true,
          "internalType": "address",
          "name": "newOwner",
          "type": "address"
        }
      ],
      "name": "OwnershipTransferred",
      "type": "event"
    },
    {
      "anonymous": false,
      "inputs": [
        {
          "indexed": false,
          "internalType": "address",
          "name": "beneficiary",
          "type": "address"
        },
        {
          "indexed": false,
          "internalType": "uint256",
          "name": "PBMTokenId",
          "type": "uint256"
        },
        {
          "indexed": false,
          "internalType": "address",
          "name": "ERC20Token",
          "type": "address"
        },
        {
          "indexed": false,
          "internalType": "uint256",
          "name": "ERC20TokenValue",
          "type": "uint256"
        }
      ],
      "name": "PBMrevokeWithdraw",
      "type": "event"
    },
    {
      "anonymous": false,
      "inputs": [
        {
          "indexed": false,
          "internalType": "address",
          "name": "account",
          "type": "address"
        }
      ],
      "name": "Paused",
      "type": "event"
    },
    {
      "anonymous": false,
      "inputs": [
        {
          "indexed": true,
          "internalType": "address",
          "name": "operator",
          "type": "address"
        },
        {
          "indexed": true,
          "internalType": "address",
          "name": "from",
          "type": "address"
        },
        {
          "indexed": true,
          "internalType": "address",
          "name": "to",
          "type": "address"
        },
        {
          "indexed": false,
          "internalType": "uint256[]",
          "name": "ids",
          "type": "uint256[]"
        },
        {
          "indexed": false,
          "internalType": "uint256[]",
          "name": "values",
          "type": "uint256[]"
        }
      ],
      "name": "TransferBatch",
      "type": "event"
    },
    {
      "anonymous": false,
      "inputs": [
        {
          "indexed": true,
          "internalType": "address",
          "name": "operator",
          "type": "address"
        },
        {
          "indexed": true,
          "internalType": "address",
          "name": "from",
          "type": "address"
        },
        {
          "indexed": true,
          "internalType": "address",
          "name": "to",
          "type": "address"
        },
        {
          "indexed": false,
          "internalType": "uint256",
          "name": "id",
          "type": "uint256"
        },
        {
          "indexed": false,
          "internalType": "uint256",
          "name": "value",
          "type": "uint256"
        }
      ],
      "name": "TransferSingle",
      "type": "event"
    },
    {
      "anonymous": false,
      "inputs": [
        {
          "indexed": false,
          "internalType": "string",
          "name": "value",
          "type": "string"
        },
        {
          "indexed": true,
          "internalType": "uint256",
          "name": "id",
          "type": "uint256"
        }
      ],
      "name": "URI",
      "type": "event"
    },
    {
      "anonymous": false,
      "inputs": [
        {
          "indexed": false,
          "internalType": "address",
          "name": "account",
          "type": "address"
        }
      ],
      "name": "Unpaused",
      "type": "event"
    },
    {
      "anonymous": false,
      "inputs": [
        {
          "indexed": false,
          "internalType": "address",
          "name": "from",
          "type": "address"
        },
        {
          "indexed": false,
          "internalType": "address",
          "name": "to",
          "type": "address"
        },
        {
          "indexed": false,
          "internalType": "uint256[]",
          "name": "tokenIds",
          "type": "uint256[]"
        },
        {
          "indexed": false,
          "internalType": "uint256[]",
          "name": "amounts",
          "type": "uint256[]"
        },
        {
          "indexed": false,
          "internalType": "uint256",
          "name": "value",
          "type": "uint256"
        }
      ],
      "name": "merchantPayment",
      "type": "event"
    },
    {
      "inputs": [
        {
          "internalType": "address",
          "name": "account",
          "type": "address"
        },
        {
          "internalType": "uint256",
          "name": "id",
          "type": "uint256"
        }
      ],
      "name": "balanceOf",
      "outputs": [
        {
          "internalType": "uint256",
          "name": "",
          "type": "uint256"
        }
      ],
      "stateMutability": "view",
      "type": "function"
    },
    {
      "inputs": [
        {
          "internalType": "address[]",
          "name": "accounts",
          "type": "address[]"
        },
        {
          "internalType": "uint256[]",
          "name": "ids",
          "type": "uint256[]"
        }
      ],
      "name": "balanceOfBatch",
      "outputs": [
        {
          "internalType": "uint256[]",
          "name": "",
          "type": "uint256[]"
        }
      ],
      "stateMutability": "view",
      "type": "function"
    },
    {
      "inputs": [],
      "name": "contractExpiry",
      "outputs": [
        {
          "internalType": "uint256",
          "name": "",
          "type": "uint256"
        }
      ],
      "stateMutability": "view",
      "type": "function"
    },
    {
      "inputs": [
        {
          "internalType": "address",
          "name": "account",
          "type": "address"
        },
        {
          "internalType": "address",
          "name": "operator",
          "type": "address"
        }
      ],
      "name": "isApprovedForAll",
      "outputs": [
        {
          "internalType": "bool",
          "name": "",
          "type": "bool"
        }
      ],
      "stateMutability": "view",
      "type": "function"
    },
    {
      "inputs": [
        {
          "internalType": "address",
          "name": "",
          "type": "address"
        }
      ],
      "name": "merchantList",
      "outputs": [
        {
          "internalType": "bool",
          "name": "",
          "type": "bool"
        }
      ],
      "stateMutability": "view",
      "type": "function"
    },
    {
      "inputs": [],
      "name": "owner",
      "outputs": [
        {
          "internalType": "address",
          "name": "",
          "type": "address"
        }
      ],
      "stateMutability": "view",
      "type": "function"
    },
    {
      "inputs": [],
      "name": "paused",
      "outputs": [
        {
          "internalType": "bool",
          "name": "",
          "type": "bool"
        }
      ],
      "stateMutability": "view",
      "type": "function"
    },
    {
      "inputs": [],
      "name": "pbmTokenManager",
      "outputs": [
        {
          "internalType": "address",
          "name": "",
          "type": "address"
        }
      ],
      "stateMutability": "view",
      "type": "function"
    },
    {
      "inputs": [],
      "name": "renounceOwnership",
      "outputs": [],
      "stateMutability": "nonpayable",
      "type": "function"
    },
    {
      "inputs": [
        {
          "internalType": "address",
          "name": "operator",
          "type": "address"
        },
        {
          "internalType": "bool",
          "name": "approved",
          "type": "bool"
        }
      ],
      "name": "setApprovalForAll",
      "outputs": [],
      "stateMutability": "nonpayable",
      "type": "function"
    },
    {
      "inputs": [],
      "name": "spotToken",
      "outputs": [
        {
          "internalType": "address",
          "name": "",
          "type": "address"
        }
      ],
      "stateMutability": "view",
      "type": "function"
    },
    {
      "inputs": [
        {
          "internalType": "bytes4",
          "name": "interfaceId",
          "type": "bytes4"
        }
      ],
      "name": "supportsInterface",
      "outputs": [
        {
          "internalType": "bool",
          "name": "",
          "type": "bool"
        }
      ],
      "stateMutability": "view",
      "type": "function"
    },
    {
      "inputs": [
        {
          "internalType": "address",
          "name": "newOwner",
          "type": "address"
        }
      ],
      "name": "transferOwnership",
      "outputs": [],
      "stateMutability": "nonpayable",
      "type": "function"
    },
    {
      "inputs": [
        {
          "internalType": "uint256",
          "name": "extendedExpiry",
          "type": "uint256"
        }
      ],
      "name": "extendPBMExpiry",
      "outputs": [],
      "stateMutability": "nonpayable",
      "type": "function"
    },
    {
      "inputs": [
        {
          "internalType": "address[]",
          "name": "addresses",
          "type": "address[]"
        }
      ],
      "name": "addMerchantAddresses",
      "outputs": [],
      "stateMutability": "nonpayable",
      "type": "function"
    },
    {
      "inputs": [
        {
          "internalType": "address[]",
          "name": "addresses",
          "type": "address[]"
        }
      ],
      "name": "removeMerchantAddresses",
      "outputs": [],
      "stateMutability": "nonpayable",
      "type": "function"
    },
    {
      "inputs": [
        {
          "internalType": "string",
          "name": "companyName",
          "type": "string"
        },
        {
          "internalType": "uint256",
          "name": "spotAmount",
          "type": "uint256"
        },
        {
          "internalType": "uint256",
          "name": "tokenExpiry",
          "type": "uint256"
        },
        {
          "internalType": "address",
          "name": "creator",
          "type": "address"
        },
        {
          "internalType": "string",
          "name": "tokenURI",
          "type": "string"
        }
      ],
      "name": "createPBMTokenType",
      "outputs": [],
      "stateMutability": "nonpayable",
      "type": "function"
    },
    {
      "inputs": [
        {
          "internalType": "uint256",
          "name": "tokenId",
          "type": "uint256"
        },
        {
          "internalType": "uint256",
          "name": "amount",
          "type": "uint256"
        },
        {
          "internalType": "address",
          "name": "receiver",
          "type": "address"
        }
      ],
      "name": "mint",
      "outputs": [],
      "stateMutability": "nonpayable",
      "type": "function"
    },
    {
      "inputs": [
        {
          "internalType": "uint256[]",
          "name": "tokenIds",
          "type": "uint256[]"
        },
        {
          "internalType": "uint256[]",
          "name": "amounts",
          "type": "uint256[]"
        },
        {
          "internalType": "address",
          "name": "receiver",
          "type": "address"
        }
      ],
      "name": "batchMint",
      "outputs": [],
      "stateMutability": "nonpayable",
      "type": "function"
    },
    {
      "inputs": [
        {
          "internalType": "address",
          "name": "from",
          "type": "address"
        },
        {
          "internalType": "address",
          "name": "to",
          "type": "address"
        },
        {
          "internalType": "uint256",
          "name": "id",
          "type": "uint256"
        },
        {
          "internalType": "uint256",
          "name": "amount",
          "type": "uint256"
        },
        {
          "internalType": "bytes",
          "name": "data",
          "type": "bytes"
        }
      ],
      "name": "safeTransferFrom",
      "outputs": [],
      "stateMutability": "nonpayable",
      "type": "function"
    },
    {
      "inputs": [
        {
          "internalType": "address",
          "name": "from",
          "type": "address"
        },
        {
          "internalType": "address",
          "name": "to",
          "type": "address"
        },
        {
          "internalType": "uint256[]",
          "name": "ids",
          "type": "uint256[]"
        },
        {
          "internalType": "uint256[]",
          "name": "amounts",
          "type": "uint256[]"
        },
        {
          "internalType": "bytes",
          "name": "data",
          "type": "bytes"
        }
      ],
      "name": "safeBatchTransferFrom",
      "outputs": [],
      "stateMutability": "nonpayable",
      "type": "function"
    },
    {
      "inputs": [
        {
          "internalType": "uint256",
          "name": "tokenId",
          "type": "uint256"
        }
      ],
      "name": "revokePBM",
      "outputs": [],
      "stateMutability": "nonpayable",
      "type": "function"
    },
    {
      "inputs": [
        {
          "internalType": "uint256",
          "name": "tokenId",
          "type": "uint256"
        }
      ],
      "name": "getTokenDetails",
      "outputs": [
        {
          "internalType": "string",
          "name": "",
          "type": "string"
        },
        {
          "internalType": "uint256",
          "name": "",
          "type": "uint256"
        },
        {
          "internalType": "uint256",
          "name": "",
          "type": "uint256"
        },
        {
          "internalType": "address",
          "name": "",
          "type": "address"
        }
      ],
      "stateMutability": "view",
      "type": "function"
    },
    {
      "inputs": [
        {
          "internalType": "uint256",
          "name": "tokenId",
          "type": "uint256"
        }
      ],
      "name": "uri",
      "outputs": [
        {
          "internalType": "string",
          "name": "",
          "type": "string"
        }
      ],
      "stateMutability": "view",
      "type": "function"
    }
  ],
  "bytecode": "0x60806040523480156200001157600080fd5b5060405162007f9c38038062007f9c8339818101604052810190620000379190620003b2565b6040518060200160405280600081525062000058816200015e60201b60201c565b50620000796200006d6200017a60201b60201c565b6200018260201b60201c565b6000600360146101000a81548160ff02191690831515021790555082600460006101000a81548173ffffffffffffffffffffffffffffffffffffffff021916908373ffffffffffffffffffffffffffffffffffffffff1602179055508160058190555080604051620000eb9062000248565b620000f791906200046e565b604051809103906000f08015801562000114573d6000803e3d6000fd5b50600860006101000a81548173ffffffffffffffffffffffffffffffffffffffff021916908373ffffffffffffffffffffffffffffffffffffffff160217905550505050620006a4565b80600290805190602001906200017692919062000256565b5050565b600033905090565b6000600360009054906101000a900473ffffffffffffffffffffffffffffffffffffffff16905081600360006101000a81548173ffffffffffffffffffffffffffffffffffffffff021916908373ffffffffffffffffffffffffffffffffffffffff1602179055508173ffffffffffffffffffffffffffffffffffffffff168173ffffffffffffffffffffffffffffffffffffffff167f8be0079c531659141344cd1fd0a4f28419497f9722a3daafe3b4186f6b6457e060405160405180910390a35050565b6120498062005f5383390190565b828054620002649062000581565b90600052602060002090601f016020900481019282620002885760008555620002d4565b82601f10620002a357805160ff1916838001178555620002d4565b82800160010185558215620002d4579182015b82811115620002d3578251825591602001919060010190620002b6565b5b509050620002e39190620002e7565b5090565b5b8082111562000302576000816000905550600101620002e8565b5090565b60006200031d6200031784620004bb565b62000492565b9050828152602081018484840111156200033c576200033b62000650565b5b620003498482856200054b565b509392505050565b600081519050620003628162000670565b92915050565b600082601f83011262000380576200037f6200064b565b5b81516200039284826020860162000306565b91505092915050565b600081519050620003ac816200068a565b92915050565b600080600060608486031215620003ce57620003cd6200065a565b5b6000620003de8682870162000351565b9350506020620003f1868287016200039b565b925050604084015167ffffffffffffffff81111562000415576200041462000655565b5b620004238682870162000368565b9150509250925092565b60006200043a82620004f1565b620004468185620004fc565b9350620004588185602086016200054b565b62000463816200065f565b840191505092915050565b600060208201905081810360008301526200048a81846200042d565b905092915050565b60006200049e620004b1565b9050620004ac8282620005b7565b919050565b6000604051905090565b600067ffffffffffffffff821115620004d957620004d86200061c565b5b620004e4826200065f565b9050602081019050919050565b600081519050919050565b600082825260208201905092915050565b60006200051a8262000521565b9050919050565b600073ffffffffffffffffffffffffffffffffffffffff82169050919050565b6000819050919050565b60005b838110156200056b5780820151818401526020810190506200054e565b838111156200057b576000848401525b50505050565b600060028204905060018216806200059a57607f821691505b60208210811415620005b157620005b0620005ed565b5b50919050565b620005c2826200065f565b810181811067ffffffffffffffff82111715620005e457620005e36200061c565b5b80604052505050565b7f4e487b7100000000000000000000000000000000000000000000000000000000600052602260045260246000fd5b7f4e487b7100000000000000000000000000000000000000000000000000000000600052604160045260246000fd5b600080fd5b600080fd5b600080fd5b600080fd5b6000601f19601f8301169050919050565b6200067b816200050d565b81146200068757600080fd5b50565b620006958162000541565b8114620006a157600080fd5b50565b61589f80620006b46000396000f3fe608060405234801561001057600080fd5b50600436106101575760003560e01c806373e17e76116100c3578063e10adc161161007c578063e10adc16146103c7578063e7d3fe6b146103e3578063e985e9c5146103ff578063f242432a1461042f578063f2fde38b1461044b578063fb34b2011461046757610157565b806373e17e761461030457806389aba642146103205780638da5cb5b1461033e57806398a200bc1461035c578063a22cb46514610378578063c1e037281461039457610157565b806330a5d1c01161011557806330a5d1c0146102565780634e1273f4146102725780635c975abb146102a25780635ed7be9d146102c057806363be47d2146102dc578063715018a6146102fa57610157565b8062fdd58e1461015c57806301ffc9a71461018c5780630ad89462146101bc5780630e89341c146101da578063294adb5a1461020a5780632eb2c2d61461023a575b600080fd5b61017660048036038101906101719190613e88565b610483565b6040516101839190614d29565b60405180910390f35b6101a660048036038101906101a19190614041565b61054c565b6040516101b39190614971565b60405180910390f35b6101c461062e565b6040516101d19190614735565b60405180910390f35b6101f460048036038101906101ef919061421a565b610654565b604051610201919061498c565b60405180910390f35b610224600480360381019061021f9190613c75565b61070d565b6040516102319190614971565b60405180910390f35b610254600480360381019061024f9190613ce2565b61072d565b005b610270600480360381019061026b9190613ec8565b610bc5565b005b61028c60048036038101906102879190613f11565b610ca6565b6040516102999190614918565b60405180910390f35b6102aa610dbf565b6040516102b79190614971565b60405180910390f35b6102da60048036038101906102d59190614167565b610dd6565b005b6102e4610ec2565b6040516102f19190614735565b60405180910390f35b610302610ee8565b005b61031e6004803603810190610319919061421a565b610efc565b005b61032861118c565b6040516103359190614d29565b60405180910390f35b610346611192565b6040516103539190614735565b60405180910390f35b6103766004803603810190610371919061421a565b6111bc565b005b610392600480360381019061038d9190613e48565b611256565b005b6103ae60048036038101906103a9919061421a565b61126c565b6040516103be94939291906149ae565b60405180910390f35b6103e160048036038101906103dc9190613ec8565b611332565b005b6103fd60048036038101906103f89190614274565b611413565b005b61041960048036038101906104149190613ca2565b6116f8565b6040516104269190614971565b60405180910390f35b61044960048036038101906104449190613db1565b61178c565b005b61046560048036038101906104609190613c75565b611ba3565b005b610481600480360381019061047c9190613f89565b611c27565b005b60008073ffffffffffffffffffffffffffffffffffffffff168373ffffffffffffffffffffffffffffffffffffffff1614156104f4576040517f08c379a00000000000000000000000000000000000000000000000000000000081526004016104eb90614b29565b60405180910390fd5b60008083815260200190815260200160002060008473ffffffffffffffffffffffffffffffffffffffff1673ffffffffffffffffffffffffffffffffffffffff16815260200190815260200160002054905092915050565b60007fd9b67a26000000000000000000000000000000000000000000000000000000007bffffffffffffffffffffffffffffffffffffffffffffffffffffffff1916827bffffffffffffffffffffffffffffffffffffffffffffffffffffffff1916148061061757507f0e89341c000000000000000000000000000000000000000000000000000000007bffffffffffffffffffffffffffffffffffffffffffffffffffffffff1916827bffffffffffffffffffffffffffffffffffffffffffffffffffffffff1916145b80610627575061062682611f9e565b5b9050919050565b600460009054906101000a900473ffffffffffffffffffffffffffffffffffffffff1681565b6060600860009054906101000a900473ffffffffffffffffffffffffffffffffffffffff1673ffffffffffffffffffffffffffffffffffffffff16630e89341c836040518263ffffffff1660e01b81526004016106b19190614d29565b60006040518083038186803b1580156106c957600080fd5b505afa1580156106dd573d6000803e3d6000fd5b505050506040513d6000823e3d601f19601f82011682018060405250810190610706919061409b565b9050919050565b60066020528060005260406000206000915054906101000a900460ff1681565b6005544210610771576040517f08c379a000000000000000000000000000000000000000000000000000000000815260040161076890614b09565b60405180910390fd5b610779612008565b73ffffffffffffffffffffffffffffffffffffffff168573ffffffffffffffffffffffffffffffffffffffff1614806107bf57506107be856107b9612008565b6116f8565b5b6107fe576040517f08c379a00000000000000000000000000000000000000000000000000000000081526004016107f590614a89565b60405180910390fd5b8151835114610842576040517f08c379a000000000000000000000000000000000000000000000000000000000815260040161083990614c29565b60405180910390fd5b600860009054906101000a900473ffffffffffffffffffffffffffffffffffffffff1673ffffffffffffffffffffffffffffffffffffffff166348fd09f5846040518263ffffffff1660e01b815260040161089d9190614918565b60206040518083038186803b1580156108b557600080fd5b505afa1580156108c9573d6000803e3d6000fd5b505050506040513d601f19601f820116820180604052508101906108ed9190614014565b61092c576040517f08c379a000000000000000000000000000000000000000000000000000000000815260040161092390614d09565b60405180910390fd5b600660008573ffffffffffffffffffffffffffffffffffffffff1673ffffffffffffffffffffffffffffffffffffffff16815260200190815260200160002060009054906101000a900460ff1615610bb0576000805b8451811015610aa357610a8e610a7f600860009054906101000a900473ffffffffffffffffffffffffffffffffffffffff1673ffffffffffffffffffffffffffffffffffffffff1663d10424c78885815181106109e2576109e1615100565b5b60200260200101516040518263ffffffff1660e01b8152600401610a069190614d29565b60206040518083038186803b158015610a1e57600080fd5b505afa158015610a32573d6000803e3d6000fd5b505050506040513d601f19601f82011682018060405250810190610a569190614247565b868481518110610a6957610a68615100565b5b602002602001015161201090919063ffffffff16565b8361202690919063ffffffff16565b91508080610a9b90615088565b915050610982565b50610aaf86858561203c565b600860009054906101000a900473ffffffffffffffffffffffffffffffffffffffff1673ffffffffffffffffffffffffffffffffffffffff1663e21c8b5985856040518363ffffffff1660e01b8152600401610b0c92919061493a565b600060405180830381600087803b158015610b2657600080fd5b505af1158015610b3a573d6000803e3d6000fd5b50505050610b6b600460009054906101000a900473ffffffffffffffffffffffffffffffffffffffff16868361230b565b7f419b93ad2d194278adbe153d01aa6ad9b2ff2487d4ec47f0d2ee147eb74b005a8686868685604051610ba29594939291906147b8565b60405180910390a150610bbe565b610bbd8585858585612460565b5b5050505050565b6005544210610c09576040517f08c379a0000000000000000000000000000000000000000000000000000000008152600401610c0090614b09565b60405180910390fd5b610c11612782565b60005b8151811015610ca257600060066000848481518110610c3657610c35615100565b5b602002602001015173ffffffffffffffffffffffffffffffffffffffff1673ffffffffffffffffffffffffffffffffffffffff16815260200190815260200160002060006101000a81548160ff0219169083151502179055508080610c9a90615088565b915050610c14565b5050565b60608151835114610cec576040517f08c379a0000000000000000000000000000000000000000000000000000000008152600401610ce390614c89565b60405180910390fd5b6000835167ffffffffffffffff811115610d0957610d0861512f565b5b604051908082528060200260200182016040528015610d375781602001602082028036833780820191505090505b50905060005b8451811015610db457610d84858281518110610d5c57610d5b615100565b5b6020026020010151858381518110610d7757610d76615100565b5b6020026020010151610483565b828281518110610d9757610d96615100565b5b60200260200101818152505080610dad90615088565b9050610d3d565b508091505092915050565b6000600360149054906101000a900460ff16905090565b610dde612782565b6005544210610e22576040517f08c379a0000000000000000000000000000000000000000000000000000000008152600401610e1990614b09565b60405180910390fd5b600860009054906101000a900473ffffffffffffffffffffffffffffffffffffffff1673ffffffffffffffffffffffffffffffffffffffff166380d69c8a86868686866005546040518763ffffffff1660e01b8152600401610e89969594939291906149fa565b600060405180830381600087803b158015610ea357600080fd5b505af1158015610eb7573d6000803e3d6000fd5b505050505050505050565b600860009054906101000a900473ffffffffffffffffffffffffffffffffffffffff1681565b610ef0612782565b610efa6000612800565b565b6000600860009054906101000a900473ffffffffffffffffffffffffffffffffffffffff1673ffffffffffffffffffffffffffffffffffffffff1663234661c4836040518263ffffffff1660e01b8152600401610f599190614d29565b60206040518083038186803b158015610f7157600080fd5b505afa158015610f85573d6000803e3d6000fd5b505050506040513d601f19601f82011682018060405250810190610fa99190614247565b9050600061106a600860009054906101000a900473ffffffffffffffffffffffffffffffffffffffff1673ffffffffffffffffffffffffffffffffffffffff1663d10424c7856040518263ffffffff1660e01b815260040161100b9190614d29565b60206040518083038186803b15801561102357600080fd5b505afa158015611037573d6000803e3d6000fd5b505050506040513d601f19601f8201168201806040525081019061105b9190614247565b8361201090919063ffffffff16565b9050600860009054906101000a900473ffffffffffffffffffffffffffffffffffffffff1673ffffffffffffffffffffffffffffffffffffffff166336a3409c84336040518363ffffffff1660e01b81526004016110c9929190614d44565b600060405180830381600087803b1580156110e357600080fd5b505af11580156110f7573d6000803e3d6000fd5b50505050611128600460009054906101000a900473ffffffffffffffffffffffffffffffffffffffff16338361230b565b7fa1c359e2aefcb2a02fa122099023552498d16ee2c91b81d3cfd8cd086f037d443384600460009054906101000a900473ffffffffffffffffffffffffffffffffffffffff168460405161117f94939291906148d3565b60405180910390a1505050565b60055481565b6000600360009054906101000a900473ffffffffffffffffffffffffffffffffffffffff16905090565b6111c4612782565b6005544210611208576040517f08c379a00000000000000000000000000000000000000000000000000000000081526004016111ff90614b09565b60405180910390fd5b600554811161124c576040517f08c379a000000000000000000000000000000000000000000000000000000000815260040161124390614c09565b60405180910390fd5b8060058190555050565b611268611261612008565b83836128c6565b5050565b60606000806000600860009054906101000a900473ffffffffffffffffffffffffffffffffffffffff1673ffffffffffffffffffffffffffffffffffffffff1663c1e03728866040518263ffffffff1660e01b81526004016112ce9190614d29565b60006040518083038186803b1580156112e657600080fd5b505afa1580156112fa573d6000803e3d6000fd5b505050506040513d6000823e3d601f19601f8201168201806040525081019061132391906140e4565b93509350935093509193509193565b6005544210611376576040517f08c379a000000000000000000000000000000000000000000000000000000000815260040161136d90614b09565b60405180910390fd5b61137e612782565b60005b815181101561140f576001600660008484815181106113a3576113a2615100565b5b602002602001015173ffffffffffffffffffffffffffffffffffffffff1673ffffffffffffffffffffffffffffffffffffffff16815260200190815260200160002060006101000a81548160ff021916908315150217905550808061140790615088565b915050611381565b5050565b6005544210611457576040517f08c379a000000000000000000000000000000000000000000000000000000000815260040161144e90614b09565b60405180910390fd5b600860009054906101000a900473ffffffffffffffffffffffffffffffffffffffff1673ffffffffffffffffffffffffffffffffffffffff166348fd09f561149e85612a33565b6040518263ffffffff1660e01b81526004016114ba9190614918565b60206040518083038186803b1580156114d257600080fd5b505afa1580156114e6573d6000803e3d6000fd5b505050506040513d601f19601f8201168201806040525081019061150a9190614014565b611549576040517f08c379a000000000000000000000000000000000000000000000000000000000815260040161154090614bc9565b60405180910390fd5b6000611608600860009054906101000a900473ffffffffffffffffffffffffffffffffffffffff1673ffffffffffffffffffffffffffffffffffffffff1663d10424c7866040518263ffffffff1660e01b81526004016115a99190614d29565b60206040518083038186803b1580156115c157600080fd5b505afa1580156115d5573d6000803e3d6000fd5b505050506040513d601f19601f820116820180604052508101906115f99190614247565b8461201090919063ffffffff16565b9050611638600460009054906101000a900473ffffffffffffffffffffffffffffffffffffffff16333084612aad565b600860009054906101000a900473ffffffffffffffffffffffffffffffffffffffff1673ffffffffffffffffffffffffffffffffffffffff1663f600d9f461167f86612a33565b61168886612a33565b6040518363ffffffff1660e01b81526004016116a592919061493a565b600060405180830381600087803b1580156116bf57600080fd5b505af11580156116d3573d6000803e3d6000fd5b505050506116f282858560405180602001604052806000815250612c05565b50505050565b6000600160008473ffffffffffffffffffffffffffffffffffffffff1673ffffffffffffffffffffffffffffffffffffffff16815260200190815260200160002060008373ffffffffffffffffffffffffffffffffffffffff1673ffffffffffffffffffffffffffffffffffffffff16815260200190815260200160002060009054906101000a900460ff16905092915050565b60055442106117d0576040517f08c379a00000000000000000000000000000000000000000000000000000000081526004016117c790614b09565b60405180910390fd5b6117d8612008565b73ffffffffffffffffffffffffffffffffffffffff168573ffffffffffffffffffffffffffffffffffffffff16148061181e575061181d85611818612008565b6116f8565b5b61185d576040517f08c379a000000000000000000000000000000000000000000000000000000000815260040161185490614a89565b60405180910390fd5b600860009054906101000a900473ffffffffffffffffffffffffffffffffffffffff1673ffffffffffffffffffffffffffffffffffffffff166348fd09f56118a485612a33565b6040518263ffffffff1660e01b81526004016118c09190614918565b60206040518083038186803b1580156118d857600080fd5b505afa1580156118ec573d6000803e3d6000fd5b505050506040513d601f19601f820116820180604052508101906119109190614014565b61194f576040517f08c379a000000000000000000000000000000000000000000000000000000000815260040161194690614bc9565b60405180910390fd5b600660008573ffffffffffffffffffffffffffffffffffffffff1673ffffffffffffffffffffffffffffffffffffffff16815260200190815260200160002060009054906101000a900460ff1615611b8e576000611a60600860009054906101000a900473ffffffffffffffffffffffffffffffffffffffff1673ffffffffffffffffffffffffffffffffffffffff1663d10424c7866040518263ffffffff1660e01b8152600401611a019190614d29565b60206040518083038186803b158015611a1957600080fd5b505afa158015611a2d573d6000803e3d6000fd5b505050506040513d601f19601f82011682018060405250810190611a519190614247565b8461201090919063ffffffff16565b9050611a6d868585612db6565b600860009054906101000a900473ffffffffffffffffffffffffffffffffffffffff1673ffffffffffffffffffffffffffffffffffffffff1663e21c8b59611ab486612a33565b611abd86612a33565b6040518363ffffffff1660e01b8152600401611ada92919061493a565b600060405180830381600087803b158015611af457600080fd5b505af1158015611b08573d6000803e3d6000fd5b50505050611b39600460009054906101000a900473ffffffffffffffffffffffffffffffffffffffff16868361230b565b7f419b93ad2d194278adbe153d01aa6ad9b2ff2487d4ec47f0d2ee147eb74b005a8686611b6587612a33565b611b6e87612a33565b85604051611b809594939291906147b8565b60405180910390a150611b9c565b611b9b8585858585612ffd565b5b5050505050565b611bab612782565b600073ffffffffffffffffffffffffffffffffffffffff168173ffffffffffffffffffffffffffffffffffffffff161415611c1b576040517f08c379a0000000000000000000000000000000000000000000000000000000008152600401611c1290614ac9565b60405180910390fd5b611c2481612800565b50565b6005544210611c6b576040517f08c379a0000000000000000000000000000000000000000000000000000000008152600401611c6290614b09565b60405180910390fd5b8151835114611caf576040517f08c379a0000000000000000000000000000000000000000000000000000000008152600401611ca690614c49565b60405180910390fd5b6000600860009054906101000a900473ffffffffffffffffffffffffffffffffffffffff1673ffffffffffffffffffffffffffffffffffffffff166348fd09f5856040518263ffffffff1660e01b8152600401611d0c9190614918565b60206040518083038186803b158015611d2457600080fd5b505afa158015611d38573d6000803e3d6000fd5b505050506040513d601f19601f82011682018060405250810190611d5c9190614014565b611d9b576040517f08c379a0000000000000000000000000000000000000000000000000000000008152600401611d9290614d09565b60405180910390fd5b60005b8451811015611ebf57611eaa611e9b600860009054906101000a900473ffffffffffffffffffffffffffffffffffffffff1673ffffffffffffffffffffffffffffffffffffffff1663d10424c7888581518110611dfe57611dfd615100565b5b60200260200101516040518263ffffffff1660e01b8152600401611e229190614d29565b60206040518083038186803b158015611e3a57600080fd5b505afa158015611e4e573d6000803e3d6000fd5b505050506040513d601f19601f82011682018060405250810190611e729190614247565b868481518110611e8557611e84615100565b5b602002602001015161201090919063ffffffff16565b8361202690919063ffffffff16565b91508080611eb790615088565b915050611d9e565b50611eee600460009054906101000a900473ffffffffffffffffffffffffffffffffffffffff16333084612aad565b600860009054906101000a900473ffffffffffffffffffffffffffffffffffffffff1673ffffffffffffffffffffffffffffffffffffffff1663f600d9f485856040518363ffffffff1660e01b8152600401611f4b92919061493a565b600060405180830381600087803b158015611f6557600080fd5b505af1158015611f79573d6000803e3d6000fd5b50505050611f9882858560405180602001604052806000815250613299565b50505050565b60007f01ffc9a7000000000000000000000000000000000000000000000000000000007bffffffffffffffffffffffffffffffffffffffffffffffffffffffff1916827bffffffffffffffffffffffffffffffffffffffffffffffffffffffff1916149050919050565b600033905090565b6000818361201e9190614f47565b905092915050565b600081836120349190614ef1565b905092915050565b600073ffffffffffffffffffffffffffffffffffffffff168373ffffffffffffffffffffffffffffffffffffffff1614156120ac576040517f08c379a00000000000000000000000000000000000000000000000000000000081526004016120a390614b89565b60405180910390fd5b80518251146120f0576040517f08c379a00000000000000000000000000000000000000000000000000000000081526004016120e790614ca9565b60405180910390fd5b60006120fa612008565b905061211a818560008686604051806020016040528060008152506134c6565b60005b835181101561226757600084828151811061213b5761213a615100565b5b60200260200101519050600084838151811061215a57612159615100565b5b60200260200101519050600080600084815260200190815260200160002060008973ffffffffffffffffffffffffffffffffffffffff1673ffffffffffffffffffffffffffffffffffffffff168152602001908152602001600020549050818110156121fb576040517f08c379a00000000000000000000000000000000000000000000000000000000081526004016121f290614ae9565b60405180910390fd5b81810360008085815260200190815260200160002060008a73ffffffffffffffffffffffffffffffffffffffff1673ffffffffffffffffffffffffffffffffffffffff16815260200190815260200160002081905550505050808061225f90615088565b91505061211d565b50600073ffffffffffffffffffffffffffffffffffffffff168473ffffffffffffffffffffffffffffffffffffffff168273ffffffffffffffffffffffffffffffffffffffff167f4a39dc06d4c0dbc64b70af90fd698a233a518aa5d07e595d983b8c0526c8f7fb86866040516122df92919061493a565b60405180910390a4612305818560008686604051806020016040528060008152506134ce565b50505050565b6000808473ffffffffffffffffffffffffffffffffffffffff1663a9059cbb60e01b85856040516024016123409291906148aa565b604051602081830303815290604052907bffffffffffffffffffffffffffffffffffffffffffffffffffffffff19166020820180517bffffffffffffffffffffffffffffffffffffffffffffffffffffffff83818316178352505050506040516123aa919061471e565b6000604051808303816000865af19150503d80600081146123e7576040519150601f19603f3d011682016040523d82523d6000602084013e6123ec565b606091505b509150915081801561241a57506000815114806124195750808060200190518101906124189190614014565b5b5b612459576040517f08c379a000000000000000000000000000000000000000000000000000000000815260040161245090614ce9565b60405180910390fd5b5050505050565b81518351146124a4576040517f08c379a000000000000000000000000000000000000000000000000000000000815260040161249b90614ca9565b60405180910390fd5b600073ffffffffffffffffffffffffffffffffffffffff168473ffffffffffffffffffffffffffffffffffffffff161415612514576040517f08c379a000000000000000000000000000000000000000000000000000000000815260040161250b90614b69565b60405180910390fd5b600061251e612008565b905061252e8187878787876134c6565b60005b84518110156126df57600085828151811061254f5761254e615100565b5b60200260200101519050600085838151811061256e5761256d615100565b5b60200260200101519050600080600084815260200190815260200160002060008b73ffffffffffffffffffffffffffffffffffffffff1673ffffffffffffffffffffffffffffffffffffffff1681526020019081526020016000205490508181101561260f576040517f08c379a000000000000000000000000000000000000000000000000000000000815260040161260690614ba9565b60405180910390fd5b81810360008085815260200190815260200160002060008c73ffffffffffffffffffffffffffffffffffffffff1673ffffffffffffffffffffffffffffffffffffffff168152602001908152602001600020819055508160008085815260200190815260200160002060008b73ffffffffffffffffffffffffffffffffffffffff1673ffffffffffffffffffffffffffffffffffffffff16815260200190815260200160002060008282546126c49190614ef1565b92505081905550505050806126d890615088565b9050612531565b508473ffffffffffffffffffffffffffffffffffffffff168673ffffffffffffffffffffffffffffffffffffffff168273ffffffffffffffffffffffffffffffffffffffff167f4a39dc06d4c0dbc64b70af90fd698a233a518aa5d07e595d983b8c0526c8f7fb878760405161275692919061493a565b60405180910390a461276c8187878787876134ce565b61277a8187878787876134d6565b505050505050565b61278a612008565b73ffffffffffffffffffffffffffffffffffffffff166127a8611192565b73ffffffffffffffffffffffffffffffffffffffff16146127fe576040517f08c379a00000000000000000000000000000000000000000000000000000000081526004016127f590614be9565b60405180910390fd5b565b6000600360009054906101000a900473ffffffffffffffffffffffffffffffffffffffff16905081600360006101000a81548173ffffffffffffffffffffffffffffffffffffffff021916908373ffffffffffffffffffffffffffffffffffffffff1602179055508173ffffffffffffffffffffffffffffffffffffffff168173ffffffffffffffffffffffffffffffffffffffff167f8be0079c531659141344cd1fd0a4f28419497f9722a3daafe3b4186f6b6457e060405160405180910390a35050565b8173ffffffffffffffffffffffffffffffffffffffff168373ffffffffffffffffffffffffffffffffffffffff161415612935576040517f08c379a000000000000000000000000000000000000000000000000000000000815260040161292c90614c69565b60405180910390fd5b80600160008573ffffffffffffffffffffffffffffffffffffffff1673ffffffffffffffffffffffffffffffffffffffff16815260200190815260200160002060008473ffffffffffffffffffffffffffffffffffffffff1673ffffffffffffffffffffffffffffffffffffffff16815260200190815260200160002060006101000a81548160ff0219169083151502179055508173ffffffffffffffffffffffffffffffffffffffff168373ffffffffffffffffffffffffffffffffffffffff167f17307eab39ab6107e8899845ad3d59bd9653f200f220920489ca2b5937696c3183604051612a269190614971565b60405180910390a3505050565b60606000600167ffffffffffffffff811115612a5257612a5161512f565b5b604051908082528060200260200182016040528015612a805781602001602082028036833780820191505090505b5090508281600081518110612a9857612a97615100565b5b60200260200101818152505080915050919050565b6000808573ffffffffffffffffffffffffffffffffffffffff166323b872dd60e01b868686604051602401612ae493929190614819565b604051602081830303815290604052907bffffffffffffffffffffffffffffffffffffffffffffffffffffffff19166020820180517bffffffffffffffffffffffffffffffffffffffffffffffffffffffff8381831617835250505050604051612b4e919061471e565b6000604051808303816000865af19150503d8060008114612b8b576040519150601f19603f3d011682016040523d82523d6000602084013e612b90565b606091505b5091509150818015612bbe5750600081511480612bbd575080806020019051810190612bbc9190614014565b5b5b612bfd576040517f08c379a0000000000000000000000000000000000000000000000000000000008152600401612bf490614b49565b60405180910390fd5b505050505050565b600073ffffffffffffffffffffffffffffffffffffffff168473ffffffffffffffffffffffffffffffffffffffff161415612c75576040517f08c379a0000000000000000000000000000000000000000000000000000000008152600401612c6c90614cc9565b60405180910390fd5b6000612c7f612008565b90506000612c8c856136bd565b90506000612c99856136bd565b9050612caa836000898585896134c6565b8460008088815260200190815260200160002060008973ffffffffffffffffffffffffffffffffffffffff1673ffffffffffffffffffffffffffffffffffffffff1681526020019081526020016000206000828254612d099190614ef1565b925050819055508673ffffffffffffffffffffffffffffffffffffffff16600073ffffffffffffffffffffffffffffffffffffffff168473ffffffffffffffffffffffffffffffffffffffff167fc3d58168c5ae7397731d063d5bbf3d657854427343f4c083240f7aacaa2d0f628989604051612d87929190614d6d565b60405180910390a4612d9e836000898585896134ce565b612dad83600089898989613737565b50505050505050565b600073ffffffffffffffffffffffffffffffffffffffff168373ffffffffffffffffffffffffffffffffffffffff161415612e26576040517f08c379a0000000000000000000000000000000000000000000000000000000008152600401612e1d90614b89565b60405180910390fd5b6000612e30612008565b90506000612e3d846136bd565b90506000612e4a846136bd565b9050612e6a838760008585604051806020016040528060008152506134c6565b600080600087815260200190815260200160002060008873ffffffffffffffffffffffffffffffffffffffff1673ffffffffffffffffffffffffffffffffffffffff16815260200190815260200160002054905084811015612f01576040517f08c379a0000000000000000000000000000000000000000000000000000000008152600401612ef890614ae9565b60405180910390fd5b84810360008088815260200190815260200160002060008973ffffffffffffffffffffffffffffffffffffffff1673ffffffffffffffffffffffffffffffffffffffff16815260200190815260200160002081905550600073ffffffffffffffffffffffffffffffffffffffff168773ffffffffffffffffffffffffffffffffffffffff168573ffffffffffffffffffffffffffffffffffffffff167fc3d58168c5ae7397731d063d5bbf3d657854427343f4c083240f7aacaa2d0f628989604051612fce929190614d6d565b60405180910390a4612ff4848860008686604051806020016040528060008152506134ce565b50505050505050565b600073ffffffffffffffffffffffffffffffffffffffff168473ffffffffffffffffffffffffffffffffffffffff16141561306d576040517f08c379a000000000000000000000000000000000000000000000000000000000815260040161306490614b69565b60405180910390fd5b6000613077612008565b90506000613084856136bd565b90506000613091856136bd565b90506130a18389898585896134c6565b600080600088815260200190815260200160002060008a73ffffffffffffffffffffffffffffffffffffffff1673ffffffffffffffffffffffffffffffffffffffff16815260200190815260200160002054905085811015613138576040517f08c379a000000000000000000000000000000000000000000000000000000000815260040161312f90614ba9565b60405180910390fd5b85810360008089815260200190815260200160002060008b73ffffffffffffffffffffffffffffffffffffffff1673ffffffffffffffffffffffffffffffffffffffff168152602001908152602001600020819055508560008089815260200190815260200160002060008a73ffffffffffffffffffffffffffffffffffffffff1673ffffffffffffffffffffffffffffffffffffffff16815260200190815260200160002060008282546131ed9190614ef1565b925050819055508773ffffffffffffffffffffffffffffffffffffffff168973ffffffffffffffffffffffffffffffffffffffff168573ffffffffffffffffffffffffffffffffffffffff167fc3d58168c5ae7397731d063d5bbf3d657854427343f4c083240f7aacaa2d0f628a8a60405161326a929190614d6d565b60405180910390a4613280848a8a86868a6134ce565b61328e848a8a8a8a8a613737565b505050505050505050565b600073ffffffffffffffffffffffffffffffffffffffff168473ffffffffffffffffffffffffffffffffffffffff161415613309576040517f08c379a000000000000000000000000000000000000000000000000000000000815260040161330090614cc9565b60405180910390fd5b815183511461334d576040517f08c379a000000000000000000000000000000000000000000000000000000000815260040161334490614ca9565b60405180910390fd5b6000613357612008565b9050613368816000878787876134c6565b60005b84518110156134215783818151811061338757613386615100565b5b60200260200101516000808784815181106133a5576133a4615100565b5b6020026020010151815260200190815260200160002060008873ffffffffffffffffffffffffffffffffffffffff1673ffffffffffffffffffffffffffffffffffffffff16815260200190815260200160002060008282546134079190614ef1565b92505081905550808061341990615088565b91505061336b565b508473ffffffffffffffffffffffffffffffffffffffff16600073ffffffffffffffffffffffffffffffffffffffff168273ffffffffffffffffffffffffffffffffffffffff167f4a39dc06d4c0dbc64b70af90fd698a233a518aa5d07e595d983b8c0526c8f7fb878760405161349992919061493a565b60405180910390a46134b0816000878787876134ce565b6134bf816000878787876134d6565b5050505050565b505050505050565b505050505050565b6134f58473ffffffffffffffffffffffffffffffffffffffff1661391e565b156136b5578373ffffffffffffffffffffffffffffffffffffffff1663bc197c8187878686866040518663ffffffff1660e01b815260040161353b959493929190614750565b602060405180830381600087803b15801561355557600080fd5b505af192505050801561358657506040513d601f19601f82011682018060405250810190613583919061406e565b60015b61362c5761359261515e565b806308c379a014156135ef57506135a7615777565b806135b257506135f1565b806040517f08c379a00000000000000000000000000000000000000000000000000000000081526004016135e6919061498c565b60405180910390fd5b505b6040517f08c379a000000000000000000000000000000000000000000000000000000000815260040161362390614a69565b60405180910390fd5b63bc197c8160e01b7bffffffffffffffffffffffffffffffffffffffffffffffffffffffff1916817bffffffffffffffffffffffffffffffffffffffffffffffffffffffff1916146136b3576040517f08c379a00000000000000000000000000000000000000000000000000000000081526004016136aa90614aa9565b60405180910390fd5b505b505050505050565b60606000600167ffffffffffffffff8111156136dc576136db61512f565b5b60405190808252806020026020018201604052801561370a5781602001602082028036833780820191505090505b509050828160008151811061372257613721615100565b5b60200260200101818152505080915050919050565b6137568473ffffffffffffffffffffffffffffffffffffffff1661391e565b15613916578373ffffffffffffffffffffffffffffffffffffffff1663f23a6e6187878686866040518663ffffffff1660e01b815260040161379c959493929190614850565b602060405180830381600087803b1580156137b657600080fd5b505af19250505080156137e757506040513d601f19601f820116820180604052508101906137e4919061406e565b60015b61388d576137f361515e565b806308c379a014156138505750613808615777565b806138135750613852565b806040517f08c379a0000000000000000000000000000000000000000000000000000000008152600401613847919061498c565b60405180910390fd5b505b6040517f08c379a000000000000000000000000000000000000000000000000000000000815260040161388490614a69565b60405180910390fd5b63f23a6e6160e01b7bffffffffffffffffffffffffffffffffffffffffffffffffffffffff1916817bffffffffffffffffffffffffffffffffffffffffffffffffffffffff191614613914576040517f08c379a000000000000000000000000000000000000000000000000000000000815260040161390b90614aa9565b60405180910390fd5b505b505050505050565b6000808273ffffffffffffffffffffffffffffffffffffffff163b119050919050565b600061395461394f84614dbb565b614d96565b9050808382526020820190508285602086028201111561397757613976615185565b5b60005b858110156139a7578161398d8882613ae7565b84526020840193506020830192505060018101905061397a565b5050509392505050565b60006139c46139bf84614de7565b614d96565b905080838252602082019050828560208602820111156139e7576139e6615185565b5b60005b85811015613a1757816139fd8882613c4b565b8452602084019350602083019250506001810190506139ea565b5050509392505050565b6000613a34613a2f84614e13565b614d96565b905082815260208101848484011115613a5057613a4f61518a565b5b613a5b848285615015565b509392505050565b6000613a76613a7184614e44565b614d96565b905082815260208101848484011115613a9257613a9161518a565b5b613a9d848285615015565b509392505050565b6000613ab8613ab384614e44565b614d96565b905082815260208101848484011115613ad457613ad361518a565b5b613adf848285615024565b509392505050565b600081359050613af68161580d565b92915050565b600081519050613b0b8161580d565b92915050565b600082601f830112613b2657613b25615180565b5b8135613b36848260208601613941565b91505092915050565b600082601f830112613b5457613b53615180565b5b8135613b648482602086016139b1565b91505092915050565b600081359050613b7c81615824565b92915050565b600081519050613b9181615824565b92915050565b600081359050613ba68161583b565b92915050565b600081519050613bbb8161583b565b92915050565b600082601f830112613bd657613bd5615180565b5b8135613be6848260208601613a21565b91505092915050565b600082601f830112613c0457613c03615180565b5b8135613c14848260208601613a63565b91505092915050565b600082601f830112613c3257613c31615180565b5b8151613c42848260208601613aa5565b91505092915050565b600081359050613c5a81615852565b92915050565b600081519050613c6f81615852565b92915050565b600060208284031215613c8b57613c8a615194565b5b6000613c9984828501613ae7565b91505092915050565b60008060408385031215613cb957613cb8615194565b5b6000613cc785828601613ae7565b9250506020613cd885828601613ae7565b9150509250929050565b600080600080600060a08688031215613cfe57613cfd615194565b5b6000613d0c88828901613ae7565b9550506020613d1d88828901613ae7565b945050604086013567ffffffffffffffff811115613d3e57613d3d61518f565b5b613d4a88828901613b3f565b935050606086013567ffffffffffffffff811115613d6b57613d6a61518f565b5b613d7788828901613b3f565b925050608086013567ffffffffffffffff811115613d9857613d9761518f565b5b613da488828901613bc1565b9150509295509295909350565b600080600080600060a08688031215613dcd57613dcc615194565b5b6000613ddb88828901613ae7565b9550506020613dec88828901613ae7565b9450506040613dfd88828901613c4b565b9350506060613e0e88828901613c4b565b925050608086013567ffffffffffffffff811115613e2f57613e2e61518f565b5b613e3b88828901613bc1565b9150509295509295909350565b60008060408385031215613e5f57613e5e615194565b5b6000613e6d85828601613ae7565b9250506020613e7e85828601613b6d565b9150509250929050565b60008060408385031215613e9f57613e9e615194565b5b6000613ead85828601613ae7565b9250506020613ebe85828601613c4b565b9150509250929050565b600060208284031215613ede57613edd615194565b5b600082013567ffffffffffffffff811115613efc57613efb61518f565b5b613f0884828501613b11565b91505092915050565b60008060408385031215613f2857613f27615194565b5b600083013567ffffffffffffffff811115613f4657613f4561518f565b5b613f5285828601613b11565b925050602083013567ffffffffffffffff811115613f7357613f7261518f565b5b613f7f85828601613b3f565b9150509250929050565b600080600060608486031215613fa257613fa1615194565b5b600084013567ffffffffffffffff811115613fc057613fbf61518f565b5b613fcc86828701613b3f565b935050602084013567ffffffffffffffff811115613fed57613fec61518f565b5b613ff986828701613b3f565b925050604061400a86828701613ae7565b9150509250925092565b60006020828403121561402a57614029615194565b5b600061403884828501613b82565b91505092915050565b60006020828403121561405757614056615194565b5b600061406584828501613b97565b91505092915050565b60006020828403121561408457614083615194565b5b600061409284828501613bac565b91505092915050565b6000602082840312156140b1576140b0615194565b5b600082015167ffffffffffffffff8111156140cf576140ce61518f565b5b6140db84828501613c1d565b91505092915050565b600080600080608085870312156140fe576140fd615194565b5b600085015167ffffffffffffffff81111561411c5761411b61518f565b5b61412887828801613c1d565b945050602061413987828801613c60565b935050604061414a87828801613c60565b925050606061415b87828801613afc565b91505092959194509250565b600080600080600060a0868803121561418357614182615194565b5b600086013567ffffffffffffffff8111156141a1576141a061518f565b5b6141ad88828901613bef565b95505060206141be88828901613c4b565b94505060406141cf88828901613c4b565b93505060606141e088828901613ae7565b925050608086013567ffffffffffffffff8111156142015761420061518f565b5b61420d88828901613bef565b9150509295509295909350565b6000602082840312156142305761422f615194565b5b600061423e84828501613c4b565b91505092915050565b60006020828403121561425d5761425c615194565b5b600061426b84828501613c60565b91505092915050565b60008060006060848603121561428d5761428c615194565b5b600061429b86828701613c4b565b93505060206142ac86828701613c4b565b92505060406142bd86828701613ae7565b9150509250925092565b60006142d38383614700565b60208301905092915050565b6142e881614fa1565b82525050565b60006142f982614e85565b6143038185614eb3565b935061430e83614e75565b8060005b8381101561433f57815161432688826142c7565b975061433183614ea6565b925050600181019050614312565b5085935050505092915050565b61435581614fb3565b82525050565b600061436682614e90565b6143708185614ec4565b9350614380818560208601615024565b61438981615199565b840191505092915050565b600061439f82614e90565b6143a98185614ed5565b93506143b9818560208601615024565b80840191505092915050565b60006143d082614e9b565b6143da8185614ee0565b93506143ea818560208601615024565b6143f381615199565b840191505092915050565b600061440b603483614ee0565b9150614416826151b7565b604082019050919050565b600061442e602f83614ee0565b915061443982615206565b604082019050919050565b6000614451602883614ee0565b915061445c82615255565b604082019050919050565b6000614474602683614ee0565b915061447f826152a4565b604082019050919050565b6000614497602483614ee0565b91506144a2826152f3565b604082019050919050565b60006144ba601883614ee0565b91506144c582615342565b602082019050919050565b60006144dd602a83614ee0565b91506144e88261536b565b604082019050919050565b6000614500602683614ee0565b915061450b826153ba565b604082019050919050565b6000614523602583614ee0565b915061452e82615409565b604082019050919050565b6000614546602383614ee0565b915061455182615458565b604082019050919050565b6000614569602a83614ee0565b9150614574826154a7565b604082019050919050565b600061458c601583614ee0565b9150614597826154f6565b602082019050919050565b60006145af602083614ee0565b91506145ba8261551f565b602082019050919050565b60006145d2601483614ee0565b91506145dd82615548565b602082019050919050565b60006145f5602083614ee0565b915061460082615571565b602082019050919050565b6000614618601783614ee0565b91506146238261559a565b602082019050919050565b600061463b602983614ee0565b9150614646826155c3565b604082019050919050565b600061465e602983614ee0565b915061466982615612565b604082019050919050565b6000614681602883614ee0565b915061468c82615661565b604082019050919050565b60006146a4602183614ee0565b91506146af826156b0565b604082019050919050565b60006146c7602783614ee0565b91506146d2826156ff565b604082019050919050565b60006146ea601883614ee0565b91506146f58261574e565b602082019050919050565b6147098161500b565b82525050565b6147188161500b565b82525050565b600061472a8284614394565b915081905092915050565b600060208201905061474a60008301846142df565b92915050565b600060a08201905061476560008301886142df565b61477260208301876142df565b818103604083015261478481866142ee565b9050818103606083015261479881856142ee565b905081810360808301526147ac818461435b565b90509695505050505050565b600060a0820190506147cd60008301886142df565b6147da60208301876142df565b81810360408301526147ec81866142ee565b9050818103606083015261480081856142ee565b905061480f608083018461470f565b9695505050505050565b600060608201905061482e60008301866142df565b61483b60208301856142df565b614848604083018461470f565b949350505050565b600060a08201905061486560008301886142df565b61487260208301876142df565b61487f604083018661470f565b61488c606083018561470f565b818103608083015261489e818461435b565b90509695505050505050565b60006040820190506148bf60008301856142df565b6148cc602083018461470f565b9392505050565b60006080820190506148e860008301876142df565b6148f5602083018661470f565b61490260408301856142df565b61490f606083018461470f565b95945050505050565b6000602082019050818103600083015261493281846142ee565b905092915050565b6000604082019050818103600083015261495481856142ee565b9050818103602083015261496881846142ee565b90509392505050565b6000602082019050614986600083018461434c565b92915050565b600060208201905081810360008301526149a681846143c5565b905092915050565b600060808201905081810360008301526149c881876143c5565b90506149d7602083018661470f565b6149e4604083018561470f565b6149f160608301846142df565b95945050505050565b600060c0820190508181036000830152614a1481896143c5565b9050614a23602083018861470f565b614a30604083018761470f565b614a3d60608301866142df565b8181036080830152614a4f81856143c5565b9050614a5e60a083018461470f565b979650505050505050565b60006020820190508181036000830152614a82816143fe565b9050919050565b60006020820190508181036000830152614aa281614421565b9050919050565b60006020820190508181036000830152614ac281614444565b9050919050565b60006020820190508181036000830152614ae281614467565b9050919050565b60006020820190508181036000830152614b028161448a565b9050919050565b60006020820190508181036000830152614b22816144ad565b9050919050565b60006020820190508181036000830152614b42816144d0565b9050919050565b60006020820190508181036000830152614b62816144f3565b9050919050565b60006020820190508181036000830152614b8281614516565b9050919050565b60006020820190508181036000830152614ba281614539565b9050919050565b60006020820190508181036000830152614bc28161455c565b9050919050565b60006020820190508181036000830152614be28161457f565b9050919050565b60006020820190508181036000830152614c02816145a2565b9050919050565b60006020820190508181036000830152614c22816145c5565b9050919050565b60006020820190508181036000830152614c42816145e8565b9050919050565b60006020820190508181036000830152614c628161460b565b9050919050565b60006020820190508181036000830152614c828161462e565b9050919050565b60006020820190508181036000830152614ca281614651565b9050919050565b60006020820190508181036000830152614cc281614674565b9050919050565b60006020820190508181036000830152614ce281614697565b9050919050565b60006020820190508181036000830152614d02816146ba565b9050919050565b60006020820190508181036000830152614d22816146dd565b9050919050565b6000602082019050614d3e600083018461470f565b92915050565b6000604082019050614d59600083018561470f565b614d6660208301846142df565b9392505050565b6000604082019050614d82600083018561470f565b614d8f602083018461470f565b9392505050565b6000614da0614db1565b9050614dac8282615057565b919050565b6000604051905090565b600067ffffffffffffffff821115614dd657614dd561512f565b5b602082029050602081019050919050565b600067ffffffffffffffff821115614e0257614e0161512f565b5b602082029050602081019050919050565b600067ffffffffffffffff821115614e2e57614e2d61512f565b5b614e3782615199565b9050602081019050919050565b600067ffffffffffffffff821115614e5f57614e5e61512f565b5b614e6882615199565b9050602081019050919050565b6000819050602082019050919050565b600081519050919050565b600081519050919050565b600081519050919050565b6000602082019050919050565b600082825260208201905092915050565b600082825260208201905092915050565b600081905092915050565b600082825260208201905092915050565b6000614efc8261500b565b9150614f078361500b565b9250827fffffffffffffffffffffffffffffffffffffffffffffffffffffffffffffffff03821115614f3c57614f3b6150d1565b5b828201905092915050565b6000614f528261500b565b9150614f5d8361500b565b9250817fffffffffffffffffffffffffffffffffffffffffffffffffffffffffffffffff0483118215151615614f9657614f956150d1565b5b828202905092915050565b6000614fac82614feb565b9050919050565b60008115159050919050565b60007fffffffff0000000000000000000000000000000000000000000000000000000082169050919050565b600073ffffffffffffffffffffffffffffffffffffffff82169050919050565b6000819050919050565b82818337600083830152505050565b60005b83811015615042578082015181840152602081019050615027565b83811115615051576000848401525b50505050565b61506082615199565b810181811067ffffffffffffffff8211171561507f5761507e61512f565b5b80604052505050565b60006150938261500b565b91507fffffffffffffffffffffffffffffffffffffffffffffffffffffffffffffffff8214156150c6576150c56150d1565b5b600182019050919050565b7f4e487b7100000000000000000000000000000000000000000000000000000000600052601160045260246000fd5b7f4e487b7100000000000000000000000000000000000000000000000000000000600052603260045260246000fd5b7f4e487b7100000000000000000000000000000000000000000000000000000000600052604160045260246000fd5b600060033d111561517d5760046000803e61517a6000516151aa565b90505b90565b600080fd5b600080fd5b600080fd5b600080fd5b600080fd5b6000601f19601f8301169050919050565b60008160e01c9050919050565b7f455243313135353a207472616e7366657220746f206e6f6e204552433131353560008201527f526563656976657220696d706c656d656e746572000000000000000000000000602082015250565b7f455243313135353a2063616c6c6572206973206e6f7420746f6b656e206f776e60008201527f6572206e6f7220617070726f7665640000000000000000000000000000000000602082015250565b7f455243313135353a204552433131353552656365697665722072656a6563746560008201527f6420746f6b656e73000000000000000000000000000000000000000000000000602082015250565b7f4f776e61626c653a206e6577206f776e657220697320746865207a65726f206160008201527f6464726573730000000000000000000000000000000000000000000000000000602082015250565b7f455243313135353a206275726e20616d6f756e7420657863656564732062616c60008201527f616e636500000000000000000000000000000000000000000000000000000000602082015250565b7f50424d3a20636f6e747261637420697320657870697265640000000000000000600082015250565b7f455243313135353a2061646472657373207a65726f206973206e6f742061207660008201527f616c6964206f776e657200000000000000000000000000000000000000000000602082015250565b7f45524332303a20496e737566666963656e742062616c616e6365206f7220617060008201527f70726f76616c0000000000000000000000000000000000000000000000000000602082015250565b7f455243313135353a207472616e7366657220746f20746865207a65726f20616460008201527f6472657373000000000000000000000000000000000000000000000000000000602082015250565b7f455243313135353a206275726e2066726f6d20746865207a65726f206164647260008201527f6573730000000000000000000000000000000000000000000000000000000000602082015250565b7f455243313135353a20696e73756666696369656e742062616c616e636520666f60008201527f72207472616e7366657200000000000000000000000000000000000000000000602082015250565b7f50424d3a20496e76616c696420746f6b656e2069640000000000000000000000600082015250565b7f4f776e61626c653a2063616c6c6572206973206e6f7420746865206f776e6572600082015250565b7f50424d203a20696e76616c696420657870697279000000000000000000000000600082015250565b7f556e657175616c2069647320616e6420616d6f756e747320737570706c696564600082015250565b7f556e657175616c2069647320616e6420616d6f756e7473000000000000000000600082015250565b7f455243313135353a2073657474696e6720617070726f76616c2073746174757360008201527f20666f722073656c660000000000000000000000000000000000000000000000602082015250565b7f455243313135353a206163636f756e747320616e6420696473206c656e67746860008201527f206d69736d617463680000000000000000000000000000000000000000000000602082015250565b7f455243313135353a2069647320616e6420616d6f756e7473206c656e6774682060008201527f6d69736d61746368000000000000000000000000000000000000000000000000602082015250565b7f455243313135353a206d696e7420746f20746865207a65726f2061646472657360008201527f7300000000000000000000000000000000000000000000000000000000000000602082015250565b7f496e746572616374696f6e2077697468207468652073706f7420746f6b656e2060008201527f6661696c65642e00000000000000000000000000000000000000000000000000602082015250565b7f50424d3a20496e76616c696420746f6b656e2069642873290000000000000000600082015250565b600060443d10156157875761580a565b61578f614db1565b60043d036004823e80513d602482011167ffffffffffffffff821117156157b757505061580a565b808201805167ffffffffffffffff8111156157d5575050505061580a565b80602083010160043d0385018111156157f257505050505061580a565b61580182602001850186615057565b82955050505050505b90565b61581681614fa1565b811461582157600080fd5b50565b61582d81614fb3565b811461583857600080fd5b50565b61584481614fbf565b811461584f57600080fd5b50565b61585b8161500b565b811461586657600080fd5b5056fea2646970667358221220635b5276fc5a15af7f8733cd0333ecfcc0181c8f70076b1b08409121e6623d1d64736f6c6343000807003360a060405260006001553480156200001657600080fd5b50604051620020493803806200204983398181016040528101906200003c9190620002ad565b6200005c62000050620000b360201b60201c565b620000bb60201b60201c565b3073ffffffffffffffffffffffffffffffffffffffff1660808173ffffffffffffffffffffffffffffffffffffffff1660601b815250508060029080519060200190620000ab9291906200017f565b505062000482565b600033905090565b60008060009054906101000a900473ffffffffffffffffffffffffffffffffffffffff169050816000806101000a81548173ffffffffffffffffffffffffffffffffffffffff021916908373ffffffffffffffffffffffffffffffffffffffff1602179055508173ffffffffffffffffffffffffffffffffffffffff168173ffffffffffffffffffffffffffffffffffffffff167f8be0079c531659141344cd1fd0a4f28419497f9722a3daafe3b4186f6b6457e060405160405180910390a35050565b8280546200018d9062000393565b90600052602060002090601f016020900481019282620001b15760008555620001fd565b82601f10620001cc57805160ff1916838001178555620001fd565b82800160010185558215620001fd579182015b82811115620001fc578251825591602001919060010190620001df565b5b5090506200020c919062000210565b5090565b5b808211156200022b57600081600090555060010162000211565b5090565b600062000246620002408462000327565b620002fe565b90508281526020810184848401111562000265576200026462000462565b5b620002728482856200035d565b509392505050565b600082601f8301126200029257620002916200045d565b5b8151620002a48482602086016200022f565b91505092915050565b600060208284031215620002c657620002c56200046c565b5b600082015167ffffffffffffffff811115620002e757620002e662000467565b5b620002f5848285016200027a565b91505092915050565b60006200030a6200031d565b9050620003188282620003c9565b919050565b6000604051905090565b600067ffffffffffffffff8211156200034557620003446200042e565b5b620003508262000471565b9050602081019050919050565b60005b838110156200037d57808201518184015260208101905062000360565b838111156200038d576000848401525b50505050565b60006002820490506001821680620003ac57607f821691505b60208210811415620003c357620003c2620003ff565b5b50919050565b620003d48262000471565b810181811067ffffffffffffffff82111715620003f657620003f56200042e565b5b80604052505050565b7f4e487b7100000000000000000000000000000000000000000000000000000000600052602260045260246000fd5b7f4e487b7100000000000000000000000000000000000000000000000000000000600052604160045260246000fd5b600080fd5b600080fd5b600080fd5b600080fd5b6000601f19601f8301169050919050565b60805160601c611ba8620004a16000396000610cfa0152611ba86000f3fe608060405234801561001057600080fd5b50600436106100cf5760003560e01c80638da5cb5b1161008c578063d10424c711610066578063d10424c714610227578063e21c8b5914610257578063f2fde38b14610273578063f600d9f41461028f576100cf565b80638da5cb5b146101a6578063934689a9146101c4578063c1e03728146101f4576100cf565b80630e89341c146100d4578063234661c41461010457806336a3409c1461013457806348fd09f514610150578063715018a61461018057806380d69c8a1461018a575b600080fd5b6100ee60048036038101906100e99190611275565b6102ab565b6040516100fb91906114a5565b60405180910390f35b61011e60048036038101906101199190611275565b610403565b60405161012b91906115d3565b60405180910390f35b61014e600480360381019061014991906112a2565b610423565b005b61016a600480360381019061016591906110ef565b610511565b604051610177919061148a565b60405180910390f35b610188610589565b005b6101a4600480360381019061019f91906111b0565b61059d565b005b6101ae610812565b6040516101bb919061146f565b60405180910390f35b6101de60048036038101906101d99190611275565b61083b565b6040516101eb919061146f565b60405180910390f35b61020e60048036038101906102099190611275565b61087b565b60405161021e94939291906114c7565b60405180910390f35b610241600480360381019061023c9190611275565b610998565b60405161024e91906115d3565b60405180910390f35b610271600480360381019061026c9190611138565b6109b8565b005b61028d600480360381019061028891906110c2565b610a75565b005b6102a960048036038101906102a49190611138565b610af9565b005b60606003600083815260200190815260200160002060020154421061035c57600280546102d790611836565b80601f016020809104026020016040519081016040528092919081815260200182805461030390611836565b80156103505780601f1061032557610100808354040283529160200191610350565b820191906000526020600020905b81548152906001019060200180831161033357829003601f168201915b505050505090506103fe565b60036000838152602001908152602001600020600501805461037d90611836565b80601f01602080910402602001604051908101604052809291908181526020018280546103a990611836565b80156103f65780601f106103cb576101008083540402835291602001916103f6565b820191906000526020600020905b8154815290600101906020018083116103d957829003601f168201915b505050505090505b919050565b600060036000838152602001908152602001600020600401549050919050565b61042b610bb6565b6003600083815260200190815260200160002060030160009054906101000a900473ffffffffffffffffffffffffffffffffffffffff1673ffffffffffffffffffffffffffffffffffffffff168173ffffffffffffffffffffffffffffffffffffffff161480156104b2575060036000838152602001908152602001600020600201544210155b6104f1576040517f08c379a00000000000000000000000000000000000000000000000000000000081526004016104e890611513565b60405180910390fd5b600060036000848152602001908152602001600020600401819055505050565b600080600090505b825181101561057e57600360008281526020019081526020016000206002015442118061055c575060006003600083815260200190815260200160002060010154145b1561056b576000915050610584565b808061057690611899565b915050610519565b50600190505b919050565b610591610bb6565b61059b6000610c34565b565b6105a5610bb6565b6105ad610cf8565b808411156105f0576040517f08c379a00000000000000000000000000000000000000000000000000000000081526004016105e790611573565b60405180910390fd5b428411610632576040517f08c379a000000000000000000000000000000000000000000000000000000000815260040161062990611593565b60405180910390fd5b6000851415610676576040517f08c379a000000000000000000000000000000000000000000000000000000000815260040161066d906115b3565b60405180910390fd5b60008661068287610d52565b60405160200161069392919061144b565b60405160208183030381529060405290508060036000600154815260200190815260200160002060000190805190602001906106d0929190610ee7565b50856003600060015481526020019081526020016000206001018190555084600360006001548152602001908152602001600020600201819055508360036000600154815260200190815260200160002060030160006101000a81548173ffffffffffffffffffffffffffffffffffffffff021916908373ffffffffffffffffffffffffffffffffffffffff1602179055506000600360006001548152602001908152602001600020600401819055508260036000600154815260200190815260200160002060050190805190602001906107ac929190610ee7565b507fbbb805bf89819da42bb55052edd2bf6db1c2256ec4c19cf1607de95efc92762f600154828888886040516107e69594939291906115ee565b60405180910390a161080360018054610eb390919063ffffffff16565b60018190555050505050505050565b60008060009054906101000a900473ffffffffffffffffffffffffffffffffffffffff16905090565b60006003600083815260200190815260200160002060030160009054906101000a900473ffffffffffffffffffffffffffffffffffffffff169050919050565b6060600080600060036000868152602001908152602001600020600001600360008781526020019081526020016000206001015460036000888152602001908152602001600020600201546003600089815260200190815260200160002060030160009054906101000a900473ffffffffffffffffffffffffffffffffffffffff1683805461090990611836565b80601f016020809104026020016040519081016040528092919081815260200182805461093590611836565b80156109825780601f1061095757610100808354040283529160200191610982565b820191906000526020600020905b81548152906001019060200180831161096557829003601f168201915b5050505050935093509350935093509193509193565b600060036000838152602001908152602001600020600101549050919050565b6109c0610bb6565b60005b8251811015610a7057610a298282815181106109e2576109e16119a0565b5b602002602001015160036000868581518110610a0157610a006119a0565b5b6020026020010151815260200190815260200160002060040154610ec990919063ffffffff16565b60036000858481518110610a4057610a3f6119a0565b5b60200260200101518152602001908152602001600020600401819055508080610a6890611899565b9150506109c3565b505050565b610a7d610bb6565b600073ffffffffffffffffffffffffffffffffffffffff168173ffffffffffffffffffffffffffffffffffffffff161415610aed576040517f08c379a0000000000000000000000000000000000000000000000000000000008152600401610ae490611533565b60405180910390fd5b610af681610c34565b50565b610b01610bb6565b60005b8251811015610bb157610b6a828281518110610b2357610b226119a0565b5b602002602001015160036000868581518110610b4257610b416119a0565b5b6020026020010151815260200190815260200160002060040154610eb390919063ffffffff16565b60036000858481518110610b8157610b806119a0565b5b60200260200101518152602001908152602001600020600401819055508080610ba990611899565b915050610b04565b505050565b610bbe610edf565b73ffffffffffffffffffffffffffffffffffffffff16610bdc610812565b73ffffffffffffffffffffffffffffffffffffffff1614610c32576040517f08c379a0000000000000000000000000000000000000000000000000000000008152600401610c2990611553565b60405180910390fd5b565b60008060009054906101000a900473ffffffffffffffffffffffffffffffffffffffff169050816000806101000a81548173ffffffffffffffffffffffffffffffffffffffff021916908373ffffffffffffffffffffffffffffffffffffffff1602179055508173ffffffffffffffffffffffffffffffffffffffff168173ffffffffffffffffffffffffffffffffffffffff167f8be0079c531659141344cd1fd0a4f28419497f9722a3daafe3b4186f6b6457e060405160405180910390a35050565b7f000000000000000000000000000000000000000000000000000000000000000073ffffffffffffffffffffffffffffffffffffffff163073ffffffffffffffffffffffffffffffffffffffff1614610d5057600080fd5b565b60606000821415610d9a576040518060400160405280600181526020017f30000000000000000000000000000000000000000000000000000000000000008152509050610eae565b600082905060005b60008214610dcc578080610db590611899565b915050600a82610dc59190611747565b9150610da2565b60008167ffffffffffffffff811115610de857610de76119cf565b5b6040519080825280601f01601f191660200182016040528015610e1a5781602001600182028036833780820191505090505b5090505b60008514610ea757600182610e339190611778565b9150600a85610e4291906118e2565b6030610e4e91906116f1565b60f81b818381518110610e6457610e636119a0565b5b60200101907effffffffffffffffffffffffffffffffffffffffffffffffffffffffffffff1916908160001a905350600a85610ea09190611747565b9450610e1e565b8093505050505b919050565b60008183610ec191906116f1565b905092915050565b60008183610ed79190611778565b905092915050565b600033905090565b828054610ef390611836565b90600052602060002090601f016020900481019282610f155760008555610f5c565b82601f10610f2e57805160ff1916838001178555610f5c565b82800160010185558215610f5c579182015b82811115610f5b578251825591602001919060010190610f40565b5b509050610f699190610f6d565b5090565b5b80821115610f86576000816000905550600101610f6e565b5090565b6000610f9d610f988461166d565b611648565b90508083825260208201905082856020860282011115610fc057610fbf611a03565b5b60005b85811015610ff05781610fd688826110ad565b845260208401935060208301925050600181019050610fc3565b5050509392505050565b600061100d61100884611699565b611648565b90508281526020810184848401111561102957611028611a08565b5b6110348482856117f4565b509392505050565b60008135905061104b81611b44565b92915050565b600082601f830112611066576110656119fe565b5b8135611076848260208601610f8a565b91505092915050565b600082601f830112611094576110936119fe565b5b81356110a4848260208601610ffa565b91505092915050565b6000813590506110bc81611b5b565b92915050565b6000602082840312156110d8576110d7611a12565b5b60006110e68482850161103c565b91505092915050565b60006020828403121561110557611104611a12565b5b600082013567ffffffffffffffff81111561112357611122611a0d565b5b61112f84828501611051565b91505092915050565b6000806040838503121561114f5761114e611a12565b5b600083013567ffffffffffffffff81111561116d5761116c611a0d565b5b61117985828601611051565b925050602083013567ffffffffffffffff81111561119a57611199611a0d565b5b6111a685828601611051565b9150509250929050565b60008060008060008060c087890312156111cd576111cc611a12565b5b600087013567ffffffffffffffff8111156111eb576111ea611a0d565b5b6111f789828a0161107f565b965050602061120889828a016110ad565b955050604061121989828a016110ad565b945050606061122a89828a0161103c565b935050608087013567ffffffffffffffff81111561124b5761124a611a0d565b5b61125789828a0161107f565b92505060a061126889828a016110ad565b9150509295509295509295565b60006020828403121561128b5761128a611a12565b5b6000611299848285016110ad565b91505092915050565b600080604083850312156112b9576112b8611a12565b5b60006112c7858286016110ad565b92505060206112d88582860161103c565b9150509250929050565b6112eb816117ac565b82525050565b6112fa816117be565b82525050565b600061130b826116ca565b61131581856116d5565b9350611325818560208601611803565b61132e81611a17565b840191505092915050565b6000611344826116ca565b61134e81856116e6565b935061135e818560208601611803565b80840191505092915050565b60006113776011836116d5565b915061138282611a28565b602082019050919050565b600061139a6026836116d5565b91506113a582611a51565b604082019050919050565b60006113bd6020836116d5565b91506113c882611aa0565b602082019050919050565b60006113e06016836116d5565b91506113eb82611ac9565b602082019050919050565b60006114036016836116d5565b915061140e82611af2565b602082019050919050565b60006114266010836116d5565b915061143182611b1b565b602082019050919050565b611445816117ea565b82525050565b60006114578285611339565b91506114638284611339565b91508190509392505050565b600060208201905061148460008301846112e2565b92915050565b600060208201905061149f60008301846112f1565b92915050565b600060208201905081810360008301526114bf8184611300565b905092915050565b600060808201905081810360008301526114e18187611300565b90506114f0602083018661143c565b6114fd604083018561143c565b61150a60608301846112e2565b95945050505050565b6000602082019050818103600083015261152c8161136a565b9050919050565b6000602082019050818103600083015261154c8161138d565b9050919050565b6000602082019050818103600083015261156c816113b0565b9050919050565b6000602082019050818103600083015261158c816113d3565b9050919050565b600060208201905081810360008301526115ac816113f6565b9050919050565b600060208201905081810360008301526115cc81611419565b9050919050565b60006020820190506115e8600083018461143c565b92915050565b600060a082019050611603600083018861143c565b81810360208301526116158187611300565b9050611624604083018661143c565b611631606083018561143c565b61163e60808301846112e2565b9695505050505050565b6000611652611663565b905061165e8282611868565b919050565b6000604051905090565b600067ffffffffffffffff821115611688576116876119cf565b5b602082029050602081019050919050565b600067ffffffffffffffff8211156116b4576116b36119cf565b5b6116bd82611a17565b9050602081019050919050565b600081519050919050565b600082825260208201905092915050565b600081905092915050565b60006116fc826117ea565b9150611707836117ea565b9250827fffffffffffffffffffffffffffffffffffffffffffffffffffffffffffffffff0382111561173c5761173b611913565b5b828201905092915050565b6000611752826117ea565b915061175d836117ea565b92508261176d5761176c611942565b5b828204905092915050565b6000611783826117ea565b915061178e836117ea565b9250828210156117a1576117a0611913565b5b828203905092915050565b60006117b7826117ca565b9050919050565b60008115159050919050565b600073ffffffffffffffffffffffffffffffffffffffff82169050919050565b6000819050919050565b82818337600083830152505050565b60005b83811015611821578082015181840152602081019050611806565b83811115611830576000848401525b50505050565b6000600282049050600182168061184e57607f821691505b6020821081141561186257611861611971565b5b50919050565b61187182611a17565b810181811067ffffffffffffffff821117156118905761188f6119cf565b5b80604052505050565b60006118a4826117ea565b91507fffffffffffffffffffffffffffffffffffffffffffffffffffffffffffffffff8214156118d7576118d6611913565b5b600182019050919050565b60006118ed826117ea565b91506118f8836117ea565b92508261190857611907611942565b5b828206905092915050565b7f4e487b7100000000000000000000000000000000000000000000000000000000600052601160045260246000fd5b7f4e487b7100000000000000000000000000000000000000000000000000000000600052601260045260246000fd5b7f4e487b7100000000000000000000000000000000000000000000000000000000600052602260045260246000fd5b7f4e487b7100000000000000000000000000000000000000000000000000000000600052603260045260246000fd5b7f4e487b7100000000000000000000000000000000000000000000000000000000600052604160045260246000fd5b600080fd5b600080fd5b600080fd5b600080fd5b600080fd5b6000601f19601f8301169050919050565b7f50424d206e6f74207265766f6b61626c65000000000000000000000000000000600082015250565b7f4f776e61626c653a206e6577206f776e657220697320746865207a65726f206160008201527f6464726573730000000000000000000000000000000000000000000000000000602082015250565b7f4f776e61626c653a2063616c6c6572206973206e6f7420746865206f776e6572600082015250565b7f496e76616c696420746f6b656e206578706972792d3100000000000000000000600082015250565b7f496e76616c696420746f6b656e206578706972792d3200000000000000000000600082015250565b7f53706f7420616d6f756e74206973203000000000000000000000000000000000600082015250565b611b4d816117ac565b8114611b5857600080fd5b50565b611b64816117ea565b8114611b6f57600080fd5b5056fea2646970667358221220f3ed86d61f86b37e35eb5cb92d9223d675f309513c1946d7a65a3747c6886ea964736f6c63430008070033",
  "immutableReferences": {},
  "source": "// SPDX-License-Identifier: MIT\npragma solidity ^0.8.7;\n\nimport \"@openzeppelin/contracts/token/ERC1155/ERC1155.sol\";\nimport \"@openzeppelin/contracts/access/Ownable.sol\";\nimport \"@openzeppelin/contracts/utils/Strings.sol\";\nimport \"@openzeppelin/contracts/utils/math/SafeMath.sol\";\n//import \"@openzeppelin/contracts/security/Pausable.sol\";\n\nimport \"./ERC20Helper.sol\";  \nimport \"./PBMTokenManager.sol\"; \n\ncontract PBM is ERC1155, Ownable, Pausable {  \n    using Strings for uint256;\n    using SafeMath for uint256 ; \n\n    address public spotToken ; \n    uint256 public contractExpiry ; \n    mapping (address => bool) public merchantList ; \n\n    string private uriPostExpiry ; \n    address public pbmTokenManager; \n    \n    event merchantPayment(address from , address to, uint256[] tokenIds, uint256[] amounts, uint256 value); \n    event PBMrevokeWithdraw(address beneficiary, uint256 PBMTokenId, address ERC20Token, uint256 ERC20TokenValue);\n\n\n    constructor(address _spotToken, uint256 _expiry, string memory _uriPostExpiry) ERC1155(\"\") {\n        spotToken = _spotToken ;\n        contractExpiry = _expiry ; \n\n        pbmTokenManager = address(new PBMTokenManager(_uriPostExpiry)) ; \n    }\n\n    modifier whenContractNotExpired() {\n        require(block.timestamp < contractExpiry, \"PBM: contract is expired\");\n        _;\n    }\n    \n    function extendPBMExpiry(uint256 extendedExpiry)\n    external \n    onlyOwner\n    whenContractNotExpired\n    \n    {   \n        require(extendedExpiry > contractExpiry, \"PBM : invalid expiry\") ; \n        contractExpiry = extendedExpiry; \n    }\n\n    function addMerchantAddresses(address[] memory addresses) \n    external\n    whenContractNotExpired\n    onlyOwner {\n        for (uint256 i = 0; i < addresses.length; i++) {\n            merchantList[addresses[i]] = true;\n        }\n    }  \n\n    function removeMerchantAddresses(address[] memory addresses) \n    external \n    whenContractNotExpired\n    onlyOwner\n    {\n        for (uint256 i = 0; i < addresses.length; i++) {\n            merchantList[addresses[i]] = false;\n        } \n    }\n\n    function createPBMTokenType(string memory companyName, uint256 spotAmount, uint256 tokenExpiry,address creator, string memory tokenURI) \n    external \n    onlyOwner \n    whenContractNotExpired\n    \n    {        \n        PBMTokenManager(pbmTokenManager).createTokenType(companyName, spotAmount, tokenExpiry, creator,  tokenURI, contractExpiry);\n    }\n\n    function mint(uint256 tokenId, uint256 amount, address receiver) \n    external  \n    whenContractNotExpired\n    \n    {\n        require(PBMTokenManager(pbmTokenManager).areTokensValid(serialise(tokenId)), \"PBM: Invalid token id\");\n        uint256 valueOfNewTokens = amount.mul(PBMTokenManager(pbmTokenManager).getTokenValue(tokenId)); \n\n        //Transfer the spot token from the user to the contract to wrap it\n        ERC20Helper.safeTransferFrom(spotToken, msg.sender, address(this), valueOfNewTokens);\n\n        // mint the token if the contract - wrapping the xsgd\n        PBMTokenManager(pbmTokenManager).increaseBalanceSupply(serialise(tokenId), serialise(amount)) ; \n        _mint(receiver, tokenId, amount, ''); \n    }\n\n    function batchMint(uint256[] memory tokenIds, uint256[] memory amounts, address receiver) \n    external \n    whenContractNotExpired\n    \n    {   \n        require(tokenIds.length == amounts.length, \"Unequal ids and amounts\"); \n\n        // calculate the value of the new tokens\n        uint256 valueOfNewTokens = 0 ; \n        require(PBMTokenManager(pbmTokenManager).areTokensValid(tokenIds), \"PBM: Invalid token id(s)\");\n\n        for (uint256 i = 0; i < tokenIds.length; i++) {\n            valueOfNewTokens = valueOfNewTokens.add(amounts[i].mul(PBMTokenManager(pbmTokenManager).getTokenValue(tokenIds[i])));  \n        } \n\n        // Transfer spot tokenf from user to contract to wrap it\n        ERC20Helper.safeTransferFrom(spotToken, msg.sender, address(this), valueOfNewTokens);\n        PBMTokenManager(pbmTokenManager).increaseBalanceSupply(tokenIds, amounts);\n        _mintBatch(receiver, tokenIds, amounts, '');\n    }\n\n    function safeTransferFrom( address from, address to, uint256 id, uint256 amount, bytes memory data) \n    public   \n    override\n    whenContractNotExpired\n      \n    {\n        require(\n            from == _msgSender() || isApprovedForAll(from, _msgSender()),\n            \"ERC1155: caller is not token owner nor approved\"\n        );\n\n        require(PBMTokenManager(pbmTokenManager).areTokensValid(serialise(id)), \"PBM: Invalid token id\");\n\n        if (merchantList[to]){\n            uint256 valueOfTokens = amount.mul(PBMTokenManager(pbmTokenManager).getTokenValue(id)); \n\n            // burn and transfer underlying ERC-20\n            _burn(from, id, amount);\n            PBMTokenManager(pbmTokenManager).decreaseBalanceSupply(serialise(id), serialise(amount)) ; \n            ERC20Helper.safeTransfer(spotToken, to, valueOfTokens);\n            emit merchantPayment(from, to, serialise(id), serialise(amount), valueOfTokens);\n\n        } else {\n            _safeTransferFrom(from, to, id, amount, data);\n        }\n \n    }\n    \n    function safeBatchTransferFrom(address from,address to,uint256[] memory ids,uint256[] memory amounts, bytes memory data) \n    public  \n    override\n    whenContractNotExpired\n     \n    {\n        require(\n            from == _msgSender() || isApprovedForAll(from, _msgSender()),\n            \"ERC1155: caller is not token owner nor approved\"\n        );\n        require(ids.length == amounts.length, \"Unequal ids and amounts supplied\"); \n        require(PBMTokenManager(pbmTokenManager).areTokensValid(ids), \"PBM: Invalid token id(s)\");\n\n        if (merchantList[to]){\n            uint256 valueOfTokens = 0 ; \n            for (uint256 i = 0; i < ids.length; i++) {\n                valueOfTokens = valueOfTokens.add(amounts[i].mul(PBMTokenManager(pbmTokenManager).getTokenValue(ids[i]))) ; \n            } \n\n            _burnBatch(from, ids, amounts);\n            PBMTokenManager(pbmTokenManager).decreaseBalanceSupply(ids, amounts);\n            ERC20Helper.safeTransfer(spotToken, to, valueOfTokens);\n\n            emit merchantPayment(from, to, ids, amounts, valueOfTokens);\n\n        } else {\n            _safeBatchTransferFrom(from, to, ids, amounts, data);\n        }\n    }\n    \n    function revokePBM(uint256 tokenId) \n    external \n     \n    {\n        uint256 PBMTokenBalanceSupply = PBMTokenManager(pbmTokenManager).getTokenCount(tokenId); \n        uint256 valueOfTokens = PBMTokenBalanceSupply.mul(PBMTokenManager(pbmTokenManager).getTokenValue(tokenId)); \n\n        PBMTokenManager(pbmTokenManager).revokePBM(tokenId, msg.sender); \n\n        // transfering underlying ERC20 tokens\n        ERC20Helper.safeTransfer(spotToken, msg.sender, valueOfTokens);\n\n        emit PBMrevokeWithdraw(msg.sender, tokenId, spotToken, valueOfTokens);\n\n    }\n\n    function getTokenDetails(uint256 tokenId) \n    external \n    view \n    returns (string memory, uint256, uint256, address) \n    {\n        return PBMTokenManager(pbmTokenManager).getTokenDetails(tokenId); \n    }\n\n    function uri(uint256 tokenId)\n    public  \n    view\n    override(ERC1155)\n    returns (string memory)\n    {\n        return PBMTokenManager(pbmTokenManager).uri(tokenId);\n    }\n\n    function serialise(uint256 num)\n    internal \n    pure\n    returns (uint256[] memory) {\n        uint256[] memory array  = new uint256[](1) ; \n        array[0] = num ; \n        return array ;\n    }\n}",
  "sourcePath": "/Users/mihir/Desktop/code/Orchid-PBM/contracts/PBM.sol",
  "compiler": {
    "name": "solc",
    "version": "0.8.7+commit.e28d00a7.Emscripten.clang"
  },
  "schemaVersion": "3.4.3",
  "updatedAt": "2022-09-18T13:07:19.400Z",
  "devdoc": {
    "kind": "dev",
    "methods": {
      "balanceOf(address,uint256)": {
        "details": "See {IERC1155-balanceOf}. Requirements: - `account` cannot be the zero address."
      },
      "balanceOfBatch(address[],uint256[])": {
        "details": "See {IERC1155-balanceOfBatch}. Requirements: - `accounts` and `ids` must have the same length."
      },
      "isApprovedForAll(address,address)": {
        "details": "See {IERC1155-isApprovedForAll}."
      },
      "owner()": {
        "details": "Returns the address of the current owner."
      },
      "paused()": {
        "details": "Returns true if the contract is paused, and false otherwise."
      },
      "renounceOwnership()": {
        "details": "Leaves the contract without owner. It will not be possible to call `onlyOwner` functions anymore. Can only be called by the current owner. NOTE: Renouncing ownership will leave the contract without an owner, thereby removing any functionality that is only available to the owner."
      },
      "safeBatchTransferFrom(address,address,uint256[],uint256[],bytes)": {
        "details": "See {IERC1155-safeBatchTransferFrom}."
      },
      "safeTransferFrom(address,address,uint256,uint256,bytes)": {
        "details": "See {IERC1155-safeTransferFrom}."
      },
      "setApprovalForAll(address,bool)": {
        "details": "See {IERC1155-setApprovalForAll}."
      },
      "supportsInterface(bytes4)": {
        "details": "See {IERC165-supportsInterface}."
      },
      "transferOwnership(address)": {
        "details": "Transfers ownership of the contract to a new account (`newOwner`). Can only be called by the current owner."
      }
    },
    "version": 1
  },
  "userdoc": {
    "kind": "user",
    "methods": {},
    "version": 1
  }
}