{
  "contractName": "PBM",
  "abi": [
    {
      "inputs": [
        {
          "internalType": "string",
          "name": "_uriPostExpiry",
          "type": "string"
        }
      ],
      "stateMutability": "nonpayable",
      "type": "constructor"
    },
    {
      "anonymous": false,
      "inputs": [
        {
          "indexed": true,
          "internalType": "address",
          "name": "account",
          "type": "address"
        },
        {
          "indexed": true,
          "internalType": "address",
          "name": "operator",
          "type": "address"
        },
        {
          "indexed": false,
          "internalType": "bool",
          "name": "approved",
          "type": "bool"
        }
      ],
      "name": "ApprovalForAll",
      "type": "event"
    },
    {
      "anonymous": false,
      "inputs": [
        {
          "indexed": false,
          "internalType": "address",
          "name": "from",
          "type": "address"
        },
        {
          "indexed": false,
          "internalType": "address",
          "name": "to",
          "type": "address"
        },
        {
          "indexed": false,
          "internalType": "uint256[]",
          "name": "tokenIds",
          "type": "uint256[]"
        },
        {
          "indexed": false,
          "internalType": "uint256[]",
          "name": "amounts",
          "type": "uint256[]"
        },
        {
          "indexed": false,
          "internalType": "address",
          "name": "ERC20Token",
          "type": "address"
        },
        {
          "indexed": false,
          "internalType": "uint256",
          "name": "ERC20TokenValue",
          "type": "uint256"
        }
      ],
      "name": "MerchantPayment",
      "type": "event"
    },
    {
      "anonymous": false,
      "inputs": [
        {
          "indexed": true,
          "internalType": "address",
          "name": "previousOwner",
          "type": "address"
        },
        {
          "indexed": true,
          "internalType": "address",
          "name": "newOwner",
          "type": "address"
        }
      ],
      "name": "OwnershipTransferred",
      "type": "event"
    },
    {
      "anonymous": false,
      "inputs": [
        {
          "indexed": false,
          "internalType": "address",
          "name": "beneficiary",
          "type": "address"
        },
        {
          "indexed": false,
          "internalType": "uint256",
          "name": "PBMTokenId",
          "type": "uint256"
        },
        {
          "indexed": false,
          "internalType": "address",
          "name": "ERC20Token",
          "type": "address"
        },
        {
          "indexed": false,
          "internalType": "uint256",
          "name": "ERC20TokenValue",
          "type": "uint256"
        }
      ],
      "name": "PBMrevokeWithdraw",
      "type": "event"
    },
    {
      "anonymous": false,
      "inputs": [
        {
          "indexed": false,
          "internalType": "address",
          "name": "account",
          "type": "address"
        }
      ],
      "name": "Paused",
      "type": "event"
    },
    {
      "anonymous": false,
      "inputs": [
        {
          "indexed": true,
          "internalType": "address",
          "name": "operator",
          "type": "address"
        },
        {
          "indexed": true,
          "internalType": "address",
          "name": "from",
          "type": "address"
        },
        {
          "indexed": true,
          "internalType": "address",
          "name": "to",
          "type": "address"
        },
        {
          "indexed": false,
          "internalType": "uint256[]",
          "name": "ids",
          "type": "uint256[]"
        },
        {
          "indexed": false,
          "internalType": "uint256[]",
          "name": "values",
          "type": "uint256[]"
        }
      ],
      "name": "TransferBatch",
      "type": "event"
    },
    {
      "anonymous": false,
      "inputs": [
        {
          "indexed": true,
          "internalType": "address",
          "name": "operator",
          "type": "address"
        },
        {
          "indexed": true,
          "internalType": "address",
          "name": "from",
          "type": "address"
        },
        {
          "indexed": true,
          "internalType": "address",
          "name": "to",
          "type": "address"
        },
        {
          "indexed": false,
          "internalType": "uint256",
          "name": "id",
          "type": "uint256"
        },
        {
          "indexed": false,
          "internalType": "uint256",
          "name": "value",
          "type": "uint256"
        }
      ],
      "name": "TransferSingle",
      "type": "event"
    },
    {
      "anonymous": false,
      "inputs": [
        {
          "indexed": false,
          "internalType": "string",
          "name": "value",
          "type": "string"
        },
        {
          "indexed": true,
          "internalType": "uint256",
          "name": "id",
          "type": "uint256"
        }
      ],
      "name": "URI",
      "type": "event"
    },
    {
      "anonymous": false,
      "inputs": [
        {
          "indexed": false,
          "internalType": "address",
          "name": "account",
          "type": "address"
        }
      ],
      "name": "Unpaused",
      "type": "event"
    },
    {
      "inputs": [
        {
          "internalType": "address",
          "name": "account",
          "type": "address"
        },
        {
          "internalType": "uint256",
          "name": "id",
          "type": "uint256"
        }
      ],
      "name": "balanceOf",
      "outputs": [
        {
          "internalType": "uint256",
          "name": "",
          "type": "uint256"
        }
      ],
      "stateMutability": "view",
      "type": "function"
    },
    {
      "inputs": [
        {
          "internalType": "address[]",
          "name": "accounts",
          "type": "address[]"
        },
        {
          "internalType": "uint256[]",
          "name": "ids",
          "type": "uint256[]"
        }
      ],
      "name": "balanceOfBatch",
      "outputs": [
        {
          "internalType": "uint256[]",
          "name": "",
          "type": "uint256[]"
        }
      ],
      "stateMutability": "view",
      "type": "function"
    },
    {
      "inputs": [],
      "name": "contractExpiry",
      "outputs": [
        {
          "internalType": "uint256",
          "name": "",
          "type": "uint256"
        }
      ],
      "stateMutability": "view",
      "type": "function"
    },
    {
      "inputs": [
        {
          "internalType": "address",
          "name": "account",
          "type": "address"
        },
        {
          "internalType": "address",
          "name": "operator",
          "type": "address"
        }
      ],
      "name": "isApprovedForAll",
      "outputs": [
        {
          "internalType": "bool",
          "name": "",
          "type": "bool"
        }
      ],
      "stateMutability": "view",
      "type": "function"
    },
    {
      "inputs": [],
      "name": "owner",
      "outputs": [
        {
          "internalType": "address",
          "name": "",
          "type": "address"
        }
      ],
      "stateMutability": "view",
      "type": "function"
    },
    {
      "inputs": [],
      "name": "paused",
      "outputs": [
        {
          "internalType": "bool",
          "name": "",
          "type": "bool"
        }
      ],
      "stateMutability": "view",
      "type": "function"
    },
    {
      "inputs": [],
      "name": "pbmAddressList",
      "outputs": [
        {
          "internalType": "address",
          "name": "",
          "type": "address"
        }
      ],
      "stateMutability": "view",
      "type": "function"
    },
    {
      "inputs": [],
      "name": "pbmTokenManager",
      "outputs": [
        {
          "internalType": "address",
          "name": "",
          "type": "address"
        }
      ],
      "stateMutability": "view",
      "type": "function"
    },
    {
      "inputs": [],
      "name": "renounceOwnership",
      "outputs": [],
      "stateMutability": "nonpayable",
      "type": "function"
    },
    {
      "inputs": [
        {
          "internalType": "address",
          "name": "operator",
          "type": "address"
        },
        {
          "internalType": "bool",
          "name": "approved",
          "type": "bool"
        }
      ],
      "name": "setApprovalForAll",
      "outputs": [],
      "stateMutability": "nonpayable",
      "type": "function"
    },
    {
      "inputs": [],
      "name": "spotToken",
      "outputs": [
        {
          "internalType": "address",
          "name": "",
          "type": "address"
        }
      ],
      "stateMutability": "view",
      "type": "function"
    },
    {
      "inputs": [
        {
          "internalType": "bytes4",
          "name": "interfaceId",
          "type": "bytes4"
        }
      ],
      "name": "supportsInterface",
      "outputs": [
        {
          "internalType": "bool",
          "name": "",
          "type": "bool"
        }
      ],
      "stateMutability": "view",
      "type": "function"
    },
    {
      "inputs": [
        {
          "internalType": "address",
          "name": "newOwner",
          "type": "address"
        }
      ],
      "name": "transferOwnership",
      "outputs": [],
      "stateMutability": "nonpayable",
      "type": "function"
    },
    {
      "inputs": [
        {
          "internalType": "address",
          "name": "_spotToken",
          "type": "address"
        },
        {
          "internalType": "uint256",
          "name": "_expiry",
          "type": "uint256"
        },
        {
          "internalType": "address",
          "name": "_pbmAddressList",
          "type": "address"
        }
      ],
      "name": "initialise",
      "outputs": [],
      "stateMutability": "nonpayable",
      "type": "function"
    },
    {
      "inputs": [
        {
          "internalType": "string",
          "name": "companyName",
          "type": "string"
        },
        {
          "internalType": "uint256",
          "name": "spotAmount",
          "type": "uint256"
        },
        {
          "internalType": "uint256",
          "name": "tokenExpiry",
          "type": "uint256"
        },
        {
          "internalType": "address",
          "name": "creator",
          "type": "address"
        },
        {
          "internalType": "string",
          "name": "tokenURI",
          "type": "string"
        }
      ],
      "name": "createPBMTokenType",
      "outputs": [],
      "stateMutability": "nonpayable",
      "type": "function"
    },
    {
      "inputs": [
        {
          "internalType": "uint256",
          "name": "tokenId",
          "type": "uint256"
        },
        {
          "internalType": "uint256",
          "name": "amount",
          "type": "uint256"
        },
        {
          "internalType": "address",
          "name": "receiver",
          "type": "address"
        }
      ],
      "name": "mint",
      "outputs": [],
      "stateMutability": "nonpayable",
      "type": "function"
    },
    {
      "inputs": [
        {
          "internalType": "uint256[]",
          "name": "tokenIds",
          "type": "uint256[]"
        },
        {
          "internalType": "uint256[]",
          "name": "amounts",
          "type": "uint256[]"
        },
        {
          "internalType": "address",
          "name": "receiver",
          "type": "address"
        }
      ],
      "name": "batchMint",
      "outputs": [],
      "stateMutability": "nonpayable",
      "type": "function"
    },
    {
      "inputs": [
        {
          "internalType": "address",
          "name": "from",
          "type": "address"
        },
        {
          "internalType": "address",
          "name": "to",
          "type": "address"
        },
        {
          "internalType": "uint256",
          "name": "id",
          "type": "uint256"
        },
        {
          "internalType": "uint256",
          "name": "amount",
          "type": "uint256"
        },
        {
          "internalType": "bytes",
          "name": "data",
          "type": "bytes"
        }
      ],
      "name": "safeTransferFrom",
      "outputs": [],
      "stateMutability": "nonpayable",
      "type": "function"
    },
    {
      "inputs": [
        {
          "internalType": "address",
          "name": "from",
          "type": "address"
        },
        {
          "internalType": "address",
          "name": "to",
          "type": "address"
        },
        {
          "internalType": "uint256[]",
          "name": "ids",
          "type": "uint256[]"
        },
        {
          "internalType": "uint256[]",
          "name": "amounts",
          "type": "uint256[]"
        },
        {
          "internalType": "bytes",
          "name": "data",
          "type": "bytes"
        }
      ],
      "name": "safeBatchTransferFrom",
      "outputs": [],
      "stateMutability": "nonpayable",
      "type": "function"
    },
    {
      "inputs": [
        {
          "internalType": "uint256",
          "name": "tokenId",
          "type": "uint256"
        }
      ],
      "name": "revokePBM",
      "outputs": [],
      "stateMutability": "nonpayable",
      "type": "function"
    },
    {
      "inputs": [
        {
          "internalType": "uint256",
          "name": "tokenId",
          "type": "uint256"
        }
      ],
      "name": "getTokenDetails",
      "outputs": [
        {
          "internalType": "string",
          "name": "",
          "type": "string"
        },
        {
          "internalType": "uint256",
          "name": "",
          "type": "uint256"
        },
        {
          "internalType": "uint256",
          "name": "",
          "type": "uint256"
        },
        {
          "internalType": "address",
          "name": "",
          "type": "address"
        }
      ],
      "stateMutability": "view",
      "type": "function"
    },
    {
      "inputs": [
        {
          "internalType": "uint256",
          "name": "tokenId",
          "type": "uint256"
        }
      ],
      "name": "uri",
      "outputs": [
        {
          "internalType": "string",
          "name": "",
          "type": "string"
        }
      ],
      "stateMutability": "view",
      "type": "function"
    }
  ],
  "bytecode": "0x60806040526000600660146101000a81548160ff0219169083151502179055503480156200002c57600080fd5b5060405162007d8238038062007d82833981810160405281019062000052919062000355565b6040518060200160405280600081525062000073816200012f60201b60201c565b5062000094620000886200014b60201b60201c565b6200015360201b60201c565b6000600360146101000a81548160ff02191690831515021790555080604051620000be9062000219565b620000ca9190620003e7565b604051809103906000f080158015620000e7573d6000803e3d6000fd5b50600560006101000a81548173ffffffffffffffffffffffffffffffffffffffff021916908373ffffffffffffffffffffffffffffffffffffffff16021790555050620005ab565b80600290805190602001906200014792919062000227565b5050565b600033905090565b6000600360009054906101000a900473ffffffffffffffffffffffffffffffffffffffff16905081600360006101000a81548173ffffffffffffffffffffffffffffffffffffffff021916908373ffffffffffffffffffffffffffffffffffffffff1602179055508173ffffffffffffffffffffffffffffffffffffffff168173ffffffffffffffffffffffffffffffffffffffff167f8be0079c531659141344cd1fd0a4f28419497f9722a3daafe3b4186f6b6457e060405160405180910390a35050565b61248b80620058f783390190565b8280546200023590620004bc565b90600052602060002090601f016020900481019282620002595760008555620002a5565b82601f106200027457805160ff1916838001178555620002a5565b82800160010185558215620002a5579182015b82811115620002a457825182559160200191906001019062000287565b5b509050620002b49190620002b8565b5090565b5b80821115620002d3576000816000905550600101620002b9565b5090565b6000620002ee620002e88462000434565b6200040b565b9050828152602081018484840111156200030d576200030c6200058b565b5b6200031a84828562000486565b509392505050565b600082601f8301126200033a576200033962000586565b5b81516200034c848260208601620002d7565b91505092915050565b6000602082840312156200036e576200036d62000595565b5b600082015167ffffffffffffffff8111156200038f576200038e62000590565b5b6200039d8482850162000322565b91505092915050565b6000620003b3826200046a565b620003bf818562000475565b9350620003d181856020860162000486565b620003dc816200059a565b840191505092915050565b60006020820190508181036000830152620004038184620003a6565b905092915050565b6000620004176200042a565b9050620004258282620004f2565b919050565b6000604051905090565b600067ffffffffffffffff82111562000452576200045162000557565b5b6200045d826200059a565b9050602081019050919050565b600081519050919050565b600082825260208201905092915050565b60005b83811015620004a657808201518184015260208101905062000489565b83811115620004b6576000848401525b50505050565b60006002820490506001821680620004d557607f821691505b60208210811415620004ec57620004eb62000528565b5b50919050565b620004fd826200059a565b810181811067ffffffffffffffff821117156200051f576200051e62000557565b5b80604052505050565b7f4e487b7100000000000000000000000000000000000000000000000000000000600052602260045260246000fd5b7f4e487b7100000000000000000000000000000000000000000000000000000000600052604160045260246000fd5b600080fd5b600080fd5b600080fd5b600080fd5b6000601f19601f8301169050919050565b61533c80620005bb6000396000f3fe608060405234801561001057600080fd5b50600436106101415760003560e01c8063715018a6116100b8578063c1e037281161007c578063c1e0372814610350578063e7d3fe6b14610383578063e985e9c51461039f578063f242432a146103cf578063f2fde38b146103eb578063fb34b2011461040757610141565b8063715018a6146102d257806373e17e76146102dc57806389aba642146102f85780638da5cb5b14610316578063a22cb4651461033457610141565b80632eb2c2d61161010a5780632eb2c2d6146102105780634e1273f41461022c57806351e86cf61461025c5780635c975abb1461027a5780635ed7be9d1461029857806363be47d2146102b457610141565b8062fdd58e1461014657806301ffc9a71461017657806307e82e0f146101a65780630ad89462146101c25780630e89341c146101e0575b600080fd5b610160600480360381019061015b91906139e5565b610423565b60405161016d9190614818565b60405180910390f35b610190600480360381019061018b9190613ba8565b6104ec565b60405161019d91906144a0565b60405180910390f35b6101c060048036038101906101bb9190613a25565b6105ce565b005b6101ca6106b4565b6040516101d79190614256565b60405180910390f35b6101fa60048036038101906101f59190613d81565b6106da565b60405161020791906144bb565b60405180910390f35b61022a6004803603810190610225919061383f565b610793565b005b61024660048036038101906102419190613a78565b610c67565b6040516102539190614447565b60405180910390f35b610264610d80565b6040516102719190614256565b60405180910390f35b610282610da6565b60405161028f91906144a0565b60405180910390f35b6102b260048036038101906102ad9190613cce565b610dbd565b005b6102bc610e65565b6040516102c99190614256565b60405180910390f35b6102da610e8b565b005b6102f660048036038101906102f19190613d81565b610e9f565b005b610300611075565b60405161030d9190614818565b60405180910390f35b61031e61107b565b60405161032b9190614256565b60405180910390f35b61034e600480360381019061034991906139a5565b6110a5565b005b61036a60048036038101906103659190613d81565b6110bb565b60405161037a94939291906144dd565b60405180910390f35b61039d60048036038101906103989190613ddb565b611181565b005b6103b960048036038101906103b491906137ff565b611331565b6040516103c691906144a0565b60405180910390f35b6103e960048036038101906103e4919061390e565b6113c5565b005b610405600480360381019061040091906137d2565b611817565b005b610421600480360381019061041c9190613af0565b61189b565b005b60008073ffffffffffffffffffffffffffffffffffffffff168373ffffffffffffffffffffffffffffffffffffffff161415610494576040517f08c379a000000000000000000000000000000000000000000000000000000000815260040161048b90614658565b60405180910390fd5b60008083815260200190815260200160002060008473ffffffffffffffffffffffffffffffffffffffff1673ffffffffffffffffffffffffffffffffffffffff16815260200190815260200160002054905092915050565b60007fd9b67a26000000000000000000000000000000000000000000000000000000007bffffffffffffffffffffffffffffffffffffffffffffffffffffffff1916827bffffffffffffffffffffffffffffffffffffffffffffffffffffffff191614806105b757507f0e89341c000000000000000000000000000000000000000000000000000000007bffffffffffffffffffffffffffffffffffffffffffffffffffffffff1916827bffffffffffffffffffffffffffffffffffffffffffffffffffffffff1916145b806105c757506105c682611add565b5b9050919050565b6105d6611b47565b600660149054906101000a900460ff1615610626576040517f08c379a000000000000000000000000000000000000000000000000000000000815260040161061d90614638565b60405180910390fd5b82600460006101000a81548173ffffffffffffffffffffffffffffffffffffffff021916908373ffffffffffffffffffffffffffffffffffffffff1602179055508160078190555080600660006101000a81548173ffffffffffffffffffffffffffffffffffffffff021916908373ffffffffffffffffffffffffffffffffffffffff160217905550505050565b600460009054906101000a900473ffffffffffffffffffffffffffffffffffffffff1681565b6060600560009054906101000a900473ffffffffffffffffffffffffffffffffffffffff1673ffffffffffffffffffffffffffffffffffffffff16630e89341c836040518263ffffffff1660e01b81526004016107379190614818565b60006040518083038186803b15801561074f57600080fd5b505afa158015610763573d6000803e3d6000fd5b505050506040513d6000823e3d601f19601f8201168201806040525081019061078c9190613c02565b9050919050565b61079b611bc5565b6107a3611c0f565b73ffffffffffffffffffffffffffffffffffffffff168573ffffffffffffffffffffffffffffffffffffffff1614806107e957506107e8856107e3611c0f565b611331565b5b610828576040517f08c379a000000000000000000000000000000000000000000000000000000000815260040161081f906145b8565b60405180910390fd5b815183511461086c576040517f08c379a000000000000000000000000000000000000000000000000000000000815260040161086390614738565b60405180910390fd5b600660009054906101000a900473ffffffffffffffffffffffffffffffffffffffff1673ffffffffffffffffffffffffffffffffffffffff16631a2f7167856040518263ffffffff1660e01b81526004016108c79190614256565b602060405180830381600087803b1580156108e157600080fd5b505af11580156108f5573d6000803e3d6000fd5b505050506040513d601f19601f820116820180604052508101906109199190613b7b565b15610b66576000805b8451811015610a3557600560009054906101000a900473ffffffffffffffffffffffffffffffffffffffff1673ffffffffffffffffffffffffffffffffffffffff1663d10424c786838151811061097c5761097b614bef565b5b60200260200101516040518263ffffffff1660e01b81526004016109a09190614818565b60206040518083038186803b1580156109b857600080fd5b505afa1580156109cc573d6000803e3d6000fd5b505050506040513d601f19601f820116820180604052508101906109f09190613dae565b848281518110610a0357610a02614bef565b5b6020026020010151610a159190614a36565b82610a2091906149e0565b91508080610a2d90614b77565b915050610922565b50610a41868585611c17565b600560009054906101000a900473ffffffffffffffffffffffffffffffffffffffff1673ffffffffffffffffffffffffffffffffffffffff1663e21c8b5985856040518363ffffffff1660e01b8152600401610a9e929190614469565b600060405180830381600087803b158015610ab857600080fd5b505af1158015610acc573d6000803e3d6000fd5b50505050610afd600460009054906101000a900473ffffffffffffffffffffffffffffffffffffffff168683611ee6565b7f68c9cd42836993caa70415e61f3c3baceb0bb31dcb22af6e5e0db98fa8870fac86868686600460009054906101000a900473ffffffffffffffffffffffffffffffffffffffff1686604051610b5896959493929190614271565b60405180910390a150610c60565b600660009054906101000a900473ffffffffffffffffffffffffffffffffffffffff1673ffffffffffffffffffffffffffffffffffffffff1663fe575a87856040518263ffffffff1660e01b8152600401610bc19190614256565b602060405180830381600087803b158015610bdb57600080fd5b505af1158015610bef573d6000803e3d6000fd5b505050506040513d601f19601f82011682018060405250810190610c139190613b7b565b610c52576040517f08c379a0000000000000000000000000000000000000000000000000000000008152600401610c49906147f8565b60405180910390fd5b610c5f858585858561203b565b5b5050505050565b60608151835114610cad576040517f08c379a0000000000000000000000000000000000000000000000000000000008152600401610ca490614778565b60405180910390fd5b6000835167ffffffffffffffff811115610cca57610cc9614c1e565b5b604051908082528060200260200182016040528015610cf85781602001602082028036833780820191505090505b50905060005b8451811015610d7557610d45858281518110610d1d57610d1c614bef565b5b6020026020010151858381518110610d3857610d37614bef565b5b6020026020010151610423565b828281518110610d5857610d57614bef565b5b60200260200101818152505080610d6e90614b77565b9050610cfe565b508091505092915050565b600660009054906101000a900473ffffffffffffffffffffffffffffffffffffffff1681565b6000600360149054906101000a900460ff16905090565b610dc5611b47565b600560009054906101000a900473ffffffffffffffffffffffffffffffffffffffff1673ffffffffffffffffffffffffffffffffffffffff166380d69c8a86868686866007546040518763ffffffff1660e01b8152600401610e2c96959493929190614529565b600060405180830381600087803b158015610e4657600080fd5b505af1158015610e5a573d6000803e3d6000fd5b505050505050505050565b600560009054906101000a900473ffffffffffffffffffffffffffffffffffffffff1681565b610e93611b47565b610e9d600061235d565b565b610ea7611bc5565b6000600560009054906101000a900473ffffffffffffffffffffffffffffffffffffffff1673ffffffffffffffffffffffffffffffffffffffff1663d20874d8836040518263ffffffff1660e01b8152600401610f049190614818565b60206040518083038186803b158015610f1c57600080fd5b505afa158015610f30573d6000803e3d6000fd5b505050506040513d601f19601f82011682018060405250810190610f549190613dae565b9050600560009054906101000a900473ffffffffffffffffffffffffffffffffffffffff1673ffffffffffffffffffffffffffffffffffffffff166336a3409c83336040518363ffffffff1660e01b8152600401610fb3929190614833565b600060405180830381600087803b158015610fcd57600080fd5b505af1158015610fe1573d6000803e3d6000fd5b50505050611012600460009054906101000a900473ffffffffffffffffffffffffffffffffffffffff163383611ee6565b7fa1c359e2aefcb2a02fa122099023552498d16ee2c91b81d3cfd8cd086f037d443383600460009054906101000a900473ffffffffffffffffffffffffffffffffffffffff16846040516110699493929190614402565b60405180910390a15050565b60075481565b6000600360009054906101000a900473ffffffffffffffffffffffffffffffffffffffff16905090565b6110b76110b0611c0f565b8383612423565b5050565b60606000806000600560009054906101000a900473ffffffffffffffffffffffffffffffffffffffff1673ffffffffffffffffffffffffffffffffffffffff1663c1e03728866040518263ffffffff1660e01b815260040161111d9190614818565b60006040518083038186803b15801561113557600080fd5b505afa158015611149573d6000803e3d6000fd5b505050506040513d6000823e3d601f19601f820116820180604052508101906111729190613c4b565b93509350935093509193509193565b611189611bc5565b6000600560009054906101000a900473ffffffffffffffffffffffffffffffffffffffff1673ffffffffffffffffffffffffffffffffffffffff1663d10424c7856040518263ffffffff1660e01b81526004016111e69190614818565b60206040518083038186803b1580156111fe57600080fd5b505afa158015611212573d6000803e3d6000fd5b505050506040513d601f19601f820116820180604052508101906112369190613dae565b836112419190614a36565b9050611271600460009054906101000a900473ffffffffffffffffffffffffffffffffffffffff16333084612590565b600560009054906101000a900473ffffffffffffffffffffffffffffffffffffffff1673ffffffffffffffffffffffffffffffffffffffff1663f600d9f46112b8866126e8565b6112c1866126e8565b6040518363ffffffff1660e01b81526004016112de929190614469565b600060405180830381600087803b1580156112f857600080fd5b505af115801561130c573d6000803e3d6000fd5b5050505061132b82858560405180602001604052806000815250612762565b50505050565b6000600160008473ffffffffffffffffffffffffffffffffffffffff1673ffffffffffffffffffffffffffffffffffffffff16815260200190815260200160002060008373ffffffffffffffffffffffffffffffffffffffff1673ffffffffffffffffffffffffffffffffffffffff16815260200190815260200160002060009054906101000a900460ff16905092915050565b6113cd611bc5565b6113d5611c0f565b73ffffffffffffffffffffffffffffffffffffffff168573ffffffffffffffffffffffffffffffffffffffff16148061141b575061141a85611415611c0f565b611331565b5b61145a576040517f08c379a0000000000000000000000000000000000000000000000000000000008152600401611451906145b8565b60405180910390fd5b600660009054906101000a900473ffffffffffffffffffffffffffffffffffffffff1673ffffffffffffffffffffffffffffffffffffffff16631a2f7167856040518263ffffffff1660e01b81526004016114b59190614256565b602060405180830381600087803b1580156114cf57600080fd5b505af11580156114e3573d6000803e3d6000fd5b505050506040513d601f19601f820116820180604052508101906115079190613b7b565b15611716576000600560009054906101000a900473ffffffffffffffffffffffffffffffffffffffff1673ffffffffffffffffffffffffffffffffffffffff1663d10424c7856040518263ffffffff1660e01b81526004016115699190614818565b60206040518083038186803b15801561158157600080fd5b505afa158015611595573d6000803e3d6000fd5b505050506040513d601f19601f820116820180604052508101906115b99190613dae565b836115c49190614a36565b90506115d1868585612913565b600560009054906101000a900473ffffffffffffffffffffffffffffffffffffffff1673ffffffffffffffffffffffffffffffffffffffff1663e21c8b59611618866126e8565b611621866126e8565b6040518363ffffffff1660e01b815260040161163e929190614469565b600060405180830381600087803b15801561165857600080fd5b505af115801561166c573d6000803e3d6000fd5b5050505061169d600460009054906101000a900473ffffffffffffffffffffffffffffffffffffffff168683611ee6565b7f68c9cd42836993caa70415e61f3c3baceb0bb31dcb22af6e5e0db98fa8870fac86866116c9876126e8565b6116d2876126e8565b600460009054906101000a900473ffffffffffffffffffffffffffffffffffffffff168660405161170896959493929190614271565b60405180910390a150611810565b600660009054906101000a900473ffffffffffffffffffffffffffffffffffffffff1673ffffffffffffffffffffffffffffffffffffffff1663fe575a87856040518263ffffffff1660e01b81526004016117719190614256565b602060405180830381600087803b15801561178b57600080fd5b505af115801561179f573d6000803e3d6000fd5b505050506040513d601f19601f820116820180604052508101906117c39190613b7b565b611802576040517f08c379a00000000000000000000000000000000000000000000000000000000081526004016117f9906147f8565b60405180910390fd5b61180f8585858585612b5a565b5b5050505050565b61181f611b47565b600073ffffffffffffffffffffffffffffffffffffffff168173ffffffffffffffffffffffffffffffffffffffff16141561188f576040517f08c379a0000000000000000000000000000000000000000000000000000000008152600401611886906145f8565b60405180910390fd5b6118988161235d565b50565b6118a3611bc5565b81518351146118e7576040517f08c379a00000000000000000000000000000000000000000000000000000000081526004016118de90614738565b60405180910390fd5b6000805b84518110156119fe57600560009054906101000a900473ffffffffffffffffffffffffffffffffffffffff1673ffffffffffffffffffffffffffffffffffffffff1663d10424c786838151811061194557611944614bef565b5b60200260200101516040518263ffffffff1660e01b81526004016119699190614818565b60206040518083038186803b15801561198157600080fd5b505afa158015611995573d6000803e3d6000fd5b505050506040513d601f19601f820116820180604052508101906119b99190613dae565b8482815181106119cc576119cb614bef565b5b60200260200101516119de9190614a36565b826119e991906149e0565b915080806119f690614b77565b9150506118eb565b50611a2d600460009054906101000a900473ffffffffffffffffffffffffffffffffffffffff16333084612590565b600560009054906101000a900473ffffffffffffffffffffffffffffffffffffffff1673ffffffffffffffffffffffffffffffffffffffff1663f600d9f485856040518363ffffffff1660e01b8152600401611a8a929190614469565b600060405180830381600087803b158015611aa457600080fd5b505af1158015611ab8573d6000803e3d6000fd5b50505050611ad782858560405180602001604052806000815250612df6565b50505050565b60007f01ffc9a7000000000000000000000000000000000000000000000000000000007bffffffffffffffffffffffffffffffffffffffffffffffffffffffff1916827bffffffffffffffffffffffffffffffffffffffffffffffffffffffff1916149050919050565b611b4f611c0f565b73ffffffffffffffffffffffffffffffffffffffff16611b6d61107b565b73ffffffffffffffffffffffffffffffffffffffff1614611bc3576040517f08c379a0000000000000000000000000000000000000000000000000000000008152600401611bba90614718565b60405180910390fd5b565b611bcd610da6565b15611c0d576040517f08c379a0000000000000000000000000000000000000000000000000000000008152600401611c0490614698565b60405180910390fd5b565b600033905090565b600073ffffffffffffffffffffffffffffffffffffffff168373ffffffffffffffffffffffffffffffffffffffff161415611c87576040517f08c379a0000000000000000000000000000000000000000000000000000000008152600401611c7e906146d8565b60405180910390fd5b8051825114611ccb576040517f08c379a0000000000000000000000000000000000000000000000000000000008152600401611cc290614798565b60405180910390fd5b6000611cd5611c0f565b9050611cf581856000868660405180602001604052806000815250613023565b60005b8351811015611e42576000848281518110611d1657611d15614bef565b5b602002602001015190506000848381518110611d3557611d34614bef565b5b60200260200101519050600080600084815260200190815260200160002060008973ffffffffffffffffffffffffffffffffffffffff1673ffffffffffffffffffffffffffffffffffffffff16815260200190815260200160002054905081811015611dd6576040517f08c379a0000000000000000000000000000000000000000000000000000000008152600401611dcd90614618565b60405180910390fd5b81810360008085815260200190815260200160002060008a73ffffffffffffffffffffffffffffffffffffffff1673ffffffffffffffffffffffffffffffffffffffff168152602001908152602001600020819055505050508080611e3a90614b77565b915050611cf8565b50600073ffffffffffffffffffffffffffffffffffffffff168473ffffffffffffffffffffffffffffffffffffffff168273ffffffffffffffffffffffffffffffffffffffff167f4a39dc06d4c0dbc64b70af90fd698a233a518aa5d07e595d983b8c0526c8f7fb8686604051611eba929190614469565b60405180910390a4611ee08185600086866040518060200160405280600081525061302b565b50505050565b6000808473ffffffffffffffffffffffffffffffffffffffff1663a9059cbb60e01b8585604051602401611f1b9291906143d9565b604051602081830303815290604052907bffffffffffffffffffffffffffffffffffffffffffffffffffffffff19166020820180517bffffffffffffffffffffffffffffffffffffffffffffffffffffffff8381831617835250505050604051611f85919061423f565b6000604051808303816000865af19150503d8060008114611fc2576040519150601f19603f3d011682016040523d82523d6000602084013e611fc7565b606091505b5091509150818015611ff55750600081511480611ff4575080806020019051810190611ff39190613b7b565b5b5b612034576040517f08c379a000000000000000000000000000000000000000000000000000000000815260040161202b906147d8565b60405180910390fd5b5050505050565b815183511461207f576040517f08c379a000000000000000000000000000000000000000000000000000000000815260040161207690614798565b60405180910390fd5b600073ffffffffffffffffffffffffffffffffffffffff168473ffffffffffffffffffffffffffffffffffffffff1614156120ef576040517f08c379a00000000000000000000000000000000000000000000000000000000081526004016120e6906146b8565b60405180910390fd5b60006120f9611c0f565b9050612109818787878787613023565b60005b84518110156122ba57600085828151811061212a57612129614bef565b5b60200260200101519050600085838151811061214957612148614bef565b5b60200260200101519050600080600084815260200190815260200160002060008b73ffffffffffffffffffffffffffffffffffffffff1673ffffffffffffffffffffffffffffffffffffffff168152602001908152602001600020549050818110156121ea576040517f08c379a00000000000000000000000000000000000000000000000000000000081526004016121e1906146f8565b60405180910390fd5b81810360008085815260200190815260200160002060008c73ffffffffffffffffffffffffffffffffffffffff1673ffffffffffffffffffffffffffffffffffffffff168152602001908152602001600020819055508160008085815260200190815260200160002060008b73ffffffffffffffffffffffffffffffffffffffff1673ffffffffffffffffffffffffffffffffffffffff168152602001908152602001600020600082825461229f91906149e0565b92505081905550505050806122b390614b77565b905061210c565b508473ffffffffffffffffffffffffffffffffffffffff168673ffffffffffffffffffffffffffffffffffffffff168273ffffffffffffffffffffffffffffffffffffffff167f4a39dc06d4c0dbc64b70af90fd698a233a518aa5d07e595d983b8c0526c8f7fb8787604051612331929190614469565b60405180910390a461234781878787878761302b565b612355818787878787613033565b505050505050565b6000600360009054906101000a900473ffffffffffffffffffffffffffffffffffffffff16905081600360006101000a81548173ffffffffffffffffffffffffffffffffffffffff021916908373ffffffffffffffffffffffffffffffffffffffff1602179055508173ffffffffffffffffffffffffffffffffffffffff168173ffffffffffffffffffffffffffffffffffffffff167f8be0079c531659141344cd1fd0a4f28419497f9722a3daafe3b4186f6b6457e060405160405180910390a35050565b8173ffffffffffffffffffffffffffffffffffffffff168373ffffffffffffffffffffffffffffffffffffffff161415612492576040517f08c379a000000000000000000000000000000000000000000000000000000000815260040161248990614758565b60405180910390fd5b80600160008573ffffffffffffffffffffffffffffffffffffffff1673ffffffffffffffffffffffffffffffffffffffff16815260200190815260200160002060008473ffffffffffffffffffffffffffffffffffffffff1673ffffffffffffffffffffffffffffffffffffffff16815260200190815260200160002060006101000a81548160ff0219169083151502179055508173ffffffffffffffffffffffffffffffffffffffff168373ffffffffffffffffffffffffffffffffffffffff167f17307eab39ab6107e8899845ad3d59bd9653f200f220920489ca2b5937696c318360405161258391906144a0565b60405180910390a3505050565b6000808573ffffffffffffffffffffffffffffffffffffffff166323b872dd60e01b8686866040516024016125c793929190614348565b604051602081830303815290604052907bffffffffffffffffffffffffffffffffffffffffffffffffffffffff19166020820180517bffffffffffffffffffffffffffffffffffffffffffffffffffffffff8381831617835250505050604051612631919061423f565b6000604051808303816000865af19150503d806000811461266e576040519150601f19603f3d011682016040523d82523d6000602084013e612673565b606091505b50915091508180156126a157506000815114806126a057508080602001905181019061269f9190613b7b565b5b5b6126e0576040517f08c379a00000000000000000000000000000000000000000000000000000000081526004016126d790614678565b60405180910390fd5b505050505050565b60606000600167ffffffffffffffff81111561270757612706614c1e565b5b6040519080825280602002602001820160405280156127355781602001602082028036833780820191505090505b509050828160008151811061274d5761274c614bef565b5b60200260200101818152505080915050919050565b600073ffffffffffffffffffffffffffffffffffffffff168473ffffffffffffffffffffffffffffffffffffffff1614156127d2576040517f08c379a00000000000000000000000000000000000000000000000000000000081526004016127c9906147b8565b60405180910390fd5b60006127dc611c0f565b905060006127e98561321a565b905060006127f68561321a565b905061280783600089858589613023565b8460008088815260200190815260200160002060008973ffffffffffffffffffffffffffffffffffffffff1673ffffffffffffffffffffffffffffffffffffffff168152602001908152602001600020600082825461286691906149e0565b925050819055508673ffffffffffffffffffffffffffffffffffffffff16600073ffffffffffffffffffffffffffffffffffffffff168473ffffffffffffffffffffffffffffffffffffffff167fc3d58168c5ae7397731d063d5bbf3d657854427343f4c083240f7aacaa2d0f6289896040516128e492919061485c565b60405180910390a46128fb8360008985858961302b565b61290a83600089898989613294565b50505050505050565b600073ffffffffffffffffffffffffffffffffffffffff168373ffffffffffffffffffffffffffffffffffffffff161415612983576040517f08c379a000000000000000000000000000000000000000000000000000000000815260040161297a906146d8565b60405180910390fd5b600061298d611c0f565b9050600061299a8461321a565b905060006129a78461321a565b90506129c783876000858560405180602001604052806000815250613023565b600080600087815260200190815260200160002060008873ffffffffffffffffffffffffffffffffffffffff1673ffffffffffffffffffffffffffffffffffffffff16815260200190815260200160002054905084811015612a5e576040517f08c379a0000000000000000000000000000000000000000000000000000000008152600401612a5590614618565b60405180910390fd5b84810360008088815260200190815260200160002060008973ffffffffffffffffffffffffffffffffffffffff1673ffffffffffffffffffffffffffffffffffffffff16815260200190815260200160002081905550600073ffffffffffffffffffffffffffffffffffffffff168773ffffffffffffffffffffffffffffffffffffffff168573ffffffffffffffffffffffffffffffffffffffff167fc3d58168c5ae7397731d063d5bbf3d657854427343f4c083240f7aacaa2d0f628989604051612b2b92919061485c565b60405180910390a4612b518488600086866040518060200160405280600081525061302b565b50505050505050565b600073ffffffffffffffffffffffffffffffffffffffff168473ffffffffffffffffffffffffffffffffffffffff161415612bca576040517f08c379a0000000000000000000000000000000000000000000000000000000008152600401612bc1906146b8565b60405180910390fd5b6000612bd4611c0f565b90506000612be18561321a565b90506000612bee8561321a565b9050612bfe838989858589613023565b600080600088815260200190815260200160002060008a73ffffffffffffffffffffffffffffffffffffffff1673ffffffffffffffffffffffffffffffffffffffff16815260200190815260200160002054905085811015612c95576040517f08c379a0000000000000000000000000000000000000000000000000000000008152600401612c8c906146f8565b60405180910390fd5b85810360008089815260200190815260200160002060008b73ffffffffffffffffffffffffffffffffffffffff1673ffffffffffffffffffffffffffffffffffffffff168152602001908152602001600020819055508560008089815260200190815260200160002060008a73ffffffffffffffffffffffffffffffffffffffff1673ffffffffffffffffffffffffffffffffffffffff1681526020019081526020016000206000828254612d4a91906149e0565b925050819055508773ffffffffffffffffffffffffffffffffffffffff168973ffffffffffffffffffffffffffffffffffffffff168573ffffffffffffffffffffffffffffffffffffffff167fc3d58168c5ae7397731d063d5bbf3d657854427343f4c083240f7aacaa2d0f628a8a604051612dc792919061485c565b60405180910390a4612ddd848a8a86868a61302b565b612deb848a8a8a8a8a613294565b505050505050505050565b600073ffffffffffffffffffffffffffffffffffffffff168473ffffffffffffffffffffffffffffffffffffffff161415612e66576040517f08c379a0000000000000000000000000000000000000000000000000000000008152600401612e5d906147b8565b60405180910390fd5b8151835114612eaa576040517f08c379a0000000000000000000000000000000000000000000000000000000008152600401612ea190614798565b60405180910390fd5b6000612eb4611c0f565b9050612ec581600087878787613023565b60005b8451811015612f7e57838181518110612ee457612ee3614bef565b5b6020026020010151600080878481518110612f0257612f01614bef565b5b6020026020010151815260200190815260200160002060008873ffffffffffffffffffffffffffffffffffffffff1673ffffffffffffffffffffffffffffffffffffffff1681526020019081526020016000206000828254612f6491906149e0565b925050819055508080612f7690614b77565b915050612ec8565b508473ffffffffffffffffffffffffffffffffffffffff16600073ffffffffffffffffffffffffffffffffffffffff168273ffffffffffffffffffffffffffffffffffffffff167f4a39dc06d4c0dbc64b70af90fd698a233a518aa5d07e595d983b8c0526c8f7fb8787604051612ff6929190614469565b60405180910390a461300d8160008787878761302b565b61301c81600087878787613033565b5050505050565b505050505050565b505050505050565b6130528473ffffffffffffffffffffffffffffffffffffffff1661347b565b15613212578373ffffffffffffffffffffffffffffffffffffffff1663bc197c8187878686866040518663ffffffff1660e01b81526004016130989594939291906142e0565b602060405180830381600087803b1580156130b257600080fd5b505af19250505080156130e357506040513d601f19601f820116820180604052508101906130e09190613bd5565b60015b613189576130ef614c4d565b806308c379a0141561314c5750613104615214565b8061310f575061314e565b806040517f08c379a000000000000000000000000000000000000000000000000000000000815260040161314391906144bb565b60405180910390fd5b505b6040517f08c379a000000000000000000000000000000000000000000000000000000000815260040161318090614598565b60405180910390fd5b63bc197c8160e01b7bffffffffffffffffffffffffffffffffffffffffffffffffffffffff1916817bffffffffffffffffffffffffffffffffffffffffffffffffffffffff191614613210576040517f08c379a0000000000000000000000000000000000000000000000000000000008152600401613207906145d8565b60405180910390fd5b505b505050505050565b60606000600167ffffffffffffffff81111561323957613238614c1e565b5b6040519080825280602002602001820160405280156132675781602001602082028036833780820191505090505b509050828160008151811061327f5761327e614bef565b5b60200260200101818152505080915050919050565b6132b38473ffffffffffffffffffffffffffffffffffffffff1661347b565b15613473578373ffffffffffffffffffffffffffffffffffffffff1663f23a6e6187878686866040518663ffffffff1660e01b81526004016132f995949392919061437f565b602060405180830381600087803b15801561331357600080fd5b505af192505050801561334457506040513d601f19601f820116820180604052508101906133419190613bd5565b60015b6133ea57613350614c4d565b806308c379a014156133ad5750613365615214565b8061337057506133af565b806040517f08c379a00000000000000000000000000000000000000000000000000000000081526004016133a491906144bb565b60405180910390fd5b505b6040517f08c379a00000000000000000000000000000000000000000000000000000000081526004016133e190614598565b60405180910390fd5b63f23a6e6160e01b7bffffffffffffffffffffffffffffffffffffffffffffffffffffffff1916817bffffffffffffffffffffffffffffffffffffffffffffffffffffffff191614613471576040517f08c379a0000000000000000000000000000000000000000000000000000000008152600401613468906145d8565b60405180910390fd5b505b505050505050565b6000808273ffffffffffffffffffffffffffffffffffffffff163b119050919050565b60006134b16134ac846148aa565b614885565b905080838252602082019050828560208602820111156134d4576134d3614c74565b5b60005b8581101561350457816134ea8882613644565b8452602084019350602083019250506001810190506134d7565b5050509392505050565b600061352161351c846148d6565b614885565b9050808382526020820190508285602086028201111561354457613543614c74565b5b60005b85811015613574578161355a88826137a8565b845260208401935060208301925050600181019050613547565b5050509392505050565b600061359161358c84614902565b614885565b9050828152602081018484840111156135ad576135ac614c79565b5b6135b8848285614b04565b509392505050565b60006135d36135ce84614933565b614885565b9050828152602081018484840111156135ef576135ee614c79565b5b6135fa848285614b04565b509392505050565b600061361561361084614933565b614885565b90508281526020810184848401111561363157613630614c79565b5b61363c848285614b13565b509392505050565b600081359050613653816152aa565b92915050565b600081519050613668816152aa565b92915050565b600082601f83011261368357613682614c6f565b5b813561369384826020860161349e565b91505092915050565b600082601f8301126136b1576136b0614c6f565b5b81356136c184826020860161350e565b91505092915050565b6000813590506136d9816152c1565b92915050565b6000815190506136ee816152c1565b92915050565b600081359050613703816152d8565b92915050565b600081519050613718816152d8565b92915050565b600082601f83011261373357613732614c6f565b5b813561374384826020860161357e565b91505092915050565b600082601f83011261376157613760614c6f565b5b81356137718482602086016135c0565b91505092915050565b600082601f83011261378f5761378e614c6f565b5b815161379f848260208601613602565b91505092915050565b6000813590506137b7816152ef565b92915050565b6000815190506137cc816152ef565b92915050565b6000602082840312156137e8576137e7614c83565b5b60006137f684828501613644565b91505092915050565b6000806040838503121561381657613815614c83565b5b600061382485828601613644565b925050602061383585828601613644565b9150509250929050565b600080600080600060a0868803121561385b5761385a614c83565b5b600061386988828901613644565b955050602061387a88828901613644565b945050604086013567ffffffffffffffff81111561389b5761389a614c7e565b5b6138a78882890161369c565b935050606086013567ffffffffffffffff8111156138c8576138c7614c7e565b5b6138d48882890161369c565b925050608086013567ffffffffffffffff8111156138f5576138f4614c7e565b5b6139018882890161371e565b9150509295509295909350565b600080600080600060a0868803121561392a57613929614c83565b5b600061393888828901613644565b955050602061394988828901613644565b945050604061395a888289016137a8565b935050606061396b888289016137a8565b925050608086013567ffffffffffffffff81111561398c5761398b614c7e565b5b6139988882890161371e565b9150509295509295909350565b600080604083850312156139bc576139bb614c83565b5b60006139ca85828601613644565b92505060206139db858286016136ca565b9150509250929050565b600080604083850312156139fc576139fb614c83565b5b6000613a0a85828601613644565b9250506020613a1b858286016137a8565b9150509250929050565b600080600060608486031215613a3e57613a3d614c83565b5b6000613a4c86828701613644565b9350506020613a5d868287016137a8565b9250506040613a6e86828701613644565b9150509250925092565b60008060408385031215613a8f57613a8e614c83565b5b600083013567ffffffffffffffff811115613aad57613aac614c7e565b5b613ab98582860161366e565b925050602083013567ffffffffffffffff811115613ada57613ad9614c7e565b5b613ae68582860161369c565b9150509250929050565b600080600060608486031215613b0957613b08614c83565b5b600084013567ffffffffffffffff811115613b2757613b26614c7e565b5b613b338682870161369c565b935050602084013567ffffffffffffffff811115613b5457613b53614c7e565b5b613b608682870161369c565b9250506040613b7186828701613644565b9150509250925092565b600060208284031215613b9157613b90614c83565b5b6000613b9f848285016136df565b91505092915050565b600060208284031215613bbe57613bbd614c83565b5b6000613bcc848285016136f4565b91505092915050565b600060208284031215613beb57613bea614c83565b5b6000613bf984828501613709565b91505092915050565b600060208284031215613c1857613c17614c83565b5b600082015167ffffffffffffffff811115613c3657613c35614c7e565b5b613c428482850161377a565b91505092915050565b60008060008060808587031215613c6557613c64614c83565b5b600085015167ffffffffffffffff811115613c8357613c82614c7e565b5b613c8f8782880161377a565b9450506020613ca0878288016137bd565b9350506040613cb1878288016137bd565b9250506060613cc287828801613659565b91505092959194509250565b600080600080600060a08688031215613cea57613ce9614c83565b5b600086013567ffffffffffffffff811115613d0857613d07614c7e565b5b613d148882890161374c565b9550506020613d25888289016137a8565b9450506040613d36888289016137a8565b9350506060613d4788828901613644565b925050608086013567ffffffffffffffff811115613d6857613d67614c7e565b5b613d748882890161374c565b9150509295509295909350565b600060208284031215613d9757613d96614c83565b5b6000613da5848285016137a8565b91505092915050565b600060208284031215613dc457613dc3614c83565b5b6000613dd2848285016137bd565b91505092915050565b600080600060608486031215613df457613df3614c83565b5b6000613e02868287016137a8565b9350506020613e13868287016137a8565b9250506040613e2486828701613644565b9150509250925092565b6000613e3a8383614221565b60208301905092915050565b613e4f81614a90565b82525050565b6000613e6082614974565b613e6a81856149a2565b9350613e7583614964565b8060005b83811015613ea6578151613e8d8882613e2e565b9750613e9883614995565b925050600181019050613e79565b5085935050505092915050565b613ebc81614aa2565b82525050565b6000613ecd8261497f565b613ed781856149b3565b9350613ee7818560208601614b13565b613ef081614c88565b840191505092915050565b6000613f068261497f565b613f1081856149c4565b9350613f20818560208601614b13565b80840191505092915050565b6000613f378261498a565b613f4181856149cf565b9350613f51818560208601614b13565b613f5a81614c88565b840191505092915050565b6000613f726034836149cf565b9150613f7d82614ca6565b604082019050919050565b6000613f95602f836149cf565b9150613fa082614cf5565b604082019050919050565b6000613fb86028836149cf565b9150613fc382614d44565b604082019050919050565b6000613fdb6026836149cf565b9150613fe682614d93565b604082019050919050565b6000613ffe6024836149cf565b915061400982614de2565b604082019050919050565b60006140216018836149cf565b915061402c82614e31565b602082019050919050565b6000614044602a836149cf565b915061404f82614e5a565b604082019050919050565b60006140676026836149cf565b915061407282614ea9565b604082019050919050565b600061408a6010836149cf565b915061409582614ef8565b602082019050919050565b60006140ad6025836149cf565b91506140b882614f21565b604082019050919050565b60006140d06023836149cf565b91506140db82614f70565b604082019050919050565b60006140f3602a836149cf565b91506140fe82614fbf565b604082019050919050565b60006141166020836149cf565b91506141218261500e565b602082019050919050565b60006141396020836149cf565b915061414482615037565b602082019050919050565b600061415c6029836149cf565b915061416782615060565b604082019050919050565b600061417f6029836149cf565b915061418a826150af565b604082019050919050565b60006141a26028836149cf565b91506141ad826150fe565b604082019050919050565b60006141c56021836149cf565b91506141d08261514d565b604082019050919050565b60006141e86027836149cf565b91506141f38261519c565b604082019050919050565b600061420b601d836149cf565b9150614216826151eb565b602082019050919050565b61422a81614afa565b82525050565b61423981614afa565b82525050565b600061424b8284613efb565b915081905092915050565b600060208201905061426b6000830184613e46565b92915050565b600060c0820190506142866000830189613e46565b6142936020830188613e46565b81810360408301526142a58187613e55565b905081810360608301526142b98186613e55565b90506142c86080830185613e46565b6142d560a0830184614230565b979650505050505050565b600060a0820190506142f56000830188613e46565b6143026020830187613e46565b81810360408301526143148186613e55565b905081810360608301526143288185613e55565b9050818103608083015261433c8184613ec2565b90509695505050505050565b600060608201905061435d6000830186613e46565b61436a6020830185613e46565b6143776040830184614230565b949350505050565b600060a0820190506143946000830188613e46565b6143a16020830187613e46565b6143ae6040830186614230565b6143bb6060830185614230565b81810360808301526143cd8184613ec2565b90509695505050505050565b60006040820190506143ee6000830185613e46565b6143fb6020830184614230565b9392505050565b60006080820190506144176000830187613e46565b6144246020830186614230565b6144316040830185613e46565b61443e6060830184614230565b95945050505050565b600060208201905081810360008301526144618184613e55565b905092915050565b600060408201905081810360008301526144838185613e55565b905081810360208301526144978184613e55565b90509392505050565b60006020820190506144b56000830184613eb3565b92915050565b600060208201905081810360008301526144d58184613f2c565b905092915050565b600060808201905081810360008301526144f78187613f2c565b90506145066020830186614230565b6145136040830185614230565b6145206060830184613e46565b95945050505050565b600060c08201905081810360008301526145438189613f2c565b90506145526020830188614230565b61455f6040830187614230565b61456c6060830186613e46565b818103608083015261457e8185613f2c565b905061458d60a0830184614230565b979650505050505050565b600060208201905081810360008301526145b181613f65565b9050919050565b600060208201905081810360008301526145d181613f88565b9050919050565b600060208201905081810360008301526145f181613fab565b9050919050565b6000602082019050818103600083015261461181613fce565b9050919050565b6000602082019050818103600083015261463181613ff1565b9050919050565b6000602082019050818103600083015261465181614014565b9050919050565b6000602082019050818103600083015261467181614037565b9050919050565b600060208201905081810360008301526146918161405a565b9050919050565b600060208201905081810360008301526146b18161407d565b9050919050565b600060208201905081810360008301526146d1816140a0565b9050919050565b600060208201905081810360008301526146f1816140c3565b9050919050565b60006020820190508181036000830152614711816140e6565b9050919050565b6000602082019050818103600083015261473181614109565b9050919050565b600060208201905081810360008301526147518161412c565b9050919050565b600060208201905081810360008301526147718161414f565b9050919050565b6000602082019050818103600083015261479181614172565b9050919050565b600060208201905081810360008301526147b181614195565b9050919050565b600060208201905081810360008301526147d1816141b8565b9050919050565b600060208201905081810360008301526147f1816141db565b9050919050565b60006020820190508181036000830152614811816141fe565b9050919050565b600060208201905061482d6000830184614230565b92915050565b60006040820190506148486000830185614230565b6148556020830184613e46565b9392505050565b60006040820190506148716000830185614230565b61487e6020830184614230565b9392505050565b600061488f6148a0565b905061489b8282614b46565b919050565b6000604051905090565b600067ffffffffffffffff8211156148c5576148c4614c1e565b5b602082029050602081019050919050565b600067ffffffffffffffff8211156148f1576148f0614c1e565b5b602082029050602081019050919050565b600067ffffffffffffffff82111561491d5761491c614c1e565b5b61492682614c88565b9050602081019050919050565b600067ffffffffffffffff82111561494e5761494d614c1e565b5b61495782614c88565b9050602081019050919050565b6000819050602082019050919050565b600081519050919050565b600081519050919050565b600081519050919050565b6000602082019050919050565b600082825260208201905092915050565b600082825260208201905092915050565b600081905092915050565b600082825260208201905092915050565b60006149eb82614afa565b91506149f683614afa565b9250827fffffffffffffffffffffffffffffffffffffffffffffffffffffffffffffffff03821115614a2b57614a2a614bc0565b5b828201905092915050565b6000614a4182614afa565b9150614a4c83614afa565b9250817fffffffffffffffffffffffffffffffffffffffffffffffffffffffffffffffff0483118215151615614a8557614a84614bc0565b5b828202905092915050565b6000614a9b82614ada565b9050919050565b60008115159050919050565b60007fffffffff0000000000000000000000000000000000000000000000000000000082169050919050565b600073ffffffffffffffffffffffffffffffffffffffff82169050919050565b6000819050919050565b82818337600083830152505050565b60005b83811015614b31578082015181840152602081019050614b16565b83811115614b40576000848401525b50505050565b614b4f82614c88565b810181811067ffffffffffffffff82111715614b6e57614b6d614c1e565b5b80604052505050565b6000614b8282614afa565b91507fffffffffffffffffffffffffffffffffffffffffffffffffffffffffffffffff821415614bb557614bb4614bc0565b5b600182019050919050565b7f4e487b7100000000000000000000000000000000000000000000000000000000600052601160045260246000fd5b7f4e487b7100000000000000000000000000000000000000000000000000000000600052603260045260246000fd5b7f4e487b7100000000000000000000000000000000000000000000000000000000600052604160045260246000fd5b600060033d1115614c6c5760046000803e614c69600051614c99565b90505b90565b600080fd5b600080fd5b600080fd5b600080fd5b600080fd5b6000601f19601f8301169050919050565b60008160e01c9050919050565b7f455243313135353a207472616e7366657220746f206e6f6e204552433131353560008201527f526563656976657220696d706c656d656e746572000000000000000000000000602082015250565b7f455243313135353a2063616c6c6572206973206e6f7420746f6b656e206f776e60008201527f6572206e6f7220617070726f7665640000000000000000000000000000000000602082015250565b7f455243313135353a204552433131353552656365697665722072656a6563746560008201527f6420746f6b656e73000000000000000000000000000000000000000000000000602082015250565b7f4f776e61626c653a206e6577206f776e657220697320746865207a65726f206160008201527f6464726573730000000000000000000000000000000000000000000000000000602082015250565b7f455243313135353a206275726e20616d6f756e7420657863656564732062616c60008201527f616e636500000000000000000000000000000000000000000000000000000000602082015250565b7f50424d3a20416c726561647920696e697469616c697365640000000000000000600082015250565b7f455243313135353a2061646472657373207a65726f206973206e6f742061207660008201527f616c6964206f776e657200000000000000000000000000000000000000000000602082015250565b7f45524332303a20496e737566666963656e742062616c616e6365206f7220617060008201527f70726f76616c0000000000000000000000000000000000000000000000000000602082015250565b7f5061757361626c653a2070617573656400000000000000000000000000000000600082015250565b7f455243313135353a207472616e7366657220746f20746865207a65726f20616460008201527f6472657373000000000000000000000000000000000000000000000000000000602082015250565b7f455243313135353a206275726e2066726f6d20746865207a65726f206164647260008201527f6573730000000000000000000000000000000000000000000000000000000000602082015250565b7f455243313135353a20696e73756666696369656e742062616c616e636520666f60008201527f72207472616e7366657200000000000000000000000000000000000000000000602082015250565b7f4f776e61626c653a2063616c6c6572206973206e6f7420746865206f776e6572600082015250565b7f556e657175616c2069647320616e6420616d6f756e747320737570706c696564600082015250565b7f455243313135353a2073657474696e6720617070726f76616c2073746174757360008201527f20666f722073656c660000000000000000000000000000000000000000000000602082015250565b7f455243313135353a206163636f756e747320616e6420696473206c656e67746860008201527f206d69736d617463680000000000000000000000000000000000000000000000602082015250565b7f455243313135353a2069647320616e6420616d6f756e7473206c656e6774682060008201527f6d69736d61746368000000000000000000000000000000000000000000000000602082015250565b7f455243313135353a206d696e7420746f20746865207a65726f2061646472657360008201527f7300000000000000000000000000000000000000000000000000000000000000602082015250565b7f496e746572616374696f6e2077697468207468652073706f7420746f6b656e2060008201527f6661696c65642e00000000000000000000000000000000000000000000000000602082015250565b7f50424d3a2027746f27206164647265737320626c61636b6c6973746564000000600082015250565b600060443d1015615224576152a7565b61522c6148a0565b60043d036004823e80513d602482011167ffffffffffffffff821117156152545750506152a7565b808201805167ffffffffffffffff81111561527257505050506152a7565b80602083010160043d03850181111561528f5750505050506152a7565b61529e82602001850186614b46565b82955050505050505b90565b6152b381614a90565b81146152be57600080fd5b50565b6152ca81614aa2565b81146152d557600080fd5b50565b6152e181614aae565b81146152ec57600080fd5b50565b6152f881614afa565b811461530357600080fd5b5056fea26469706673582212207ae9db7cc485b931d55a74e76755046f7edff00f3540cb1cc736c3b8de51426064736f6c6343000807003360a060405260006001553480156200001657600080fd5b506040516200248b3803806200248b83398181016040528101906200003c9190620002ad565b6200005c62000050620000b360201b60201c565b620000bb60201b60201c565b3073ffffffffffffffffffffffffffffffffffffffff1660808173ffffffffffffffffffffffffffffffffffffffff1660601b815250508060029080519060200190620000ab9291906200017f565b505062000482565b600033905090565b60008060009054906101000a900473ffffffffffffffffffffffffffffffffffffffff169050816000806101000a81548173ffffffffffffffffffffffffffffffffffffffff021916908373ffffffffffffffffffffffffffffffffffffffff1602179055508173ffffffffffffffffffffffffffffffffffffffff168173ffffffffffffffffffffffffffffffffffffffff167f8be0079c531659141344cd1fd0a4f28419497f9722a3daafe3b4186f6b6457e060405160405180910390a35050565b8280546200018d9062000393565b90600052602060002090601f016020900481019282620001b15760008555620001fd565b82601f10620001cc57805160ff1916838001178555620001fd565b82800160010185558215620001fd579182015b82811115620001fc578251825591602001919060010190620001df565b5b5090506200020c919062000210565b5090565b5b808211156200022b57600081600090555060010162000211565b5090565b600062000246620002408462000327565b620002fe565b90508281526020810184848401111562000265576200026462000462565b5b620002728482856200035d565b509392505050565b600082601f8301126200029257620002916200045d565b5b8151620002a48482602086016200022f565b91505092915050565b600060208284031215620002c657620002c56200046c565b5b600082015167ffffffffffffffff811115620002e757620002e662000467565b5b620002f5848285016200027a565b91505092915050565b60006200030a6200031d565b9050620003188282620003c9565b919050565b6000604051905090565b600067ffffffffffffffff8211156200034557620003446200042e565b5b620003508262000471565b9050602081019050919050565b60005b838110156200037d57808201518184015260208101905062000360565b838111156200038d576000848401525b50505050565b60006002820490506001821680620003ac57607f821691505b60208210811415620003c357620003c2620003ff565b5b50919050565b620003d48262000471565b810181811067ffffffffffffffff82111715620003f657620003f56200042e565b5b80604052505050565b7f4e487b7100000000000000000000000000000000000000000000000000000000600052602260045260246000fd5b7f4e487b7100000000000000000000000000000000000000000000000000000000600052604160045260246000fd5b600080fd5b600080fd5b600080fd5b600080fd5b6000601f19601f8301169050919050565b60805160601c611fea620004a160003960006110a20152611fea6000f3fe608060405234801561001057600080fd5b50600436106100ea5760003560e01c8063934689a91161008c578063d20874d811610066578063d20874d814610272578063e21c8b59146102a2578063f2fde38b146102be578063f600d9f4146102da576100ea565b8063934689a9146101df578063c1e037281461020f578063d10424c714610242576100ea565b806348fd09f5116100c857806348fd09f51461016b578063715018a61461019b57806380d69c8a146101a55780638da5cb5b146101c1576100ea565b80630e89341c146100ef578063234661c41461011f57806336a3409c1461014f575b600080fd5b610109600480360381019061010491906115f1565b6102f6565b6040516101169190611844565b60405180910390f35b610139600480360381019061013491906115f1565b61044e565b6040516101469190611992565b60405180910390f35b6101696004803603810190610164919061161e565b6104e8565b005b6101856004803603810190610180919061146b565b6105d6565b6040516101929190611829565b60405180910390f35b6101a361064e565b005b6101bf60048036038101906101ba919061152c565b610662565b005b6101c96108d5565b6040516101d6919061180e565b60405180910390f35b6101f960048036038101906101f491906115f1565b6108fe565b604051610206919061180e565b60405180910390f35b610229600480360381019061022491906115f1565b6109b8565b6040516102399493929190611866565b60405180910390f35b61025c600480360381019061025791906115f1565b610b2e565b6040516102699190611992565b60405180910390f35b61028c600480360381019061028791906115f1565b610bc8565b6040516102999190611992565b60405180910390f35b6102bc60048036038101906102b791906114b4565b610c62565b005b6102d860048036038101906102d3919061143e565b610d9e565b005b6102f460048036038101906102ef91906114b4565b610e22565b005b6060600360008381526020019081526020016000206002015442106103a7576002805461032290611c4f565b80601f016020809104026020016040519081016040528092919081815260200182805461034e90611c4f565b801561039b5780601f106103705761010080835404028352916020019161039b565b820191906000526020600020905b81548152906001019060200180831161037e57829003601f168201915b50505050509050610449565b6003600083815260200190815260200160002060050180546103c890611c4f565b80601f01602080910402602001604051908101604052809291908181526020018280546103f490611c4f565b80156104415780601f1061041657610100808354040283529160200191610441565b820191906000526020600020905b81548152906001019060200180831161042457829003601f168201915b505050505090505b919050565b60008060036000848152602001908152602001600020600101541415801561048b5750600360008381526020019081526020016000206002015442105b6104ca576040517f08c379a00000000000000000000000000000000000000000000000000000000081526004016104c1906118d2565b60405180910390fd5b60036000838152602001908152602001600020600401549050919050565b6104f0610f5e565b6003600083815260200190815260200160002060030160009054906101000a900473ffffffffffffffffffffffffffffffffffffffff1673ffffffffffffffffffffffffffffffffffffffff168173ffffffffffffffffffffffffffffffffffffffff16148015610577575060036000838152602001908152602001600020600201544210155b6105b6576040517f08c379a00000000000000000000000000000000000000000000000000000000081526004016105ad906118b2565b60405180910390fd5b600060036000848152602001908152602001600020600401819055505050565b600080600090505b8251811015610643576003600082815260200190815260200160002060020154421180610621575060006003600083815260200190815260200160002060010154145b15610630576000915050610649565b808061063b90611cb2565b9150506105de565b50600190505b919050565b610656610f5e565b6106606000610fdc565b565b61066a610f5e565b6106726110a0565b808411156106b5576040517f08c379a00000000000000000000000000000000000000000000000000000000081526004016106ac90611932565b60405180910390fd5b4284116106f7576040517f08c379a00000000000000000000000000000000000000000000000000000000081526004016106ee90611952565b60405180910390fd5b600085141561073b576040517f08c379a000000000000000000000000000000000000000000000000000000000815260040161073290611972565b60405180910390fd5b600086610747876110fa565b6040516020016107589291906117ea565b6040516020818303038152906040529050806003600060015481526020019081526020016000206000019080519060200190610795929190611263565b50856003600060015481526020019081526020016000206001018190555084600360006001548152602001908152602001600020600201819055508360036000600154815260200190815260200160002060030160006101000a81548173ffffffffffffffffffffffffffffffffffffffff021916908373ffffffffffffffffffffffffffffffffffffffff160217905550600060036000600154815260200190815260200160002060040181905550826003600060015481526020019081526020016000206005019080519060200190610871929190611263565b507fbbb805bf89819da42bb55052edd2bf6db1c2256ec4c19cf1607de95efc92762f600154828888886040516108ab9594939291906119ad565b60405180910390a160018060008282546108c59190611ab0565b9250508190555050505050505050565b60008060009054906101000a900473ffffffffffffffffffffffffffffffffffffffff16905090565b60008060036000848152602001908152602001600020600101541415801561093b5750600360008381526020019081526020016000206002015442105b61097a576040517f08c379a0000000000000000000000000000000000000000000000000000000008152600401610971906118d2565b60405180910390fd5b6003600083815260200190815260200160002060030160009054906101000a900473ffffffffffffffffffffffffffffffffffffffff169050919050565b606060008060008060036000878152602001908152602001600020600101541415610a18576040517f08c379a0000000000000000000000000000000000000000000000000000000008152600401610a0f906118d2565b60405180910390fd5b60036000868152602001908152602001600020600001600360008781526020019081526020016000206001015460036000888152602001908152602001600020600201546003600089815260200190815260200160002060030160009054906101000a900473ffffffffffffffffffffffffffffffffffffffff16838054610a9f90611c4f565b80601f0160208091040260200160405190810160405280929190818152602001828054610acb90611c4f565b8015610b185780601f10610aed57610100808354040283529160200191610b18565b820191906000526020600020905b815481529060010190602001808311610afb57829003601f168201915b5050505050935093509350935093509193509193565b600080600360008481526020019081526020016000206001015414158015610b6b5750600360008381526020019081526020016000206002015442105b610baa576040517f08c379a0000000000000000000000000000000000000000000000000000000008152600401610ba1906118d2565b60405180910390fd5b60036000838152602001908152602001600020600101549050919050565b60008060036000848152602001908152602001600020600101541415610c23576040517f08c379a0000000000000000000000000000000000000000000000000000000008152600401610c1a906118d2565b60405180910390fd5b60036000838152602001908152602001600020600401546003600084815260200190815260200160002060010154610c5b9190611b37565b9050919050565b610c6a610f5e565b60005b8251811015610d9957600060036000858481518110610c8f57610c8e611db9565b5b602002602001015181526020019081526020016000206001015414158015610ce6575060036000848381518110610cc957610cc8611db9565b5b602002602001015181526020019081526020016000206002015442105b610d25576040517f08c379a0000000000000000000000000000000000000000000000000000000008152600401610d1c906118d2565b60405180910390fd5b818181518110610d3857610d37611db9565b5b602002602001015160036000858481518110610d5757610d56611db9565b5b602002602001015181526020019081526020016000206004016000828254610d7f9190611b91565b925050819055508080610d9190611cb2565b915050610c6d565b505050565b610da6610f5e565b600073ffffffffffffffffffffffffffffffffffffffff168173ffffffffffffffffffffffffffffffffffffffff161415610e16576040517f08c379a0000000000000000000000000000000000000000000000000000000008152600401610e0d906118f2565b60405180910390fd5b610e1f81610fdc565b50565b610e2a610f5e565b60005b8251811015610f5957600060036000858481518110610e4f57610e4e611db9565b5b602002602001015181526020019081526020016000206001015414158015610ea6575060036000848381518110610e8957610e88611db9565b5b602002602001015181526020019081526020016000206002015442105b610ee5576040517f08c379a0000000000000000000000000000000000000000000000000000000008152600401610edc906118d2565b60405180910390fd5b818181518110610ef857610ef7611db9565b5b602002602001015160036000858481518110610f1757610f16611db9565b5b602002602001015181526020019081526020016000206004016000828254610f3f9190611ab0565b925050819055508080610f5190611cb2565b915050610e2d565b505050565b610f6661125b565b73ffffffffffffffffffffffffffffffffffffffff16610f846108d5565b73ffffffffffffffffffffffffffffffffffffffff1614610fda576040517f08c379a0000000000000000000000000000000000000000000000000000000008152600401610fd190611912565b60405180910390fd5b565b60008060009054906101000a900473ffffffffffffffffffffffffffffffffffffffff169050816000806101000a81548173ffffffffffffffffffffffffffffffffffffffff021916908373ffffffffffffffffffffffffffffffffffffffff1602179055508173ffffffffffffffffffffffffffffffffffffffff168173ffffffffffffffffffffffffffffffffffffffff167f8be0079c531659141344cd1fd0a4f28419497f9722a3daafe3b4186f6b6457e060405160405180910390a35050565b7f000000000000000000000000000000000000000000000000000000000000000073ffffffffffffffffffffffffffffffffffffffff163073ffffffffffffffffffffffffffffffffffffffff16146110f857600080fd5b565b60606000821415611142576040518060400160405280600181526020017f30000000000000000000000000000000000000000000000000000000000000008152509050611256565b600082905060005b6000821461117457808061115d90611cb2565b915050600a8261116d9190611b06565b915061114a565b60008167ffffffffffffffff8111156111905761118f611de8565b5b6040519080825280601f01601f1916602001820160405280156111c25781602001600182028036833780820191505090505b5090505b6000851461124f576001826111db9190611b91565b9150600a856111ea9190611cfb565b60306111f69190611ab0565b60f81b81838151811061120c5761120b611db9565b5b60200101907effffffffffffffffffffffffffffffffffffffffffffffffffffffffffffff1916908160001a905350600a856112489190611b06565b94506111c6565b8093505050505b919050565b600033905090565b82805461126f90611c4f565b90600052602060002090601f01602090048101928261129157600085556112d8565b82601f106112aa57805160ff19168380011785556112d8565b828001600101855582156112d8579182015b828111156112d75782518255916020019190600101906112bc565b5b5090506112e591906112e9565b5090565b5b808211156113025760008160009055506001016112ea565b5090565b600061131961131484611a2c565b611a07565b9050808382526020820190508285602086028201111561133c5761133b611e1c565b5b60005b8581101561136c57816113528882611429565b84526020840193506020830192505060018101905061133f565b5050509392505050565b600061138961138484611a58565b611a07565b9050828152602081018484840111156113a5576113a4611e21565b5b6113b0848285611c0d565b509392505050565b6000813590506113c781611f86565b92915050565b600082601f8301126113e2576113e1611e17565b5b81356113f2848260208601611306565b91505092915050565b600082601f8301126114105761140f611e17565b5b8135611420848260208601611376565b91505092915050565b60008135905061143881611f9d565b92915050565b60006020828403121561145457611453611e2b565b5b6000611462848285016113b8565b91505092915050565b60006020828403121561148157611480611e2b565b5b600082013567ffffffffffffffff81111561149f5761149e611e26565b5b6114ab848285016113cd565b91505092915050565b600080604083850312156114cb576114ca611e2b565b5b600083013567ffffffffffffffff8111156114e9576114e8611e26565b5b6114f5858286016113cd565b925050602083013567ffffffffffffffff81111561151657611515611e26565b5b611522858286016113cd565b9150509250929050565b60008060008060008060c0878903121561154957611548611e2b565b5b600087013567ffffffffffffffff81111561156757611566611e26565b5b61157389828a016113fb565b965050602061158489828a01611429565b955050604061159589828a01611429565b94505060606115a689828a016113b8565b935050608087013567ffffffffffffffff8111156115c7576115c6611e26565b5b6115d389828a016113fb565b92505060a06115e489828a01611429565b9150509295509295509295565b60006020828403121561160757611606611e2b565b5b600061161584828501611429565b91505092915050565b6000806040838503121561163557611634611e2b565b5b600061164385828601611429565b9250506020611654858286016113b8565b9150509250929050565b61166781611bc5565b82525050565b61167681611bd7565b82525050565b600061168782611a89565b6116918185611a94565b93506116a1818560208601611c1c565b6116aa81611e30565b840191505092915050565b60006116c082611a89565b6116ca8185611aa5565b93506116da818560208601611c1c565b80840191505092915050565b60006116f3601183611a94565b91506116fe82611e41565b602082019050919050565b6000611716601883611a94565b915061172182611e6a565b602082019050919050565b6000611739602683611a94565b915061174482611e93565b604082019050919050565b600061175c602083611a94565b915061176782611ee2565b602082019050919050565b600061177f601683611a94565b915061178a82611f0b565b602082019050919050565b60006117a2601683611a94565b91506117ad82611f34565b602082019050919050565b60006117c5601083611a94565b91506117d082611f5d565b602082019050919050565b6117e481611c03565b82525050565b60006117f682856116b5565b915061180282846116b5565b91508190509392505050565b6000602082019050611823600083018461165e565b92915050565b600060208201905061183e600083018461166d565b92915050565b6000602082019050818103600083015261185e818461167c565b905092915050565b60006080820190508181036000830152611880818761167c565b905061188f60208301866117db565b61189c60408301856117db565b6118a9606083018461165e565b95945050505050565b600060208201905081810360008301526118cb816116e6565b9050919050565b600060208201905081810360008301526118eb81611709565b9050919050565b6000602082019050818103600083015261190b8161172c565b9050919050565b6000602082019050818103600083015261192b8161174f565b9050919050565b6000602082019050818103600083015261194b81611772565b9050919050565b6000602082019050818103600083015261196b81611795565b9050919050565b6000602082019050818103600083015261198b816117b8565b9050919050565b60006020820190506119a760008301846117db565b92915050565b600060a0820190506119c260008301886117db565b81810360208301526119d4818761167c565b90506119e360408301866117db565b6119f060608301856117db565b6119fd608083018461165e565b9695505050505050565b6000611a11611a22565b9050611a1d8282611c81565b919050565b6000604051905090565b600067ffffffffffffffff821115611a4757611a46611de8565b5b602082029050602081019050919050565b600067ffffffffffffffff821115611a7357611a72611de8565b5b611a7c82611e30565b9050602081019050919050565b600081519050919050565b600082825260208201905092915050565b600081905092915050565b6000611abb82611c03565b9150611ac683611c03565b9250827fffffffffffffffffffffffffffffffffffffffffffffffffffffffffffffffff03821115611afb57611afa611d2c565b5b828201905092915050565b6000611b1182611c03565b9150611b1c83611c03565b925082611b2c57611b2b611d5b565b5b828204905092915050565b6000611b4282611c03565b9150611b4d83611c03565b9250817fffffffffffffffffffffffffffffffffffffffffffffffffffffffffffffffff0483118215151615611b8657611b85611d2c565b5b828202905092915050565b6000611b9c82611c03565b9150611ba783611c03565b925082821015611bba57611bb9611d2c565b5b828203905092915050565b6000611bd082611be3565b9050919050565b60008115159050919050565b600073ffffffffffffffffffffffffffffffffffffffff82169050919050565b6000819050919050565b82818337600083830152505050565b60005b83811015611c3a578082015181840152602081019050611c1f565b83811115611c49576000848401525b50505050565b60006002820490506001821680611c6757607f821691505b60208210811415611c7b57611c7a611d8a565b5b50919050565b611c8a82611e30565b810181811067ffffffffffffffff82111715611ca957611ca8611de8565b5b80604052505050565b6000611cbd82611c03565b91507fffffffffffffffffffffffffffffffffffffffffffffffffffffffffffffffff821415611cf057611cef611d2c565b5b600182019050919050565b6000611d0682611c03565b9150611d1183611c03565b925082611d2157611d20611d5b565b5b828206905092915050565b7f4e487b7100000000000000000000000000000000000000000000000000000000600052601160045260246000fd5b7f4e487b7100000000000000000000000000000000000000000000000000000000600052601260045260246000fd5b7f4e487b7100000000000000000000000000000000000000000000000000000000600052602260045260246000fd5b7f4e487b7100000000000000000000000000000000000000000000000000000000600052603260045260246000fd5b7f4e487b7100000000000000000000000000000000000000000000000000000000600052604160045260246000fd5b600080fd5b600080fd5b600080fd5b600080fd5b600080fd5b6000601f19601f8301169050919050565b7f50424d206e6f74207265766f6b61626c65000000000000000000000000000000600082015250565b7f50424d3a20496e76616c696420546f6b656e2049642873290000000000000000600082015250565b7f4f776e61626c653a206e6577206f776e657220697320746865207a65726f206160008201527f6464726573730000000000000000000000000000000000000000000000000000602082015250565b7f4f776e61626c653a2063616c6c6572206973206e6f7420746865206f776e6572600082015250565b7f496e76616c696420746f6b656e206578706972792d3100000000000000000000600082015250565b7f496e76616c696420746f6b656e206578706972792d3200000000000000000000600082015250565b7f53706f7420616d6f756e74206973203000000000000000000000000000000000600082015250565b611f8f81611bc5565b8114611f9a57600080fd5b50565b611fa681611c03565b8114611fb157600080fd5b5056fea2646970667358221220795c9632e75859d15c802dc432f861f934c89491ed98914e7e49fdeb59dca90364736f6c63430008070033",
  "immutableReferences": {},
  "source": "// SPDX-License-Identifier: MIT\npragma solidity ^0.8.7;\n\nimport \"@openzeppelin/contracts/token/ERC1155/ERC1155.sol\";\nimport \"@openzeppelin/contracts/access/Ownable.sol\";\nimport \"@openzeppelin/contracts/security/Pausable.sol\";\n\nimport \"./ERC20Helper.sol\";  \nimport \"./PBMTokenManager.sol\";\nimport \"./IPBM.sol\";  \nimport \"./IPBMAddressList.sol\";\n\ncontract PBM is ERC1155, Ownable, Pausable, IPBM {  \n    \n    // undelrying ERC-20 tokens\n    address public spotToken ; \n    // address of the token manager\n    address public pbmTokenManager; \n    // address of the PBM-Addresslist\n    address public pbmAddressList; \n\n    // tracks contract initialisation\n    bool internal initialised = false;\n    // time of expiry ( epoch )\n    uint256 public contractExpiry ; \n\n    constructor(string memory _uriPostExpiry) ERC1155(\"\") {\n        pbmTokenManager = address(new PBMTokenManager(_uriPostExpiry)) ; \n    }\n\n    function initialise(address _spotToken, uint256 _expiry, address _pbmAddressList)\n    external \n    override\n    onlyOwner\n    {\n        require(!initialised, \"PBM: Already initialised\"); \n        spotToken = _spotToken;\n        contractExpiry = _expiry; \n        pbmAddressList = _pbmAddressList; \n    }\n\n    /**\n     * @dev See {IPBM-createPBMTokenType}.\n     *\n     * Requirements:\n     *\n     * - caller must be owner \n     * - contract must not be expired\n     * - `tokenExpiry` must be less than contract expiry\n     * - `amount` should not be 0\n     */\n    function createPBMTokenType(string memory companyName, uint256 spotAmount, uint256 tokenExpiry,address creator, string memory tokenURI) \n    external \n    override\n    onlyOwner \n    {        \n        PBMTokenManager(pbmTokenManager).createTokenType(companyName, spotAmount, tokenExpiry, creator,  tokenURI, contractExpiry);\n    }\n\n    /**\n     * @dev See {IPBM-mint}.\n     *     \n     * IMPT: Before minting, the caller should approve the contract address to spend ERC-20 tokens on behalf of the caller.\n     *       This can be done by calling the `approve` or `increaseMinterAllowance` functions of the ERC-20 contract and specifying `_spender` to be the PBM contract address. \n             Ref : https://eips.ethereum.org/EIPS/eip-20\n     *\n     * Requirements:\n     *\n     * - contract must not be paused\n     * - tokens must not be expired\n     * - `tokenId` should be a valid id that has already been created\n     * - caller should have the necessary amount of the ERC-20 tokens required to mint\n     * - caller should have approved the PBM contract to spend the ERC-20 tokens\n     */\n    function mint(uint256 tokenId, uint256 amount, address receiver) \n    external  \n    override\n    whenNotPaused\n    {\n        uint256 valueOfNewTokens = amount*(PBMTokenManager(pbmTokenManager).getTokenValue(tokenId)); \n\n        //Transfer the spot token from the user to the contract to wrap it\n        ERC20Helper.safeTransferFrom(spotToken, msg.sender, address(this), valueOfNewTokens);\n\n        // mint the token if the contract - wrapping the xsgd\n        PBMTokenManager(pbmTokenManager).increaseBalanceSupply(serialise(tokenId), serialise(amount)) ; \n        _mint(receiver, tokenId, amount, ''); \n    }\n\n    /**\n     * @dev See {IPBM-batchMint}.\n     *     \n     * IMPT: Before minting, the caller should approve the contract address to spend ERC-20 tokens on behalf of the caller.\n     *       This can be done by calling the `approve` or `increaseMinterAllowance` functions of the ERC-20 contract and specifying `_spender` to be the PBM contract address. \n             Ref : https://eips.ethereum.org/EIPS/eip-20\n     *\n     * Requirements:\n     *\n     * - contract must not be paused\n     * - tokens must not be expired\n     * - `tokenIds` should all be valid ids that have already been created\n     * - `tokenIds` and `amounts` list need to have the same number of values\n     * - caller should have the necessary amount of the ERC-20 tokens required to mint\n     * - caller should have approved the PBM contract to spend the ERC-20 tokens\n     */\n    function batchMint(uint256[] memory tokenIds, uint256[] memory amounts, address receiver) \n    external \n    override\n    whenNotPaused\n    {   \n        require(tokenIds.length == amounts.length, \"Unequal ids and amounts supplied\"); \n\n        // calculate the value of the new tokens\n        uint256 valueOfNewTokens = 0 ; \n\n        for (uint256 i = 0; i < tokenIds.length; i++) {\n            valueOfNewTokens += (amounts[i]*(PBMTokenManager(pbmTokenManager).getTokenValue(tokenIds[i])));  \n        } \n\n        // Transfer spot tokenf from user to contract to wrap it\n        ERC20Helper.safeTransferFrom(spotToken, msg.sender, address(this), valueOfNewTokens);\n        PBMTokenManager(pbmTokenManager).increaseBalanceSupply(tokenIds, amounts);\n        _mintBatch(receiver, tokenIds, amounts, '');\n    }\n\n    /**\n     * @dev See {IPBM-safeTransferFrom}.\n     *     \n     *\n     * Requirements:\n     *\n     * - contract must not be paused\n     * - tokens must not be expired\n     * - `tokenId` should be a valid ids that has already been created\n     * - caller should have the PBMs that are being transferred (or)\n     *          caller should have the approval to spend the PBMs on behalf of the owner (`from` addresss)\n     */\n    function safeTransferFrom( address from, address to, uint256 id, uint256 amount, bytes memory data) \n    public   \n    override(ERC1155, IPBM)\n    whenNotPaused  \n    {\n        require(\n            from == _msgSender() || isApprovedForAll(from, _msgSender()),\n            \"ERC1155: caller is not token owner nor approved\"\n        );\n\n        if (IPBMAddressList(pbmAddressList).isMerchant(to)){\n            uint256 valueOfTokens = amount*(PBMTokenManager(pbmTokenManager).getTokenValue(id)); \n\n            // burn and transfer underlying ERC-20\n            _burn(from, id, amount);\n            PBMTokenManager(pbmTokenManager).decreaseBalanceSupply(serialise(id), serialise(amount)) ; \n            ERC20Helper.safeTransfer(spotToken, to, valueOfTokens);\n            emit MerchantPayment(from, to, serialise(id), serialise(amount), spotToken, valueOfTokens);\n\n        } else {\n            require(IPBMAddressList(pbmAddressList).isBlacklisted(to), \"PBM: 'to' address blacklisted\");\n            _safeTransferFrom(from, to, id, amount, data);\n        }\n \n    }\n\n    /**\n     * @dev See {IPBM-safeBatchTransferFrom}.\n     *     \n     *\n     * Requirements:\n     *\n     * - contract must not be paused\n     * - tokens must not be expired\n     * - `tokenIds` should all be  valid ids that has already been created\n     * - `tokenIds` and `amounts` list need to have the same number of values\n     * - caller should have the PBMs that are being transferred (or)\n     *          caller should have the approval to spend the PBMs on behalf of the owner (`from` addresss)\n     */ \n    function safeBatchTransferFrom(address from,address to,uint256[] memory ids,uint256[] memory amounts, bytes memory data) \n    public  \n    override(ERC1155, IPBM)\n    whenNotPaused \n    {\n        require(\n            from == _msgSender() || isApprovedForAll(from, _msgSender()),\n            \"ERC1155: caller is not token owner nor approved\"\n        );\n        require(ids.length == amounts.length, \"Unequal ids and amounts supplied\"); \n\n        if (IPBMAddressList(pbmAddressList).isMerchant(to)) {\n            uint256 valueOfTokens = 0 ; \n            for (uint256 i = 0; i < ids.length; i++) {\n                valueOfTokens += (amounts[i]*(PBMTokenManager(pbmTokenManager).getTokenValue(ids[i]))) ; \n            } \n\n            _burnBatch(from, ids, amounts);\n            PBMTokenManager(pbmTokenManager).decreaseBalanceSupply(ids, amounts);\n            ERC20Helper.safeTransfer(spotToken, to, valueOfTokens);\n\n            emit MerchantPayment(from, to, ids, amounts, spotToken, valueOfTokens);\n\n        } else {\n            require(IPBMAddressList(pbmAddressList).isBlacklisted(to), \"PBM: 'to' address blacklisted\");\n            _safeBatchTransferFrom(from, to, ids, amounts, data);\n        }\n    }\n    \n    /**\n     * @dev See {IPBM-revokePBM}.\n     *\n     * Requirements:\n     *\n     * - `tokenId` should be a valid ids that has already been created\n     * - caller must be the creator of the tokenType \n     * - token must be expired\n     */ \n    function revokePBM(uint256 tokenId) \n    external \n    override\n    whenNotPaused \n    {\n        uint256 valueOfTokens = PBMTokenManager(pbmTokenManager).getPBMRevokeValue(tokenId);\n\n        PBMTokenManager(pbmTokenManager).revokePBM(tokenId, msg.sender); \n\n        // transfering underlying ERC20 tokens\n        ERC20Helper.safeTransfer(spotToken, msg.sender, valueOfTokens);\n\n        emit PBMrevokeWithdraw(msg.sender, tokenId, spotToken, valueOfTokens);\n\n    }\n    /**\n     * @dev See {IPBM-getTokenDetails}.\n     *\n     */ \n    function getTokenDetails(uint256 tokenId) \n    external \n    view \n    override\n    returns (string memory, uint256, uint256, address) \n    {\n        return PBMTokenManager(pbmTokenManager).getTokenDetails(tokenId); \n    }\n\n    /**\n     * @dev See {IPBM-uri}.\n     *\n     */ \n    function uri(uint256 tokenId)\n    public  \n    view\n    override(ERC1155, IPBM)\n    returns (string memory)\n    {\n        return PBMTokenManager(pbmTokenManager).uri(tokenId);\n    }\n\n    function serialise(uint256 num)\n    internal \n    pure\n    returns (uint256[] memory) {\n        uint256[] memory array  = new uint256[](1) ; \n        array[0] = num ; \n        return array ;\n    }\n}",
  "sourcePath": "/Users/mihir/Desktop/code/Orchid-PBM/contracts/PBM.sol",
  "compiler": {
    "name": "solc",
    "version": "0.8.7+commit.e28d00a7.Emscripten.clang"
  },
  "schemaVersion": "3.4.3",
  "updatedAt": "2022-09-22T06:23:14.912Z",
  "devdoc": {
    "kind": "dev",
    "methods": {
      "balanceOf(address,uint256)": {
        "details": "See {IERC1155-balanceOf}. Requirements: - `account` cannot be the zero address."
      },
      "balanceOfBatch(address[],uint256[])": {
        "details": "See {IERC1155-balanceOfBatch}. Requirements: - `accounts` and `ids` must have the same length."
      },
      "batchMint(uint256[],uint256[],address)": {
        "details": "See {IPBM-batchMint}.      IMPT: Before minting, the caller should approve the contract address to spend ERC-20 tokens on behalf of the caller.       This can be done by calling the `approve` or `increaseMinterAllowance` functions of the ERC-20 contract and specifying `_spender` to be the PBM contract address.  Ref : https://eips.ethereum.org/EIPS/eip-20 Requirements: - contract must not be paused - tokens must not be expired - `tokenIds` should all be valid ids that have already been created - `tokenIds` and `amounts` list need to have the same number of values - caller should have the necessary amount of the ERC-20 tokens required to mint - caller should have approved the PBM contract to spend the ERC-20 tokens"
      },
      "createPBMTokenType(string,uint256,uint256,address,string)": {
        "details": "See {IPBM-createPBMTokenType}. Requirements: - caller must be owner  - contract must not be expired - `tokenExpiry` must be less than contract expiry - `amount` should not be 0"
      },
      "getTokenDetails(uint256)": {
        "details": "See {IPBM-getTokenDetails}."
      },
      "initialise(address,uint256,address)": {
        "params": {
          "_expiry": "contract wide expiry ( in epoch )",
          "_pbmAddressList": "address of the PBMAddressList smartcontract",
          "_spotToken": "address of the underlying ERC20 token"
        }
      },
      "isApprovedForAll(address,address)": {
        "details": "See {IERC1155-isApprovedForAll}."
      },
      "mint(uint256,uint256,address)": {
        "details": "See {IPBM-mint}.      IMPT: Before minting, the caller should approve the contract address to spend ERC-20 tokens on behalf of the caller.       This can be done by calling the `approve` or `increaseMinterAllowance` functions of the ERC-20 contract and specifying `_spender` to be the PBM contract address.  Ref : https://eips.ethereum.org/EIPS/eip-20 Requirements: - contract must not be paused - tokens must not be expired - `tokenId` should be a valid id that has already been created - caller should have the necessary amount of the ERC-20 tokens required to mint - caller should have approved the PBM contract to spend the ERC-20 tokens"
      },
      "owner()": {
        "details": "Returns the address of the current owner."
      },
      "paused()": {
        "details": "Returns true if the contract is paused, and false otherwise."
      },
      "renounceOwnership()": {
        "details": "Leaves the contract without owner. It will not be possible to call `onlyOwner` functions anymore. Can only be called by the current owner. NOTE: Renouncing ownership will leave the contract without an owner, thereby removing any functionality that is only available to the owner."
      },
      "revokePBM(uint256)": {
        "details": "See {IPBM-revokePBM}. Requirements: - `tokenId` should be a valid ids that has already been created - caller must be the creator of the tokenType  - token must be expired"
      },
      "safeBatchTransferFrom(address,address,uint256[],uint256[],bytes)": {
        "details": "See {IPBM-safeBatchTransferFrom}.      Requirements: - contract must not be paused - tokens must not be expired - `tokenIds` should all be  valid ids that has already been created - `tokenIds` and `amounts` list need to have the same number of values - caller should have the PBMs that are being transferred (or)          caller should have the approval to spend the PBMs on behalf of the owner (`from` addresss)"
      },
      "safeTransferFrom(address,address,uint256,uint256,bytes)": {
        "details": "See {IPBM-safeTransferFrom}.      Requirements: - contract must not be paused - tokens must not be expired - `tokenId` should be a valid ids that has already been created - caller should have the PBMs that are being transferred (or)          caller should have the approval to spend the PBMs on behalf of the owner (`from` addresss)"
      },
      "setApprovalForAll(address,bool)": {
        "details": "See {IERC1155-setApprovalForAll}."
      },
      "supportsInterface(bytes4)": {
        "details": "See {IERC165-supportsInterface}."
      },
      "transferOwnership(address)": {
        "details": "Transfers ownership of the contract to a new account (`newOwner`). Can only be called by the current owner."
      },
      "uri(uint256)": {
        "details": "See {IPBM-uri}."
      }
    },
    "version": 1
  },
  "userdoc": {
    "events": {
      "MerchantPayment(address,address,uint256[],uint256[],address,uint256)": {
        "notice": "Emitted when underlying ERC-20 tokens are transferred to a whitelisted merchant ( payment )"
      },
      "PBMrevokeWithdraw(address,uint256,address,uint256)": {
        "notice": "Emitted when a PBM type creator withdraws the underlying ERC-20 tokens from all the remaining expired PBMs"
      }
    },
    "kind": "user",
    "methods": {
      "initialise(address,uint256,address)": {
        "notice": "sets the address of the underlying ERC20 token, Contract Expiry, and the address of pbm address list"
      }
    },
    "version": 1
  }
}