{
  "contractName": "PBM",
  "abi": [
    {
      "inputs": [
        {
          "internalType": "string",
          "name": "_uriPostExpiry",
          "type": "string"
        }
      ],
      "stateMutability": "nonpayable",
      "type": "constructor"
    },
    {
      "anonymous": false,
      "inputs": [
        {
          "indexed": true,
          "internalType": "address",
          "name": "account",
          "type": "address"
        },
        {
          "indexed": true,
          "internalType": "address",
          "name": "operator",
          "type": "address"
        },
        {
          "indexed": false,
          "internalType": "bool",
          "name": "approved",
          "type": "bool"
        }
      ],
      "name": "ApprovalForAll",
      "type": "event"
    },
    {
      "anonymous": false,
      "inputs": [
        {
          "indexed": false,
          "internalType": "address",
          "name": "from",
          "type": "address"
        },
        {
          "indexed": false,
          "internalType": "address",
          "name": "to",
          "type": "address"
        },
        {
          "indexed": false,
          "internalType": "uint256[]",
          "name": "tokenIds",
          "type": "uint256[]"
        },
        {
          "indexed": false,
          "internalType": "uint256[]",
          "name": "amounts",
          "type": "uint256[]"
        },
        {
          "indexed": false,
          "internalType": "address",
          "name": "ERC20Token",
          "type": "address"
        },
        {
          "indexed": false,
          "internalType": "uint256",
          "name": "ERC20TokenValue",
          "type": "uint256"
        }
      ],
      "name": "MerchantPayment",
      "type": "event"
    },
    {
      "anonymous": false,
      "inputs": [
        {
          "indexed": true,
          "internalType": "address",
          "name": "previousOwner",
          "type": "address"
        },
        {
          "indexed": true,
          "internalType": "address",
          "name": "newOwner",
          "type": "address"
        }
      ],
      "name": "OwnershipTransferred",
      "type": "event"
    },
    {
      "anonymous": false,
      "inputs": [
        {
          "indexed": false,
          "internalType": "address",
          "name": "beneficiary",
          "type": "address"
        },
        {
          "indexed": false,
          "internalType": "uint256",
          "name": "PBMTokenId",
          "type": "uint256"
        },
        {
          "indexed": false,
          "internalType": "address",
          "name": "ERC20Token",
          "type": "address"
        },
        {
          "indexed": false,
          "internalType": "uint256",
          "name": "ERC20TokenValue",
          "type": "uint256"
        }
      ],
      "name": "PBMrevokeWithdraw",
      "type": "event"
    },
    {
      "anonymous": false,
      "inputs": [
        {
          "indexed": false,
          "internalType": "address",
          "name": "account",
          "type": "address"
        }
      ],
      "name": "Paused",
      "type": "event"
    },
    {
      "anonymous": false,
      "inputs": [
        {
          "indexed": true,
          "internalType": "address",
          "name": "operator",
          "type": "address"
        },
        {
          "indexed": true,
          "internalType": "address",
          "name": "from",
          "type": "address"
        },
        {
          "indexed": true,
          "internalType": "address",
          "name": "to",
          "type": "address"
        },
        {
          "indexed": false,
          "internalType": "uint256[]",
          "name": "ids",
          "type": "uint256[]"
        },
        {
          "indexed": false,
          "internalType": "uint256[]",
          "name": "values",
          "type": "uint256[]"
        }
      ],
      "name": "TransferBatch",
      "type": "event"
    },
    {
      "anonymous": false,
      "inputs": [
        {
          "indexed": true,
          "internalType": "address",
          "name": "operator",
          "type": "address"
        },
        {
          "indexed": true,
          "internalType": "address",
          "name": "from",
          "type": "address"
        },
        {
          "indexed": true,
          "internalType": "address",
          "name": "to",
          "type": "address"
        },
        {
          "indexed": false,
          "internalType": "uint256",
          "name": "id",
          "type": "uint256"
        },
        {
          "indexed": false,
          "internalType": "uint256",
          "name": "value",
          "type": "uint256"
        }
      ],
      "name": "TransferSingle",
      "type": "event"
    },
    {
      "anonymous": false,
      "inputs": [
        {
          "indexed": false,
          "internalType": "string",
          "name": "value",
          "type": "string"
        },
        {
          "indexed": true,
          "internalType": "uint256",
          "name": "id",
          "type": "uint256"
        }
      ],
      "name": "URI",
      "type": "event"
    },
    {
      "anonymous": false,
      "inputs": [
        {
          "indexed": false,
          "internalType": "address",
          "name": "account",
          "type": "address"
        }
      ],
      "name": "Unpaused",
      "type": "event"
    },
    {
      "inputs": [
        {
          "internalType": "address",
          "name": "account",
          "type": "address"
        },
        {
          "internalType": "uint256",
          "name": "id",
          "type": "uint256"
        }
      ],
      "name": "balanceOf",
      "outputs": [
        {
          "internalType": "uint256",
          "name": "",
          "type": "uint256"
        }
      ],
      "stateMutability": "view",
      "type": "function"
    },
    {
      "inputs": [
        {
          "internalType": "address[]",
          "name": "accounts",
          "type": "address[]"
        },
        {
          "internalType": "uint256[]",
          "name": "ids",
          "type": "uint256[]"
        }
      ],
      "name": "balanceOfBatch",
      "outputs": [
        {
          "internalType": "uint256[]",
          "name": "",
          "type": "uint256[]"
        }
      ],
      "stateMutability": "view",
      "type": "function"
    },
    {
      "inputs": [],
      "name": "contractExpiry",
      "outputs": [
        {
          "internalType": "uint256",
          "name": "",
          "type": "uint256"
        }
      ],
      "stateMutability": "view",
      "type": "function"
    },
    {
      "inputs": [
        {
          "internalType": "address",
          "name": "account",
          "type": "address"
        },
        {
          "internalType": "address",
          "name": "operator",
          "type": "address"
        }
      ],
      "name": "isApprovedForAll",
      "outputs": [
        {
          "internalType": "bool",
          "name": "",
          "type": "bool"
        }
      ],
      "stateMutability": "view",
      "type": "function"
    },
    {
      "inputs": [],
      "name": "owner",
      "outputs": [
        {
          "internalType": "address",
          "name": "",
          "type": "address"
        }
      ],
      "stateMutability": "view",
      "type": "function"
    },
    {
      "inputs": [],
      "name": "paused",
      "outputs": [
        {
          "internalType": "bool",
          "name": "",
          "type": "bool"
        }
      ],
      "stateMutability": "view",
      "type": "function"
    },
    {
      "inputs": [],
      "name": "pbmAddressList",
      "outputs": [
        {
          "internalType": "address",
          "name": "",
          "type": "address"
        }
      ],
      "stateMutability": "view",
      "type": "function"
    },
    {
      "inputs": [],
      "name": "pbmTokenManager",
      "outputs": [
        {
          "internalType": "address",
          "name": "",
          "type": "address"
        }
      ],
      "stateMutability": "view",
      "type": "function"
    },
    {
      "inputs": [],
      "name": "renounceOwnership",
      "outputs": [],
      "stateMutability": "nonpayable",
      "type": "function"
    },
    {
      "inputs": [
        {
          "internalType": "address",
          "name": "operator",
          "type": "address"
        },
        {
          "internalType": "bool",
          "name": "approved",
          "type": "bool"
        }
      ],
      "name": "setApprovalForAll",
      "outputs": [],
      "stateMutability": "nonpayable",
      "type": "function"
    },
    {
      "inputs": [],
      "name": "spotToken",
      "outputs": [
        {
          "internalType": "address",
          "name": "",
          "type": "address"
        }
      ],
      "stateMutability": "view",
      "type": "function"
    },
    {
      "inputs": [
        {
          "internalType": "bytes4",
          "name": "interfaceId",
          "type": "bytes4"
        }
      ],
      "name": "supportsInterface",
      "outputs": [
        {
          "internalType": "bool",
          "name": "",
          "type": "bool"
        }
      ],
      "stateMutability": "view",
      "type": "function"
    },
    {
      "inputs": [
        {
          "internalType": "address",
          "name": "newOwner",
          "type": "address"
        }
      ],
      "name": "transferOwnership",
      "outputs": [],
      "stateMutability": "nonpayable",
      "type": "function"
    },
    {
      "inputs": [
        {
          "internalType": "address",
          "name": "_spotToken",
          "type": "address"
        },
        {
          "internalType": "uint256",
          "name": "_expiry",
          "type": "uint256"
        },
        {
          "internalType": "address",
          "name": "_pbmAddressList",
          "type": "address"
        }
      ],
      "name": "initialise",
      "outputs": [],
      "stateMutability": "nonpayable",
      "type": "function"
    },
    {
      "inputs": [
        {
          "internalType": "string",
          "name": "companyName",
          "type": "string"
        },
        {
          "internalType": "uint256",
          "name": "spotAmount",
          "type": "uint256"
        },
        {
          "internalType": "uint256",
          "name": "tokenExpiry",
          "type": "uint256"
        },
        {
          "internalType": "address",
          "name": "creator",
          "type": "address"
        },
        {
          "internalType": "string",
          "name": "tokenURI",
          "type": "string"
        }
      ],
      "name": "createPBMTokenType",
      "outputs": [],
      "stateMutability": "nonpayable",
      "type": "function"
    },
    {
      "inputs": [
        {
          "internalType": "uint256",
          "name": "tokenId",
          "type": "uint256"
        },
        {
          "internalType": "uint256",
          "name": "amount",
          "type": "uint256"
        },
        {
          "internalType": "address",
          "name": "receiver",
          "type": "address"
        }
      ],
      "name": "mint",
      "outputs": [],
      "stateMutability": "nonpayable",
      "type": "function"
    },
    {
      "inputs": [
        {
          "internalType": "uint256[]",
          "name": "tokenIds",
          "type": "uint256[]"
        },
        {
          "internalType": "uint256[]",
          "name": "amounts",
          "type": "uint256[]"
        },
        {
          "internalType": "address",
          "name": "receiver",
          "type": "address"
        }
      ],
      "name": "batchMint",
      "outputs": [],
      "stateMutability": "nonpayable",
      "type": "function"
    },
    {
      "inputs": [
        {
          "internalType": "address",
          "name": "from",
          "type": "address"
        },
        {
          "internalType": "address",
          "name": "to",
          "type": "address"
        },
        {
          "internalType": "uint256",
          "name": "id",
          "type": "uint256"
        },
        {
          "internalType": "uint256",
          "name": "amount",
          "type": "uint256"
        },
        {
          "internalType": "bytes",
          "name": "data",
          "type": "bytes"
        }
      ],
      "name": "safeTransferFrom",
      "outputs": [],
      "stateMutability": "nonpayable",
      "type": "function"
    },
    {
      "inputs": [
        {
          "internalType": "address",
          "name": "from",
          "type": "address"
        },
        {
          "internalType": "address",
          "name": "to",
          "type": "address"
        },
        {
          "internalType": "uint256[]",
          "name": "ids",
          "type": "uint256[]"
        },
        {
          "internalType": "uint256[]",
          "name": "amounts",
          "type": "uint256[]"
        },
        {
          "internalType": "bytes",
          "name": "data",
          "type": "bytes"
        }
      ],
      "name": "safeBatchTransferFrom",
      "outputs": [],
      "stateMutability": "nonpayable",
      "type": "function"
    },
    {
      "inputs": [
        {
          "internalType": "uint256",
          "name": "tokenId",
          "type": "uint256"
        }
      ],
      "name": "revokePBM",
      "outputs": [],
      "stateMutability": "nonpayable",
      "type": "function"
    },
    {
      "inputs": [
        {
          "internalType": "uint256",
          "name": "tokenId",
          "type": "uint256"
        }
      ],
      "name": "getTokenDetails",
      "outputs": [
        {
          "internalType": "string",
          "name": "",
          "type": "string"
        },
        {
          "internalType": "uint256",
          "name": "",
          "type": "uint256"
        },
        {
          "internalType": "uint256",
          "name": "",
          "type": "uint256"
        },
        {
          "internalType": "address",
          "name": "",
          "type": "address"
        }
      ],
      "stateMutability": "view",
      "type": "function"
    },
    {
      "inputs": [
        {
          "internalType": "uint256",
          "name": "tokenId",
          "type": "uint256"
        }
      ],
      "name": "uri",
      "outputs": [
        {
          "internalType": "string",
          "name": "",
          "type": "string"
        }
      ],
      "stateMutability": "view",
      "type": "function"
    },
    {
      "inputs": [],
      "name": "pause",
      "outputs": [],
      "stateMutability": "nonpayable",
      "type": "function"
    },
    {
      "inputs": [],
      "name": "unpause",
      "outputs": [],
      "stateMutability": "nonpayable",
      "type": "function"
    }
  ],
  "bytecode": "0x60806040526000600460006101000a81548173ffffffffffffffffffffffffffffffffffffffff021916908373ffffffffffffffffffffffffffffffffffffffff1602179055506000600560006101000a81548173ffffffffffffffffffffffffffffffffffffffff021916908373ffffffffffffffffffffffffffffffffffffffff1602179055506000600660006101000a81548173ffffffffffffffffffffffffffffffffffffffff021916908373ffffffffffffffffffffffffffffffffffffffff1602179055506000600660146101000a81548160ff021916908315150217905550348015620000f257600080fd5b50604051620085ee380380620085ee83398181016040528101906200011891906200041b565b604051806020016040528060008152506200013981620001f560201b60201c565b506200015a6200014e6200021160201b60201c565b6200021960201b60201c565b6000600360146101000a81548160ff021916908315150217905550806040516200018490620002df565b620001909190620004ad565b604051809103906000f080158015620001ad573d6000803e3d6000fd5b50600560006101000a81548173ffffffffffffffffffffffffffffffffffffffff021916908373ffffffffffffffffffffffffffffffffffffffff1602179055505062000671565b80600290805190602001906200020d929190620002ed565b5050565b600033905090565b6000600360009054906101000a900473ffffffffffffffffffffffffffffffffffffffff16905081600360006101000a81548173ffffffffffffffffffffffffffffffffffffffff021916908373ffffffffffffffffffffffffffffffffffffffff1602179055508173ffffffffffffffffffffffffffffffffffffffff168173ffffffffffffffffffffffffffffffffffffffff167f8be0079c531659141344cd1fd0a4f28419497f9722a3daafe3b4186f6b6457e060405160405180910390a35050565b61252d80620060c183390190565b828054620002fb9062000582565b90600052602060002090601f0160209004810192826200031f57600085556200036b565b82601f106200033a57805160ff19168380011785556200036b565b828001600101855582156200036b579182015b828111156200036a5782518255916020019190600101906200034d565b5b5090506200037a91906200037e565b5090565b5b80821115620003995760008160009055506001016200037f565b5090565b6000620003b4620003ae84620004fa565b620004d1565b905082815260208101848484011115620003d357620003d262000651565b5b620003e08482856200054c565b509392505050565b600082601f8301126200040057620003ff6200064c565b5b8151620004128482602086016200039d565b91505092915050565b6000602082840312156200043457620004336200065b565b5b600082015167ffffffffffffffff81111562000455576200045462000656565b5b6200046384828501620003e8565b91505092915050565b6000620004798262000530565b6200048581856200053b565b9350620004978185602086016200054c565b620004a28162000660565b840191505092915050565b60006020820190508181036000830152620004c981846200046c565b905092915050565b6000620004dd620004f0565b9050620004eb8282620005b8565b919050565b6000604051905090565b600067ffffffffffffffff8211156200051857620005176200061d565b5b620005238262000660565b9050602081019050919050565b600081519050919050565b600082825260208201905092915050565b60005b838110156200056c5780820151818401526020810190506200054f565b838111156200057c576000848401525b50505050565b600060028204905060018216806200059b57607f821691505b60208210811415620005b257620005b1620005ee565b5b50919050565b620005c38262000660565b810181811067ffffffffffffffff82111715620005e557620005e46200061d565b5b80604052505050565b7f4e487b7100000000000000000000000000000000000000000000000000000000600052602260045260246000fd5b7f4e487b7100000000000000000000000000000000000000000000000000000000600052604160045260246000fd5b600080fd5b600080fd5b600080fd5b600080fd5b6000601f19601f8301169050919050565b615a4080620006816000396000f3fe608060405234801561001057600080fd5b50600436106101575760003560e01c8063715018a6116100c3578063c1e037281161007c578063c1e037281461037a578063e7d3fe6b146103ad578063e985e9c5146103c9578063f242432a146103f9578063f2fde38b14610415578063fb34b2011461043157610157565b8063715018a6146102f257806373e17e76146102fc5780638456cb591461031857806389aba642146103225780638da5cb5b14610340578063a22cb4651461035e57610157565b80633f4ba83a116101155780633f4ba83a146102425780634e1273f41461024c57806351e86cf61461027c5780635c975abb1461029a5780635ed7be9d146102b857806363be47d2146102d457610157565b8062fdd58e1461015c57806301ffc9a71461018c57806307e82e0f146101bc5780630ad89462146101d85780630e89341c146101f65780632eb2c2d614610226575b600080fd5b61017660048036038101906101719190613f39565b61044d565b6040516101839190614e78565b60405180910390f35b6101a660048036038101906101a191906140fc565b610516565b6040516101b39190614a80565b60405180910390f35b6101d660048036038101906101d19190613f79565b6105f8565b005b6101e0610789565b6040516101ed9190614836565b60405180910390f35b610210600480360381019061020b91906142d5565b6107af565b60405161021d9190614a9b565b60405180910390f35b610240600480360381019061023b9190613d93565b610868565b005b61024a610d3d565b005b61026660048036038101906102619190613fcc565b610d4f565b6040516102739190614a27565b60405180910390f35b610284610e68565b6040516102919190614836565b60405180910390f35b6102a2610e8e565b6040516102af9190614a80565b60405180910390f35b6102d260048036038101906102cd9190614222565b610ea5565b005b6102dc610f4d565b6040516102e99190614836565b60405180910390f35b6102fa610f73565b005b610316600480360381019061031191906142d5565b610f87565b005b61032061115d565b005b61032a61116f565b6040516103379190614e78565b60405180910390f35b610348611175565b6040516103559190614836565b60405180910390f35b61037860048036038101906103739190613ef9565b61119f565b005b610394600480360381019061038f91906142d5565b6111b5565b6040516103a49493929190614abd565b60405180910390f35b6103c760048036038101906103c2919061432f565b61127b565b005b6103e360048036038101906103de9190613d53565b611518565b6040516103f09190614a80565b60405180910390f35b610413600480360381019061040e9190613e62565b6115ac565b005b61042f600480360381019061042a9190613d26565b6119ff565b005b61044b60048036038101906104469190614044565b611a83565b005b60008073ffffffffffffffffffffffffffffffffffffffff168373ffffffffffffffffffffffffffffffffffffffff1614156104be576040517f08c379a00000000000000000000000000000000000000000000000000000000081526004016104b590614c98565b60405180910390fd5b60008083815260200190815260200160002060008473ffffffffffffffffffffffffffffffffffffffff1673ffffffffffffffffffffffffffffffffffffffff16815260200190815260200160002054905092915050565b60007fd9b67a26000000000000000000000000000000000000000000000000000000007bffffffffffffffffffffffffffffffffffffffffffffffffffffffff1916827bffffffffffffffffffffffffffffffffffffffffffffffffffffffff191614806105e157507f0e89341c000000000000000000000000000000000000000000000000000000007bffffffffffffffffffffffffffffffffffffffffffffffffffffffff1916827bffffffffffffffffffffffffffffffffffffffffffffffffffffffff1916145b806105f157506105f082611db2565b5b9050919050565b610600611e1c565b600660149054906101000a900460ff1615610650576040517f08c379a000000000000000000000000000000000000000000000000000000000815260040161064790614c58565b60405180910390fd5b61065983611e9a565b610698576040517f08c379a000000000000000000000000000000000000000000000000000000000815260040161068f90614bf8565b60405180910390fd5b6106a181611e9a565b6106e0576040517f08c379a00000000000000000000000000000000000000000000000000000000081526004016106d790614bf8565b60405180910390fd5b82600460006101000a81548173ffffffffffffffffffffffffffffffffffffffff021916908373ffffffffffffffffffffffffffffffffffffffff1602179055508160078190555080600660006101000a81548173ffffffffffffffffffffffffffffffffffffffff021916908373ffffffffffffffffffffffffffffffffffffffff1602179055506001600660146101000a81548160ff021916908315150217905550505050565b600460009054906101000a900473ffffffffffffffffffffffffffffffffffffffff1681565b6060600560009054906101000a900473ffffffffffffffffffffffffffffffffffffffff1673ffffffffffffffffffffffffffffffffffffffff16630e89341c836040518263ffffffff1660e01b815260040161080c9190614e78565b60006040518083038186803b15801561082457600080fd5b505afa158015610838573d6000803e3d6000fd5b505050506040513d6000823e3d601f19601f820116820180604052508101906108619190614156565b9050919050565b610870611ebd565b610878611f07565b73ffffffffffffffffffffffffffffffffffffffff168573ffffffffffffffffffffffffffffffffffffffff1614806108be57506108bd856108b8611f07565b611518565b5b6108fd576040517f08c379a00000000000000000000000000000000000000000000000000000000081526004016108f490614b98565b60405180910390fd5b600660009054906101000a900473ffffffffffffffffffffffffffffffffffffffff1673ffffffffffffffffffffffffffffffffffffffff1663fe575a87856040518263ffffffff1660e01b81526004016109589190614836565b602060405180830381600087803b15801561097257600080fd5b505af1158015610986573d6000803e3d6000fd5b505050506040513d601f19601f820116820180604052508101906109aa91906140cf565b156109ea576040517f08c379a00000000000000000000000000000000000000000000000000000000081526004016109e190614e58565b60405180910390fd5b8151835114610a2e576040517f08c379a0000000000000000000000000000000000000000000000000000000008152600401610a2590614d98565b60405180910390fd5b600660009054906101000a900473ffffffffffffffffffffffffffffffffffffffff1673ffffffffffffffffffffffffffffffffffffffff16631a2f7167856040518263ffffffff1660e01b8152600401610a899190614836565b602060405180830381600087803b158015610aa357600080fd5b505af1158015610ab7573d6000803e3d6000fd5b505050506040513d601f19601f82011682018060405250810190610adb91906140cf565b15610d28576000805b8451811015610bf757600560009054906101000a900473ffffffffffffffffffffffffffffffffffffffff1673ffffffffffffffffffffffffffffffffffffffff1663d10424c7868381518110610b3e57610b3d61524f565b5b60200260200101516040518263ffffffff1660e01b8152600401610b629190614e78565b60206040518083038186803b158015610b7a57600080fd5b505afa158015610b8e573d6000803e3d6000fd5b505050506040513d601f19601f82011682018060405250810190610bb29190614302565b848281518110610bc557610bc461524f565b5b6020026020010151610bd79190615096565b82610be29190615040565b91508080610bef906151d7565b915050610ae4565b50610c03868585611f0f565b600560009054906101000a900473ffffffffffffffffffffffffffffffffffffffff1673ffffffffffffffffffffffffffffffffffffffff1663e21c8b5985856040518363ffffffff1660e01b8152600401610c60929190614a49565b600060405180830381600087803b158015610c7a57600080fd5b505af1158015610c8e573d6000803e3d6000fd5b50505050610cbf600460009054906101000a900473ffffffffffffffffffffffffffffffffffffffff1686836121de565b7f68c9cd42836993caa70415e61f3c3baceb0bb31dcb22af6e5e0db98fa8870fac86868686600460009054906101000a900473ffffffffffffffffffffffffffffffffffffffff1686604051610d1a96959493929190614851565b60405180910390a150610d36565b610d3585858585856123eb565b5b5050505050565b610d45611e1c565b610d4d61270d565b565b60608151835114610d95576040517f08c379a0000000000000000000000000000000000000000000000000000000008152600401610d8c90614dd8565b60405180910390fd5b6000835167ffffffffffffffff811115610db257610db161527e565b5b604051908082528060200260200182016040528015610de05781602001602082028036833780820191505090505b50905060005b8451811015610e5d57610e2d858281518110610e0557610e0461524f565b5b6020026020010151858381518110610e2057610e1f61524f565b5b602002602001015161044d565b828281518110610e4057610e3f61524f565b5b60200260200101818152505080610e56906151d7565b9050610de6565b508091505092915050565b600660009054906101000a900473ffffffffffffffffffffffffffffffffffffffff1681565b6000600360149054906101000a900460ff16905090565b610ead611e1c565b600560009054906101000a900473ffffffffffffffffffffffffffffffffffffffff1673ffffffffffffffffffffffffffffffffffffffff166380d69c8a86868686866007546040518763ffffffff1660e01b8152600401610f1496959493929190614b09565b600060405180830381600087803b158015610f2e57600080fd5b505af1158015610f42573d6000803e3d6000fd5b505050505050505050565b600560009054906101000a900473ffffffffffffffffffffffffffffffffffffffff1681565b610f7b611e1c565b610f856000612770565b565b610f8f611ebd565b6000600560009054906101000a900473ffffffffffffffffffffffffffffffffffffffff1673ffffffffffffffffffffffffffffffffffffffff1663d20874d8836040518263ffffffff1660e01b8152600401610fec9190614e78565b60206040518083038186803b15801561100457600080fd5b505afa158015611018573d6000803e3d6000fd5b505050506040513d601f19601f8201168201806040525081019061103c9190614302565b9050600560009054906101000a900473ffffffffffffffffffffffffffffffffffffffff1673ffffffffffffffffffffffffffffffffffffffff166336a3409c83336040518363ffffffff1660e01b815260040161109b929190614e93565b600060405180830381600087803b1580156110b557600080fd5b505af11580156110c9573d6000803e3d6000fd5b505050506110fa600460009054906101000a900473ffffffffffffffffffffffffffffffffffffffff1633836121de565b7fa1c359e2aefcb2a02fa122099023552498d16ee2c91b81d3cfd8cd086f037d443383600460009054906101000a900473ffffffffffffffffffffffffffffffffffffffff168460405161115194939291906149e2565b60405180910390a15050565b611165611e1c565b61116d612836565b565b60075481565b6000600360009054906101000a900473ffffffffffffffffffffffffffffffffffffffff16905090565b6111b16111aa611f07565b8383612899565b5050565b60606000806000600560009054906101000a900473ffffffffffffffffffffffffffffffffffffffff1673ffffffffffffffffffffffffffffffffffffffff1663c1e03728866040518263ffffffff1660e01b81526004016112179190614e78565b60006040518083038186803b15801561122f57600080fd5b505afa158015611243573d6000803e3d6000fd5b505050506040513d6000823e3d601f19601f8201168201806040525081019061126c919061419f565b93509350935093509193509193565b611283611ebd565b600660009054906101000a900473ffffffffffffffffffffffffffffffffffffffff1673ffffffffffffffffffffffffffffffffffffffff1663fe575a87826040518263ffffffff1660e01b81526004016112de9190614836565b602060405180830381600087803b1580156112f857600080fd5b505af115801561130c573d6000803e3d6000fd5b505050506040513d601f19601f8201168201806040525081019061133091906140cf565b15611370576040517f08c379a000000000000000000000000000000000000000000000000000000000815260040161136790614e58565b60405180910390fd5b6000600560009054906101000a900473ffffffffffffffffffffffffffffffffffffffff1673ffffffffffffffffffffffffffffffffffffffff1663d10424c7856040518263ffffffff1660e01b81526004016113cd9190614e78565b60206040518083038186803b1580156113e557600080fd5b505afa1580156113f9573d6000803e3d6000fd5b505050506040513d601f19601f8201168201806040525081019061141d9190614302565b836114289190615096565b9050611458600460009054906101000a900473ffffffffffffffffffffffffffffffffffffffff16333084612a06565b600560009054906101000a900473ffffffffffffffffffffffffffffffffffffffff1673ffffffffffffffffffffffffffffffffffffffff1663f600d9f461149f86612c16565b6114a886612c16565b6040518363ffffffff1660e01b81526004016114c5929190614a49565b600060405180830381600087803b1580156114df57600080fd5b505af11580156114f3573d6000803e3d6000fd5b5050505061151282858560405180602001604052806000815250612c90565b50505050565b6000600160008473ffffffffffffffffffffffffffffffffffffffff1673ffffffffffffffffffffffffffffffffffffffff16815260200190815260200160002060008373ffffffffffffffffffffffffffffffffffffffff1673ffffffffffffffffffffffffffffffffffffffff16815260200190815260200160002060009054906101000a900460ff16905092915050565b6115b4611ebd565b6115bc611f07565b73ffffffffffffffffffffffffffffffffffffffff168573ffffffffffffffffffffffffffffffffffffffff1614806116025750611601856115fc611f07565b611518565b5b611641576040517f08c379a000000000000000000000000000000000000000000000000000000000815260040161163890614b98565b60405180910390fd5b600660009054906101000a900473ffffffffffffffffffffffffffffffffffffffff1673ffffffffffffffffffffffffffffffffffffffff1663fe575a87856040518263ffffffff1660e01b815260040161169c9190614836565b602060405180830381600087803b1580156116b657600080fd5b505af11580156116ca573d6000803e3d6000fd5b505050506040513d601f19601f820116820180604052508101906116ee91906140cf565b1561172e576040517f08c379a000000000000000000000000000000000000000000000000000000000815260040161172590614e58565b60405180910390fd5b600660009054906101000a900473ffffffffffffffffffffffffffffffffffffffff1673ffffffffffffffffffffffffffffffffffffffff16631a2f7167856040518263ffffffff1660e01b81526004016117899190614836565b602060405180830381600087803b1580156117a357600080fd5b505af11580156117b7573d6000803e3d6000fd5b505050506040513d601f19601f820116820180604052508101906117db91906140cf565b156119ea576000600560009054906101000a900473ffffffffffffffffffffffffffffffffffffffff1673ffffffffffffffffffffffffffffffffffffffff1663d10424c7856040518263ffffffff1660e01b815260040161183d9190614e78565b60206040518083038186803b15801561185557600080fd5b505afa158015611869573d6000803e3d6000fd5b505050506040513d601f19601f8201168201806040525081019061188d9190614302565b836118989190615096565b90506118a5868585612e41565b600560009054906101000a900473ffffffffffffffffffffffffffffffffffffffff1673ffffffffffffffffffffffffffffffffffffffff1663e21c8b596118ec86612c16565b6118f586612c16565b6040518363ffffffff1660e01b8152600401611912929190614a49565b600060405180830381600087803b15801561192c57600080fd5b505af1158015611940573d6000803e3d6000fd5b50505050611971600460009054906101000a900473ffffffffffffffffffffffffffffffffffffffff1686836121de565b7f68c9cd42836993caa70415e61f3c3baceb0bb31dcb22af6e5e0db98fa8870fac868661199d87612c16565b6119a687612c16565b600460009054906101000a900473ffffffffffffffffffffffffffffffffffffffff16866040516119dc96959493929190614851565b60405180910390a1506119f8565b6119f78585858585613088565b5b5050505050565b611a07611e1c565b600073ffffffffffffffffffffffffffffffffffffffff168173ffffffffffffffffffffffffffffffffffffffff161415611a77576040517f08c379a0000000000000000000000000000000000000000000000000000000008152600401611a6e90614c18565b60405180910390fd5b611a8081612770565b50565b611a8b611ebd565b600660009054906101000a900473ffffffffffffffffffffffffffffffffffffffff1673ffffffffffffffffffffffffffffffffffffffff1663fe575a87826040518263ffffffff1660e01b8152600401611ae69190614836565b602060405180830381600087803b158015611b0057600080fd5b505af1158015611b14573d6000803e3d6000fd5b505050506040513d601f19601f82011682018060405250810190611b3891906140cf565b15611b78576040517f08c379a0000000000000000000000000000000000000000000000000000000008152600401611b6f90614e58565b60405180910390fd5b8151835114611bbc576040517f08c379a0000000000000000000000000000000000000000000000000000000008152600401611bb390614d98565b60405180910390fd5b6000805b8451811015611cd357600560009054906101000a900473ffffffffffffffffffffffffffffffffffffffff1673ffffffffffffffffffffffffffffffffffffffff1663d10424c7868381518110611c1a57611c1961524f565b5b60200260200101516040518263ffffffff1660e01b8152600401611c3e9190614e78565b60206040518083038186803b158015611c5657600080fd5b505afa158015611c6a573d6000803e3d6000fd5b505050506040513d601f19601f82011682018060405250810190611c8e9190614302565b848281518110611ca157611ca061524f565b5b6020026020010151611cb39190615096565b82611cbe9190615040565b91508080611ccb906151d7565b915050611bc0565b50611d02600460009054906101000a900473ffffffffffffffffffffffffffffffffffffffff16333084612a06565b600560009054906101000a900473ffffffffffffffffffffffffffffffffffffffff1673ffffffffffffffffffffffffffffffffffffffff1663f600d9f485856040518363ffffffff1660e01b8152600401611d5f929190614a49565b600060405180830381600087803b158015611d7957600080fd5b505af1158015611d8d573d6000803e3d6000fd5b50505050611dac82858560405180602001604052806000815250613324565b50505050565b60007f01ffc9a7000000000000000000000000000000000000000000000000000000007bffffffffffffffffffffffffffffffffffffffffffffffffffffffff1916827bffffffffffffffffffffffffffffffffffffffffffffffffffffffff1916149050919050565b611e24611f07565b73ffffffffffffffffffffffffffffffffffffffff16611e42611175565b73ffffffffffffffffffffffffffffffffffffffff1614611e98576040517f08c379a0000000000000000000000000000000000000000000000000000000008152600401611e8f90614d78565b60405180910390fd5b565b6000808273ffffffffffffffffffffffffffffffffffffffff163b119050919050565b611ec5610e8e565b15611f05576040517f08c379a0000000000000000000000000000000000000000000000000000000008152600401611efc90614cf8565b60405180910390fd5b565b600033905090565b600073ffffffffffffffffffffffffffffffffffffffff168373ffffffffffffffffffffffffffffffffffffffff161415611f7f576040517f08c379a0000000000000000000000000000000000000000000000000000000008152600401611f7690614d38565b60405180910390fd5b8051825114611fc3576040517f08c379a0000000000000000000000000000000000000000000000000000000008152600401611fba90614df8565b60405180910390fd5b6000611fcd611f07565b9050611fed81856000868660405180602001604052806000815250613551565b60005b835181101561213a57600084828151811061200e5761200d61524f565b5b60200260200101519050600084838151811061202d5761202c61524f565b5b60200260200101519050600080600084815260200190815260200160002060008973ffffffffffffffffffffffffffffffffffffffff1673ffffffffffffffffffffffffffffffffffffffff168152602001908152602001600020549050818110156120ce576040517f08c379a00000000000000000000000000000000000000000000000000000000081526004016120c590614c38565b60405180910390fd5b81810360008085815260200190815260200160002060008a73ffffffffffffffffffffffffffffffffffffffff1673ffffffffffffffffffffffffffffffffffffffff168152602001908152602001600020819055505050508080612132906151d7565b915050611ff0565b50600073ffffffffffffffffffffffffffffffffffffffff168473ffffffffffffffffffffffffffffffffffffffff168273ffffffffffffffffffffffffffffffffffffffff167f4a39dc06d4c0dbc64b70af90fd698a233a518aa5d07e595d983b8c0526c8f7fb86866040516121b2929190614a49565b60405180910390a46121d881856000868660405180602001604052806000815250613559565b50505050565b600073ffffffffffffffffffffffffffffffffffffffff168373ffffffffffffffffffffffffffffffffffffffff16141561224e576040517f08c379a000000000000000000000000000000000000000000000000000000000815260040161224590614cd8565b60405180910390fd5b61225783611e9a565b612296576040517f08c379a000000000000000000000000000000000000000000000000000000000815260040161228d90614c78565b60405180910390fd5b6000808473ffffffffffffffffffffffffffffffffffffffff1663a9059cbb60e01b85856040516024016122cb9291906149b9565b604051602081830303815290604052907bffffffffffffffffffffffffffffffffffffffffffffffffffffffff19166020820180517bffffffffffffffffffffffffffffffffffffffffffffffffffffffff8381831617835250505050604051612335919061481f565b6000604051808303816000865af19150503d8060008114612372576040519150601f19603f3d011682016040523d82523d6000602084013e612377565b606091505b50915091508180156123a557506000815114806123a45750808060200190518101906123a391906140cf565b5b5b6123e4576040517f08c379a00000000000000000000000000000000000000000000000000000000081526004016123db90614e38565b60405180910390fd5b5050505050565b815183511461242f576040517f08c379a000000000000000000000000000000000000000000000000000000000815260040161242690614df8565b60405180910390fd5b600073ffffffffffffffffffffffffffffffffffffffff168473ffffffffffffffffffffffffffffffffffffffff16141561249f576040517f08c379a000000000000000000000000000000000000000000000000000000000815260040161249690614d18565b60405180910390fd5b60006124a9611f07565b90506124b9818787878787613551565b60005b845181101561266a5760008582815181106124da576124d961524f565b5b6020026020010151905060008583815181106124f9576124f861524f565b5b60200260200101519050600080600084815260200190815260200160002060008b73ffffffffffffffffffffffffffffffffffffffff1673ffffffffffffffffffffffffffffffffffffffff1681526020019081526020016000205490508181101561259a576040517f08c379a000000000000000000000000000000000000000000000000000000000815260040161259190614d58565b60405180910390fd5b81810360008085815260200190815260200160002060008c73ffffffffffffffffffffffffffffffffffffffff1673ffffffffffffffffffffffffffffffffffffffff168152602001908152602001600020819055508160008085815260200190815260200160002060008b73ffffffffffffffffffffffffffffffffffffffff1673ffffffffffffffffffffffffffffffffffffffff168152602001908152602001600020600082825461264f9190615040565b9250508190555050505080612663906151d7565b90506124bc565b508473ffffffffffffffffffffffffffffffffffffffff168673ffffffffffffffffffffffffffffffffffffffff168273ffffffffffffffffffffffffffffffffffffffff167f4a39dc06d4c0dbc64b70af90fd698a233a518aa5d07e595d983b8c0526c8f7fb87876040516126e1929190614a49565b60405180910390a46126f7818787878787613559565b612705818787878787613561565b505050505050565b612715613748565b6000600360146101000a81548160ff0219169083151502179055507f5db9ee0a495bf2e6ff9c91a7834c1ba4fdd244a5e8aa4e537bd38aeae4b073aa612759611f07565b6040516127669190614836565b60405180910390a1565b6000600360009054906101000a900473ffffffffffffffffffffffffffffffffffffffff16905081600360006101000a81548173ffffffffffffffffffffffffffffffffffffffff021916908373ffffffffffffffffffffffffffffffffffffffff1602179055508173ffffffffffffffffffffffffffffffffffffffff168173ffffffffffffffffffffffffffffffffffffffff167f8be0079c531659141344cd1fd0a4f28419497f9722a3daafe3b4186f6b6457e060405160405180910390a35050565b61283e611ebd565b6001600360146101000a81548160ff0219169083151502179055507f62e78cea01bee320cd4e420270b5ea74000d11b0c9f74754ebdbfc544b05a258612882611f07565b60405161288f9190614836565b60405180910390a1565b8173ffffffffffffffffffffffffffffffffffffffff168373ffffffffffffffffffffffffffffffffffffffff161415612908576040517f08c379a00000000000000000000000000000000000000000000000000000000081526004016128ff90614db8565b60405180910390fd5b80600160008573ffffffffffffffffffffffffffffffffffffffff1673ffffffffffffffffffffffffffffffffffffffff16815260200190815260200160002060008473ffffffffffffffffffffffffffffffffffffffff1673ffffffffffffffffffffffffffffffffffffffff16815260200190815260200160002060006101000a81548160ff0219169083151502179055508173ffffffffffffffffffffffffffffffffffffffff168373ffffffffffffffffffffffffffffffffffffffff167f17307eab39ab6107e8899845ad3d59bd9653f200f220920489ca2b5937696c31836040516129f99190614a80565b60405180910390a3505050565b600073ffffffffffffffffffffffffffffffffffffffff168473ffffffffffffffffffffffffffffffffffffffff161415612a76576040517f08c379a0000000000000000000000000000000000000000000000000000000008152600401612a6d90614cd8565b60405180910390fd5b612a7f84611e9a565b612abe576040517f08c379a0000000000000000000000000000000000000000000000000000000008152600401612ab590614c78565b60405180910390fd5b6000808573ffffffffffffffffffffffffffffffffffffffff166323b872dd60e01b868686604051602401612af593929190614928565b604051602081830303815290604052907bffffffffffffffffffffffffffffffffffffffffffffffffffffffff19166020820180517bffffffffffffffffffffffffffffffffffffffffffffffffffffffff8381831617835250505050604051612b5f919061481f565b6000604051808303816000865af19150503d8060008114612b9c576040519150601f19603f3d011682016040523d82523d6000602084013e612ba1565b606091505b5091509150818015612bcf5750600081511480612bce575080806020019051810190612bcd91906140cf565b5b5b612c0e576040517f08c379a0000000000000000000000000000000000000000000000000000000008152600401612c0590614cb8565b60405180910390fd5b505050505050565b60606000600167ffffffffffffffff811115612c3557612c3461527e565b5b604051908082528060200260200182016040528015612c635781602001602082028036833780820191505090505b5090508281600081518110612c7b57612c7a61524f565b5b60200260200101818152505080915050919050565b600073ffffffffffffffffffffffffffffffffffffffff168473ffffffffffffffffffffffffffffffffffffffff161415612d00576040517f08c379a0000000000000000000000000000000000000000000000000000000008152600401612cf790614e18565b60405180910390fd5b6000612d0a611f07565b90506000612d1785613791565b90506000612d2485613791565b9050612d3583600089858589613551565b8460008088815260200190815260200160002060008973ffffffffffffffffffffffffffffffffffffffff1673ffffffffffffffffffffffffffffffffffffffff1681526020019081526020016000206000828254612d949190615040565b925050819055508673ffffffffffffffffffffffffffffffffffffffff16600073ffffffffffffffffffffffffffffffffffffffff168473ffffffffffffffffffffffffffffffffffffffff167fc3d58168c5ae7397731d063d5bbf3d657854427343f4c083240f7aacaa2d0f628989604051612e12929190614ebc565b60405180910390a4612e2983600089858589613559565b612e388360008989898961380b565b50505050505050565b600073ffffffffffffffffffffffffffffffffffffffff168373ffffffffffffffffffffffffffffffffffffffff161415612eb1576040517f08c379a0000000000000000000000000000000000000000000000000000000008152600401612ea890614d38565b60405180910390fd5b6000612ebb611f07565b90506000612ec884613791565b90506000612ed584613791565b9050612ef583876000858560405180602001604052806000815250613551565b600080600087815260200190815260200160002060008873ffffffffffffffffffffffffffffffffffffffff1673ffffffffffffffffffffffffffffffffffffffff16815260200190815260200160002054905084811015612f8c576040517f08c379a0000000000000000000000000000000000000000000000000000000008152600401612f8390614c38565b60405180910390fd5b84810360008088815260200190815260200160002060008973ffffffffffffffffffffffffffffffffffffffff1673ffffffffffffffffffffffffffffffffffffffff16815260200190815260200160002081905550600073ffffffffffffffffffffffffffffffffffffffff168773ffffffffffffffffffffffffffffffffffffffff168573ffffffffffffffffffffffffffffffffffffffff167fc3d58168c5ae7397731d063d5bbf3d657854427343f4c083240f7aacaa2d0f628989604051613059929190614ebc565b60405180910390a461307f84886000868660405180602001604052806000815250613559565b50505050505050565b600073ffffffffffffffffffffffffffffffffffffffff168473ffffffffffffffffffffffffffffffffffffffff1614156130f8576040517f08c379a00000000000000000000000000000000000000000000000000000000081526004016130ef90614d18565b60405180910390fd5b6000613102611f07565b9050600061310f85613791565b9050600061311c85613791565b905061312c838989858589613551565b600080600088815260200190815260200160002060008a73ffffffffffffffffffffffffffffffffffffffff1673ffffffffffffffffffffffffffffffffffffffff168152602001908152602001600020549050858110156131c3576040517f08c379a00000000000000000000000000000000000000000000000000000000081526004016131ba90614d58565b60405180910390fd5b85810360008089815260200190815260200160002060008b73ffffffffffffffffffffffffffffffffffffffff1673ffffffffffffffffffffffffffffffffffffffff168152602001908152602001600020819055508560008089815260200190815260200160002060008a73ffffffffffffffffffffffffffffffffffffffff1673ffffffffffffffffffffffffffffffffffffffff16815260200190815260200160002060008282546132789190615040565b925050819055508773ffffffffffffffffffffffffffffffffffffffff168973ffffffffffffffffffffffffffffffffffffffff168573ffffffffffffffffffffffffffffffffffffffff167fc3d58168c5ae7397731d063d5bbf3d657854427343f4c083240f7aacaa2d0f628a8a6040516132f5929190614ebc565b60405180910390a461330b848a8a86868a613559565b613319848a8a8a8a8a61380b565b505050505050505050565b600073ffffffffffffffffffffffffffffffffffffffff168473ffffffffffffffffffffffffffffffffffffffff161415613394576040517f08c379a000000000000000000000000000000000000000000000000000000000815260040161338b90614e18565b60405180910390fd5b81518351146133d8576040517f08c379a00000000000000000000000000000000000000000000000000000000081526004016133cf90614df8565b60405180910390fd5b60006133e2611f07565b90506133f381600087878787613551565b60005b84518110156134ac578381815181106134125761341161524f565b5b60200260200101516000808784815181106134305761342f61524f565b5b6020026020010151815260200190815260200160002060008873ffffffffffffffffffffffffffffffffffffffff1673ffffffffffffffffffffffffffffffffffffffff16815260200190815260200160002060008282546134929190615040565b9250508190555080806134a4906151d7565b9150506133f6565b508473ffffffffffffffffffffffffffffffffffffffff16600073ffffffffffffffffffffffffffffffffffffffff168273ffffffffffffffffffffffffffffffffffffffff167f4a39dc06d4c0dbc64b70af90fd698a233a518aa5d07e595d983b8c0526c8f7fb8787604051613524929190614a49565b60405180910390a461353b81600087878787613559565b61354a81600087878787613561565b5050505050565b505050505050565b505050505050565b6135808473ffffffffffffffffffffffffffffffffffffffff16611e9a565b15613740578373ffffffffffffffffffffffffffffffffffffffff1663bc197c8187878686866040518663ffffffff1660e01b81526004016135c69594939291906148c0565b602060405180830381600087803b1580156135e057600080fd5b505af192505050801561361157506040513d601f19601f8201168201806040525081019061360e9190614129565b60015b6136b75761361d6152ad565b806308c379a0141561367a5750613632615918565b8061363d575061367c565b806040517f08c379a00000000000000000000000000000000000000000000000000000000081526004016136719190614a9b565b60405180910390fd5b505b6040517f08c379a00000000000000000000000000000000000000000000000000000000081526004016136ae90614b78565b60405180910390fd5b63bc197c8160e01b7bffffffffffffffffffffffffffffffffffffffffffffffffffffffff1916817bffffffffffffffffffffffffffffffffffffffffffffffffffffffff19161461373e576040517f08c379a000000000000000000000000000000000000000000000000000000000815260040161373590614bb8565b60405180910390fd5b505b505050505050565b613750610e8e565b61378f576040517f08c379a000000000000000000000000000000000000000000000000000000000815260040161378690614bd8565b60405180910390fd5b565b60606000600167ffffffffffffffff8111156137b0576137af61527e565b5b6040519080825280602002602001820160405280156137de5781602001602082028036833780820191505090505b50905082816000815181106137f6576137f561524f565b5b60200260200101818152505080915050919050565b61382a8473ffffffffffffffffffffffffffffffffffffffff16611e9a565b156139ea578373ffffffffffffffffffffffffffffffffffffffff1663f23a6e6187878686866040518663ffffffff1660e01b815260040161387095949392919061495f565b602060405180830381600087803b15801561388a57600080fd5b505af19250505080156138bb57506040513d601f19601f820116820180604052508101906138b89190614129565b60015b613961576138c76152ad565b806308c379a0141561392457506138dc615918565b806138e75750613926565b806040517f08c379a000000000000000000000000000000000000000000000000000000000815260040161391b9190614a9b565b60405180910390fd5b505b6040517f08c379a000000000000000000000000000000000000000000000000000000000815260040161395890614b78565b60405180910390fd5b63f23a6e6160e01b7bffffffffffffffffffffffffffffffffffffffffffffffffffffffff1916817bffffffffffffffffffffffffffffffffffffffffffffffffffffffff1916146139e8576040517f08c379a00000000000000000000000000000000000000000000000000000000081526004016139df90614bb8565b60405180910390fd5b505b505050505050565b6000613a05613a0084614f0a565b614ee5565b90508083825260208201905082856020860282011115613a2857613a276152d4565b5b60005b85811015613a585781613a3e8882613b98565b845260208401935060208301925050600181019050613a2b565b5050509392505050565b6000613a75613a7084614f36565b614ee5565b90508083825260208201905082856020860282011115613a9857613a976152d4565b5b60005b85811015613ac85781613aae8882613cfc565b845260208401935060208301925050600181019050613a9b565b5050509392505050565b6000613ae5613ae084614f62565b614ee5565b905082815260208101848484011115613b0157613b006152d9565b5b613b0c848285615164565b509392505050565b6000613b27613b2284614f93565b614ee5565b905082815260208101848484011115613b4357613b426152d9565b5b613b4e848285615164565b509392505050565b6000613b69613b6484614f93565b614ee5565b905082815260208101848484011115613b8557613b846152d9565b5b613b90848285615173565b509392505050565b600081359050613ba7816159ae565b92915050565b600081519050613bbc816159ae565b92915050565b600082601f830112613bd757613bd66152cf565b5b8135613be78482602086016139f2565b91505092915050565b600082601f830112613c0557613c046152cf565b5b8135613c15848260208601613a62565b91505092915050565b600081359050613c2d816159c5565b92915050565b600081519050613c42816159c5565b92915050565b600081359050613c57816159dc565b92915050565b600081519050613c6c816159dc565b92915050565b600082601f830112613c8757613c866152cf565b5b8135613c97848260208601613ad2565b91505092915050565b600082601f830112613cb557613cb46152cf565b5b8135613cc5848260208601613b14565b91505092915050565b600082601f830112613ce357613ce26152cf565b5b8151613cf3848260208601613b56565b91505092915050565b600081359050613d0b816159f3565b92915050565b600081519050613d20816159f3565b92915050565b600060208284031215613d3c57613d3b6152e3565b5b6000613d4a84828501613b98565b91505092915050565b60008060408385031215613d6a57613d696152e3565b5b6000613d7885828601613b98565b9250506020613d8985828601613b98565b9150509250929050565b600080600080600060a08688031215613daf57613dae6152e3565b5b6000613dbd88828901613b98565b9550506020613dce88828901613b98565b945050604086013567ffffffffffffffff811115613def57613dee6152de565b5b613dfb88828901613bf0565b935050606086013567ffffffffffffffff811115613e1c57613e1b6152de565b5b613e2888828901613bf0565b925050608086013567ffffffffffffffff811115613e4957613e486152de565b5b613e5588828901613c72565b9150509295509295909350565b600080600080600060a08688031215613e7e57613e7d6152e3565b5b6000613e8c88828901613b98565b9550506020613e9d88828901613b98565b9450506040613eae88828901613cfc565b9350506060613ebf88828901613cfc565b925050608086013567ffffffffffffffff811115613ee057613edf6152de565b5b613eec88828901613c72565b9150509295509295909350565b60008060408385031215613f1057613f0f6152e3565b5b6000613f1e85828601613b98565b9250506020613f2f85828601613c1e565b9150509250929050565b60008060408385031215613f5057613f4f6152e3565b5b6000613f5e85828601613b98565b9250506020613f6f85828601613cfc565b9150509250929050565b600080600060608486031215613f9257613f916152e3565b5b6000613fa086828701613b98565b9350506020613fb186828701613cfc565b9250506040613fc286828701613b98565b9150509250925092565b60008060408385031215613fe357613fe26152e3565b5b600083013567ffffffffffffffff811115614001576140006152de565b5b61400d85828601613bc2565b925050602083013567ffffffffffffffff81111561402e5761402d6152de565b5b61403a85828601613bf0565b9150509250929050565b60008060006060848603121561405d5761405c6152e3565b5b600084013567ffffffffffffffff81111561407b5761407a6152de565b5b61408786828701613bf0565b935050602084013567ffffffffffffffff8111156140a8576140a76152de565b5b6140b486828701613bf0565b92505060406140c586828701613b98565b9150509250925092565b6000602082840312156140e5576140e46152e3565b5b60006140f384828501613c33565b91505092915050565b600060208284031215614112576141116152e3565b5b600061412084828501613c48565b91505092915050565b60006020828403121561413f5761413e6152e3565b5b600061414d84828501613c5d565b91505092915050565b60006020828403121561416c5761416b6152e3565b5b600082015167ffffffffffffffff81111561418a576141896152de565b5b61419684828501613cce565b91505092915050565b600080600080608085870312156141b9576141b86152e3565b5b600085015167ffffffffffffffff8111156141d7576141d66152de565b5b6141e387828801613cce565b94505060206141f487828801613d11565b935050604061420587828801613d11565b925050606061421687828801613bad565b91505092959194509250565b600080600080600060a0868803121561423e5761423d6152e3565b5b600086013567ffffffffffffffff81111561425c5761425b6152de565b5b61426888828901613ca0565b955050602061427988828901613cfc565b945050604061428a88828901613cfc565b935050606061429b88828901613b98565b925050608086013567ffffffffffffffff8111156142bc576142bb6152de565b5b6142c888828901613ca0565b9150509295509295909350565b6000602082840312156142eb576142ea6152e3565b5b60006142f984828501613cfc565b91505092915050565b600060208284031215614318576143176152e3565b5b600061432684828501613d11565b91505092915050565b600080600060608486031215614348576143476152e3565b5b600061435686828701613cfc565b935050602061436786828701613cfc565b925050604061437886828701613b98565b9150509250925092565b600061438e8383614801565b60208301905092915050565b6143a3816150f0565b82525050565b60006143b482614fd4565b6143be8185615002565b93506143c983614fc4565b8060005b838110156143fa5781516143e18882614382565b97506143ec83614ff5565b9250506001810190506143cd565b5085935050505092915050565b61441081615102565b82525050565b600061442182614fdf565b61442b8185615013565b935061443b818560208601615173565b614444816152e8565b840191505092915050565b600061445a82614fdf565b6144648185615024565b9350614474818560208601615173565b80840191505092915050565b600061448b82614fea565b614495818561502f565b93506144a5818560208601615173565b6144ae816152e8565b840191505092915050565b60006144c660348361502f565b91506144d182615306565b604082019050919050565b60006144e9602f8361502f565b91506144f482615355565b604082019050919050565b600061450c60288361502f565b9150614517826153a4565b604082019050919050565b600061452f60148361502f565b915061453a826153f3565b602082019050919050565b600061455260128361502f565b915061455d8261541c565b602082019050919050565b600061457560268361502f565b915061458082615445565b604082019050919050565b600061459860248361502f565b91506145a382615494565b604082019050919050565b60006145bb60188361502f565b91506145c6826154e3565b602082019050919050565b60006145de60138361502f565b91506145e98261550c565b602082019050919050565b6000614601602a8361502f565b915061460c82615535565b604082019050919050565b600061462460268361502f565b915061462f82615584565b604082019050919050565b600061464760128361502f565b9150614652826155d3565b602082019050919050565b600061466a60108361502f565b9150614675826155fc565b602082019050919050565b600061468d60258361502f565b915061469882615625565b604082019050919050565b60006146b060238361502f565b91506146bb82615674565b604082019050919050565b60006146d3602a8361502f565b91506146de826156c3565b604082019050919050565b60006146f660208361502f565b915061470182615712565b602082019050919050565b600061471960208361502f565b91506147248261573b565b602082019050919050565b600061473c60298361502f565b915061474782615764565b604082019050919050565b600061475f60298361502f565b915061476a826157b3565b604082019050919050565b600061478260288361502f565b915061478d82615802565b604082019050919050565b60006147a560218361502f565b91506147b082615851565b604082019050919050565b60006147c860278361502f565b91506147d3826158a0565b604082019050919050565b60006147eb601d8361502f565b91506147f6826158ef565b602082019050919050565b61480a8161515a565b82525050565b6148198161515a565b82525050565b600061482b828461444f565b915081905092915050565b600060208201905061484b600083018461439a565b92915050565b600060c082019050614866600083018961439a565b614873602083018861439a565b818103604083015261488581876143a9565b9050818103606083015261489981866143a9565b90506148a8608083018561439a565b6148b560a0830184614810565b979650505050505050565b600060a0820190506148d5600083018861439a565b6148e2602083018761439a565b81810360408301526148f481866143a9565b9050818103606083015261490881856143a9565b9050818103608083015261491c8184614416565b90509695505050505050565b600060608201905061493d600083018661439a565b61494a602083018561439a565b6149576040830184614810565b949350505050565b600060a082019050614974600083018861439a565b614981602083018761439a565b61498e6040830186614810565b61499b6060830185614810565b81810360808301526149ad8184614416565b90509695505050505050565b60006040820190506149ce600083018561439a565b6149db6020830184614810565b9392505050565b60006080820190506149f7600083018761439a565b614a046020830186614810565b614a11604083018561439a565b614a1e6060830184614810565b95945050505050565b60006020820190508181036000830152614a4181846143a9565b905092915050565b60006040820190508181036000830152614a6381856143a9565b90508181036020830152614a7781846143a9565b90509392505050565b6000602082019050614a956000830184614407565b92915050565b60006020820190508181036000830152614ab58184614480565b905092915050565b60006080820190508181036000830152614ad78187614480565b9050614ae66020830186614810565b614af36040830185614810565b614b00606083018461439a565b95945050505050565b600060c0820190508181036000830152614b238189614480565b9050614b326020830188614810565b614b3f6040830187614810565b614b4c606083018661439a565b8181036080830152614b5e8185614480565b9050614b6d60a0830184614810565b979650505050505050565b60006020820190508181036000830152614b91816144b9565b9050919050565b60006020820190508181036000830152614bb1816144dc565b9050919050565b60006020820190508181036000830152614bd1816144ff565b9050919050565b60006020820190508181036000830152614bf181614522565b9050919050565b60006020820190508181036000830152614c1181614545565b9050919050565b60006020820190508181036000830152614c3181614568565b9050919050565b60006020820190508181036000830152614c518161458b565b9050919050565b60006020820190508181036000830152614c71816145ae565b9050919050565b60006020820190508181036000830152614c91816145d1565b9050919050565b60006020820190508181036000830152614cb1816145f4565b9050919050565b60006020820190508181036000830152614cd181614617565b9050919050565b60006020820190508181036000830152614cf18161463a565b9050919050565b60006020820190508181036000830152614d118161465d565b9050919050565b60006020820190508181036000830152614d3181614680565b9050919050565b60006020820190508181036000830152614d51816146a3565b9050919050565b60006020820190508181036000830152614d71816146c6565b9050919050565b60006020820190508181036000830152614d91816146e9565b9050919050565b60006020820190508181036000830152614db18161470c565b9050919050565b60006020820190508181036000830152614dd18161472f565b9050919050565b60006020820190508181036000830152614df181614752565b9050919050565b60006020820190508181036000830152614e1181614775565b9050919050565b60006020820190508181036000830152614e3181614798565b9050919050565b60006020820190508181036000830152614e51816147bb565b9050919050565b60006020820190508181036000830152614e71816147de565b9050919050565b6000602082019050614e8d6000830184614810565b92915050565b6000604082019050614ea86000830185614810565b614eb5602083018461439a565b9392505050565b6000604082019050614ed16000830185614810565b614ede6020830184614810565b9392505050565b6000614eef614f00565b9050614efb82826151a6565b919050565b6000604051905090565b600067ffffffffffffffff821115614f2557614f2461527e565b5b602082029050602081019050919050565b600067ffffffffffffffff821115614f5157614f5061527e565b5b602082029050602081019050919050565b600067ffffffffffffffff821115614f7d57614f7c61527e565b5b614f86826152e8565b9050602081019050919050565b600067ffffffffffffffff821115614fae57614fad61527e565b5b614fb7826152e8565b9050602081019050919050565b6000819050602082019050919050565b600081519050919050565b600081519050919050565b600081519050919050565b6000602082019050919050565b600082825260208201905092915050565b600082825260208201905092915050565b600081905092915050565b600082825260208201905092915050565b600061504b8261515a565b91506150568361515a565b9250827fffffffffffffffffffffffffffffffffffffffffffffffffffffffffffffffff0382111561508b5761508a615220565b5b828201905092915050565b60006150a18261515a565b91506150ac8361515a565b9250817fffffffffffffffffffffffffffffffffffffffffffffffffffffffffffffffff04831182151516156150e5576150e4615220565b5b828202905092915050565b60006150fb8261513a565b9050919050565b60008115159050919050565b60007fffffffff0000000000000000000000000000000000000000000000000000000082169050919050565b600073ffffffffffffffffffffffffffffffffffffffff82169050919050565b6000819050919050565b82818337600083830152505050565b60005b83811015615191578082015181840152602081019050615176565b838111156151a0576000848401525b50505050565b6151af826152e8565b810181811067ffffffffffffffff821117156151ce576151cd61527e565b5b80604052505050565b60006151e28261515a565b91507fffffffffffffffffffffffffffffffffffffffffffffffffffffffffffffffff82141561521557615214615220565b5b600182019050919050565b7f4e487b7100000000000000000000000000000000000000000000000000000000600052601160045260246000fd5b7f4e487b7100000000000000000000000000000000000000000000000000000000600052603260045260246000fd5b7f4e487b7100000000000000000000000000000000000000000000000000000000600052604160045260246000fd5b600060033d11156152cc5760046000803e6152c96000516152f9565b90505b90565b600080fd5b600080fd5b600080fd5b600080fd5b600080fd5b6000601f19601f8301169050919050565b60008160e01c9050919050565b7f455243313135353a207472616e7366657220746f206e6f6e204552433131353560008201527f526563656976657220696d706c656d656e746572000000000000000000000000602082015250565b7f455243313135353a2063616c6c6572206973206e6f7420746f6b656e206f776e60008201527f6572206e6f7220617070726f7665640000000000000000000000000000000000602082015250565b7f455243313135353a204552433131353552656365697665722072656a6563746560008201527f6420746f6b656e73000000000000000000000000000000000000000000000000602082015250565b7f5061757361626c653a206e6f7420706175736564000000000000000000000000600082015250565b7f496e76616c69642073706f7420746f6b656e0000000000000000000000000000600082015250565b7f4f776e61626c653a206e6577206f776e657220697320746865207a65726f206160008201527f6464726573730000000000000000000000000000000000000000000000000000602082015250565b7f455243313135353a206275726e20616d6f756e7420657863656564732062616c60008201527f616e636500000000000000000000000000000000000000000000000000000000602082015250565b7f50424d3a20416c726561647920696e697469616c697365640000000000000000600082015250565b7f45524332303a20454f412070726f766964656400000000000000000000000000600082015250565b7f455243313135353a2061646472657373207a65726f206973206e6f742061207660008201527f616c6964206f776e657200000000000000000000000000000000000000000000602082015250565b7f45524332303a20496e737566666963656e742062616c616e6365206f7220617060008201527f70726f76616c0000000000000000000000000000000000000000000000000000602082015250565b7f45524332303a204e696c20616464726573730000000000000000000000000000600082015250565b7f5061757361626c653a2070617573656400000000000000000000000000000000600082015250565b7f455243313135353a207472616e7366657220746f20746865207a65726f20616460008201527f6472657373000000000000000000000000000000000000000000000000000000602082015250565b7f455243313135353a206275726e2066726f6d20746865207a65726f206164647260008201527f6573730000000000000000000000000000000000000000000000000000000000602082015250565b7f455243313135353a20696e73756666696369656e742062616c616e636520666f60008201527f72207472616e7366657200000000000000000000000000000000000000000000602082015250565b7f4f776e61626c653a2063616c6c6572206973206e6f7420746865206f776e6572600082015250565b7f556e657175616c2069647320616e6420616d6f756e747320737570706c696564600082015250565b7f455243313135353a2073657474696e6720617070726f76616c2073746174757360008201527f20666f722073656c660000000000000000000000000000000000000000000000602082015250565b7f455243313135353a206163636f756e747320616e6420696473206c656e67746860008201527f206d69736d617463680000000000000000000000000000000000000000000000602082015250565b7f455243313135353a2069647320616e6420616d6f756e7473206c656e6774682060008201527f6d69736d61746368000000000000000000000000000000000000000000000000602082015250565b7f455243313135353a206d696e7420746f20746865207a65726f2061646472657360008201527f7300000000000000000000000000000000000000000000000000000000000000602082015250565b7f496e746572616374696f6e2077697468207468652073706f7420746f6b656e2060008201527f6661696c65642e00000000000000000000000000000000000000000000000000602082015250565b7f50424d3a2027746f27206164647265737320626c61636b6c6973746564000000600082015250565b600060443d1015615928576159ab565b615930614f00565b60043d036004823e80513d602482011167ffffffffffffffff821117156159585750506159ab565b808201805167ffffffffffffffff81111561597657505050506159ab565b80602083010160043d0385018111156159935750505050506159ab565b6159a2826020018501866151a6565b82955050505050505b90565b6159b7816150f0565b81146159c257600080fd5b50565b6159ce81615102565b81146159d957600080fd5b50565b6159e58161510e565b81146159f057600080fd5b50565b6159fc8161515a565b8114615a0757600080fd5b5056fea2646970667358221220a1cd3752ea2aa4a5d3918773f0031f8d29dd32b38fc9698d8ec7fcb93a644ac264736f6c6343000807003360a060405260006001553480156200001657600080fd5b506040516200252d3803806200252d83398181016040528101906200003c9190620002ad565b6200005c62000050620000b360201b60201c565b620000bb60201b60201c565b3073ffffffffffffffffffffffffffffffffffffffff1660808173ffffffffffffffffffffffffffffffffffffffff1660601b815250508060029080519060200190620000ab9291906200017f565b505062000482565b600033905090565b60008060009054906101000a900473ffffffffffffffffffffffffffffffffffffffff169050816000806101000a81548173ffffffffffffffffffffffffffffffffffffffff021916908373ffffffffffffffffffffffffffffffffffffffff1602179055508173ffffffffffffffffffffffffffffffffffffffff168173ffffffffffffffffffffffffffffffffffffffff167f8be0079c531659141344cd1fd0a4f28419497f9722a3daafe3b4186f6b6457e060405160405180910390a35050565b8280546200018d9062000393565b90600052602060002090601f016020900481019282620001b15760008555620001fd565b82601f10620001cc57805160ff1916838001178555620001fd565b82800160010185558215620001fd579182015b82811115620001fc578251825591602001919060010190620001df565b5b5090506200020c919062000210565b5090565b5b808211156200022b57600081600090555060010162000211565b5090565b600062000246620002408462000327565b620002fe565b90508281526020810184848401111562000265576200026462000462565b5b620002728482856200035d565b509392505050565b600082601f8301126200029257620002916200045d565b5b8151620002a48482602086016200022f565b91505092915050565b600060208284031215620002c657620002c56200046c565b5b600082015167ffffffffffffffff811115620002e757620002e662000467565b5b620002f5848285016200027a565b91505092915050565b60006200030a6200031d565b9050620003188282620003c9565b919050565b6000604051905090565b600067ffffffffffffffff8211156200034557620003446200042e565b5b620003508262000471565b9050602081019050919050565b60005b838110156200037d57808201518184015260208101905062000360565b838111156200038d576000848401525b50505050565b60006002820490506001821680620003ac57607f821691505b60208210811415620003c357620003c2620003ff565b5b50919050565b620003d48262000471565b810181811067ffffffffffffffff82111715620003f657620003f56200042e565b5b80604052505050565b7f4e487b7100000000000000000000000000000000000000000000000000000000600052602260045260246000fd5b7f4e487b7100000000000000000000000000000000000000000000000000000000600052604160045260246000fd5b600080fd5b600080fd5b600080fd5b600080fd5b6000601f19601f8301169050919050565b60805160601c61208c620004a160003960006110a2015261208c6000f3fe608060405234801561001057600080fd5b50600436106100ea5760003560e01c8063934689a91161008c578063d20874d811610066578063d20874d814610272578063e21c8b59146102a2578063f2fde38b146102be578063f600d9f4146102da576100ea565b8063934689a9146101df578063c1e037281461020f578063d10424c714610242576100ea565b806348fd09f5116100c857806348fd09f51461016b578063715018a61461019b57806380d69c8a146101a55780638da5cb5b146101c1576100ea565b80630e89341c146100ef578063234661c41461011f57806336a3409c1461014f575b600080fd5b61010960048036038101906101049190611627565b6102f6565b604051610116919061189d565b60405180910390f35b61013960048036038101906101349190611627565b61044e565b6040516101469190611a0b565b60405180910390f35b61016960048036038101906101649190611654565b6104e8565b005b610185600480360381019061018091906114a1565b6105d6565b6040516101929190611882565b60405180910390f35b6101a361064e565b005b6101bf60048036038101906101ba9190611562565b610662565b005b6101c96108d5565b6040516101d69190611867565b60405180910390f35b6101f960048036038101906101f49190611627565b6108fe565b6040516102069190611867565b60405180910390f35b61022960048036038101906102249190611627565b6109b8565b60405161023994939291906118bf565b60405180910390f35b61025c60048036038101906102579190611627565b610b2e565b6040516102699190611a0b565b60405180910390f35b61028c60048036038101906102879190611627565b610bc8565b6040516102999190611a0b565b60405180910390f35b6102bc60048036038101906102b791906114ea565b610c62565b005b6102d860048036038101906102d39190611474565b610d9e565b005b6102f460048036038101906102ef91906114ea565b610e22565b005b6060600360008381526020019081526020016000206002015442106103a7576002805461032290611cc8565b80601f016020809104026020016040519081016040528092919081815260200182805461034e90611cc8565b801561039b5780601f106103705761010080835404028352916020019161039b565b820191906000526020600020905b81548152906001019060200180831161037e57829003601f168201915b50505050509050610449565b6003600083815260200190815260200160002060050180546103c890611cc8565b80601f01602080910402602001604051908101604052809291908181526020018280546103f490611cc8565b80156104415780601f1061041657610100808354040283529160200191610441565b820191906000526020600020905b81548152906001019060200180831161042457829003601f168201915b505050505090505b919050565b60008060036000848152602001908152602001600020600101541415801561048b5750600360008381526020019081526020016000206002015442105b6104ca576040517f08c379a00000000000000000000000000000000000000000000000000000000081526004016104c19061192b565b60405180910390fd5b60036000838152602001908152602001600020600401549050919050565b6104f0610f5e565b6003600083815260200190815260200160002060030160009054906101000a900473ffffffffffffffffffffffffffffffffffffffff1673ffffffffffffffffffffffffffffffffffffffff168173ffffffffffffffffffffffffffffffffffffffff16148015610577575060036000838152602001908152602001600020600201544210155b6105b6576040517f08c379a00000000000000000000000000000000000000000000000000000000081526004016105ad9061190b565b60405180910390fd5b600060036000848152602001908152602001600020600401819055505050565b600080600090505b8251811015610643576003600082815260200190815260200160002060020154421180610621575060006003600083815260200190815260200160002060010154145b15610630576000915050610649565b808061063b90611d2b565b9150506105de565b50600190505b919050565b610656610f5e565b6106606000610fdc565b565b61066a610f5e565b6106726110a0565b808411156106b5576040517f08c379a00000000000000000000000000000000000000000000000000000000081526004016106ac9061198b565b60405180910390fd5b4284116106f7576040517f08c379a00000000000000000000000000000000000000000000000000000000081526004016106ee906119ab565b60405180910390fd5b600085141561073b576040517f08c379a0000000000000000000000000000000000000000000000000000000008152600401610732906119cb565b60405180910390fd5b60008661074787611130565b604051602001610758929190611843565b6040516020818303038152906040529050806003600060015481526020019081526020016000206000019080519060200190610795929190611299565b50856003600060015481526020019081526020016000206001018190555084600360006001548152602001908152602001600020600201819055508360036000600154815260200190815260200160002060030160006101000a81548173ffffffffffffffffffffffffffffffffffffffff021916908373ffffffffffffffffffffffffffffffffffffffff160217905550600060036000600154815260200190815260200160002060040181905550826003600060015481526020019081526020016000206005019080519060200190610871929190611299565b507fbbb805bf89819da42bb55052edd2bf6db1c2256ec4c19cf1607de95efc92762f600154828888886040516108ab959493929190611a26565b60405180910390a160018060008282546108c59190611b29565b9250508190555050505050505050565b60008060009054906101000a900473ffffffffffffffffffffffffffffffffffffffff16905090565b60008060036000848152602001908152602001600020600101541415801561093b5750600360008381526020019081526020016000206002015442105b61097a576040517f08c379a00000000000000000000000000000000000000000000000000000000081526004016109719061192b565b60405180910390fd5b6003600083815260200190815260200160002060030160009054906101000a900473ffffffffffffffffffffffffffffffffffffffff169050919050565b606060008060008060036000878152602001908152602001600020600101541415610a18576040517f08c379a0000000000000000000000000000000000000000000000000000000008152600401610a0f9061192b565b60405180910390fd5b60036000868152602001908152602001600020600001600360008781526020019081526020016000206001015460036000888152602001908152602001600020600201546003600089815260200190815260200160002060030160009054906101000a900473ffffffffffffffffffffffffffffffffffffffff16838054610a9f90611cc8565b80601f0160208091040260200160405190810160405280929190818152602001828054610acb90611cc8565b8015610b185780601f10610aed57610100808354040283529160200191610b18565b820191906000526020600020905b815481529060010190602001808311610afb57829003601f168201915b5050505050935093509350935093509193509193565b600080600360008481526020019081526020016000206001015414158015610b6b5750600360008381526020019081526020016000206002015442105b610baa576040517f08c379a0000000000000000000000000000000000000000000000000000000008152600401610ba19061192b565b60405180910390fd5b60036000838152602001908152602001600020600101549050919050565b60008060036000848152602001908152602001600020600101541415610c23576040517f08c379a0000000000000000000000000000000000000000000000000000000008152600401610c1a9061192b565b60405180910390fd5b60036000838152602001908152602001600020600401546003600084815260200190815260200160002060010154610c5b9190611bb0565b9050919050565b610c6a610f5e565b60005b8251811015610d9957600060036000858481518110610c8f57610c8e611e32565b5b602002602001015181526020019081526020016000206001015414158015610ce6575060036000848381518110610cc957610cc8611e32565b5b602002602001015181526020019081526020016000206002015442105b610d25576040517f08c379a0000000000000000000000000000000000000000000000000000000008152600401610d1c9061192b565b60405180910390fd5b818181518110610d3857610d37611e32565b5b602002602001015160036000858481518110610d5757610d56611e32565b5b602002602001015181526020019081526020016000206004016000828254610d7f9190611c0a565b925050819055508080610d9190611d2b565b915050610c6d565b505050565b610da6610f5e565b600073ffffffffffffffffffffffffffffffffffffffff168173ffffffffffffffffffffffffffffffffffffffff161415610e16576040517f08c379a0000000000000000000000000000000000000000000000000000000008152600401610e0d9061194b565b60405180910390fd5b610e1f81610fdc565b50565b610e2a610f5e565b60005b8251811015610f5957600060036000858481518110610e4f57610e4e611e32565b5b602002602001015181526020019081526020016000206001015414158015610ea6575060036000848381518110610e8957610e88611e32565b5b602002602001015181526020019081526020016000206002015442105b610ee5576040517f08c379a0000000000000000000000000000000000000000000000000000000008152600401610edc9061192b565b60405180910390fd5b818181518110610ef857610ef7611e32565b5b602002602001015160036000858481518110610f1757610f16611e32565b5b602002602001015181526020019081526020016000206004016000828254610f3f9190611b29565b925050819055508080610f5190611d2b565b915050610e2d565b505050565b610f66611291565b73ffffffffffffffffffffffffffffffffffffffff16610f846108d5565b73ffffffffffffffffffffffffffffffffffffffff1614610fda576040517f08c379a0000000000000000000000000000000000000000000000000000000008152600401610fd19061196b565b60405180910390fd5b565b60008060009054906101000a900473ffffffffffffffffffffffffffffffffffffffff169050816000806101000a81548173ffffffffffffffffffffffffffffffffffffffff021916908373ffffffffffffffffffffffffffffffffffffffff1602179055508173ffffffffffffffffffffffffffffffffffffffff168173ffffffffffffffffffffffffffffffffffffffff167f8be0079c531659141344cd1fd0a4f28419497f9722a3daafe3b4186f6b6457e060405160405180910390a35050565b7f000000000000000000000000000000000000000000000000000000000000000073ffffffffffffffffffffffffffffffffffffffff163073ffffffffffffffffffffffffffffffffffffffff161461112e576040517f08c379a0000000000000000000000000000000000000000000000000000000008152600401611125906119eb565b60405180910390fd5b565b60606000821415611178576040518060400160405280600181526020017f3000000000000000000000000000000000000000000000000000000000000000815250905061128c565b600082905060005b600082146111aa57808061119390611d2b565b915050600a826111a39190611b7f565b9150611180565b60008167ffffffffffffffff8111156111c6576111c5611e61565b5b6040519080825280601f01601f1916602001820160405280156111f85781602001600182028036833780820191505090505b5090505b60008514611285576001826112119190611c0a565b9150600a856112209190611d74565b603061122c9190611b29565b60f81b81838151811061124257611241611e32565b5b60200101907effffffffffffffffffffffffffffffffffffffffffffffffffffffffffffff1916908160001a905350600a8561127e9190611b7f565b94506111fc565b8093505050505b919050565b600033905090565b8280546112a590611cc8565b90600052602060002090601f0160209004810192826112c7576000855561130e565b82601f106112e057805160ff191683800117855561130e565b8280016001018555821561130e579182015b8281111561130d5782518255916020019190600101906112f2565b5b50905061131b919061131f565b5090565b5b80821115611338576000816000905550600101611320565b5090565b600061134f61134a84611aa5565b611a80565b9050808382526020820190508285602086028201111561137257611371611e95565b5b60005b858110156113a25781611388888261145f565b845260208401935060208301925050600181019050611375565b5050509392505050565b60006113bf6113ba84611ad1565b611a80565b9050828152602081018484840111156113db576113da611e9a565b5b6113e6848285611c86565b509392505050565b6000813590506113fd81612028565b92915050565b600082601f83011261141857611417611e90565b5b813561142884826020860161133c565b91505092915050565b600082601f83011261144657611445611e90565b5b81356114568482602086016113ac565b91505092915050565b60008135905061146e8161203f565b92915050565b60006020828403121561148a57611489611ea4565b5b6000611498848285016113ee565b91505092915050565b6000602082840312156114b7576114b6611ea4565b5b600082013567ffffffffffffffff8111156114d5576114d4611e9f565b5b6114e184828501611403565b91505092915050565b6000806040838503121561150157611500611ea4565b5b600083013567ffffffffffffffff81111561151f5761151e611e9f565b5b61152b85828601611403565b925050602083013567ffffffffffffffff81111561154c5761154b611e9f565b5b61155885828601611403565b9150509250929050565b60008060008060008060c0878903121561157f5761157e611ea4565b5b600087013567ffffffffffffffff81111561159d5761159c611e9f565b5b6115a989828a01611431565b96505060206115ba89828a0161145f565b95505060406115cb89828a0161145f565b94505060606115dc89828a016113ee565b935050608087013567ffffffffffffffff8111156115fd576115fc611e9f565b5b61160989828a01611431565b92505060a061161a89828a0161145f565b9150509295509295509295565b60006020828403121561163d5761163c611ea4565b5b600061164b8482850161145f565b91505092915050565b6000806040838503121561166b5761166a611ea4565b5b60006116798582860161145f565b925050602061168a858286016113ee565b9150509250929050565b61169d81611c3e565b82525050565b6116ac81611c50565b82525050565b60006116bd82611b02565b6116c78185611b0d565b93506116d7818560208601611c95565b6116e081611ea9565b840191505092915050565b60006116f682611b02565b6117008185611b1e565b9350611710818560208601611c95565b80840191505092915050565b6000611729601183611b0d565b915061173482611eba565b602082019050919050565b600061174c601883611b0d565b915061175782611ee3565b602082019050919050565b600061176f602683611b0d565b915061177a82611f0c565b604082019050919050565b6000611792602083611b0d565b915061179d82611f5b565b602082019050919050565b60006117b5601683611b0d565b91506117c082611f84565b602082019050919050565b60006117d8601683611b0d565b91506117e382611fad565b602082019050919050565b60006117fb601083611b0d565b915061180682611fd6565b602082019050919050565b600061181e601983611b0d565b915061182982611fff565b602082019050919050565b61183d81611c7c565b82525050565b600061184f82856116eb565b915061185b82846116eb565b91508190509392505050565b600060208201905061187c6000830184611694565b92915050565b600060208201905061189760008301846116a3565b92915050565b600060208201905081810360008301526118b781846116b2565b905092915050565b600060808201905081810360008301526118d981876116b2565b90506118e86020830186611834565b6118f56040830185611834565b6119026060830184611694565b95945050505050565b600060208201905081810360008301526119248161171c565b9050919050565b600060208201905081810360008301526119448161173f565b9050919050565b6000602082019050818103600083015261196481611762565b9050919050565b6000602082019050818103600083015261198481611785565b9050919050565b600060208201905081810360008301526119a4816117a8565b9050919050565b600060208201905081810360008301526119c4816117cb565b9050919050565b600060208201905081810360008301526119e4816117ee565b9050919050565b60006020820190508181036000830152611a0481611811565b9050919050565b6000602082019050611a206000830184611834565b92915050565b600060a082019050611a3b6000830188611834565b8181036020830152611a4d81876116b2565b9050611a5c6040830186611834565b611a696060830185611834565b611a766080830184611694565b9695505050505050565b6000611a8a611a9b565b9050611a968282611cfa565b919050565b6000604051905090565b600067ffffffffffffffff821115611ac057611abf611e61565b5b602082029050602081019050919050565b600067ffffffffffffffff821115611aec57611aeb611e61565b5b611af582611ea9565b9050602081019050919050565b600081519050919050565b600082825260208201905092915050565b600081905092915050565b6000611b3482611c7c565b9150611b3f83611c7c565b9250827fffffffffffffffffffffffffffffffffffffffffffffffffffffffffffffffff03821115611b7457611b73611da5565b5b828201905092915050565b6000611b8a82611c7c565b9150611b9583611c7c565b925082611ba557611ba4611dd4565b5b828204905092915050565b6000611bbb82611c7c565b9150611bc683611c7c565b9250817fffffffffffffffffffffffffffffffffffffffffffffffffffffffffffffffff0483118215151615611bff57611bfe611da5565b5b828202905092915050565b6000611c1582611c7c565b9150611c2083611c7c565b925082821015611c3357611c32611da5565b5b828203905092915050565b6000611c4982611c5c565b9050919050565b60008115159050919050565b600073ffffffffffffffffffffffffffffffffffffffff82169050919050565b6000819050919050565b82818337600083830152505050565b60005b83811015611cb3578082015181840152602081019050611c98565b83811115611cc2576000848401525b50505050565b60006002820490506001821680611ce057607f821691505b60208210811415611cf457611cf3611e03565b5b50919050565b611d0382611ea9565b810181811067ffffffffffffffff82111715611d2257611d21611e61565b5b80604052505050565b6000611d3682611c7c565b91507fffffffffffffffffffffffffffffffffffffffffffffffffffffffffffffffff821415611d6957611d68611da5565b5b600182019050919050565b6000611d7f82611c7c565b9150611d8a83611c7c565b925082611d9a57611d99611dd4565b5b828206905092915050565b7f4e487b7100000000000000000000000000000000000000000000000000000000600052601160045260246000fd5b7f4e487b7100000000000000000000000000000000000000000000000000000000600052601260045260246000fd5b7f4e487b7100000000000000000000000000000000000000000000000000000000600052602260045260246000fd5b7f4e487b7100000000000000000000000000000000000000000000000000000000600052603260045260246000fd5b7f4e487b7100000000000000000000000000000000000000000000000000000000600052604160045260246000fd5b600080fd5b600080fd5b600080fd5b600080fd5b600080fd5b6000601f19601f8301169050919050565b7f50424d206e6f74207265766f6b61626c65000000000000000000000000000000600082015250565b7f50424d3a20496e76616c696420546f6b656e2049642873290000000000000000600082015250565b7f4f776e61626c653a206e6577206f776e657220697320746865207a65726f206160008201527f6464726573730000000000000000000000000000000000000000000000000000602082015250565b7f4f776e61626c653a2063616c6c6572206973206e6f7420746865206f776e6572600082015250565b7f496e76616c696420746f6b656e206578706972792d3100000000000000000000600082015250565b7f496e76616c696420746f6b656e206578706972792d3200000000000000000000600082015250565b7f53706f7420616d6f756e74206973203000000000000000000000000000000000600082015250565b7f44656c65676174652063616c6c73207265737472696374656400000000000000600082015250565b61203181611c3e565b811461203c57600080fd5b50565b61204881611c7c565b811461205357600080fd5b5056fea264697066735822122092db51aaabef704e9b4b5781b8414afc043c6678ea9a2dfd8b9c0915e3c153e464736f6c63430008070033",
  "immutableReferences": {},
  "source": "// SPDX-License-Identifier: MIT\npragma solidity ^0.8.7;\n\nimport \"@openzeppelin/contracts/token/ERC1155/ERC1155.sol\";\nimport \"@openzeppelin/contracts/access/Ownable.sol\";\nimport \"@openzeppelin/contracts/security/Pausable.sol\";\nimport \"@openzeppelin/contracts/utils/Address.sol\" ; \n\nimport \"./ERC20Helper.sol\";  \nimport \"./PBMTokenManager.sol\";\nimport \"./IPBM.sol\";  \nimport \"./IPBMAddressList.sol\";\n\ncontract PBM is ERC1155, Ownable, Pausable, IPBM {  \n    \n    // undelrying ERC-20 tokens\n    address public spotToken = address(0); \n    // address of the token manager\n    address public pbmTokenManager = address(0); \n    // address of the PBM-Addresslist\n    address public pbmAddressList = address(0); \n\n    // tracks contract initialisation\n    bool internal initialised = false;\n    // time of expiry ( epoch )\n    uint256 public contractExpiry ; \n\n    constructor(string memory _uriPostExpiry) ERC1155(\"\") {\n        pbmTokenManager = address(new PBMTokenManager(_uriPostExpiry)) ; \n    }\n\n    function initialise(address _spotToken, uint256 _expiry, address _pbmAddressList)\n    external \n    override\n    onlyOwner\n    {\n        require(!initialised, \"PBM: Already initialised\"); \n        require(Address.isContract(_spotToken), \"Invalid spot token\"); \n        require(Address.isContract(_pbmAddressList), \"Invalid spot token\"); \n        spotToken = _spotToken;\n        contractExpiry = _expiry; \n        pbmAddressList = _pbmAddressList; \n\n        initialised = true ; \n    }\n\n    /**\n     * @dev See {IPBM-createPBMTokenType}.\n     *\n     * Requirements:\n     *\n     * - caller must be owner \n     * - contract must not be expired\n     * - `tokenExpiry` must be less than contract expiry\n     * - `amount` should not be 0\n     */\n    function createPBMTokenType(string memory companyName, uint256 spotAmount, uint256 tokenExpiry,address creator, string memory tokenURI) \n    external \n    override\n    onlyOwner \n    {        \n        PBMTokenManager(pbmTokenManager).createTokenType(companyName, spotAmount, tokenExpiry, creator,  tokenURI, contractExpiry);\n    }\n\n    /**\n     * @dev See {IPBM-mint}.\n     *     \n     * IMPT: Before minting, the caller should approve the contract address to spend ERC-20 tokens on behalf of the caller.\n     *       This can be done by calling the `approve` or `increaseMinterAllowance` functions of the ERC-20 contract and specifying `_spender` to be the PBM contract address. \n             Ref : https://eips.ethereum.org/EIPS/eip-20\n     *\n     * Requirements:\n     *\n     * - contract must not be paused\n     * - tokens must not be expired\n     * - `tokenId` should be a valid id that has already been created\n     * - caller should have the necessary amount of the ERC-20 tokens required to mint\n     * - caller should have approved the PBM contract to spend the ERC-20 tokens\n     * - receiver should not be blacklisted\n     */\n    function mint(uint256 tokenId, uint256 amount, address receiver) \n    external  \n    override\n    whenNotPaused\n    {\n        require(!IPBMAddressList(pbmAddressList).isBlacklisted(receiver), \"PBM: 'to' address blacklisted\");\n        uint256 valueOfNewTokens = amount*(PBMTokenManager(pbmTokenManager).getTokenValue(tokenId)); \n\n        //Transfer the spot token from the user to the contract to wrap it\n        ERC20Helper.safeTransferFrom(spotToken, msg.sender, address(this), valueOfNewTokens);\n\n        // mint the token if the contract - wrapping the xsgd\n        PBMTokenManager(pbmTokenManager).increaseBalanceSupply(serialise(tokenId), serialise(amount)) ; \n        _mint(receiver, tokenId, amount, ''); \n    }\n\n    /**\n     * @dev See {IPBM-batchMint}.\n     *     \n     * IMPT: Before minting, the caller should approve the contract address to spend ERC-20 tokens on behalf of the caller.\n     *       This can be done by calling the `approve` or `increaseMinterAllowance` functions of the ERC-20 contract and specifying `_spender` to be the PBM contract address. \n             Ref : https://eips.ethereum.org/EIPS/eip-20\n     *\n     * Requirements:\n     *\n     * - contract must not be paused\n     * - tokens must not be expired\n     * - `tokenIds` should all be valid ids that have already been created\n     * - `tokenIds` and `amounts` list need to have the same number of values\n     * - caller should have the necessary amount of the ERC-20 tokens required to mint\n     * - caller should have approved the PBM contract to spend the ERC-20 tokens\n     * - receiver should not be blacklisted\n     */\n    function batchMint(uint256[] memory tokenIds, uint256[] memory amounts, address receiver) \n    external \n    override\n    whenNotPaused\n    {   \n        require(!IPBMAddressList(pbmAddressList).isBlacklisted(receiver), \"PBM: 'to' address blacklisted\");\n        require(tokenIds.length == amounts.length, \"Unequal ids and amounts supplied\"); \n\n        // calculate the value of the new tokens\n        uint256 valueOfNewTokens = 0 ; \n\n        for (uint256 i = 0; i < tokenIds.length; i++) {\n            valueOfNewTokens += (amounts[i]*(PBMTokenManager(pbmTokenManager).getTokenValue(tokenIds[i])));  \n        } \n\n        // Transfer spot tokenf from user to contract to wrap it\n        ERC20Helper.safeTransferFrom(spotToken, msg.sender, address(this), valueOfNewTokens);\n        PBMTokenManager(pbmTokenManager).increaseBalanceSupply(tokenIds, amounts);\n        _mintBatch(receiver, tokenIds, amounts, '');\n    }\n\n    /**\n     * @dev See {IPBM-safeTransferFrom}.\n     *     \n     *\n     * Requirements:\n     *\n     * - contract must not be paused\n     * - tokens must not be expired\n     * - `tokenId` should be a valid ids that has already been created\n     * - caller should have the PBMs that are being transferred (or)\n     *          caller should have the approval to spend the PBMs on behalf of the owner (`from` addresss)\n     */\n    function safeTransferFrom( address from, address to, uint256 id, uint256 amount, bytes memory data) \n    public   \n    override(ERC1155, IPBM)\n    whenNotPaused  \n    {\n        require(\n            from == _msgSender() || isApprovedForAll(from, _msgSender()),\n            \"ERC1155: caller is not token owner nor approved\"\n        );\n        require(!IPBMAddressList(pbmAddressList).isBlacklisted(to), \"PBM: 'to' address blacklisted\");\n\n        if (IPBMAddressList(pbmAddressList).isMerchant(to)){\n            uint256 valueOfTokens = amount*(PBMTokenManager(pbmTokenManager).getTokenValue(id)); \n\n            // burn and transfer underlying ERC-20\n            _burn(from, id, amount);\n            PBMTokenManager(pbmTokenManager).decreaseBalanceSupply(serialise(id), serialise(amount)) ; \n            ERC20Helper.safeTransfer(spotToken, to, valueOfTokens);\n            emit MerchantPayment(from, to, serialise(id), serialise(amount), spotToken, valueOfTokens);\n\n        } else {\n            _safeTransferFrom(from, to, id, amount, data);\n        }\n \n    }\n\n    /**\n     * @dev See {IPBM-safeBatchTransferFrom}.\n     *     \n     *\n     * Requirements:\n     *\n     * - contract must not be paused\n     * - tokens must not be expired\n     * - `tokenIds` should all be  valid ids that has already been created\n     * - `tokenIds` and `amounts` list need to have the same number of values\n     * - caller should have the PBMs that are being transferred (or)\n     *          caller should have the approval to spend the PBMs on behalf of the owner (`from` addresss)\n     */ \n    function safeBatchTransferFrom(address from,address to,uint256[] memory ids,uint256[] memory amounts, bytes memory data) \n    public  \n    override(ERC1155, IPBM)\n    whenNotPaused \n    {\n        require(\n            from == _msgSender() || isApprovedForAll(from, _msgSender()),\n            \"ERC1155: caller is not token owner nor approved\"\n        );\n        require(!IPBMAddressList(pbmAddressList).isBlacklisted(to), \"PBM: 'to' address blacklisted\");\n        require(ids.length == amounts.length, \"Unequal ids and amounts supplied\"); \n\n        if (IPBMAddressList(pbmAddressList).isMerchant(to)) {\n            uint256 valueOfTokens = 0 ; \n            for (uint256 i = 0; i < ids.length; i++) {\n                valueOfTokens += (amounts[i]*(PBMTokenManager(pbmTokenManager).getTokenValue(ids[i]))) ; \n            } \n\n            _burnBatch(from, ids, amounts);\n            PBMTokenManager(pbmTokenManager).decreaseBalanceSupply(ids, amounts);\n            ERC20Helper.safeTransfer(spotToken, to, valueOfTokens);\n\n            emit MerchantPayment(from, to, ids, amounts, spotToken, valueOfTokens);\n\n        } else {\n            _safeBatchTransferFrom(from, to, ids, amounts, data);\n        }\n    }\n    \n    /**\n     * @dev See {IPBM-revokePBM}.\n     *\n     * Requirements:\n     *\n     * - `tokenId` should be a valid ids that has already been created\n     * - caller must be the creator of the tokenType \n     * - token must be expired\n     */ \n    function revokePBM(uint256 tokenId) \n    external \n    override\n    whenNotPaused \n    {\n        uint256 valueOfTokens = PBMTokenManager(pbmTokenManager).getPBMRevokeValue(tokenId);\n\n        PBMTokenManager(pbmTokenManager).revokePBM(tokenId, msg.sender); \n\n        // transfering underlying ERC20 tokens\n        ERC20Helper.safeTransfer(spotToken, msg.sender, valueOfTokens);\n\n        emit PBMrevokeWithdraw(msg.sender, tokenId, spotToken, valueOfTokens);\n\n    }\n    /**\n     * @dev See {IPBM-getTokenDetails}.\n     *\n     */ \n    function getTokenDetails(uint256 tokenId) \n    external \n    view \n    override\n    returns (string memory, uint256, uint256, address) \n    {\n        return PBMTokenManager(pbmTokenManager).getTokenDetails(tokenId); \n    }\n\n    /**\n     * @dev See {IPBM-uri}.\n     *\n     */ \n    function uri(uint256 tokenId)\n    public  \n    view\n    override(ERC1155, IPBM)\n    returns (string memory)\n    {\n        return PBMTokenManager(pbmTokenManager).uri(tokenId);\n    }\n\n    /**\n     * @dev see {Pausable _pause}\n     *\n     * Requirements : \n     * - caller should be owner\n     */\n    function pause() \n    external \n    onlyOwner\n    {\n        _pause();\n    }\n\n    /**\n     * @dev see {Pausable _unpause}\n     *\n     * Requirements : \n     * - caller should be owner\n     */\n    function unpause()\n    external \n    onlyOwner\n    {\n        _unpause();\n    }\n\n    function serialise(uint256 num)\n    internal \n    pure\n    returns (uint256[] memory) {\n        uint256[] memory array  = new uint256[](1) ; \n        array[0] = num ; \n        return array ;\n    }\n}",
  "sourcePath": "/Users/mihir/Desktop/code/Orchid-PBM/contracts/PBM.sol",
  "compiler": {
    "name": "solc",
    "version": "0.8.7+commit.e28d00a7.Emscripten.clang"
  },
  "schemaVersion": "3.4.3",
  "updatedAt": "2022-10-27T06:31:25.062Z",
  "devdoc": {
    "kind": "dev",
    "methods": {
      "balanceOf(address,uint256)": {
        "details": "See {IERC1155-balanceOf}. Requirements: - `account` cannot be the zero address."
      },
      "balanceOfBatch(address[],uint256[])": {
        "details": "See {IERC1155-balanceOfBatch}. Requirements: - `accounts` and `ids` must have the same length."
      },
      "batchMint(uint256[],uint256[],address)": {
        "details": "See {IPBM-batchMint}.      IMPT: Before minting, the caller should approve the contract address to spend ERC-20 tokens on behalf of the caller.       This can be done by calling the `approve` or `increaseMinterAllowance` functions of the ERC-20 contract and specifying `_spender` to be the PBM contract address.  Ref : https://eips.ethereum.org/EIPS/eip-20 Requirements: - contract must not be paused - tokens must not be expired - `tokenIds` should all be valid ids that have already been created - `tokenIds` and `amounts` list need to have the same number of values - caller should have the necessary amount of the ERC-20 tokens required to mint - caller should have approved the PBM contract to spend the ERC-20 tokens - receiver should not be blacklisted"
      },
      "createPBMTokenType(string,uint256,uint256,address,string)": {
        "details": "See {IPBM-createPBMTokenType}. Requirements: - caller must be owner  - contract must not be expired - `tokenExpiry` must be less than contract expiry - `amount` should not be 0"
      },
      "getTokenDetails(uint256)": {
        "details": "See {IPBM-getTokenDetails}."
      },
      "initialise(address,uint256,address)": {
        "params": {
          "_expiry": "contract wide expiry ( in epoch )",
          "_pbmAddressList": "address of the PBMAddressList smartcontract",
          "_spotToken": "address of the underlying ERC20 token"
        }
      },
      "isApprovedForAll(address,address)": {
        "details": "See {IERC1155-isApprovedForAll}."
      },
      "mint(uint256,uint256,address)": {
        "details": "See {IPBM-mint}.      IMPT: Before minting, the caller should approve the contract address to spend ERC-20 tokens on behalf of the caller.       This can be done by calling the `approve` or `increaseMinterAllowance` functions of the ERC-20 contract and specifying `_spender` to be the PBM contract address.  Ref : https://eips.ethereum.org/EIPS/eip-20 Requirements: - contract must not be paused - tokens must not be expired - `tokenId` should be a valid id that has already been created - caller should have the necessary amount of the ERC-20 tokens required to mint - caller should have approved the PBM contract to spend the ERC-20 tokens - receiver should not be blacklisted"
      },
      "owner()": {
        "details": "Returns the address of the current owner."
      },
      "pause()": {
        "details": "see {Pausable _pause} Requirements :  - caller should be owner"
      },
      "paused()": {
        "details": "Returns true if the contract is paused, and false otherwise."
      },
      "renounceOwnership()": {
        "details": "Leaves the contract without owner. It will not be possible to call `onlyOwner` functions anymore. Can only be called by the current owner. NOTE: Renouncing ownership will leave the contract without an owner, thereby removing any functionality that is only available to the owner."
      },
      "revokePBM(uint256)": {
        "details": "See {IPBM-revokePBM}. Requirements: - `tokenId` should be a valid ids that has already been created - caller must be the creator of the tokenType  - token must be expired"
      },
      "safeBatchTransferFrom(address,address,uint256[],uint256[],bytes)": {
        "details": "See {IPBM-safeBatchTransferFrom}.      Requirements: - contract must not be paused - tokens must not be expired - `tokenIds` should all be  valid ids that has already been created - `tokenIds` and `amounts` list need to have the same number of values - caller should have the PBMs that are being transferred (or)          caller should have the approval to spend the PBMs on behalf of the owner (`from` addresss)"
      },
      "safeTransferFrom(address,address,uint256,uint256,bytes)": {
        "details": "See {IPBM-safeTransferFrom}.      Requirements: - contract must not be paused - tokens must not be expired - `tokenId` should be a valid ids that has already been created - caller should have the PBMs that are being transferred (or)          caller should have the approval to spend the PBMs on behalf of the owner (`from` addresss)"
      },
      "setApprovalForAll(address,bool)": {
        "details": "See {IERC1155-setApprovalForAll}."
      },
      "supportsInterface(bytes4)": {
        "details": "See {IERC165-supportsInterface}."
      },
      "transferOwnership(address)": {
        "details": "Transfers ownership of the contract to a new account (`newOwner`). Can only be called by the current owner."
      },
      "unpause()": {
        "details": "see {Pausable _unpause} Requirements :  - caller should be owner"
      },
      "uri(uint256)": {
        "details": "See {IPBM-uri}."
      }
    },
    "version": 1
  },
  "userdoc": {
    "events": {
      "MerchantPayment(address,address,uint256[],uint256[],address,uint256)": {
        "notice": "Emitted when underlying ERC-20 tokens are transferred to a whitelisted merchant ( payment )"
      },
      "PBMrevokeWithdraw(address,uint256,address,uint256)": {
        "notice": "Emitted when a PBM type creator withdraws the underlying ERC-20 tokens from all the remaining expired PBMs"
      }
    },
    "kind": "user",
    "methods": {
      "initialise(address,uint256,address)": {
        "notice": "sets the address of the underlying ERC20 token, Contract Expiry, and the address of pbm address list"
      }
    },
    "version": 1
  }
}