{
  "contractName": "PBM",
  "abi": [
    {
      "inputs": [
        {
          "internalType": "string",
          "name": "_uriPostExpiry",
          "type": "string"
        }
      ],
      "stateMutability": "nonpayable",
      "type": "constructor"
    },
    {
      "anonymous": false,
      "inputs": [
        {
          "indexed": true,
          "internalType": "address",
          "name": "account",
          "type": "address"
        },
        {
          "indexed": true,
          "internalType": "address",
          "name": "operator",
          "type": "address"
        },
        {
          "indexed": false,
          "internalType": "bool",
          "name": "approved",
          "type": "bool"
        }
      ],
      "name": "ApprovalForAll",
      "type": "event"
    },
    {
      "anonymous": false,
      "inputs": [
        {
          "indexed": false,
          "internalType": "address",
          "name": "from",
          "type": "address"
        },
        {
          "indexed": false,
          "internalType": "address",
          "name": "to",
          "type": "address"
        },
        {
          "indexed": false,
          "internalType": "uint256[]",
          "name": "tokenIds",
          "type": "uint256[]"
        },
        {
          "indexed": false,
          "internalType": "uint256[]",
          "name": "amounts",
          "type": "uint256[]"
        },
        {
          "indexed": false,
          "internalType": "address",
          "name": "ERC20Token",
          "type": "address"
        },
        {
          "indexed": false,
          "internalType": "uint256",
          "name": "ERC20TokenValue",
          "type": "uint256"
        }
      ],
      "name": "MerchantPayment",
      "type": "event"
    },
    {
      "anonymous": false,
      "inputs": [
        {
          "indexed": true,
          "internalType": "address",
          "name": "previousOwner",
          "type": "address"
        },
        {
          "indexed": true,
          "internalType": "address",
          "name": "newOwner",
          "type": "address"
        }
      ],
      "name": "OwnershipTransferred",
      "type": "event"
    },
    {
      "anonymous": false,
      "inputs": [
        {
          "indexed": false,
          "internalType": "address",
          "name": "beneficiary",
          "type": "address"
        },
        {
          "indexed": false,
          "internalType": "uint256",
          "name": "PBMTokenId",
          "type": "uint256"
        },
        {
          "indexed": false,
          "internalType": "address",
          "name": "ERC20Token",
          "type": "address"
        },
        {
          "indexed": false,
          "internalType": "uint256",
          "name": "ERC20TokenValue",
          "type": "uint256"
        }
      ],
      "name": "PBMrevokeWithdraw",
      "type": "event"
    },
    {
      "anonymous": false,
      "inputs": [
        {
          "indexed": false,
          "internalType": "address",
          "name": "account",
          "type": "address"
        }
      ],
      "name": "Paused",
      "type": "event"
    },
    {
      "anonymous": false,
      "inputs": [
        {
          "indexed": true,
          "internalType": "address",
          "name": "operator",
          "type": "address"
        },
        {
          "indexed": true,
          "internalType": "address",
          "name": "from",
          "type": "address"
        },
        {
          "indexed": true,
          "internalType": "address",
          "name": "to",
          "type": "address"
        },
        {
          "indexed": false,
          "internalType": "uint256[]",
          "name": "ids",
          "type": "uint256[]"
        },
        {
          "indexed": false,
          "internalType": "uint256[]",
          "name": "values",
          "type": "uint256[]"
        }
      ],
      "name": "TransferBatch",
      "type": "event"
    },
    {
      "anonymous": false,
      "inputs": [
        {
          "indexed": true,
          "internalType": "address",
          "name": "operator",
          "type": "address"
        },
        {
          "indexed": true,
          "internalType": "address",
          "name": "from",
          "type": "address"
        },
        {
          "indexed": true,
          "internalType": "address",
          "name": "to",
          "type": "address"
        },
        {
          "indexed": false,
          "internalType": "uint256",
          "name": "id",
          "type": "uint256"
        },
        {
          "indexed": false,
          "internalType": "uint256",
          "name": "value",
          "type": "uint256"
        }
      ],
      "name": "TransferSingle",
      "type": "event"
    },
    {
      "anonymous": false,
      "inputs": [
        {
          "indexed": false,
          "internalType": "string",
          "name": "value",
          "type": "string"
        },
        {
          "indexed": true,
          "internalType": "uint256",
          "name": "id",
          "type": "uint256"
        }
      ],
      "name": "URI",
      "type": "event"
    },
    {
      "anonymous": false,
      "inputs": [
        {
          "indexed": false,
          "internalType": "address",
          "name": "account",
          "type": "address"
        }
      ],
      "name": "Unpaused",
      "type": "event"
    },
    {
      "inputs": [
        {
          "internalType": "address",
          "name": "account",
          "type": "address"
        },
        {
          "internalType": "uint256",
          "name": "id",
          "type": "uint256"
        }
      ],
      "name": "balanceOf",
      "outputs": [
        {
          "internalType": "uint256",
          "name": "",
          "type": "uint256"
        }
      ],
      "stateMutability": "view",
      "type": "function",
      "constant": true
    },
    {
      "inputs": [
        {
          "internalType": "address[]",
          "name": "accounts",
          "type": "address[]"
        },
        {
          "internalType": "uint256[]",
          "name": "ids",
          "type": "uint256[]"
        }
      ],
      "name": "balanceOfBatch",
      "outputs": [
        {
          "internalType": "uint256[]",
          "name": "",
          "type": "uint256[]"
        }
      ],
      "stateMutability": "view",
      "type": "function",
      "constant": true
    },
    {
      "inputs": [],
      "name": "contractExpiry",
      "outputs": [
        {
          "internalType": "uint256",
          "name": "",
          "type": "uint256"
        }
      ],
      "stateMutability": "view",
      "type": "function",
      "constant": true
    },
    {
      "inputs": [
        {
          "internalType": "address",
          "name": "account",
          "type": "address"
        },
        {
          "internalType": "address",
          "name": "operator",
          "type": "address"
        }
      ],
      "name": "isApprovedForAll",
      "outputs": [
        {
          "internalType": "bool",
          "name": "",
          "type": "bool"
        }
      ],
      "stateMutability": "view",
      "type": "function",
      "constant": true
    },
    {
      "inputs": [],
      "name": "owner",
      "outputs": [
        {
          "internalType": "address",
          "name": "",
          "type": "address"
        }
      ],
      "stateMutability": "view",
      "type": "function",
      "constant": true
    },
    {
      "inputs": [],
      "name": "paused",
      "outputs": [
        {
          "internalType": "bool",
          "name": "",
          "type": "bool"
        }
      ],
      "stateMutability": "view",
      "type": "function",
      "constant": true
    },
    {
      "inputs": [],
      "name": "pbmAddressList",
      "outputs": [
        {
          "internalType": "address",
          "name": "",
          "type": "address"
        }
      ],
      "stateMutability": "view",
      "type": "function",
      "constant": true
    },
    {
      "inputs": [],
      "name": "pbmTokenManager",
      "outputs": [
        {
          "internalType": "address",
          "name": "",
          "type": "address"
        }
      ],
      "stateMutability": "view",
      "type": "function",
      "constant": true
    },
    {
      "inputs": [],
      "name": "renounceOwnership",
      "outputs": [],
      "stateMutability": "nonpayable",
      "type": "function"
    },
    {
      "inputs": [
        {
          "internalType": "address",
          "name": "operator",
          "type": "address"
        },
        {
          "internalType": "bool",
          "name": "approved",
          "type": "bool"
        }
      ],
      "name": "setApprovalForAll",
      "outputs": [],
      "stateMutability": "nonpayable",
      "type": "function"
    },
    {
      "inputs": [],
      "name": "spotToken",
      "outputs": [
        {
          "internalType": "address",
          "name": "",
          "type": "address"
        }
      ],
      "stateMutability": "view",
      "type": "function",
      "constant": true
    },
    {
      "inputs": [
        {
          "internalType": "bytes4",
          "name": "interfaceId",
          "type": "bytes4"
        }
      ],
      "name": "supportsInterface",
      "outputs": [
        {
          "internalType": "bool",
          "name": "",
          "type": "bool"
        }
      ],
      "stateMutability": "view",
      "type": "function",
      "constant": true
    },
    {
      "inputs": [
        {
          "internalType": "address",
          "name": "newOwner",
          "type": "address"
        }
      ],
      "name": "transferOwnership",
      "outputs": [],
      "stateMutability": "nonpayable",
      "type": "function"
    },
    {
      "inputs": [
        {
          "internalType": "address",
          "name": "_spotToken",
          "type": "address"
        },
        {
          "internalType": "uint256",
          "name": "_expiry",
          "type": "uint256"
        },
        {
          "internalType": "address",
          "name": "_pbmAddressList",
          "type": "address"
        }
      ],
      "name": "initialise",
      "outputs": [],
      "stateMutability": "nonpayable",
      "type": "function"
    },
    {
      "inputs": [
        {
          "internalType": "string",
          "name": "companyName",
          "type": "string"
        },
        {
          "internalType": "uint256",
          "name": "spotAmount",
          "type": "uint256"
        },
        {
          "internalType": "uint256",
          "name": "tokenExpiry",
          "type": "uint256"
        },
        {
          "internalType": "address",
          "name": "creator",
          "type": "address"
        },
        {
          "internalType": "string",
          "name": "tokenURI",
          "type": "string"
        }
      ],
      "name": "createPBMTokenType",
      "outputs": [],
      "stateMutability": "nonpayable",
      "type": "function"
    },
    {
      "inputs": [
        {
          "internalType": "uint256",
          "name": "tokenId",
          "type": "uint256"
        },
        {
          "internalType": "uint256",
          "name": "amount",
          "type": "uint256"
        },
        {
          "internalType": "address",
          "name": "receiver",
          "type": "address"
        }
      ],
      "name": "mint",
      "outputs": [],
      "stateMutability": "nonpayable",
      "type": "function"
    },
    {
      "inputs": [
        {
          "internalType": "uint256[]",
          "name": "tokenIds",
          "type": "uint256[]"
        },
        {
          "internalType": "uint256[]",
          "name": "amounts",
          "type": "uint256[]"
        },
        {
          "internalType": "address",
          "name": "receiver",
          "type": "address"
        }
      ],
      "name": "batchMint",
      "outputs": [],
      "stateMutability": "nonpayable",
      "type": "function"
    },
    {
      "inputs": [
        {
          "internalType": "address",
          "name": "from",
          "type": "address"
        },
        {
          "internalType": "address",
          "name": "to",
          "type": "address"
        },
        {
          "internalType": "uint256",
          "name": "id",
          "type": "uint256"
        },
        {
          "internalType": "uint256",
          "name": "amount",
          "type": "uint256"
        },
        {
          "internalType": "bytes",
          "name": "data",
          "type": "bytes"
        }
      ],
      "name": "safeTransferFrom",
      "outputs": [],
      "stateMutability": "nonpayable",
      "type": "function"
    },
    {
      "inputs": [
        {
          "internalType": "address",
          "name": "from",
          "type": "address"
        },
        {
          "internalType": "address",
          "name": "to",
          "type": "address"
        },
        {
          "internalType": "uint256[]",
          "name": "ids",
          "type": "uint256[]"
        },
        {
          "internalType": "uint256[]",
          "name": "amounts",
          "type": "uint256[]"
        },
        {
          "internalType": "bytes",
          "name": "data",
          "type": "bytes"
        }
      ],
      "name": "safeBatchTransferFrom",
      "outputs": [],
      "stateMutability": "nonpayable",
      "type": "function"
    },
    {
      "inputs": [
        {
          "internalType": "uint256",
          "name": "tokenId",
          "type": "uint256"
        }
      ],
      "name": "revokePBM",
      "outputs": [],
      "stateMutability": "nonpayable",
      "type": "function"
    },
    {
      "inputs": [
        {
          "internalType": "uint256",
          "name": "tokenId",
          "type": "uint256"
        }
      ],
      "name": "getTokenDetails",
      "outputs": [
        {
          "internalType": "string",
          "name": "",
          "type": "string"
        },
        {
          "internalType": "uint256",
          "name": "",
          "type": "uint256"
        },
        {
          "internalType": "uint256",
          "name": "",
          "type": "uint256"
        },
        {
          "internalType": "address",
          "name": "",
          "type": "address"
        }
      ],
      "stateMutability": "view",
      "type": "function",
      "constant": true
    },
    {
      "inputs": [
        {
          "internalType": "uint256",
          "name": "tokenId",
          "type": "uint256"
        }
      ],
      "name": "uri",
      "outputs": [
        {
          "internalType": "string",
          "name": "",
          "type": "string"
        }
      ],
      "stateMutability": "view",
      "type": "function",
      "constant": true
    },
    {
      "inputs": [],
      "name": "pause",
      "outputs": [],
      "stateMutability": "nonpayable",
      "type": "function"
    },
    {
      "inputs": [],
      "name": "unpause",
      "outputs": [],
      "stateMutability": "nonpayable",
      "type": "function"
    }
  ],
  "bytecode": "0x60806040526000600460006101000a81548173ffffffffffffffffffffffffffffffffffffffff021916908373ffffffffffffffffffffffffffffffffffffffff1602179055506000600560006101000a81548173ffffffffffffffffffffffffffffffffffffffff021916908373ffffffffffffffffffffffffffffffffffffffff1602179055506000600660006101000a81548173ffffffffffffffffffffffffffffffffffffffff021916908373ffffffffffffffffffffffffffffffffffffffff1602179055506000600660146101000a81548160ff021916908315150217905550348015620000f257600080fd5b50604051620084f2380380620084f283398181016040528101906200011891906200041b565b604051806020016040528060008152506200013981620001f560201b60201c565b506200015a6200014e6200021160201b60201c565b6200021960201b60201c565b6000600360146101000a81548160ff021916908315150217905550806040516200018490620002df565b620001909190620004ad565b604051809103906000f080158015620001ad573d6000803e3d6000fd5b50600560006101000a81548173ffffffffffffffffffffffffffffffffffffffff021916908373ffffffffffffffffffffffffffffffffffffffff1602179055505062000671565b80600290805190602001906200020d929190620002ed565b5050565b600033905090565b6000600360009054906101000a900473ffffffffffffffffffffffffffffffffffffffff16905081600360006101000a81548173ffffffffffffffffffffffffffffffffffffffff021916908373ffffffffffffffffffffffffffffffffffffffff1602179055508173ffffffffffffffffffffffffffffffffffffffff168173ffffffffffffffffffffffffffffffffffffffff167f8be0079c531659141344cd1fd0a4f28419497f9722a3daafe3b4186f6b6457e060405160405180910390a35050565b61252d8062005fc583390190565b828054620002fb9062000582565b90600052602060002090601f0160209004810192826200031f57600085556200036b565b82601f106200033a57805160ff19168380011785556200036b565b828001600101855582156200036b579182015b828111156200036a5782518255916020019190600101906200034d565b5b5090506200037a91906200037e565b5090565b5b80821115620003995760008160009055506001016200037f565b5090565b6000620003b4620003ae84620004fa565b620004d1565b905082815260208101848484011115620003d357620003d262000651565b5b620003e08482856200054c565b509392505050565b600082601f8301126200040057620003ff6200064c565b5b8151620004128482602086016200039d565b91505092915050565b6000602082840312156200043457620004336200065b565b5b600082015167ffffffffffffffff81111562000455576200045462000656565b5b6200046384828501620003e8565b91505092915050565b6000620004798262000530565b6200048581856200053b565b9350620004978185602086016200054c565b620004a28162000660565b840191505092915050565b60006020820190508181036000830152620004c981846200046c565b905092915050565b6000620004dd620004f0565b9050620004eb8282620005b8565b919050565b6000604051905090565b600067ffffffffffffffff8211156200051857620005176200061d565b5b620005238262000660565b9050602081019050919050565b600081519050919050565b600082825260208201905092915050565b60005b838110156200056c5780820151818401526020810190506200054f565b838111156200057c576000848401525b50505050565b600060028204905060018216806200059b57607f821691505b60208210811415620005b257620005b1620005ee565b5b50919050565b620005c38262000660565b810181811067ffffffffffffffff82111715620005e557620005e46200061d565b5b80604052505050565b7f4e487b7100000000000000000000000000000000000000000000000000000000600052602260045260246000fd5b7f4e487b7100000000000000000000000000000000000000000000000000000000600052604160045260246000fd5b600080fd5b600080fd5b600080fd5b600080fd5b6000601f19601f8301169050919050565b61594480620006816000396000f3fe608060405234801561001057600080fd5b50600436106101575760003560e01c8063715018a6116100c3578063c1e037281161007c578063c1e037281461037a578063e7d3fe6b146103ad578063e985e9c5146103c9578063f242432a146103f9578063f2fde38b14610415578063fb34b2011461043157610157565b8063715018a6146102f257806373e17e76146102fc5780638456cb591461031857806389aba642146103225780638da5cb5b14610340578063a22cb4651461035e57610157565b80633f4ba83a116101155780633f4ba83a146102425780634e1273f41461024c57806351e86cf61461027c5780635c975abb1461029a5780635ed7be9d146102b857806363be47d2146102d457610157565b8062fdd58e1461015c57806301ffc9a71461018c57806307e82e0f146101bc5780630ad89462146101d85780630e89341c146101f65780632eb2c2d614610226575b600080fd5b61017660048036038101906101719190613ea9565b61044d565b6040516101839190614da5565b60405180910390f35b6101a660048036038101906101a1919061406c565b610516565b6040516101b391906149cd565b60405180910390f35b6101d660048036038101906101d19190613ee9565b6105f8565b005b6101e0610789565b6040516101ed9190614783565b60405180910390f35b610210600480360381019061020b9190614245565b6107af565b60405161021d91906149e8565b60405180910390f35b610240600480360381019061023b9190613d03565b610868565b005b61024a610d3d565b005b61026660048036038101906102619190613f3c565b610d4f565b6040516102739190614974565b60405180910390f35b610284610e68565b6040516102919190614783565b60405180910390f35b6102a2610e8e565b6040516102af91906149cd565b60405180910390f35b6102d260048036038101906102cd9190614192565b610ea5565b005b6102dc610f4d565b6040516102e99190614783565b60405180910390f35b6102fa610f73565b005b61031660048036038101906103119190614245565b610f87565b005b61032061115d565b005b61032a61116f565b6040516103379190614da5565b60405180910390f35b610348611175565b6040516103559190614783565b60405180910390f35b61037860048036038101906103739190613e69565b61119f565b005b610394600480360381019061038f9190614245565b6111b5565b6040516103a49493929190614a0a565b60405180910390f35b6103c760048036038101906103c2919061429f565b61127b565b005b6103e360048036038101906103de9190613cc3565b611518565b6040516103f091906149cd565b60405180910390f35b610413600480360381019061040e9190613dd2565b6115ac565b005b61042f600480360381019061042a9190613c96565b6119ff565b005b61044b60048036038101906104469190613fb4565b611a83565b005b60008073ffffffffffffffffffffffffffffffffffffffff168373ffffffffffffffffffffffffffffffffffffffff1614156104be576040517f08c379a00000000000000000000000000000000000000000000000000000000081526004016104b590614be5565b60405180910390fd5b60008083815260200190815260200160002060008473ffffffffffffffffffffffffffffffffffffffff1673ffffffffffffffffffffffffffffffffffffffff16815260200190815260200160002054905092915050565b60007fd9b67a26000000000000000000000000000000000000000000000000000000007bffffffffffffffffffffffffffffffffffffffffffffffffffffffff1916827bffffffffffffffffffffffffffffffffffffffffffffffffffffffff191614806105e157507f0e89341c000000000000000000000000000000000000000000000000000000007bffffffffffffffffffffffffffffffffffffffffffffffffffffffff1916827bffffffffffffffffffffffffffffffffffffffffffffffffffffffff1916145b806105f157506105f082611db2565b5b9050919050565b610600611e1c565b600660149054906101000a900460ff1615610650576040517f08c379a000000000000000000000000000000000000000000000000000000000815260040161064790614bc5565b60405180910390fd5b61065983611e9a565b610698576040517f08c379a000000000000000000000000000000000000000000000000000000000815260040161068f90614b45565b60405180910390fd5b6106a181611e9a565b6106e0576040517f08c379a00000000000000000000000000000000000000000000000000000000081526004016106d790614b45565b60405180910390fd5b82600460006101000a81548173ffffffffffffffffffffffffffffffffffffffff021916908373ffffffffffffffffffffffffffffffffffffffff1602179055508160078190555080600660006101000a81548173ffffffffffffffffffffffffffffffffffffffff021916908373ffffffffffffffffffffffffffffffffffffffff1602179055506001600660146101000a81548160ff021916908315150217905550505050565b600460009054906101000a900473ffffffffffffffffffffffffffffffffffffffff1681565b6060600560009054906101000a900473ffffffffffffffffffffffffffffffffffffffff1673ffffffffffffffffffffffffffffffffffffffff16630e89341c836040518263ffffffff1660e01b815260040161080c9190614da5565b60006040518083038186803b15801561082457600080fd5b505afa158015610838573d6000803e3d6000fd5b505050506040513d6000823e3d601f19601f8201168201806040525081019061086191906140c6565b9050919050565b610870611ebd565b610878611f07565b73ffffffffffffffffffffffffffffffffffffffff168573ffffffffffffffffffffffffffffffffffffffff1614806108be57506108bd856108b8611f07565b611518565b5b6108fd576040517f08c379a00000000000000000000000000000000000000000000000000000000081526004016108f490614ae5565b60405180910390fd5b600660009054906101000a900473ffffffffffffffffffffffffffffffffffffffff1673ffffffffffffffffffffffffffffffffffffffff1663fe575a87856040518263ffffffff1660e01b81526004016109589190614783565b602060405180830381600087803b15801561097257600080fd5b505af1158015610986573d6000803e3d6000fd5b505050506040513d601f19601f820116820180604052508101906109aa919061403f565b156109ea576040517f08c379a00000000000000000000000000000000000000000000000000000000081526004016109e190614d85565b60405180910390fd5b8151835114610a2e576040517f08c379a0000000000000000000000000000000000000000000000000000000008152600401610a2590614cc5565b60405180910390fd5b600660009054906101000a900473ffffffffffffffffffffffffffffffffffffffff1673ffffffffffffffffffffffffffffffffffffffff16631a2f7167856040518263ffffffff1660e01b8152600401610a899190614783565b602060405180830381600087803b158015610aa357600080fd5b505af1158015610ab7573d6000803e3d6000fd5b505050506040513d601f19601f82011682018060405250810190610adb919061403f565b15610d28576000805b8451811015610bf757600560009054906101000a900473ffffffffffffffffffffffffffffffffffffffff1673ffffffffffffffffffffffffffffffffffffffff1663d10424c7868381518110610b3e57610b3d61517c565b5b60200260200101516040518263ffffffff1660e01b8152600401610b629190614da5565b60206040518083038186803b158015610b7a57600080fd5b505afa158015610b8e573d6000803e3d6000fd5b505050506040513d601f19601f82011682018060405250810190610bb29190614272565b848281518110610bc557610bc461517c565b5b6020026020010151610bd79190614fc3565b82610be29190614f6d565b91508080610bef90615104565b915050610ae4565b50610c03868585611f0f565b600560009054906101000a900473ffffffffffffffffffffffffffffffffffffffff1673ffffffffffffffffffffffffffffffffffffffff1663e21c8b5985856040518363ffffffff1660e01b8152600401610c60929190614996565b600060405180830381600087803b158015610c7a57600080fd5b505af1158015610c8e573d6000803e3d6000fd5b50505050610cbf600460009054906101000a900473ffffffffffffffffffffffffffffffffffffffff1686836121de565b7f68c9cd42836993caa70415e61f3c3baceb0bb31dcb22af6e5e0db98fa8870fac86868686600460009054906101000a900473ffffffffffffffffffffffffffffffffffffffff1686604051610d1a9695949392919061479e565b60405180910390a150610d36565b610d3585858585856123a3565b5b5050505050565b610d45611e1c565b610d4d6126c5565b565b60608151835114610d95576040517f08c379a0000000000000000000000000000000000000000000000000000000008152600401610d8c90614d05565b60405180910390fd5b6000835167ffffffffffffffff811115610db257610db16151ab565b5b604051908082528060200260200182016040528015610de05781602001602082028036833780820191505090505b50905060005b8451811015610e5d57610e2d858281518110610e0557610e0461517c565b5b6020026020010151858381518110610e2057610e1f61517c565b5b602002602001015161044d565b828281518110610e4057610e3f61517c565b5b60200260200101818152505080610e5690615104565b9050610de6565b508091505092915050565b600660009054906101000a900473ffffffffffffffffffffffffffffffffffffffff1681565b6000600360149054906101000a900460ff16905090565b610ead611e1c565b600560009054906101000a900473ffffffffffffffffffffffffffffffffffffffff1673ffffffffffffffffffffffffffffffffffffffff166380d69c8a86868686866007546040518763ffffffff1660e01b8152600401610f1496959493929190614a56565b600060405180830381600087803b158015610f2e57600080fd5b505af1158015610f42573d6000803e3d6000fd5b505050505050505050565b600560009054906101000a900473ffffffffffffffffffffffffffffffffffffffff1681565b610f7b611e1c565b610f856000612728565b565b610f8f611ebd565b6000600560009054906101000a900473ffffffffffffffffffffffffffffffffffffffff1673ffffffffffffffffffffffffffffffffffffffff1663d20874d8836040518263ffffffff1660e01b8152600401610fec9190614da5565b60206040518083038186803b15801561100457600080fd5b505afa158015611018573d6000803e3d6000fd5b505050506040513d601f19601f8201168201806040525081019061103c9190614272565b9050600560009054906101000a900473ffffffffffffffffffffffffffffffffffffffff1673ffffffffffffffffffffffffffffffffffffffff166336a3409c83336040518363ffffffff1660e01b815260040161109b929190614dc0565b600060405180830381600087803b1580156110b557600080fd5b505af11580156110c9573d6000803e3d6000fd5b505050506110fa600460009054906101000a900473ffffffffffffffffffffffffffffffffffffffff1633836121de565b7fa1c359e2aefcb2a02fa122099023552498d16ee2c91b81d3cfd8cd086f037d443383600460009054906101000a900473ffffffffffffffffffffffffffffffffffffffff1684604051611151949392919061492f565b60405180910390a15050565b611165611e1c565b61116d6127ee565b565b60075481565b6000600360009054906101000a900473ffffffffffffffffffffffffffffffffffffffff16905090565b6111b16111aa611f07565b8383612851565b5050565b60606000806000600560009054906101000a900473ffffffffffffffffffffffffffffffffffffffff1673ffffffffffffffffffffffffffffffffffffffff1663c1e03728866040518263ffffffff1660e01b81526004016112179190614da5565b60006040518083038186803b15801561122f57600080fd5b505afa158015611243573d6000803e3d6000fd5b505050506040513d6000823e3d601f19601f8201168201806040525081019061126c919061410f565b93509350935093509193509193565b611283611ebd565b600660009054906101000a900473ffffffffffffffffffffffffffffffffffffffff1673ffffffffffffffffffffffffffffffffffffffff1663fe575a87826040518263ffffffff1660e01b81526004016112de9190614783565b602060405180830381600087803b1580156112f857600080fd5b505af115801561130c573d6000803e3d6000fd5b505050506040513d601f19601f82011682018060405250810190611330919061403f565b15611370576040517f08c379a000000000000000000000000000000000000000000000000000000000815260040161136790614d85565b60405180910390fd5b6000600560009054906101000a900473ffffffffffffffffffffffffffffffffffffffff1673ffffffffffffffffffffffffffffffffffffffff1663d10424c7856040518263ffffffff1660e01b81526004016113cd9190614da5565b60206040518083038186803b1580156113e557600080fd5b505afa1580156113f9573d6000803e3d6000fd5b505050506040513d601f19601f8201168201806040525081019061141d9190614272565b836114289190614fc3565b9050611458600460009054906101000a900473ffffffffffffffffffffffffffffffffffffffff163330846129be565b600560009054906101000a900473ffffffffffffffffffffffffffffffffffffffff1673ffffffffffffffffffffffffffffffffffffffff1663f600d9f461149f86612b86565b6114a886612b86565b6040518363ffffffff1660e01b81526004016114c5929190614996565b600060405180830381600087803b1580156114df57600080fd5b505af11580156114f3573d6000803e3d6000fd5b5050505061151282858560405180602001604052806000815250612c00565b50505050565b6000600160008473ffffffffffffffffffffffffffffffffffffffff1673ffffffffffffffffffffffffffffffffffffffff16815260200190815260200160002060008373ffffffffffffffffffffffffffffffffffffffff1673ffffffffffffffffffffffffffffffffffffffff16815260200190815260200160002060009054906101000a900460ff16905092915050565b6115b4611ebd565b6115bc611f07565b73ffffffffffffffffffffffffffffffffffffffff168573ffffffffffffffffffffffffffffffffffffffff1614806116025750611601856115fc611f07565b611518565b5b611641576040517f08c379a000000000000000000000000000000000000000000000000000000000815260040161163890614ae5565b60405180910390fd5b600660009054906101000a900473ffffffffffffffffffffffffffffffffffffffff1673ffffffffffffffffffffffffffffffffffffffff1663fe575a87856040518263ffffffff1660e01b815260040161169c9190614783565b602060405180830381600087803b1580156116b657600080fd5b505af11580156116ca573d6000803e3d6000fd5b505050506040513d601f19601f820116820180604052508101906116ee919061403f565b1561172e576040517f08c379a000000000000000000000000000000000000000000000000000000000815260040161172590614d85565b60405180910390fd5b600660009054906101000a900473ffffffffffffffffffffffffffffffffffffffff1673ffffffffffffffffffffffffffffffffffffffff16631a2f7167856040518263ffffffff1660e01b81526004016117899190614783565b602060405180830381600087803b1580156117a357600080fd5b505af11580156117b7573d6000803e3d6000fd5b505050506040513d601f19601f820116820180604052508101906117db919061403f565b156119ea576000600560009054906101000a900473ffffffffffffffffffffffffffffffffffffffff1673ffffffffffffffffffffffffffffffffffffffff1663d10424c7856040518263ffffffff1660e01b815260040161183d9190614da5565b60206040518083038186803b15801561185557600080fd5b505afa158015611869573d6000803e3d6000fd5b505050506040513d601f19601f8201168201806040525081019061188d9190614272565b836118989190614fc3565b90506118a5868585612db1565b600560009054906101000a900473ffffffffffffffffffffffffffffffffffffffff1673ffffffffffffffffffffffffffffffffffffffff1663e21c8b596118ec86612b86565b6118f586612b86565b6040518363ffffffff1660e01b8152600401611912929190614996565b600060405180830381600087803b15801561192c57600080fd5b505af1158015611940573d6000803e3d6000fd5b50505050611971600460009054906101000a900473ffffffffffffffffffffffffffffffffffffffff1686836121de565b7f68c9cd42836993caa70415e61f3c3baceb0bb31dcb22af6e5e0db98fa8870fac868661199d87612b86565b6119a687612b86565b600460009054906101000a900473ffffffffffffffffffffffffffffffffffffffff16866040516119dc9695949392919061479e565b60405180910390a1506119f8565b6119f78585858585612ff8565b5b5050505050565b611a07611e1c565b600073ffffffffffffffffffffffffffffffffffffffff168173ffffffffffffffffffffffffffffffffffffffff161415611a77576040517f08c379a0000000000000000000000000000000000000000000000000000000008152600401611a6e90614b85565b60405180910390fd5b611a8081612728565b50565b611a8b611ebd565b600660009054906101000a900473ffffffffffffffffffffffffffffffffffffffff1673ffffffffffffffffffffffffffffffffffffffff1663fe575a87826040518263ffffffff1660e01b8152600401611ae69190614783565b602060405180830381600087803b158015611b0057600080fd5b505af1158015611b14573d6000803e3d6000fd5b505050506040513d601f19601f82011682018060405250810190611b38919061403f565b15611b78576040517f08c379a0000000000000000000000000000000000000000000000000000000008152600401611b6f90614d85565b60405180910390fd5b8151835114611bbc576040517f08c379a0000000000000000000000000000000000000000000000000000000008152600401611bb390614cc5565b60405180910390fd5b6000805b8451811015611cd357600560009054906101000a900473ffffffffffffffffffffffffffffffffffffffff1673ffffffffffffffffffffffffffffffffffffffff1663d10424c7868381518110611c1a57611c1961517c565b5b60200260200101516040518263ffffffff1660e01b8152600401611c3e9190614da5565b60206040518083038186803b158015611c5657600080fd5b505afa158015611c6a573d6000803e3d6000fd5b505050506040513d601f19601f82011682018060405250810190611c8e9190614272565b848281518110611ca157611ca061517c565b5b6020026020010151611cb39190614fc3565b82611cbe9190614f6d565b91508080611ccb90615104565b915050611bc0565b50611d02600460009054906101000a900473ffffffffffffffffffffffffffffffffffffffff163330846129be565b600560009054906101000a900473ffffffffffffffffffffffffffffffffffffffff1673ffffffffffffffffffffffffffffffffffffffff1663f600d9f485856040518363ffffffff1660e01b8152600401611d5f929190614996565b600060405180830381600087803b158015611d7957600080fd5b505af1158015611d8d573d6000803e3d6000fd5b50505050611dac82858560405180602001604052806000815250613294565b50505050565b60007f01ffc9a7000000000000000000000000000000000000000000000000000000007bffffffffffffffffffffffffffffffffffffffffffffffffffffffff1916827bffffffffffffffffffffffffffffffffffffffffffffffffffffffff1916149050919050565b611e24611f07565b73ffffffffffffffffffffffffffffffffffffffff16611e42611175565b73ffffffffffffffffffffffffffffffffffffffff1614611e98576040517f08c379a0000000000000000000000000000000000000000000000000000000008152600401611e8f90614ca5565b60405180910390fd5b565b6000808273ffffffffffffffffffffffffffffffffffffffff163b119050919050565b611ec5610e8e565b15611f05576040517f08c379a0000000000000000000000000000000000000000000000000000000008152600401611efc90614c25565b60405180910390fd5b565b600033905090565b600073ffffffffffffffffffffffffffffffffffffffff168373ffffffffffffffffffffffffffffffffffffffff161415611f7f576040517f08c379a0000000000000000000000000000000000000000000000000000000008152600401611f7690614c65565b60405180910390fd5b8051825114611fc3576040517f08c379a0000000000000000000000000000000000000000000000000000000008152600401611fba90614d25565b60405180910390fd5b6000611fcd611f07565b9050611fed818560008686604051806020016040528060008152506134c1565b60005b835181101561213a57600084828151811061200e5761200d61517c565b5b60200260200101519050600084838151811061202d5761202c61517c565b5b60200260200101519050600080600084815260200190815260200160002060008973ffffffffffffffffffffffffffffffffffffffff1673ffffffffffffffffffffffffffffffffffffffff168152602001908152602001600020549050818110156120ce576040517f08c379a00000000000000000000000000000000000000000000000000000000081526004016120c590614ba5565b60405180910390fd5b81810360008085815260200190815260200160002060008a73ffffffffffffffffffffffffffffffffffffffff1673ffffffffffffffffffffffffffffffffffffffff16815260200190815260200160002081905550505050808061213290615104565b915050611ff0565b50600073ffffffffffffffffffffffffffffffffffffffff168473ffffffffffffffffffffffffffffffffffffffff168273ffffffffffffffffffffffffffffffffffffffff167f4a39dc06d4c0dbc64b70af90fd698a233a518aa5d07e595d983b8c0526c8f7fb86866040516121b2929190614996565b60405180910390a46121d8818560008686604051806020016040528060008152506134c9565b50505050565b600073ffffffffffffffffffffffffffffffffffffffff168373ffffffffffffffffffffffffffffffffffffffff16141561224e576040517f08c379a000000000000000000000000000000000000000000000000000000000815260040161224590614b65565b60405180910390fd5b6000808473ffffffffffffffffffffffffffffffffffffffff1663a9059cbb60e01b8585604051602401612283929190614906565b604051602081830303815290604052907bffffffffffffffffffffffffffffffffffffffffffffffffffffffff19166020820180517bffffffffffffffffffffffffffffffffffffffffffffffffffffffff83818316178352505050506040516122ed919061476c565b6000604051808303816000865af19150503d806000811461232a576040519150601f19603f3d011682016040523d82523d6000602084013e61232f565b606091505b509150915081801561235d575060008151148061235c57508080602001905181019061235b919061403f565b5b5b61239c576040517f08c379a000000000000000000000000000000000000000000000000000000000815260040161239390614d65565b60405180910390fd5b5050505050565b81518351146123e7576040517f08c379a00000000000000000000000000000000000000000000000000000000081526004016123de90614d25565b60405180910390fd5b600073ffffffffffffffffffffffffffffffffffffffff168473ffffffffffffffffffffffffffffffffffffffff161415612457576040517f08c379a000000000000000000000000000000000000000000000000000000000815260040161244e90614c45565b60405180910390fd5b6000612461611f07565b90506124718187878787876134c1565b60005b84518110156126225760008582815181106124925761249161517c565b5b6020026020010151905060008583815181106124b1576124b061517c565b5b60200260200101519050600080600084815260200190815260200160002060008b73ffffffffffffffffffffffffffffffffffffffff1673ffffffffffffffffffffffffffffffffffffffff16815260200190815260200160002054905081811015612552576040517f08c379a000000000000000000000000000000000000000000000000000000000815260040161254990614c85565b60405180910390fd5b81810360008085815260200190815260200160002060008c73ffffffffffffffffffffffffffffffffffffffff1673ffffffffffffffffffffffffffffffffffffffff168152602001908152602001600020819055508160008085815260200190815260200160002060008b73ffffffffffffffffffffffffffffffffffffffff1673ffffffffffffffffffffffffffffffffffffffff16815260200190815260200160002060008282546126079190614f6d565b925050819055505050508061261b90615104565b9050612474565b508473ffffffffffffffffffffffffffffffffffffffff168673ffffffffffffffffffffffffffffffffffffffff168273ffffffffffffffffffffffffffffffffffffffff167f4a39dc06d4c0dbc64b70af90fd698a233a518aa5d07e595d983b8c0526c8f7fb8787604051612699929190614996565b60405180910390a46126af8187878787876134c9565b6126bd8187878787876134d1565b505050505050565b6126cd6136b8565b6000600360146101000a81548160ff0219169083151502179055507f5db9ee0a495bf2e6ff9c91a7834c1ba4fdd244a5e8aa4e537bd38aeae4b073aa612711611f07565b60405161271e9190614783565b60405180910390a1565b6000600360009054906101000a900473ffffffffffffffffffffffffffffffffffffffff16905081600360006101000a81548173ffffffffffffffffffffffffffffffffffffffff021916908373ffffffffffffffffffffffffffffffffffffffff1602179055508173ffffffffffffffffffffffffffffffffffffffff168173ffffffffffffffffffffffffffffffffffffffff167f8be0079c531659141344cd1fd0a4f28419497f9722a3daafe3b4186f6b6457e060405160405180910390a35050565b6127f6611ebd565b6001600360146101000a81548160ff0219169083151502179055507f62e78cea01bee320cd4e420270b5ea74000d11b0c9f74754ebdbfc544b05a25861283a611f07565b6040516128479190614783565b60405180910390a1565b8173ffffffffffffffffffffffffffffffffffffffff168373ffffffffffffffffffffffffffffffffffffffff1614156128c0576040517f08c379a00000000000000000000000000000000000000000000000000000000081526004016128b790614ce5565b60405180910390fd5b80600160008573ffffffffffffffffffffffffffffffffffffffff1673ffffffffffffffffffffffffffffffffffffffff16815260200190815260200160002060008473ffffffffffffffffffffffffffffffffffffffff1673ffffffffffffffffffffffffffffffffffffffff16815260200190815260200160002060006101000a81548160ff0219169083151502179055508173ffffffffffffffffffffffffffffffffffffffff168373ffffffffffffffffffffffffffffffffffffffff167f17307eab39ab6107e8899845ad3d59bd9653f200f220920489ca2b5937696c31836040516129b191906149cd565b60405180910390a3505050565b600073ffffffffffffffffffffffffffffffffffffffff168473ffffffffffffffffffffffffffffffffffffffff161415612a2e576040517f08c379a0000000000000000000000000000000000000000000000000000000008152600401612a2590614b65565b60405180910390fd5b6000808573ffffffffffffffffffffffffffffffffffffffff166323b872dd60e01b868686604051602401612a6593929190614875565b604051602081830303815290604052907bffffffffffffffffffffffffffffffffffffffffffffffffffffffff19166020820180517bffffffffffffffffffffffffffffffffffffffffffffffffffffffff8381831617835250505050604051612acf919061476c565b6000604051808303816000865af19150503d8060008114612b0c576040519150601f19603f3d011682016040523d82523d6000602084013e612b11565b606091505b5091509150818015612b3f5750600081511480612b3e575080806020019051810190612b3d919061403f565b5b5b612b7e576040517f08c379a0000000000000000000000000000000000000000000000000000000008152600401612b7590614c05565b60405180910390fd5b505050505050565b60606000600167ffffffffffffffff811115612ba557612ba46151ab565b5b604051908082528060200260200182016040528015612bd35781602001602082028036833780820191505090505b5090508281600081518110612beb57612bea61517c565b5b60200260200101818152505080915050919050565b600073ffffffffffffffffffffffffffffffffffffffff168473ffffffffffffffffffffffffffffffffffffffff161415612c70576040517f08c379a0000000000000000000000000000000000000000000000000000000008152600401612c6790614d45565b60405180910390fd5b6000612c7a611f07565b90506000612c8785613701565b90506000612c9485613701565b9050612ca5836000898585896134c1565b8460008088815260200190815260200160002060008973ffffffffffffffffffffffffffffffffffffffff1673ffffffffffffffffffffffffffffffffffffffff1681526020019081526020016000206000828254612d049190614f6d565b925050819055508673ffffffffffffffffffffffffffffffffffffffff16600073ffffffffffffffffffffffffffffffffffffffff168473ffffffffffffffffffffffffffffffffffffffff167fc3d58168c5ae7397731d063d5bbf3d657854427343f4c083240f7aacaa2d0f628989604051612d82929190614de9565b60405180910390a4612d99836000898585896134c9565b612da88360008989898961377b565b50505050505050565b600073ffffffffffffffffffffffffffffffffffffffff168373ffffffffffffffffffffffffffffffffffffffff161415612e21576040517f08c379a0000000000000000000000000000000000000000000000000000000008152600401612e1890614c65565b60405180910390fd5b6000612e2b611f07565b90506000612e3884613701565b90506000612e4584613701565b9050612e65838760008585604051806020016040528060008152506134c1565b600080600087815260200190815260200160002060008873ffffffffffffffffffffffffffffffffffffffff1673ffffffffffffffffffffffffffffffffffffffff16815260200190815260200160002054905084811015612efc576040517f08c379a0000000000000000000000000000000000000000000000000000000008152600401612ef390614ba5565b60405180910390fd5b84810360008088815260200190815260200160002060008973ffffffffffffffffffffffffffffffffffffffff1673ffffffffffffffffffffffffffffffffffffffff16815260200190815260200160002081905550600073ffffffffffffffffffffffffffffffffffffffff168773ffffffffffffffffffffffffffffffffffffffff168573ffffffffffffffffffffffffffffffffffffffff167fc3d58168c5ae7397731d063d5bbf3d657854427343f4c083240f7aacaa2d0f628989604051612fc9929190614de9565b60405180910390a4612fef848860008686604051806020016040528060008152506134c9565b50505050505050565b600073ffffffffffffffffffffffffffffffffffffffff168473ffffffffffffffffffffffffffffffffffffffff161415613068576040517f08c379a000000000000000000000000000000000000000000000000000000000815260040161305f90614c45565b60405180910390fd5b6000613072611f07565b9050600061307f85613701565b9050600061308c85613701565b905061309c8389898585896134c1565b600080600088815260200190815260200160002060008a73ffffffffffffffffffffffffffffffffffffffff1673ffffffffffffffffffffffffffffffffffffffff16815260200190815260200160002054905085811015613133576040517f08c379a000000000000000000000000000000000000000000000000000000000815260040161312a90614c85565b60405180910390fd5b85810360008089815260200190815260200160002060008b73ffffffffffffffffffffffffffffffffffffffff1673ffffffffffffffffffffffffffffffffffffffff168152602001908152602001600020819055508560008089815260200190815260200160002060008a73ffffffffffffffffffffffffffffffffffffffff1673ffffffffffffffffffffffffffffffffffffffff16815260200190815260200160002060008282546131e89190614f6d565b925050819055508773ffffffffffffffffffffffffffffffffffffffff168973ffffffffffffffffffffffffffffffffffffffff168573ffffffffffffffffffffffffffffffffffffffff167fc3d58168c5ae7397731d063d5bbf3d657854427343f4c083240f7aacaa2d0f628a8a604051613265929190614de9565b60405180910390a461327b848a8a86868a6134c9565b613289848a8a8a8a8a61377b565b505050505050505050565b600073ffffffffffffffffffffffffffffffffffffffff168473ffffffffffffffffffffffffffffffffffffffff161415613304576040517f08c379a00000000000000000000000000000000000000000000000000000000081526004016132fb90614d45565b60405180910390fd5b8151835114613348576040517f08c379a000000000000000000000000000000000000000000000000000000000815260040161333f90614d25565b60405180910390fd5b6000613352611f07565b9050613363816000878787876134c1565b60005b845181101561341c578381815181106133825761338161517c565b5b60200260200101516000808784815181106133a05761339f61517c565b5b6020026020010151815260200190815260200160002060008873ffffffffffffffffffffffffffffffffffffffff1673ffffffffffffffffffffffffffffffffffffffff16815260200190815260200160002060008282546134029190614f6d565b92505081905550808061341490615104565b915050613366565b508473ffffffffffffffffffffffffffffffffffffffff16600073ffffffffffffffffffffffffffffffffffffffff168273ffffffffffffffffffffffffffffffffffffffff167f4a39dc06d4c0dbc64b70af90fd698a233a518aa5d07e595d983b8c0526c8f7fb8787604051613494929190614996565b60405180910390a46134ab816000878787876134c9565b6134ba816000878787876134d1565b5050505050565b505050505050565b505050505050565b6134f08473ffffffffffffffffffffffffffffffffffffffff16611e9a565b156136b0578373ffffffffffffffffffffffffffffffffffffffff1663bc197c8187878686866040518663ffffffff1660e01b815260040161353695949392919061480d565b602060405180830381600087803b15801561355057600080fd5b505af192505050801561358157506040513d601f19601f8201168201806040525081019061357e9190614099565b60015b6136275761358d6151da565b806308c379a014156135ea57506135a261581c565b806135ad57506135ec565b806040517f08c379a00000000000000000000000000000000000000000000000000000000081526004016135e191906149e8565b60405180910390fd5b505b6040517f08c379a000000000000000000000000000000000000000000000000000000000815260040161361e90614ac5565b60405180910390fd5b63bc197c8160e01b7bffffffffffffffffffffffffffffffffffffffffffffffffffffffff1916817bffffffffffffffffffffffffffffffffffffffffffffffffffffffff1916146136ae576040517f08c379a00000000000000000000000000000000000000000000000000000000081526004016136a590614b05565b60405180910390fd5b505b505050505050565b6136c0610e8e565b6136ff576040517f08c379a00000000000000000000000000000000000000000000000000000000081526004016136f690614b25565b60405180910390fd5b565b60606000600167ffffffffffffffff8111156137205761371f6151ab565b5b60405190808252806020026020018201604052801561374e5781602001602082028036833780820191505090505b50905082816000815181106137665761376561517c565b5b60200260200101818152505080915050919050565b61379a8473ffffffffffffffffffffffffffffffffffffffff16611e9a565b1561395a578373ffffffffffffffffffffffffffffffffffffffff1663f23a6e6187878686866040518663ffffffff1660e01b81526004016137e09594939291906148ac565b602060405180830381600087803b1580156137fa57600080fd5b505af192505050801561382b57506040513d601f19601f820116820180604052508101906138289190614099565b60015b6138d1576138376151da565b806308c379a01415613894575061384c61581c565b806138575750613896565b806040517f08c379a000000000000000000000000000000000000000000000000000000000815260040161388b91906149e8565b60405180910390fd5b505b6040517f08c379a00000000000000000000000000000000000000000000000000000000081526004016138c890614ac5565b60405180910390fd5b63f23a6e6160e01b7bffffffffffffffffffffffffffffffffffffffffffffffffffffffff1916817bffffffffffffffffffffffffffffffffffffffffffffffffffffffff191614613958576040517f08c379a000000000000000000000000000000000000000000000000000000000815260040161394f90614b05565b60405180910390fd5b505b505050505050565b600061397561397084614e37565b614e12565b9050808382526020820190508285602086028201111561399857613997615201565b5b60005b858110156139c857816139ae8882613b08565b84526020840193506020830192505060018101905061399b565b5050509392505050565b60006139e56139e084614e63565b614e12565b90508083825260208201905082856020860282011115613a0857613a07615201565b5b60005b85811015613a385781613a1e8882613c6c565b845260208401935060208301925050600181019050613a0b565b5050509392505050565b6000613a55613a5084614e8f565b614e12565b905082815260208101848484011115613a7157613a70615206565b5b613a7c848285615091565b509392505050565b6000613a97613a9284614ec0565b614e12565b905082815260208101848484011115613ab357613ab2615206565b5b613abe848285615091565b509392505050565b6000613ad9613ad484614ec0565b614e12565b905082815260208101848484011115613af557613af4615206565b5b613b008482856150a0565b509392505050565b600081359050613b17816158b2565b92915050565b600081519050613b2c816158b2565b92915050565b600082601f830112613b4757613b466151fc565b5b8135613b57848260208601613962565b91505092915050565b600082601f830112613b7557613b746151fc565b5b8135613b858482602086016139d2565b91505092915050565b600081359050613b9d816158c9565b92915050565b600081519050613bb2816158c9565b92915050565b600081359050613bc7816158e0565b92915050565b600081519050613bdc816158e0565b92915050565b600082601f830112613bf757613bf66151fc565b5b8135613c07848260208601613a42565b91505092915050565b600082601f830112613c2557613c246151fc565b5b8135613c35848260208601613a84565b91505092915050565b600082601f830112613c5357613c526151fc565b5b8151613c63848260208601613ac6565b91505092915050565b600081359050613c7b816158f7565b92915050565b600081519050613c90816158f7565b92915050565b600060208284031215613cac57613cab615210565b5b6000613cba84828501613b08565b91505092915050565b60008060408385031215613cda57613cd9615210565b5b6000613ce885828601613b08565b9250506020613cf985828601613b08565b9150509250929050565b600080600080600060a08688031215613d1f57613d1e615210565b5b6000613d2d88828901613b08565b9550506020613d3e88828901613b08565b945050604086013567ffffffffffffffff811115613d5f57613d5e61520b565b5b613d6b88828901613b60565b935050606086013567ffffffffffffffff811115613d8c57613d8b61520b565b5b613d9888828901613b60565b925050608086013567ffffffffffffffff811115613db957613db861520b565b5b613dc588828901613be2565b9150509295509295909350565b600080600080600060a08688031215613dee57613ded615210565b5b6000613dfc88828901613b08565b9550506020613e0d88828901613b08565b9450506040613e1e88828901613c6c565b9350506060613e2f88828901613c6c565b925050608086013567ffffffffffffffff811115613e5057613e4f61520b565b5b613e5c88828901613be2565b9150509295509295909350565b60008060408385031215613e8057613e7f615210565b5b6000613e8e85828601613b08565b9250506020613e9f85828601613b8e565b9150509250929050565b60008060408385031215613ec057613ebf615210565b5b6000613ece85828601613b08565b9250506020613edf85828601613c6c565b9150509250929050565b600080600060608486031215613f0257613f01615210565b5b6000613f1086828701613b08565b9350506020613f2186828701613c6c565b9250506040613f3286828701613b08565b9150509250925092565b60008060408385031215613f5357613f52615210565b5b600083013567ffffffffffffffff811115613f7157613f7061520b565b5b613f7d85828601613b32565b925050602083013567ffffffffffffffff811115613f9e57613f9d61520b565b5b613faa85828601613b60565b9150509250929050565b600080600060608486031215613fcd57613fcc615210565b5b600084013567ffffffffffffffff811115613feb57613fea61520b565b5b613ff786828701613b60565b935050602084013567ffffffffffffffff8111156140185761401761520b565b5b61402486828701613b60565b925050604061403586828701613b08565b9150509250925092565b60006020828403121561405557614054615210565b5b600061406384828501613ba3565b91505092915050565b60006020828403121561408257614081615210565b5b600061409084828501613bb8565b91505092915050565b6000602082840312156140af576140ae615210565b5b60006140bd84828501613bcd565b91505092915050565b6000602082840312156140dc576140db615210565b5b600082015167ffffffffffffffff8111156140fa576140f961520b565b5b61410684828501613c3e565b91505092915050565b6000806000806080858703121561412957614128615210565b5b600085015167ffffffffffffffff8111156141475761414661520b565b5b61415387828801613c3e565b945050602061416487828801613c81565b935050604061417587828801613c81565b925050606061418687828801613b1d565b91505092959194509250565b600080600080600060a086880312156141ae576141ad615210565b5b600086013567ffffffffffffffff8111156141cc576141cb61520b565b5b6141d888828901613c10565b95505060206141e988828901613c6c565b94505060406141fa88828901613c6c565b935050606061420b88828901613b08565b925050608086013567ffffffffffffffff81111561422c5761422b61520b565b5b61423888828901613c10565b9150509295509295909350565b60006020828403121561425b5761425a615210565b5b600061426984828501613c6c565b91505092915050565b60006020828403121561428857614287615210565b5b600061429684828501613c81565b91505092915050565b6000806000606084860312156142b8576142b7615210565b5b60006142c686828701613c6c565b93505060206142d786828701613c6c565b92505060406142e886828701613b08565b9150509250925092565b60006142fe838361474e565b60208301905092915050565b6143138161501d565b82525050565b600061432482614f01565b61432e8185614f2f565b935061433983614ef1565b8060005b8381101561436a57815161435188826142f2565b975061435c83614f22565b92505060018101905061433d565b5085935050505092915050565b6143808161502f565b82525050565b600061439182614f0c565b61439b8185614f40565b93506143ab8185602086016150a0565b6143b481615215565b840191505092915050565b60006143ca82614f0c565b6143d48185614f51565b93506143e48185602086016150a0565b80840191505092915050565b60006143fb82614f17565b6144058185614f5c565b93506144158185602086016150a0565b61441e81615215565b840191505092915050565b6000614436603483614f5c565b915061444182615233565b604082019050919050565b6000614459602f83614f5c565b915061446482615282565b604082019050919050565b600061447c602883614f5c565b9150614487826152d1565b604082019050919050565b600061449f601483614f5c565b91506144aa82615320565b602082019050919050565b60006144c2601283614f5c565b91506144cd82615349565b602082019050919050565b60006144e5601283614f5c565b91506144f082615372565b602082019050919050565b6000614508602683614f5c565b91506145138261539b565b604082019050919050565b600061452b602483614f5c565b9150614536826153ea565b604082019050919050565b600061454e601883614f5c565b915061455982615439565b602082019050919050565b6000614571602a83614f5c565b915061457c82615462565b604082019050919050565b6000614594602683614f5c565b915061459f826154b1565b604082019050919050565b60006145b7601083614f5c565b91506145c282615500565b602082019050919050565b60006145da602583614f5c565b91506145e582615529565b604082019050919050565b60006145fd602383614f5c565b915061460882615578565b604082019050919050565b6000614620602a83614f5c565b915061462b826155c7565b604082019050919050565b6000614643602083614f5c565b915061464e82615616565b602082019050919050565b6000614666602083614f5c565b91506146718261563f565b602082019050919050565b6000614689602983614f5c565b915061469482615668565b604082019050919050565b60006146ac602983614f5c565b91506146b7826156b7565b604082019050919050565b60006146cf602883614f5c565b91506146da82615706565b604082019050919050565b60006146f2602183614f5c565b91506146fd82615755565b604082019050919050565b6000614715602783614f5c565b9150614720826157a4565b604082019050919050565b6000614738601d83614f5c565b9150614743826157f3565b602082019050919050565b61475781615087565b82525050565b61476681615087565b82525050565b600061477882846143bf565b915081905092915050565b6000602082019050614798600083018461430a565b92915050565b600060c0820190506147b3600083018961430a565b6147c0602083018861430a565b81810360408301526147d28187614319565b905081810360608301526147e68186614319565b90506147f5608083018561430a565b61480260a083018461475d565b979650505050505050565b600060a082019050614822600083018861430a565b61482f602083018761430a565b81810360408301526148418186614319565b905081810360608301526148558185614319565b905081810360808301526148698184614386565b90509695505050505050565b600060608201905061488a600083018661430a565b614897602083018561430a565b6148a4604083018461475d565b949350505050565b600060a0820190506148c1600083018861430a565b6148ce602083018761430a565b6148db604083018661475d565b6148e8606083018561475d565b81810360808301526148fa8184614386565b90509695505050505050565b600060408201905061491b600083018561430a565b614928602083018461475d565b9392505050565b6000608082019050614944600083018761430a565b614951602083018661475d565b61495e604083018561430a565b61496b606083018461475d565b95945050505050565b6000602082019050818103600083015261498e8184614319565b905092915050565b600060408201905081810360008301526149b08185614319565b905081810360208301526149c48184614319565b90509392505050565b60006020820190506149e26000830184614377565b92915050565b60006020820190508181036000830152614a0281846143f0565b905092915050565b60006080820190508181036000830152614a2481876143f0565b9050614a33602083018661475d565b614a40604083018561475d565b614a4d606083018461430a565b95945050505050565b600060c0820190508181036000830152614a7081896143f0565b9050614a7f602083018861475d565b614a8c604083018761475d565b614a99606083018661430a565b8181036080830152614aab81856143f0565b9050614aba60a083018461475d565b979650505050505050565b60006020820190508181036000830152614ade81614429565b9050919050565b60006020820190508181036000830152614afe8161444c565b9050919050565b60006020820190508181036000830152614b1e8161446f565b9050919050565b60006020820190508181036000830152614b3e81614492565b9050919050565b60006020820190508181036000830152614b5e816144b5565b9050919050565b60006020820190508181036000830152614b7e816144d8565b9050919050565b60006020820190508181036000830152614b9e816144fb565b9050919050565b60006020820190508181036000830152614bbe8161451e565b9050919050565b60006020820190508181036000830152614bde81614541565b9050919050565b60006020820190508181036000830152614bfe81614564565b9050919050565b60006020820190508181036000830152614c1e81614587565b9050919050565b60006020820190508181036000830152614c3e816145aa565b9050919050565b60006020820190508181036000830152614c5e816145cd565b9050919050565b60006020820190508181036000830152614c7e816145f0565b9050919050565b60006020820190508181036000830152614c9e81614613565b9050919050565b60006020820190508181036000830152614cbe81614636565b9050919050565b60006020820190508181036000830152614cde81614659565b9050919050565b60006020820190508181036000830152614cfe8161467c565b9050919050565b60006020820190508181036000830152614d1e8161469f565b9050919050565b60006020820190508181036000830152614d3e816146c2565b9050919050565b60006020820190508181036000830152614d5e816146e5565b9050919050565b60006020820190508181036000830152614d7e81614708565b9050919050565b60006020820190508181036000830152614d9e8161472b565b9050919050565b6000602082019050614dba600083018461475d565b92915050565b6000604082019050614dd5600083018561475d565b614de2602083018461430a565b9392505050565b6000604082019050614dfe600083018561475d565b614e0b602083018461475d565b9392505050565b6000614e1c614e2d565b9050614e2882826150d3565b919050565b6000604051905090565b600067ffffffffffffffff821115614e5257614e516151ab565b5b602082029050602081019050919050565b600067ffffffffffffffff821115614e7e57614e7d6151ab565b5b602082029050602081019050919050565b600067ffffffffffffffff821115614eaa57614ea96151ab565b5b614eb382615215565b9050602081019050919050565b600067ffffffffffffffff821115614edb57614eda6151ab565b5b614ee482615215565b9050602081019050919050565b6000819050602082019050919050565b600081519050919050565b600081519050919050565b600081519050919050565b6000602082019050919050565b600082825260208201905092915050565b600082825260208201905092915050565b600081905092915050565b600082825260208201905092915050565b6000614f7882615087565b9150614f8383615087565b9250827fffffffffffffffffffffffffffffffffffffffffffffffffffffffffffffffff03821115614fb857614fb761514d565b5b828201905092915050565b6000614fce82615087565b9150614fd983615087565b9250817fffffffffffffffffffffffffffffffffffffffffffffffffffffffffffffffff04831182151516156150125761501161514d565b5b828202905092915050565b600061502882615067565b9050919050565b60008115159050919050565b60007fffffffff0000000000000000000000000000000000000000000000000000000082169050919050565b600073ffffffffffffffffffffffffffffffffffffffff82169050919050565b6000819050919050565b82818337600083830152505050565b60005b838110156150be5780820151818401526020810190506150a3565b838111156150cd576000848401525b50505050565b6150dc82615215565b810181811067ffffffffffffffff821117156150fb576150fa6151ab565b5b80604052505050565b600061510f82615087565b91507fffffffffffffffffffffffffffffffffffffffffffffffffffffffffffffffff8214156151425761514161514d565b5b600182019050919050565b7f4e487b7100000000000000000000000000000000000000000000000000000000600052601160045260246000fd5b7f4e487b7100000000000000000000000000000000000000000000000000000000600052603260045260246000fd5b7f4e487b7100000000000000000000000000000000000000000000000000000000600052604160045260246000fd5b600060033d11156151f95760046000803e6151f6600051615226565b90505b90565b600080fd5b600080fd5b600080fd5b600080fd5b600080fd5b6000601f19601f8301169050919050565b60008160e01c9050919050565b7f455243313135353a207472616e7366657220746f206e6f6e204552433131353560008201527f526563656976657220696d706c656d656e746572000000000000000000000000602082015250565b7f455243313135353a2063616c6c6572206973206e6f7420746f6b656e206f776e60008201527f6572206e6f7220617070726f7665640000000000000000000000000000000000602082015250565b7f455243313135353a204552433131353552656365697665722072656a6563746560008201527f6420746f6b656e73000000000000000000000000000000000000000000000000602082015250565b7f5061757361626c653a206e6f7420706175736564000000000000000000000000600082015250565b7f496e76616c69642073706f7420746f6b656e0000000000000000000000000000600082015250565b7f45524332303a206e696c20616464726573730000000000000000000000000000600082015250565b7f4f776e61626c653a206e6577206f776e657220697320746865207a65726f206160008201527f6464726573730000000000000000000000000000000000000000000000000000602082015250565b7f455243313135353a206275726e20616d6f756e7420657863656564732062616c60008201527f616e636500000000000000000000000000000000000000000000000000000000602082015250565b7f50424d3a20416c726561647920696e697469616c697365640000000000000000600082015250565b7f455243313135353a2061646472657373207a65726f206973206e6f742061207660008201527f616c6964206f776e657200000000000000000000000000000000000000000000602082015250565b7f45524332303a20496e737566666963656e742062616c616e6365206f7220617060008201527f70726f76616c0000000000000000000000000000000000000000000000000000602082015250565b7f5061757361626c653a2070617573656400000000000000000000000000000000600082015250565b7f455243313135353a207472616e7366657220746f20746865207a65726f20616460008201527f6472657373000000000000000000000000000000000000000000000000000000602082015250565b7f455243313135353a206275726e2066726f6d20746865207a65726f206164647260008201527f6573730000000000000000000000000000000000000000000000000000000000602082015250565b7f455243313135353a20696e73756666696369656e742062616c616e636520666f60008201527f72207472616e7366657200000000000000000000000000000000000000000000602082015250565b7f4f776e61626c653a2063616c6c6572206973206e6f7420746865206f776e6572600082015250565b7f556e657175616c2069647320616e6420616d6f756e747320737570706c696564600082015250565b7f455243313135353a2073657474696e6720617070726f76616c2073746174757360008201527f20666f722073656c660000000000000000000000000000000000000000000000602082015250565b7f455243313135353a206163636f756e747320616e6420696473206c656e67746860008201527f206d69736d617463680000000000000000000000000000000000000000000000602082015250565b7f455243313135353a2069647320616e6420616d6f756e7473206c656e6774682060008201527f6d69736d61746368000000000000000000000000000000000000000000000000602082015250565b7f455243313135353a206d696e7420746f20746865207a65726f2061646472657360008201527f7300000000000000000000000000000000000000000000000000000000000000602082015250565b7f496e746572616374696f6e2077697468207468652073706f7420746f6b656e2060008201527f6661696c65642e00000000000000000000000000000000000000000000000000602082015250565b7f50424d3a2027746f27206164647265737320626c61636b6c6973746564000000600082015250565b600060443d101561582c576158af565b615834614e2d565b60043d036004823e80513d602482011167ffffffffffffffff8211171561585c5750506158af565b808201805167ffffffffffffffff81111561587a57505050506158af565b80602083010160043d0385018111156158975750505050506158af565b6158a6826020018501866150d3565b82955050505050505b90565b6158bb8161501d565b81146158c657600080fd5b50565b6158d28161502f565b81146158dd57600080fd5b50565b6158e98161503b565b81146158f457600080fd5b50565b61590081615087565b811461590b57600080fd5b5056fea264697066735822122019cf17e70f3743256a53f7bd1b6ad412128ed7d49bd10cb3d7b17354f1f1e65a64736f6c6343000807003360a060405260006001553480156200001657600080fd5b506040516200252d3803806200252d83398181016040528101906200003c9190620002ad565b6200005c62000050620000b360201b60201c565b620000bb60201b60201c565b3073ffffffffffffffffffffffffffffffffffffffff1660808173ffffffffffffffffffffffffffffffffffffffff1660601b815250508060029080519060200190620000ab9291906200017f565b505062000482565b600033905090565b60008060009054906101000a900473ffffffffffffffffffffffffffffffffffffffff169050816000806101000a81548173ffffffffffffffffffffffffffffffffffffffff021916908373ffffffffffffffffffffffffffffffffffffffff1602179055508173ffffffffffffffffffffffffffffffffffffffff168173ffffffffffffffffffffffffffffffffffffffff167f8be0079c531659141344cd1fd0a4f28419497f9722a3daafe3b4186f6b6457e060405160405180910390a35050565b8280546200018d9062000393565b90600052602060002090601f016020900481019282620001b15760008555620001fd565b82601f10620001cc57805160ff1916838001178555620001fd565b82800160010185558215620001fd579182015b82811115620001fc578251825591602001919060010190620001df565b5b5090506200020c919062000210565b5090565b5b808211156200022b57600081600090555060010162000211565b5090565b600062000246620002408462000327565b620002fe565b90508281526020810184848401111562000265576200026462000462565b5b620002728482856200035d565b509392505050565b600082601f8301126200029257620002916200045d565b5b8151620002a48482602086016200022f565b91505092915050565b600060208284031215620002c657620002c56200046c565b5b600082015167ffffffffffffffff811115620002e757620002e662000467565b5b620002f5848285016200027a565b91505092915050565b60006200030a6200031d565b9050620003188282620003c9565b919050565b6000604051905090565b600067ffffffffffffffff8211156200034557620003446200042e565b5b620003508262000471565b9050602081019050919050565b60005b838110156200037d57808201518184015260208101905062000360565b838111156200038d576000848401525b50505050565b60006002820490506001821680620003ac57607f821691505b60208210811415620003c357620003c2620003ff565b5b50919050565b620003d48262000471565b810181811067ffffffffffffffff82111715620003f657620003f56200042e565b5b80604052505050565b7f4e487b7100000000000000000000000000000000000000000000000000000000600052602260045260246000fd5b7f4e487b7100000000000000000000000000000000000000000000000000000000600052604160045260246000fd5b600080fd5b600080fd5b600080fd5b600080fd5b6000601f19601f8301169050919050565b60805160601c61208c620004a160003960006110a2015261208c6000f3fe608060405234801561001057600080fd5b50600436106100ea5760003560e01c8063934689a91161008c578063d20874d811610066578063d20874d814610272578063e21c8b59146102a2578063f2fde38b146102be578063f600d9f4146102da576100ea565b8063934689a9146101df578063c1e037281461020f578063d10424c714610242576100ea565b806348fd09f5116100c857806348fd09f51461016b578063715018a61461019b57806380d69c8a146101a55780638da5cb5b146101c1576100ea565b80630e89341c146100ef578063234661c41461011f57806336a3409c1461014f575b600080fd5b61010960048036038101906101049190611627565b6102f6565b604051610116919061189d565b60405180910390f35b61013960048036038101906101349190611627565b61044e565b6040516101469190611a0b565b60405180910390f35b61016960048036038101906101649190611654565b6104e8565b005b610185600480360381019061018091906114a1565b6105d6565b6040516101929190611882565b60405180910390f35b6101a361064e565b005b6101bf60048036038101906101ba9190611562565b610662565b005b6101c96108d5565b6040516101d69190611867565b60405180910390f35b6101f960048036038101906101f49190611627565b6108fe565b6040516102069190611867565b60405180910390f35b61022960048036038101906102249190611627565b6109b8565b60405161023994939291906118bf565b60405180910390f35b61025c60048036038101906102579190611627565b610b2e565b6040516102699190611a0b565b60405180910390f35b61028c60048036038101906102879190611627565b610bc8565b6040516102999190611a0b565b60405180910390f35b6102bc60048036038101906102b791906114ea565b610c62565b005b6102d860048036038101906102d39190611474565b610d9e565b005b6102f460048036038101906102ef91906114ea565b610e22565b005b6060600360008381526020019081526020016000206002015442106103a7576002805461032290611cc8565b80601f016020809104026020016040519081016040528092919081815260200182805461034e90611cc8565b801561039b5780601f106103705761010080835404028352916020019161039b565b820191906000526020600020905b81548152906001019060200180831161037e57829003601f168201915b50505050509050610449565b6003600083815260200190815260200160002060050180546103c890611cc8565b80601f01602080910402602001604051908101604052809291908181526020018280546103f490611cc8565b80156104415780601f1061041657610100808354040283529160200191610441565b820191906000526020600020905b81548152906001019060200180831161042457829003601f168201915b505050505090505b919050565b60008060036000848152602001908152602001600020600101541415801561048b5750600360008381526020019081526020016000206002015442105b6104ca576040517f08c379a00000000000000000000000000000000000000000000000000000000081526004016104c19061192b565b60405180910390fd5b60036000838152602001908152602001600020600401549050919050565b6104f0610f5e565b6003600083815260200190815260200160002060030160009054906101000a900473ffffffffffffffffffffffffffffffffffffffff1673ffffffffffffffffffffffffffffffffffffffff168173ffffffffffffffffffffffffffffffffffffffff16148015610577575060036000838152602001908152602001600020600201544210155b6105b6576040517f08c379a00000000000000000000000000000000000000000000000000000000081526004016105ad9061190b565b60405180910390fd5b600060036000848152602001908152602001600020600401819055505050565b600080600090505b8251811015610643576003600082815260200190815260200160002060020154421180610621575060006003600083815260200190815260200160002060010154145b15610630576000915050610649565b808061063b90611d2b565b9150506105de565b50600190505b919050565b610656610f5e565b6106606000610fdc565b565b61066a610f5e565b6106726110a0565b808411156106b5576040517f08c379a00000000000000000000000000000000000000000000000000000000081526004016106ac9061198b565b60405180910390fd5b4284116106f7576040517f08c379a00000000000000000000000000000000000000000000000000000000081526004016106ee906119ab565b60405180910390fd5b600085141561073b576040517f08c379a0000000000000000000000000000000000000000000000000000000008152600401610732906119cb565b60405180910390fd5b60008661074787611130565b604051602001610758929190611843565b6040516020818303038152906040529050806003600060015481526020019081526020016000206000019080519060200190610795929190611299565b50856003600060015481526020019081526020016000206001018190555084600360006001548152602001908152602001600020600201819055508360036000600154815260200190815260200160002060030160006101000a81548173ffffffffffffffffffffffffffffffffffffffff021916908373ffffffffffffffffffffffffffffffffffffffff160217905550600060036000600154815260200190815260200160002060040181905550826003600060015481526020019081526020016000206005019080519060200190610871929190611299565b507fbbb805bf89819da42bb55052edd2bf6db1c2256ec4c19cf1607de95efc92762f600154828888886040516108ab959493929190611a26565b60405180910390a160018060008282546108c59190611b29565b9250508190555050505050505050565b60008060009054906101000a900473ffffffffffffffffffffffffffffffffffffffff16905090565b60008060036000848152602001908152602001600020600101541415801561093b5750600360008381526020019081526020016000206002015442105b61097a576040517f08c379a00000000000000000000000000000000000000000000000000000000081526004016109719061192b565b60405180910390fd5b6003600083815260200190815260200160002060030160009054906101000a900473ffffffffffffffffffffffffffffffffffffffff169050919050565b606060008060008060036000878152602001908152602001600020600101541415610a18576040517f08c379a0000000000000000000000000000000000000000000000000000000008152600401610a0f9061192b565b60405180910390fd5b60036000868152602001908152602001600020600001600360008781526020019081526020016000206001015460036000888152602001908152602001600020600201546003600089815260200190815260200160002060030160009054906101000a900473ffffffffffffffffffffffffffffffffffffffff16838054610a9f90611cc8565b80601f0160208091040260200160405190810160405280929190818152602001828054610acb90611cc8565b8015610b185780601f10610aed57610100808354040283529160200191610b18565b820191906000526020600020905b815481529060010190602001808311610afb57829003601f168201915b5050505050935093509350935093509193509193565b600080600360008481526020019081526020016000206001015414158015610b6b5750600360008381526020019081526020016000206002015442105b610baa576040517f08c379a0000000000000000000000000000000000000000000000000000000008152600401610ba19061192b565b60405180910390fd5b60036000838152602001908152602001600020600101549050919050565b60008060036000848152602001908152602001600020600101541415610c23576040517f08c379a0000000000000000000000000000000000000000000000000000000008152600401610c1a9061192b565b60405180910390fd5b60036000838152602001908152602001600020600401546003600084815260200190815260200160002060010154610c5b9190611bb0565b9050919050565b610c6a610f5e565b60005b8251811015610d9957600060036000858481518110610c8f57610c8e611e32565b5b602002602001015181526020019081526020016000206001015414158015610ce6575060036000848381518110610cc957610cc8611e32565b5b602002602001015181526020019081526020016000206002015442105b610d25576040517f08c379a0000000000000000000000000000000000000000000000000000000008152600401610d1c9061192b565b60405180910390fd5b818181518110610d3857610d37611e32565b5b602002602001015160036000858481518110610d5757610d56611e32565b5b602002602001015181526020019081526020016000206004016000828254610d7f9190611c0a565b925050819055508080610d9190611d2b565b915050610c6d565b505050565b610da6610f5e565b600073ffffffffffffffffffffffffffffffffffffffff168173ffffffffffffffffffffffffffffffffffffffff161415610e16576040517f08c379a0000000000000000000000000000000000000000000000000000000008152600401610e0d9061194b565b60405180910390fd5b610e1f81610fdc565b50565b610e2a610f5e565b60005b8251811015610f5957600060036000858481518110610e4f57610e4e611e32565b5b602002602001015181526020019081526020016000206001015414158015610ea6575060036000848381518110610e8957610e88611e32565b5b602002602001015181526020019081526020016000206002015442105b610ee5576040517f08c379a0000000000000000000000000000000000000000000000000000000008152600401610edc9061192b565b60405180910390fd5b818181518110610ef857610ef7611e32565b5b602002602001015160036000858481518110610f1757610f16611e32565b5b602002602001015181526020019081526020016000206004016000828254610f3f9190611b29565b925050819055508080610f5190611d2b565b915050610e2d565b505050565b610f66611291565b73ffffffffffffffffffffffffffffffffffffffff16610f846108d5565b73ffffffffffffffffffffffffffffffffffffffff1614610fda576040517f08c379a0000000000000000000000000000000000000000000000000000000008152600401610fd19061196b565b60405180910390fd5b565b60008060009054906101000a900473ffffffffffffffffffffffffffffffffffffffff169050816000806101000a81548173ffffffffffffffffffffffffffffffffffffffff021916908373ffffffffffffffffffffffffffffffffffffffff1602179055508173ffffffffffffffffffffffffffffffffffffffff168173ffffffffffffffffffffffffffffffffffffffff167f8be0079c531659141344cd1fd0a4f28419497f9722a3daafe3b4186f6b6457e060405160405180910390a35050565b7f000000000000000000000000000000000000000000000000000000000000000073ffffffffffffffffffffffffffffffffffffffff163073ffffffffffffffffffffffffffffffffffffffff161461112e576040517f08c379a0000000000000000000000000000000000000000000000000000000008152600401611125906119eb565b60405180910390fd5b565b60606000821415611178576040518060400160405280600181526020017f3000000000000000000000000000000000000000000000000000000000000000815250905061128c565b600082905060005b600082146111aa57808061119390611d2b565b915050600a826111a39190611b7f565b9150611180565b60008167ffffffffffffffff8111156111c6576111c5611e61565b5b6040519080825280601f01601f1916602001820160405280156111f85781602001600182028036833780820191505090505b5090505b60008514611285576001826112119190611c0a565b9150600a856112209190611d74565b603061122c9190611b29565b60f81b81838151811061124257611241611e32565b5b60200101907effffffffffffffffffffffffffffffffffffffffffffffffffffffffffffff1916908160001a905350600a8561127e9190611b7f565b94506111fc565b8093505050505b919050565b600033905090565b8280546112a590611cc8565b90600052602060002090601f0160209004810192826112c7576000855561130e565b82601f106112e057805160ff191683800117855561130e565b8280016001018555821561130e579182015b8281111561130d5782518255916020019190600101906112f2565b5b50905061131b919061131f565b5090565b5b80821115611338576000816000905550600101611320565b5090565b600061134f61134a84611aa5565b611a80565b9050808382526020820190508285602086028201111561137257611371611e95565b5b60005b858110156113a25781611388888261145f565b845260208401935060208301925050600181019050611375565b5050509392505050565b60006113bf6113ba84611ad1565b611a80565b9050828152602081018484840111156113db576113da611e9a565b5b6113e6848285611c86565b509392505050565b6000813590506113fd81612028565b92915050565b600082601f83011261141857611417611e90565b5b813561142884826020860161133c565b91505092915050565b600082601f83011261144657611445611e90565b5b81356114568482602086016113ac565b91505092915050565b60008135905061146e8161203f565b92915050565b60006020828403121561148a57611489611ea4565b5b6000611498848285016113ee565b91505092915050565b6000602082840312156114b7576114b6611ea4565b5b600082013567ffffffffffffffff8111156114d5576114d4611e9f565b5b6114e184828501611403565b91505092915050565b6000806040838503121561150157611500611ea4565b5b600083013567ffffffffffffffff81111561151f5761151e611e9f565b5b61152b85828601611403565b925050602083013567ffffffffffffffff81111561154c5761154b611e9f565b5b61155885828601611403565b9150509250929050565b60008060008060008060c0878903121561157f5761157e611ea4565b5b600087013567ffffffffffffffff81111561159d5761159c611e9f565b5b6115a989828a01611431565b96505060206115ba89828a0161145f565b95505060406115cb89828a0161145f565b94505060606115dc89828a016113ee565b935050608087013567ffffffffffffffff8111156115fd576115fc611e9f565b5b61160989828a01611431565b92505060a061161a89828a0161145f565b9150509295509295509295565b60006020828403121561163d5761163c611ea4565b5b600061164b8482850161145f565b91505092915050565b6000806040838503121561166b5761166a611ea4565b5b60006116798582860161145f565b925050602061168a858286016113ee565b9150509250929050565b61169d81611c3e565b82525050565b6116ac81611c50565b82525050565b60006116bd82611b02565b6116c78185611b0d565b93506116d7818560208601611c95565b6116e081611ea9565b840191505092915050565b60006116f682611b02565b6117008185611b1e565b9350611710818560208601611c95565b80840191505092915050565b6000611729601183611b0d565b915061173482611eba565b602082019050919050565b600061174c601883611b0d565b915061175782611ee3565b602082019050919050565b600061176f602683611b0d565b915061177a82611f0c565b604082019050919050565b6000611792602083611b0d565b915061179d82611f5b565b602082019050919050565b60006117b5601683611b0d565b91506117c082611f84565b602082019050919050565b60006117d8601683611b0d565b91506117e382611fad565b602082019050919050565b60006117fb601083611b0d565b915061180682611fd6565b602082019050919050565b600061181e601983611b0d565b915061182982611fff565b602082019050919050565b61183d81611c7c565b82525050565b600061184f82856116eb565b915061185b82846116eb565b91508190509392505050565b600060208201905061187c6000830184611694565b92915050565b600060208201905061189760008301846116a3565b92915050565b600060208201905081810360008301526118b781846116b2565b905092915050565b600060808201905081810360008301526118d981876116b2565b90506118e86020830186611834565b6118f56040830185611834565b6119026060830184611694565b95945050505050565b600060208201905081810360008301526119248161171c565b9050919050565b600060208201905081810360008301526119448161173f565b9050919050565b6000602082019050818103600083015261196481611762565b9050919050565b6000602082019050818103600083015261198481611785565b9050919050565b600060208201905081810360008301526119a4816117a8565b9050919050565b600060208201905081810360008301526119c4816117cb565b9050919050565b600060208201905081810360008301526119e4816117ee565b9050919050565b60006020820190508181036000830152611a0481611811565b9050919050565b6000602082019050611a206000830184611834565b92915050565b600060a082019050611a3b6000830188611834565b8181036020830152611a4d81876116b2565b9050611a5c6040830186611834565b611a696060830185611834565b611a766080830184611694565b9695505050505050565b6000611a8a611a9b565b9050611a968282611cfa565b919050565b6000604051905090565b600067ffffffffffffffff821115611ac057611abf611e61565b5b602082029050602081019050919050565b600067ffffffffffffffff821115611aec57611aeb611e61565b5b611af582611ea9565b9050602081019050919050565b600081519050919050565b600082825260208201905092915050565b600081905092915050565b6000611b3482611c7c565b9150611b3f83611c7c565b9250827fffffffffffffffffffffffffffffffffffffffffffffffffffffffffffffffff03821115611b7457611b73611da5565b5b828201905092915050565b6000611b8a82611c7c565b9150611b9583611c7c565b925082611ba557611ba4611dd4565b5b828204905092915050565b6000611bbb82611c7c565b9150611bc683611c7c565b9250817fffffffffffffffffffffffffffffffffffffffffffffffffffffffffffffffff0483118215151615611bff57611bfe611da5565b5b828202905092915050565b6000611c1582611c7c565b9150611c2083611c7c565b925082821015611c3357611c32611da5565b5b828203905092915050565b6000611c4982611c5c565b9050919050565b60008115159050919050565b600073ffffffffffffffffffffffffffffffffffffffff82169050919050565b6000819050919050565b82818337600083830152505050565b60005b83811015611cb3578082015181840152602081019050611c98565b83811115611cc2576000848401525b50505050565b60006002820490506001821680611ce057607f821691505b60208210811415611cf457611cf3611e03565b5b50919050565b611d0382611ea9565b810181811067ffffffffffffffff82111715611d2257611d21611e61565b5b80604052505050565b6000611d3682611c7c565b91507fffffffffffffffffffffffffffffffffffffffffffffffffffffffffffffffff821415611d6957611d68611da5565b5b600182019050919050565b6000611d7f82611c7c565b9150611d8a83611c7c565b925082611d9a57611d99611dd4565b5b828206905092915050565b7f4e487b7100000000000000000000000000000000000000000000000000000000600052601160045260246000fd5b7f4e487b7100000000000000000000000000000000000000000000000000000000600052601260045260246000fd5b7f4e487b7100000000000000000000000000000000000000000000000000000000600052602260045260246000fd5b7f4e487b7100000000000000000000000000000000000000000000000000000000600052603260045260246000fd5b7f4e487b7100000000000000000000000000000000000000000000000000000000600052604160045260246000fd5b600080fd5b600080fd5b600080fd5b600080fd5b600080fd5b6000601f19601f8301169050919050565b7f50424d206e6f74207265766f6b61626c65000000000000000000000000000000600082015250565b7f50424d3a20496e76616c696420546f6b656e2049642873290000000000000000600082015250565b7f4f776e61626c653a206e6577206f776e657220697320746865207a65726f206160008201527f6464726573730000000000000000000000000000000000000000000000000000602082015250565b7f4f776e61626c653a2063616c6c6572206973206e6f7420746865206f776e6572600082015250565b7f496e76616c696420746f6b656e206578706972792d3100000000000000000000600082015250565b7f496e76616c696420746f6b656e206578706972792d3200000000000000000000600082015250565b7f53706f7420616d6f756e74206973203000000000000000000000000000000000600082015250565b7f44656c65676174652063616c6c73207265737472696374656400000000000000600082015250565b61203181611c3e565b811461203c57600080fd5b50565b61204881611c7c565b811461205357600080fd5b5056fea264697066735822122058707fee7a0f38a6c3286c3dab6b31248872a1d8987ecbbce0b7d9521c86351364736f6c63430008070033",
  "immutableReferences": {},
  "source": "// SPDX-License-Identifier: MIT\npragma solidity ^0.8.7;\n\nimport \"@openzeppelin/contracts/token/ERC1155/ERC1155.sol\";\nimport \"@openzeppelin/contracts/access/Ownable.sol\";\nimport \"@openzeppelin/contracts/security/Pausable.sol\";\nimport \"@openzeppelin/contracts/utils/Address.sol\" ; \n\nimport \"./ERC20Helper.sol\";  \nimport \"./PBMTokenManager.sol\";\nimport \"./IPBM.sol\";  \nimport \"./IPBMAddressList.sol\";\n\ncontract PBM is ERC1155, Ownable, Pausable, IPBM {  \n    \n    // undelrying ERC-20 tokens\n    address public spotToken = address(0); \n    // address of the token manager\n    address public pbmTokenManager = address(0); \n    // address of the PBM-Addresslist\n    address public pbmAddressList = address(0); \n\n    // tracks contract initialisation\n    bool internal initialised = false;\n    // time of expiry ( epoch )\n    uint256 public contractExpiry ; \n\n    constructor(string memory _uriPostExpiry) ERC1155(\"\") {\n        pbmTokenManager = address(new PBMTokenManager(_uriPostExpiry)) ; \n    }\n\n    function initialise(address _spotToken, uint256 _expiry, address _pbmAddressList)\n    external \n    override\n    onlyOwner\n    {\n        require(!initialised, \"PBM: Already initialised\"); \n        require(Address.isContract(_spotToken), \"Invalid spot token\"); \n        require(Address.isContract(_pbmAddressList), \"Invalid spot token\"); \n        spotToken = _spotToken;\n        contractExpiry = _expiry; \n        pbmAddressList = _pbmAddressList; \n\n        initialised = true ; \n    }\n\n    /**\n     * @dev See {IPBM-createPBMTokenType}.\n     *\n     * Requirements:\n     *\n     * - caller must be owner \n     * - contract must not be expired\n     * - `tokenExpiry` must be less than contract expiry\n     * - `amount` should not be 0\n     */\n    function createPBMTokenType(string memory companyName, uint256 spotAmount, uint256 tokenExpiry,address creator, string memory tokenURI) \n    external \n    override\n    onlyOwner \n    {        \n        PBMTokenManager(pbmTokenManager).createTokenType(companyName, spotAmount, tokenExpiry, creator,  tokenURI, contractExpiry);\n    }\n\n    /**\n     * @dev See {IPBM-mint}.\n     *     \n     * IMPT: Before minting, the caller should approve the contract address to spend ERC-20 tokens on behalf of the caller.\n     *       This can be done by calling the `approve` or `increaseMinterAllowance` functions of the ERC-20 contract and specifying `_spender` to be the PBM contract address. \n             Ref : https://eips.ethereum.org/EIPS/eip-20\n     *\n     * Requirements:\n     *\n     * - contract must not be paused\n     * - tokens must not be expired\n     * - `tokenId` should be a valid id that has already been created\n     * - caller should have the necessary amount of the ERC-20 tokens required to mint\n     * - caller should have approved the PBM contract to spend the ERC-20 tokens\n     * - receiver should not be blacklisted\n     */\n    function mint(uint256 tokenId, uint256 amount, address receiver) \n    external  \n    override\n    whenNotPaused\n    {\n        require(!IPBMAddressList(pbmAddressList).isBlacklisted(receiver), \"PBM: 'to' address blacklisted\");\n        uint256 valueOfNewTokens = amount*(PBMTokenManager(pbmTokenManager).getTokenValue(tokenId)); \n\n        //Transfer the spot token from the user to the contract to wrap it\n        ERC20Helper.safeTransferFrom(spotToken, msg.sender, address(this), valueOfNewTokens);\n\n        // mint the token if the contract - wrapping the xsgd\n        PBMTokenManager(pbmTokenManager).increaseBalanceSupply(serialise(tokenId), serialise(amount)) ; \n        _mint(receiver, tokenId, amount, ''); \n    }\n\n    /**\n     * @dev See {IPBM-batchMint}.\n     *     \n     * IMPT: Before minting, the caller should approve the contract address to spend ERC-20 tokens on behalf of the caller.\n     *       This can be done by calling the `approve` or `increaseMinterAllowance` functions of the ERC-20 contract and specifying `_spender` to be the PBM contract address. \n             Ref : https://eips.ethereum.org/EIPS/eip-20\n     *\n     * Requirements:\n     *\n     * - contract must not be paused\n     * - tokens must not be expired\n     * - `tokenIds` should all be valid ids that have already been created\n     * - `tokenIds` and `amounts` list need to have the same number of values\n     * - caller should have the necessary amount of the ERC-20 tokens required to mint\n     * - caller should have approved the PBM contract to spend the ERC-20 tokens\n     * - receiver should not be blacklisted\n     */\n    function batchMint(uint256[] memory tokenIds, uint256[] memory amounts, address receiver) \n    external \n    override\n    whenNotPaused\n    {   \n        require(!IPBMAddressList(pbmAddressList).isBlacklisted(receiver), \"PBM: 'to' address blacklisted\");\n        require(tokenIds.length == amounts.length, \"Unequal ids and amounts supplied\"); \n\n        // calculate the value of the new tokens\n        uint256 valueOfNewTokens = 0 ; \n\n        for (uint256 i = 0; i < tokenIds.length; i++) {\n            valueOfNewTokens += (amounts[i]*(PBMTokenManager(pbmTokenManager).getTokenValue(tokenIds[i])));  \n        } \n\n        // Transfer spot tokenf from user to contract to wrap it\n        ERC20Helper.safeTransferFrom(spotToken, msg.sender, address(this), valueOfNewTokens);\n        PBMTokenManager(pbmTokenManager).increaseBalanceSupply(tokenIds, amounts);\n        _mintBatch(receiver, tokenIds, amounts, '');\n    }\n\n    /**\n     * @dev See {IPBM-safeTransferFrom}.\n     *     \n     *\n     * Requirements:\n     *\n     * - contract must not be paused\n     * - tokens must not be expired\n     * - `tokenId` should be a valid ids that has already been created\n     * - caller should have the PBMs that are being transferred (or)\n     *          caller should have the approval to spend the PBMs on behalf of the owner (`from` addresss)\n     */\n    function safeTransferFrom( address from, address to, uint256 id, uint256 amount, bytes memory data) \n    public   \n    override(ERC1155, IPBM)\n    whenNotPaused  \n    {\n        require(\n            from == _msgSender() || isApprovedForAll(from, _msgSender()),\n            \"ERC1155: caller is not token owner nor approved\"\n        );\n        require(!IPBMAddressList(pbmAddressList).isBlacklisted(to), \"PBM: 'to' address blacklisted\");\n\n        if (IPBMAddressList(pbmAddressList).isMerchant(to)){\n            uint256 valueOfTokens = amount*(PBMTokenManager(pbmTokenManager).getTokenValue(id)); \n\n            // burn and transfer underlying ERC-20\n            _burn(from, id, amount);\n            PBMTokenManager(pbmTokenManager).decreaseBalanceSupply(serialise(id), serialise(amount)) ; \n            ERC20Helper.safeTransfer(spotToken, to, valueOfTokens);\n            emit MerchantPayment(from, to, serialise(id), serialise(amount), spotToken, valueOfTokens);\n\n        } else {\n            _safeTransferFrom(from, to, id, amount, data);\n        }\n \n    }\n\n    /**\n     * @dev See {IPBM-safeBatchTransferFrom}.\n     *     \n     *\n     * Requirements:\n     *\n     * - contract must not be paused\n     * - tokens must not be expired\n     * - `tokenIds` should all be  valid ids that has already been created\n     * - `tokenIds` and `amounts` list need to have the same number of values\n     * - caller should have the PBMs that are being transferred (or)\n     *          caller should have the approval to spend the PBMs on behalf of the owner (`from` addresss)\n     */ \n    function safeBatchTransferFrom(address from,address to,uint256[] memory ids,uint256[] memory amounts, bytes memory data) \n    public  \n    override(ERC1155, IPBM)\n    whenNotPaused \n    {\n        require(\n            from == _msgSender() || isApprovedForAll(from, _msgSender()),\n            \"ERC1155: caller is not token owner nor approved\"\n        );\n        require(!IPBMAddressList(pbmAddressList).isBlacklisted(to), \"PBM: 'to' address blacklisted\");\n        require(ids.length == amounts.length, \"Unequal ids and amounts supplied\"); \n\n        if (IPBMAddressList(pbmAddressList).isMerchant(to)) {\n            uint256 valueOfTokens = 0 ; \n            for (uint256 i = 0; i < ids.length; i++) {\n                valueOfTokens += (amounts[i]*(PBMTokenManager(pbmTokenManager).getTokenValue(ids[i]))) ; \n            } \n\n            _burnBatch(from, ids, amounts);\n            PBMTokenManager(pbmTokenManager).decreaseBalanceSupply(ids, amounts);\n            ERC20Helper.safeTransfer(spotToken, to, valueOfTokens);\n\n            emit MerchantPayment(from, to, ids, amounts, spotToken, valueOfTokens);\n\n        } else {\n            _safeBatchTransferFrom(from, to, ids, amounts, data);\n        }\n    }\n    \n    /**\n     * @dev See {IPBM-revokePBM}.\n     *\n     * Requirements:\n     *\n     * - `tokenId` should be a valid ids that has already been created\n     * - caller must be the creator of the tokenType \n     * - token must be expired\n     */ \n    function revokePBM(uint256 tokenId) \n    external \n    override\n    whenNotPaused \n    {\n        uint256 valueOfTokens = PBMTokenManager(pbmTokenManager).getPBMRevokeValue(tokenId);\n\n        PBMTokenManager(pbmTokenManager).revokePBM(tokenId, msg.sender); \n\n        // transfering underlying ERC20 tokens\n        ERC20Helper.safeTransfer(spotToken, msg.sender, valueOfTokens);\n\n        emit PBMrevokeWithdraw(msg.sender, tokenId, spotToken, valueOfTokens);\n\n    }\n    /**\n     * @dev See {IPBM-getTokenDetails}.\n     *\n     */ \n    function getTokenDetails(uint256 tokenId) \n    external \n    view \n    override\n    returns (string memory, uint256, uint256, address) \n    {\n        return PBMTokenManager(pbmTokenManager).getTokenDetails(tokenId); \n    }\n\n    /**\n     * @dev See {IPBM-uri}.\n     *\n     */ \n    function uri(uint256 tokenId)\n    public  \n    view\n    override(ERC1155, IPBM)\n    returns (string memory)\n    {\n        return PBMTokenManager(pbmTokenManager).uri(tokenId);\n    }\n\n    /**\n     * @dev see {Pausable _pause}\n     *\n     * Requirements : \n     * - caller should be owner\n     */\n    function pause() \n    external \n    onlyOwner\n    {\n        _pause();\n    }\n\n    /**\n     * @dev see {Pausable _unpause}\n     *\n     * Requirements : \n     * - caller should be owner\n     */\n    function unpause()\n    external \n    onlyOwner\n    {\n        _unpause();\n    }\n\n    function serialise(uint256 num)\n    internal \n    pure\n    returns (uint256[] memory) {\n        uint256[] memory array  = new uint256[](1) ; \n        array[0] = num ; \n        return array ;\n    }\n}",
  "sourcePath": "/Users/mihir/Desktop/code/Orchid-PBM/contracts/PBM.sol",
  "compiler": {
    "name": "solc",
    "version": "0.8.7+commit.e28d00a7.Emscripten.clang"
  },
  "schemaVersion": "3.4.3",
  "updatedAt": "2022-10-25T15:57:36.721Z",
  "networkType": "ethereum",
  "devdoc": {
    "kind": "dev",
    "methods": {
      "balanceOf(address,uint256)": {
        "details": "See {IERC1155-balanceOf}. Requirements: - `account` cannot be the zero address."
      },
      "balanceOfBatch(address[],uint256[])": {
        "details": "See {IERC1155-balanceOfBatch}. Requirements: - `accounts` and `ids` must have the same length."
      },
      "batchMint(uint256[],uint256[],address)": {
        "details": "See {IPBM-batchMint}.      IMPT: Before minting, the caller should approve the contract address to spend ERC-20 tokens on behalf of the caller.       This can be done by calling the `approve` or `increaseMinterAllowance` functions of the ERC-20 contract and specifying `_spender` to be the PBM contract address.  Ref : https://eips.ethereum.org/EIPS/eip-20 Requirements: - contract must not be paused - tokens must not be expired - `tokenIds` should all be valid ids that have already been created - `tokenIds` and `amounts` list need to have the same number of values - caller should have the necessary amount of the ERC-20 tokens required to mint - caller should have approved the PBM contract to spend the ERC-20 tokens - receiver should not be blacklisted"
      },
      "createPBMTokenType(string,uint256,uint256,address,string)": {
        "details": "See {IPBM-createPBMTokenType}. Requirements: - caller must be owner  - contract must not be expired - `tokenExpiry` must be less than contract expiry - `amount` should not be 0"
      },
      "getTokenDetails(uint256)": {
        "details": "See {IPBM-getTokenDetails}."
      },
      "initialise(address,uint256,address)": {
        "params": {
          "_expiry": "contract wide expiry ( in epoch )",
          "_pbmAddressList": "address of the PBMAddressList smartcontract",
          "_spotToken": "address of the underlying ERC20 token"
        }
      },
      "isApprovedForAll(address,address)": {
        "details": "See {IERC1155-isApprovedForAll}."
      },
      "mint(uint256,uint256,address)": {
        "details": "See {IPBM-mint}.      IMPT: Before minting, the caller should approve the contract address to spend ERC-20 tokens on behalf of the caller.       This can be done by calling the `approve` or `increaseMinterAllowance` functions of the ERC-20 contract and specifying `_spender` to be the PBM contract address.  Ref : https://eips.ethereum.org/EIPS/eip-20 Requirements: - contract must not be paused - tokens must not be expired - `tokenId` should be a valid id that has already been created - caller should have the necessary amount of the ERC-20 tokens required to mint - caller should have approved the PBM contract to spend the ERC-20 tokens - receiver should not be blacklisted"
      },
      "owner()": {
        "details": "Returns the address of the current owner."
      },
      "pause()": {
        "details": "see {Pausable _pause} Requirements :  - caller should be owner"
      },
      "paused()": {
        "details": "Returns true if the contract is paused, and false otherwise."
      },
      "renounceOwnership()": {
        "details": "Leaves the contract without owner. It will not be possible to call `onlyOwner` functions anymore. Can only be called by the current owner. NOTE: Renouncing ownership will leave the contract without an owner, thereby removing any functionality that is only available to the owner."
      },
      "revokePBM(uint256)": {
        "details": "See {IPBM-revokePBM}. Requirements: - `tokenId` should be a valid ids that has already been created - caller must be the creator of the tokenType  - token must be expired"
      },
      "safeBatchTransferFrom(address,address,uint256[],uint256[],bytes)": {
        "details": "See {IPBM-safeBatchTransferFrom}.      Requirements: - contract must not be paused - tokens must not be expired - `tokenIds` should all be  valid ids that has already been created - `tokenIds` and `amounts` list need to have the same number of values - caller should have the PBMs that are being transferred (or)          caller should have the approval to spend the PBMs on behalf of the owner (`from` addresss)"
      },
      "safeTransferFrom(address,address,uint256,uint256,bytes)": {
        "details": "See {IPBM-safeTransferFrom}.      Requirements: - contract must not be paused - tokens must not be expired - `tokenId` should be a valid ids that has already been created - caller should have the PBMs that are being transferred (or)          caller should have the approval to spend the PBMs on behalf of the owner (`from` addresss)"
      },
      "setApprovalForAll(address,bool)": {
        "details": "See {IERC1155-setApprovalForAll}."
      },
      "supportsInterface(bytes4)": {
        "details": "See {IERC165-supportsInterface}."
      },
      "transferOwnership(address)": {
        "details": "Transfers ownership of the contract to a new account (`newOwner`). Can only be called by the current owner."
      },
      "unpause()": {
        "details": "see {Pausable _unpause} Requirements :  - caller should be owner"
      },
      "uri(uint256)": {
        "details": "See {IPBM-uri}."
      }
    },
    "version": 1
  },
  "userdoc": {
    "events": {
      "MerchantPayment(address,address,uint256[],uint256[],address,uint256)": {
        "notice": "Emitted when underlying ERC-20 tokens are transferred to a whitelisted merchant ( payment )"
      },
      "PBMrevokeWithdraw(address,uint256,address,uint256)": {
        "notice": "Emitted when a PBM type creator withdraws the underlying ERC-20 tokens from all the remaining expired PBMs"
      }
    },
    "kind": "user",
    "methods": {
      "initialise(address,uint256,address)": {
        "notice": "sets the address of the underlying ERC20 token, Contract Expiry, and the address of pbm address list"
      }
    },
    "version": 1
  }
}