{
  "contractName": "PBM",
  "abi": [
    {
      "inputs": [
        {
          "internalType": "string",
          "name": "_uriPostExpiry",
          "type": "string"
        }
      ],
      "stateMutability": "nonpayable",
      "type": "constructor"
    },
    {
      "anonymous": false,
      "inputs": [
        {
          "indexed": true,
          "internalType": "address",
          "name": "account",
          "type": "address"
        },
        {
          "indexed": true,
          "internalType": "address",
          "name": "operator",
          "type": "address"
        },
        {
          "indexed": false,
          "internalType": "bool",
          "name": "approved",
          "type": "bool"
        }
      ],
      "name": "ApprovalForAll",
      "type": "event"
    },
    {
      "anonymous": false,
      "inputs": [
        {
          "indexed": false,
          "internalType": "address",
          "name": "from",
          "type": "address"
        },
        {
          "indexed": false,
          "internalType": "address",
          "name": "to",
          "type": "address"
        },
        {
          "indexed": false,
          "internalType": "uint256[]",
          "name": "tokenIds",
          "type": "uint256[]"
        },
        {
          "indexed": false,
          "internalType": "uint256[]",
          "name": "amounts",
          "type": "uint256[]"
        },
        {
          "indexed": false,
          "internalType": "address",
          "name": "ERC20Token",
          "type": "address"
        },
        {
          "indexed": false,
          "internalType": "uint256",
          "name": "ERC20TokenValue",
          "type": "uint256"
        }
      ],
      "name": "MerchantPayment",
      "type": "event"
    },
    {
      "anonymous": false,
      "inputs": [
        {
          "indexed": true,
          "internalType": "address",
          "name": "previousOwner",
          "type": "address"
        },
        {
          "indexed": true,
          "internalType": "address",
          "name": "newOwner",
          "type": "address"
        }
      ],
      "name": "OwnershipTransferred",
      "type": "event"
    },
    {
      "anonymous": false,
      "inputs": [
        {
          "indexed": false,
          "internalType": "address",
          "name": "beneficiary",
          "type": "address"
        },
        {
          "indexed": false,
          "internalType": "uint256",
          "name": "PBMTokenId",
          "type": "uint256"
        },
        {
          "indexed": false,
          "internalType": "address",
          "name": "ERC20Token",
          "type": "address"
        },
        {
          "indexed": false,
          "internalType": "uint256",
          "name": "ERC20TokenValue",
          "type": "uint256"
        }
      ],
      "name": "PBMrevokeWithdraw",
      "type": "event"
    },
    {
      "anonymous": false,
      "inputs": [
        {
          "indexed": false,
          "internalType": "address",
          "name": "account",
          "type": "address"
        }
      ],
      "name": "Paused",
      "type": "event"
    },
    {
      "anonymous": false,
      "inputs": [
        {
          "indexed": true,
          "internalType": "address",
          "name": "operator",
          "type": "address"
        },
        {
          "indexed": true,
          "internalType": "address",
          "name": "from",
          "type": "address"
        },
        {
          "indexed": true,
          "internalType": "address",
          "name": "to",
          "type": "address"
        },
        {
          "indexed": false,
          "internalType": "uint256[]",
          "name": "ids",
          "type": "uint256[]"
        },
        {
          "indexed": false,
          "internalType": "uint256[]",
          "name": "values",
          "type": "uint256[]"
        }
      ],
      "name": "TransferBatch",
      "type": "event"
    },
    {
      "anonymous": false,
      "inputs": [
        {
          "indexed": true,
          "internalType": "address",
          "name": "operator",
          "type": "address"
        },
        {
          "indexed": true,
          "internalType": "address",
          "name": "from",
          "type": "address"
        },
        {
          "indexed": true,
          "internalType": "address",
          "name": "to",
          "type": "address"
        },
        {
          "indexed": false,
          "internalType": "uint256",
          "name": "id",
          "type": "uint256"
        },
        {
          "indexed": false,
          "internalType": "uint256",
          "name": "value",
          "type": "uint256"
        }
      ],
      "name": "TransferSingle",
      "type": "event"
    },
    {
      "anonymous": false,
      "inputs": [
        {
          "indexed": false,
          "internalType": "string",
          "name": "value",
          "type": "string"
        },
        {
          "indexed": true,
          "internalType": "uint256",
          "name": "id",
          "type": "uint256"
        }
      ],
      "name": "URI",
      "type": "event"
    },
    {
      "anonymous": false,
      "inputs": [
        {
          "indexed": false,
          "internalType": "address",
          "name": "account",
          "type": "address"
        }
      ],
      "name": "Unpaused",
      "type": "event"
    },
    {
      "inputs": [
        {
          "internalType": "address",
          "name": "account",
          "type": "address"
        },
        {
          "internalType": "uint256",
          "name": "id",
          "type": "uint256"
        }
      ],
      "name": "balanceOf",
      "outputs": [
        {
          "internalType": "uint256",
          "name": "",
          "type": "uint256"
        }
      ],
      "stateMutability": "view",
      "type": "function",
      "constant": true
    },
    {
      "inputs": [
        {
          "internalType": "address[]",
          "name": "accounts",
          "type": "address[]"
        },
        {
          "internalType": "uint256[]",
          "name": "ids",
          "type": "uint256[]"
        }
      ],
      "name": "balanceOfBatch",
      "outputs": [
        {
          "internalType": "uint256[]",
          "name": "",
          "type": "uint256[]"
        }
      ],
      "stateMutability": "view",
      "type": "function",
      "constant": true
    },
    {
      "inputs": [],
      "name": "contractExpiry",
      "outputs": [
        {
          "internalType": "uint256",
          "name": "",
          "type": "uint256"
        }
      ],
      "stateMutability": "view",
      "type": "function",
      "constant": true
    },
    {
      "inputs": [
        {
          "internalType": "address",
          "name": "account",
          "type": "address"
        },
        {
          "internalType": "address",
          "name": "operator",
          "type": "address"
        }
      ],
      "name": "isApprovedForAll",
      "outputs": [
        {
          "internalType": "bool",
          "name": "",
          "type": "bool"
        }
      ],
      "stateMutability": "view",
      "type": "function",
      "constant": true
    },
    {
      "inputs": [],
      "name": "owner",
      "outputs": [
        {
          "internalType": "address",
          "name": "",
          "type": "address"
        }
      ],
      "stateMutability": "view",
      "type": "function",
      "constant": true
    },
    {
      "inputs": [],
      "name": "paused",
      "outputs": [
        {
          "internalType": "bool",
          "name": "",
          "type": "bool"
        }
      ],
      "stateMutability": "view",
      "type": "function",
      "constant": true
    },
    {
      "inputs": [],
      "name": "pbmAddressList",
      "outputs": [
        {
          "internalType": "address",
          "name": "",
          "type": "address"
        }
      ],
      "stateMutability": "view",
      "type": "function",
      "constant": true
    },
    {
      "inputs": [],
      "name": "pbmTokenManager",
      "outputs": [
        {
          "internalType": "address",
          "name": "",
          "type": "address"
        }
      ],
      "stateMutability": "view",
      "type": "function",
      "constant": true
    },
    {
      "inputs": [],
      "name": "renounceOwnership",
      "outputs": [],
      "stateMutability": "nonpayable",
      "type": "function"
    },
    {
      "inputs": [
        {
          "internalType": "address",
          "name": "operator",
          "type": "address"
        },
        {
          "internalType": "bool",
          "name": "approved",
          "type": "bool"
        }
      ],
      "name": "setApprovalForAll",
      "outputs": [],
      "stateMutability": "nonpayable",
      "type": "function"
    },
    {
      "inputs": [],
      "name": "spotToken",
      "outputs": [
        {
          "internalType": "address",
          "name": "",
          "type": "address"
        }
      ],
      "stateMutability": "view",
      "type": "function",
      "constant": true
    },
    {
      "inputs": [
        {
          "internalType": "bytes4",
          "name": "interfaceId",
          "type": "bytes4"
        }
      ],
      "name": "supportsInterface",
      "outputs": [
        {
          "internalType": "bool",
          "name": "",
          "type": "bool"
        }
      ],
      "stateMutability": "view",
      "type": "function",
      "constant": true
    },
    {
      "inputs": [
        {
          "internalType": "address",
          "name": "newOwner",
          "type": "address"
        }
      ],
      "name": "transferOwnership",
      "outputs": [],
      "stateMutability": "nonpayable",
      "type": "function"
    },
    {
      "inputs": [
        {
          "internalType": "address",
          "name": "_spotToken",
          "type": "address"
        },
        {
          "internalType": "uint256",
          "name": "_expiry",
          "type": "uint256"
        },
        {
          "internalType": "address",
          "name": "_pbmAddressList",
          "type": "address"
        }
      ],
      "name": "initialise",
      "outputs": [],
      "stateMutability": "nonpayable",
      "type": "function"
    },
    {
      "inputs": [
        {
          "internalType": "string",
          "name": "companyName",
          "type": "string"
        },
        {
          "internalType": "uint256",
          "name": "spotAmount",
          "type": "uint256"
        },
        {
          "internalType": "uint256",
          "name": "tokenExpiry",
          "type": "uint256"
        },
        {
          "internalType": "address",
          "name": "creator",
          "type": "address"
        },
        {
          "internalType": "string",
          "name": "tokenURI",
          "type": "string"
        }
      ],
      "name": "createPBMTokenType",
      "outputs": [],
      "stateMutability": "nonpayable",
      "type": "function"
    },
    {
      "inputs": [
        {
          "internalType": "uint256",
          "name": "tokenId",
          "type": "uint256"
        },
        {
          "internalType": "uint256",
          "name": "amount",
          "type": "uint256"
        },
        {
          "internalType": "address",
          "name": "receiver",
          "type": "address"
        }
      ],
      "name": "mint",
      "outputs": [],
      "stateMutability": "nonpayable",
      "type": "function"
    },
    {
      "inputs": [
        {
          "internalType": "uint256[]",
          "name": "tokenIds",
          "type": "uint256[]"
        },
        {
          "internalType": "uint256[]",
          "name": "amounts",
          "type": "uint256[]"
        },
        {
          "internalType": "address",
          "name": "receiver",
          "type": "address"
        }
      ],
      "name": "batchMint",
      "outputs": [],
      "stateMutability": "nonpayable",
      "type": "function"
    },
    {
      "inputs": [
        {
          "internalType": "address",
          "name": "from",
          "type": "address"
        },
        {
          "internalType": "address",
          "name": "to",
          "type": "address"
        },
        {
          "internalType": "uint256",
          "name": "id",
          "type": "uint256"
        },
        {
          "internalType": "uint256",
          "name": "amount",
          "type": "uint256"
        },
        {
          "internalType": "bytes",
          "name": "data",
          "type": "bytes"
        }
      ],
      "name": "safeTransferFrom",
      "outputs": [],
      "stateMutability": "nonpayable",
      "type": "function"
    },
    {
      "inputs": [
        {
          "internalType": "address",
          "name": "from",
          "type": "address"
        },
        {
          "internalType": "address",
          "name": "to",
          "type": "address"
        },
        {
          "internalType": "uint256[]",
          "name": "ids",
          "type": "uint256[]"
        },
        {
          "internalType": "uint256[]",
          "name": "amounts",
          "type": "uint256[]"
        },
        {
          "internalType": "bytes",
          "name": "data",
          "type": "bytes"
        }
      ],
      "name": "safeBatchTransferFrom",
      "outputs": [],
      "stateMutability": "nonpayable",
      "type": "function"
    },
    {
      "inputs": [
        {
          "internalType": "uint256",
          "name": "tokenId",
          "type": "uint256"
        }
      ],
      "name": "revokePBM",
      "outputs": [],
      "stateMutability": "nonpayable",
      "type": "function"
    },
    {
      "inputs": [
        {
          "internalType": "uint256",
          "name": "tokenId",
          "type": "uint256"
        }
      ],
      "name": "getTokenDetails",
      "outputs": [
        {
          "internalType": "string",
          "name": "",
          "type": "string"
        },
        {
          "internalType": "uint256",
          "name": "",
          "type": "uint256"
        },
        {
          "internalType": "uint256",
          "name": "",
          "type": "uint256"
        },
        {
          "internalType": "address",
          "name": "",
          "type": "address"
        }
      ],
      "stateMutability": "view",
      "type": "function",
      "constant": true
    },
    {
      "inputs": [
        {
          "internalType": "uint256",
          "name": "tokenId",
          "type": "uint256"
        }
      ],
      "name": "uri",
      "outputs": [
        {
          "internalType": "string",
          "name": "",
          "type": "string"
        }
      ],
      "stateMutability": "view",
      "type": "function",
      "constant": true
    }
  ],
  "bytecode": "0x60806040526000600460006101000a81548173ffffffffffffffffffffffffffffffffffffffff021916908373ffffffffffffffffffffffffffffffffffffffff1602179055506000600560006101000a81548173ffffffffffffffffffffffffffffffffffffffff021916908373ffffffffffffffffffffffffffffffffffffffff1602179055506000600660006101000a81548173ffffffffffffffffffffffffffffffffffffffff021916908373ffffffffffffffffffffffffffffffffffffffff1602179055506000600660146101000a81548160ff021916908315150217905550348015620000f257600080fd5b5060405162007f9638038062007f9683398181016040528101906200011891906200041b565b604051806020016040528060008152506200013981620001f560201b60201c565b506200015a6200014e6200021160201b60201c565b6200021960201b60201c565b6000600360146101000a81548160ff021916908315150217905550806040516200018490620002df565b620001909190620004ad565b604051809103906000f080158015620001ad573d6000803e3d6000fd5b50600560006101000a81548173ffffffffffffffffffffffffffffffffffffffff021916908373ffffffffffffffffffffffffffffffffffffffff1602179055505062000671565b80600290805190602001906200020d929190620002ed565b5050565b600033905090565b6000600360009054906101000a900473ffffffffffffffffffffffffffffffffffffffff16905081600360006101000a81548173ffffffffffffffffffffffffffffffffffffffff021916908373ffffffffffffffffffffffffffffffffffffffff1602179055508173ffffffffffffffffffffffffffffffffffffffff168173ffffffffffffffffffffffffffffffffffffffff167f8be0079c531659141344cd1fd0a4f28419497f9722a3daafe3b4186f6b6457e060405160405180910390a35050565b61248b8062005b0b83390190565b828054620002fb9062000582565b90600052602060002090601f0160209004810192826200031f57600085556200036b565b82601f106200033a57805160ff19168380011785556200036b565b828001600101855582156200036b579182015b828111156200036a5782518255916020019190600101906200034d565b5b5090506200037a91906200037e565b5090565b5b80821115620003995760008160009055506001016200037f565b5090565b6000620003b4620003ae84620004fa565b620004d1565b905082815260208101848484011115620003d357620003d262000651565b5b620003e08482856200054c565b509392505050565b600082601f8301126200040057620003ff6200064c565b5b8151620004128482602086016200039d565b91505092915050565b6000602082840312156200043457620004336200065b565b5b600082015167ffffffffffffffff81111562000455576200045462000656565b5b6200046384828501620003e8565b91505092915050565b6000620004798262000530565b6200048581856200053b565b9350620004978185602086016200054c565b620004a28162000660565b840191505092915050565b60006020820190508181036000830152620004c981846200046c565b905092915050565b6000620004dd620004f0565b9050620004eb8282620005b8565b919050565b6000604051905090565b600067ffffffffffffffff8211156200051857620005176200061d565b5b620005238262000660565b9050602081019050919050565b600081519050919050565b600082825260208201905092915050565b60005b838110156200056c5780820151818401526020810190506200054f565b838111156200057c576000848401525b50505050565b600060028204905060018216806200059b57607f821691505b60208210811415620005b257620005b1620005ee565b5b50919050565b620005c38262000660565b810181811067ffffffffffffffff82111715620005e557620005e46200061d565b5b80604052505050565b7f4e487b7100000000000000000000000000000000000000000000000000000000600052602260045260246000fd5b7f4e487b7100000000000000000000000000000000000000000000000000000000600052604160045260246000fd5b600080fd5b600080fd5b600080fd5b600080fd5b6000601f19601f8301169050919050565b61548a80620006816000396000f3fe608060405234801561001057600080fd5b50600436106101415760003560e01c8063715018a6116100b8578063c1e037281161007c578063c1e0372814610350578063e7d3fe6b14610383578063e985e9c51461039f578063f242432a146103cf578063f2fde38b146103eb578063fb34b2011461040757610141565b8063715018a6146102d257806373e17e76146102dc57806389aba642146102f85780638da5cb5b14610316578063a22cb4651461033457610141565b80632eb2c2d61161010a5780632eb2c2d6146102105780634e1273f41461022c57806351e86cf61461025c5780635c975abb1461027a5780635ed7be9d1461029857806363be47d2146102b457610141565b8062fdd58e1461014657806301ffc9a71461017657806307e82e0f146101a65780630ad89462146101c25780630e89341c146101e0575b600080fd5b610160600480360381019061015b9190613ac7565b610423565b60405161016d919061493d565b60405180910390f35b610190600480360381019061018b9190613c8a565b6104ec565b60405161019d91906145a5565b60405180910390f35b6101c060048036038101906101bb9190613b07565b6105ce565b005b6101ca6106b4565b6040516101d7919061435b565b60405180910390f35b6101fa60048036038101906101f59190613e63565b6106da565b60405161020791906145c0565b60405180910390f35b61022a60048036038101906102259190613921565b610793565b005b61024660048036038101906102419190613b5a565b610c68565b604051610253919061454c565b60405180910390f35b610264610d81565b604051610271919061435b565b60405180910390f35b610282610da7565b60405161028f91906145a5565b60405180910390f35b6102b260048036038101906102ad9190613db0565b610dbe565b005b6102bc610e66565b6040516102c9919061435b565b60405180910390f35b6102da610e8c565b005b6102f660048036038101906102f19190613e63565b610ea0565b005b610300611076565b60405161030d919061493d565b60405180910390f35b61031e61107c565b60405161032b919061435b565b60405180910390f35b61034e60048036038101906103499190613a87565b6110a6565b005b61036a60048036038101906103659190613e63565b6110bc565b60405161037a94939291906145e2565b60405180910390f35b61039d60048036038101906103989190613ebd565b611182565b005b6103b960048036038101906103b491906138e1565b611332565b6040516103c691906145a5565b60405180910390f35b6103e960048036038101906103e491906139f0565b6113c6565b005b610405600480360381019061040091906138b4565b611819565b005b610421600480360381019061041c9190613bd2565b61189d565b005b60008073ffffffffffffffffffffffffffffffffffffffff168373ffffffffffffffffffffffffffffffffffffffff161415610494576040517f08c379a000000000000000000000000000000000000000000000000000000000815260040161048b9061477d565b60405180910390fd5b60008083815260200190815260200160002060008473ffffffffffffffffffffffffffffffffffffffff1673ffffffffffffffffffffffffffffffffffffffff16815260200190815260200160002054905092915050565b60007fd9b67a26000000000000000000000000000000000000000000000000000000007bffffffffffffffffffffffffffffffffffffffffffffffffffffffff1916827bffffffffffffffffffffffffffffffffffffffffffffffffffffffff191614806105b757507f0e89341c000000000000000000000000000000000000000000000000000000007bffffffffffffffffffffffffffffffffffffffffffffffffffffffff1916827bffffffffffffffffffffffffffffffffffffffffffffffffffffffff1916145b806105c757506105c682611adf565b5b9050919050565b6105d6611b49565b600660149054906101000a900460ff1615610626576040517f08c379a000000000000000000000000000000000000000000000000000000000815260040161061d9061475d565b60405180910390fd5b82600460006101000a81548173ffffffffffffffffffffffffffffffffffffffff021916908373ffffffffffffffffffffffffffffffffffffffff1602179055508160078190555080600660006101000a81548173ffffffffffffffffffffffffffffffffffffffff021916908373ffffffffffffffffffffffffffffffffffffffff160217905550505050565b600460009054906101000a900473ffffffffffffffffffffffffffffffffffffffff1681565b6060600560009054906101000a900473ffffffffffffffffffffffffffffffffffffffff1673ffffffffffffffffffffffffffffffffffffffff16630e89341c836040518263ffffffff1660e01b8152600401610737919061493d565b60006040518083038186803b15801561074f57600080fd5b505afa158015610763573d6000803e3d6000fd5b505050506040513d6000823e3d601f19601f8201168201806040525081019061078c9190613ce4565b9050919050565b61079b611bc7565b6107a3611c11565b73ffffffffffffffffffffffffffffffffffffffff168573ffffffffffffffffffffffffffffffffffffffff1614806107e957506107e8856107e3611c11565b611332565b5b610828576040517f08c379a000000000000000000000000000000000000000000000000000000000815260040161081f906146bd565b60405180910390fd5b815183511461086c576040517f08c379a00000000000000000000000000000000000000000000000000000000081526004016108639061485d565b60405180910390fd5b600660009054906101000a900473ffffffffffffffffffffffffffffffffffffffff1673ffffffffffffffffffffffffffffffffffffffff16631a2f7167856040518263ffffffff1660e01b81526004016108c7919061435b565b602060405180830381600087803b1580156108e157600080fd5b505af11580156108f5573d6000803e3d6000fd5b505050506040513d601f19601f820116820180604052508101906109199190613c5d565b15610b66576000805b8451811015610a3557600560009054906101000a900473ffffffffffffffffffffffffffffffffffffffff1673ffffffffffffffffffffffffffffffffffffffff1663d10424c786838151811061097c5761097b614d14565b5b60200260200101516040518263ffffffff1660e01b81526004016109a0919061493d565b60206040518083038186803b1580156109b857600080fd5b505afa1580156109cc573d6000803e3d6000fd5b505050506040513d601f19601f820116820180604052508101906109f09190613e90565b848281518110610a0357610a02614d14565b5b6020026020010151610a159190614b5b565b82610a209190614b05565b91508080610a2d90614c9c565b915050610922565b50610a41868585611c19565b600560009054906101000a900473ffffffffffffffffffffffffffffffffffffffff1673ffffffffffffffffffffffffffffffffffffffff1663e21c8b5985856040518363ffffffff1660e01b8152600401610a9e92919061456e565b600060405180830381600087803b158015610ab857600080fd5b505af1158015610acc573d6000803e3d6000fd5b50505050610afd600460009054906101000a900473ffffffffffffffffffffffffffffffffffffffff168683611ee8565b7f68c9cd42836993caa70415e61f3c3baceb0bb31dcb22af6e5e0db98fa8870fac86868686600460009054906101000a900473ffffffffffffffffffffffffffffffffffffffff1686604051610b5896959493929190614376565b60405180910390a150610c61565b600660009054906101000a900473ffffffffffffffffffffffffffffffffffffffff1673ffffffffffffffffffffffffffffffffffffffff1663fe575a87856040518263ffffffff1660e01b8152600401610bc1919061435b565b602060405180830381600087803b158015610bdb57600080fd5b505af1158015610bef573d6000803e3d6000fd5b505050506040513d601f19601f82011682018060405250810190610c139190613c5d565b15610c53576040517f08c379a0000000000000000000000000000000000000000000000000000000008152600401610c4a9061491d565b60405180910390fd5b610c6085858585856120ad565b5b5050505050565b60608151835114610cae576040517f08c379a0000000000000000000000000000000000000000000000000000000008152600401610ca59061489d565b60405180910390fd5b6000835167ffffffffffffffff811115610ccb57610cca614d43565b5b604051908082528060200260200182016040528015610cf95781602001602082028036833780820191505090505b50905060005b8451811015610d7657610d46858281518110610d1e57610d1d614d14565b5b6020026020010151858381518110610d3957610d38614d14565b5b6020026020010151610423565b828281518110610d5957610d58614d14565b5b60200260200101818152505080610d6f90614c9c565b9050610cff565b508091505092915050565b600660009054906101000a900473ffffffffffffffffffffffffffffffffffffffff1681565b6000600360149054906101000a900460ff16905090565b610dc6611b49565b600560009054906101000a900473ffffffffffffffffffffffffffffffffffffffff1673ffffffffffffffffffffffffffffffffffffffff166380d69c8a86868686866007546040518763ffffffff1660e01b8152600401610e2d9695949392919061462e565b600060405180830381600087803b158015610e4757600080fd5b505af1158015610e5b573d6000803e3d6000fd5b505050505050505050565b600560009054906101000a900473ffffffffffffffffffffffffffffffffffffffff1681565b610e94611b49565b610e9e60006123cf565b565b610ea8611bc7565b6000600560009054906101000a900473ffffffffffffffffffffffffffffffffffffffff1673ffffffffffffffffffffffffffffffffffffffff1663d20874d8836040518263ffffffff1660e01b8152600401610f05919061493d565b60206040518083038186803b158015610f1d57600080fd5b505afa158015610f31573d6000803e3d6000fd5b505050506040513d601f19601f82011682018060405250810190610f559190613e90565b9050600560009054906101000a900473ffffffffffffffffffffffffffffffffffffffff1673ffffffffffffffffffffffffffffffffffffffff166336a3409c83336040518363ffffffff1660e01b8152600401610fb4929190614958565b600060405180830381600087803b158015610fce57600080fd5b505af1158015610fe2573d6000803e3d6000fd5b50505050611013600460009054906101000a900473ffffffffffffffffffffffffffffffffffffffff163383611ee8565b7fa1c359e2aefcb2a02fa122099023552498d16ee2c91b81d3cfd8cd086f037d443383600460009054906101000a900473ffffffffffffffffffffffffffffffffffffffff168460405161106a9493929190614507565b60405180910390a15050565b60075481565b6000600360009054906101000a900473ffffffffffffffffffffffffffffffffffffffff16905090565b6110b86110b1611c11565b8383612495565b5050565b60606000806000600560009054906101000a900473ffffffffffffffffffffffffffffffffffffffff1673ffffffffffffffffffffffffffffffffffffffff1663c1e03728866040518263ffffffff1660e01b815260040161111e919061493d565b60006040518083038186803b15801561113657600080fd5b505afa15801561114a573d6000803e3d6000fd5b505050506040513d6000823e3d601f19601f820116820180604052508101906111739190613d2d565b93509350935093509193509193565b61118a611bc7565b6000600560009054906101000a900473ffffffffffffffffffffffffffffffffffffffff1673ffffffffffffffffffffffffffffffffffffffff1663d10424c7856040518263ffffffff1660e01b81526004016111e7919061493d565b60206040518083038186803b1580156111ff57600080fd5b505afa158015611213573d6000803e3d6000fd5b505050506040513d601f19601f820116820180604052508101906112379190613e90565b836112429190614b5b565b9050611272600460009054906101000a900473ffffffffffffffffffffffffffffffffffffffff16333084612602565b600560009054906101000a900473ffffffffffffffffffffffffffffffffffffffff1673ffffffffffffffffffffffffffffffffffffffff1663f600d9f46112b9866127ca565b6112c2866127ca565b6040518363ffffffff1660e01b81526004016112df92919061456e565b600060405180830381600087803b1580156112f957600080fd5b505af115801561130d573d6000803e3d6000fd5b5050505061132c82858560405180602001604052806000815250612844565b50505050565b6000600160008473ffffffffffffffffffffffffffffffffffffffff1673ffffffffffffffffffffffffffffffffffffffff16815260200190815260200160002060008373ffffffffffffffffffffffffffffffffffffffff1673ffffffffffffffffffffffffffffffffffffffff16815260200190815260200160002060009054906101000a900460ff16905092915050565b6113ce611bc7565b6113d6611c11565b73ffffffffffffffffffffffffffffffffffffffff168573ffffffffffffffffffffffffffffffffffffffff16148061141c575061141b85611416611c11565b611332565b5b61145b576040517f08c379a0000000000000000000000000000000000000000000000000000000008152600401611452906146bd565b60405180910390fd5b600660009054906101000a900473ffffffffffffffffffffffffffffffffffffffff1673ffffffffffffffffffffffffffffffffffffffff16631a2f7167856040518263ffffffff1660e01b81526004016114b6919061435b565b602060405180830381600087803b1580156114d057600080fd5b505af11580156114e4573d6000803e3d6000fd5b505050506040513d601f19601f820116820180604052508101906115089190613c5d565b15611717576000600560009054906101000a900473ffffffffffffffffffffffffffffffffffffffff1673ffffffffffffffffffffffffffffffffffffffff1663d10424c7856040518263ffffffff1660e01b815260040161156a919061493d565b60206040518083038186803b15801561158257600080fd5b505afa158015611596573d6000803e3d6000fd5b505050506040513d601f19601f820116820180604052508101906115ba9190613e90565b836115c59190614b5b565b90506115d28685856129f5565b600560009054906101000a900473ffffffffffffffffffffffffffffffffffffffff1673ffffffffffffffffffffffffffffffffffffffff1663e21c8b59611619866127ca565b611622866127ca565b6040518363ffffffff1660e01b815260040161163f92919061456e565b600060405180830381600087803b15801561165957600080fd5b505af115801561166d573d6000803e3d6000fd5b5050505061169e600460009054906101000a900473ffffffffffffffffffffffffffffffffffffffff168683611ee8565b7f68c9cd42836993caa70415e61f3c3baceb0bb31dcb22af6e5e0db98fa8870fac86866116ca876127ca565b6116d3876127ca565b600460009054906101000a900473ffffffffffffffffffffffffffffffffffffffff168660405161170996959493929190614376565b60405180910390a150611812565b600660009054906101000a900473ffffffffffffffffffffffffffffffffffffffff1673ffffffffffffffffffffffffffffffffffffffff1663fe575a87856040518263ffffffff1660e01b8152600401611772919061435b565b602060405180830381600087803b15801561178c57600080fd5b505af11580156117a0573d6000803e3d6000fd5b505050506040513d601f19601f820116820180604052508101906117c49190613c5d565b15611804576040517f08c379a00000000000000000000000000000000000000000000000000000000081526004016117fb9061491d565b60405180910390fd5b6118118585858585612c3c565b5b5050505050565b611821611b49565b600073ffffffffffffffffffffffffffffffffffffffff168173ffffffffffffffffffffffffffffffffffffffff161415611891576040517f08c379a00000000000000000000000000000000000000000000000000000000081526004016118889061471d565b60405180910390fd5b61189a816123cf565b50565b6118a5611bc7565b81518351146118e9576040517f08c379a00000000000000000000000000000000000000000000000000000000081526004016118e09061485d565b60405180910390fd5b6000805b8451811015611a0057600560009054906101000a900473ffffffffffffffffffffffffffffffffffffffff1673ffffffffffffffffffffffffffffffffffffffff1663d10424c786838151811061194757611946614d14565b5b60200260200101516040518263ffffffff1660e01b815260040161196b919061493d565b60206040518083038186803b15801561198357600080fd5b505afa158015611997573d6000803e3d6000fd5b505050506040513d601f19601f820116820180604052508101906119bb9190613e90565b8482815181106119ce576119cd614d14565b5b60200260200101516119e09190614b5b565b826119eb9190614b05565b915080806119f890614c9c565b9150506118ed565b50611a2f600460009054906101000a900473ffffffffffffffffffffffffffffffffffffffff16333084612602565b600560009054906101000a900473ffffffffffffffffffffffffffffffffffffffff1673ffffffffffffffffffffffffffffffffffffffff1663f600d9f485856040518363ffffffff1660e01b8152600401611a8c92919061456e565b600060405180830381600087803b158015611aa657600080fd5b505af1158015611aba573d6000803e3d6000fd5b50505050611ad982858560405180602001604052806000815250612ed8565b50505050565b60007f01ffc9a7000000000000000000000000000000000000000000000000000000007bffffffffffffffffffffffffffffffffffffffffffffffffffffffff1916827bffffffffffffffffffffffffffffffffffffffffffffffffffffffff1916149050919050565b611b51611c11565b73ffffffffffffffffffffffffffffffffffffffff16611b6f61107c565b73ffffffffffffffffffffffffffffffffffffffff1614611bc5576040517f08c379a0000000000000000000000000000000000000000000000000000000008152600401611bbc9061483d565b60405180910390fd5b565b611bcf610da7565b15611c0f576040517f08c379a0000000000000000000000000000000000000000000000000000000008152600401611c06906147bd565b60405180910390fd5b565b600033905090565b600073ffffffffffffffffffffffffffffffffffffffff168373ffffffffffffffffffffffffffffffffffffffff161415611c89576040517f08c379a0000000000000000000000000000000000000000000000000000000008152600401611c80906147fd565b60405180910390fd5b8051825114611ccd576040517f08c379a0000000000000000000000000000000000000000000000000000000008152600401611cc4906148bd565b60405180910390fd5b6000611cd7611c11565b9050611cf781856000868660405180602001604052806000815250613105565b60005b8351811015611e44576000848281518110611d1857611d17614d14565b5b602002602001015190506000848381518110611d3757611d36614d14565b5b60200260200101519050600080600084815260200190815260200160002060008973ffffffffffffffffffffffffffffffffffffffff1673ffffffffffffffffffffffffffffffffffffffff16815260200190815260200160002054905081811015611dd8576040517f08c379a0000000000000000000000000000000000000000000000000000000008152600401611dcf9061473d565b60405180910390fd5b81810360008085815260200190815260200160002060008a73ffffffffffffffffffffffffffffffffffffffff1673ffffffffffffffffffffffffffffffffffffffff168152602001908152602001600020819055505050508080611e3c90614c9c565b915050611cfa565b50600073ffffffffffffffffffffffffffffffffffffffff168473ffffffffffffffffffffffffffffffffffffffff168273ffffffffffffffffffffffffffffffffffffffff167f4a39dc06d4c0dbc64b70af90fd698a233a518aa5d07e595d983b8c0526c8f7fb8686604051611ebc92919061456e565b60405180910390a4611ee28185600086866040518060200160405280600081525061310d565b50505050565b600073ffffffffffffffffffffffffffffffffffffffff168373ffffffffffffffffffffffffffffffffffffffff161415611f58576040517f08c379a0000000000000000000000000000000000000000000000000000000008152600401611f4f906146fd565b60405180910390fd5b6000808473ffffffffffffffffffffffffffffffffffffffff1663a9059cbb60e01b8585604051602401611f8d9291906144de565b604051602081830303815290604052907bffffffffffffffffffffffffffffffffffffffffffffffffffffffff19166020820180517bffffffffffffffffffffffffffffffffffffffffffffffffffffffff8381831617835250505050604051611ff79190614344565b6000604051808303816000865af19150503d8060008114612034576040519150601f19603f3d011682016040523d82523d6000602084013e612039565b606091505b509150915081801561206757506000815114806120665750808060200190518101906120659190613c5d565b5b5b6120a6576040517f08c379a000000000000000000000000000000000000000000000000000000000815260040161209d906148fd565b60405180910390fd5b5050505050565b81518351146120f1576040517f08c379a00000000000000000000000000000000000000000000000000000000081526004016120e8906148bd565b60405180910390fd5b600073ffffffffffffffffffffffffffffffffffffffff168473ffffffffffffffffffffffffffffffffffffffff161415612161576040517f08c379a0000000000000000000000000000000000000000000000000000000008152600401612158906147dd565b60405180910390fd5b600061216b611c11565b905061217b818787878787613105565b60005b845181101561232c57600085828151811061219c5761219b614d14565b5b6020026020010151905060008583815181106121bb576121ba614d14565b5b60200260200101519050600080600084815260200190815260200160002060008b73ffffffffffffffffffffffffffffffffffffffff1673ffffffffffffffffffffffffffffffffffffffff1681526020019081526020016000205490508181101561225c576040517f08c379a00000000000000000000000000000000000000000000000000000000081526004016122539061481d565b60405180910390fd5b81810360008085815260200190815260200160002060008c73ffffffffffffffffffffffffffffffffffffffff1673ffffffffffffffffffffffffffffffffffffffff168152602001908152602001600020819055508160008085815260200190815260200160002060008b73ffffffffffffffffffffffffffffffffffffffff1673ffffffffffffffffffffffffffffffffffffffff16815260200190815260200160002060008282546123119190614b05565b925050819055505050508061232590614c9c565b905061217e565b508473ffffffffffffffffffffffffffffffffffffffff168673ffffffffffffffffffffffffffffffffffffffff168273ffffffffffffffffffffffffffffffffffffffff167f4a39dc06d4c0dbc64b70af90fd698a233a518aa5d07e595d983b8c0526c8f7fb87876040516123a392919061456e565b60405180910390a46123b981878787878761310d565b6123c7818787878787613115565b505050505050565b6000600360009054906101000a900473ffffffffffffffffffffffffffffffffffffffff16905081600360006101000a81548173ffffffffffffffffffffffffffffffffffffffff021916908373ffffffffffffffffffffffffffffffffffffffff1602179055508173ffffffffffffffffffffffffffffffffffffffff168173ffffffffffffffffffffffffffffffffffffffff167f8be0079c531659141344cd1fd0a4f28419497f9722a3daafe3b4186f6b6457e060405160405180910390a35050565b8173ffffffffffffffffffffffffffffffffffffffff168373ffffffffffffffffffffffffffffffffffffffff161415612504576040517f08c379a00000000000000000000000000000000000000000000000000000000081526004016124fb9061487d565b60405180910390fd5b80600160008573ffffffffffffffffffffffffffffffffffffffff1673ffffffffffffffffffffffffffffffffffffffff16815260200190815260200160002060008473ffffffffffffffffffffffffffffffffffffffff1673ffffffffffffffffffffffffffffffffffffffff16815260200190815260200160002060006101000a81548160ff0219169083151502179055508173ffffffffffffffffffffffffffffffffffffffff168373ffffffffffffffffffffffffffffffffffffffff167f17307eab39ab6107e8899845ad3d59bd9653f200f220920489ca2b5937696c31836040516125f591906145a5565b60405180910390a3505050565b600073ffffffffffffffffffffffffffffffffffffffff168473ffffffffffffffffffffffffffffffffffffffff161415612672576040517f08c379a0000000000000000000000000000000000000000000000000000000008152600401612669906146fd565b60405180910390fd5b6000808573ffffffffffffffffffffffffffffffffffffffff166323b872dd60e01b8686866040516024016126a99392919061444d565b604051602081830303815290604052907bffffffffffffffffffffffffffffffffffffffffffffffffffffffff19166020820180517bffffffffffffffffffffffffffffffffffffffffffffffffffffffff83818316178352505050506040516127139190614344565b6000604051808303816000865af19150503d8060008114612750576040519150601f19603f3d011682016040523d82523d6000602084013e612755565b606091505b509150915081801561278357506000815114806127825750808060200190518101906127819190613c5d565b5b5b6127c2576040517f08c379a00000000000000000000000000000000000000000000000000000000081526004016127b99061479d565b60405180910390fd5b505050505050565b60606000600167ffffffffffffffff8111156127e9576127e8614d43565b5b6040519080825280602002602001820160405280156128175781602001602082028036833780820191505090505b509050828160008151811061282f5761282e614d14565b5b60200260200101818152505080915050919050565b600073ffffffffffffffffffffffffffffffffffffffff168473ffffffffffffffffffffffffffffffffffffffff1614156128b4576040517f08c379a00000000000000000000000000000000000000000000000000000000081526004016128ab906148dd565b60405180910390fd5b60006128be611c11565b905060006128cb856132fc565b905060006128d8856132fc565b90506128e983600089858589613105565b8460008088815260200190815260200160002060008973ffffffffffffffffffffffffffffffffffffffff1673ffffffffffffffffffffffffffffffffffffffff16815260200190815260200160002060008282546129489190614b05565b925050819055508673ffffffffffffffffffffffffffffffffffffffff16600073ffffffffffffffffffffffffffffffffffffffff168473ffffffffffffffffffffffffffffffffffffffff167fc3d58168c5ae7397731d063d5bbf3d657854427343f4c083240f7aacaa2d0f6289896040516129c6929190614981565b60405180910390a46129dd8360008985858961310d565b6129ec83600089898989613376565b50505050505050565b600073ffffffffffffffffffffffffffffffffffffffff168373ffffffffffffffffffffffffffffffffffffffff161415612a65576040517f08c379a0000000000000000000000000000000000000000000000000000000008152600401612a5c906147fd565b60405180910390fd5b6000612a6f611c11565b90506000612a7c846132fc565b90506000612a89846132fc565b9050612aa983876000858560405180602001604052806000815250613105565b600080600087815260200190815260200160002060008873ffffffffffffffffffffffffffffffffffffffff1673ffffffffffffffffffffffffffffffffffffffff16815260200190815260200160002054905084811015612b40576040517f08c379a0000000000000000000000000000000000000000000000000000000008152600401612b379061473d565b60405180910390fd5b84810360008088815260200190815260200160002060008973ffffffffffffffffffffffffffffffffffffffff1673ffffffffffffffffffffffffffffffffffffffff16815260200190815260200160002081905550600073ffffffffffffffffffffffffffffffffffffffff168773ffffffffffffffffffffffffffffffffffffffff168573ffffffffffffffffffffffffffffffffffffffff167fc3d58168c5ae7397731d063d5bbf3d657854427343f4c083240f7aacaa2d0f628989604051612c0d929190614981565b60405180910390a4612c338488600086866040518060200160405280600081525061310d565b50505050505050565b600073ffffffffffffffffffffffffffffffffffffffff168473ffffffffffffffffffffffffffffffffffffffff161415612cac576040517f08c379a0000000000000000000000000000000000000000000000000000000008152600401612ca3906147dd565b60405180910390fd5b6000612cb6611c11565b90506000612cc3856132fc565b90506000612cd0856132fc565b9050612ce0838989858589613105565b600080600088815260200190815260200160002060008a73ffffffffffffffffffffffffffffffffffffffff1673ffffffffffffffffffffffffffffffffffffffff16815260200190815260200160002054905085811015612d77576040517f08c379a0000000000000000000000000000000000000000000000000000000008152600401612d6e9061481d565b60405180910390fd5b85810360008089815260200190815260200160002060008b73ffffffffffffffffffffffffffffffffffffffff1673ffffffffffffffffffffffffffffffffffffffff168152602001908152602001600020819055508560008089815260200190815260200160002060008a73ffffffffffffffffffffffffffffffffffffffff1673ffffffffffffffffffffffffffffffffffffffff1681526020019081526020016000206000828254612e2c9190614b05565b925050819055508773ffffffffffffffffffffffffffffffffffffffff168973ffffffffffffffffffffffffffffffffffffffff168573ffffffffffffffffffffffffffffffffffffffff167fc3d58168c5ae7397731d063d5bbf3d657854427343f4c083240f7aacaa2d0f628a8a604051612ea9929190614981565b60405180910390a4612ebf848a8a86868a61310d565b612ecd848a8a8a8a8a613376565b505050505050505050565b600073ffffffffffffffffffffffffffffffffffffffff168473ffffffffffffffffffffffffffffffffffffffff161415612f48576040517f08c379a0000000000000000000000000000000000000000000000000000000008152600401612f3f906148dd565b60405180910390fd5b8151835114612f8c576040517f08c379a0000000000000000000000000000000000000000000000000000000008152600401612f83906148bd565b60405180910390fd5b6000612f96611c11565b9050612fa781600087878787613105565b60005b845181101561306057838181518110612fc657612fc5614d14565b5b6020026020010151600080878481518110612fe457612fe3614d14565b5b6020026020010151815260200190815260200160002060008873ffffffffffffffffffffffffffffffffffffffff1673ffffffffffffffffffffffffffffffffffffffff16815260200190815260200160002060008282546130469190614b05565b92505081905550808061305890614c9c565b915050612faa565b508473ffffffffffffffffffffffffffffffffffffffff16600073ffffffffffffffffffffffffffffffffffffffff168273ffffffffffffffffffffffffffffffffffffffff167f4a39dc06d4c0dbc64b70af90fd698a233a518aa5d07e595d983b8c0526c8f7fb87876040516130d892919061456e565b60405180910390a46130ef8160008787878761310d565b6130fe81600087878787613115565b5050505050565b505050505050565b505050505050565b6131348473ffffffffffffffffffffffffffffffffffffffff1661355d565b156132f4578373ffffffffffffffffffffffffffffffffffffffff1663bc197c8187878686866040518663ffffffff1660e01b815260040161317a9594939291906143e5565b602060405180830381600087803b15801561319457600080fd5b505af19250505080156131c557506040513d601f19601f820116820180604052508101906131c29190613cb7565b60015b61326b576131d1614d72565b806308c379a0141561322e57506131e6615362565b806131f15750613230565b806040517f08c379a000000000000000000000000000000000000000000000000000000000815260040161322591906145c0565b60405180910390fd5b505b6040517f08c379a00000000000000000000000000000000000000000000000000000000081526004016132629061469d565b60405180910390fd5b63bc197c8160e01b7bffffffffffffffffffffffffffffffffffffffffffffffffffffffff1916817bffffffffffffffffffffffffffffffffffffffffffffffffffffffff1916146132f2576040517f08c379a00000000000000000000000000000000000000000000000000000000081526004016132e9906146dd565b60405180910390fd5b505b505050505050565b60606000600167ffffffffffffffff81111561331b5761331a614d43565b5b6040519080825280602002602001820160405280156133495781602001602082028036833780820191505090505b509050828160008151811061336157613360614d14565b5b60200260200101818152505080915050919050565b6133958473ffffffffffffffffffffffffffffffffffffffff1661355d565b15613555578373ffffffffffffffffffffffffffffffffffffffff1663f23a6e6187878686866040518663ffffffff1660e01b81526004016133db959493929190614484565b602060405180830381600087803b1580156133f557600080fd5b505af192505050801561342657506040513d601f19601f820116820180604052508101906134239190613cb7565b60015b6134cc57613432614d72565b806308c379a0141561348f5750613447615362565b806134525750613491565b806040517f08c379a000000000000000000000000000000000000000000000000000000000815260040161348691906145c0565b60405180910390fd5b505b6040517f08c379a00000000000000000000000000000000000000000000000000000000081526004016134c39061469d565b60405180910390fd5b63f23a6e6160e01b7bffffffffffffffffffffffffffffffffffffffffffffffffffffffff1916817bffffffffffffffffffffffffffffffffffffffffffffffffffffffff191614613553576040517f08c379a000000000000000000000000000000000000000000000000000000000815260040161354a906146dd565b60405180910390fd5b505b505050505050565b6000808273ffffffffffffffffffffffffffffffffffffffff163b119050919050565b600061359361358e846149cf565b6149aa565b905080838252602082019050828560208602820111156135b6576135b5614d99565b5b60005b858110156135e657816135cc8882613726565b8452602084019350602083019250506001810190506135b9565b5050509392505050565b60006136036135fe846149fb565b6149aa565b9050808382526020820190508285602086028201111561362657613625614d99565b5b60005b85811015613656578161363c888261388a565b845260208401935060208301925050600181019050613629565b5050509392505050565b600061367361366e84614a27565b6149aa565b90508281526020810184848401111561368f5761368e614d9e565b5b61369a848285614c29565b509392505050565b60006136b56136b084614a58565b6149aa565b9050828152602081018484840111156136d1576136d0614d9e565b5b6136dc848285614c29565b509392505050565b60006136f76136f284614a58565b6149aa565b90508281526020810184848401111561371357613712614d9e565b5b61371e848285614c38565b509392505050565b600081359050613735816153f8565b92915050565b60008151905061374a816153f8565b92915050565b600082601f83011261376557613764614d94565b5b8135613775848260208601613580565b91505092915050565b600082601f83011261379357613792614d94565b5b81356137a38482602086016135f0565b91505092915050565b6000813590506137bb8161540f565b92915050565b6000815190506137d08161540f565b92915050565b6000813590506137e581615426565b92915050565b6000815190506137fa81615426565b92915050565b600082601f83011261381557613814614d94565b5b8135613825848260208601613660565b91505092915050565b600082601f83011261384357613842614d94565b5b81356138538482602086016136a2565b91505092915050565b600082601f83011261387157613870614d94565b5b81516138818482602086016136e4565b91505092915050565b6000813590506138998161543d565b92915050565b6000815190506138ae8161543d565b92915050565b6000602082840312156138ca576138c9614da8565b5b60006138d884828501613726565b91505092915050565b600080604083850312156138f8576138f7614da8565b5b600061390685828601613726565b925050602061391785828601613726565b9150509250929050565b600080600080600060a0868803121561393d5761393c614da8565b5b600061394b88828901613726565b955050602061395c88828901613726565b945050604086013567ffffffffffffffff81111561397d5761397c614da3565b5b6139898882890161377e565b935050606086013567ffffffffffffffff8111156139aa576139a9614da3565b5b6139b68882890161377e565b925050608086013567ffffffffffffffff8111156139d7576139d6614da3565b5b6139e388828901613800565b9150509295509295909350565b600080600080600060a08688031215613a0c57613a0b614da8565b5b6000613a1a88828901613726565b9550506020613a2b88828901613726565b9450506040613a3c8882890161388a565b9350506060613a4d8882890161388a565b925050608086013567ffffffffffffffff811115613a6e57613a6d614da3565b5b613a7a88828901613800565b9150509295509295909350565b60008060408385031215613a9e57613a9d614da8565b5b6000613aac85828601613726565b9250506020613abd858286016137ac565b9150509250929050565b60008060408385031215613ade57613add614da8565b5b6000613aec85828601613726565b9250506020613afd8582860161388a565b9150509250929050565b600080600060608486031215613b2057613b1f614da8565b5b6000613b2e86828701613726565b9350506020613b3f8682870161388a565b9250506040613b5086828701613726565b9150509250925092565b60008060408385031215613b7157613b70614da8565b5b600083013567ffffffffffffffff811115613b8f57613b8e614da3565b5b613b9b85828601613750565b925050602083013567ffffffffffffffff811115613bbc57613bbb614da3565b5b613bc88582860161377e565b9150509250929050565b600080600060608486031215613beb57613bea614da8565b5b600084013567ffffffffffffffff811115613c0957613c08614da3565b5b613c158682870161377e565b935050602084013567ffffffffffffffff811115613c3657613c35614da3565b5b613c428682870161377e565b9250506040613c5386828701613726565b9150509250925092565b600060208284031215613c7357613c72614da8565b5b6000613c81848285016137c1565b91505092915050565b600060208284031215613ca057613c9f614da8565b5b6000613cae848285016137d6565b91505092915050565b600060208284031215613ccd57613ccc614da8565b5b6000613cdb848285016137eb565b91505092915050565b600060208284031215613cfa57613cf9614da8565b5b600082015167ffffffffffffffff811115613d1857613d17614da3565b5b613d248482850161385c565b91505092915050565b60008060008060808587031215613d4757613d46614da8565b5b600085015167ffffffffffffffff811115613d6557613d64614da3565b5b613d718782880161385c565b9450506020613d828782880161389f565b9350506040613d938782880161389f565b9250506060613da48782880161373b565b91505092959194509250565b600080600080600060a08688031215613dcc57613dcb614da8565b5b600086013567ffffffffffffffff811115613dea57613de9614da3565b5b613df68882890161382e565b9550506020613e078882890161388a565b9450506040613e188882890161388a565b9350506060613e2988828901613726565b925050608086013567ffffffffffffffff811115613e4a57613e49614da3565b5b613e568882890161382e565b9150509295509295909350565b600060208284031215613e7957613e78614da8565b5b6000613e878482850161388a565b91505092915050565b600060208284031215613ea657613ea5614da8565b5b6000613eb48482850161389f565b91505092915050565b600080600060608486031215613ed657613ed5614da8565b5b6000613ee48682870161388a565b9350506020613ef58682870161388a565b9250506040613f0686828701613726565b9150509250925092565b6000613f1c8383614326565b60208301905092915050565b613f3181614bb5565b82525050565b6000613f4282614a99565b613f4c8185614ac7565b9350613f5783614a89565b8060005b83811015613f88578151613f6f8882613f10565b9750613f7a83614aba565b925050600181019050613f5b565b5085935050505092915050565b613f9e81614bc7565b82525050565b6000613faf82614aa4565b613fb98185614ad8565b9350613fc9818560208601614c38565b613fd281614dad565b840191505092915050565b6000613fe882614aa4565b613ff28185614ae9565b9350614002818560208601614c38565b80840191505092915050565b600061401982614aaf565b6140238185614af4565b9350614033818560208601614c38565b61403c81614dad565b840191505092915050565b6000614054603483614af4565b915061405f82614dcb565b604082019050919050565b6000614077602f83614af4565b915061408282614e1a565b604082019050919050565b600061409a602883614af4565b91506140a582614e69565b604082019050919050565b60006140bd601283614af4565b91506140c882614eb8565b602082019050919050565b60006140e0602683614af4565b91506140eb82614ee1565b604082019050919050565b6000614103602483614af4565b915061410e82614f30565b604082019050919050565b6000614126601883614af4565b915061413182614f7f565b602082019050919050565b6000614149602a83614af4565b915061415482614fa8565b604082019050919050565b600061416c602683614af4565b915061417782614ff7565b604082019050919050565b600061418f601083614af4565b915061419a82615046565b602082019050919050565b60006141b2602583614af4565b91506141bd8261506f565b604082019050919050565b60006141d5602383614af4565b91506141e0826150be565b604082019050919050565b60006141f8602a83614af4565b91506142038261510d565b604082019050919050565b600061421b602083614af4565b91506142268261515c565b602082019050919050565b600061423e602083614af4565b915061424982615185565b602082019050919050565b6000614261602983614af4565b915061426c826151ae565b604082019050919050565b6000614284602983614af4565b915061428f826151fd565b604082019050919050565b60006142a7602883614af4565b91506142b28261524c565b604082019050919050565b60006142ca602183614af4565b91506142d58261529b565b604082019050919050565b60006142ed602783614af4565b91506142f8826152ea565b604082019050919050565b6000614310601d83614af4565b915061431b82615339565b602082019050919050565b61432f81614c1f565b82525050565b61433e81614c1f565b82525050565b60006143508284613fdd565b915081905092915050565b60006020820190506143706000830184613f28565b92915050565b600060c08201905061438b6000830189613f28565b6143986020830188613f28565b81810360408301526143aa8187613f37565b905081810360608301526143be8186613f37565b90506143cd6080830185613f28565b6143da60a0830184614335565b979650505050505050565b600060a0820190506143fa6000830188613f28565b6144076020830187613f28565b81810360408301526144198186613f37565b9050818103606083015261442d8185613f37565b905081810360808301526144418184613fa4565b90509695505050505050565b60006060820190506144626000830186613f28565b61446f6020830185613f28565b61447c6040830184614335565b949350505050565b600060a0820190506144996000830188613f28565b6144a66020830187613f28565b6144b36040830186614335565b6144c06060830185614335565b81810360808301526144d28184613fa4565b90509695505050505050565b60006040820190506144f36000830185613f28565b6145006020830184614335565b9392505050565b600060808201905061451c6000830187613f28565b6145296020830186614335565b6145366040830185613f28565b6145436060830184614335565b95945050505050565b600060208201905081810360008301526145668184613f37565b905092915050565b600060408201905081810360008301526145888185613f37565b9050818103602083015261459c8184613f37565b90509392505050565b60006020820190506145ba6000830184613f95565b92915050565b600060208201905081810360008301526145da818461400e565b905092915050565b600060808201905081810360008301526145fc818761400e565b905061460b6020830186614335565b6146186040830185614335565b6146256060830184613f28565b95945050505050565b600060c0820190508181036000830152614648818961400e565b90506146576020830188614335565b6146646040830187614335565b6146716060830186613f28565b8181036080830152614683818561400e565b905061469260a0830184614335565b979650505050505050565b600060208201905081810360008301526146b681614047565b9050919050565b600060208201905081810360008301526146d68161406a565b9050919050565b600060208201905081810360008301526146f68161408d565b9050919050565b60006020820190508181036000830152614716816140b0565b9050919050565b60006020820190508181036000830152614736816140d3565b9050919050565b60006020820190508181036000830152614756816140f6565b9050919050565b6000602082019050818103600083015261477681614119565b9050919050565b600060208201905081810360008301526147968161413c565b9050919050565b600060208201905081810360008301526147b68161415f565b9050919050565b600060208201905081810360008301526147d681614182565b9050919050565b600060208201905081810360008301526147f6816141a5565b9050919050565b60006020820190508181036000830152614816816141c8565b9050919050565b60006020820190508181036000830152614836816141eb565b9050919050565b600060208201905081810360008301526148568161420e565b9050919050565b6000602082019050818103600083015261487681614231565b9050919050565b6000602082019050818103600083015261489681614254565b9050919050565b600060208201905081810360008301526148b681614277565b9050919050565b600060208201905081810360008301526148d68161429a565b9050919050565b600060208201905081810360008301526148f6816142bd565b9050919050565b60006020820190508181036000830152614916816142e0565b9050919050565b6000602082019050818103600083015261493681614303565b9050919050565b60006020820190506149526000830184614335565b92915050565b600060408201905061496d6000830185614335565b61497a6020830184613f28565b9392505050565b60006040820190506149966000830185614335565b6149a36020830184614335565b9392505050565b60006149b46149c5565b90506149c08282614c6b565b919050565b6000604051905090565b600067ffffffffffffffff8211156149ea576149e9614d43565b5b602082029050602081019050919050565b600067ffffffffffffffff821115614a1657614a15614d43565b5b602082029050602081019050919050565b600067ffffffffffffffff821115614a4257614a41614d43565b5b614a4b82614dad565b9050602081019050919050565b600067ffffffffffffffff821115614a7357614a72614d43565b5b614a7c82614dad565b9050602081019050919050565b6000819050602082019050919050565b600081519050919050565b600081519050919050565b600081519050919050565b6000602082019050919050565b600082825260208201905092915050565b600082825260208201905092915050565b600081905092915050565b600082825260208201905092915050565b6000614b1082614c1f565b9150614b1b83614c1f565b9250827fffffffffffffffffffffffffffffffffffffffffffffffffffffffffffffffff03821115614b5057614b4f614ce5565b5b828201905092915050565b6000614b6682614c1f565b9150614b7183614c1f565b9250817fffffffffffffffffffffffffffffffffffffffffffffffffffffffffffffffff0483118215151615614baa57614ba9614ce5565b5b828202905092915050565b6000614bc082614bff565b9050919050565b60008115159050919050565b60007fffffffff0000000000000000000000000000000000000000000000000000000082169050919050565b600073ffffffffffffffffffffffffffffffffffffffff82169050919050565b6000819050919050565b82818337600083830152505050565b60005b83811015614c56578082015181840152602081019050614c3b565b83811115614c65576000848401525b50505050565b614c7482614dad565b810181811067ffffffffffffffff82111715614c9357614c92614d43565b5b80604052505050565b6000614ca782614c1f565b91507fffffffffffffffffffffffffffffffffffffffffffffffffffffffffffffffff821415614cda57614cd9614ce5565b5b600182019050919050565b7f4e487b7100000000000000000000000000000000000000000000000000000000600052601160045260246000fd5b7f4e487b7100000000000000000000000000000000000000000000000000000000600052603260045260246000fd5b7f4e487b7100000000000000000000000000000000000000000000000000000000600052604160045260246000fd5b600060033d1115614d915760046000803e614d8e600051614dbe565b90505b90565b600080fd5b600080fd5b600080fd5b600080fd5b600080fd5b6000601f19601f8301169050919050565b60008160e01c9050919050565b7f455243313135353a207472616e7366657220746f206e6f6e204552433131353560008201527f526563656976657220696d706c656d656e746572000000000000000000000000602082015250565b7f455243313135353a2063616c6c6572206973206e6f7420746f6b656e206f776e60008201527f6572206e6f7220617070726f7665640000000000000000000000000000000000602082015250565b7f455243313135353a204552433131353552656365697665722072656a6563746560008201527f6420746f6b656e73000000000000000000000000000000000000000000000000602082015250565b7f45524332303a206e696c20616464726573730000000000000000000000000000600082015250565b7f4f776e61626c653a206e6577206f776e657220697320746865207a65726f206160008201527f6464726573730000000000000000000000000000000000000000000000000000602082015250565b7f455243313135353a206275726e20616d6f756e7420657863656564732062616c60008201527f616e636500000000000000000000000000000000000000000000000000000000602082015250565b7f50424d3a20416c726561647920696e697469616c697365640000000000000000600082015250565b7f455243313135353a2061646472657373207a65726f206973206e6f742061207660008201527f616c6964206f776e657200000000000000000000000000000000000000000000602082015250565b7f45524332303a20496e737566666963656e742062616c616e6365206f7220617060008201527f70726f76616c0000000000000000000000000000000000000000000000000000602082015250565b7f5061757361626c653a2070617573656400000000000000000000000000000000600082015250565b7f455243313135353a207472616e7366657220746f20746865207a65726f20616460008201527f6472657373000000000000000000000000000000000000000000000000000000602082015250565b7f455243313135353a206275726e2066726f6d20746865207a65726f206164647260008201527f6573730000000000000000000000000000000000000000000000000000000000602082015250565b7f455243313135353a20696e73756666696369656e742062616c616e636520666f60008201527f72207472616e7366657200000000000000000000000000000000000000000000602082015250565b7f4f776e61626c653a2063616c6c6572206973206e6f7420746865206f776e6572600082015250565b7f556e657175616c2069647320616e6420616d6f756e747320737570706c696564600082015250565b7f455243313135353a2073657474696e6720617070726f76616c2073746174757360008201527f20666f722073656c660000000000000000000000000000000000000000000000602082015250565b7f455243313135353a206163636f756e747320616e6420696473206c656e67746860008201527f206d69736d617463680000000000000000000000000000000000000000000000602082015250565b7f455243313135353a2069647320616e6420616d6f756e7473206c656e6774682060008201527f6d69736d61746368000000000000000000000000000000000000000000000000602082015250565b7f455243313135353a206d696e7420746f20746865207a65726f2061646472657360008201527f7300000000000000000000000000000000000000000000000000000000000000602082015250565b7f496e746572616374696f6e2077697468207468652073706f7420746f6b656e2060008201527f6661696c65642e00000000000000000000000000000000000000000000000000602082015250565b7f50424d3a2027746f27206164647265737320626c61636b6c6973746564000000600082015250565b600060443d1015615372576153f5565b61537a6149c5565b60043d036004823e80513d602482011167ffffffffffffffff821117156153a25750506153f5565b808201805167ffffffffffffffff8111156153c057505050506153f5565b80602083010160043d0385018111156153dd5750505050506153f5565b6153ec82602001850186614c6b565b82955050505050505b90565b61540181614bb5565b811461540c57600080fd5b50565b61541881614bc7565b811461542357600080fd5b50565b61542f81614bd3565b811461543a57600080fd5b50565b61544681614c1f565b811461545157600080fd5b5056fea2646970667358221220d7995b110c0ba528d848f26f6057116fa2515538faab63de50998cc9cf9d642764736f6c6343000807003360a060405260006001553480156200001657600080fd5b506040516200248b3803806200248b83398181016040528101906200003c9190620002ad565b6200005c62000050620000b360201b60201c565b620000bb60201b60201c565b3073ffffffffffffffffffffffffffffffffffffffff1660808173ffffffffffffffffffffffffffffffffffffffff1660601b815250508060029080519060200190620000ab9291906200017f565b505062000482565b600033905090565b60008060009054906101000a900473ffffffffffffffffffffffffffffffffffffffff169050816000806101000a81548173ffffffffffffffffffffffffffffffffffffffff021916908373ffffffffffffffffffffffffffffffffffffffff1602179055508173ffffffffffffffffffffffffffffffffffffffff168173ffffffffffffffffffffffffffffffffffffffff167f8be0079c531659141344cd1fd0a4f28419497f9722a3daafe3b4186f6b6457e060405160405180910390a35050565b8280546200018d9062000393565b90600052602060002090601f016020900481019282620001b15760008555620001fd565b82601f10620001cc57805160ff1916838001178555620001fd565b82800160010185558215620001fd579182015b82811115620001fc578251825591602001919060010190620001df565b5b5090506200020c919062000210565b5090565b5b808211156200022b57600081600090555060010162000211565b5090565b600062000246620002408462000327565b620002fe565b90508281526020810184848401111562000265576200026462000462565b5b620002728482856200035d565b509392505050565b600082601f8301126200029257620002916200045d565b5b8151620002a48482602086016200022f565b91505092915050565b600060208284031215620002c657620002c56200046c565b5b600082015167ffffffffffffffff811115620002e757620002e662000467565b5b620002f5848285016200027a565b91505092915050565b60006200030a6200031d565b9050620003188282620003c9565b919050565b6000604051905090565b600067ffffffffffffffff8211156200034557620003446200042e565b5b620003508262000471565b9050602081019050919050565b60005b838110156200037d57808201518184015260208101905062000360565b838111156200038d576000848401525b50505050565b60006002820490506001821680620003ac57607f821691505b60208210811415620003c357620003c2620003ff565b5b50919050565b620003d48262000471565b810181811067ffffffffffffffff82111715620003f657620003f56200042e565b5b80604052505050565b7f4e487b7100000000000000000000000000000000000000000000000000000000600052602260045260246000fd5b7f4e487b7100000000000000000000000000000000000000000000000000000000600052604160045260246000fd5b600080fd5b600080fd5b600080fd5b600080fd5b6000601f19601f8301169050919050565b60805160601c611fea620004a160003960006110a20152611fea6000f3fe608060405234801561001057600080fd5b50600436106100ea5760003560e01c8063934689a91161008c578063d20874d811610066578063d20874d814610272578063e21c8b59146102a2578063f2fde38b146102be578063f600d9f4146102da576100ea565b8063934689a9146101df578063c1e037281461020f578063d10424c714610242576100ea565b806348fd09f5116100c857806348fd09f51461016b578063715018a61461019b57806380d69c8a146101a55780638da5cb5b146101c1576100ea565b80630e89341c146100ef578063234661c41461011f57806336a3409c1461014f575b600080fd5b610109600480360381019061010491906115f1565b6102f6565b6040516101169190611844565b60405180910390f35b610139600480360381019061013491906115f1565b61044e565b6040516101469190611992565b60405180910390f35b6101696004803603810190610164919061161e565b6104e8565b005b6101856004803603810190610180919061146b565b6105d6565b6040516101929190611829565b60405180910390f35b6101a361064e565b005b6101bf60048036038101906101ba919061152c565b610662565b005b6101c96108d5565b6040516101d6919061180e565b60405180910390f35b6101f960048036038101906101f491906115f1565b6108fe565b604051610206919061180e565b60405180910390f35b610229600480360381019061022491906115f1565b6109b8565b6040516102399493929190611866565b60405180910390f35b61025c600480360381019061025791906115f1565b610b2e565b6040516102699190611992565b60405180910390f35b61028c600480360381019061028791906115f1565b610bc8565b6040516102999190611992565b60405180910390f35b6102bc60048036038101906102b791906114b4565b610c62565b005b6102d860048036038101906102d3919061143e565b610d9e565b005b6102f460048036038101906102ef91906114b4565b610e22565b005b6060600360008381526020019081526020016000206002015442106103a7576002805461032290611c4f565b80601f016020809104026020016040519081016040528092919081815260200182805461034e90611c4f565b801561039b5780601f106103705761010080835404028352916020019161039b565b820191906000526020600020905b81548152906001019060200180831161037e57829003601f168201915b50505050509050610449565b6003600083815260200190815260200160002060050180546103c890611c4f565b80601f01602080910402602001604051908101604052809291908181526020018280546103f490611c4f565b80156104415780601f1061041657610100808354040283529160200191610441565b820191906000526020600020905b81548152906001019060200180831161042457829003601f168201915b505050505090505b919050565b60008060036000848152602001908152602001600020600101541415801561048b5750600360008381526020019081526020016000206002015442105b6104ca576040517f08c379a00000000000000000000000000000000000000000000000000000000081526004016104c1906118d2565b60405180910390fd5b60036000838152602001908152602001600020600401549050919050565b6104f0610f5e565b6003600083815260200190815260200160002060030160009054906101000a900473ffffffffffffffffffffffffffffffffffffffff1673ffffffffffffffffffffffffffffffffffffffff168173ffffffffffffffffffffffffffffffffffffffff16148015610577575060036000838152602001908152602001600020600201544210155b6105b6576040517f08c379a00000000000000000000000000000000000000000000000000000000081526004016105ad906118b2565b60405180910390fd5b600060036000848152602001908152602001600020600401819055505050565b600080600090505b8251811015610643576003600082815260200190815260200160002060020154421180610621575060006003600083815260200190815260200160002060010154145b15610630576000915050610649565b808061063b90611cb2565b9150506105de565b50600190505b919050565b610656610f5e565b6106606000610fdc565b565b61066a610f5e565b6106726110a0565b808411156106b5576040517f08c379a00000000000000000000000000000000000000000000000000000000081526004016106ac90611932565b60405180910390fd5b4284116106f7576040517f08c379a00000000000000000000000000000000000000000000000000000000081526004016106ee90611952565b60405180910390fd5b600085141561073b576040517f08c379a000000000000000000000000000000000000000000000000000000000815260040161073290611972565b60405180910390fd5b600086610747876110fa565b6040516020016107589291906117ea565b6040516020818303038152906040529050806003600060015481526020019081526020016000206000019080519060200190610795929190611263565b50856003600060015481526020019081526020016000206001018190555084600360006001548152602001908152602001600020600201819055508360036000600154815260200190815260200160002060030160006101000a81548173ffffffffffffffffffffffffffffffffffffffff021916908373ffffffffffffffffffffffffffffffffffffffff160217905550600060036000600154815260200190815260200160002060040181905550826003600060015481526020019081526020016000206005019080519060200190610871929190611263565b507fbbb805bf89819da42bb55052edd2bf6db1c2256ec4c19cf1607de95efc92762f600154828888886040516108ab9594939291906119ad565b60405180910390a160018060008282546108c59190611ab0565b9250508190555050505050505050565b60008060009054906101000a900473ffffffffffffffffffffffffffffffffffffffff16905090565b60008060036000848152602001908152602001600020600101541415801561093b5750600360008381526020019081526020016000206002015442105b61097a576040517f08c379a0000000000000000000000000000000000000000000000000000000008152600401610971906118d2565b60405180910390fd5b6003600083815260200190815260200160002060030160009054906101000a900473ffffffffffffffffffffffffffffffffffffffff169050919050565b606060008060008060036000878152602001908152602001600020600101541415610a18576040517f08c379a0000000000000000000000000000000000000000000000000000000008152600401610a0f906118d2565b60405180910390fd5b60036000868152602001908152602001600020600001600360008781526020019081526020016000206001015460036000888152602001908152602001600020600201546003600089815260200190815260200160002060030160009054906101000a900473ffffffffffffffffffffffffffffffffffffffff16838054610a9f90611c4f565b80601f0160208091040260200160405190810160405280929190818152602001828054610acb90611c4f565b8015610b185780601f10610aed57610100808354040283529160200191610b18565b820191906000526020600020905b815481529060010190602001808311610afb57829003601f168201915b5050505050935093509350935093509193509193565b600080600360008481526020019081526020016000206001015414158015610b6b5750600360008381526020019081526020016000206002015442105b610baa576040517f08c379a0000000000000000000000000000000000000000000000000000000008152600401610ba1906118d2565b60405180910390fd5b60036000838152602001908152602001600020600101549050919050565b60008060036000848152602001908152602001600020600101541415610c23576040517f08c379a0000000000000000000000000000000000000000000000000000000008152600401610c1a906118d2565b60405180910390fd5b60036000838152602001908152602001600020600401546003600084815260200190815260200160002060010154610c5b9190611b37565b9050919050565b610c6a610f5e565b60005b8251811015610d9957600060036000858481518110610c8f57610c8e611db9565b5b602002602001015181526020019081526020016000206001015414158015610ce6575060036000848381518110610cc957610cc8611db9565b5b602002602001015181526020019081526020016000206002015442105b610d25576040517f08c379a0000000000000000000000000000000000000000000000000000000008152600401610d1c906118d2565b60405180910390fd5b818181518110610d3857610d37611db9565b5b602002602001015160036000858481518110610d5757610d56611db9565b5b602002602001015181526020019081526020016000206004016000828254610d7f9190611b91565b925050819055508080610d9190611cb2565b915050610c6d565b505050565b610da6610f5e565b600073ffffffffffffffffffffffffffffffffffffffff168173ffffffffffffffffffffffffffffffffffffffff161415610e16576040517f08c379a0000000000000000000000000000000000000000000000000000000008152600401610e0d906118f2565b60405180910390fd5b610e1f81610fdc565b50565b610e2a610f5e565b60005b8251811015610f5957600060036000858481518110610e4f57610e4e611db9565b5b602002602001015181526020019081526020016000206001015414158015610ea6575060036000848381518110610e8957610e88611db9565b5b602002602001015181526020019081526020016000206002015442105b610ee5576040517f08c379a0000000000000000000000000000000000000000000000000000000008152600401610edc906118d2565b60405180910390fd5b818181518110610ef857610ef7611db9565b5b602002602001015160036000858481518110610f1757610f16611db9565b5b602002602001015181526020019081526020016000206004016000828254610f3f9190611ab0565b925050819055508080610f5190611cb2565b915050610e2d565b505050565b610f6661125b565b73ffffffffffffffffffffffffffffffffffffffff16610f846108d5565b73ffffffffffffffffffffffffffffffffffffffff1614610fda576040517f08c379a0000000000000000000000000000000000000000000000000000000008152600401610fd190611912565b60405180910390fd5b565b60008060009054906101000a900473ffffffffffffffffffffffffffffffffffffffff169050816000806101000a81548173ffffffffffffffffffffffffffffffffffffffff021916908373ffffffffffffffffffffffffffffffffffffffff1602179055508173ffffffffffffffffffffffffffffffffffffffff168173ffffffffffffffffffffffffffffffffffffffff167f8be0079c531659141344cd1fd0a4f28419497f9722a3daafe3b4186f6b6457e060405160405180910390a35050565b7f000000000000000000000000000000000000000000000000000000000000000073ffffffffffffffffffffffffffffffffffffffff163073ffffffffffffffffffffffffffffffffffffffff16146110f857600080fd5b565b60606000821415611142576040518060400160405280600181526020017f30000000000000000000000000000000000000000000000000000000000000008152509050611256565b600082905060005b6000821461117457808061115d90611cb2565b915050600a8261116d9190611b06565b915061114a565b60008167ffffffffffffffff8111156111905761118f611de8565b5b6040519080825280601f01601f1916602001820160405280156111c25781602001600182028036833780820191505090505b5090505b6000851461124f576001826111db9190611b91565b9150600a856111ea9190611cfb565b60306111f69190611ab0565b60f81b81838151811061120c5761120b611db9565b5b60200101907effffffffffffffffffffffffffffffffffffffffffffffffffffffffffffff1916908160001a905350600a856112489190611b06565b94506111c6565b8093505050505b919050565b600033905090565b82805461126f90611c4f565b90600052602060002090601f01602090048101928261129157600085556112d8565b82601f106112aa57805160ff19168380011785556112d8565b828001600101855582156112d8579182015b828111156112d75782518255916020019190600101906112bc565b5b5090506112e591906112e9565b5090565b5b808211156113025760008160009055506001016112ea565b5090565b600061131961131484611a2c565b611a07565b9050808382526020820190508285602086028201111561133c5761133b611e1c565b5b60005b8581101561136c57816113528882611429565b84526020840193506020830192505060018101905061133f565b5050509392505050565b600061138961138484611a58565b611a07565b9050828152602081018484840111156113a5576113a4611e21565b5b6113b0848285611c0d565b509392505050565b6000813590506113c781611f86565b92915050565b600082601f8301126113e2576113e1611e17565b5b81356113f2848260208601611306565b91505092915050565b600082601f8301126114105761140f611e17565b5b8135611420848260208601611376565b91505092915050565b60008135905061143881611f9d565b92915050565b60006020828403121561145457611453611e2b565b5b6000611462848285016113b8565b91505092915050565b60006020828403121561148157611480611e2b565b5b600082013567ffffffffffffffff81111561149f5761149e611e26565b5b6114ab848285016113cd565b91505092915050565b600080604083850312156114cb576114ca611e2b565b5b600083013567ffffffffffffffff8111156114e9576114e8611e26565b5b6114f5858286016113cd565b925050602083013567ffffffffffffffff81111561151657611515611e26565b5b611522858286016113cd565b9150509250929050565b60008060008060008060c0878903121561154957611548611e2b565b5b600087013567ffffffffffffffff81111561156757611566611e26565b5b61157389828a016113fb565b965050602061158489828a01611429565b955050604061159589828a01611429565b94505060606115a689828a016113b8565b935050608087013567ffffffffffffffff8111156115c7576115c6611e26565b5b6115d389828a016113fb565b92505060a06115e489828a01611429565b9150509295509295509295565b60006020828403121561160757611606611e2b565b5b600061161584828501611429565b91505092915050565b6000806040838503121561163557611634611e2b565b5b600061164385828601611429565b9250506020611654858286016113b8565b9150509250929050565b61166781611bc5565b82525050565b61167681611bd7565b82525050565b600061168782611a89565b6116918185611a94565b93506116a1818560208601611c1c565b6116aa81611e30565b840191505092915050565b60006116c082611a89565b6116ca8185611aa5565b93506116da818560208601611c1c565b80840191505092915050565b60006116f3601183611a94565b91506116fe82611e41565b602082019050919050565b6000611716601883611a94565b915061172182611e6a565b602082019050919050565b6000611739602683611a94565b915061174482611e93565b604082019050919050565b600061175c602083611a94565b915061176782611ee2565b602082019050919050565b600061177f601683611a94565b915061178a82611f0b565b602082019050919050565b60006117a2601683611a94565b91506117ad82611f34565b602082019050919050565b60006117c5601083611a94565b91506117d082611f5d565b602082019050919050565b6117e481611c03565b82525050565b60006117f682856116b5565b915061180282846116b5565b91508190509392505050565b6000602082019050611823600083018461165e565b92915050565b600060208201905061183e600083018461166d565b92915050565b6000602082019050818103600083015261185e818461167c565b905092915050565b60006080820190508181036000830152611880818761167c565b905061188f60208301866117db565b61189c60408301856117db565b6118a9606083018461165e565b95945050505050565b600060208201905081810360008301526118cb816116e6565b9050919050565b600060208201905081810360008301526118eb81611709565b9050919050565b6000602082019050818103600083015261190b8161172c565b9050919050565b6000602082019050818103600083015261192b8161174f565b9050919050565b6000602082019050818103600083015261194b81611772565b9050919050565b6000602082019050818103600083015261196b81611795565b9050919050565b6000602082019050818103600083015261198b816117b8565b9050919050565b60006020820190506119a760008301846117db565b92915050565b600060a0820190506119c260008301886117db565b81810360208301526119d4818761167c565b90506119e360408301866117db565b6119f060608301856117db565b6119fd608083018461165e565b9695505050505050565b6000611a11611a22565b9050611a1d8282611c81565b919050565b6000604051905090565b600067ffffffffffffffff821115611a4757611a46611de8565b5b602082029050602081019050919050565b600067ffffffffffffffff821115611a7357611a72611de8565b5b611a7c82611e30565b9050602081019050919050565b600081519050919050565b600082825260208201905092915050565b600081905092915050565b6000611abb82611c03565b9150611ac683611c03565b9250827fffffffffffffffffffffffffffffffffffffffffffffffffffffffffffffffff03821115611afb57611afa611d2c565b5b828201905092915050565b6000611b1182611c03565b9150611b1c83611c03565b925082611b2c57611b2b611d5b565b5b828204905092915050565b6000611b4282611c03565b9150611b4d83611c03565b9250817fffffffffffffffffffffffffffffffffffffffffffffffffffffffffffffffff0483118215151615611b8657611b85611d2c565b5b828202905092915050565b6000611b9c82611c03565b9150611ba783611c03565b925082821015611bba57611bb9611d2c565b5b828203905092915050565b6000611bd082611be3565b9050919050565b60008115159050919050565b600073ffffffffffffffffffffffffffffffffffffffff82169050919050565b6000819050919050565b82818337600083830152505050565b60005b83811015611c3a578082015181840152602081019050611c1f565b83811115611c49576000848401525b50505050565b60006002820490506001821680611c6757607f821691505b60208210811415611c7b57611c7a611d8a565b5b50919050565b611c8a82611e30565b810181811067ffffffffffffffff82111715611ca957611ca8611de8565b5b80604052505050565b6000611cbd82611c03565b91507fffffffffffffffffffffffffffffffffffffffffffffffffffffffffffffffff821415611cf057611cef611d2c565b5b600182019050919050565b6000611d0682611c03565b9150611d1183611c03565b925082611d2157611d20611d5b565b5b828206905092915050565b7f4e487b7100000000000000000000000000000000000000000000000000000000600052601160045260246000fd5b7f4e487b7100000000000000000000000000000000000000000000000000000000600052601260045260246000fd5b7f4e487b7100000000000000000000000000000000000000000000000000000000600052602260045260246000fd5b7f4e487b7100000000000000000000000000000000000000000000000000000000600052603260045260246000fd5b7f4e487b7100000000000000000000000000000000000000000000000000000000600052604160045260246000fd5b600080fd5b600080fd5b600080fd5b600080fd5b600080fd5b6000601f19601f8301169050919050565b7f50424d206e6f74207265766f6b61626c65000000000000000000000000000000600082015250565b7f50424d3a20496e76616c696420546f6b656e2049642873290000000000000000600082015250565b7f4f776e61626c653a206e6577206f776e657220697320746865207a65726f206160008201527f6464726573730000000000000000000000000000000000000000000000000000602082015250565b7f4f776e61626c653a2063616c6c6572206973206e6f7420746865206f776e6572600082015250565b7f496e76616c696420746f6b656e206578706972792d3100000000000000000000600082015250565b7f496e76616c696420746f6b656e206578706972792d3200000000000000000000600082015250565b7f53706f7420616d6f756e74206973203000000000000000000000000000000000600082015250565b611f8f81611bc5565b8114611f9a57600080fd5b50565b611fa681611c03565b8114611fb157600080fd5b5056fea2646970667358221220795c9632e75859d15c802dc432f861f934c89491ed98914e7e49fdeb59dca90364736f6c63430008070033",
  "immutableReferences": {},
  "source": "// SPDX-License-Identifier: MIT\npragma solidity ^0.8.7;\n\nimport \"@openzeppelin/contracts/token/ERC1155/ERC1155.sol\";\nimport \"@openzeppelin/contracts/access/Ownable.sol\";\nimport \"@openzeppelin/contracts/security/Pausable.sol\";\n\nimport \"./ERC20Helper.sol\";  \nimport \"./PBMTokenManager.sol\";\nimport \"./IPBM.sol\";  \nimport \"./IPBMAddressList.sol\";\n\ncontract PBM is ERC1155, Ownable, Pausable, IPBM {  \n    \n    // undelrying ERC-20 tokens\n    address public spotToken = address(0); \n    // address of the token manager\n    address public pbmTokenManager = address(0); \n    // address of the PBM-Addresslist\n    address public pbmAddressList = address(0); \n\n    // tracks contract initialisation\n    bool internal initialised = false;\n    // time of expiry ( epoch )\n    uint256 public contractExpiry ; \n\n    constructor(string memory _uriPostExpiry) ERC1155(\"\") {\n        pbmTokenManager = address(new PBMTokenManager(_uriPostExpiry)) ; \n    }\n\n    function initialise(address _spotToken, uint256 _expiry, address _pbmAddressList)\n    external \n    override\n    onlyOwner\n    {\n        require(!initialised, \"PBM: Already initialised\"); \n        spotToken = _spotToken;\n        contractExpiry = _expiry; \n        pbmAddressList = _pbmAddressList; \n    }\n\n    /**\n     * @dev See {IPBM-createPBMTokenType}.\n     *\n     * Requirements:\n     *\n     * - caller must be owner \n     * - contract must not be expired\n     * - `tokenExpiry` must be less than contract expiry\n     * - `amount` should not be 0\n     */\n    function createPBMTokenType(string memory companyName, uint256 spotAmount, uint256 tokenExpiry,address creator, string memory tokenURI) \n    external \n    override\n    onlyOwner \n    {        \n        PBMTokenManager(pbmTokenManager).createTokenType(companyName, spotAmount, tokenExpiry, creator,  tokenURI, contractExpiry);\n    }\n\n    /**\n     * @dev See {IPBM-mint}.\n     *     \n     * IMPT: Before minting, the caller should approve the contract address to spend ERC-20 tokens on behalf of the caller.\n     *       This can be done by calling the `approve` or `increaseMinterAllowance` functions of the ERC-20 contract and specifying `_spender` to be the PBM contract address. \n             Ref : https://eips.ethereum.org/EIPS/eip-20\n     *\n     * Requirements:\n     *\n     * - contract must not be paused\n     * - tokens must not be expired\n     * - `tokenId` should be a valid id that has already been created\n     * - caller should have the necessary amount of the ERC-20 tokens required to mint\n     * - caller should have approved the PBM contract to spend the ERC-20 tokens\n     */\n    function mint(uint256 tokenId, uint256 amount, address receiver) \n    external  \n    override\n    whenNotPaused\n    {\n        uint256 valueOfNewTokens = amount*(PBMTokenManager(pbmTokenManager).getTokenValue(tokenId)); \n\n        //Transfer the spot token from the user to the contract to wrap it\n        ERC20Helper.safeTransferFrom(spotToken, msg.sender, address(this), valueOfNewTokens);\n\n        // mint the token if the contract - wrapping the xsgd\n        PBMTokenManager(pbmTokenManager).increaseBalanceSupply(serialise(tokenId), serialise(amount)) ; \n        _mint(receiver, tokenId, amount, ''); \n    }\n\n    /**\n     * @dev See {IPBM-batchMint}.\n     *     \n     * IMPT: Before minting, the caller should approve the contract address to spend ERC-20 tokens on behalf of the caller.\n     *       This can be done by calling the `approve` or `increaseMinterAllowance` functions of the ERC-20 contract and specifying `_spender` to be the PBM contract address. \n             Ref : https://eips.ethereum.org/EIPS/eip-20\n     *\n     * Requirements:\n     *\n     * - contract must not be paused\n     * - tokens must not be expired\n     * - `tokenIds` should all be valid ids that have already been created\n     * - `tokenIds` and `amounts` list need to have the same number of values\n     * - caller should have the necessary amount of the ERC-20 tokens required to mint\n     * - caller should have approved the PBM contract to spend the ERC-20 tokens\n     */\n    function batchMint(uint256[] memory tokenIds, uint256[] memory amounts, address receiver) \n    external \n    override\n    whenNotPaused\n    {   \n        require(tokenIds.length == amounts.length, \"Unequal ids and amounts supplied\"); \n\n        // calculate the value of the new tokens\n        uint256 valueOfNewTokens = 0 ; \n\n        for (uint256 i = 0; i < tokenIds.length; i++) {\n            valueOfNewTokens += (amounts[i]*(PBMTokenManager(pbmTokenManager).getTokenValue(tokenIds[i])));  \n        } \n\n        // Transfer spot tokenf from user to contract to wrap it\n        ERC20Helper.safeTransferFrom(spotToken, msg.sender, address(this), valueOfNewTokens);\n        PBMTokenManager(pbmTokenManager).increaseBalanceSupply(tokenIds, amounts);\n        _mintBatch(receiver, tokenIds, amounts, '');\n    }\n\n    /**\n     * @dev See {IPBM-safeTransferFrom}.\n     *     \n     *\n     * Requirements:\n     *\n     * - contract must not be paused\n     * - tokens must not be expired\n     * - `tokenId` should be a valid ids that has already been created\n     * - caller should have the PBMs that are being transferred (or)\n     *          caller should have the approval to spend the PBMs on behalf of the owner (`from` addresss)\n     */\n    function safeTransferFrom( address from, address to, uint256 id, uint256 amount, bytes memory data) \n    public   \n    override(ERC1155, IPBM)\n    whenNotPaused  \n    {\n        require(\n            from == _msgSender() || isApprovedForAll(from, _msgSender()),\n            \"ERC1155: caller is not token owner nor approved\"\n        );\n\n        if (IPBMAddressList(pbmAddressList).isMerchant(to)){\n            uint256 valueOfTokens = amount*(PBMTokenManager(pbmTokenManager).getTokenValue(id)); \n\n            // burn and transfer underlying ERC-20\n            _burn(from, id, amount);\n            PBMTokenManager(pbmTokenManager).decreaseBalanceSupply(serialise(id), serialise(amount)) ; \n            ERC20Helper.safeTransfer(spotToken, to, valueOfTokens);\n            emit MerchantPayment(from, to, serialise(id), serialise(amount), spotToken, valueOfTokens);\n\n        } else {\n            require(!IPBMAddressList(pbmAddressList).isBlacklisted(to), \"PBM: 'to' address blacklisted\");\n            _safeTransferFrom(from, to, id, amount, data);\n        }\n \n    }\n\n    /**\n     * @dev See {IPBM-safeBatchTransferFrom}.\n     *     \n     *\n     * Requirements:\n     *\n     * - contract must not be paused\n     * - tokens must not be expired\n     * - `tokenIds` should all be  valid ids that has already been created\n     * - `tokenIds` and `amounts` list need to have the same number of values\n     * - caller should have the PBMs that are being transferred (or)\n     *          caller should have the approval to spend the PBMs on behalf of the owner (`from` addresss)\n     */ \n    function safeBatchTransferFrom(address from,address to,uint256[] memory ids,uint256[] memory amounts, bytes memory data) \n    public  \n    override(ERC1155, IPBM)\n    whenNotPaused \n    {\n        require(\n            from == _msgSender() || isApprovedForAll(from, _msgSender()),\n            \"ERC1155: caller is not token owner nor approved\"\n        );\n        require(ids.length == amounts.length, \"Unequal ids and amounts supplied\"); \n\n        if (IPBMAddressList(pbmAddressList).isMerchant(to)) {\n            uint256 valueOfTokens = 0 ; \n            for (uint256 i = 0; i < ids.length; i++) {\n                valueOfTokens += (amounts[i]*(PBMTokenManager(pbmTokenManager).getTokenValue(ids[i]))) ; \n            } \n\n            _burnBatch(from, ids, amounts);\n            PBMTokenManager(pbmTokenManager).decreaseBalanceSupply(ids, amounts);\n            ERC20Helper.safeTransfer(spotToken, to, valueOfTokens);\n\n            emit MerchantPayment(from, to, ids, amounts, spotToken, valueOfTokens);\n\n        } else {\n            require(!IPBMAddressList(pbmAddressList).isBlacklisted(to), \"PBM: 'to' address blacklisted\");\n            _safeBatchTransferFrom(from, to, ids, amounts, data);\n        }\n    }\n    \n    /**\n     * @dev See {IPBM-revokePBM}.\n     *\n     * Requirements:\n     *\n     * - `tokenId` should be a valid ids that has already been created\n     * - caller must be the creator of the tokenType \n     * - token must be expired\n     */ \n    function revokePBM(uint256 tokenId) \n    external \n    override\n    whenNotPaused \n    {\n        uint256 valueOfTokens = PBMTokenManager(pbmTokenManager).getPBMRevokeValue(tokenId);\n\n        PBMTokenManager(pbmTokenManager).revokePBM(tokenId, msg.sender); \n\n        // transfering underlying ERC20 tokens\n        ERC20Helper.safeTransfer(spotToken, msg.sender, valueOfTokens);\n\n        emit PBMrevokeWithdraw(msg.sender, tokenId, spotToken, valueOfTokens);\n\n    }\n    /**\n     * @dev See {IPBM-getTokenDetails}.\n     *\n     */ \n    function getTokenDetails(uint256 tokenId) \n    external \n    view \n    override\n    returns (string memory, uint256, uint256, address) \n    {\n        return PBMTokenManager(pbmTokenManager).getTokenDetails(tokenId); \n    }\n\n    /**\n     * @dev See {IPBM-uri}.\n     *\n     */ \n    function uri(uint256 tokenId)\n    public  \n    view\n    override(ERC1155, IPBM)\n    returns (string memory)\n    {\n        return PBMTokenManager(pbmTokenManager).uri(tokenId);\n    }\n\n    function serialise(uint256 num)\n    internal \n    pure\n    returns (uint256[] memory) {\n        uint256[] memory array  = new uint256[](1) ; \n        array[0] = num ; \n        return array ;\n    }\n}",
  "sourcePath": "/Users/mihir/Desktop/code/Orchid-PBM/contracts/PBM.sol",
  "compiler": {
    "name": "solc",
    "version": "0.8.7+commit.e28d00a7.Emscripten.clang"
  },
  "schemaVersion": "3.4.3",
  "updatedAt": "2022-10-06T04:02:07.923Z",
  "networkType": "ethereum",
  "devdoc": {
    "kind": "dev",
    "methods": {
      "balanceOf(address,uint256)": {
        "details": "See {IERC1155-balanceOf}. Requirements: - `account` cannot be the zero address."
      },
      "balanceOfBatch(address[],uint256[])": {
        "details": "See {IERC1155-balanceOfBatch}. Requirements: - `accounts` and `ids` must have the same length."
      },
      "batchMint(uint256[],uint256[],address)": {
        "details": "See {IPBM-batchMint}.      IMPT: Before minting, the caller should approve the contract address to spend ERC-20 tokens on behalf of the caller.       This can be done by calling the `approve` or `increaseMinterAllowance` functions of the ERC-20 contract and specifying `_spender` to be the PBM contract address.  Ref : https://eips.ethereum.org/EIPS/eip-20 Requirements: - contract must not be paused - tokens must not be expired - `tokenIds` should all be valid ids that have already been created - `tokenIds` and `amounts` list need to have the same number of values - caller should have the necessary amount of the ERC-20 tokens required to mint - caller should have approved the PBM contract to spend the ERC-20 tokens"
      },
      "createPBMTokenType(string,uint256,uint256,address,string)": {
        "details": "See {IPBM-createPBMTokenType}. Requirements: - caller must be owner  - contract must not be expired - `tokenExpiry` must be less than contract expiry - `amount` should not be 0"
      },
      "getTokenDetails(uint256)": {
        "details": "See {IPBM-getTokenDetails}."
      },
      "initialise(address,uint256,address)": {
        "params": {
          "_expiry": "contract wide expiry ( in epoch )",
          "_pbmAddressList": "address of the PBMAddressList smartcontract",
          "_spotToken": "address of the underlying ERC20 token"
        }
      },
      "isApprovedForAll(address,address)": {
        "details": "See {IERC1155-isApprovedForAll}."
      },
      "mint(uint256,uint256,address)": {
        "details": "See {IPBM-mint}.      IMPT: Before minting, the caller should approve the contract address to spend ERC-20 tokens on behalf of the caller.       This can be done by calling the `approve` or `increaseMinterAllowance` functions of the ERC-20 contract and specifying `_spender` to be the PBM contract address.  Ref : https://eips.ethereum.org/EIPS/eip-20 Requirements: - contract must not be paused - tokens must not be expired - `tokenId` should be a valid id that has already been created - caller should have the necessary amount of the ERC-20 tokens required to mint - caller should have approved the PBM contract to spend the ERC-20 tokens"
      },
      "owner()": {
        "details": "Returns the address of the current owner."
      },
      "paused()": {
        "details": "Returns true if the contract is paused, and false otherwise."
      },
      "renounceOwnership()": {
        "details": "Leaves the contract without owner. It will not be possible to call `onlyOwner` functions anymore. Can only be called by the current owner. NOTE: Renouncing ownership will leave the contract without an owner, thereby removing any functionality that is only available to the owner."
      },
      "revokePBM(uint256)": {
        "details": "See {IPBM-revokePBM}. Requirements: - `tokenId` should be a valid ids that has already been created - caller must be the creator of the tokenType  - token must be expired"
      },
      "safeBatchTransferFrom(address,address,uint256[],uint256[],bytes)": {
        "details": "See {IPBM-safeBatchTransferFrom}.      Requirements: - contract must not be paused - tokens must not be expired - `tokenIds` should all be  valid ids that has already been created - `tokenIds` and `amounts` list need to have the same number of values - caller should have the PBMs that are being transferred (or)          caller should have the approval to spend the PBMs on behalf of the owner (`from` addresss)"
      },
      "safeTransferFrom(address,address,uint256,uint256,bytes)": {
        "details": "See {IPBM-safeTransferFrom}.      Requirements: - contract must not be paused - tokens must not be expired - `tokenId` should be a valid ids that has already been created - caller should have the PBMs that are being transferred (or)          caller should have the approval to spend the PBMs on behalf of the owner (`from` addresss)"
      },
      "setApprovalForAll(address,bool)": {
        "details": "See {IERC1155-setApprovalForAll}."
      },
      "supportsInterface(bytes4)": {
        "details": "See {IERC165-supportsInterface}."
      },
      "transferOwnership(address)": {
        "details": "Transfers ownership of the contract to a new account (`newOwner`). Can only be called by the current owner."
      },
      "uri(uint256)": {
        "details": "See {IPBM-uri}."
      }
    },
    "version": 1
  },
  "userdoc": {
    "events": {
      "MerchantPayment(address,address,uint256[],uint256[],address,uint256)": {
        "notice": "Emitted when underlying ERC-20 tokens are transferred to a whitelisted merchant ( payment )"
      },
      "PBMrevokeWithdraw(address,uint256,address,uint256)": {
        "notice": "Emitted when a PBM type creator withdraws the underlying ERC-20 tokens from all the remaining expired PBMs"
      }
    },
    "kind": "user",
    "methods": {
      "initialise(address,uint256,address)": {
        "notice": "sets the address of the underlying ERC20 token, Contract Expiry, and the address of pbm address list"
      }
    },
    "version": 1
  }
}