{
  "contractName": "PBM",
  "abi": [
    {
      "inputs": [],
      "stateMutability": "nonpayable",
      "type": "constructor"
    },
    {
      "anonymous": false,
      "inputs": [
        {
          "indexed": true,
          "internalType": "address",
          "name": "account",
          "type": "address"
        },
        {
          "indexed": true,
          "internalType": "address",
          "name": "operator",
          "type": "address"
        },
        {
          "indexed": false,
          "internalType": "bool",
          "name": "approved",
          "type": "bool"
        }
      ],
      "name": "ApprovalForAll",
      "type": "event"
    },
    {
      "anonymous": false,
      "inputs": [
        {
          "indexed": false,
          "internalType": "address",
          "name": "from",
          "type": "address"
        },
        {
          "indexed": false,
          "internalType": "address",
          "name": "to",
          "type": "address"
        },
        {
          "indexed": false,
          "internalType": "uint256[]",
          "name": "tokenIds",
          "type": "uint256[]"
        },
        {
          "indexed": false,
          "internalType": "uint256[]",
          "name": "amounts",
          "type": "uint256[]"
        },
        {
          "indexed": false,
          "internalType": "address",
          "name": "ERC20Token",
          "type": "address"
        },
        {
          "indexed": false,
          "internalType": "uint256",
          "name": "ERC20TokenValue",
          "type": "uint256"
        }
      ],
      "name": "MerchantPayment",
      "type": "event"
    },
    {
      "anonymous": false,
      "inputs": [
        {
          "indexed": true,
          "internalType": "address",
          "name": "previousOwner",
          "type": "address"
        },
        {
          "indexed": true,
          "internalType": "address",
          "name": "newOwner",
          "type": "address"
        }
      ],
      "name": "OwnershipTransferred",
      "type": "event"
    },
    {
      "anonymous": false,
      "inputs": [
        {
          "indexed": false,
          "internalType": "address",
          "name": "beneficiary",
          "type": "address"
        },
        {
          "indexed": false,
          "internalType": "uint256",
          "name": "PBMTokenId",
          "type": "uint256"
        },
        {
          "indexed": false,
          "internalType": "address",
          "name": "ERC20Token",
          "type": "address"
        },
        {
          "indexed": false,
          "internalType": "uint256",
          "name": "ERC20TokenValue",
          "type": "uint256"
        }
      ],
      "name": "PBMrevokeWithdraw",
      "type": "event"
    },
    {
      "anonymous": false,
      "inputs": [
        {
          "indexed": false,
          "internalType": "address",
          "name": "account",
          "type": "address"
        }
      ],
      "name": "Paused",
      "type": "event"
    },
    {
      "anonymous": false,
      "inputs": [
        {
          "indexed": true,
          "internalType": "address",
          "name": "operator",
          "type": "address"
        },
        {
          "indexed": true,
          "internalType": "address",
          "name": "from",
          "type": "address"
        },
        {
          "indexed": true,
          "internalType": "address",
          "name": "to",
          "type": "address"
        },
        {
          "indexed": false,
          "internalType": "uint256[]",
          "name": "ids",
          "type": "uint256[]"
        },
        {
          "indexed": false,
          "internalType": "uint256[]",
          "name": "values",
          "type": "uint256[]"
        }
      ],
      "name": "TransferBatch",
      "type": "event"
    },
    {
      "anonymous": false,
      "inputs": [
        {
          "indexed": true,
          "internalType": "address",
          "name": "operator",
          "type": "address"
        },
        {
          "indexed": true,
          "internalType": "address",
          "name": "from",
          "type": "address"
        },
        {
          "indexed": true,
          "internalType": "address",
          "name": "to",
          "type": "address"
        },
        {
          "indexed": false,
          "internalType": "uint256",
          "name": "id",
          "type": "uint256"
        },
        {
          "indexed": false,
          "internalType": "uint256",
          "name": "value",
          "type": "uint256"
        }
      ],
      "name": "TransferSingle",
      "type": "event"
    },
    {
      "anonymous": false,
      "inputs": [
        {
          "indexed": false,
          "internalType": "string",
          "name": "value",
          "type": "string"
        },
        {
          "indexed": true,
          "internalType": "uint256",
          "name": "id",
          "type": "uint256"
        }
      ],
      "name": "URI",
      "type": "event"
    },
    {
      "anonymous": false,
      "inputs": [
        {
          "indexed": false,
          "internalType": "address",
          "name": "account",
          "type": "address"
        }
      ],
      "name": "Unpaused",
      "type": "event"
    },
    {
      "inputs": [
        {
          "internalType": "address",
          "name": "account",
          "type": "address"
        },
        {
          "internalType": "uint256",
          "name": "id",
          "type": "uint256"
        }
      ],
      "name": "balanceOf",
      "outputs": [
        {
          "internalType": "uint256",
          "name": "",
          "type": "uint256"
        }
      ],
      "stateMutability": "view",
      "type": "function"
    },
    {
      "inputs": [
        {
          "internalType": "address[]",
          "name": "accounts",
          "type": "address[]"
        },
        {
          "internalType": "uint256[]",
          "name": "ids",
          "type": "uint256[]"
        }
      ],
      "name": "balanceOfBatch",
      "outputs": [
        {
          "internalType": "uint256[]",
          "name": "",
          "type": "uint256[]"
        }
      ],
      "stateMutability": "view",
      "type": "function"
    },
    {
      "inputs": [],
      "name": "contractExpiry",
      "outputs": [
        {
          "internalType": "uint256",
          "name": "",
          "type": "uint256"
        }
      ],
      "stateMutability": "view",
      "type": "function"
    },
    {
      "inputs": [
        {
          "internalType": "address",
          "name": "account",
          "type": "address"
        },
        {
          "internalType": "address",
          "name": "operator",
          "type": "address"
        }
      ],
      "name": "isApprovedForAll",
      "outputs": [
        {
          "internalType": "bool",
          "name": "",
          "type": "bool"
        }
      ],
      "stateMutability": "view",
      "type": "function"
    },
    {
      "inputs": [],
      "name": "owner",
      "outputs": [
        {
          "internalType": "address",
          "name": "",
          "type": "address"
        }
      ],
      "stateMutability": "view",
      "type": "function"
    },
    {
      "inputs": [],
      "name": "paused",
      "outputs": [
        {
          "internalType": "bool",
          "name": "",
          "type": "bool"
        }
      ],
      "stateMutability": "view",
      "type": "function"
    },
    {
      "inputs": [],
      "name": "pbmAddressList",
      "outputs": [
        {
          "internalType": "address",
          "name": "",
          "type": "address"
        }
      ],
      "stateMutability": "view",
      "type": "function"
    },
    {
      "inputs": [],
      "name": "pbmTokenManager",
      "outputs": [
        {
          "internalType": "address",
          "name": "",
          "type": "address"
        }
      ],
      "stateMutability": "view",
      "type": "function"
    },
    {
      "inputs": [],
      "name": "renounceOwnership",
      "outputs": [],
      "stateMutability": "nonpayable",
      "type": "function"
    },
    {
      "inputs": [
        {
          "internalType": "address",
          "name": "operator",
          "type": "address"
        },
        {
          "internalType": "bool",
          "name": "approved",
          "type": "bool"
        }
      ],
      "name": "setApprovalForAll",
      "outputs": [],
      "stateMutability": "nonpayable",
      "type": "function"
    },
    {
      "inputs": [],
      "name": "spotToken",
      "outputs": [
        {
          "internalType": "address",
          "name": "",
          "type": "address"
        }
      ],
      "stateMutability": "view",
      "type": "function"
    },
    {
      "inputs": [
        {
          "internalType": "bytes4",
          "name": "interfaceId",
          "type": "bytes4"
        }
      ],
      "name": "supportsInterface",
      "outputs": [
        {
          "internalType": "bool",
          "name": "",
          "type": "bool"
        }
      ],
      "stateMutability": "view",
      "type": "function"
    },
    {
      "inputs": [
        {
          "internalType": "address",
          "name": "newOwner",
          "type": "address"
        }
      ],
      "name": "transferOwnership",
      "outputs": [],
      "stateMutability": "nonpayable",
      "type": "function"
    },
    {
      "inputs": [
        {
          "internalType": "address",
          "name": "_spotToken",
          "type": "address"
        },
        {
          "internalType": "uint256",
          "name": "_expiry",
          "type": "uint256"
        },
        {
          "internalType": "address",
          "name": "_pbmAddressList",
          "type": "address"
        },
        {
          "internalType": "address",
          "name": "_pbmTokenManager",
          "type": "address"
        }
      ],
      "name": "initialise",
      "outputs": [],
      "stateMutability": "nonpayable",
      "type": "function"
    },
    {
      "inputs": [
        {
          "internalType": "string",
          "name": "companyName",
          "type": "string"
        },
        {
          "internalType": "uint256",
          "name": "spotAmount",
          "type": "uint256"
        },
        {
          "internalType": "uint256",
          "name": "tokenExpiry",
          "type": "uint256"
        },
        {
          "internalType": "address",
          "name": "creator",
          "type": "address"
        },
        {
          "internalType": "string",
          "name": "tokenURI",
          "type": "string"
        }
      ],
      "name": "createPBMTokenType",
      "outputs": [],
      "stateMutability": "nonpayable",
      "type": "function"
    },
    {
      "inputs": [
        {
          "internalType": "uint256",
          "name": "tokenId",
          "type": "uint256"
        },
        {
          "internalType": "uint256",
          "name": "amount",
          "type": "uint256"
        },
        {
          "internalType": "address",
          "name": "receiver",
          "type": "address"
        }
      ],
      "name": "mint",
      "outputs": [],
      "stateMutability": "nonpayable",
      "type": "function"
    },
    {
      "inputs": [
        {
          "internalType": "uint256[]",
          "name": "tokenIds",
          "type": "uint256[]"
        },
        {
          "internalType": "uint256[]",
          "name": "amounts",
          "type": "uint256[]"
        },
        {
          "internalType": "address",
          "name": "receiver",
          "type": "address"
        }
      ],
      "name": "batchMint",
      "outputs": [],
      "stateMutability": "nonpayable",
      "type": "function"
    },
    {
      "inputs": [
        {
          "internalType": "address",
          "name": "from",
          "type": "address"
        },
        {
          "internalType": "address",
          "name": "to",
          "type": "address"
        },
        {
          "internalType": "uint256",
          "name": "id",
          "type": "uint256"
        },
        {
          "internalType": "uint256",
          "name": "amount",
          "type": "uint256"
        },
        {
          "internalType": "bytes",
          "name": "data",
          "type": "bytes"
        }
      ],
      "name": "safeTransferFrom",
      "outputs": [],
      "stateMutability": "nonpayable",
      "type": "function"
    },
    {
      "inputs": [
        {
          "internalType": "address",
          "name": "from",
          "type": "address"
        },
        {
          "internalType": "address",
          "name": "to",
          "type": "address"
        },
        {
          "internalType": "uint256[]",
          "name": "ids",
          "type": "uint256[]"
        },
        {
          "internalType": "uint256[]",
          "name": "amounts",
          "type": "uint256[]"
        },
        {
          "internalType": "bytes",
          "name": "data",
          "type": "bytes"
        }
      ],
      "name": "safeBatchTransferFrom",
      "outputs": [],
      "stateMutability": "nonpayable",
      "type": "function"
    },
    {
      "inputs": [
        {
          "internalType": "uint256",
          "name": "tokenId",
          "type": "uint256"
        }
      ],
      "name": "revokePBM",
      "outputs": [],
      "stateMutability": "nonpayable",
      "type": "function"
    },
    {
      "inputs": [
        {
          "internalType": "uint256",
          "name": "tokenId",
          "type": "uint256"
        }
      ],
      "name": "getTokenDetails",
      "outputs": [
        {
          "internalType": "string",
          "name": "",
          "type": "string"
        },
        {
          "internalType": "uint256",
          "name": "",
          "type": "uint256"
        },
        {
          "internalType": "uint256",
          "name": "",
          "type": "uint256"
        },
        {
          "internalType": "address",
          "name": "",
          "type": "address"
        }
      ],
      "stateMutability": "view",
      "type": "function"
    },
    {
      "inputs": [
        {
          "internalType": "uint256",
          "name": "tokenId",
          "type": "uint256"
        }
      ],
      "name": "uri",
      "outputs": [
        {
          "internalType": "string",
          "name": "",
          "type": "string"
        }
      ],
      "stateMutability": "view",
      "type": "function"
    },
    {
      "inputs": [],
      "name": "pause",
      "outputs": [],
      "stateMutability": "nonpayable",
      "type": "function"
    },
    {
      "inputs": [],
      "name": "unpause",
      "outputs": [],
      "stateMutability": "nonpayable",
      "type": "function"
    }
  ],
  "bytecode": "0x60806040526000600460006101000a81548173ffffffffffffffffffffffffffffffffffffffff021916908373ffffffffffffffffffffffffffffffffffffffff1602179055506000600560006101000a81548173ffffffffffffffffffffffffffffffffffffffff021916908373ffffffffffffffffffffffffffffffffffffffff1602179055506000600660006101000a81548173ffffffffffffffffffffffffffffffffffffffff021916908373ffffffffffffffffffffffffffffffffffffffff1602179055506000600660146101000a81548160ff021916908315150217905550348015620000f257600080fd5b506040518060200160405280600081525062000114816200015660201b60201c565b5062000135620001296200017260201b60201c565b6200017a60201b60201c565b6000600360146101000a81548160ff02191690831515021790555062000355565b80600290805190602001906200016e92919062000240565b5050565b600033905090565b6000600360009054906101000a900473ffffffffffffffffffffffffffffffffffffffff16905081600360006101000a81548173ffffffffffffffffffffffffffffffffffffffff021916908373ffffffffffffffffffffffffffffffffffffffff1602179055508173ffffffffffffffffffffffffffffffffffffffff168173ffffffffffffffffffffffffffffffffffffffff167f8be0079c531659141344cd1fd0a4f28419497f9722a3daafe3b4186f6b6457e060405160405180910390a35050565b8280546200024e90620002f0565b90600052602060002090601f016020900481019282620002725760008555620002be565b82601f106200028d57805160ff1916838001178555620002be565b82800160010185558215620002be579182015b82811115620002bd578251825591602001919060010190620002a0565b5b509050620002cd9190620002d1565b5090565b5b80821115620002ec576000816000905550600101620002d2565b5090565b600060028204905060018216806200030957607f821691505b6020821081141562000320576200031f62000326565b5b50919050565b7f4e487b7100000000000000000000000000000000000000000000000000000000600052602260045260246000fd5b615a9080620003656000396000f3fe608060405234801561001057600080fd5b50600436106101575760003560e01c806373e17e76116100c3578063e7d3fe6b1161007c578063e7d3fe6b14610391578063e985e9c5146103ad578063ee0d8249146103dd578063f242432a146103f9578063f2fde38b14610415578063fb34b2011461043157610157565b806373e17e76146102e05780638456cb59146102fc57806389aba642146103065780638da5cb5b14610324578063a22cb46514610342578063c1e037281461035e57610157565b80634e1273f4116101155780634e1273f41461023057806351e86cf6146102605780635c975abb1461027e5780635ed7be9d1461029c57806363be47d2146102b8578063715018a6146102d657610157565b8062fdd58e1461015c57806301ffc9a71461018c5780630ad89462146101bc5780630e89341c146101da5780632eb2c2d61461020a5780633f4ba83a14610226575b600080fd5b61017660048036038101906101719190613f75565b61044d565b6040516101839190614ec8565b60405180910390f35b6101a660048036038101906101a1919061414c565b610516565b6040516101b39190614ad0565b60405180910390f35b6101c46105f8565b6040516101d19190614886565b60405180910390f35b6101f460048036038101906101ef9190614325565b61061e565b6040516102019190614aeb565b60405180910390f35b610224600480360381019061021f9190613dcf565b6106d7565b005b61022e610bfb565b005b61024a6004803603810190610245919061401c565b610c0d565b6040516102579190614a77565b60405180910390f35b610268610d26565b6040516102759190614886565b60405180910390f35b610286610d4c565b6040516102939190614ad0565b60405180910390f35b6102b660048036038101906102b19190614272565b610d63565b005b6102c0610e5a565b6040516102cd9190614886565b60405180910390f35b6102de610e80565b005b6102fa60048036038101906102f59190614325565b610e94565b005b6103046110b9565b005b61030e6110cb565b60405161031b9190614ec8565b60405180910390f35b61032c6110d1565b6040516103399190614886565b60405180910390f35b61035c60048036038101906103579190613f35565b6110fb565b005b61037860048036038101906103739190614325565b611111565b6040516103889493929190614b0d565b60405180910390f35b6103ab60048036038101906103a6919061437f565b6111d7565b005b6103c760048036038101906103c29190613d8f565b6113d6565b6040516103d49190614ad0565b60405180910390f35b6103f760048036038101906103f29190613fb5565b61146a565b005b610413600480360381019061040e9190613e9e565b61169a565b005b61042f600480360381019061042a9190613d35565b611b3c565b005b61044b60048036038101906104469190614094565b611bc0565b005b60008073ffffffffffffffffffffffffffffffffffffffff168373ffffffffffffffffffffffffffffffffffffffff1614156104be576040517f08c379a00000000000000000000000000000000000000000000000000000000081526004016104b590614cc8565b60405180910390fd5b60008083815260200190815260200160002060008473ffffffffffffffffffffffffffffffffffffffff1673ffffffffffffffffffffffffffffffffffffffff16815260200190815260200160002054905092915050565b60007fd9b67a26000000000000000000000000000000000000000000000000000000007bffffffffffffffffffffffffffffffffffffffffffffffffffffffff1916827bffffffffffffffffffffffffffffffffffffffffffffffffffffffff191614806105e157507f0e89341c000000000000000000000000000000000000000000000000000000007bffffffffffffffffffffffffffffffffffffffffffffffffffffffff1916827bffffffffffffffffffffffffffffffffffffffffffffffffffffffff1916145b806105f157506105f082611e51565b5b9050919050565b600460009054906101000a900473ffffffffffffffffffffffffffffffffffffffff1681565b6060600560009054906101000a900473ffffffffffffffffffffffffffffffffffffffff1673ffffffffffffffffffffffffffffffffffffffff16630e89341c836040518263ffffffff1660e01b815260040161067b9190614ec8565b60006040518083038186803b15801561069357600080fd5b505afa1580156106a7573d6000803e3d6000fd5b505050506040513d6000823e3d601f19601f820116820180604052508101906106d091906141a6565b9050919050565b6106df611ebb565b600660149054906101000a900460ff1661072e576040517f08c379a000000000000000000000000000000000000000000000000000000000815260040161072590614da8565b60405180910390fd5b610736611f05565b73ffffffffffffffffffffffffffffffffffffffff168573ffffffffffffffffffffffffffffffffffffffff16148061077c575061077b85610776611f05565b6113d6565b5b6107bb576040517f08c379a00000000000000000000000000000000000000000000000000000000081526004016107b290614be8565b60405180910390fd5b81518351146107ff576040517f08c379a00000000000000000000000000000000000000000000000000000000081526004016107f690614dc8565b60405180910390fd5b600660009054906101000a900473ffffffffffffffffffffffffffffffffffffffff1673ffffffffffffffffffffffffffffffffffffffff16631a2f7167856040518263ffffffff1660e01b815260040161085a9190614886565b602060405180830381600087803b15801561087457600080fd5b505af1158015610888573d6000803e3d6000fd5b505050506040513d601f19601f820116820180604052508101906108ac919061411f565b15610af9576000805b84518110156109c857600560009054906101000a900473ffffffffffffffffffffffffffffffffffffffff1673ffffffffffffffffffffffffffffffffffffffff1663d10424c786838151811061090f5761090e61529f565b5b60200260200101516040518263ffffffff1660e01b81526004016109339190614ec8565b60206040518083038186803b15801561094b57600080fd5b505afa15801561095f573d6000803e3d6000fd5b505050506040513d601f19601f820116820180604052508101906109839190614352565b8482815181106109965761099561529f565b5b60200260200101516109a891906150e6565b826109b39190615090565b915080806109c090615227565b9150506108b5565b506109d4868585611f0d565b600560009054906101000a900473ffffffffffffffffffffffffffffffffffffffff1673ffffffffffffffffffffffffffffffffffffffff1663e21c8b5985856040518363ffffffff1660e01b8152600401610a31929190614a99565b600060405180830381600087803b158015610a4b57600080fd5b505af1158015610a5f573d6000803e3d6000fd5b50505050610a90600460009054906101000a900473ffffffffffffffffffffffffffffffffffffffff1686836121dc565b7f68c9cd42836993caa70415e61f3c3baceb0bb31dcb22af6e5e0db98fa8870fac86868686600460009054906101000a900473ffffffffffffffffffffffffffffffffffffffff1686604051610aeb969594939291906148a1565b60405180910390a150610bf4565b600660009054906101000a900473ffffffffffffffffffffffffffffffffffffffff1673ffffffffffffffffffffffffffffffffffffffff1663fe575a87856040518263ffffffff1660e01b8152600401610b549190614886565b602060405180830381600087803b158015610b6e57600080fd5b505af1158015610b82573d6000803e3d6000fd5b505050506040513d601f19601f82011682018060405250810190610ba6919061411f565b15610be6576040517f08c379a0000000000000000000000000000000000000000000000000000000008152600401610bdd90614e88565b60405180910390fd5b610bf385858585856123a1565b5b5050505050565b610c036126c3565b610c0b612741565b565b60608151835114610c53576040517f08c379a0000000000000000000000000000000000000000000000000000000008152600401610c4a90614e08565b60405180910390fd5b6000835167ffffffffffffffff811115610c7057610c6f6152ce565b5b604051908082528060200260200182016040528015610c9e5781602001602082028036833780820191505090505b50905060005b8451811015610d1b57610ceb858281518110610cc357610cc261529f565b5b6020026020010151858381518110610cde57610cdd61529f565b5b602002602001015161044d565b828281518110610cfe57610cfd61529f565b5b60200260200101818152505080610d1490615227565b9050610ca4565b508091505092915050565b600660009054906101000a900473ffffffffffffffffffffffffffffffffffffffff1681565b6000600360149054906101000a900460ff16905090565b610d6b6126c3565b600660149054906101000a900460ff16610dba576040517f08c379a0000000000000000000000000000000000000000000000000000000008152600401610db190614da8565b60405180910390fd5b600560009054906101000a900473ffffffffffffffffffffffffffffffffffffffff1673ffffffffffffffffffffffffffffffffffffffff166380d69c8a86868686866007546040518763ffffffff1660e01b8152600401610e2196959493929190614b59565b600060405180830381600087803b158015610e3b57600080fd5b505af1158015610e4f573d6000803e3d6000fd5b505050505050505050565b600560009054906101000a900473ffffffffffffffffffffffffffffffffffffffff1681565b610e886126c3565b610e9260006127a4565b565b610e9c611ebb565b600660149054906101000a900460ff16610eeb576040517f08c379a0000000000000000000000000000000000000000000000000000000008152600401610ee290614da8565b60405180910390fd5b6000600560009054906101000a900473ffffffffffffffffffffffffffffffffffffffff1673ffffffffffffffffffffffffffffffffffffffff1663d20874d8836040518263ffffffff1660e01b8152600401610f489190614ec8565b60206040518083038186803b158015610f6057600080fd5b505afa158015610f74573d6000803e3d6000fd5b505050506040513d601f19601f82011682018060405250810190610f989190614352565b9050600560009054906101000a900473ffffffffffffffffffffffffffffffffffffffff1673ffffffffffffffffffffffffffffffffffffffff166336a3409c83336040518363ffffffff1660e01b8152600401610ff7929190614ee3565b600060405180830381600087803b15801561101157600080fd5b505af1158015611025573d6000803e3d6000fd5b50505050611056600460009054906101000a900473ffffffffffffffffffffffffffffffffffffffff1633836121dc565b7fa1c359e2aefcb2a02fa122099023552498d16ee2c91b81d3cfd8cd086f037d443383600460009054906101000a900473ffffffffffffffffffffffffffffffffffffffff16846040516110ad9493929190614a32565b60405180910390a15050565b6110c16126c3565b6110c961286a565b565b60075481565b6000600360009054906101000a900473ffffffffffffffffffffffffffffffffffffffff16905090565b61110d611106611f05565b83836128cd565b5050565b60606000806000600560009054906101000a900473ffffffffffffffffffffffffffffffffffffffff1673ffffffffffffffffffffffffffffffffffffffff1663c1e03728866040518263ffffffff1660e01b81526004016111739190614ec8565b60006040518083038186803b15801561118b57600080fd5b505afa15801561119f573d6000803e3d6000fd5b505050506040513d6000823e3d601f19601f820116820180604052508101906111c891906141ef565b93509350935093509193509193565b6111df611ebb565b600660149054906101000a900460ff1661122e576040517f08c379a000000000000000000000000000000000000000000000000000000000815260040161122590614da8565b60405180910390fd5b6000600560009054906101000a900473ffffffffffffffffffffffffffffffffffffffff1673ffffffffffffffffffffffffffffffffffffffff1663d10424c7856040518263ffffffff1660e01b815260040161128b9190614ec8565b60206040518083038186803b1580156112a357600080fd5b505afa1580156112b7573d6000803e3d6000fd5b505050506040513d601f19601f820116820180604052508101906112db9190614352565b836112e691906150e6565b9050611316600460009054906101000a900473ffffffffffffffffffffffffffffffffffffffff16333084612a3a565b600560009054906101000a900473ffffffffffffffffffffffffffffffffffffffff1673ffffffffffffffffffffffffffffffffffffffff1663f600d9f461135d86612c02565b61136686612c02565b6040518363ffffffff1660e01b8152600401611383929190614a99565b600060405180830381600087803b15801561139d57600080fd5b505af11580156113b1573d6000803e3d6000fd5b505050506113d082858560405180602001604052806000815250612c7c565b50505050565b6000600160008473ffffffffffffffffffffffffffffffffffffffff1673ffffffffffffffffffffffffffffffffffffffff16815260200190815260200160002060008373ffffffffffffffffffffffffffffffffffffffff1673ffffffffffffffffffffffffffffffffffffffff16815260200190815260200160002060009054906101000a900460ff16905092915050565b6114726126c3565b600660149054906101000a900460ff16156114c2576040517f08c379a00000000000000000000000000000000000000000000000000000000081526004016114b990614ca8565b60405180910390fd5b3073ffffffffffffffffffffffffffffffffffffffff168173ffffffffffffffffffffffffffffffffffffffff16638da5cb5b6040518163ffffffff1660e01b8152600401602060405180830381600087803b15801561152157600080fd5b505af1158015611535573d6000803e3d6000fd5b505050506040513d601f19601f820116820180604052508101906115599190613d62565b73ffffffffffffffffffffffffffffffffffffffff16146115af576040517f08c379a00000000000000000000000000000000000000000000000000000000081526004016115a690614ea8565b60405180910390fd5b83600460006101000a81548173ffffffffffffffffffffffffffffffffffffffff021916908373ffffffffffffffffffffffffffffffffffffffff1602179055508260078190555081600660006101000a81548173ffffffffffffffffffffffffffffffffffffffff021916908373ffffffffffffffffffffffffffffffffffffffff16021790555080600560006101000a81548173ffffffffffffffffffffffffffffffffffffffff021916908373ffffffffffffffffffffffffffffffffffffffff1602179055506001600660146101000a81548160ff02191690831515021790555050505050565b6116a2611ebb565b600660149054906101000a900460ff166116f1576040517f08c379a00000000000000000000000000000000000000000000000000000000081526004016116e890614da8565b60405180910390fd5b6116f9611f05565b73ffffffffffffffffffffffffffffffffffffffff168573ffffffffffffffffffffffffffffffffffffffff16148061173f575061173e85611739611f05565b6113d6565b5b61177e576040517f08c379a000000000000000000000000000000000000000000000000000000000815260040161177590614be8565b60405180910390fd5b600660009054906101000a900473ffffffffffffffffffffffffffffffffffffffff1673ffffffffffffffffffffffffffffffffffffffff16631a2f7167856040518263ffffffff1660e01b81526004016117d99190614886565b602060405180830381600087803b1580156117f357600080fd5b505af1158015611807573d6000803e3d6000fd5b505050506040513d601f19601f8201168201806040525081019061182b919061411f565b15611a3a576000600560009054906101000a900473ffffffffffffffffffffffffffffffffffffffff1673ffffffffffffffffffffffffffffffffffffffff1663d10424c7856040518263ffffffff1660e01b815260040161188d9190614ec8565b60206040518083038186803b1580156118a557600080fd5b505afa1580156118b9573d6000803e3d6000fd5b505050506040513d601f19601f820116820180604052508101906118dd9190614352565b836118e891906150e6565b90506118f5868585612e2d565b600560009054906101000a900473ffffffffffffffffffffffffffffffffffffffff1673ffffffffffffffffffffffffffffffffffffffff1663e21c8b5961193c86612c02565b61194586612c02565b6040518363ffffffff1660e01b8152600401611962929190614a99565b600060405180830381600087803b15801561197c57600080fd5b505af1158015611990573d6000803e3d6000fd5b505050506119c1600460009054906101000a900473ffffffffffffffffffffffffffffffffffffffff1686836121dc565b7f68c9cd42836993caa70415e61f3c3baceb0bb31dcb22af6e5e0db98fa8870fac86866119ed87612c02565b6119f687612c02565b600460009054906101000a900473ffffffffffffffffffffffffffffffffffffffff1686604051611a2c969594939291906148a1565b60405180910390a150611b35565b600660009054906101000a900473ffffffffffffffffffffffffffffffffffffffff1673ffffffffffffffffffffffffffffffffffffffff1663fe575a87856040518263ffffffff1660e01b8152600401611a959190614886565b602060405180830381600087803b158015611aaf57600080fd5b505af1158015611ac3573d6000803e3d6000fd5b505050506040513d601f19601f82011682018060405250810190611ae7919061411f565b15611b27576040517f08c379a0000000000000000000000000000000000000000000000000000000008152600401611b1e90614e88565b60405180910390fd5b611b348585858585613074565b5b5050505050565b611b446126c3565b600073ffffffffffffffffffffffffffffffffffffffff168173ffffffffffffffffffffffffffffffffffffffff161415611bb4576040517f08c379a0000000000000000000000000000000000000000000000000000000008152600401611bab90614c68565b60405180910390fd5b611bbd816127a4565b50565b611bc8611ebb565b600660149054906101000a900460ff16611c17576040517f08c379a0000000000000000000000000000000000000000000000000000000008152600401611c0e90614da8565b60405180910390fd5b8151835114611c5b576040517f08c379a0000000000000000000000000000000000000000000000000000000008152600401611c5290614dc8565b60405180910390fd5b6000805b8451811015611d7257600560009054906101000a900473ffffffffffffffffffffffffffffffffffffffff1673ffffffffffffffffffffffffffffffffffffffff1663d10424c7868381518110611cb957611cb861529f565b5b60200260200101516040518263ffffffff1660e01b8152600401611cdd9190614ec8565b60206040518083038186803b158015611cf557600080fd5b505afa158015611d09573d6000803e3d6000fd5b505050506040513d601f19601f82011682018060405250810190611d2d9190614352565b848281518110611d4057611d3f61529f565b5b6020026020010151611d5291906150e6565b82611d5d9190615090565b91508080611d6a90615227565b915050611c5f565b50611da1600460009054906101000a900473ffffffffffffffffffffffffffffffffffffffff16333084612a3a565b600560009054906101000a900473ffffffffffffffffffffffffffffffffffffffff1673ffffffffffffffffffffffffffffffffffffffff1663f600d9f485856040518363ffffffff1660e01b8152600401611dfe929190614a99565b600060405180830381600087803b158015611e1857600080fd5b505af1158015611e2c573d6000803e3d6000fd5b50505050611e4b82858560405180602001604052806000815250613310565b50505050565b60007f01ffc9a7000000000000000000000000000000000000000000000000000000007bffffffffffffffffffffffffffffffffffffffffffffffffffffffff1916827bffffffffffffffffffffffffffffffffffffffffffffffffffffffff1916149050919050565b611ec3610d4c565b15611f03576040517f08c379a0000000000000000000000000000000000000000000000000000000008152600401611efa90614d08565b60405180910390fd5b565b600033905090565b600073ffffffffffffffffffffffffffffffffffffffff168373ffffffffffffffffffffffffffffffffffffffff161415611f7d576040517f08c379a0000000000000000000000000000000000000000000000000000000008152600401611f7490614d48565b60405180910390fd5b8051825114611fc1576040517f08c379a0000000000000000000000000000000000000000000000000000000008152600401611fb890614e28565b60405180910390fd5b6000611fcb611f05565b9050611feb8185600086866040518060200160405280600081525061353d565b60005b835181101561213857600084828151811061200c5761200b61529f565b5b60200260200101519050600084838151811061202b5761202a61529f565b5b60200260200101519050600080600084815260200190815260200160002060008973ffffffffffffffffffffffffffffffffffffffff1673ffffffffffffffffffffffffffffffffffffffff168152602001908152602001600020549050818110156120cc576040517f08c379a00000000000000000000000000000000000000000000000000000000081526004016120c390614c88565b60405180910390fd5b81810360008085815260200190815260200160002060008a73ffffffffffffffffffffffffffffffffffffffff1673ffffffffffffffffffffffffffffffffffffffff16815260200190815260200160002081905550505050808061213090615227565b915050611fee565b50600073ffffffffffffffffffffffffffffffffffffffff168473ffffffffffffffffffffffffffffffffffffffff168273ffffffffffffffffffffffffffffffffffffffff167f4a39dc06d4c0dbc64b70af90fd698a233a518aa5d07e595d983b8c0526c8f7fb86866040516121b0929190614a99565b60405180910390a46121d681856000868660405180602001604052806000815250613545565b50505050565b600073ffffffffffffffffffffffffffffffffffffffff168373ffffffffffffffffffffffffffffffffffffffff16141561224c576040517f08c379a000000000000000000000000000000000000000000000000000000000815260040161224390614c48565b60405180910390fd5b6000808473ffffffffffffffffffffffffffffffffffffffff1663a9059cbb60e01b8585604051602401612281929190614a09565b604051602081830303815290604052907bffffffffffffffffffffffffffffffffffffffffffffffffffffffff19166020820180517bffffffffffffffffffffffffffffffffffffffffffffffffffffffff83818316178352505050506040516122eb919061486f565b6000604051808303816000865af19150503d8060008114612328576040519150601f19603f3d011682016040523d82523d6000602084013e61232d565b606091505b509150915081801561235b575060008151148061235a575080806020019051810190612359919061411f565b5b5b61239a576040517f08c379a000000000000000000000000000000000000000000000000000000000815260040161239190614e68565b60405180910390fd5b5050505050565b81518351146123e5576040517f08c379a00000000000000000000000000000000000000000000000000000000081526004016123dc90614e28565b60405180910390fd5b600073ffffffffffffffffffffffffffffffffffffffff168473ffffffffffffffffffffffffffffffffffffffff161415612455576040517f08c379a000000000000000000000000000000000000000000000000000000000815260040161244c90614d28565b60405180910390fd5b600061245f611f05565b905061246f81878787878761353d565b60005b84518110156126205760008582815181106124905761248f61529f565b5b6020026020010151905060008583815181106124af576124ae61529f565b5b60200260200101519050600080600084815260200190815260200160002060008b73ffffffffffffffffffffffffffffffffffffffff1673ffffffffffffffffffffffffffffffffffffffff16815260200190815260200160002054905081811015612550576040517f08c379a000000000000000000000000000000000000000000000000000000000815260040161254790614d68565b60405180910390fd5b81810360008085815260200190815260200160002060008c73ffffffffffffffffffffffffffffffffffffffff1673ffffffffffffffffffffffffffffffffffffffff168152602001908152602001600020819055508160008085815260200190815260200160002060008b73ffffffffffffffffffffffffffffffffffffffff1673ffffffffffffffffffffffffffffffffffffffff16815260200190815260200160002060008282546126059190615090565b925050819055505050508061261990615227565b9050612472565b508473ffffffffffffffffffffffffffffffffffffffff168673ffffffffffffffffffffffffffffffffffffffff168273ffffffffffffffffffffffffffffffffffffffff167f4a39dc06d4c0dbc64b70af90fd698a233a518aa5d07e595d983b8c0526c8f7fb8787604051612697929190614a99565b60405180910390a46126ad818787878787613545565b6126bb81878787878761354d565b505050505050565b6126cb611f05565b73ffffffffffffffffffffffffffffffffffffffff166126e96110d1565b73ffffffffffffffffffffffffffffffffffffffff161461273f576040517f08c379a000000000000000000000000000000000000000000000000000000000815260040161273690614d88565b60405180910390fd5b565b612749613734565b6000600360146101000a81548160ff0219169083151502179055507f5db9ee0a495bf2e6ff9c91a7834c1ba4fdd244a5e8aa4e537bd38aeae4b073aa61278d611f05565b60405161279a9190614886565b60405180910390a1565b6000600360009054906101000a900473ffffffffffffffffffffffffffffffffffffffff16905081600360006101000a81548173ffffffffffffffffffffffffffffffffffffffff021916908373ffffffffffffffffffffffffffffffffffffffff1602179055508173ffffffffffffffffffffffffffffffffffffffff168173ffffffffffffffffffffffffffffffffffffffff167f8be0079c531659141344cd1fd0a4f28419497f9722a3daafe3b4186f6b6457e060405160405180910390a35050565b612872611ebb565b6001600360146101000a81548160ff0219169083151502179055507f62e78cea01bee320cd4e420270b5ea74000d11b0c9f74754ebdbfc544b05a2586128b6611f05565b6040516128c39190614886565b60405180910390a1565b8173ffffffffffffffffffffffffffffffffffffffff168373ffffffffffffffffffffffffffffffffffffffff16141561293c576040517f08c379a000000000000000000000000000000000000000000000000000000000815260040161293390614de8565b60405180910390fd5b80600160008573ffffffffffffffffffffffffffffffffffffffff1673ffffffffffffffffffffffffffffffffffffffff16815260200190815260200160002060008473ffffffffffffffffffffffffffffffffffffffff1673ffffffffffffffffffffffffffffffffffffffff16815260200190815260200160002060006101000a81548160ff0219169083151502179055508173ffffffffffffffffffffffffffffffffffffffff168373ffffffffffffffffffffffffffffffffffffffff167f17307eab39ab6107e8899845ad3d59bd9653f200f220920489ca2b5937696c3183604051612a2d9190614ad0565b60405180910390a3505050565b600073ffffffffffffffffffffffffffffffffffffffff168473ffffffffffffffffffffffffffffffffffffffff161415612aaa576040517f08c379a0000000000000000000000000000000000000000000000000000000008152600401612aa190614c48565b60405180910390fd5b6000808573ffffffffffffffffffffffffffffffffffffffff166323b872dd60e01b868686604051602401612ae193929190614978565b604051602081830303815290604052907bffffffffffffffffffffffffffffffffffffffffffffffffffffffff19166020820180517bffffffffffffffffffffffffffffffffffffffffffffffffffffffff8381831617835250505050604051612b4b919061486f565b6000604051808303816000865af19150503d8060008114612b88576040519150601f19603f3d011682016040523d82523d6000602084013e612b8d565b606091505b5091509150818015612bbb5750600081511480612bba575080806020019051810190612bb9919061411f565b5b5b612bfa576040517f08c379a0000000000000000000000000000000000000000000000000000000008152600401612bf190614ce8565b60405180910390fd5b505050505050565b60606000600167ffffffffffffffff811115612c2157612c206152ce565b5b604051908082528060200260200182016040528015612c4f5781602001602082028036833780820191505090505b5090508281600081518110612c6757612c6661529f565b5b60200260200101818152505080915050919050565b600073ffffffffffffffffffffffffffffffffffffffff168473ffffffffffffffffffffffffffffffffffffffff161415612cec576040517f08c379a0000000000000000000000000000000000000000000000000000000008152600401612ce390614e48565b60405180910390fd5b6000612cf6611f05565b90506000612d038561377d565b90506000612d108561377d565b9050612d218360008985858961353d565b8460008088815260200190815260200160002060008973ffffffffffffffffffffffffffffffffffffffff1673ffffffffffffffffffffffffffffffffffffffff1681526020019081526020016000206000828254612d809190615090565b925050819055508673ffffffffffffffffffffffffffffffffffffffff16600073ffffffffffffffffffffffffffffffffffffffff168473ffffffffffffffffffffffffffffffffffffffff167fc3d58168c5ae7397731d063d5bbf3d657854427343f4c083240f7aacaa2d0f628989604051612dfe929190614f0c565b60405180910390a4612e1583600089858589613545565b612e24836000898989896137f7565b50505050505050565b600073ffffffffffffffffffffffffffffffffffffffff168373ffffffffffffffffffffffffffffffffffffffff161415612e9d576040517f08c379a0000000000000000000000000000000000000000000000000000000008152600401612e9490614d48565b60405180910390fd5b6000612ea7611f05565b90506000612eb48461377d565b90506000612ec18461377d565b9050612ee18387600085856040518060200160405280600081525061353d565b600080600087815260200190815260200160002060008873ffffffffffffffffffffffffffffffffffffffff1673ffffffffffffffffffffffffffffffffffffffff16815260200190815260200160002054905084811015612f78576040517f08c379a0000000000000000000000000000000000000000000000000000000008152600401612f6f90614c88565b60405180910390fd5b84810360008088815260200190815260200160002060008973ffffffffffffffffffffffffffffffffffffffff1673ffffffffffffffffffffffffffffffffffffffff16815260200190815260200160002081905550600073ffffffffffffffffffffffffffffffffffffffff168773ffffffffffffffffffffffffffffffffffffffff168573ffffffffffffffffffffffffffffffffffffffff167fc3d58168c5ae7397731d063d5bbf3d657854427343f4c083240f7aacaa2d0f628989604051613045929190614f0c565b60405180910390a461306b84886000868660405180602001604052806000815250613545565b50505050505050565b600073ffffffffffffffffffffffffffffffffffffffff168473ffffffffffffffffffffffffffffffffffffffff1614156130e4576040517f08c379a00000000000000000000000000000000000000000000000000000000081526004016130db90614d28565b60405180910390fd5b60006130ee611f05565b905060006130fb8561377d565b905060006131088561377d565b905061311883898985858961353d565b600080600088815260200190815260200160002060008a73ffffffffffffffffffffffffffffffffffffffff1673ffffffffffffffffffffffffffffffffffffffff168152602001908152602001600020549050858110156131af576040517f08c379a00000000000000000000000000000000000000000000000000000000081526004016131a690614d68565b60405180910390fd5b85810360008089815260200190815260200160002060008b73ffffffffffffffffffffffffffffffffffffffff1673ffffffffffffffffffffffffffffffffffffffff168152602001908152602001600020819055508560008089815260200190815260200160002060008a73ffffffffffffffffffffffffffffffffffffffff1673ffffffffffffffffffffffffffffffffffffffff16815260200190815260200160002060008282546132649190615090565b925050819055508773ffffffffffffffffffffffffffffffffffffffff168973ffffffffffffffffffffffffffffffffffffffff168573ffffffffffffffffffffffffffffffffffffffff167fc3d58168c5ae7397731d063d5bbf3d657854427343f4c083240f7aacaa2d0f628a8a6040516132e1929190614f0c565b60405180910390a46132f7848a8a86868a613545565b613305848a8a8a8a8a6137f7565b505050505050505050565b600073ffffffffffffffffffffffffffffffffffffffff168473ffffffffffffffffffffffffffffffffffffffff161415613380576040517f08c379a000000000000000000000000000000000000000000000000000000000815260040161337790614e48565b60405180910390fd5b81518351146133c4576040517f08c379a00000000000000000000000000000000000000000000000000000000081526004016133bb90614e28565b60405180910390fd5b60006133ce611f05565b90506133df8160008787878761353d565b60005b8451811015613498578381815181106133fe576133fd61529f565b5b602002602001015160008087848151811061341c5761341b61529f565b5b6020026020010151815260200190815260200160002060008873ffffffffffffffffffffffffffffffffffffffff1673ffffffffffffffffffffffffffffffffffffffff168152602001908152602001600020600082825461347e9190615090565b92505081905550808061349090615227565b9150506133e2565b508473ffffffffffffffffffffffffffffffffffffffff16600073ffffffffffffffffffffffffffffffffffffffff168273ffffffffffffffffffffffffffffffffffffffff167f4a39dc06d4c0dbc64b70af90fd698a233a518aa5d07e595d983b8c0526c8f7fb8787604051613510929190614a99565b60405180910390a461352781600087878787613545565b6135368160008787878761354d565b5050505050565b505050505050565b505050505050565b61356c8473ffffffffffffffffffffffffffffffffffffffff166139de565b1561372c578373ffffffffffffffffffffffffffffffffffffffff1663bc197c8187878686866040518663ffffffff1660e01b81526004016135b2959493929190614910565b602060405180830381600087803b1580156135cc57600080fd5b505af19250505080156135fd57506040513d601f19601f820116820180604052508101906135fa9190614179565b60015b6136a3576136096152fd565b806308c379a01415613666575061361e615968565b806136295750613668565b806040517f08c379a000000000000000000000000000000000000000000000000000000000815260040161365d9190614aeb565b60405180910390fd5b505b6040517f08c379a000000000000000000000000000000000000000000000000000000000815260040161369a90614bc8565b60405180910390fd5b63bc197c8160e01b7bffffffffffffffffffffffffffffffffffffffffffffffffffffffff1916817bffffffffffffffffffffffffffffffffffffffffffffffffffffffff19161461372a576040517f08c379a000000000000000000000000000000000000000000000000000000000815260040161372190614c08565b60405180910390fd5b505b505050505050565b61373c610d4c565b61377b576040517f08c379a000000000000000000000000000000000000000000000000000000000815260040161377290614c28565b60405180910390fd5b565b60606000600167ffffffffffffffff81111561379c5761379b6152ce565b5b6040519080825280602002602001820160405280156137ca5781602001602082028036833780820191505090505b50905082816000815181106137e2576137e161529f565b5b60200260200101818152505080915050919050565b6138168473ffffffffffffffffffffffffffffffffffffffff166139de565b156139d6578373ffffffffffffffffffffffffffffffffffffffff1663f23a6e6187878686866040518663ffffffff1660e01b815260040161385c9594939291906149af565b602060405180830381600087803b15801561387657600080fd5b505af19250505080156138a757506040513d601f19601f820116820180604052508101906138a49190614179565b60015b61394d576138b36152fd565b806308c379a0141561391057506138c8615968565b806138d35750613912565b806040517f08c379a00000000000000000000000000000000000000000000000000000000081526004016139079190614aeb565b60405180910390fd5b505b6040517f08c379a000000000000000000000000000000000000000000000000000000000815260040161394490614bc8565b60405180910390fd5b63f23a6e6160e01b7bffffffffffffffffffffffffffffffffffffffffffffffffffffffff1916817bffffffffffffffffffffffffffffffffffffffffffffffffffffffff1916146139d4576040517f08c379a00000000000000000000000000000000000000000000000000000000081526004016139cb90614c08565b60405180910390fd5b505b505050505050565b6000808273ffffffffffffffffffffffffffffffffffffffff163b119050919050565b6000613a14613a0f84614f5a565b614f35565b90508083825260208201905082856020860282011115613a3757613a36615324565b5b60005b85811015613a675781613a4d8882613ba7565b845260208401935060208301925050600181019050613a3a565b5050509392505050565b6000613a84613a7f84614f86565b614f35565b90508083825260208201905082856020860282011115613aa757613aa6615324565b5b60005b85811015613ad75781613abd8882613d0b565b845260208401935060208301925050600181019050613aaa565b5050509392505050565b6000613af4613aef84614fb2565b614f35565b905082815260208101848484011115613b1057613b0f615329565b5b613b1b8482856151b4565b509392505050565b6000613b36613b3184614fe3565b614f35565b905082815260208101848484011115613b5257613b51615329565b5b613b5d8482856151b4565b509392505050565b6000613b78613b7384614fe3565b614f35565b905082815260208101848484011115613b9457613b93615329565b5b613b9f8482856151c3565b509392505050565b600081359050613bb6816159fe565b92915050565b600081519050613bcb816159fe565b92915050565b600082601f830112613be657613be561531f565b5b8135613bf6848260208601613a01565b91505092915050565b600082601f830112613c1457613c1361531f565b5b8135613c24848260208601613a71565b91505092915050565b600081359050613c3c81615a15565b92915050565b600081519050613c5181615a15565b92915050565b600081359050613c6681615a2c565b92915050565b600081519050613c7b81615a2c565b92915050565b600082601f830112613c9657613c9561531f565b5b8135613ca6848260208601613ae1565b91505092915050565b600082601f830112613cc457613cc361531f565b5b8135613cd4848260208601613b23565b91505092915050565b600082601f830112613cf257613cf161531f565b5b8151613d02848260208601613b65565b91505092915050565b600081359050613d1a81615a43565b92915050565b600081519050613d2f81615a43565b92915050565b600060208284031215613d4b57613d4a615333565b5b6000613d5984828501613ba7565b91505092915050565b600060208284031215613d7857613d77615333565b5b6000613d8684828501613bbc565b91505092915050565b60008060408385031215613da657613da5615333565b5b6000613db485828601613ba7565b9250506020613dc585828601613ba7565b9150509250929050565b600080600080600060a08688031215613deb57613dea615333565b5b6000613df988828901613ba7565b9550506020613e0a88828901613ba7565b945050604086013567ffffffffffffffff811115613e2b57613e2a61532e565b5b613e3788828901613bff565b935050606086013567ffffffffffffffff811115613e5857613e5761532e565b5b613e6488828901613bff565b925050608086013567ffffffffffffffff811115613e8557613e8461532e565b5b613e9188828901613c81565b9150509295509295909350565b600080600080600060a08688031215613eba57613eb9615333565b5b6000613ec888828901613ba7565b9550506020613ed988828901613ba7565b9450506040613eea88828901613d0b565b9350506060613efb88828901613d0b565b925050608086013567ffffffffffffffff811115613f1c57613f1b61532e565b5b613f2888828901613c81565b9150509295509295909350565b60008060408385031215613f4c57613f4b615333565b5b6000613f5a85828601613ba7565b9250506020613f6b85828601613c2d565b9150509250929050565b60008060408385031215613f8c57613f8b615333565b5b6000613f9a85828601613ba7565b9250506020613fab85828601613d0b565b9150509250929050565b60008060008060808587031215613fcf57613fce615333565b5b6000613fdd87828801613ba7565b9450506020613fee87828801613d0b565b9350506040613fff87828801613ba7565b925050606061401087828801613ba7565b91505092959194509250565b6000806040838503121561403357614032615333565b5b600083013567ffffffffffffffff8111156140515761405061532e565b5b61405d85828601613bd1565b925050602083013567ffffffffffffffff81111561407e5761407d61532e565b5b61408a85828601613bff565b9150509250929050565b6000806000606084860312156140ad576140ac615333565b5b600084013567ffffffffffffffff8111156140cb576140ca61532e565b5b6140d786828701613bff565b935050602084013567ffffffffffffffff8111156140f8576140f761532e565b5b61410486828701613bff565b925050604061411586828701613ba7565b9150509250925092565b60006020828403121561413557614134615333565b5b600061414384828501613c42565b91505092915050565b60006020828403121561416257614161615333565b5b600061417084828501613c57565b91505092915050565b60006020828403121561418f5761418e615333565b5b600061419d84828501613c6c565b91505092915050565b6000602082840312156141bc576141bb615333565b5b600082015167ffffffffffffffff8111156141da576141d961532e565b5b6141e684828501613cdd565b91505092915050565b6000806000806080858703121561420957614208615333565b5b600085015167ffffffffffffffff8111156142275761422661532e565b5b61423387828801613cdd565b945050602061424487828801613d20565b935050604061425587828801613d20565b925050606061426687828801613bbc565b91505092959194509250565b600080600080600060a0868803121561428e5761428d615333565b5b600086013567ffffffffffffffff8111156142ac576142ab61532e565b5b6142b888828901613caf565b95505060206142c988828901613d0b565b94505060406142da88828901613d0b565b93505060606142eb88828901613ba7565b925050608086013567ffffffffffffffff81111561430c5761430b61532e565b5b61431888828901613caf565b9150509295509295909350565b60006020828403121561433b5761433a615333565b5b600061434984828501613d0b565b91505092915050565b60006020828403121561436857614367615333565b5b600061437684828501613d20565b91505092915050565b60008060006060848603121561439857614397615333565b5b60006143a686828701613d0b565b93505060206143b786828701613d0b565b92505060406143c886828701613ba7565b9150509250925092565b60006143de8383614851565b60208301905092915050565b6143f381615140565b82525050565b600061440482615024565b61440e8185615052565b935061441983615014565b8060005b8381101561444a57815161443188826143d2565b975061443c83615045565b92505060018101905061441d565b5085935050505092915050565b61446081615152565b82525050565b60006144718261502f565b61447b8185615063565b935061448b8185602086016151c3565b61449481615338565b840191505092915050565b60006144aa8261502f565b6144b48185615074565b93506144c48185602086016151c3565b80840191505092915050565b60006144db8261503a565b6144e5818561507f565b93506144f58185602086016151c3565b6144fe81615338565b840191505092915050565b600061451660348361507f565b915061452182615356565b604082019050919050565b6000614539602f8361507f565b9150614544826153a5565b604082019050919050565b600061455c60288361507f565b9150614567826153f4565b604082019050919050565b600061457f60148361507f565b915061458a82615443565b602082019050919050565b60006145a260128361507f565b91506145ad8261546c565b602082019050919050565b60006145c560268361507f565b91506145d082615495565b604082019050919050565b60006145e860248361507f565b91506145f3826154e4565b604082019050919050565b600061460b60188361507f565b915061461682615533565b602082019050919050565b600061462e602a8361507f565b91506146398261555c565b604082019050919050565b600061465160268361507f565b915061465c826155ab565b604082019050919050565b600061467460108361507f565b915061467f826155fa565b602082019050919050565b600061469760258361507f565b91506146a282615623565b604082019050919050565b60006146ba60238361507f565b91506146c582615672565b604082019050919050565b60006146dd602a8361507f565b91506146e8826156c1565b604082019050919050565b600061470060208361507f565b915061470b82615710565b602082019050919050565b600061472360148361507f565b915061472e82615739565b602082019050919050565b600061474660208361507f565b915061475182615762565b602082019050919050565b600061476960298361507f565b91506147748261578b565b604082019050919050565b600061478c60298361507f565b9150614797826157da565b604082019050919050565b60006147af60288361507f565b91506147ba82615829565b604082019050919050565b60006147d260218361507f565b91506147dd82615878565b604082019050919050565b60006147f560278361507f565b9150614800826158c7565b604082019050919050565b6000614818601d8361507f565b915061482382615916565b602082019050919050565b600061483b601a8361507f565b91506148468261593f565b602082019050919050565b61485a816151aa565b82525050565b614869816151aa565b82525050565b600061487b828461449f565b915081905092915050565b600060208201905061489b60008301846143ea565b92915050565b600060c0820190506148b660008301896143ea565b6148c360208301886143ea565b81810360408301526148d581876143f9565b905081810360608301526148e981866143f9565b90506148f860808301856143ea565b61490560a0830184614860565b979650505050505050565b600060a08201905061492560008301886143ea565b61493260208301876143ea565b818103604083015261494481866143f9565b9050818103606083015261495881856143f9565b9050818103608083015261496c8184614466565b90509695505050505050565b600060608201905061498d60008301866143ea565b61499a60208301856143ea565b6149a76040830184614860565b949350505050565b600060a0820190506149c460008301886143ea565b6149d160208301876143ea565b6149de6040830186614860565b6149eb6060830185614860565b81810360808301526149fd8184614466565b90509695505050505050565b6000604082019050614a1e60008301856143ea565b614a2b6020830184614860565b9392505050565b6000608082019050614a4760008301876143ea565b614a546020830186614860565b614a6160408301856143ea565b614a6e6060830184614860565b95945050505050565b60006020820190508181036000830152614a9181846143f9565b905092915050565b60006040820190508181036000830152614ab381856143f9565b90508181036020830152614ac781846143f9565b90509392505050565b6000602082019050614ae56000830184614457565b92915050565b60006020820190508181036000830152614b0581846144d0565b905092915050565b60006080820190508181036000830152614b2781876144d0565b9050614b366020830186614860565b614b436040830185614860565b614b5060608301846143ea565b95945050505050565b600060c0820190508181036000830152614b7381896144d0565b9050614b826020830188614860565b614b8f6040830187614860565b614b9c60608301866143ea565b8181036080830152614bae81856144d0565b9050614bbd60a0830184614860565b979650505050505050565b60006020820190508181036000830152614be181614509565b9050919050565b60006020820190508181036000830152614c018161452c565b9050919050565b60006020820190508181036000830152614c218161454f565b9050919050565b60006020820190508181036000830152614c4181614572565b9050919050565b60006020820190508181036000830152614c6181614595565b9050919050565b60006020820190508181036000830152614c81816145b8565b9050919050565b60006020820190508181036000830152614ca1816145db565b9050919050565b60006020820190508181036000830152614cc1816145fe565b9050919050565b60006020820190508181036000830152614ce181614621565b9050919050565b60006020820190508181036000830152614d0181614644565b9050919050565b60006020820190508181036000830152614d2181614667565b9050919050565b60006020820190508181036000830152614d418161468a565b9050919050565b60006020820190508181036000830152614d61816146ad565b9050919050565b60006020820190508181036000830152614d81816146d0565b9050919050565b60006020820190508181036000830152614da1816146f3565b9050919050565b60006020820190508181036000830152614dc181614716565b9050919050565b60006020820190508181036000830152614de181614739565b9050919050565b60006020820190508181036000830152614e018161475c565b9050919050565b60006020820190508181036000830152614e218161477f565b9050919050565b60006020820190508181036000830152614e41816147a2565b9050919050565b60006020820190508181036000830152614e61816147c5565b9050919050565b60006020820190508181036000830152614e81816147e8565b9050919050565b60006020820190508181036000830152614ea18161480b565b9050919050565b60006020820190508181036000830152614ec18161482e565b9050919050565b6000602082019050614edd6000830184614860565b92915050565b6000604082019050614ef86000830185614860565b614f0560208301846143ea565b9392505050565b6000604082019050614f216000830185614860565b614f2e6020830184614860565b9392505050565b6000614f3f614f50565b9050614f4b82826151f6565b919050565b6000604051905090565b600067ffffffffffffffff821115614f7557614f746152ce565b5b602082029050602081019050919050565b600067ffffffffffffffff821115614fa157614fa06152ce565b5b602082029050602081019050919050565b600067ffffffffffffffff821115614fcd57614fcc6152ce565b5b614fd682615338565b9050602081019050919050565b600067ffffffffffffffff821115614ffe57614ffd6152ce565b5b61500782615338565b9050602081019050919050565b6000819050602082019050919050565b600081519050919050565b600081519050919050565b600081519050919050565b6000602082019050919050565b600082825260208201905092915050565b600082825260208201905092915050565b600081905092915050565b600082825260208201905092915050565b600061509b826151aa565b91506150a6836151aa565b9250827fffffffffffffffffffffffffffffffffffffffffffffffffffffffffffffffff038211156150db576150da615270565b5b828201905092915050565b60006150f1826151aa565b91506150fc836151aa565b9250817fffffffffffffffffffffffffffffffffffffffffffffffffffffffffffffffff048311821515161561513557615134615270565b5b828202905092915050565b600061514b8261518a565b9050919050565b60008115159050919050565b60007fffffffff0000000000000000000000000000000000000000000000000000000082169050919050565b600073ffffffffffffffffffffffffffffffffffffffff82169050919050565b6000819050919050565b82818337600083830152505050565b60005b838110156151e15780820151818401526020810190506151c6565b838111156151f0576000848401525b50505050565b6151ff82615338565b810181811067ffffffffffffffff8211171561521e5761521d6152ce565b5b80604052505050565b6000615232826151aa565b91507fffffffffffffffffffffffffffffffffffffffffffffffffffffffffffffffff82141561526557615264615270565b5b600182019050919050565b7f4e487b7100000000000000000000000000000000000000000000000000000000600052601160045260246000fd5b7f4e487b7100000000000000000000000000000000000000000000000000000000600052603260045260246000fd5b7f4e487b7100000000000000000000000000000000000000000000000000000000600052604160045260246000fd5b600060033d111561531c5760046000803e615319600051615349565b90505b90565b600080fd5b600080fd5b600080fd5b600080fd5b600080fd5b6000601f19601f8301169050919050565b60008160e01c9050919050565b7f455243313135353a207472616e7366657220746f206e6f6e204552433131353560008201527f526563656976657220696d706c656d656e746572000000000000000000000000602082015250565b7f455243313135353a2063616c6c6572206973206e6f7420746f6b656e206f776e60008201527f6572206e6f7220617070726f7665640000000000000000000000000000000000602082015250565b7f455243313135353a204552433131353552656365697665722072656a6563746560008201527f6420746f6b656e73000000000000000000000000000000000000000000000000602082015250565b7f5061757361626c653a206e6f7420706175736564000000000000000000000000600082015250565b7f45524332303a206e696c20616464726573730000000000000000000000000000600082015250565b7f4f776e61626c653a206e6577206f776e657220697320746865207a65726f206160008201527f6464726573730000000000000000000000000000000000000000000000000000602082015250565b7f455243313135353a206275726e20616d6f756e7420657863656564732062616c60008201527f616e636500000000000000000000000000000000000000000000000000000000602082015250565b7f50424d3a20416c726561647920696e697469616c697365640000000000000000600082015250565b7f455243313135353a2061646472657373207a65726f206973206e6f742061207660008201527f616c6964206f776e657200000000000000000000000000000000000000000000602082015250565b7f45524332303a20496e737566666963656e742062616c616e6365206f7220617060008201527f70726f76616c0000000000000000000000000000000000000000000000000000602082015250565b7f5061757361626c653a2070617573656400000000000000000000000000000000600082015250565b7f455243313135353a207472616e7366657220746f20746865207a65726f20616460008201527f6472657373000000000000000000000000000000000000000000000000000000602082015250565b7f455243313135353a206275726e2066726f6d20746865207a65726f206164647260008201527f6573730000000000000000000000000000000000000000000000000000000000602082015250565b7f455243313135353a20696e73756666696369656e742062616c616e636520666f60008201527f72207472616e7366657200000000000000000000000000000000000000000000602082015250565b7f4f776e61626c653a2063616c6c6572206973206e6f7420746865206f776e6572600082015250565b7f50424d3a206e6f7420696e697469616c69736564000000000000000000000000600082015250565b7f556e657175616c2069647320616e6420616d6f756e747320737570706c696564600082015250565b7f455243313135353a2073657474696e6720617070726f76616c2073746174757360008201527f20666f722073656c660000000000000000000000000000000000000000000000602082015250565b7f455243313135353a206163636f756e747320616e6420696473206c656e67746860008201527f206d69736d617463680000000000000000000000000000000000000000000000602082015250565b7f455243313135353a2069647320616e6420616d6f756e7473206c656e6774682060008201527f6d69736d61746368000000000000000000000000000000000000000000000000602082015250565b7f455243313135353a206d696e7420746f20746865207a65726f2061646472657360008201527f7300000000000000000000000000000000000000000000000000000000000000602082015250565b7f496e746572616374696f6e2077697468207468652073706f7420746f6b656e2060008201527f6661696c65642e00000000000000000000000000000000000000000000000000602082015250565b7f50424d3a2027746f27206164647265737320626c61636b6c6973746564000000600082015250565b7f546f6b656e4d616e61676572206f776e6572206e6f742050424d000000000000600082015250565b600060443d1015615978576159fb565b615980614f50565b60043d036004823e80513d602482011167ffffffffffffffff821117156159a85750506159fb565b808201805167ffffffffffffffff8111156159c657505050506159fb565b80602083010160043d0385018111156159e35750505050506159fb565b6159f2826020018501866151f6565b82955050505050505b90565b615a0781615140565b8114615a1257600080fd5b50565b615a1e81615152565b8114615a2957600080fd5b50565b615a358161515e565b8114615a4057600080fd5b50565b615a4c816151aa565b8114615a5757600080fd5b5056fea2646970667358221220d4fa6f5bcbfb20c51cf909d5bfc6f129163633ed3d4c348a83497995e83901d664736f6c63430008070033",
  "immutableReferences": {},
  "source": "// SPDX-License-Identifier: MIT\npragma solidity ^0.8.7;\n\nimport \"@openzeppelin/contracts/token/ERC1155/ERC1155.sol\";\nimport \"@openzeppelin/contracts/access/Ownable.sol\";\nimport \"@openzeppelin/contracts/security/Pausable.sol\";\n\nimport \"./ERC20Helper.sol\";  \nimport \"./PBMTokenManager.sol\";\nimport \"./IPBM.sol\";  \nimport \"./IPBMAddressList.sol\";\n\ncontract PBM is ERC1155, Ownable, Pausable, IPBM {  \n    \n    // undelrying ERC-20 tokens\n    address public spotToken = address(0); \n    // address of the token manager\n    address public pbmTokenManager = address(0); \n    // address of the PBM-Addresslist\n    address public pbmAddressList = address(0); \n\n    // tracks contract initialisation\n    bool internal initialised = false;\n    // time of expiry ( epoch )\n    uint256 public contractExpiry ; \n\n    constructor() ERC1155(\"\") {}\n\n    /**\n     * @dev See {IPBM-initalise}.\n     *\n     * Requirements:\n     *\n     * - caller must be owner \n     * - contract must not be intialised\n     * - owner of PBMTokenManager should be the PBM (this)\n     */\n    function initialise(address _spotToken, uint256 _expiry, address _pbmAddressList, address _pbmTokenManager)\n    external \n    override\n    onlyOwner\n    {\n        require(!initialised, \"PBM: Already initialised\"); \n        require(IPBMTokenManager(_pbmTokenManager).owner() == address(this), \"TokenManager owner not PBM\"); \n\n        spotToken = _spotToken;\n        contractExpiry = _expiry; \n        pbmAddressList = _pbmAddressList; \n        pbmTokenManager = _pbmTokenManager; \n\n        initialised = true; \n    }\n\n    /**\n     * @dev See {IPBM-createPBMTokenType}.\n     *\n     * Requirements:\n     *\n     * - caller must be owner \n     * - contract must be expired\n     * - `tokenExpiry` must be less than contract expiry\n     * - `amount` should not be 0\n     * - contract must not be initialised\n     */\n    function createPBMTokenType(string memory companyName, uint256 spotAmount, uint256 tokenExpiry,address creator, string memory tokenURI) \n    external \n    override\n    onlyOwner \n    {        \n        require(initialised, \"PBM: not initialised\"); \n        PBMTokenManager(pbmTokenManager).createTokenType(companyName, spotAmount, tokenExpiry, creator,  tokenURI, contractExpiry);\n    }\n\n    /**\n     * @dev See {IPBM-mint}.\n     *     \n     * IMPT: Before minting, the caller should approve the contract address to spend ERC-20 tokens on behalf of the caller.\n     *       This can be done by calling the `approve` or `increaseMinterAllowance` functions of the ERC-20 contract and specifying `_spender` to be the PBM contract address. \n             Ref : https://eips.ethereum.org/EIPS/eip-20\n     *\n     * Requirements:\n     *\n     * - contract must not be paused\n     * - contract must be initialised\n     * - tokens must not be expired\n     * - `tokenId` should be a valid id that has already been created\n     * - caller should have the necessary amount of the ERC-20 tokens required to mint\n     * - caller should have approved the PBM contract to spend the ERC-20 tokens\n     */\n    function mint(uint256 tokenId, uint256 amount, address receiver) \n    external  \n    override\n    whenNotPaused\n    {\n        require(initialised, \"PBM: not initialised\"); \n        uint256 valueOfNewTokens = amount*(PBMTokenManager(pbmTokenManager).getTokenValue(tokenId)); \n\n        //Transfer the spot token from the user to the contract to wrap it\n        ERC20Helper.safeTransferFrom(spotToken, msg.sender, address(this), valueOfNewTokens);\n\n        // mint the token if the contract - wrapping the xsgd\n        PBMTokenManager(pbmTokenManager).increaseBalanceSupply(serialise(tokenId), serialise(amount)) ; \n        _mint(receiver, tokenId, amount, ''); \n    }\n\n    /**\n     * @dev See {IPBM-batchMint}.\n     *     \n     * IMPT: Before minting, the caller should approve the contract address to spend ERC-20 tokens on behalf of the caller.\n     *       This can be done by calling the `approve` or `increaseMinterAllowance` functions of the ERC-20 contract and specifying `_spender` to be the PBM contract address. \n             Ref : https://eips.ethereum.org/EIPS/eip-20\n     *\n     * Requirements:\n     *\n     * - contract must not be paused\n     * - contract must be initialised\n     * - tokens must not be expired\n     * - `tokenIds` should all be valid ids that have already been created\n     * - `tokenIds` and `amounts` list need to have the same number of values\n     * - caller should have the necessary amount of the ERC-20 tokens required to mint\n     * - caller should have approved the PBM contract to spend the ERC-20 tokens\n     */\n    function batchMint(uint256[] memory tokenIds, uint256[] memory amounts, address receiver) \n    external \n    override\n    whenNotPaused\n    {   \n        require(initialised, \"PBM: not initialised\"); \n        require(tokenIds.length == amounts.length, \"Unequal ids and amounts supplied\"); \n\n        // calculate the value of the new tokens\n        uint256 valueOfNewTokens = 0 ; \n\n        for (uint256 i = 0; i < tokenIds.length; i++) {\n            valueOfNewTokens += (amounts[i]*(PBMTokenManager(pbmTokenManager).getTokenValue(tokenIds[i])));  \n        } \n\n        // Transfer spot tokenf from user to contract to wrap it\n        ERC20Helper.safeTransferFrom(spotToken, msg.sender, address(this), valueOfNewTokens);\n        PBMTokenManager(pbmTokenManager).increaseBalanceSupply(tokenIds, amounts);\n        _mintBatch(receiver, tokenIds, amounts, '');\n    }\n\n    /**\n     * @dev See {IPBM-safeTransferFrom}.\n     *     \n     *\n     * Requirements:\n     *\n     * - contract must not be paused\n     * - contract must be initialised\n     * - tokens must not be expired\n     * - `tokenId` should be a valid ids that has already been created\n     * - caller should have the PBMs that are being transferred (or)\n     *          caller should have the approval to spend the PBMs on behalf of the owner (`from` addresss)\n     */\n    function safeTransferFrom( address from, address to, uint256 id, uint256 amount, bytes memory data) \n    public   \n    override(ERC1155, IPBM)\n    whenNotPaused  \n    {\n        require(initialised, \"PBM: not initialised\"); \n        require(\n            from == _msgSender() || isApprovedForAll(from, _msgSender()),\n            \"ERC1155: caller is not token owner nor approved\"\n        );\n\n        if (IPBMAddressList(pbmAddressList).isMerchant(to)){\n            uint256 valueOfTokens = amount*(PBMTokenManager(pbmTokenManager).getTokenValue(id)); \n\n            // burn and transfer underlying ERC-20\n            _burn(from, id, amount);\n            PBMTokenManager(pbmTokenManager).decreaseBalanceSupply(serialise(id), serialise(amount)) ; \n            ERC20Helper.safeTransfer(spotToken, to, valueOfTokens);\n            emit MerchantPayment(from, to, serialise(id), serialise(amount), spotToken, valueOfTokens);\n\n        } else {\n            require(!IPBMAddressList(pbmAddressList).isBlacklisted(to), \"PBM: 'to' address blacklisted\");\n            _safeTransferFrom(from, to, id, amount, data);\n        }\n \n    }\n\n    /**\n     * @dev See {IPBM-safeBatchTransferFrom}.\n     *     \n     *\n     * Requirements:\n     *\n     * - contract must not be paused\n     * - contract must be initialised\n     * - tokens must not be expired\n     * - `tokenIds` should all be  valid ids that has already been created\n     * - `tokenIds` and `amounts` list need to have the same number of values\n     * - caller should have the PBMs that are being transferred (or)\n     *          caller should have the approval to spend the PBMs on behalf of the owner (`from` addresss)\n     */ \n    function safeBatchTransferFrom(address from,address to,uint256[] memory ids,uint256[] memory amounts, bytes memory data) \n    public  \n    override(ERC1155, IPBM)\n    whenNotPaused \n    {\n        require(initialised, \"PBM: not initialised\"); \n        require(\n            from == _msgSender() || isApprovedForAll(from, _msgSender()),\n            \"ERC1155: caller is not token owner nor approved\"\n        );\n        require(ids.length == amounts.length, \"Unequal ids and amounts supplied\"); \n\n        if (IPBMAddressList(pbmAddressList).isMerchant(to)) {\n            uint256 valueOfTokens = 0 ; \n            for (uint256 i = 0; i < ids.length; i++) {\n                valueOfTokens += (amounts[i]*(PBMTokenManager(pbmTokenManager).getTokenValue(ids[i]))) ; \n            } \n\n            _burnBatch(from, ids, amounts);\n            PBMTokenManager(pbmTokenManager).decreaseBalanceSupply(ids, amounts);\n            ERC20Helper.safeTransfer(spotToken, to, valueOfTokens);\n\n            emit MerchantPayment(from, to, ids, amounts, spotToken, valueOfTokens);\n\n        } else {\n            require(!IPBMAddressList(pbmAddressList).isBlacklisted(to), \"PBM: 'to' address blacklisted\");\n            _safeBatchTransferFrom(from, to, ids, amounts, data);\n        }\n    }\n    \n    /**\n     * @dev See {IPBM-revokePBM}.\n     *\n     * Requirements:\n     *\n     * - contract must be initialised\n     * - `tokenId` should be a valid ids that has already been created\n     * - caller must be the creator of the tokenType \n     * - token must be expired\n     */ \n    function revokePBM(uint256 tokenId) \n    external \n    override\n    whenNotPaused \n    {\n        require(initialised, \"PBM: not initialised\"); \n        uint256 valueOfTokens = PBMTokenManager(pbmTokenManager).getPBMRevokeValue(tokenId);\n\n        PBMTokenManager(pbmTokenManager).revokePBM(tokenId, msg.sender); \n\n        // transfering underlying ERC20 tokens\n        ERC20Helper.safeTransfer(spotToken, msg.sender, valueOfTokens);\n\n        emit PBMrevokeWithdraw(msg.sender, tokenId, spotToken, valueOfTokens);\n\n    }\n    /**\n     * @dev See {IPBM-getTokenDetails}.\n     *\n     */ \n    function getTokenDetails(uint256 tokenId) \n    external \n    view \n    override\n    returns (string memory, uint256, uint256, address) \n    {\n        return PBMTokenManager(pbmTokenManager).getTokenDetails(tokenId); \n    }\n\n    /**\n     * @dev See {IPBM-uri}.\n     *\n     */ \n    function uri(uint256 tokenId)\n    public  \n    view\n    override(ERC1155, IPBM)\n    returns (string memory)\n    {\n        return PBMTokenManager(pbmTokenManager).uri(tokenId);\n    }\n\n    /**\n     * @dev see {Pausable _pause}\n     *\n     * Requirements : \n     * - caller should be owner\n     */\n    function pause() \n    external \n    onlyOwner\n    {\n        _pause();\n    }\n\n    /**\n     * @dev see {Pausable _unpause}\n     *\n     * Requirements : \n     * - caller should be owner\n     */\n    function unpause()\n    external \n    onlyOwner\n    {\n        _unpause();\n    }\n\n    function serialise(uint256 num)\n    internal \n    pure\n    returns (uint256[] memory) {\n        uint256[] memory array  = new uint256[](1) ; \n        array[0] = num ; \n        return array ;\n    }\n}",
  "sourcePath": "/Users/mihir/Desktop/code/Orchid-PBM/contracts/PBM.sol",
  "compiler": {
    "name": "solc",
    "version": "0.8.7+commit.e28d00a7.Emscripten.clang"
  },
  "schemaVersion": "3.4.3",
  "updatedAt": "2022-10-11T06:54:12.071Z",
  "devdoc": {
    "kind": "dev",
    "methods": {
      "balanceOf(address,uint256)": {
        "details": "See {IERC1155-balanceOf}. Requirements: - `account` cannot be the zero address."
      },
      "balanceOfBatch(address[],uint256[])": {
        "details": "See {IERC1155-balanceOfBatch}. Requirements: - `accounts` and `ids` must have the same length."
      },
      "batchMint(uint256[],uint256[],address)": {
        "details": "See {IPBM-batchMint}.      IMPT: Before minting, the caller should approve the contract address to spend ERC-20 tokens on behalf of the caller.       This can be done by calling the `approve` or `increaseMinterAllowance` functions of the ERC-20 contract and specifying `_spender` to be the PBM contract address.  Ref : https://eips.ethereum.org/EIPS/eip-20 Requirements: - contract must not be paused - contract must be initialised - tokens must not be expired - `tokenIds` should all be valid ids that have already been created - `tokenIds` and `amounts` list need to have the same number of values - caller should have the necessary amount of the ERC-20 tokens required to mint - caller should have approved the PBM contract to spend the ERC-20 tokens"
      },
      "createPBMTokenType(string,uint256,uint256,address,string)": {
        "details": "See {IPBM-createPBMTokenType}. Requirements: - caller must be owner  - contract must be expired - `tokenExpiry` must be less than contract expiry - `amount` should not be 0 - contract must not be initialised"
      },
      "getTokenDetails(uint256)": {
        "details": "See {IPBM-getTokenDetails}."
      },
      "initialise(address,uint256,address,address)": {
        "details": "See {IPBM-initalise}. Requirements: - caller must be owner  - contract must not be intialised - owner of PBMTokenManager should be the PBM (this)"
      },
      "isApprovedForAll(address,address)": {
        "details": "See {IERC1155-isApprovedForAll}."
      },
      "mint(uint256,uint256,address)": {
        "details": "See {IPBM-mint}.      IMPT: Before minting, the caller should approve the contract address to spend ERC-20 tokens on behalf of the caller.       This can be done by calling the `approve` or `increaseMinterAllowance` functions of the ERC-20 contract and specifying `_spender` to be the PBM contract address.  Ref : https://eips.ethereum.org/EIPS/eip-20 Requirements: - contract must not be paused - contract must be initialised - tokens must not be expired - `tokenId` should be a valid id that has already been created - caller should have the necessary amount of the ERC-20 tokens required to mint - caller should have approved the PBM contract to spend the ERC-20 tokens"
      },
      "owner()": {
        "details": "Returns the address of the current owner."
      },
      "pause()": {
        "details": "see {Pausable _pause} Requirements :  - caller should be owner"
      },
      "paused()": {
        "details": "Returns true if the contract is paused, and false otherwise."
      },
      "renounceOwnership()": {
        "details": "Leaves the contract without owner. It will not be possible to call `onlyOwner` functions anymore. Can only be called by the current owner. NOTE: Renouncing ownership will leave the contract without an owner, thereby removing any functionality that is only available to the owner."
      },
      "revokePBM(uint256)": {
        "details": "See {IPBM-revokePBM}. Requirements: - contract must be initialised - `tokenId` should be a valid ids that has already been created - caller must be the creator of the tokenType  - token must be expired"
      },
      "safeBatchTransferFrom(address,address,uint256[],uint256[],bytes)": {
        "details": "See {IPBM-safeBatchTransferFrom}.      Requirements: - contract must not be paused - contract must be initialised - tokens must not be expired - `tokenIds` should all be  valid ids that has already been created - `tokenIds` and `amounts` list need to have the same number of values - caller should have the PBMs that are being transferred (or)          caller should have the approval to spend the PBMs on behalf of the owner (`from` addresss)"
      },
      "safeTransferFrom(address,address,uint256,uint256,bytes)": {
        "details": "See {IPBM-safeTransferFrom}.      Requirements: - contract must not be paused - contract must be initialised - tokens must not be expired - `tokenId` should be a valid ids that has already been created - caller should have the PBMs that are being transferred (or)          caller should have the approval to spend the PBMs on behalf of the owner (`from` addresss)"
      },
      "setApprovalForAll(address,bool)": {
        "details": "See {IERC1155-setApprovalForAll}."
      },
      "supportsInterface(bytes4)": {
        "details": "See {IERC165-supportsInterface}."
      },
      "transferOwnership(address)": {
        "details": "Transfers ownership of the contract to a new account (`newOwner`). Can only be called by the current owner."
      },
      "unpause()": {
        "details": "see {Pausable _unpause} Requirements :  - caller should be owner"
      },
      "uri(uint256)": {
        "details": "See {IPBM-uri}."
      }
    },
    "version": 1
  },
  "userdoc": {
    "events": {
      "MerchantPayment(address,address,uint256[],uint256[],address,uint256)": {
        "notice": "Emitted when underlying ERC-20 tokens are transferred to a whitelisted merchant ( payment )"
      },
      "PBMrevokeWithdraw(address,uint256,address,uint256)": {
        "notice": "Emitted when a PBM type creator withdraws the underlying ERC-20 tokens from all the remaining expired PBMs"
      }
    },
    "kind": "user",
    "methods": {},
    "version": 1
  }
}