{
  "contractName": "PBM",
  "abi": [
    {
      "inputs": [
        {
          "internalType": "address",
          "name": "_spotToken",
          "type": "address"
        },
        {
          "internalType": "uint256",
          "name": "_expiry",
          "type": "uint256"
        },
        {
          "internalType": "string",
          "name": "_uriPostExpiry",
          "type": "string"
        }
      ],
      "stateMutability": "nonpayable",
      "type": "constructor"
    },
    {
      "anonymous": false,
      "inputs": [
        {
          "indexed": true,
          "internalType": "address",
          "name": "account",
          "type": "address"
        },
        {
          "indexed": true,
          "internalType": "address",
          "name": "operator",
          "type": "address"
        },
        {
          "indexed": false,
          "internalType": "bool",
          "name": "approved",
          "type": "bool"
        }
      ],
      "name": "ApprovalForAll",
      "type": "event"
    },
    {
      "anonymous": false,
      "inputs": [
        {
          "indexed": false,
          "internalType": "address",
          "name": "from",
          "type": "address"
        },
        {
          "indexed": false,
          "internalType": "address",
          "name": "to",
          "type": "address"
        },
        {
          "indexed": false,
          "internalType": "uint256[]",
          "name": "tokenIds",
          "type": "uint256[]"
        },
        {
          "indexed": false,
          "internalType": "uint256[]",
          "name": "amounts",
          "type": "uint256[]"
        },
        {
          "indexed": false,
          "internalType": "address",
          "name": "ERC20Token",
          "type": "address"
        },
        {
          "indexed": false,
          "internalType": "uint256",
          "name": "ERC20TokenValue",
          "type": "uint256"
        }
      ],
      "name": "MerchantPayment",
      "type": "event"
    },
    {
      "anonymous": false,
      "inputs": [
        {
          "indexed": true,
          "internalType": "address",
          "name": "previousOwner",
          "type": "address"
        },
        {
          "indexed": true,
          "internalType": "address",
          "name": "newOwner",
          "type": "address"
        }
      ],
      "name": "OwnershipTransferred",
      "type": "event"
    },
    {
      "anonymous": false,
      "inputs": [
        {
          "indexed": false,
          "internalType": "address",
          "name": "beneficiary",
          "type": "address"
        },
        {
          "indexed": false,
          "internalType": "uint256",
          "name": "PBMTokenId",
          "type": "uint256"
        },
        {
          "indexed": false,
          "internalType": "address",
          "name": "ERC20Token",
          "type": "address"
        },
        {
          "indexed": false,
          "internalType": "uint256",
          "name": "ERC20TokenValue",
          "type": "uint256"
        }
      ],
      "name": "PBMrevokeWithdraw",
      "type": "event"
    },
    {
      "anonymous": false,
      "inputs": [
        {
          "indexed": false,
          "internalType": "address",
          "name": "account",
          "type": "address"
        }
      ],
      "name": "Paused",
      "type": "event"
    },
    {
      "anonymous": false,
      "inputs": [
        {
          "indexed": true,
          "internalType": "address",
          "name": "operator",
          "type": "address"
        },
        {
          "indexed": true,
          "internalType": "address",
          "name": "from",
          "type": "address"
        },
        {
          "indexed": true,
          "internalType": "address",
          "name": "to",
          "type": "address"
        },
        {
          "indexed": false,
          "internalType": "uint256[]",
          "name": "ids",
          "type": "uint256[]"
        },
        {
          "indexed": false,
          "internalType": "uint256[]",
          "name": "values",
          "type": "uint256[]"
        }
      ],
      "name": "TransferBatch",
      "type": "event"
    },
    {
      "anonymous": false,
      "inputs": [
        {
          "indexed": true,
          "internalType": "address",
          "name": "operator",
          "type": "address"
        },
        {
          "indexed": true,
          "internalType": "address",
          "name": "from",
          "type": "address"
        },
        {
          "indexed": true,
          "internalType": "address",
          "name": "to",
          "type": "address"
        },
        {
          "indexed": false,
          "internalType": "uint256",
          "name": "id",
          "type": "uint256"
        },
        {
          "indexed": false,
          "internalType": "uint256",
          "name": "value",
          "type": "uint256"
        }
      ],
      "name": "TransferSingle",
      "type": "event"
    },
    {
      "anonymous": false,
      "inputs": [
        {
          "indexed": false,
          "internalType": "string",
          "name": "value",
          "type": "string"
        },
        {
          "indexed": true,
          "internalType": "uint256",
          "name": "id",
          "type": "uint256"
        }
      ],
      "name": "URI",
      "type": "event"
    },
    {
      "anonymous": false,
      "inputs": [
        {
          "indexed": false,
          "internalType": "address",
          "name": "account",
          "type": "address"
        }
      ],
      "name": "Unpaused",
      "type": "event"
    },
    {
      "inputs": [
        {
          "internalType": "address",
          "name": "account",
          "type": "address"
        },
        {
          "internalType": "uint256",
          "name": "id",
          "type": "uint256"
        }
      ],
      "name": "balanceOf",
      "outputs": [
        {
          "internalType": "uint256",
          "name": "",
          "type": "uint256"
        }
      ],
      "stateMutability": "view",
      "type": "function"
    },
    {
      "inputs": [
        {
          "internalType": "address[]",
          "name": "accounts",
          "type": "address[]"
        },
        {
          "internalType": "uint256[]",
          "name": "ids",
          "type": "uint256[]"
        }
      ],
      "name": "balanceOfBatch",
      "outputs": [
        {
          "internalType": "uint256[]",
          "name": "",
          "type": "uint256[]"
        }
      ],
      "stateMutability": "view",
      "type": "function"
    },
    {
      "inputs": [],
      "name": "contractExpiry",
      "outputs": [
        {
          "internalType": "uint256",
          "name": "",
          "type": "uint256"
        }
      ],
      "stateMutability": "view",
      "type": "function"
    },
    {
      "inputs": [
        {
          "internalType": "address",
          "name": "account",
          "type": "address"
        },
        {
          "internalType": "address",
          "name": "operator",
          "type": "address"
        }
      ],
      "name": "isApprovedForAll",
      "outputs": [
        {
          "internalType": "bool",
          "name": "",
          "type": "bool"
        }
      ],
      "stateMutability": "view",
      "type": "function"
    },
    {
      "inputs": [
        {
          "internalType": "address",
          "name": "",
          "type": "address"
        }
      ],
      "name": "merchantList",
      "outputs": [
        {
          "internalType": "bool",
          "name": "",
          "type": "bool"
        }
      ],
      "stateMutability": "view",
      "type": "function"
    },
    {
      "inputs": [],
      "name": "owner",
      "outputs": [
        {
          "internalType": "address",
          "name": "",
          "type": "address"
        }
      ],
      "stateMutability": "view",
      "type": "function"
    },
    {
      "inputs": [],
      "name": "paused",
      "outputs": [
        {
          "internalType": "bool",
          "name": "",
          "type": "bool"
        }
      ],
      "stateMutability": "view",
      "type": "function"
    },
    {
      "inputs": [],
      "name": "pbmTokenManager",
      "outputs": [
        {
          "internalType": "address",
          "name": "",
          "type": "address"
        }
      ],
      "stateMutability": "view",
      "type": "function"
    },
    {
      "inputs": [],
      "name": "renounceOwnership",
      "outputs": [],
      "stateMutability": "nonpayable",
      "type": "function"
    },
    {
      "inputs": [
        {
          "internalType": "address",
          "name": "operator",
          "type": "address"
        },
        {
          "internalType": "bool",
          "name": "approved",
          "type": "bool"
        }
      ],
      "name": "setApprovalForAll",
      "outputs": [],
      "stateMutability": "nonpayable",
      "type": "function"
    },
    {
      "inputs": [],
      "name": "spotToken",
      "outputs": [
        {
          "internalType": "address",
          "name": "",
          "type": "address"
        }
      ],
      "stateMutability": "view",
      "type": "function"
    },
    {
      "inputs": [
        {
          "internalType": "bytes4",
          "name": "interfaceId",
          "type": "bytes4"
        }
      ],
      "name": "supportsInterface",
      "outputs": [
        {
          "internalType": "bool",
          "name": "",
          "type": "bool"
        }
      ],
      "stateMutability": "view",
      "type": "function"
    },
    {
      "inputs": [
        {
          "internalType": "address",
          "name": "newOwner",
          "type": "address"
        }
      ],
      "name": "transferOwnership",
      "outputs": [],
      "stateMutability": "nonpayable",
      "type": "function"
    },
    {
      "inputs": [
        {
          "internalType": "uint256",
          "name": "newExpiry",
          "type": "uint256"
        }
      ],
      "name": "updatePBMExpiry",
      "outputs": [],
      "stateMutability": "nonpayable",
      "type": "function"
    },
    {
      "inputs": [
        {
          "internalType": "address[]",
          "name": "addresses",
          "type": "address[]"
        }
      ],
      "name": "addMerchantAddresses",
      "outputs": [],
      "stateMutability": "nonpayable",
      "type": "function"
    },
    {
      "inputs": [
        {
          "internalType": "address[]",
          "name": "addresses",
          "type": "address[]"
        }
      ],
      "name": "removeMerchantAddresses",
      "outputs": [],
      "stateMutability": "nonpayable",
      "type": "function"
    },
    {
      "inputs": [
        {
          "internalType": "string",
          "name": "companyName",
          "type": "string"
        },
        {
          "internalType": "uint256",
          "name": "spotAmount",
          "type": "uint256"
        },
        {
          "internalType": "uint256",
          "name": "tokenExpiry",
          "type": "uint256"
        },
        {
          "internalType": "address",
          "name": "creator",
          "type": "address"
        },
        {
          "internalType": "string",
          "name": "tokenURI",
          "type": "string"
        }
      ],
      "name": "createPBMTokenType",
      "outputs": [],
      "stateMutability": "nonpayable",
      "type": "function"
    },
    {
      "inputs": [
        {
          "internalType": "uint256",
          "name": "tokenId",
          "type": "uint256"
        },
        {
          "internalType": "uint256",
          "name": "amount",
          "type": "uint256"
        },
        {
          "internalType": "address",
          "name": "receiver",
          "type": "address"
        }
      ],
      "name": "mint",
      "outputs": [],
      "stateMutability": "nonpayable",
      "type": "function"
    },
    {
      "inputs": [
        {
          "internalType": "uint256[]",
          "name": "tokenIds",
          "type": "uint256[]"
        },
        {
          "internalType": "uint256[]",
          "name": "amounts",
          "type": "uint256[]"
        },
        {
          "internalType": "address",
          "name": "receiver",
          "type": "address"
        }
      ],
      "name": "batchMint",
      "outputs": [],
      "stateMutability": "nonpayable",
      "type": "function"
    },
    {
      "inputs": [
        {
          "internalType": "address",
          "name": "from",
          "type": "address"
        },
        {
          "internalType": "address",
          "name": "to",
          "type": "address"
        },
        {
          "internalType": "uint256",
          "name": "id",
          "type": "uint256"
        },
        {
          "internalType": "uint256",
          "name": "amount",
          "type": "uint256"
        },
        {
          "internalType": "bytes",
          "name": "data",
          "type": "bytes"
        }
      ],
      "name": "safeTransferFrom",
      "outputs": [],
      "stateMutability": "nonpayable",
      "type": "function"
    },
    {
      "inputs": [
        {
          "internalType": "address",
          "name": "from",
          "type": "address"
        },
        {
          "internalType": "address",
          "name": "to",
          "type": "address"
        },
        {
          "internalType": "uint256[]",
          "name": "ids",
          "type": "uint256[]"
        },
        {
          "internalType": "uint256[]",
          "name": "amounts",
          "type": "uint256[]"
        },
        {
          "internalType": "bytes",
          "name": "data",
          "type": "bytes"
        }
      ],
      "name": "safeBatchTransferFrom",
      "outputs": [],
      "stateMutability": "nonpayable",
      "type": "function"
    },
    {
      "inputs": [
        {
          "internalType": "uint256",
          "name": "tokenId",
          "type": "uint256"
        }
      ],
      "name": "revokePBM",
      "outputs": [],
      "stateMutability": "nonpayable",
      "type": "function"
    },
    {
      "inputs": [
        {
          "internalType": "uint256",
          "name": "tokenId",
          "type": "uint256"
        }
      ],
      "name": "getTokenDetails",
      "outputs": [
        {
          "internalType": "string",
          "name": "",
          "type": "string"
        },
        {
          "internalType": "uint256",
          "name": "",
          "type": "uint256"
        },
        {
          "internalType": "uint256",
          "name": "",
          "type": "uint256"
        },
        {
          "internalType": "address",
          "name": "",
          "type": "address"
        }
      ],
      "stateMutability": "view",
      "type": "function"
    },
    {
      "inputs": [
        {
          "internalType": "uint256",
          "name": "tokenId",
          "type": "uint256"
        }
      ],
      "name": "uri",
      "outputs": [
        {
          "internalType": "string",
          "name": "",
          "type": "string"
        }
      ],
      "stateMutability": "view",
      "type": "function"
    }
  ],
  "bytecode": "0x60806040523480156200001157600080fd5b5060405162007e5338038062007e538339818101604052810190620000379190620003b2565b6040518060200160405280600081525062000058816200015e60201b60201c565b50620000796200006d6200017a60201b60201c565b6200018260201b60201c565b6000600360146101000a81548160ff02191690831515021790555082600460006101000a81548173ffffffffffffffffffffffffffffffffffffffff021916908373ffffffffffffffffffffffffffffffffffffffff1602179055508160068190555080604051620000eb9062000248565b620000f791906200046e565b604051809103906000f08015801562000114573d6000803e3d6000fd5b50600560006101000a81548173ffffffffffffffffffffffffffffffffffffffff021916908373ffffffffffffffffffffffffffffffffffffffff160217905550505050620006a4565b80600290805190602001906200017692919062000256565b5050565b600033905090565b6000600360009054906101000a900473ffffffffffffffffffffffffffffffffffffffff16905081600360006101000a81548173ffffffffffffffffffffffffffffffffffffffff021916908373ffffffffffffffffffffffffffffffffffffffff1602179055508173ffffffffffffffffffffffffffffffffffffffff168173ffffffffffffffffffffffffffffffffffffffff167f8be0079c531659141344cd1fd0a4f28419497f9722a3daafe3b4186f6b6457e060405160405180910390a35050565b611fbb8062005e9883390190565b828054620002649062000581565b90600052602060002090601f016020900481019282620002885760008555620002d4565b82601f10620002a357805160ff1916838001178555620002d4565b82800160010185558215620002d4579182015b82811115620002d3578251825591602001919060010190620002b6565b5b509050620002e39190620002e7565b5090565b5b8082111562000302576000816000905550600101620002e8565b5090565b60006200031d6200031784620004bb565b62000492565b9050828152602081018484840111156200033c576200033b62000650565b5b620003498482856200054b565b509392505050565b600081519050620003628162000670565b92915050565b600082601f83011262000380576200037f6200064b565b5b81516200039284826020860162000306565b91505092915050565b600081519050620003ac816200068a565b92915050565b600080600060608486031215620003ce57620003cd6200065a565b5b6000620003de8682870162000351565b9350506020620003f1868287016200039b565b925050604084015167ffffffffffffffff81111562000415576200041462000655565b5b620004238682870162000368565b9150509250925092565b60006200043a82620004f1565b620004468185620004fc565b9350620004588185602086016200054b565b62000463816200065f565b840191505092915050565b600060208201905081810360008301526200048a81846200042d565b905092915050565b60006200049e620004b1565b9050620004ac8282620005b7565b919050565b6000604051905090565b600067ffffffffffffffff821115620004d957620004d86200061c565b5b620004e4826200065f565b9050602081019050919050565b600081519050919050565b600082825260208201905092915050565b60006200051a8262000521565b9050919050565b600073ffffffffffffffffffffffffffffffffffffffff82169050919050565b6000819050919050565b60005b838110156200056b5780820151818401526020810190506200054e565b838111156200057b576000848401525b50505050565b600060028204905060018216806200059a57607f821691505b60208210811415620005b157620005b0620005ed565b5b50919050565b620005c2826200065f565b810181811067ffffffffffffffff82111715620005e457620005e36200061c565b5b80604052505050565b7f4e487b7100000000000000000000000000000000000000000000000000000000600052602260045260246000fd5b7f4e487b7100000000000000000000000000000000000000000000000000000000600052604160045260246000fd5b600080fd5b600080fd5b600080fd5b600080fd5b6000601f19601f8301169050919050565b6200067b816200050d565b81146200068757600080fd5b50565b620006958162000541565b8114620006a157600080fd5b50565b6157e480620006b46000396000f3fe608060405234801561001057600080fd5b50600436106101575760003560e01c8063715018a6116100c3578063e10adc161161007c578063e10adc16146103c7578063e7d3fe6b146103e3578063e985e9c5146103ff578063f242432a1461042f578063f2fde38b1461044b578063fb34b2011461046757610157565b8063715018a61461031657806373e17e761461032057806389aba6421461033c5780638da5cb5b1461035a578063a22cb46514610378578063c1e037281461039457610157565b806330a5d1c01161011557806330a5d1c0146102565780634e1273f414610272578063517c01aa146102a25780635c975abb146102be5780635ed7be9d146102dc57806363be47d2146102f857610157565b8062fdd58e1461015c57806301ffc9a71461018c5780630ad89462146101bc5780630e89341c146101da578063294adb5a1461020a5780632eb2c2d61461023a575b600080fd5b61017660048036038101906101719190613d99565b610483565b6040516101839190614c48565b60405180910390f35b6101a660048036038101906101a19190613f52565b61054c565b6040516101b39190614890565b60405180910390f35b6101c461062e565b6040516101d19190614646565b60405180910390f35b6101f460048036038101906101ef919061412b565b610654565b60405161020191906148ab565b60405180910390f35b610224600480360381019061021f9190613b86565b61070d565b6040516102319190614890565b60405180910390f35b610254600480360381019061024f9190613bf3565b61072d565b005b610270600480360381019061026b9190613dd9565b610b9f565b005b61028c60048036038101906102879190613e22565b610c80565b6040516102999190614837565b60405180910390f35b6102bc60048036038101906102b7919061412b565b610d99565b005b6102c6610e3b565b6040516102d39190614890565b60405180910390f35b6102f660048036038101906102f19190614078565b610e52565b005b610300610efa565b60405161030d9190614646565b60405180910390f35b61031e610f20565b005b61033a6004803603810190610335919061412b565b610f34565b005b6103446111c5565b6040516103519190614c48565b60405180910390f35b6103626111cb565b60405161036f9190614646565b60405180910390f35b610392600480360381019061038d9190613d59565b6111f5565b005b6103ae60048036038101906103a9919061412b565b61120b565b6040516103be94939291906148cd565b60405180910390f35b6103e160048036038101906103dc9190613dd9565b6112d1565b005b6103fd60048036038101906103f89190614185565b6113b2565b005b61041960048036038101906104149190613bb3565b611654565b6040516104269190614890565b60405180910390f35b61044960048036038101906104449190613cc2565b6116e8565b005b61046560048036038101906104609190613b86565b611ae0565b005b610481600480360381019061047c9190613e9a565b611b64565b005b60008073ffffffffffffffffffffffffffffffffffffffff168373ffffffffffffffffffffffffffffffffffffffff1614156104f4576040517f08c379a00000000000000000000000000000000000000000000000000000000081526004016104eb90614a88565b60405180910390fd5b60008083815260200190815260200160002060008473ffffffffffffffffffffffffffffffffffffffff1673ffffffffffffffffffffffffffffffffffffffff16815260200190815260200160002054905092915050565b60007fd9b67a26000000000000000000000000000000000000000000000000000000007bffffffffffffffffffffffffffffffffffffffffffffffffffffffff1916827bffffffffffffffffffffffffffffffffffffffffffffffffffffffff1916148061061757507f0e89341c000000000000000000000000000000000000000000000000000000007bffffffffffffffffffffffffffffffffffffffffffffffffffffffff1916827bffffffffffffffffffffffffffffffffffffffffffffffffffffffff1916145b80610627575061062682611e91565b5b9050919050565b600460009054906101000a900473ffffffffffffffffffffffffffffffffffffffff1681565b6060600560009054906101000a900473ffffffffffffffffffffffffffffffffffffffff1673ffffffffffffffffffffffffffffffffffffffff16630e89341c836040518263ffffffff1660e01b81526004016106b19190614c48565b60006040518083038186803b1580156106c957600080fd5b505afa1580156106dd573d6000803e3d6000fd5b505050506040513d6000823e3d601f19601f820116820180604052508101906107069190613fac565b9050919050565b60076020528060005260406000206000915054906101000a900460ff1681565b610735611efb565b61073d611f45565b73ffffffffffffffffffffffffffffffffffffffff168573ffffffffffffffffffffffffffffffffffffffff16148061078357506107828561077d611f45565b611654565b5b6107c2576040517f08c379a00000000000000000000000000000000000000000000000000000000081526004016107b9906149a8565b60405180910390fd5b8151835114610806576040517f08c379a00000000000000000000000000000000000000000000000000000000081526004016107fd90614b88565b60405180910390fd5b600560009054906101000a900473ffffffffffffffffffffffffffffffffffffffff1673ffffffffffffffffffffffffffffffffffffffff166348fd09f5846040518263ffffffff1660e01b81526004016108619190614837565b60206040518083038186803b15801561087957600080fd5b505afa15801561088d573d6000803e3d6000fd5b505050506040513d601f19601f820116820180604052508101906108b19190613f25565b6108f0576040517f08c379a00000000000000000000000000000000000000000000000000000000081526004016108e7906149e8565b60405180910390fd5b600760008573ffffffffffffffffffffffffffffffffffffffff1673ffffffffffffffffffffffffffffffffffffffff16815260200190815260200160002060009054906101000a900460ff1615610b8a576000805b8451811015610a5957600560009054906101000a900473ffffffffffffffffffffffffffffffffffffffff1673ffffffffffffffffffffffffffffffffffffffff1663d10424c78683815181106109a05761099f61501f565b5b60200260200101516040518263ffffffff1660e01b81526004016109c49190614c48565b60206040518083038186803b1580156109dc57600080fd5b505afa1580156109f0573d6000803e3d6000fd5b505050506040513d601f19601f82011682018060405250810190610a149190614158565b848281518110610a2757610a2661501f565b5b6020026020010151610a399190614e66565b82610a449190614e10565b91508080610a5190614fa7565b915050610946565b50610a65868585611f4d565b600560009054906101000a900473ffffffffffffffffffffffffffffffffffffffff1673ffffffffffffffffffffffffffffffffffffffff1663e21c8b5985856040518363ffffffff1660e01b8152600401610ac2929190614859565b600060405180830381600087803b158015610adc57600080fd5b505af1158015610af0573d6000803e3d6000fd5b50505050610b21600460009054906101000a900473ffffffffffffffffffffffffffffffffffffffff16868361221c565b7f68c9cd42836993caa70415e61f3c3baceb0bb31dcb22af6e5e0db98fa8870fac86868686600460009054906101000a900473ffffffffffffffffffffffffffffffffffffffff1686604051610b7c96959493929190614661565b60405180910390a150610b98565b610b978585858585612371565b5b5050505050565b610ba7612693565b6006544210610beb576040517f08c379a0000000000000000000000000000000000000000000000000000000008152600401610be290614a68565b60405180910390fd5b60005b8151811015610c7c57600060076000848481518110610c1057610c0f61501f565b5b602002602001015173ffffffffffffffffffffffffffffffffffffffff1673ffffffffffffffffffffffffffffffffffffffff16815260200190815260200160002060006101000a81548160ff0219169083151502179055508080610c7490614fa7565b915050610bee565b5050565b60608151835114610cc6576040517f08c379a0000000000000000000000000000000000000000000000000000000008152600401610cbd90614bc8565b60405180910390fd5b6000835167ffffffffffffffff811115610ce357610ce261504e565b5b604051908082528060200260200182016040528015610d115781602001602082028036833780820191505090505b50905060005b8451811015610d8e57610d5e858281518110610d3657610d3561501f565b5b6020026020010151858381518110610d5157610d5061501f565b5b6020026020010151610483565b828281518110610d7157610d7061501f565b5b60200260200101818152505080610d8790614fa7565b9050610d17565b508091505092915050565b610da1612693565b610da9611efb565b6006544210610ded576040517f08c379a0000000000000000000000000000000000000000000000000000000008152600401610de490614a68565b60405180910390fd5b6006548111610e31576040517f08c379a0000000000000000000000000000000000000000000000000000000008152600401610e2890614b68565b60405180910390fd5b8060068190555050565b6000600360149054906101000a900460ff16905090565b610e5a612693565b600560009054906101000a900473ffffffffffffffffffffffffffffffffffffffff1673ffffffffffffffffffffffffffffffffffffffff166380d69c8a86868686866006546040518763ffffffff1660e01b8152600401610ec196959493929190614919565b600060405180830381600087803b158015610edb57600080fd5b505af1158015610eef573d6000803e3d6000fd5b505050505050505050565b600560009054906101000a900473ffffffffffffffffffffffffffffffffffffffff1681565b610f28612693565b610f326000612711565b565b610f3c611efb565b6000600560009054906101000a900473ffffffffffffffffffffffffffffffffffffffff1673ffffffffffffffffffffffffffffffffffffffff1663234661c4836040518263ffffffff1660e01b8152600401610f999190614c48565b60206040518083038186803b158015610fb157600080fd5b505afa158015610fc5573d6000803e3d6000fd5b505050506040513d601f19601f82011682018060405250810190610fe99190614158565b90506000600560009054906101000a900473ffffffffffffffffffffffffffffffffffffffff1673ffffffffffffffffffffffffffffffffffffffff1663d10424c7846040518263ffffffff1660e01b81526004016110489190614c48565b60206040518083038186803b15801561106057600080fd5b505afa158015611074573d6000803e3d6000fd5b505050506040513d601f19601f820116820180604052508101906110989190614158565b826110a39190614e66565b9050600560009054906101000a900473ffffffffffffffffffffffffffffffffffffffff1673ffffffffffffffffffffffffffffffffffffffff166336a3409c84336040518363ffffffff1660e01b8152600401611102929190614c63565b600060405180830381600087803b15801561111c57600080fd5b505af1158015611130573d6000803e3d6000fd5b50505050611161600460009054906101000a900473ffffffffffffffffffffffffffffffffffffffff16338361221c565b7fa1c359e2aefcb2a02fa122099023552498d16ee2c91b81d3cfd8cd086f037d443384600460009054906101000a900473ffffffffffffffffffffffffffffffffffffffff16846040516111b894939291906147f2565b60405180910390a1505050565b60065481565b6000600360009054906101000a900473ffffffffffffffffffffffffffffffffffffffff16905090565b611207611200611f45565b83836127d7565b5050565b60606000806000600560009054906101000a900473ffffffffffffffffffffffffffffffffffffffff1673ffffffffffffffffffffffffffffffffffffffff1663c1e03728866040518263ffffffff1660e01b815260040161126d9190614c48565b60006040518083038186803b15801561128557600080fd5b505afa158015611299573d6000803e3d6000fd5b505050506040513d6000823e3d601f19601f820116820180604052508101906112c29190613ff5565b93509350935093509193509193565b6112d9612693565b600654421061131d576040517f08c379a000000000000000000000000000000000000000000000000000000000815260040161131490614a68565b60405180910390fd5b60005b81518110156113ae576001600760008484815181106113425761134161501f565b5b602002602001015173ffffffffffffffffffffffffffffffffffffffff1673ffffffffffffffffffffffffffffffffffffffff16815260200190815260200160002060006101000a81548160ff02191690831515021790555080806113a690614fa7565b915050611320565b5050565b6113ba611efb565b600560009054906101000a900473ffffffffffffffffffffffffffffffffffffffff1673ffffffffffffffffffffffffffffffffffffffff166348fd09f561140185612944565b6040518263ffffffff1660e01b815260040161141d9190614837565b60206040518083038186803b15801561143557600080fd5b505afa158015611449573d6000803e3d6000fd5b505050506040513d601f19601f8201168201806040525081019061146d9190613f25565b6114ac576040517f08c379a00000000000000000000000000000000000000000000000000000000081526004016114a390614a08565b60405180910390fd5b6000600560009054906101000a900473ffffffffffffffffffffffffffffffffffffffff1673ffffffffffffffffffffffffffffffffffffffff1663d10424c7856040518263ffffffff1660e01b81526004016115099190614c48565b60206040518083038186803b15801561152157600080fd5b505afa158015611535573d6000803e3d6000fd5b505050506040513d601f19601f820116820180604052508101906115599190614158565b836115649190614e66565b9050611594600460009054906101000a900473ffffffffffffffffffffffffffffffffffffffff163330846129be565b600560009054906101000a900473ffffffffffffffffffffffffffffffffffffffff1673ffffffffffffffffffffffffffffffffffffffff1663f600d9f46115db86612944565b6115e486612944565b6040518363ffffffff1660e01b8152600401611601929190614859565b600060405180830381600087803b15801561161b57600080fd5b505af115801561162f573d6000803e3d6000fd5b5050505061164e82858560405180602001604052806000815250612b16565b50505050565b6000600160008473ffffffffffffffffffffffffffffffffffffffff1673ffffffffffffffffffffffffffffffffffffffff16815260200190815260200160002060008373ffffffffffffffffffffffffffffffffffffffff1673ffffffffffffffffffffffffffffffffffffffff16815260200190815260200160002060009054906101000a900460ff16905092915050565b6116f0611efb565b6116f8611f45565b73ffffffffffffffffffffffffffffffffffffffff168573ffffffffffffffffffffffffffffffffffffffff16148061173e575061173d85611738611f45565b611654565b5b61177d576040517f08c379a0000000000000000000000000000000000000000000000000000000008152600401611774906149a8565b60405180910390fd5b600560009054906101000a900473ffffffffffffffffffffffffffffffffffffffff1673ffffffffffffffffffffffffffffffffffffffff166348fd09f56117c485612944565b6040518263ffffffff1660e01b81526004016117e09190614837565b60206040518083038186803b1580156117f857600080fd5b505afa15801561180c573d6000803e3d6000fd5b505050506040513d601f19601f820116820180604052508101906118309190613f25565b61186f576040517f08c379a000000000000000000000000000000000000000000000000000000000815260040161186690614a08565b60405180910390fd5b600760008573ffffffffffffffffffffffffffffffffffffffff1673ffffffffffffffffffffffffffffffffffffffff16815260200190815260200160002060009054906101000a900460ff1615611acb576000600560009054906101000a900473ffffffffffffffffffffffffffffffffffffffff1673ffffffffffffffffffffffffffffffffffffffff1663d10424c7856040518263ffffffff1660e01b815260040161191e9190614c48565b60206040518083038186803b15801561193657600080fd5b505afa15801561194a573d6000803e3d6000fd5b505050506040513d601f19601f8201168201806040525081019061196e9190614158565b836119799190614e66565b9050611986868585612cc7565b600560009054906101000a900473ffffffffffffffffffffffffffffffffffffffff1673ffffffffffffffffffffffffffffffffffffffff1663e21c8b596119cd86612944565b6119d686612944565b6040518363ffffffff1660e01b81526004016119f3929190614859565b600060405180830381600087803b158015611a0d57600080fd5b505af1158015611a21573d6000803e3d6000fd5b50505050611a52600460009054906101000a900473ffffffffffffffffffffffffffffffffffffffff16868361221c565b7f68c9cd42836993caa70415e61f3c3baceb0bb31dcb22af6e5e0db98fa8870fac8686611a7e87612944565b611a8787612944565b600460009054906101000a900473ffffffffffffffffffffffffffffffffffffffff1686604051611abd96959493929190614661565b60405180910390a150611ad9565b611ad88585858585612f0e565b5b5050505050565b611ae8612693565b600073ffffffffffffffffffffffffffffffffffffffff168173ffffffffffffffffffffffffffffffffffffffff161415611b58576040517f08c379a0000000000000000000000000000000000000000000000000000000008152600401611b4f90614a28565b60405180910390fd5b611b6181612711565b50565b611b6c611efb565b8151835114611bb0576040517f08c379a0000000000000000000000000000000000000000000000000000000008152600401611ba790614b88565b60405180910390fd5b6000600560009054906101000a900473ffffffffffffffffffffffffffffffffffffffff1673ffffffffffffffffffffffffffffffffffffffff166348fd09f5856040518263ffffffff1660e01b8152600401611c0d9190614837565b60206040518083038186803b158015611c2557600080fd5b505afa158015611c39573d6000803e3d6000fd5b505050506040513d601f19601f82011682018060405250810190611c5d9190613f25565b611c9c576040517f08c379a0000000000000000000000000000000000000000000000000000000008152600401611c93906149e8565b60405180910390fd5b60005b8451811015611db257600560009054906101000a900473ffffffffffffffffffffffffffffffffffffffff1673ffffffffffffffffffffffffffffffffffffffff1663d10424c7868381518110611cf957611cf861501f565b5b60200260200101516040518263ffffffff1660e01b8152600401611d1d9190614c48565b60206040518083038186803b158015611d3557600080fd5b505afa158015611d49573d6000803e3d6000fd5b505050506040513d601f19601f82011682018060405250810190611d6d9190614158565b848281518110611d8057611d7f61501f565b5b6020026020010151611d929190614e66565b82611d9d9190614e10565b91508080611daa90614fa7565b915050611c9f565b50611de1600460009054906101000a900473ffffffffffffffffffffffffffffffffffffffff163330846129be565b600560009054906101000a900473ffffffffffffffffffffffffffffffffffffffff1673ffffffffffffffffffffffffffffffffffffffff1663f600d9f485856040518363ffffffff1660e01b8152600401611e3e929190614859565b600060405180830381600087803b158015611e5857600080fd5b505af1158015611e6c573d6000803e3d6000fd5b50505050611e8b828585604051806020016040528060008152506131aa565b50505050565b60007f01ffc9a7000000000000000000000000000000000000000000000000000000007bffffffffffffffffffffffffffffffffffffffffffffffffffffffff1916827bffffffffffffffffffffffffffffffffffffffffffffffffffffffff1916149050919050565b611f03610e3b565b15611f43576040517f08c379a0000000000000000000000000000000000000000000000000000000008152600401611f3a90614ac8565b60405180910390fd5b565b600033905090565b600073ffffffffffffffffffffffffffffffffffffffff168373ffffffffffffffffffffffffffffffffffffffff161415611fbd576040517f08c379a0000000000000000000000000000000000000000000000000000000008152600401611fb490614b08565b60405180910390fd5b8051825114612001576040517f08c379a0000000000000000000000000000000000000000000000000000000008152600401611ff890614be8565b60405180910390fd5b600061200b611f45565b905061202b818560008686604051806020016040528060008152506133d7565b60005b835181101561217857600084828151811061204c5761204b61501f565b5b60200260200101519050600084838151811061206b5761206a61501f565b5b60200260200101519050600080600084815260200190815260200160002060008973ffffffffffffffffffffffffffffffffffffffff1673ffffffffffffffffffffffffffffffffffffffff1681526020019081526020016000205490508181101561210c576040517f08c379a000000000000000000000000000000000000000000000000000000000815260040161210390614a48565b60405180910390fd5b81810360008085815260200190815260200160002060008a73ffffffffffffffffffffffffffffffffffffffff1673ffffffffffffffffffffffffffffffffffffffff16815260200190815260200160002081905550505050808061217090614fa7565b91505061202e565b50600073ffffffffffffffffffffffffffffffffffffffff168473ffffffffffffffffffffffffffffffffffffffff168273ffffffffffffffffffffffffffffffffffffffff167f4a39dc06d4c0dbc64b70af90fd698a233a518aa5d07e595d983b8c0526c8f7fb86866040516121f0929190614859565b60405180910390a4612216818560008686604051806020016040528060008152506133df565b50505050565b6000808473ffffffffffffffffffffffffffffffffffffffff1663a9059cbb60e01b85856040516024016122519291906147c9565b604051602081830303815290604052907bffffffffffffffffffffffffffffffffffffffffffffffffffffffff19166020820180517bffffffffffffffffffffffffffffffffffffffffffffffffffffffff83818316178352505050506040516122bb919061462f565b6000604051808303816000865af19150503d80600081146122f8576040519150601f19603f3d011682016040523d82523d6000602084013e6122fd565b606091505b509150915081801561232b575060008151148061232a5750808060200190518101906123299190613f25565b5b5b61236a576040517f08c379a000000000000000000000000000000000000000000000000000000000815260040161236190614c28565b60405180910390fd5b5050505050565b81518351146123b5576040517f08c379a00000000000000000000000000000000000000000000000000000000081526004016123ac90614be8565b60405180910390fd5b600073ffffffffffffffffffffffffffffffffffffffff168473ffffffffffffffffffffffffffffffffffffffff161415612425576040517f08c379a000000000000000000000000000000000000000000000000000000000815260040161241c90614ae8565b60405180910390fd5b600061242f611f45565b905061243f8187878787876133d7565b60005b84518110156125f05760008582815181106124605761245f61501f565b5b60200260200101519050600085838151811061247f5761247e61501f565b5b60200260200101519050600080600084815260200190815260200160002060008b73ffffffffffffffffffffffffffffffffffffffff1673ffffffffffffffffffffffffffffffffffffffff16815260200190815260200160002054905081811015612520576040517f08c379a000000000000000000000000000000000000000000000000000000000815260040161251790614b28565b60405180910390fd5b81810360008085815260200190815260200160002060008c73ffffffffffffffffffffffffffffffffffffffff1673ffffffffffffffffffffffffffffffffffffffff168152602001908152602001600020819055508160008085815260200190815260200160002060008b73ffffffffffffffffffffffffffffffffffffffff1673ffffffffffffffffffffffffffffffffffffffff16815260200190815260200160002060008282546125d59190614e10565b92505081905550505050806125e990614fa7565b9050612442565b508473ffffffffffffffffffffffffffffffffffffffff168673ffffffffffffffffffffffffffffffffffffffff168273ffffffffffffffffffffffffffffffffffffffff167f4a39dc06d4c0dbc64b70af90fd698a233a518aa5d07e595d983b8c0526c8f7fb8787604051612667929190614859565b60405180910390a461267d8187878787876133df565b61268b8187878787876133e7565b505050505050565b61269b611f45565b73ffffffffffffffffffffffffffffffffffffffff166126b96111cb565b73ffffffffffffffffffffffffffffffffffffffff161461270f576040517f08c379a000000000000000000000000000000000000000000000000000000000815260040161270690614b48565b60405180910390fd5b565b6000600360009054906101000a900473ffffffffffffffffffffffffffffffffffffffff16905081600360006101000a81548173ffffffffffffffffffffffffffffffffffffffff021916908373ffffffffffffffffffffffffffffffffffffffff1602179055508173ffffffffffffffffffffffffffffffffffffffff168173ffffffffffffffffffffffffffffffffffffffff167f8be0079c531659141344cd1fd0a4f28419497f9722a3daafe3b4186f6b6457e060405160405180910390a35050565b8173ffffffffffffffffffffffffffffffffffffffff168373ffffffffffffffffffffffffffffffffffffffff161415612846576040517f08c379a000000000000000000000000000000000000000000000000000000000815260040161283d90614ba8565b60405180910390fd5b80600160008573ffffffffffffffffffffffffffffffffffffffff1673ffffffffffffffffffffffffffffffffffffffff16815260200190815260200160002060008473ffffffffffffffffffffffffffffffffffffffff1673ffffffffffffffffffffffffffffffffffffffff16815260200190815260200160002060006101000a81548160ff0219169083151502179055508173ffffffffffffffffffffffffffffffffffffffff168373ffffffffffffffffffffffffffffffffffffffff167f17307eab39ab6107e8899845ad3d59bd9653f200f220920489ca2b5937696c31836040516129379190614890565b60405180910390a3505050565b60606000600167ffffffffffffffff8111156129635761296261504e565b5b6040519080825280602002602001820160405280156129915781602001602082028036833780820191505090505b50905082816000815181106129a9576129a861501f565b5b60200260200101818152505080915050919050565b6000808573ffffffffffffffffffffffffffffffffffffffff166323b872dd60e01b8686866040516024016129f593929190614738565b604051602081830303815290604052907bffffffffffffffffffffffffffffffffffffffffffffffffffffffff19166020820180517bffffffffffffffffffffffffffffffffffffffffffffffffffffffff8381831617835250505050604051612a5f919061462f565b6000604051808303816000865af19150503d8060008114612a9c576040519150601f19603f3d011682016040523d82523d6000602084013e612aa1565b606091505b5091509150818015612acf5750600081511480612ace575080806020019051810190612acd9190613f25565b5b5b612b0e576040517f08c379a0000000000000000000000000000000000000000000000000000000008152600401612b0590614aa8565b60405180910390fd5b505050505050565b600073ffffffffffffffffffffffffffffffffffffffff168473ffffffffffffffffffffffffffffffffffffffff161415612b86576040517f08c379a0000000000000000000000000000000000000000000000000000000008152600401612b7d90614c08565b60405180910390fd5b6000612b90611f45565b90506000612b9d856135ce565b90506000612baa856135ce565b9050612bbb836000898585896133d7565b8460008088815260200190815260200160002060008973ffffffffffffffffffffffffffffffffffffffff1673ffffffffffffffffffffffffffffffffffffffff1681526020019081526020016000206000828254612c1a9190614e10565b925050819055508673ffffffffffffffffffffffffffffffffffffffff16600073ffffffffffffffffffffffffffffffffffffffff168473ffffffffffffffffffffffffffffffffffffffff167fc3d58168c5ae7397731d063d5bbf3d657854427343f4c083240f7aacaa2d0f628989604051612c98929190614c8c565b60405180910390a4612caf836000898585896133df565b612cbe83600089898989613648565b50505050505050565b600073ffffffffffffffffffffffffffffffffffffffff168373ffffffffffffffffffffffffffffffffffffffff161415612d37576040517f08c379a0000000000000000000000000000000000000000000000000000000008152600401612d2e90614b08565b60405180910390fd5b6000612d41611f45565b90506000612d4e846135ce565b90506000612d5b846135ce565b9050612d7b838760008585604051806020016040528060008152506133d7565b600080600087815260200190815260200160002060008873ffffffffffffffffffffffffffffffffffffffff1673ffffffffffffffffffffffffffffffffffffffff16815260200190815260200160002054905084811015612e12576040517f08c379a0000000000000000000000000000000000000000000000000000000008152600401612e0990614a48565b60405180910390fd5b84810360008088815260200190815260200160002060008973ffffffffffffffffffffffffffffffffffffffff1673ffffffffffffffffffffffffffffffffffffffff16815260200190815260200160002081905550600073ffffffffffffffffffffffffffffffffffffffff168773ffffffffffffffffffffffffffffffffffffffff168573ffffffffffffffffffffffffffffffffffffffff167fc3d58168c5ae7397731d063d5bbf3d657854427343f4c083240f7aacaa2d0f628989604051612edf929190614c8c565b60405180910390a4612f05848860008686604051806020016040528060008152506133df565b50505050505050565b600073ffffffffffffffffffffffffffffffffffffffff168473ffffffffffffffffffffffffffffffffffffffff161415612f7e576040517f08c379a0000000000000000000000000000000000000000000000000000000008152600401612f7590614ae8565b60405180910390fd5b6000612f88611f45565b90506000612f95856135ce565b90506000612fa2856135ce565b9050612fb28389898585896133d7565b600080600088815260200190815260200160002060008a73ffffffffffffffffffffffffffffffffffffffff1673ffffffffffffffffffffffffffffffffffffffff16815260200190815260200160002054905085811015613049576040517f08c379a000000000000000000000000000000000000000000000000000000000815260040161304090614b28565b60405180910390fd5b85810360008089815260200190815260200160002060008b73ffffffffffffffffffffffffffffffffffffffff1673ffffffffffffffffffffffffffffffffffffffff168152602001908152602001600020819055508560008089815260200190815260200160002060008a73ffffffffffffffffffffffffffffffffffffffff1673ffffffffffffffffffffffffffffffffffffffff16815260200190815260200160002060008282546130fe9190614e10565b925050819055508773ffffffffffffffffffffffffffffffffffffffff168973ffffffffffffffffffffffffffffffffffffffff168573ffffffffffffffffffffffffffffffffffffffff167fc3d58168c5ae7397731d063d5bbf3d657854427343f4c083240f7aacaa2d0f628a8a60405161317b929190614c8c565b60405180910390a4613191848a8a86868a6133df565b61319f848a8a8a8a8a613648565b505050505050505050565b600073ffffffffffffffffffffffffffffffffffffffff168473ffffffffffffffffffffffffffffffffffffffff16141561321a576040517f08c379a000000000000000000000000000000000000000000000000000000000815260040161321190614c08565b60405180910390fd5b815183511461325e576040517f08c379a000000000000000000000000000000000000000000000000000000000815260040161325590614be8565b60405180910390fd5b6000613268611f45565b9050613279816000878787876133d7565b60005b8451811015613332578381815181106132985761329761501f565b5b60200260200101516000808784815181106132b6576132b561501f565b5b6020026020010151815260200190815260200160002060008873ffffffffffffffffffffffffffffffffffffffff1673ffffffffffffffffffffffffffffffffffffffff16815260200190815260200160002060008282546133189190614e10565b92505081905550808061332a90614fa7565b91505061327c565b508473ffffffffffffffffffffffffffffffffffffffff16600073ffffffffffffffffffffffffffffffffffffffff168273ffffffffffffffffffffffffffffffffffffffff167f4a39dc06d4c0dbc64b70af90fd698a233a518aa5d07e595d983b8c0526c8f7fb87876040516133aa929190614859565b60405180910390a46133c1816000878787876133df565b6133d0816000878787876133e7565b5050505050565b505050505050565b505050505050565b6134068473ffffffffffffffffffffffffffffffffffffffff1661382f565b156135c6578373ffffffffffffffffffffffffffffffffffffffff1663bc197c8187878686866040518663ffffffff1660e01b815260040161344c9594939291906146d0565b602060405180830381600087803b15801561346657600080fd5b505af192505050801561349757506040513d601f19601f820116820180604052508101906134949190613f7f565b60015b61353d576134a361507d565b806308c379a0141561350057506134b86156bc565b806134c35750613502565b806040517f08c379a00000000000000000000000000000000000000000000000000000000081526004016134f791906148ab565b60405180910390fd5b505b6040517f08c379a000000000000000000000000000000000000000000000000000000000815260040161353490614988565b60405180910390fd5b63bc197c8160e01b7bffffffffffffffffffffffffffffffffffffffffffffffffffffffff1916817bffffffffffffffffffffffffffffffffffffffffffffffffffffffff1916146135c4576040517f08c379a00000000000000000000000000000000000000000000000000000000081526004016135bb906149c8565b60405180910390fd5b505b505050505050565b60606000600167ffffffffffffffff8111156135ed576135ec61504e565b5b60405190808252806020026020018201604052801561361b5781602001602082028036833780820191505090505b50905082816000815181106136335761363261501f565b5b60200260200101818152505080915050919050565b6136678473ffffffffffffffffffffffffffffffffffffffff1661382f565b15613827578373ffffffffffffffffffffffffffffffffffffffff1663f23a6e6187878686866040518663ffffffff1660e01b81526004016136ad95949392919061476f565b602060405180830381600087803b1580156136c757600080fd5b505af19250505080156136f857506040513d601f19601f820116820180604052508101906136f59190613f7f565b60015b61379e5761370461507d565b806308c379a0141561376157506137196156bc565b806137245750613763565b806040517f08c379a000000000000000000000000000000000000000000000000000000000815260040161375891906148ab565b60405180910390fd5b505b6040517f08c379a000000000000000000000000000000000000000000000000000000000815260040161379590614988565b60405180910390fd5b63f23a6e6160e01b7bffffffffffffffffffffffffffffffffffffffffffffffffffffffff1916817bffffffffffffffffffffffffffffffffffffffffffffffffffffffff191614613825576040517f08c379a000000000000000000000000000000000000000000000000000000000815260040161381c906149c8565b60405180910390fd5b505b505050505050565b6000808273ffffffffffffffffffffffffffffffffffffffff163b119050919050565b600061386561386084614cda565b614cb5565b90508083825260208201905082856020860282011115613888576138876150a4565b5b60005b858110156138b8578161389e88826139f8565b84526020840193506020830192505060018101905061388b565b5050509392505050565b60006138d56138d084614d06565b614cb5565b905080838252602082019050828560208602820111156138f8576138f76150a4565b5b60005b85811015613928578161390e8882613b5c565b8452602084019350602083019250506001810190506138fb565b5050509392505050565b600061394561394084614d32565b614cb5565b905082815260208101848484011115613961576139606150a9565b5b61396c848285614f34565b509392505050565b600061398761398284614d63565b614cb5565b9050828152602081018484840111156139a3576139a26150a9565b5b6139ae848285614f34565b509392505050565b60006139c96139c484614d63565b614cb5565b9050828152602081018484840111156139e5576139e46150a9565b5b6139f0848285614f43565b509392505050565b600081359050613a0781615752565b92915050565b600081519050613a1c81615752565b92915050565b600082601f830112613a3757613a3661509f565b5b8135613a47848260208601613852565b91505092915050565b600082601f830112613a6557613a6461509f565b5b8135613a758482602086016138c2565b91505092915050565b600081359050613a8d81615769565b92915050565b600081519050613aa281615769565b92915050565b600081359050613ab781615780565b92915050565b600081519050613acc81615780565b92915050565b600082601f830112613ae757613ae661509f565b5b8135613af7848260208601613932565b91505092915050565b600082601f830112613b1557613b1461509f565b5b8135613b25848260208601613974565b91505092915050565b600082601f830112613b4357613b4261509f565b5b8151613b538482602086016139b6565b91505092915050565b600081359050613b6b81615797565b92915050565b600081519050613b8081615797565b92915050565b600060208284031215613b9c57613b9b6150b3565b5b6000613baa848285016139f8565b91505092915050565b60008060408385031215613bca57613bc96150b3565b5b6000613bd8858286016139f8565b9250506020613be9858286016139f8565b9150509250929050565b600080600080600060a08688031215613c0f57613c0e6150b3565b5b6000613c1d888289016139f8565b9550506020613c2e888289016139f8565b945050604086013567ffffffffffffffff811115613c4f57613c4e6150ae565b5b613c5b88828901613a50565b935050606086013567ffffffffffffffff811115613c7c57613c7b6150ae565b5b613c8888828901613a50565b925050608086013567ffffffffffffffff811115613ca957613ca86150ae565b5b613cb588828901613ad2565b9150509295509295909350565b600080600080600060a08688031215613cde57613cdd6150b3565b5b6000613cec888289016139f8565b9550506020613cfd888289016139f8565b9450506040613d0e88828901613b5c565b9350506060613d1f88828901613b5c565b925050608086013567ffffffffffffffff811115613d4057613d3f6150ae565b5b613d4c88828901613ad2565b9150509295509295909350565b60008060408385031215613d7057613d6f6150b3565b5b6000613d7e858286016139f8565b9250506020613d8f85828601613a7e565b9150509250929050565b60008060408385031215613db057613daf6150b3565b5b6000613dbe858286016139f8565b9250506020613dcf85828601613b5c565b9150509250929050565b600060208284031215613def57613dee6150b3565b5b600082013567ffffffffffffffff811115613e0d57613e0c6150ae565b5b613e1984828501613a22565b91505092915050565b60008060408385031215613e3957613e386150b3565b5b600083013567ffffffffffffffff811115613e5757613e566150ae565b5b613e6385828601613a22565b925050602083013567ffffffffffffffff811115613e8457613e836150ae565b5b613e9085828601613a50565b9150509250929050565b600080600060608486031215613eb357613eb26150b3565b5b600084013567ffffffffffffffff811115613ed157613ed06150ae565b5b613edd86828701613a50565b935050602084013567ffffffffffffffff811115613efe57613efd6150ae565b5b613f0a86828701613a50565b9250506040613f1b868287016139f8565b9150509250925092565b600060208284031215613f3b57613f3a6150b3565b5b6000613f4984828501613a93565b91505092915050565b600060208284031215613f6857613f676150b3565b5b6000613f7684828501613aa8565b91505092915050565b600060208284031215613f9557613f946150b3565b5b6000613fa384828501613abd565b91505092915050565b600060208284031215613fc257613fc16150b3565b5b600082015167ffffffffffffffff811115613fe057613fdf6150ae565b5b613fec84828501613b2e565b91505092915050565b6000806000806080858703121561400f5761400e6150b3565b5b600085015167ffffffffffffffff81111561402d5761402c6150ae565b5b61403987828801613b2e565b945050602061404a87828801613b71565b935050604061405b87828801613b71565b925050606061406c87828801613a0d565b91505092959194509250565b600080600080600060a08688031215614094576140936150b3565b5b600086013567ffffffffffffffff8111156140b2576140b16150ae565b5b6140be88828901613b00565b95505060206140cf88828901613b5c565b94505060406140e088828901613b5c565b93505060606140f1888289016139f8565b925050608086013567ffffffffffffffff811115614112576141116150ae565b5b61411e88828901613b00565b9150509295509295909350565b600060208284031215614141576141406150b3565b5b600061414f84828501613b5c565b91505092915050565b60006020828403121561416e5761416d6150b3565b5b600061417c84828501613b71565b91505092915050565b60008060006060848603121561419e5761419d6150b3565b5b60006141ac86828701613b5c565b93505060206141bd86828701613b5c565b92505060406141ce868287016139f8565b9150509250925092565b60006141e48383614611565b60208301905092915050565b6141f981614ec0565b82525050565b600061420a82614da4565b6142148185614dd2565b935061421f83614d94565b8060005b8381101561425057815161423788826141d8565b975061424283614dc5565b925050600181019050614223565b5085935050505092915050565b61426681614ed2565b82525050565b600061427782614daf565b6142818185614de3565b9350614291818560208601614f43565b61429a816150b8565b840191505092915050565b60006142b082614daf565b6142ba8185614df4565b93506142ca818560208601614f43565b80840191505092915050565b60006142e182614dba565b6142eb8185614dff565b93506142fb818560208601614f43565b614304816150b8565b840191505092915050565b600061431c603483614dff565b9150614327826150d6565b604082019050919050565b600061433f602f83614dff565b915061434a82615125565b604082019050919050565b6000614362602883614dff565b915061436d82615174565b604082019050919050565b6000614385602183614dff565b9150614390826151c3565b604082019050919050565b60006143a8601e83614dff565b91506143b382615212565b602082019050919050565b60006143cb602683614dff565b91506143d68261523b565b604082019050919050565b60006143ee602483614dff565b91506143f98261528a565b604082019050919050565b6000614411601883614dff565b915061441c826152d9565b602082019050919050565b6000614434602a83614dff565b915061443f82615302565b604082019050919050565b6000614457602683614dff565b915061446282615351565b604082019050919050565b600061447a601083614dff565b9150614485826153a0565b602082019050919050565b600061449d602583614dff565b91506144a8826153c9565b604082019050919050565b60006144c0602383614dff565b91506144cb82615418565b604082019050919050565b60006144e3602a83614dff565b91506144ee82615467565b604082019050919050565b6000614506602083614dff565b9150614511826154b6565b602082019050919050565b6000614529601483614dff565b9150614534826154df565b602082019050919050565b600061454c602083614dff565b915061455782615508565b602082019050919050565b600061456f602983614dff565b915061457a82615531565b604082019050919050565b6000614592602983614dff565b915061459d82615580565b604082019050919050565b60006145b5602883614dff565b91506145c0826155cf565b604082019050919050565b60006145d8602183614dff565b91506145e38261561e565b604082019050919050565b60006145fb602783614dff565b91506146068261566d565b604082019050919050565b61461a81614f2a565b82525050565b61462981614f2a565b82525050565b600061463b82846142a5565b915081905092915050565b600060208201905061465b60008301846141f0565b92915050565b600060c08201905061467660008301896141f0565b61468360208301886141f0565b818103604083015261469581876141ff565b905081810360608301526146a981866141ff565b90506146b860808301856141f0565b6146c560a0830184614620565b979650505050505050565b600060a0820190506146e560008301886141f0565b6146f260208301876141f0565b818103604083015261470481866141ff565b9050818103606083015261471881856141ff565b9050818103608083015261472c818461426c565b90509695505050505050565b600060608201905061474d60008301866141f0565b61475a60208301856141f0565b6147676040830184614620565b949350505050565b600060a08201905061478460008301886141f0565b61479160208301876141f0565b61479e6040830186614620565b6147ab6060830185614620565b81810360808301526147bd818461426c565b90509695505050505050565b60006040820190506147de60008301856141f0565b6147eb6020830184614620565b9392505050565b600060808201905061480760008301876141f0565b6148146020830186614620565b61482160408301856141f0565b61482e6060830184614620565b95945050505050565b6000602082019050818103600083015261485181846141ff565b905092915050565b6000604082019050818103600083015261487381856141ff565b9050818103602083015261488781846141ff565b90509392505050565b60006020820190506148a5600083018461425d565b92915050565b600060208201905081810360008301526148c581846142d6565b905092915050565b600060808201905081810360008301526148e781876142d6565b90506148f66020830186614620565b6149036040830185614620565b61491060608301846141f0565b95945050505050565b600060c082019050818103600083015261493381896142d6565b90506149426020830188614620565b61494f6040830187614620565b61495c60608301866141f0565b818103608083015261496e81856142d6565b905061497d60a0830184614620565b979650505050505050565b600060208201905081810360008301526149a18161430f565b9050919050565b600060208201905081810360008301526149c181614332565b9050919050565b600060208201905081810360008301526149e181614355565b9050919050565b60006020820190508181036000830152614a0181614378565b9050919050565b60006020820190508181036000830152614a218161439b565b9050919050565b60006020820190508181036000830152614a41816143be565b9050919050565b60006020820190508181036000830152614a61816143e1565b9050919050565b60006020820190508181036000830152614a8181614404565b9050919050565b60006020820190508181036000830152614aa181614427565b9050919050565b60006020820190508181036000830152614ac18161444a565b9050919050565b60006020820190508181036000830152614ae18161446d565b9050919050565b60006020820190508181036000830152614b0181614490565b9050919050565b60006020820190508181036000830152614b21816144b3565b9050919050565b60006020820190508181036000830152614b41816144d6565b9050919050565b60006020820190508181036000830152614b61816144f9565b9050919050565b60006020820190508181036000830152614b818161451c565b9050919050565b60006020820190508181036000830152614ba18161453f565b9050919050565b60006020820190508181036000830152614bc181614562565b9050919050565b60006020820190508181036000830152614be181614585565b9050919050565b60006020820190508181036000830152614c01816145a8565b9050919050565b60006020820190508181036000830152614c21816145cb565b9050919050565b60006020820190508181036000830152614c41816145ee565b9050919050565b6000602082019050614c5d6000830184614620565b92915050565b6000604082019050614c786000830185614620565b614c8560208301846141f0565b9392505050565b6000604082019050614ca16000830185614620565b614cae6020830184614620565b9392505050565b6000614cbf614cd0565b9050614ccb8282614f76565b919050565b6000604051905090565b600067ffffffffffffffff821115614cf557614cf461504e565b5b602082029050602081019050919050565b600067ffffffffffffffff821115614d2157614d2061504e565b5b602082029050602081019050919050565b600067ffffffffffffffff821115614d4d57614d4c61504e565b5b614d56826150b8565b9050602081019050919050565b600067ffffffffffffffff821115614d7e57614d7d61504e565b5b614d87826150b8565b9050602081019050919050565b6000819050602082019050919050565b600081519050919050565b600081519050919050565b600081519050919050565b6000602082019050919050565b600082825260208201905092915050565b600082825260208201905092915050565b600081905092915050565b600082825260208201905092915050565b6000614e1b82614f2a565b9150614e2683614f2a565b9250827fffffffffffffffffffffffffffffffffffffffffffffffffffffffffffffffff03821115614e5b57614e5a614ff0565b5b828201905092915050565b6000614e7182614f2a565b9150614e7c83614f2a565b9250817fffffffffffffffffffffffffffffffffffffffffffffffffffffffffffffffff0483118215151615614eb557614eb4614ff0565b5b828202905092915050565b6000614ecb82614f0a565b9050919050565b60008115159050919050565b60007fffffffff0000000000000000000000000000000000000000000000000000000082169050919050565b600073ffffffffffffffffffffffffffffffffffffffff82169050919050565b6000819050919050565b82818337600083830152505050565b60005b83811015614f61578082015181840152602081019050614f46565b83811115614f70576000848401525b50505050565b614f7f826150b8565b810181811067ffffffffffffffff82111715614f9e57614f9d61504e565b5b80604052505050565b6000614fb282614f2a565b91507fffffffffffffffffffffffffffffffffffffffffffffffffffffffffffffffff821415614fe557614fe4614ff0565b5b600182019050919050565b7f4e487b7100000000000000000000000000000000000000000000000000000000600052601160045260246000fd5b7f4e487b7100000000000000000000000000000000000000000000000000000000600052603260045260246000fd5b7f4e487b7100000000000000000000000000000000000000000000000000000000600052604160045260246000fd5b600060033d111561509c5760046000803e6150996000516150c9565b90505b90565b600080fd5b600080fd5b600080fd5b600080fd5b600080fd5b6000601f19601f8301169050919050565b60008160e01c9050919050565b7f455243313135353a207472616e7366657220746f206e6f6e204552433131353560008201527f526563656976657220696d706c656d656e746572000000000000000000000000602082015250565b7f455243313135353a2063616c6c6572206973206e6f7420746f6b656e206f776e60008201527f6572206e6f7220617070726f7665640000000000000000000000000000000000602082015250565b7f455243313135353a204552433131353552656365697665722072656a6563746560008201527f6420746f6b656e73000000000000000000000000000000000000000000000000602082015250565b7f50424d3a20496e76616c696420746f6b656e2069642873292070726f7669646560008201527f6400000000000000000000000000000000000000000000000000000000000000602082015250565b7f50424d3a20496e76616c696420746f6b656e2069642070726f76696465640000600082015250565b7f4f776e61626c653a206e6577206f776e657220697320746865207a65726f206160008201527f6464726573730000000000000000000000000000000000000000000000000000602082015250565b7f455243313135353a206275726e20616d6f756e7420657863656564732062616c60008201527f616e636500000000000000000000000000000000000000000000000000000000602082015250565b7f50424d3a20636f6e747261637420697320657870697265640000000000000000600082015250565b7f455243313135353a2061646472657373207a65726f206973206e6f742061207660008201527f616c6964206f776e657200000000000000000000000000000000000000000000602082015250565b7f45524332303a20496e737566666963656e742062616c616e6365206f7220617060008201527f70726f76616c0000000000000000000000000000000000000000000000000000602082015250565b7f5061757361626c653a2070617573656400000000000000000000000000000000600082015250565b7f455243313135353a207472616e7366657220746f20746865207a65726f20616460008201527f6472657373000000000000000000000000000000000000000000000000000000602082015250565b7f455243313135353a206275726e2066726f6d20746865207a65726f206164647260008201527f6573730000000000000000000000000000000000000000000000000000000000602082015250565b7f455243313135353a20696e73756666696369656e742062616c616e636520666f60008201527f72207472616e7366657200000000000000000000000000000000000000000000602082015250565b7f4f776e61626c653a2063616c6c6572206973206e6f7420746865206f776e6572600082015250565b7f50424d203a20696e76616c696420657870697279000000000000000000000000600082015250565b7f556e657175616c2069647320616e6420616d6f756e747320737570706c696564600082015250565b7f455243313135353a2073657474696e6720617070726f76616c2073746174757360008201527f20666f722073656c660000000000000000000000000000000000000000000000602082015250565b7f455243313135353a206163636f756e747320616e6420696473206c656e67746860008201527f206d69736d617463680000000000000000000000000000000000000000000000602082015250565b7f455243313135353a2069647320616e6420616d6f756e7473206c656e6774682060008201527f6d69736d61746368000000000000000000000000000000000000000000000000602082015250565b7f455243313135353a206d696e7420746f20746865207a65726f2061646472657360008201527f7300000000000000000000000000000000000000000000000000000000000000602082015250565b7f496e746572616374696f6e2077697468207468652073706f7420746f6b656e2060008201527f6661696c65642e00000000000000000000000000000000000000000000000000602082015250565b600060443d10156156cc5761574f565b6156d4614cd0565b60043d036004823e80513d602482011167ffffffffffffffff821117156156fc57505061574f565b808201805167ffffffffffffffff81111561571a575050505061574f565b80602083010160043d03850181111561573757505050505061574f565b61574682602001850186614f76565b82955050505050505b90565b61575b81614ec0565b811461576657600080fd5b50565b61577281614ed2565b811461577d57600080fd5b50565b61578981614ede565b811461579457600080fd5b50565b6157a081614f2a565b81146157ab57600080fd5b5056fea2646970667358221220e6f9844830b60fb1050fef1d9d5decbb6b4106d7f6e97a4ef375f69a55d2954c64736f6c6343000807003360a060405260006001553480156200001657600080fd5b5060405162001fbb38038062001fbb83398181016040528101906200003c9190620002ad565b6200005c62000050620000b360201b60201c565b620000bb60201b60201c565b3073ffffffffffffffffffffffffffffffffffffffff1660808173ffffffffffffffffffffffffffffffffffffffff1660601b815250508060029080519060200190620000ab9291906200017f565b505062000482565b600033905090565b60008060009054906101000a900473ffffffffffffffffffffffffffffffffffffffff169050816000806101000a81548173ffffffffffffffffffffffffffffffffffffffff021916908373ffffffffffffffffffffffffffffffffffffffff1602179055508173ffffffffffffffffffffffffffffffffffffffff168173ffffffffffffffffffffffffffffffffffffffff167f8be0079c531659141344cd1fd0a4f28419497f9722a3daafe3b4186f6b6457e060405160405180910390a35050565b8280546200018d9062000393565b90600052602060002090601f016020900481019282620001b15760008555620001fd565b82601f10620001cc57805160ff1916838001178555620001fd565b82800160010185558215620001fd579182015b82811115620001fc578251825591602001919060010190620001df565b5b5090506200020c919062000210565b5090565b5b808211156200022b57600081600090555060010162000211565b5090565b600062000246620002408462000327565b620002fe565b90508281526020810184848401111562000265576200026462000462565b5b620002728482856200035d565b509392505050565b600082601f8301126200029257620002916200045d565b5b8151620002a48482602086016200022f565b91505092915050565b600060208284031215620002c657620002c56200046c565b5b600082015167ffffffffffffffff811115620002e757620002e662000467565b5b620002f5848285016200027a565b91505092915050565b60006200030a6200031d565b9050620003188282620003c9565b919050565b6000604051905090565b600067ffffffffffffffff8211156200034557620003446200042e565b5b620003508262000471565b9050602081019050919050565b60005b838110156200037d57808201518184015260208101905062000360565b838111156200038d576000848401525b50505050565b60006002820490506001821680620003ac57607f821691505b60208210811415620003c357620003c2620003ff565b5b50919050565b620003d48262000471565b810181811067ffffffffffffffff82111715620003f657620003f56200042e565b5b80604052505050565b7f4e487b7100000000000000000000000000000000000000000000000000000000600052602260045260246000fd5b7f4e487b7100000000000000000000000000000000000000000000000000000000600052604160045260246000fd5b600080fd5b600080fd5b600080fd5b600080fd5b6000601f19601f8301169050919050565b60805160601c611b1a620004a16000396000610c980152611b1a6000f3fe608060405234801561001057600080fd5b50600436106100cf5760003560e01c80638da5cb5b1161008c578063d10424c711610066578063d10424c714610227578063e21c8b5914610257578063f2fde38b14610273578063f600d9f41461028f576100cf565b80638da5cb5b146101a6578063934689a9146101c4578063c1e03728146101f4576100cf565b80630e89341c146100d4578063234661c41461010457806336a3409c1461013457806348fd09f514610150578063715018a61461018057806380d69c8a1461018a575b600080fd5b6100ee60048036038101906100e991906111e7565b6102ab565b6040516100fb9190611417565b60405180910390f35b61011e600480360381019061011991906111e7565b610403565b60405161012b9190611545565b60405180910390f35b61014e60048036038101906101499190611214565b610423565b005b61016a60048036038101906101659190611061565b610511565b60405161017791906113fc565b60405180910390f35b610188610589565b005b6101a4600480360381019061019f9190611122565b61059d565b005b6101ae610810565b6040516101bb91906113e1565b60405180910390f35b6101de60048036038101906101d991906111e7565b610839565b6040516101eb91906113e1565b60405180910390f35b61020e600480360381019061020991906111e7565b610879565b60405161021e9493929190611439565b60405180910390f35b610241600480360381019061023c91906111e7565b610996565b60405161024e9190611545565b60405180910390f35b610271600480360381019061026c91906110aa565b6109b6565b005b61028d60048036038101906102889190611034565b610a43565b005b6102a960048036038101906102a491906110aa565b610ac7565b005b60606003600083815260200190815260200160002060020154421061035c57600280546102d7906117a8565b80601f0160208091040260200160405190810160405280929190818152602001828054610303906117a8565b80156103505780601f1061032557610100808354040283529160200191610350565b820191906000526020600020905b81548152906001019060200180831161033357829003601f168201915b505050505090506103fe565b60036000838152602001908152602001600020600501805461037d906117a8565b80601f01602080910402602001604051908101604052809291908181526020018280546103a9906117a8565b80156103f65780601f106103cb576101008083540402835291602001916103f6565b820191906000526020600020905b8154815290600101906020018083116103d957829003601f168201915b505050505090505b919050565b600060036000838152602001908152602001600020600401549050919050565b61042b610b54565b6003600083815260200190815260200160002060030160009054906101000a900473ffffffffffffffffffffffffffffffffffffffff1673ffffffffffffffffffffffffffffffffffffffff168173ffffffffffffffffffffffffffffffffffffffff161480156104b2575060036000838152602001908152602001600020600201544210155b6104f1576040517f08c379a00000000000000000000000000000000000000000000000000000000081526004016104e890611485565b60405180910390fd5b600060036000848152602001908152602001600020600401819055505050565b600080600090505b825181101561057e57600360008281526020019081526020016000206002015442118061055c575060006003600083815260200190815260200160002060010154145b1561056b576000915050610584565b80806105769061180b565b915050610519565b50600190505b919050565b610591610b54565b61059b6000610bd2565b565b6105a5610b54565b6105ad610c96565b808411156105f0576040517f08c379a00000000000000000000000000000000000000000000000000000000081526004016105e7906114e5565b60405180910390fd5b428411610632576040517f08c379a000000000000000000000000000000000000000000000000000000000815260040161062990611505565b60405180910390fd5b6000851415610676576040517f08c379a000000000000000000000000000000000000000000000000000000000815260040161066d90611525565b60405180910390fd5b60008661068287610cf0565b6040516020016106939291906113bd565b60405160208183030381529060405290508060036000600154815260200190815260200160002060000190805190602001906106d0929190610e59565b50856003600060015481526020019081526020016000206001018190555084600360006001548152602001908152602001600020600201819055508360036000600154815260200190815260200160002060030160006101000a81548173ffffffffffffffffffffffffffffffffffffffff021916908373ffffffffffffffffffffffffffffffffffffffff1602179055506000600360006001548152602001908152602001600020600401819055508260036000600154815260200190815260200160002060050190805190602001906107ac929190610e59565b507fbbb805bf89819da42bb55052edd2bf6db1c2256ec4c19cf1607de95efc92762f600154828888886040516107e6959493929190611560565b60405180910390a160018060008282546108009190611663565b9250508190555050505050505050565b60008060009054906101000a900473ffffffffffffffffffffffffffffffffffffffff16905090565b60006003600083815260200190815260200160002060030160009054906101000a900473ffffffffffffffffffffffffffffffffffffffff169050919050565b6060600080600060036000868152602001908152602001600020600001600360008781526020019081526020016000206001015460036000888152602001908152602001600020600201546003600089815260200190815260200160002060030160009054906101000a900473ffffffffffffffffffffffffffffffffffffffff16838054610907906117a8565b80601f0160208091040260200160405190810160405280929190818152602001828054610933906117a8565b80156109805780601f1061095557610100808354040283529160200191610980565b820191906000526020600020905b81548152906001019060200180831161096357829003601f168201915b5050505050935093509350935093509193509193565b600060036000838152602001908152602001600020600101549050919050565b6109be610b54565b60005b8251811015610a3e578181815181106109dd576109dc611912565b5b6020026020010151600360008584815181106109fc576109fb611912565b5b602002602001015181526020019081526020016000206004016000828254610a2491906116ea565b925050819055508080610a369061180b565b9150506109c1565b505050565b610a4b610b54565b600073ffffffffffffffffffffffffffffffffffffffff168173ffffffffffffffffffffffffffffffffffffffff161415610abb576040517f08c379a0000000000000000000000000000000000000000000000000000000008152600401610ab2906114a5565b60405180910390fd5b610ac481610bd2565b50565b610acf610b54565b60005b8251811015610b4f57818181518110610aee57610aed611912565b5b602002602001015160036000858481518110610b0d57610b0c611912565b5b602002602001015181526020019081526020016000206004016000828254610b359190611663565b925050819055508080610b479061180b565b915050610ad2565b505050565b610b5c610e51565b73ffffffffffffffffffffffffffffffffffffffff16610b7a610810565b73ffffffffffffffffffffffffffffffffffffffff1614610bd0576040517f08c379a0000000000000000000000000000000000000000000000000000000008152600401610bc7906114c5565b60405180910390fd5b565b60008060009054906101000a900473ffffffffffffffffffffffffffffffffffffffff169050816000806101000a81548173ffffffffffffffffffffffffffffffffffffffff021916908373ffffffffffffffffffffffffffffffffffffffff1602179055508173ffffffffffffffffffffffffffffffffffffffff168173ffffffffffffffffffffffffffffffffffffffff167f8be0079c531659141344cd1fd0a4f28419497f9722a3daafe3b4186f6b6457e060405160405180910390a35050565b7f000000000000000000000000000000000000000000000000000000000000000073ffffffffffffffffffffffffffffffffffffffff163073ffffffffffffffffffffffffffffffffffffffff1614610cee57600080fd5b565b60606000821415610d38576040518060400160405280600181526020017f30000000000000000000000000000000000000000000000000000000000000008152509050610e4c565b600082905060005b60008214610d6a578080610d539061180b565b915050600a82610d6391906116b9565b9150610d40565b60008167ffffffffffffffff811115610d8657610d85611941565b5b6040519080825280601f01601f191660200182016040528015610db85781602001600182028036833780820191505090505b5090505b60008514610e4557600182610dd191906116ea565b9150600a85610de09190611854565b6030610dec9190611663565b60f81b818381518110610e0257610e01611912565b5b60200101907effffffffffffffffffffffffffffffffffffffffffffffffffffffffffffff1916908160001a905350600a85610e3e91906116b9565b9450610dbc565b8093505050505b919050565b600033905090565b828054610e65906117a8565b90600052602060002090601f016020900481019282610e875760008555610ece565b82601f10610ea057805160ff1916838001178555610ece565b82800160010185558215610ece579182015b82811115610ecd578251825591602001919060010190610eb2565b5b509050610edb9190610edf565b5090565b5b80821115610ef8576000816000905550600101610ee0565b5090565b6000610f0f610f0a846115df565b6115ba565b90508083825260208201905082856020860282011115610f3257610f31611975565b5b60005b85811015610f625781610f48888261101f565b845260208401935060208301925050600181019050610f35565b5050509392505050565b6000610f7f610f7a8461160b565b6115ba565b905082815260208101848484011115610f9b57610f9a61197a565b5b610fa6848285611766565b509392505050565b600081359050610fbd81611ab6565b92915050565b600082601f830112610fd857610fd7611970565b5b8135610fe8848260208601610efc565b91505092915050565b600082601f83011261100657611005611970565b5b8135611016848260208601610f6c565b91505092915050565b60008135905061102e81611acd565b92915050565b60006020828403121561104a57611049611984565b5b600061105884828501610fae565b91505092915050565b60006020828403121561107757611076611984565b5b600082013567ffffffffffffffff8111156110955761109461197f565b5b6110a184828501610fc3565b91505092915050565b600080604083850312156110c1576110c0611984565b5b600083013567ffffffffffffffff8111156110df576110de61197f565b5b6110eb85828601610fc3565b925050602083013567ffffffffffffffff81111561110c5761110b61197f565b5b61111885828601610fc3565b9150509250929050565b60008060008060008060c0878903121561113f5761113e611984565b5b600087013567ffffffffffffffff81111561115d5761115c61197f565b5b61116989828a01610ff1565b965050602061117a89828a0161101f565b955050604061118b89828a0161101f565b945050606061119c89828a01610fae565b935050608087013567ffffffffffffffff8111156111bd576111bc61197f565b5b6111c989828a01610ff1565b92505060a06111da89828a0161101f565b9150509295509295509295565b6000602082840312156111fd576111fc611984565b5b600061120b8482850161101f565b91505092915050565b6000806040838503121561122b5761122a611984565b5b60006112398582860161101f565b925050602061124a85828601610fae565b9150509250929050565b61125d8161171e565b82525050565b61126c81611730565b82525050565b600061127d8261163c565b6112878185611647565b9350611297818560208601611775565b6112a081611989565b840191505092915050565b60006112b68261163c565b6112c08185611658565b93506112d0818560208601611775565b80840191505092915050565b60006112e9601183611647565b91506112f48261199a565b602082019050919050565b600061130c602683611647565b9150611317826119c3565b604082019050919050565b600061132f602083611647565b915061133a82611a12565b602082019050919050565b6000611352601683611647565b915061135d82611a3b565b602082019050919050565b6000611375601683611647565b915061138082611a64565b602082019050919050565b6000611398601083611647565b91506113a382611a8d565b602082019050919050565b6113b78161175c565b82525050565b60006113c982856112ab565b91506113d582846112ab565b91508190509392505050565b60006020820190506113f66000830184611254565b92915050565b60006020820190506114116000830184611263565b92915050565b600060208201905081810360008301526114318184611272565b905092915050565b600060808201905081810360008301526114538187611272565b905061146260208301866113ae565b61146f60408301856113ae565b61147c6060830184611254565b95945050505050565b6000602082019050818103600083015261149e816112dc565b9050919050565b600060208201905081810360008301526114be816112ff565b9050919050565b600060208201905081810360008301526114de81611322565b9050919050565b600060208201905081810360008301526114fe81611345565b9050919050565b6000602082019050818103600083015261151e81611368565b9050919050565b6000602082019050818103600083015261153e8161138b565b9050919050565b600060208201905061155a60008301846113ae565b92915050565b600060a08201905061157560008301886113ae565b81810360208301526115878187611272565b905061159660408301866113ae565b6115a360608301856113ae565b6115b06080830184611254565b9695505050505050565b60006115c46115d5565b90506115d082826117da565b919050565b6000604051905090565b600067ffffffffffffffff8211156115fa576115f9611941565b5b602082029050602081019050919050565b600067ffffffffffffffff82111561162657611625611941565b5b61162f82611989565b9050602081019050919050565b600081519050919050565b600082825260208201905092915050565b600081905092915050565b600061166e8261175c565b91506116798361175c565b9250827fffffffffffffffffffffffffffffffffffffffffffffffffffffffffffffffff038211156116ae576116ad611885565b5b828201905092915050565b60006116c48261175c565b91506116cf8361175c565b9250826116df576116de6118b4565b5b828204905092915050565b60006116f58261175c565b91506117008361175c565b92508282101561171357611712611885565b5b828203905092915050565b60006117298261173c565b9050919050565b60008115159050919050565b600073ffffffffffffffffffffffffffffffffffffffff82169050919050565b6000819050919050565b82818337600083830152505050565b60005b83811015611793578082015181840152602081019050611778565b838111156117a2576000848401525b50505050565b600060028204905060018216806117c057607f821691505b602082108114156117d4576117d36118e3565b5b50919050565b6117e382611989565b810181811067ffffffffffffffff8211171561180257611801611941565b5b80604052505050565b60006118168261175c565b91507fffffffffffffffffffffffffffffffffffffffffffffffffffffffffffffffff82141561184957611848611885565b5b600182019050919050565b600061185f8261175c565b915061186a8361175c565b92508261187a576118796118b4565b5b828206905092915050565b7f4e487b7100000000000000000000000000000000000000000000000000000000600052601160045260246000fd5b7f4e487b7100000000000000000000000000000000000000000000000000000000600052601260045260246000fd5b7f4e487b7100000000000000000000000000000000000000000000000000000000600052602260045260246000fd5b7f4e487b7100000000000000000000000000000000000000000000000000000000600052603260045260246000fd5b7f4e487b7100000000000000000000000000000000000000000000000000000000600052604160045260246000fd5b600080fd5b600080fd5b600080fd5b600080fd5b600080fd5b6000601f19601f8301169050919050565b7f50424d206e6f74207265766f6b61626c65000000000000000000000000000000600082015250565b7f4f776e61626c653a206e6577206f776e657220697320746865207a65726f206160008201527f6464726573730000000000000000000000000000000000000000000000000000602082015250565b7f4f776e61626c653a2063616c6c6572206973206e6f7420746865206f776e6572600082015250565b7f496e76616c696420746f6b656e206578706972792d3100000000000000000000600082015250565b7f496e76616c696420746f6b656e206578706972792d3200000000000000000000600082015250565b7f53706f7420616d6f756e74206973203000000000000000000000000000000000600082015250565b611abf8161171e565b8114611aca57600080fd5b50565b611ad68161175c565b8114611ae157600080fd5b5056fea2646970667358221220e4aaeb531e10f096330d34c838e7ffbeb911b5481bed9506d2d8710c37769a2664736f6c63430008070033",
  "immutableReferences": {},
  "source": "// SPDX-License-Identifier: MIT\npragma solidity ^0.8.7;\n\nimport \"@openzeppelin/contracts/token/ERC1155/ERC1155.sol\";\nimport \"@openzeppelin/contracts/access/Ownable.sol\";\nimport \"@openzeppelin/contracts/security/Pausable.sol\";\n\nimport \"./ERC20Helper.sol\";  \nimport \"./PBMTokenManager.sol\";\nimport \"./IPBM.sol\";  \n\ncontract PBM is ERC1155, Ownable, Pausable, IPBM {  \n    \n    // undelrying ERC-20 tokens\n    address public spotToken ; \n    // address of the token manager\n    address public pbmTokenManager; \n\n    // time of expiry ( epoch )\n    uint256 public contractExpiry ; \n    // list of merchants who are able to receive the underlying ERC-20 tokens\n    mapping (address => bool) public merchantList ; \n\n    constructor(address _spotToken, uint256 _expiry, string memory _uriPostExpiry) ERC1155(\"\") {\n        spotToken = _spotToken ;\n        contractExpiry = _expiry ; \n\n        pbmTokenManager = address(new PBMTokenManager(_uriPostExpiry)) ; \n    }\n    \n    /**\n     * @dev See {IPBM-udpatePBMExpiry}.\n     *\n     * Requirements:\n     *\n     * - caller must be owner \n     * - contract must not be paused\n     * - contract must not be expired\n     * - `newExpiry` must be larger the existing expiry\n     */\n    function updatePBMExpiry(uint256 newExpiry)\n    external\n    override \n    onlyOwner\n    whenNotPaused\n    {   \n        require(block.timestamp < contractExpiry, \"PBM: contract is expired\");\n        require(newExpiry > contractExpiry, \"PBM : invalid expiry\" ) ; \n        contractExpiry = newExpiry; \n    }\n\n    /**\n     * @dev See {IPBM-addMerchantAddresses}.\n     *\n     * Requirements:\n     *\n     * - caller must be owner \n     * - contract must not be expired\n     */\n    function addMerchantAddresses(address[] memory addresses) \n    external\n    override\n    onlyOwner\n    {\n        require(block.timestamp < contractExpiry, \"PBM: contract is expired\");\n        for (uint256 i = 0; i < addresses.length; i++) {\n            merchantList[addresses[i]] = true;\n        }\n    }  \n\n    /**\n     * @dev See {IPBM-removeMerchantAddresses}.\n     *\n     * Requirements:\n     *\n     * - caller must be owner \n     * - contract must not be expired\n     */\n    function removeMerchantAddresses(address[] memory addresses) \n    external \n    override\n    onlyOwner\n    {\n        require(block.timestamp < contractExpiry, \"PBM: contract is expired\");\n        for (uint256 i = 0; i < addresses.length; i++) {\n            merchantList[addresses[i]] = false;\n        } \n    }\n\n    /**\n     * @dev See {IPBM-createPBMTokenType}.\n     *\n     * Requirements:\n     *\n     * - caller must be owner \n     * - contract must not be expired\n     */\n    function createPBMTokenType(string memory companyName, uint256 spotAmount, uint256 tokenExpiry,address creator, string memory tokenURI) \n    external \n    override\n    onlyOwner \n    {        \n        PBMTokenManager(pbmTokenManager).createTokenType(companyName, spotAmount, tokenExpiry, creator,  tokenURI, contractExpiry);\n    }\n\n    /**\n     * @dev See {IPBM-mint}.\n     *     \n     * IMPT: Before minting, the caller should approve the contract address to spend ERC-20 tokens on behalf of the caller.\n     *       This can be done by calling the `approve` or `increaseMinterAllowance` functions of the ERC-20 contract and specifying `_spender` to be the PBM contract address. \n             Ref : https://eips.ethereum.org/EIPS/eip-20\n     *\n     * Requirements:\n     *\n     * - contract must not be paused\n     * - tokens must not be expired\n     * - `tokenId` should be a valid id that has already been created\n     * - caller should have the necessary amount of the ERC-20 tokens required to mint\n     * - caller should have approved the PBM contract to spend the ERC-20 tokens\n     */\n    function mint(uint256 tokenId, uint256 amount, address receiver) \n    external  \n    override\n    whenNotPaused\n    {\n        require(PBMTokenManager(pbmTokenManager).areTokensValid(serialise(tokenId)), \"PBM: Invalid token id provided\");\n        uint256 valueOfNewTokens = amount*(PBMTokenManager(pbmTokenManager).getTokenValue(tokenId)); \n\n        //Transfer the spot token from the user to the contract to wrap it\n        ERC20Helper.safeTransferFrom(spotToken, msg.sender, address(this), valueOfNewTokens);\n\n        // mint the token if the contract - wrapping the xsgd\n        PBMTokenManager(pbmTokenManager).increaseBalanceSupply(serialise(tokenId), serialise(amount)) ; \n        _mint(receiver, tokenId, amount, ''); \n    }\n\n    /**\n     * @dev See {IPBM-batchMint}.\n     *     \n     * IMPT: Before minting, the caller should approve the contract address to spend ERC-20 tokens on behalf of the caller.\n     *       This can be done by calling the `approve` or `increaseMinterAllowance` functions of the ERC-20 contract and specifying `_spender` to be the PBM contract address. \n             Ref : https://eips.ethereum.org/EIPS/eip-20\n     *\n     * Requirements:\n     *\n     * - contract must not be paused\n     * - tokens must not be expired\n     * - `tokenIds` should all be valid ids that have already been created\n     * - `tokenIds` and `amounts` list need to have the same number of values\n     * - caller should have the necessary amount of the ERC-20 tokens required to mint\n     * - caller should have approved the PBM contract to spend the ERC-20 tokens\n     */\n    function batchMint(uint256[] memory tokenIds, uint256[] memory amounts, address receiver) \n    external \n    override\n    whenNotPaused\n    {   \n        require(tokenIds.length == amounts.length, \"Unequal ids and amounts supplied\"); \n\n        // calculate the value of the new tokens\n        uint256 valueOfNewTokens = 0 ; \n        require(PBMTokenManager(pbmTokenManager).areTokensValid(tokenIds), \"PBM: Invalid token id(s) provided\");\n\n        for (uint256 i = 0; i < tokenIds.length; i++) {\n            valueOfNewTokens += (amounts[i]*(PBMTokenManager(pbmTokenManager).getTokenValue(tokenIds[i])));  \n        } \n\n        // Transfer spot tokenf from user to contract to wrap it\n        ERC20Helper.safeTransferFrom(spotToken, msg.sender, address(this), valueOfNewTokens);\n        PBMTokenManager(pbmTokenManager).increaseBalanceSupply(tokenIds, amounts);\n        _mintBatch(receiver, tokenIds, amounts, '');\n    }\n\n\n    /**\n     * @dev See {IPBM-safeTransferFrom}.\n     *     \n     *\n     * Requirements:\n     *\n     * - contract must not be paused\n     * - tokens must not be expired\n     * - `tokenId` should be a valid ids that has already been created\n     * - caller should have the PBMs that are being transferred (or)\n     *          caller should have the approval to spend the PBMs on behalf of the owner (`from` addresss)\n     */\n    function safeTransferFrom( address from, address to, uint256 id, uint256 amount, bytes memory data) \n    public   \n    override(ERC1155, IPBM)\n    whenNotPaused  \n    {\n        require(\n            from == _msgSender() || isApprovedForAll(from, _msgSender()),\n            \"ERC1155: caller is not token owner nor approved\"\n        );\n\n        require(PBMTokenManager(pbmTokenManager).areTokensValid(serialise(id)), \"PBM: Invalid token id provided\");\n\n        if (merchantList[to]){\n            uint256 valueOfTokens = amount*(PBMTokenManager(pbmTokenManager).getTokenValue(id)); \n\n            // burn and transfer underlying ERC-20\n            _burn(from, id, amount);\n            PBMTokenManager(pbmTokenManager).decreaseBalanceSupply(serialise(id), serialise(amount)) ; \n            ERC20Helper.safeTransfer(spotToken, to, valueOfTokens);\n            emit MerchantPayment(from, to, serialise(id), serialise(amount), spotToken, valueOfTokens);\n\n        } else {\n            _safeTransferFrom(from, to, id, amount, data);\n        }\n \n    }\n\n    /**\n     * @dev See {IPBM-safeBatchTransferFrom}.\n     *     \n     *\n     * Requirements:\n     *\n     * - contract must not be paused\n     * - tokens must not be expired\n     * - `tokenIds` should all be  valid ids that has already been created\n     * - `tokenIds` and `amounts` list need to have the same number of values\n     * - caller should have the PBMs that are being transferred (or)\n     *          caller should have the approval to spend the PBMs on behalf of the owner (`from` addresss)\n     */ \n    function safeBatchTransferFrom(address from,address to,uint256[] memory ids,uint256[] memory amounts, bytes memory data) \n    public  \n    override(ERC1155, IPBM)\n    whenNotPaused \n    {\n        require(\n            from == _msgSender() || isApprovedForAll(from, _msgSender()),\n            \"ERC1155: caller is not token owner nor approved\"\n        );\n        require(ids.length == amounts.length, \"Unequal ids and amounts supplied\"); \n        require(PBMTokenManager(pbmTokenManager).areTokensValid(ids), \"PBM: Invalid token id(s) provided\");\n\n        if (merchantList[to]){\n            uint256 valueOfTokens = 0 ; \n            for (uint256 i = 0; i < ids.length; i++) {\n                valueOfTokens += (amounts[i]*(PBMTokenManager(pbmTokenManager).getTokenValue(ids[i]))) ; \n            } \n\n            _burnBatch(from, ids, amounts);\n            PBMTokenManager(pbmTokenManager).decreaseBalanceSupply(ids, amounts);\n            ERC20Helper.safeTransfer(spotToken, to, valueOfTokens);\n\n            emit MerchantPayment(from, to, ids, amounts, spotToken, valueOfTokens);\n\n        } else {\n            _safeBatchTransferFrom(from, to, ids, amounts, data);\n        }\n    }\n    \n    /**\n     * @dev See {IPBM-revokePBM}.\n     *\n     * Requirements:\n     *\n     * - `tokenId` should be a valid ids that has already been created\n     * - caller must be the creator of the tokenType \n     * - token must be expired\n     */ \n    function revokePBM(uint256 tokenId) \n    external \n    override\n    whenNotPaused \n    {\n        uint256 PBMTokenBalanceSupply = PBMTokenManager(pbmTokenManager).getTokenCount(tokenId); \n        uint256 valueOfTokens = PBMTokenBalanceSupply*(PBMTokenManager(pbmTokenManager).getTokenValue(tokenId)); \n\n        PBMTokenManager(pbmTokenManager).revokePBM(tokenId, msg.sender); \n\n        // transfering underlying ERC20 tokens\n        ERC20Helper.safeTransfer(spotToken, msg.sender, valueOfTokens);\n\n        emit PBMrevokeWithdraw(msg.sender, tokenId, spotToken, valueOfTokens);\n\n    }\n    /**\n     * @dev See {IPBM-getTokenDetails}.\n     *\n     */ \n    function getTokenDetails(uint256 tokenId) \n    external \n    view \n    override\n    returns (string memory, uint256, uint256, address) \n    {\n        return PBMTokenManager(pbmTokenManager).getTokenDetails(tokenId); \n    }\n\n    /**\n     * @dev See {IPBM-uri}.\n     *\n     */ \n    function uri(uint256 tokenId)\n    public  \n    view\n    override(ERC1155, IPBM)\n    returns (string memory)\n    {\n        return PBMTokenManager(pbmTokenManager).uri(tokenId);\n    }\n\n    function serialise(uint256 num)\n    internal \n    pure\n    returns (uint256[] memory) {\n        uint256[] memory array  = new uint256[](1) ; \n        array[0] = num ; \n        return array ;\n    }\n}",
  "sourcePath": "/Users/mihir/Desktop/code/Orchid-PBM/contracts/PBM.sol",
  "compiler": {
    "name": "solc",
    "version": "0.8.7+commit.e28d00a7.Emscripten.clang"
  },
  "schemaVersion": "3.4.3",
  "updatedAt": "2022-09-19T10:16:27.622Z",
  "devdoc": {
    "kind": "dev",
    "methods": {
      "addMerchantAddresses(address[])": {
        "details": "See {IPBM-addMerchantAddresses}. Requirements: - caller must be owner  - contract must not be expired"
      },
      "balanceOf(address,uint256)": {
        "details": "See {IERC1155-balanceOf}. Requirements: - `account` cannot be the zero address."
      },
      "balanceOfBatch(address[],uint256[])": {
        "details": "See {IERC1155-balanceOfBatch}. Requirements: - `accounts` and `ids` must have the same length."
      },
      "batchMint(uint256[],uint256[],address)": {
        "details": "See {IPBM-batchMint}.      IMPT: Before minting, the caller should approve the contract address to spend ERC-20 tokens on behalf of the caller.       This can be done by calling the `approve` or `increaseMinterAllowance` functions of the ERC-20 contract and specifying `_spender` to be the PBM contract address.  Ref : https://eips.ethereum.org/EIPS/eip-20 Requirements: - contract must not be paused - tokens must not be expired - `tokenIds` should all be valid ids that have already been created - `tokenIds` and `amounts` list need to have the same number of values - caller should have the necessary amount of the ERC-20 tokens required to mint - caller should have approved the PBM contract to spend the ERC-20 tokens"
      },
      "createPBMTokenType(string,uint256,uint256,address,string)": {
        "details": "See {IPBM-createPBMTokenType}. Requirements: - caller must be owner  - contract must not be expired"
      },
      "getTokenDetails(uint256)": {
        "details": "See {IPBM-getTokenDetails}."
      },
      "isApprovedForAll(address,address)": {
        "details": "See {IERC1155-isApprovedForAll}."
      },
      "mint(uint256,uint256,address)": {
        "details": "See {IPBM-mint}.      IMPT: Before minting, the caller should approve the contract address to spend ERC-20 tokens on behalf of the caller.       This can be done by calling the `approve` or `increaseMinterAllowance` functions of the ERC-20 contract and specifying `_spender` to be the PBM contract address.  Ref : https://eips.ethereum.org/EIPS/eip-20 Requirements: - contract must not be paused - tokens must not be expired - `tokenId` should be a valid id that has already been created - caller should have the necessary amount of the ERC-20 tokens required to mint - caller should have approved the PBM contract to spend the ERC-20 tokens"
      },
      "owner()": {
        "details": "Returns the address of the current owner."
      },
      "paused()": {
        "details": "Returns true if the contract is paused, and false otherwise."
      },
      "removeMerchantAddresses(address[])": {
        "details": "See {IPBM-removeMerchantAddresses}. Requirements: - caller must be owner  - contract must not be expired"
      },
      "renounceOwnership()": {
        "details": "Leaves the contract without owner. It will not be possible to call `onlyOwner` functions anymore. Can only be called by the current owner. NOTE: Renouncing ownership will leave the contract without an owner, thereby removing any functionality that is only available to the owner."
      },
      "revokePBM(uint256)": {
        "details": "See {IPBM-revokePBM}. Requirements: - `tokenId` should be a valid ids that has already been created - caller must be the creator of the tokenType  - token must be expired"
      },
      "safeBatchTransferFrom(address,address,uint256[],uint256[],bytes)": {
        "details": "See {IPBM-safeBatchTransferFrom}.      Requirements: - contract must not be paused - tokens must not be expired - `tokenIds` should all be  valid ids that has already been created - `tokenIds` and `amounts` list need to have the same number of values - caller should have the PBMs that are being transferred (or)          caller should have the approval to spend the PBMs on behalf of the owner (`from` addresss)"
      },
      "safeTransferFrom(address,address,uint256,uint256,bytes)": {
        "details": "See {IPBM-safeTransferFrom}.      Requirements: - contract must not be paused - tokens must not be expired - `tokenId` should be a valid ids that has already been created - caller should have the PBMs that are being transferred (or)          caller should have the approval to spend the PBMs on behalf of the owner (`from` addresss)"
      },
      "setApprovalForAll(address,bool)": {
        "details": "See {IERC1155-setApprovalForAll}."
      },
      "supportsInterface(bytes4)": {
        "details": "See {IERC165-supportsInterface}."
      },
      "transferOwnership(address)": {
        "details": "Transfers ownership of the contract to a new account (`newOwner`). Can only be called by the current owner."
      },
      "updatePBMExpiry(uint256)": {
        "details": "See {IPBM-udpatePBMExpiry}. Requirements: - caller must be owner  - contract must not be paused - contract must not be expired - `newExpiry` must be larger the existing expiry"
      },
      "uri(uint256)": {
        "details": "See {IPBM-uri}."
      }
    },
    "version": 1
  },
  "userdoc": {
    "events": {
      "MerchantPayment(address,address,uint256[],uint256[],address,uint256)": {
        "notice": "Emitted when underlying ERC-20 tokens are transferred to a whitelisted merchant ( payment )"
      },
      "PBMrevokeWithdraw(address,uint256,address,uint256)": {
        "notice": "Emitted when a PBM type creator withdraws the underlying ERC-20 tokens from all the remaining expired PBMs"
      }
    },
    "kind": "user",
    "methods": {},
    "version": 1
  }
}