{
  "contractName": "PBM",
  "abi": [
    {
      "inputs": [
        {
          "internalType": "address",
          "name": "_spotToken",
          "type": "address"
        },
        {
          "internalType": "uint256",
          "name": "_expiry",
          "type": "uint256"
        },
        {
          "internalType": "string",
          "name": "_uriPostExpiry",
          "type": "string"
        }
      ],
      "stateMutability": "nonpayable",
      "type": "constructor"
    },
    {
      "anonymous": false,
      "inputs": [
        {
          "indexed": true,
          "internalType": "address",
          "name": "account",
          "type": "address"
        },
        {
          "indexed": true,
          "internalType": "address",
          "name": "operator",
          "type": "address"
        },
        {
          "indexed": false,
          "internalType": "bool",
          "name": "approved",
          "type": "bool"
        }
      ],
      "name": "ApprovalForAll",
      "type": "event"
    },
    {
      "anonymous": false,
      "inputs": [
        {
          "indexed": true,
          "internalType": "address",
          "name": "previousOwner",
          "type": "address"
        },
        {
          "indexed": true,
          "internalType": "address",
          "name": "newOwner",
          "type": "address"
        }
      ],
      "name": "OwnershipTransferred",
      "type": "event"
    },
    {
      "anonymous": false,
      "inputs": [
        {
          "indexed": false,
          "internalType": "address",
          "name": "beneficiary",
          "type": "address"
        },
        {
          "indexed": false,
          "internalType": "uint256",
          "name": "PBMTokenId",
          "type": "uint256"
        },
        {
          "indexed": false,
          "internalType": "address",
          "name": "ERC20Token",
          "type": "address"
        },
        {
          "indexed": false,
          "internalType": "uint256",
          "name": "ERC20TokenValue",
          "type": "uint256"
        }
      ],
      "name": "PBMrevokeWithdraw",
      "type": "event"
    },
    {
      "anonymous": false,
      "inputs": [
        {
          "indexed": false,
          "internalType": "address",
          "name": "account",
          "type": "address"
        }
      ],
      "name": "Paused",
      "type": "event"
    },
    {
      "anonymous": false,
      "inputs": [
        {
          "indexed": true,
          "internalType": "address",
          "name": "operator",
          "type": "address"
        },
        {
          "indexed": true,
          "internalType": "address",
          "name": "from",
          "type": "address"
        },
        {
          "indexed": true,
          "internalType": "address",
          "name": "to",
          "type": "address"
        },
        {
          "indexed": false,
          "internalType": "uint256[]",
          "name": "ids",
          "type": "uint256[]"
        },
        {
          "indexed": false,
          "internalType": "uint256[]",
          "name": "values",
          "type": "uint256[]"
        }
      ],
      "name": "TransferBatch",
      "type": "event"
    },
    {
      "anonymous": false,
      "inputs": [
        {
          "indexed": true,
          "internalType": "address",
          "name": "operator",
          "type": "address"
        },
        {
          "indexed": true,
          "internalType": "address",
          "name": "from",
          "type": "address"
        },
        {
          "indexed": true,
          "internalType": "address",
          "name": "to",
          "type": "address"
        },
        {
          "indexed": false,
          "internalType": "uint256",
          "name": "id",
          "type": "uint256"
        },
        {
          "indexed": false,
          "internalType": "uint256",
          "name": "value",
          "type": "uint256"
        }
      ],
      "name": "TransferSingle",
      "type": "event"
    },
    {
      "anonymous": false,
      "inputs": [
        {
          "indexed": false,
          "internalType": "string",
          "name": "value",
          "type": "string"
        },
        {
          "indexed": true,
          "internalType": "uint256",
          "name": "id",
          "type": "uint256"
        }
      ],
      "name": "URI",
      "type": "event"
    },
    {
      "anonymous": false,
      "inputs": [
        {
          "indexed": false,
          "internalType": "address",
          "name": "account",
          "type": "address"
        }
      ],
      "name": "Unpaused",
      "type": "event"
    },
    {
      "anonymous": false,
      "inputs": [
        {
          "indexed": false,
          "internalType": "address",
          "name": "from",
          "type": "address"
        },
        {
          "indexed": false,
          "internalType": "address",
          "name": "to",
          "type": "address"
        },
        {
          "indexed": false,
          "internalType": "uint256[]",
          "name": "tokenIds",
          "type": "uint256[]"
        },
        {
          "indexed": false,
          "internalType": "uint256[]",
          "name": "amounts",
          "type": "uint256[]"
        },
        {
          "indexed": false,
          "internalType": "uint256",
          "name": "value",
          "type": "uint256"
        }
      ],
      "name": "merchantPayment",
      "type": "event"
    },
    {
      "inputs": [
        {
          "internalType": "address",
          "name": "account",
          "type": "address"
        },
        {
          "internalType": "uint256",
          "name": "id",
          "type": "uint256"
        }
      ],
      "name": "balanceOf",
      "outputs": [
        {
          "internalType": "uint256",
          "name": "",
          "type": "uint256"
        }
      ],
      "stateMutability": "view",
      "type": "function"
    },
    {
      "inputs": [
        {
          "internalType": "address[]",
          "name": "accounts",
          "type": "address[]"
        },
        {
          "internalType": "uint256[]",
          "name": "ids",
          "type": "uint256[]"
        }
      ],
      "name": "balanceOfBatch",
      "outputs": [
        {
          "internalType": "uint256[]",
          "name": "",
          "type": "uint256[]"
        }
      ],
      "stateMutability": "view",
      "type": "function"
    },
    {
      "inputs": [],
      "name": "contractExpiry",
      "outputs": [
        {
          "internalType": "uint256",
          "name": "",
          "type": "uint256"
        }
      ],
      "stateMutability": "view",
      "type": "function"
    },
    {
      "inputs": [
        {
          "internalType": "address",
          "name": "account",
          "type": "address"
        },
        {
          "internalType": "address",
          "name": "operator",
          "type": "address"
        }
      ],
      "name": "isApprovedForAll",
      "outputs": [
        {
          "internalType": "bool",
          "name": "",
          "type": "bool"
        }
      ],
      "stateMutability": "view",
      "type": "function"
    },
    {
      "inputs": [
        {
          "internalType": "address",
          "name": "",
          "type": "address"
        }
      ],
      "name": "merchantList",
      "outputs": [
        {
          "internalType": "bool",
          "name": "",
          "type": "bool"
        }
      ],
      "stateMutability": "view",
      "type": "function"
    },
    {
      "inputs": [],
      "name": "owner",
      "outputs": [
        {
          "internalType": "address",
          "name": "",
          "type": "address"
        }
      ],
      "stateMutability": "view",
      "type": "function"
    },
    {
      "inputs": [],
      "name": "paused",
      "outputs": [
        {
          "internalType": "bool",
          "name": "",
          "type": "bool"
        }
      ],
      "stateMutability": "view",
      "type": "function"
    },
    {
      "inputs": [],
      "name": "pbmTokenManager",
      "outputs": [
        {
          "internalType": "address",
          "name": "",
          "type": "address"
        }
      ],
      "stateMutability": "view",
      "type": "function"
    },
    {
      "inputs": [],
      "name": "renounceOwnership",
      "outputs": [],
      "stateMutability": "nonpayable",
      "type": "function"
    },
    {
      "inputs": [
        {
          "internalType": "address",
          "name": "operator",
          "type": "address"
        },
        {
          "internalType": "bool",
          "name": "approved",
          "type": "bool"
        }
      ],
      "name": "setApprovalForAll",
      "outputs": [],
      "stateMutability": "nonpayable",
      "type": "function"
    },
    {
      "inputs": [],
      "name": "spotToken",
      "outputs": [
        {
          "internalType": "address",
          "name": "",
          "type": "address"
        }
      ],
      "stateMutability": "view",
      "type": "function"
    },
    {
      "inputs": [
        {
          "internalType": "bytes4",
          "name": "interfaceId",
          "type": "bytes4"
        }
      ],
      "name": "supportsInterface",
      "outputs": [
        {
          "internalType": "bool",
          "name": "",
          "type": "bool"
        }
      ],
      "stateMutability": "view",
      "type": "function"
    },
    {
      "inputs": [
        {
          "internalType": "address",
          "name": "newOwner",
          "type": "address"
        }
      ],
      "name": "transferOwnership",
      "outputs": [],
      "stateMutability": "nonpayable",
      "type": "function"
    },
    {
      "inputs": [
        {
          "internalType": "uint256",
          "name": "extendedExpiry",
          "type": "uint256"
        }
      ],
      "name": "extendPBMExpiry",
      "outputs": [],
      "stateMutability": "nonpayable",
      "type": "function"
    },
    {
      "inputs": [
        {
          "internalType": "string",
          "name": "companyName",
          "type": "string"
        },
        {
          "internalType": "uint256",
          "name": "spotAmount",
          "type": "uint256"
        },
        {
          "internalType": "uint256",
          "name": "tokenExpiry",
          "type": "uint256"
        },
        {
          "internalType": "address",
          "name": "creator",
          "type": "address"
        },
        {
          "internalType": "string",
          "name": "tokenURI",
          "type": "string"
        }
      ],
      "name": "createPBMTokenType",
      "outputs": [],
      "stateMutability": "nonpayable",
      "type": "function"
    },
    {
      "inputs": [
        {
          "internalType": "uint256",
          "name": "tokenId",
          "type": "uint256"
        },
        {
          "internalType": "uint256",
          "name": "amount",
          "type": "uint256"
        },
        {
          "internalType": "address",
          "name": "receiver",
          "type": "address"
        }
      ],
      "name": "mint",
      "outputs": [],
      "stateMutability": "nonpayable",
      "type": "function"
    },
    {
      "inputs": [
        {
          "internalType": "uint256[]",
          "name": "tokenIds",
          "type": "uint256[]"
        },
        {
          "internalType": "uint256[]",
          "name": "amounts",
          "type": "uint256[]"
        },
        {
          "internalType": "address",
          "name": "receiver",
          "type": "address"
        }
      ],
      "name": "batchMint",
      "outputs": [],
      "stateMutability": "nonpayable",
      "type": "function"
    },
    {
      "inputs": [
        {
          "internalType": "address",
          "name": "from",
          "type": "address"
        },
        {
          "internalType": "address",
          "name": "to",
          "type": "address"
        },
        {
          "internalType": "uint256",
          "name": "id",
          "type": "uint256"
        },
        {
          "internalType": "uint256",
          "name": "amount",
          "type": "uint256"
        },
        {
          "internalType": "bytes",
          "name": "data",
          "type": "bytes"
        }
      ],
      "name": "safeTransferFrom",
      "outputs": [],
      "stateMutability": "nonpayable",
      "type": "function"
    },
    {
      "inputs": [
        {
          "internalType": "address",
          "name": "from",
          "type": "address"
        },
        {
          "internalType": "address",
          "name": "to",
          "type": "address"
        },
        {
          "internalType": "uint256[]",
          "name": "ids",
          "type": "uint256[]"
        },
        {
          "internalType": "uint256[]",
          "name": "amounts",
          "type": "uint256[]"
        },
        {
          "internalType": "bytes",
          "name": "data",
          "type": "bytes"
        }
      ],
      "name": "safeBatchTransferFrom",
      "outputs": [],
      "stateMutability": "nonpayable",
      "type": "function"
    },
    {
      "inputs": [
        {
          "internalType": "uint256",
          "name": "tokenId",
          "type": "uint256"
        }
      ],
      "name": "revokePBM",
      "outputs": [],
      "stateMutability": "nonpayable",
      "type": "function"
    },
    {
      "inputs": [
        {
          "internalType": "uint256",
          "name": "tokenId",
          "type": "uint256"
        }
      ],
      "name": "getTokenDetails",
      "outputs": [
        {
          "internalType": "string",
          "name": "",
          "type": "string"
        },
        {
          "internalType": "uint256",
          "name": "",
          "type": "uint256"
        },
        {
          "internalType": "uint256",
          "name": "",
          "type": "uint256"
        },
        {
          "internalType": "address",
          "name": "",
          "type": "address"
        }
      ],
      "stateMutability": "view",
      "type": "function"
    },
    {
      "inputs": [
        {
          "internalType": "uint256",
          "name": "tokenId",
          "type": "uint256"
        }
      ],
      "name": "uri",
      "outputs": [
        {
          "internalType": "string",
          "name": "",
          "type": "string"
        }
      ],
      "stateMutability": "view",
      "type": "function"
    }
  ],
  "bytecode": "0x60806040523480156200001157600080fd5b5060405162007c3238038062007c328339818101604052810190620000379190620003b2565b6040518060200160405280600081525062000058816200015e60201b60201c565b50620000796200006d6200017a60201b60201c565b6200018260201b60201c565b6000600360146101000a81548160ff02191690831515021790555082600460006101000a81548173ffffffffffffffffffffffffffffffffffffffff021916908373ffffffffffffffffffffffffffffffffffffffff1602179055508160058190555080604051620000eb9062000248565b620000f791906200046e565b604051809103906000f08015801562000114573d6000803e3d6000fd5b50600860006101000a81548173ffffffffffffffffffffffffffffffffffffffff021916908373ffffffffffffffffffffffffffffffffffffffff160217905550505050620006a4565b80600290805190602001906200017692919062000256565b5050565b600033905090565b6000600360009054906101000a900473ffffffffffffffffffffffffffffffffffffffff16905081600360006101000a81548173ffffffffffffffffffffffffffffffffffffffff021916908373ffffffffffffffffffffffffffffffffffffffff1602179055508173ffffffffffffffffffffffffffffffffffffffff168173ffffffffffffffffffffffffffffffffffffffff167f8be0079c531659141344cd1fd0a4f28419497f9722a3daafe3b4186f6b6457e060405160405180910390a35050565b6120498062005be983390190565b828054620002649062000581565b90600052602060002090601f016020900481019282620002885760008555620002d4565b82601f10620002a357805160ff1916838001178555620002d4565b82800160010185558215620002d4579182015b82811115620002d3578251825591602001919060010190620002b6565b5b509050620002e39190620002e7565b5090565b5b8082111562000302576000816000905550600101620002e8565b5090565b60006200031d6200031784620004bb565b62000492565b9050828152602081018484840111156200033c576200033b62000650565b5b620003498482856200054b565b509392505050565b600081519050620003628162000670565b92915050565b600082601f83011262000380576200037f6200064b565b5b81516200039284826020860162000306565b91505092915050565b600081519050620003ac816200068a565b92915050565b600080600060608486031215620003ce57620003cd6200065a565b5b6000620003de8682870162000351565b9350506020620003f1868287016200039b565b925050604084015167ffffffffffffffff81111562000415576200041462000655565b5b620004238682870162000368565b9150509250925092565b60006200043a82620004f1565b620004468185620004fc565b9350620004588185602086016200054b565b62000463816200065f565b840191505092915050565b600060208201905081810360008301526200048a81846200042d565b905092915050565b60006200049e620004b1565b9050620004ac8282620005b7565b919050565b6000604051905090565b600067ffffffffffffffff821115620004d957620004d86200061c565b5b620004e4826200065f565b9050602081019050919050565b600081519050919050565b600082825260208201905092915050565b60006200051a8262000521565b9050919050565b600073ffffffffffffffffffffffffffffffffffffffff82169050919050565b6000819050919050565b60005b838110156200056b5780820151818401526020810190506200054e565b838111156200057b576000848401525b50505050565b600060028204905060018216806200059a57607f821691505b60208210811415620005b157620005b0620005ed565b5b50919050565b620005c2826200065f565b810181811067ffffffffffffffff82111715620005e457620005e36200061c565b5b80604052505050565b7f4e487b7100000000000000000000000000000000000000000000000000000000600052602260045260246000fd5b7f4e487b7100000000000000000000000000000000000000000000000000000000600052604160045260246000fd5b600080fd5b600080fd5b600080fd5b600080fd5b6000601f19601f8301169050919050565b6200067b816200050d565b81146200068757600080fd5b50565b620006958162000541565b8114620006a157600080fd5b50565b61553580620006b46000396000f3fe608060405234801561001057600080fd5b50600436106101415760003560e01c806373e17e76116100b8578063c1e037281161007c578063c1e0372814610362578063e7d3fe6b14610395578063e985e9c5146103b1578063f242432a146103e1578063f2fde38b146103fd578063fb34b2011461041957610141565b806373e17e76146102d257806389aba642146102ee5780638da5cb5b1461030c57806398a200bc1461032a578063a22cb4651461034657610141565b80632eb2c2d61161010a5780632eb2c2d6146102245780634e1273f4146102405780635c975abb146102705780635ed7be9d1461028e57806363be47d2146102aa578063715018a6146102c857610141565b8062fdd58e1461014657806301ffc9a7146101765780630ad89462146101a65780630e89341c146101c4578063294adb5a146101f4575b600080fd5b610160600480360381019061015b9190613b41565b610435565b60405161016d9190614999565b60405180910390f35b610190600480360381019061018b9190613cb1565b6104fe565b60405161019d91906145e1565b60405180910390f35b6101ae6105e0565b6040516101bb91906143a5565b60405180910390f35b6101de60048036038101906101d99190613e8a565b610606565b6040516101eb91906145fc565b60405180910390f35b61020e6004803603810190610209919061392e565b6106bf565b60405161021b91906145e1565b60405180910390f35b61023e6004803603810190610239919061399b565b6106df565b005b61025a60048036038101906102559190613b81565b610b2d565b6040516102679190614588565b60405180910390f35b610278610c46565b60405161028591906145e1565b60405180910390f35b6102a860048036038101906102a39190613dd7565b610c5d565b005b6102b2610d05565b6040516102bf91906143a5565b60405180910390f35b6102d0610d2b565b005b6102ec60048036038101906102e79190613e8a565b610d3f565b005b6102f6610fd0565b6040516103039190614999565b60405180910390f35b610314610fd6565b60405161032191906143a5565b60405180910390f35b610344600480360381019061033f9190613e8a565b611000565b005b610360600480360381019061035b9190613b01565b6110a2565b005b61037c60048036038101906103779190613e8a565b6110b8565b60405161038c949392919061461e565b60405180910390f35b6103af60048036038101906103aa9190613ee4565b61117e565b005b6103cb60048036038101906103c6919061395b565b611420565b6040516103d891906145e1565b60405180910390f35b6103fb60048036038101906103f69190613a6a565b6114b4565b005b6104176004803603810190610412919061392e565b611888565b005b610433600480360381019061042e9190613bf9565b61190c565b005b60008073ffffffffffffffffffffffffffffffffffffffff168373ffffffffffffffffffffffffffffffffffffffff1614156104a6576040517f08c379a000000000000000000000000000000000000000000000000000000000815260040161049d906147d9565b60405180910390fd5b60008083815260200190815260200160002060008473ffffffffffffffffffffffffffffffffffffffff1673ffffffffffffffffffffffffffffffffffffffff16815260200190815260200160002054905092915050565b60007fd9b67a26000000000000000000000000000000000000000000000000000000007bffffffffffffffffffffffffffffffffffffffffffffffffffffffff1916827bffffffffffffffffffffffffffffffffffffffffffffffffffffffff191614806105c957507f0e89341c000000000000000000000000000000000000000000000000000000007bffffffffffffffffffffffffffffffffffffffffffffffffffffffff1916827bffffffffffffffffffffffffffffffffffffffffffffffffffffffff1916145b806105d957506105d882611c39565b5b9050919050565b600460009054906101000a900473ffffffffffffffffffffffffffffffffffffffff1681565b6060600860009054906101000a900473ffffffffffffffffffffffffffffffffffffffff1673ffffffffffffffffffffffffffffffffffffffff16630e89341c836040518263ffffffff1660e01b81526004016106639190614999565b60006040518083038186803b15801561067b57600080fd5b505afa15801561068f573d6000803e3d6000fd5b505050506040513d6000823e3d601f19601f820116820180604052508101906106b89190613d0b565b9050919050565b60066020528060005260406000206000915054906101000a900460ff1681565b6106e7611ca3565b6106ef611ced565b73ffffffffffffffffffffffffffffffffffffffff168573ffffffffffffffffffffffffffffffffffffffff16148061073557506107348561072f611ced565b611420565b5b610774576040517f08c379a000000000000000000000000000000000000000000000000000000000815260040161076b906146f9565b60405180910390fd5b81518351146107b8576040517f08c379a00000000000000000000000000000000000000000000000000000000081526004016107af906148d9565b60405180910390fd5b600860009054906101000a900473ffffffffffffffffffffffffffffffffffffffff1673ffffffffffffffffffffffffffffffffffffffff166348fd09f5846040518263ffffffff1660e01b81526004016108139190614588565b60206040518083038186803b15801561082b57600080fd5b505afa15801561083f573d6000803e3d6000fd5b505050506040513d601f19601f820116820180604052508101906108639190613c84565b6108a2576040517f08c379a000000000000000000000000000000000000000000000000000000000815260040161089990614739565b60405180910390fd5b600660008573ffffffffffffffffffffffffffffffffffffffff1673ffffffffffffffffffffffffffffffffffffffff16815260200190815260200160002060009054906101000a900460ff1615610b18576000805b8451811015610a0b57600860009054906101000a900473ffffffffffffffffffffffffffffffffffffffff1673ffffffffffffffffffffffffffffffffffffffff1663d10424c786838151811061095257610951614d70565b5b60200260200101516040518263ffffffff1660e01b81526004016109769190614999565b60206040518083038186803b15801561098e57600080fd5b505afa1580156109a2573d6000803e3d6000fd5b505050506040513d601f19601f820116820180604052508101906109c69190613eb7565b8482815181106109d9576109d8614d70565b5b60200260200101516109eb9190614bb7565b826109f69190614b61565b91508080610a0390614cf8565b9150506108f8565b50610a17868585611cf5565b600860009054906101000a900473ffffffffffffffffffffffffffffffffffffffff1673ffffffffffffffffffffffffffffffffffffffff1663e21c8b5985856040518363ffffffff1660e01b8152600401610a749291906145aa565b600060405180830381600087803b158015610a8e57600080fd5b505af1158015610aa2573d6000803e3d6000fd5b50505050610ad3600460009054906101000a900473ffffffffffffffffffffffffffffffffffffffff168683611fc4565b7f419b93ad2d194278adbe153d01aa6ad9b2ff2487d4ec47f0d2ee147eb74b005a8686868685604051610b0a959493929190614428565b60405180910390a150610b26565b610b258585858585612119565b5b5050505050565b60608151835114610b73576040517f08c379a0000000000000000000000000000000000000000000000000000000008152600401610b6a90614919565b60405180910390fd5b6000835167ffffffffffffffff811115610b9057610b8f614d9f565b5b604051908082528060200260200182016040528015610bbe5781602001602082028036833780820191505090505b50905060005b8451811015610c3b57610c0b858281518110610be357610be2614d70565b5b6020026020010151858381518110610bfe57610bfd614d70565b5b6020026020010151610435565b828281518110610c1e57610c1d614d70565b5b60200260200101818152505080610c3490614cf8565b9050610bc4565b508091505092915050565b6000600360149054906101000a900460ff16905090565b610c6561243b565b600860009054906101000a900473ffffffffffffffffffffffffffffffffffffffff1673ffffffffffffffffffffffffffffffffffffffff166380d69c8a86868686866005546040518763ffffffff1660e01b8152600401610ccc9695949392919061466a565b600060405180830381600087803b158015610ce657600080fd5b505af1158015610cfa573d6000803e3d6000fd5b505050505050505050565b600860009054906101000a900473ffffffffffffffffffffffffffffffffffffffff1681565b610d3361243b565b610d3d60006124b9565b565b610d47611ca3565b6000600860009054906101000a900473ffffffffffffffffffffffffffffffffffffffff1673ffffffffffffffffffffffffffffffffffffffff1663234661c4836040518263ffffffff1660e01b8152600401610da49190614999565b60206040518083038186803b158015610dbc57600080fd5b505afa158015610dd0573d6000803e3d6000fd5b505050506040513d601f19601f82011682018060405250810190610df49190613eb7565b90506000600860009054906101000a900473ffffffffffffffffffffffffffffffffffffffff1673ffffffffffffffffffffffffffffffffffffffff1663d10424c7846040518263ffffffff1660e01b8152600401610e539190614999565b60206040518083038186803b158015610e6b57600080fd5b505afa158015610e7f573d6000803e3d6000fd5b505050506040513d601f19601f82011682018060405250810190610ea39190613eb7565b82610eae9190614bb7565b9050600860009054906101000a900473ffffffffffffffffffffffffffffffffffffffff1673ffffffffffffffffffffffffffffffffffffffff166336a3409c84336040518363ffffffff1660e01b8152600401610f0d9291906149b4565b600060405180830381600087803b158015610f2757600080fd5b505af1158015610f3b573d6000803e3d6000fd5b50505050610f6c600460009054906101000a900473ffffffffffffffffffffffffffffffffffffffff163383611fc4565b7fa1c359e2aefcb2a02fa122099023552498d16ee2c91b81d3cfd8cd086f037d443384600460009054906101000a900473ffffffffffffffffffffffffffffffffffffffff1684604051610fc39493929190614543565b60405180910390a1505050565b60055481565b6000600360009054906101000a900473ffffffffffffffffffffffffffffffffffffffff16905090565b61100861243b565b611010611ca3565b6005544210611054576040517f08c379a000000000000000000000000000000000000000000000000000000000815260040161104b906147b9565b60405180910390fd5b6005548111611098576040517f08c379a000000000000000000000000000000000000000000000000000000000815260040161108f906148b9565b60405180910390fd5b8060058190555050565b6110b46110ad611ced565b838361257f565b5050565b60606000806000600860009054906101000a900473ffffffffffffffffffffffffffffffffffffffff1673ffffffffffffffffffffffffffffffffffffffff1663c1e03728866040518263ffffffff1660e01b815260040161111a9190614999565b60006040518083038186803b15801561113257600080fd5b505afa158015611146573d6000803e3d6000fd5b505050506040513d6000823e3d601f19601f8201168201806040525081019061116f9190613d54565b93509350935093509193509193565b611186611ca3565b600860009054906101000a900473ffffffffffffffffffffffffffffffffffffffff1673ffffffffffffffffffffffffffffffffffffffff166348fd09f56111cd856126ec565b6040518263ffffffff1660e01b81526004016111e99190614588565b60206040518083038186803b15801561120157600080fd5b505afa158015611215573d6000803e3d6000fd5b505050506040513d601f19601f820116820180604052508101906112399190613c84565b611278576040517f08c379a000000000000000000000000000000000000000000000000000000000815260040161126f90614759565b60405180910390fd5b6000600860009054906101000a900473ffffffffffffffffffffffffffffffffffffffff1673ffffffffffffffffffffffffffffffffffffffff1663d10424c7856040518263ffffffff1660e01b81526004016112d59190614999565b60206040518083038186803b1580156112ed57600080fd5b505afa158015611301573d6000803e3d6000fd5b505050506040513d601f19601f820116820180604052508101906113259190613eb7565b836113309190614bb7565b9050611360600460009054906101000a900473ffffffffffffffffffffffffffffffffffffffff16333084612766565b600860009054906101000a900473ffffffffffffffffffffffffffffffffffffffff1673ffffffffffffffffffffffffffffffffffffffff1663f600d9f46113a7866126ec565b6113b0866126ec565b6040518363ffffffff1660e01b81526004016113cd9291906145aa565b600060405180830381600087803b1580156113e757600080fd5b505af11580156113fb573d6000803e3d6000fd5b5050505061141a828585604051806020016040528060008152506128be565b50505050565b6000600160008473ffffffffffffffffffffffffffffffffffffffff1673ffffffffffffffffffffffffffffffffffffffff16815260200190815260200160002060008373ffffffffffffffffffffffffffffffffffffffff1673ffffffffffffffffffffffffffffffffffffffff16815260200190815260200160002060009054906101000a900460ff16905092915050565b6114bc611ca3565b6114c4611ced565b73ffffffffffffffffffffffffffffffffffffffff168573ffffffffffffffffffffffffffffffffffffffff16148061150a575061150985611504611ced565b611420565b5b611549576040517f08c379a0000000000000000000000000000000000000000000000000000000008152600401611540906146f9565b60405180910390fd5b600860009054906101000a900473ffffffffffffffffffffffffffffffffffffffff1673ffffffffffffffffffffffffffffffffffffffff166348fd09f5611590856126ec565b6040518263ffffffff1660e01b81526004016115ac9190614588565b60206040518083038186803b1580156115c457600080fd5b505afa1580156115d8573d6000803e3d6000fd5b505050506040513d601f19601f820116820180604052508101906115fc9190613c84565b61163b576040517f08c379a000000000000000000000000000000000000000000000000000000000815260040161163290614759565b60405180910390fd5b600660008573ffffffffffffffffffffffffffffffffffffffff1673ffffffffffffffffffffffffffffffffffffffff16815260200190815260200160002060009054906101000a900460ff1615611873576000600860009054906101000a900473ffffffffffffffffffffffffffffffffffffffff1673ffffffffffffffffffffffffffffffffffffffff1663d10424c7856040518263ffffffff1660e01b81526004016116ea9190614999565b60206040518083038186803b15801561170257600080fd5b505afa158015611716573d6000803e3d6000fd5b505050506040513d601f19601f8201168201806040525081019061173a9190613eb7565b836117459190614bb7565b9050611752868585612a6f565b600860009054906101000a900473ffffffffffffffffffffffffffffffffffffffff1673ffffffffffffffffffffffffffffffffffffffff1663e21c8b59611799866126ec565b6117a2866126ec565b6040518363ffffffff1660e01b81526004016117bf9291906145aa565b600060405180830381600087803b1580156117d957600080fd5b505af11580156117ed573d6000803e3d6000fd5b5050505061181e600460009054906101000a900473ffffffffffffffffffffffffffffffffffffffff168683611fc4565b7f419b93ad2d194278adbe153d01aa6ad9b2ff2487d4ec47f0d2ee147eb74b005a868661184a876126ec565b611853876126ec565b85604051611865959493929190614428565b60405180910390a150611881565b6118808585858585612cb6565b5b5050505050565b61189061243b565b600073ffffffffffffffffffffffffffffffffffffffff168173ffffffffffffffffffffffffffffffffffffffff161415611900576040517f08c379a00000000000000000000000000000000000000000000000000000000081526004016118f790614779565b60405180910390fd5b611909816124b9565b50565b611914611ca3565b8151835114611958576040517f08c379a000000000000000000000000000000000000000000000000000000000815260040161194f906148d9565b60405180910390fd5b6000600860009054906101000a900473ffffffffffffffffffffffffffffffffffffffff1673ffffffffffffffffffffffffffffffffffffffff166348fd09f5856040518263ffffffff1660e01b81526004016119b59190614588565b60206040518083038186803b1580156119cd57600080fd5b505afa1580156119e1573d6000803e3d6000fd5b505050506040513d601f19601f82011682018060405250810190611a059190613c84565b611a44576040517f08c379a0000000000000000000000000000000000000000000000000000000008152600401611a3b90614739565b60405180910390fd5b60005b8451811015611b5a57600860009054906101000a900473ffffffffffffffffffffffffffffffffffffffff1673ffffffffffffffffffffffffffffffffffffffff1663d10424c7868381518110611aa157611aa0614d70565b5b60200260200101516040518263ffffffff1660e01b8152600401611ac59190614999565b60206040518083038186803b158015611add57600080fd5b505afa158015611af1573d6000803e3d6000fd5b505050506040513d601f19601f82011682018060405250810190611b159190613eb7565b848281518110611b2857611b27614d70565b5b6020026020010151611b3a9190614bb7565b82611b459190614b61565b91508080611b5290614cf8565b915050611a47565b50611b89600460009054906101000a900473ffffffffffffffffffffffffffffffffffffffff16333084612766565b600860009054906101000a900473ffffffffffffffffffffffffffffffffffffffff1673ffffffffffffffffffffffffffffffffffffffff1663f600d9f485856040518363ffffffff1660e01b8152600401611be69291906145aa565b600060405180830381600087803b158015611c0057600080fd5b505af1158015611c14573d6000803e3d6000fd5b50505050611c3382858560405180602001604052806000815250612f52565b50505050565b60007f01ffc9a7000000000000000000000000000000000000000000000000000000007bffffffffffffffffffffffffffffffffffffffffffffffffffffffff1916827bffffffffffffffffffffffffffffffffffffffffffffffffffffffff1916149050919050565b611cab610c46565b15611ceb576040517f08c379a0000000000000000000000000000000000000000000000000000000008152600401611ce290614819565b60405180910390fd5b565b600033905090565b600073ffffffffffffffffffffffffffffffffffffffff168373ffffffffffffffffffffffffffffffffffffffff161415611d65576040517f08c379a0000000000000000000000000000000000000000000000000000000008152600401611d5c90614859565b60405180910390fd5b8051825114611da9576040517f08c379a0000000000000000000000000000000000000000000000000000000008152600401611da090614939565b60405180910390fd5b6000611db3611ced565b9050611dd38185600086866040518060200160405280600081525061317f565b60005b8351811015611f20576000848281518110611df457611df3614d70565b5b602002602001015190506000848381518110611e1357611e12614d70565b5b60200260200101519050600080600084815260200190815260200160002060008973ffffffffffffffffffffffffffffffffffffffff1673ffffffffffffffffffffffffffffffffffffffff16815260200190815260200160002054905081811015611eb4576040517f08c379a0000000000000000000000000000000000000000000000000000000008152600401611eab90614799565b60405180910390fd5b81810360008085815260200190815260200160002060008a73ffffffffffffffffffffffffffffffffffffffff1673ffffffffffffffffffffffffffffffffffffffff168152602001908152602001600020819055505050508080611f1890614cf8565b915050611dd6565b50600073ffffffffffffffffffffffffffffffffffffffff168473ffffffffffffffffffffffffffffffffffffffff168273ffffffffffffffffffffffffffffffffffffffff167f4a39dc06d4c0dbc64b70af90fd698a233a518aa5d07e595d983b8c0526c8f7fb8686604051611f989291906145aa565b60405180910390a4611fbe81856000868660405180602001604052806000815250613187565b50505050565b6000808473ffffffffffffffffffffffffffffffffffffffff1663a9059cbb60e01b8585604051602401611ff992919061451a565b604051602081830303815290604052907bffffffffffffffffffffffffffffffffffffffffffffffffffffffff19166020820180517bffffffffffffffffffffffffffffffffffffffffffffffffffffffff8381831617835250505050604051612063919061438e565b6000604051808303816000865af19150503d80600081146120a0576040519150601f19603f3d011682016040523d82523d6000602084013e6120a5565b606091505b50915091508180156120d357506000815114806120d25750808060200190518101906120d19190613c84565b5b5b612112576040517f08c379a000000000000000000000000000000000000000000000000000000000815260040161210990614979565b60405180910390fd5b5050505050565b815183511461215d576040517f08c379a000000000000000000000000000000000000000000000000000000000815260040161215490614939565b60405180910390fd5b600073ffffffffffffffffffffffffffffffffffffffff168473ffffffffffffffffffffffffffffffffffffffff1614156121cd576040517f08c379a00000000000000000000000000000000000000000000000000000000081526004016121c490614839565b60405180910390fd5b60006121d7611ced565b90506121e781878787878761317f565b60005b845181101561239857600085828151811061220857612207614d70565b5b60200260200101519050600085838151811061222757612226614d70565b5b60200260200101519050600080600084815260200190815260200160002060008b73ffffffffffffffffffffffffffffffffffffffff1673ffffffffffffffffffffffffffffffffffffffff168152602001908152602001600020549050818110156122c8576040517f08c379a00000000000000000000000000000000000000000000000000000000081526004016122bf90614879565b60405180910390fd5b81810360008085815260200190815260200160002060008c73ffffffffffffffffffffffffffffffffffffffff1673ffffffffffffffffffffffffffffffffffffffff168152602001908152602001600020819055508160008085815260200190815260200160002060008b73ffffffffffffffffffffffffffffffffffffffff1673ffffffffffffffffffffffffffffffffffffffff168152602001908152602001600020600082825461237d9190614b61565b925050819055505050508061239190614cf8565b90506121ea565b508473ffffffffffffffffffffffffffffffffffffffff168673ffffffffffffffffffffffffffffffffffffffff168273ffffffffffffffffffffffffffffffffffffffff167f4a39dc06d4c0dbc64b70af90fd698a233a518aa5d07e595d983b8c0526c8f7fb878760405161240f9291906145aa565b60405180910390a4612425818787878787613187565b61243381878787878761318f565b505050505050565b612443611ced565b73ffffffffffffffffffffffffffffffffffffffff16612461610fd6565b73ffffffffffffffffffffffffffffffffffffffff16146124b7576040517f08c379a00000000000000000000000000000000000000000000000000000000081526004016124ae90614899565b60405180910390fd5b565b6000600360009054906101000a900473ffffffffffffffffffffffffffffffffffffffff16905081600360006101000a81548173ffffffffffffffffffffffffffffffffffffffff021916908373ffffffffffffffffffffffffffffffffffffffff1602179055508173ffffffffffffffffffffffffffffffffffffffff168173ffffffffffffffffffffffffffffffffffffffff167f8be0079c531659141344cd1fd0a4f28419497f9722a3daafe3b4186f6b6457e060405160405180910390a35050565b8173ffffffffffffffffffffffffffffffffffffffff168373ffffffffffffffffffffffffffffffffffffffff1614156125ee576040517f08c379a00000000000000000000000000000000000000000000000000000000081526004016125e5906148f9565b60405180910390fd5b80600160008573ffffffffffffffffffffffffffffffffffffffff1673ffffffffffffffffffffffffffffffffffffffff16815260200190815260200160002060008473ffffffffffffffffffffffffffffffffffffffff1673ffffffffffffffffffffffffffffffffffffffff16815260200190815260200160002060006101000a81548160ff0219169083151502179055508173ffffffffffffffffffffffffffffffffffffffff168373ffffffffffffffffffffffffffffffffffffffff167f17307eab39ab6107e8899845ad3d59bd9653f200f220920489ca2b5937696c31836040516126df91906145e1565b60405180910390a3505050565b60606000600167ffffffffffffffff81111561270b5761270a614d9f565b5b6040519080825280602002602001820160405280156127395781602001602082028036833780820191505090505b509050828160008151811061275157612750614d70565b5b60200260200101818152505080915050919050565b6000808573ffffffffffffffffffffffffffffffffffffffff166323b872dd60e01b86868660405160240161279d93929190614489565b604051602081830303815290604052907bffffffffffffffffffffffffffffffffffffffffffffffffffffffff19166020820180517bffffffffffffffffffffffffffffffffffffffffffffffffffffffff8381831617835250505050604051612807919061438e565b6000604051808303816000865af19150503d8060008114612844576040519150601f19603f3d011682016040523d82523d6000602084013e612849565b606091505b509150915081801561287757506000815114806128765750808060200190518101906128759190613c84565b5b5b6128b6576040517f08c379a00000000000000000000000000000000000000000000000000000000081526004016128ad906147f9565b60405180910390fd5b505050505050565b600073ffffffffffffffffffffffffffffffffffffffff168473ffffffffffffffffffffffffffffffffffffffff16141561292e576040517f08c379a000000000000000000000000000000000000000000000000000000000815260040161292590614959565b60405180910390fd5b6000612938611ced565b9050600061294585613376565b9050600061295285613376565b90506129638360008985858961317f565b8460008088815260200190815260200160002060008973ffffffffffffffffffffffffffffffffffffffff1673ffffffffffffffffffffffffffffffffffffffff16815260200190815260200160002060008282546129c29190614b61565b925050819055508673ffffffffffffffffffffffffffffffffffffffff16600073ffffffffffffffffffffffffffffffffffffffff168473ffffffffffffffffffffffffffffffffffffffff167fc3d58168c5ae7397731d063d5bbf3d657854427343f4c083240f7aacaa2d0f628989604051612a409291906149dd565b60405180910390a4612a5783600089858589613187565b612a66836000898989896133f0565b50505050505050565b600073ffffffffffffffffffffffffffffffffffffffff168373ffffffffffffffffffffffffffffffffffffffff161415612adf576040517f08c379a0000000000000000000000000000000000000000000000000000000008152600401612ad690614859565b60405180910390fd5b6000612ae9611ced565b90506000612af684613376565b90506000612b0384613376565b9050612b238387600085856040518060200160405280600081525061317f565b600080600087815260200190815260200160002060008873ffffffffffffffffffffffffffffffffffffffff1673ffffffffffffffffffffffffffffffffffffffff16815260200190815260200160002054905084811015612bba576040517f08c379a0000000000000000000000000000000000000000000000000000000008152600401612bb190614799565b60405180910390fd5b84810360008088815260200190815260200160002060008973ffffffffffffffffffffffffffffffffffffffff1673ffffffffffffffffffffffffffffffffffffffff16815260200190815260200160002081905550600073ffffffffffffffffffffffffffffffffffffffff168773ffffffffffffffffffffffffffffffffffffffff168573ffffffffffffffffffffffffffffffffffffffff167fc3d58168c5ae7397731d063d5bbf3d657854427343f4c083240f7aacaa2d0f628989604051612c879291906149dd565b60405180910390a4612cad84886000868660405180602001604052806000815250613187565b50505050505050565b600073ffffffffffffffffffffffffffffffffffffffff168473ffffffffffffffffffffffffffffffffffffffff161415612d26576040517f08c379a0000000000000000000000000000000000000000000000000000000008152600401612d1d90614839565b60405180910390fd5b6000612d30611ced565b90506000612d3d85613376565b90506000612d4a85613376565b9050612d5a83898985858961317f565b600080600088815260200190815260200160002060008a73ffffffffffffffffffffffffffffffffffffffff1673ffffffffffffffffffffffffffffffffffffffff16815260200190815260200160002054905085811015612df1576040517f08c379a0000000000000000000000000000000000000000000000000000000008152600401612de890614879565b60405180910390fd5b85810360008089815260200190815260200160002060008b73ffffffffffffffffffffffffffffffffffffffff1673ffffffffffffffffffffffffffffffffffffffff168152602001908152602001600020819055508560008089815260200190815260200160002060008a73ffffffffffffffffffffffffffffffffffffffff1673ffffffffffffffffffffffffffffffffffffffff1681526020019081526020016000206000828254612ea69190614b61565b925050819055508773ffffffffffffffffffffffffffffffffffffffff168973ffffffffffffffffffffffffffffffffffffffff168573ffffffffffffffffffffffffffffffffffffffff167fc3d58168c5ae7397731d063d5bbf3d657854427343f4c083240f7aacaa2d0f628a8a604051612f239291906149dd565b60405180910390a4612f39848a8a86868a613187565b612f47848a8a8a8a8a6133f0565b505050505050505050565b600073ffffffffffffffffffffffffffffffffffffffff168473ffffffffffffffffffffffffffffffffffffffff161415612fc2576040517f08c379a0000000000000000000000000000000000000000000000000000000008152600401612fb990614959565b60405180910390fd5b8151835114613006576040517f08c379a0000000000000000000000000000000000000000000000000000000008152600401612ffd90614939565b60405180910390fd5b6000613010611ced565b90506130218160008787878761317f565b60005b84518110156130da578381815181106130405761303f614d70565b5b602002602001015160008087848151811061305e5761305d614d70565b5b6020026020010151815260200190815260200160002060008873ffffffffffffffffffffffffffffffffffffffff1673ffffffffffffffffffffffffffffffffffffffff16815260200190815260200160002060008282546130c09190614b61565b9250508190555080806130d290614cf8565b915050613024565b508473ffffffffffffffffffffffffffffffffffffffff16600073ffffffffffffffffffffffffffffffffffffffff168273ffffffffffffffffffffffffffffffffffffffff167f4a39dc06d4c0dbc64b70af90fd698a233a518aa5d07e595d983b8c0526c8f7fb87876040516131529291906145aa565b60405180910390a461316981600087878787613187565b6131788160008787878761318f565b5050505050565b505050505050565b505050505050565b6131ae8473ffffffffffffffffffffffffffffffffffffffff166135d7565b1561336e578373ffffffffffffffffffffffffffffffffffffffff1663bc197c8187878686866040518663ffffffff1660e01b81526004016131f49594939291906143c0565b602060405180830381600087803b15801561320e57600080fd5b505af192505050801561323f57506040513d601f19601f8201168201806040525081019061323c9190613cde565b60015b6132e55761324b614dce565b806308c379a014156132a8575061326061540d565b8061326b57506132aa565b806040517f08c379a000000000000000000000000000000000000000000000000000000000815260040161329f91906145fc565b60405180910390fd5b505b6040517f08c379a00000000000000000000000000000000000000000000000000000000081526004016132dc906146d9565b60405180910390fd5b63bc197c8160e01b7bffffffffffffffffffffffffffffffffffffffffffffffffffffffff1916817bffffffffffffffffffffffffffffffffffffffffffffffffffffffff19161461336c576040517f08c379a000000000000000000000000000000000000000000000000000000000815260040161336390614719565b60405180910390fd5b505b505050505050565b60606000600167ffffffffffffffff81111561339557613394614d9f565b5b6040519080825280602002602001820160405280156133c35781602001602082028036833780820191505090505b50905082816000815181106133db576133da614d70565b5b60200260200101818152505080915050919050565b61340f8473ffffffffffffffffffffffffffffffffffffffff166135d7565b156135cf578373ffffffffffffffffffffffffffffffffffffffff1663f23a6e6187878686866040518663ffffffff1660e01b81526004016134559594939291906144c0565b602060405180830381600087803b15801561346f57600080fd5b505af19250505080156134a057506040513d601f19601f8201168201806040525081019061349d9190613cde565b60015b613546576134ac614dce565b806308c379a0141561350957506134c161540d565b806134cc575061350b565b806040517f08c379a000000000000000000000000000000000000000000000000000000000815260040161350091906145fc565b60405180910390fd5b505b6040517f08c379a000000000000000000000000000000000000000000000000000000000815260040161353d906146d9565b60405180910390fd5b63f23a6e6160e01b7bffffffffffffffffffffffffffffffffffffffffffffffffffffffff1916817bffffffffffffffffffffffffffffffffffffffffffffffffffffffff1916146135cd576040517f08c379a00000000000000000000000000000000000000000000000000000000081526004016135c490614719565b60405180910390fd5b505b505050505050565b6000808273ffffffffffffffffffffffffffffffffffffffff163b119050919050565b600061360d61360884614a2b565b614a06565b905080838252602082019050828560208602820111156136305761362f614df5565b5b60005b85811015613660578161364688826137a0565b845260208401935060208301925050600181019050613633565b5050509392505050565b600061367d61367884614a57565b614a06565b905080838252602082019050828560208602820111156136a05761369f614df5565b5b60005b858110156136d057816136b68882613904565b8452602084019350602083019250506001810190506136a3565b5050509392505050565b60006136ed6136e884614a83565b614a06565b90508281526020810184848401111561370957613708614dfa565b5b613714848285614c85565b509392505050565b600061372f61372a84614ab4565b614a06565b90508281526020810184848401111561374b5761374a614dfa565b5b613756848285614c85565b509392505050565b600061377161376c84614ab4565b614a06565b90508281526020810184848401111561378d5761378c614dfa565b5b613798848285614c94565b509392505050565b6000813590506137af816154a3565b92915050565b6000815190506137c4816154a3565b92915050565b600082601f8301126137df576137de614df0565b5b81356137ef8482602086016135fa565b91505092915050565b600082601f83011261380d5761380c614df0565b5b813561381d84826020860161366a565b91505092915050565b600081359050613835816154ba565b92915050565b60008151905061384a816154ba565b92915050565b60008135905061385f816154d1565b92915050565b600081519050613874816154d1565b92915050565b600082601f83011261388f5761388e614df0565b5b813561389f8482602086016136da565b91505092915050565b600082601f8301126138bd576138bc614df0565b5b81356138cd84826020860161371c565b91505092915050565b600082601f8301126138eb576138ea614df0565b5b81516138fb84826020860161375e565b91505092915050565b600081359050613913816154e8565b92915050565b600081519050613928816154e8565b92915050565b60006020828403121561394457613943614e04565b5b6000613952848285016137a0565b91505092915050565b6000806040838503121561397257613971614e04565b5b6000613980858286016137a0565b9250506020613991858286016137a0565b9150509250929050565b600080600080600060a086880312156139b7576139b6614e04565b5b60006139c5888289016137a0565b95505060206139d6888289016137a0565b945050604086013567ffffffffffffffff8111156139f7576139f6614dff565b5b613a03888289016137f8565b935050606086013567ffffffffffffffff811115613a2457613a23614dff565b5b613a30888289016137f8565b925050608086013567ffffffffffffffff811115613a5157613a50614dff565b5b613a5d8882890161387a565b9150509295509295909350565b600080600080600060a08688031215613a8657613a85614e04565b5b6000613a94888289016137a0565b9550506020613aa5888289016137a0565b9450506040613ab688828901613904565b9350506060613ac788828901613904565b925050608086013567ffffffffffffffff811115613ae857613ae7614dff565b5b613af48882890161387a565b9150509295509295909350565b60008060408385031215613b1857613b17614e04565b5b6000613b26858286016137a0565b9250506020613b3785828601613826565b9150509250929050565b60008060408385031215613b5857613b57614e04565b5b6000613b66858286016137a0565b9250506020613b7785828601613904565b9150509250929050565b60008060408385031215613b9857613b97614e04565b5b600083013567ffffffffffffffff811115613bb657613bb5614dff565b5b613bc2858286016137ca565b925050602083013567ffffffffffffffff811115613be357613be2614dff565b5b613bef858286016137f8565b9150509250929050565b600080600060608486031215613c1257613c11614e04565b5b600084013567ffffffffffffffff811115613c3057613c2f614dff565b5b613c3c868287016137f8565b935050602084013567ffffffffffffffff811115613c5d57613c5c614dff565b5b613c69868287016137f8565b9250506040613c7a868287016137a0565b9150509250925092565b600060208284031215613c9a57613c99614e04565b5b6000613ca88482850161383b565b91505092915050565b600060208284031215613cc757613cc6614e04565b5b6000613cd584828501613850565b91505092915050565b600060208284031215613cf457613cf3614e04565b5b6000613d0284828501613865565b91505092915050565b600060208284031215613d2157613d20614e04565b5b600082015167ffffffffffffffff811115613d3f57613d3e614dff565b5b613d4b848285016138d6565b91505092915050565b60008060008060808587031215613d6e57613d6d614e04565b5b600085015167ffffffffffffffff811115613d8c57613d8b614dff565b5b613d98878288016138d6565b9450506020613da987828801613919565b9350506040613dba87828801613919565b9250506060613dcb878288016137b5565b91505092959194509250565b600080600080600060a08688031215613df357613df2614e04565b5b600086013567ffffffffffffffff811115613e1157613e10614dff565b5b613e1d888289016138a8565b9550506020613e2e88828901613904565b9450506040613e3f88828901613904565b9350506060613e50888289016137a0565b925050608086013567ffffffffffffffff811115613e7157613e70614dff565b5b613e7d888289016138a8565b9150509295509295909350565b600060208284031215613ea057613e9f614e04565b5b6000613eae84828501613904565b91505092915050565b600060208284031215613ecd57613ecc614e04565b5b6000613edb84828501613919565b91505092915050565b600080600060608486031215613efd57613efc614e04565b5b6000613f0b86828701613904565b9350506020613f1c86828701613904565b9250506040613f2d868287016137a0565b9150509250925092565b6000613f438383614370565b60208301905092915050565b613f5881614c11565b82525050565b6000613f6982614af5565b613f738185614b23565b9350613f7e83614ae5565b8060005b83811015613faf578151613f968882613f37565b9750613fa183614b16565b925050600181019050613f82565b5085935050505092915050565b613fc581614c23565b82525050565b6000613fd682614b00565b613fe08185614b34565b9350613ff0818560208601614c94565b613ff981614e09565b840191505092915050565b600061400f82614b00565b6140198185614b45565b9350614029818560208601614c94565b80840191505092915050565b600061404082614b0b565b61404a8185614b50565b935061405a818560208601614c94565b61406381614e09565b840191505092915050565b600061407b603483614b50565b915061408682614e27565b604082019050919050565b600061409e602f83614b50565b91506140a982614e76565b604082019050919050565b60006140c1602883614b50565b91506140cc82614ec5565b604082019050919050565b60006140e4602183614b50565b91506140ef82614f14565b604082019050919050565b6000614107601e83614b50565b915061411282614f63565b602082019050919050565b600061412a602683614b50565b915061413582614f8c565b604082019050919050565b600061414d602483614b50565b915061415882614fdb565b604082019050919050565b6000614170601883614b50565b915061417b8261502a565b602082019050919050565b6000614193602a83614b50565b915061419e82615053565b604082019050919050565b60006141b6602683614b50565b91506141c1826150a2565b604082019050919050565b60006141d9601083614b50565b91506141e4826150f1565b602082019050919050565b60006141fc602583614b50565b91506142078261511a565b604082019050919050565b600061421f602383614b50565b915061422a82615169565b604082019050919050565b6000614242602a83614b50565b915061424d826151b8565b604082019050919050565b6000614265602083614b50565b915061427082615207565b602082019050919050565b6000614288601483614b50565b915061429382615230565b602082019050919050565b60006142ab602083614b50565b91506142b682615259565b602082019050919050565b60006142ce602983614b50565b91506142d982615282565b604082019050919050565b60006142f1602983614b50565b91506142fc826152d1565b604082019050919050565b6000614314602883614b50565b915061431f82615320565b604082019050919050565b6000614337602183614b50565b91506143428261536f565b604082019050919050565b600061435a602783614b50565b9150614365826153be565b604082019050919050565b61437981614c7b565b82525050565b61438881614c7b565b82525050565b600061439a8284614004565b915081905092915050565b60006020820190506143ba6000830184613f4f565b92915050565b600060a0820190506143d56000830188613f4f565b6143e26020830187613f4f565b81810360408301526143f48186613f5e565b905081810360608301526144088185613f5e565b9050818103608083015261441c8184613fcb565b90509695505050505050565b600060a08201905061443d6000830188613f4f565b61444a6020830187613f4f565b818103604083015261445c8186613f5e565b905081810360608301526144708185613f5e565b905061447f608083018461437f565b9695505050505050565b600060608201905061449e6000830186613f4f565b6144ab6020830185613f4f565b6144b8604083018461437f565b949350505050565b600060a0820190506144d56000830188613f4f565b6144e26020830187613f4f565b6144ef604083018661437f565b6144fc606083018561437f565b818103608083015261450e8184613fcb565b90509695505050505050565b600060408201905061452f6000830185613f4f565b61453c602083018461437f565b9392505050565b60006080820190506145586000830187613f4f565b614565602083018661437f565b6145726040830185613f4f565b61457f606083018461437f565b95945050505050565b600060208201905081810360008301526145a28184613f5e565b905092915050565b600060408201905081810360008301526145c48185613f5e565b905081810360208301526145d88184613f5e565b90509392505050565b60006020820190506145f66000830184613fbc565b92915050565b600060208201905081810360008301526146168184614035565b905092915050565b600060808201905081810360008301526146388187614035565b9050614647602083018661437f565b614654604083018561437f565b6146616060830184613f4f565b95945050505050565b600060c08201905081810360008301526146848189614035565b9050614693602083018861437f565b6146a0604083018761437f565b6146ad6060830186613f4f565b81810360808301526146bf8185614035565b90506146ce60a083018461437f565b979650505050505050565b600060208201905081810360008301526146f28161406e565b9050919050565b6000602082019050818103600083015261471281614091565b9050919050565b60006020820190508181036000830152614732816140b4565b9050919050565b60006020820190508181036000830152614752816140d7565b9050919050565b60006020820190508181036000830152614772816140fa565b9050919050565b600060208201905081810360008301526147928161411d565b9050919050565b600060208201905081810360008301526147b281614140565b9050919050565b600060208201905081810360008301526147d281614163565b9050919050565b600060208201905081810360008301526147f281614186565b9050919050565b60006020820190508181036000830152614812816141a9565b9050919050565b60006020820190508181036000830152614832816141cc565b9050919050565b60006020820190508181036000830152614852816141ef565b9050919050565b6000602082019050818103600083015261487281614212565b9050919050565b6000602082019050818103600083015261489281614235565b9050919050565b600060208201905081810360008301526148b281614258565b9050919050565b600060208201905081810360008301526148d28161427b565b9050919050565b600060208201905081810360008301526148f28161429e565b9050919050565b60006020820190508181036000830152614912816142c1565b9050919050565b60006020820190508181036000830152614932816142e4565b9050919050565b6000602082019050818103600083015261495281614307565b9050919050565b600060208201905081810360008301526149728161432a565b9050919050565b600060208201905081810360008301526149928161434d565b9050919050565b60006020820190506149ae600083018461437f565b92915050565b60006040820190506149c9600083018561437f565b6149d66020830184613f4f565b9392505050565b60006040820190506149f2600083018561437f565b6149ff602083018461437f565b9392505050565b6000614a10614a21565b9050614a1c8282614cc7565b919050565b6000604051905090565b600067ffffffffffffffff821115614a4657614a45614d9f565b5b602082029050602081019050919050565b600067ffffffffffffffff821115614a7257614a71614d9f565b5b602082029050602081019050919050565b600067ffffffffffffffff821115614a9e57614a9d614d9f565b5b614aa782614e09565b9050602081019050919050565b600067ffffffffffffffff821115614acf57614ace614d9f565b5b614ad882614e09565b9050602081019050919050565b6000819050602082019050919050565b600081519050919050565b600081519050919050565b600081519050919050565b6000602082019050919050565b600082825260208201905092915050565b600082825260208201905092915050565b600081905092915050565b600082825260208201905092915050565b6000614b6c82614c7b565b9150614b7783614c7b565b9250827fffffffffffffffffffffffffffffffffffffffffffffffffffffffffffffffff03821115614bac57614bab614d41565b5b828201905092915050565b6000614bc282614c7b565b9150614bcd83614c7b565b9250817fffffffffffffffffffffffffffffffffffffffffffffffffffffffffffffffff0483118215151615614c0657614c05614d41565b5b828202905092915050565b6000614c1c82614c5b565b9050919050565b60008115159050919050565b60007fffffffff0000000000000000000000000000000000000000000000000000000082169050919050565b600073ffffffffffffffffffffffffffffffffffffffff82169050919050565b6000819050919050565b82818337600083830152505050565b60005b83811015614cb2578082015181840152602081019050614c97565b83811115614cc1576000848401525b50505050565b614cd082614e09565b810181811067ffffffffffffffff82111715614cef57614cee614d9f565b5b80604052505050565b6000614d0382614c7b565b91507fffffffffffffffffffffffffffffffffffffffffffffffffffffffffffffffff821415614d3657614d35614d41565b5b600182019050919050565b7f4e487b7100000000000000000000000000000000000000000000000000000000600052601160045260246000fd5b7f4e487b7100000000000000000000000000000000000000000000000000000000600052603260045260246000fd5b7f4e487b7100000000000000000000000000000000000000000000000000000000600052604160045260246000fd5b600060033d1115614ded5760046000803e614dea600051614e1a565b90505b90565b600080fd5b600080fd5b600080fd5b600080fd5b600080fd5b6000601f19601f8301169050919050565b60008160e01c9050919050565b7f455243313135353a207472616e7366657220746f206e6f6e204552433131353560008201527f526563656976657220696d706c656d656e746572000000000000000000000000602082015250565b7f455243313135353a2063616c6c6572206973206e6f7420746f6b656e206f776e60008201527f6572206e6f7220617070726f7665640000000000000000000000000000000000602082015250565b7f455243313135353a204552433131353552656365697665722072656a6563746560008201527f6420746f6b656e73000000000000000000000000000000000000000000000000602082015250565b7f50424d3a20496e76616c696420746f6b656e2069642873292070726f7669646560008201527f6400000000000000000000000000000000000000000000000000000000000000602082015250565b7f50424d3a20496e76616c696420746f6b656e2069642070726f76696465640000600082015250565b7f4f776e61626c653a206e6577206f776e657220697320746865207a65726f206160008201527f6464726573730000000000000000000000000000000000000000000000000000602082015250565b7f455243313135353a206275726e20616d6f756e7420657863656564732062616c60008201527f616e636500000000000000000000000000000000000000000000000000000000602082015250565b7f50424d3a20636f6e747261637420697320657870697265640000000000000000600082015250565b7f455243313135353a2061646472657373207a65726f206973206e6f742061207660008201527f616c6964206f776e657200000000000000000000000000000000000000000000602082015250565b7f45524332303a20496e737566666963656e742062616c616e6365206f7220617060008201527f70726f76616c0000000000000000000000000000000000000000000000000000602082015250565b7f5061757361626c653a2070617573656400000000000000000000000000000000600082015250565b7f455243313135353a207472616e7366657220746f20746865207a65726f20616460008201527f6472657373000000000000000000000000000000000000000000000000000000602082015250565b7f455243313135353a206275726e2066726f6d20746865207a65726f206164647260008201527f6573730000000000000000000000000000000000000000000000000000000000602082015250565b7f455243313135353a20696e73756666696369656e742062616c616e636520666f60008201527f72207472616e7366657200000000000000000000000000000000000000000000602082015250565b7f4f776e61626c653a2063616c6c6572206973206e6f7420746865206f776e6572600082015250565b7f50424d203a20696e76616c696420657870697279000000000000000000000000600082015250565b7f556e657175616c2069647320616e6420616d6f756e747320737570706c696564600082015250565b7f455243313135353a2073657474696e6720617070726f76616c2073746174757360008201527f20666f722073656c660000000000000000000000000000000000000000000000602082015250565b7f455243313135353a206163636f756e747320616e6420696473206c656e67746860008201527f206d69736d617463680000000000000000000000000000000000000000000000602082015250565b7f455243313135353a2069647320616e6420616d6f756e7473206c656e6774682060008201527f6d69736d61746368000000000000000000000000000000000000000000000000602082015250565b7f455243313135353a206d696e7420746f20746865207a65726f2061646472657360008201527f7300000000000000000000000000000000000000000000000000000000000000602082015250565b7f496e746572616374696f6e2077697468207468652073706f7420746f6b656e2060008201527f6661696c65642e00000000000000000000000000000000000000000000000000602082015250565b600060443d101561541d576154a0565b615425614a21565b60043d036004823e80513d602482011167ffffffffffffffff8211171561544d5750506154a0565b808201805167ffffffffffffffff81111561546b57505050506154a0565b80602083010160043d0385018111156154885750505050506154a0565b61549782602001850186614cc7565b82955050505050505b90565b6154ac81614c11565b81146154b757600080fd5b50565b6154c381614c23565b81146154ce57600080fd5b50565b6154da81614c2f565b81146154e557600080fd5b50565b6154f181614c7b565b81146154fc57600080fd5b5056fea26469706673582212207bec0c057143e3f001593c6bd93c14296c570ecc43772c1f010b291045d60af564736f6c6343000807003360a060405260006001553480156200001657600080fd5b50604051620020493803806200204983398181016040528101906200003c9190620002ad565b6200005c62000050620000b360201b60201c565b620000bb60201b60201c565b3073ffffffffffffffffffffffffffffffffffffffff1660808173ffffffffffffffffffffffffffffffffffffffff1660601b815250508060029080519060200190620000ab9291906200017f565b505062000482565b600033905090565b60008060009054906101000a900473ffffffffffffffffffffffffffffffffffffffff169050816000806101000a81548173ffffffffffffffffffffffffffffffffffffffff021916908373ffffffffffffffffffffffffffffffffffffffff1602179055508173ffffffffffffffffffffffffffffffffffffffff168173ffffffffffffffffffffffffffffffffffffffff167f8be0079c531659141344cd1fd0a4f28419497f9722a3daafe3b4186f6b6457e060405160405180910390a35050565b8280546200018d9062000393565b90600052602060002090601f016020900481019282620001b15760008555620001fd565b82601f10620001cc57805160ff1916838001178555620001fd565b82800160010185558215620001fd579182015b82811115620001fc578251825591602001919060010190620001df565b5b5090506200020c919062000210565b5090565b5b808211156200022b57600081600090555060010162000211565b5090565b600062000246620002408462000327565b620002fe565b90508281526020810184848401111562000265576200026462000462565b5b620002728482856200035d565b509392505050565b600082601f8301126200029257620002916200045d565b5b8151620002a48482602086016200022f565b91505092915050565b600060208284031215620002c657620002c56200046c565b5b600082015167ffffffffffffffff811115620002e757620002e662000467565b5b620002f5848285016200027a565b91505092915050565b60006200030a6200031d565b9050620003188282620003c9565b919050565b6000604051905090565b600067ffffffffffffffff8211156200034557620003446200042e565b5b620003508262000471565b9050602081019050919050565b60005b838110156200037d57808201518184015260208101905062000360565b838111156200038d576000848401525b50505050565b60006002820490506001821680620003ac57607f821691505b60208210811415620003c357620003c2620003ff565b5b50919050565b620003d48262000471565b810181811067ffffffffffffffff82111715620003f657620003f56200042e565b5b80604052505050565b7f4e487b7100000000000000000000000000000000000000000000000000000000600052602260045260246000fd5b7f4e487b7100000000000000000000000000000000000000000000000000000000600052604160045260246000fd5b600080fd5b600080fd5b600080fd5b600080fd5b6000601f19601f8301169050919050565b60805160601c611ba8620004a16000396000610cfa0152611ba86000f3fe608060405234801561001057600080fd5b50600436106100cf5760003560e01c80638da5cb5b1161008c578063d10424c711610066578063d10424c714610227578063e21c8b5914610257578063f2fde38b14610273578063f600d9f41461028f576100cf565b80638da5cb5b146101a6578063934689a9146101c4578063c1e03728146101f4576100cf565b80630e89341c146100d4578063234661c41461010457806336a3409c1461013457806348fd09f514610150578063715018a61461018057806380d69c8a1461018a575b600080fd5b6100ee60048036038101906100e99190611275565b6102ab565b6040516100fb91906114a5565b60405180910390f35b61011e60048036038101906101199190611275565b610403565b60405161012b91906115d3565b60405180910390f35b61014e600480360381019061014991906112a2565b610423565b005b61016a600480360381019061016591906110ef565b610511565b604051610177919061148a565b60405180910390f35b610188610589565b005b6101a4600480360381019061019f91906111b0565b61059d565b005b6101ae610812565b6040516101bb919061146f565b60405180910390f35b6101de60048036038101906101d99190611275565b61083b565b6040516101eb919061146f565b60405180910390f35b61020e60048036038101906102099190611275565b61087b565b60405161021e94939291906114c7565b60405180910390f35b610241600480360381019061023c9190611275565b610998565b60405161024e91906115d3565b60405180910390f35b610271600480360381019061026c9190611138565b6109b8565b005b61028d600480360381019061028891906110c2565b610a75565b005b6102a960048036038101906102a49190611138565b610af9565b005b60606003600083815260200190815260200160002060020154421061035c57600280546102d790611836565b80601f016020809104026020016040519081016040528092919081815260200182805461030390611836565b80156103505780601f1061032557610100808354040283529160200191610350565b820191906000526020600020905b81548152906001019060200180831161033357829003601f168201915b505050505090506103fe565b60036000838152602001908152602001600020600501805461037d90611836565b80601f01602080910402602001604051908101604052809291908181526020018280546103a990611836565b80156103f65780601f106103cb576101008083540402835291602001916103f6565b820191906000526020600020905b8154815290600101906020018083116103d957829003601f168201915b505050505090505b919050565b600060036000838152602001908152602001600020600401549050919050565b61042b610bb6565b6003600083815260200190815260200160002060030160009054906101000a900473ffffffffffffffffffffffffffffffffffffffff1673ffffffffffffffffffffffffffffffffffffffff168173ffffffffffffffffffffffffffffffffffffffff161480156104b2575060036000838152602001908152602001600020600201544210155b6104f1576040517f08c379a00000000000000000000000000000000000000000000000000000000081526004016104e890611513565b60405180910390fd5b600060036000848152602001908152602001600020600401819055505050565b600080600090505b825181101561057e57600360008281526020019081526020016000206002015442118061055c575060006003600083815260200190815260200160002060010154145b1561056b576000915050610584565b808061057690611899565b915050610519565b50600190505b919050565b610591610bb6565b61059b6000610c34565b565b6105a5610bb6565b6105ad610cf8565b808411156105f0576040517f08c379a00000000000000000000000000000000000000000000000000000000081526004016105e790611573565b60405180910390fd5b428411610632576040517f08c379a000000000000000000000000000000000000000000000000000000000815260040161062990611593565b60405180910390fd5b6000851415610676576040517f08c379a000000000000000000000000000000000000000000000000000000000815260040161066d906115b3565b60405180910390fd5b60008661068287610d52565b60405160200161069392919061144b565b60405160208183030381529060405290508060036000600154815260200190815260200160002060000190805190602001906106d0929190610ee7565b50856003600060015481526020019081526020016000206001018190555084600360006001548152602001908152602001600020600201819055508360036000600154815260200190815260200160002060030160006101000a81548173ffffffffffffffffffffffffffffffffffffffff021916908373ffffffffffffffffffffffffffffffffffffffff1602179055506000600360006001548152602001908152602001600020600401819055508260036000600154815260200190815260200160002060050190805190602001906107ac929190610ee7565b507fbbb805bf89819da42bb55052edd2bf6db1c2256ec4c19cf1607de95efc92762f600154828888886040516107e69594939291906115ee565b60405180910390a161080360018054610eb390919063ffffffff16565b60018190555050505050505050565b60008060009054906101000a900473ffffffffffffffffffffffffffffffffffffffff16905090565b60006003600083815260200190815260200160002060030160009054906101000a900473ffffffffffffffffffffffffffffffffffffffff169050919050565b6060600080600060036000868152602001908152602001600020600001600360008781526020019081526020016000206001015460036000888152602001908152602001600020600201546003600089815260200190815260200160002060030160009054906101000a900473ffffffffffffffffffffffffffffffffffffffff1683805461090990611836565b80601f016020809104026020016040519081016040528092919081815260200182805461093590611836565b80156109825780601f1061095757610100808354040283529160200191610982565b820191906000526020600020905b81548152906001019060200180831161096557829003601f168201915b5050505050935093509350935093509193509193565b600060036000838152602001908152602001600020600101549050919050565b6109c0610bb6565b60005b8251811015610a7057610a298282815181106109e2576109e16119a0565b5b602002602001015160036000868581518110610a0157610a006119a0565b5b6020026020010151815260200190815260200160002060040154610ec990919063ffffffff16565b60036000858481518110610a4057610a3f6119a0565b5b60200260200101518152602001908152602001600020600401819055508080610a6890611899565b9150506109c3565b505050565b610a7d610bb6565b600073ffffffffffffffffffffffffffffffffffffffff168173ffffffffffffffffffffffffffffffffffffffff161415610aed576040517f08c379a0000000000000000000000000000000000000000000000000000000008152600401610ae490611533565b60405180910390fd5b610af681610c34565b50565b610b01610bb6565b60005b8251811015610bb157610b6a828281518110610b2357610b226119a0565b5b602002602001015160036000868581518110610b4257610b416119a0565b5b6020026020010151815260200190815260200160002060040154610eb390919063ffffffff16565b60036000858481518110610b8157610b806119a0565b5b60200260200101518152602001908152602001600020600401819055508080610ba990611899565b915050610b04565b505050565b610bbe610edf565b73ffffffffffffffffffffffffffffffffffffffff16610bdc610812565b73ffffffffffffffffffffffffffffffffffffffff1614610c32576040517f08c379a0000000000000000000000000000000000000000000000000000000008152600401610c2990611553565b60405180910390fd5b565b60008060009054906101000a900473ffffffffffffffffffffffffffffffffffffffff169050816000806101000a81548173ffffffffffffffffffffffffffffffffffffffff021916908373ffffffffffffffffffffffffffffffffffffffff1602179055508173ffffffffffffffffffffffffffffffffffffffff168173ffffffffffffffffffffffffffffffffffffffff167f8be0079c531659141344cd1fd0a4f28419497f9722a3daafe3b4186f6b6457e060405160405180910390a35050565b7f000000000000000000000000000000000000000000000000000000000000000073ffffffffffffffffffffffffffffffffffffffff163073ffffffffffffffffffffffffffffffffffffffff1614610d5057600080fd5b565b60606000821415610d9a576040518060400160405280600181526020017f30000000000000000000000000000000000000000000000000000000000000008152509050610eae565b600082905060005b60008214610dcc578080610db590611899565b915050600a82610dc59190611747565b9150610da2565b60008167ffffffffffffffff811115610de857610de76119cf565b5b6040519080825280601f01601f191660200182016040528015610e1a5781602001600182028036833780820191505090505b5090505b60008514610ea757600182610e339190611778565b9150600a85610e4291906118e2565b6030610e4e91906116f1565b60f81b818381518110610e6457610e636119a0565b5b60200101907effffffffffffffffffffffffffffffffffffffffffffffffffffffffffffff1916908160001a905350600a85610ea09190611747565b9450610e1e565b8093505050505b919050565b60008183610ec191906116f1565b905092915050565b60008183610ed79190611778565b905092915050565b600033905090565b828054610ef390611836565b90600052602060002090601f016020900481019282610f155760008555610f5c565b82601f10610f2e57805160ff1916838001178555610f5c565b82800160010185558215610f5c579182015b82811115610f5b578251825591602001919060010190610f40565b5b509050610f699190610f6d565b5090565b5b80821115610f86576000816000905550600101610f6e565b5090565b6000610f9d610f988461166d565b611648565b90508083825260208201905082856020860282011115610fc057610fbf611a03565b5b60005b85811015610ff05781610fd688826110ad565b845260208401935060208301925050600181019050610fc3565b5050509392505050565b600061100d61100884611699565b611648565b90508281526020810184848401111561102957611028611a08565b5b6110348482856117f4565b509392505050565b60008135905061104b81611b44565b92915050565b600082601f830112611066576110656119fe565b5b8135611076848260208601610f8a565b91505092915050565b600082601f830112611094576110936119fe565b5b81356110a4848260208601610ffa565b91505092915050565b6000813590506110bc81611b5b565b92915050565b6000602082840312156110d8576110d7611a12565b5b60006110e68482850161103c565b91505092915050565b60006020828403121561110557611104611a12565b5b600082013567ffffffffffffffff81111561112357611122611a0d565b5b61112f84828501611051565b91505092915050565b6000806040838503121561114f5761114e611a12565b5b600083013567ffffffffffffffff81111561116d5761116c611a0d565b5b61117985828601611051565b925050602083013567ffffffffffffffff81111561119a57611199611a0d565b5b6111a685828601611051565b9150509250929050565b60008060008060008060c087890312156111cd576111cc611a12565b5b600087013567ffffffffffffffff8111156111eb576111ea611a0d565b5b6111f789828a0161107f565b965050602061120889828a016110ad565b955050604061121989828a016110ad565b945050606061122a89828a0161103c565b935050608087013567ffffffffffffffff81111561124b5761124a611a0d565b5b61125789828a0161107f565b92505060a061126889828a016110ad565b9150509295509295509295565b60006020828403121561128b5761128a611a12565b5b6000611299848285016110ad565b91505092915050565b600080604083850312156112b9576112b8611a12565b5b60006112c7858286016110ad565b92505060206112d88582860161103c565b9150509250929050565b6112eb816117ac565b82525050565b6112fa816117be565b82525050565b600061130b826116ca565b61131581856116d5565b9350611325818560208601611803565b61132e81611a17565b840191505092915050565b6000611344826116ca565b61134e81856116e6565b935061135e818560208601611803565b80840191505092915050565b60006113776011836116d5565b915061138282611a28565b602082019050919050565b600061139a6026836116d5565b91506113a582611a51565b604082019050919050565b60006113bd6020836116d5565b91506113c882611aa0565b602082019050919050565b60006113e06016836116d5565b91506113eb82611ac9565b602082019050919050565b60006114036016836116d5565b915061140e82611af2565b602082019050919050565b60006114266010836116d5565b915061143182611b1b565b602082019050919050565b611445816117ea565b82525050565b60006114578285611339565b91506114638284611339565b91508190509392505050565b600060208201905061148460008301846112e2565b92915050565b600060208201905061149f60008301846112f1565b92915050565b600060208201905081810360008301526114bf8184611300565b905092915050565b600060808201905081810360008301526114e18187611300565b90506114f0602083018661143c565b6114fd604083018561143c565b61150a60608301846112e2565b95945050505050565b6000602082019050818103600083015261152c8161136a565b9050919050565b6000602082019050818103600083015261154c8161138d565b9050919050565b6000602082019050818103600083015261156c816113b0565b9050919050565b6000602082019050818103600083015261158c816113d3565b9050919050565b600060208201905081810360008301526115ac816113f6565b9050919050565b600060208201905081810360008301526115cc81611419565b9050919050565b60006020820190506115e8600083018461143c565b92915050565b600060a082019050611603600083018861143c565b81810360208301526116158187611300565b9050611624604083018661143c565b611631606083018561143c565b61163e60808301846112e2565b9695505050505050565b6000611652611663565b905061165e8282611868565b919050565b6000604051905090565b600067ffffffffffffffff821115611688576116876119cf565b5b602082029050602081019050919050565b600067ffffffffffffffff8211156116b4576116b36119cf565b5b6116bd82611a17565b9050602081019050919050565b600081519050919050565b600082825260208201905092915050565b600081905092915050565b60006116fc826117ea565b9150611707836117ea565b9250827fffffffffffffffffffffffffffffffffffffffffffffffffffffffffffffffff0382111561173c5761173b611913565b5b828201905092915050565b6000611752826117ea565b915061175d836117ea565b92508261176d5761176c611942565b5b828204905092915050565b6000611783826117ea565b915061178e836117ea565b9250828210156117a1576117a0611913565b5b828203905092915050565b60006117b7826117ca565b9050919050565b60008115159050919050565b600073ffffffffffffffffffffffffffffffffffffffff82169050919050565b6000819050919050565b82818337600083830152505050565b60005b83811015611821578082015181840152602081019050611806565b83811115611830576000848401525b50505050565b6000600282049050600182168061184e57607f821691505b6020821081141561186257611861611971565b5b50919050565b61187182611a17565b810181811067ffffffffffffffff821117156118905761188f6119cf565b5b80604052505050565b60006118a4826117ea565b91507fffffffffffffffffffffffffffffffffffffffffffffffffffffffffffffffff8214156118d7576118d6611913565b5b600182019050919050565b60006118ed826117ea565b91506118f8836117ea565b92508261190857611907611942565b5b828206905092915050565b7f4e487b7100000000000000000000000000000000000000000000000000000000600052601160045260246000fd5b7f4e487b7100000000000000000000000000000000000000000000000000000000600052601260045260246000fd5b7f4e487b7100000000000000000000000000000000000000000000000000000000600052602260045260246000fd5b7f4e487b7100000000000000000000000000000000000000000000000000000000600052603260045260246000fd5b7f4e487b7100000000000000000000000000000000000000000000000000000000600052604160045260246000fd5b600080fd5b600080fd5b600080fd5b600080fd5b600080fd5b6000601f19601f8301169050919050565b7f50424d206e6f74207265766f6b61626c65000000000000000000000000000000600082015250565b7f4f776e61626c653a206e6577206f776e657220697320746865207a65726f206160008201527f6464726573730000000000000000000000000000000000000000000000000000602082015250565b7f4f776e61626c653a2063616c6c6572206973206e6f7420746865206f776e6572600082015250565b7f496e76616c696420746f6b656e206578706972792d3100000000000000000000600082015250565b7f496e76616c696420746f6b656e206578706972792d3200000000000000000000600082015250565b7f53706f7420616d6f756e74206973203000000000000000000000000000000000600082015250565b611b4d816117ac565b8114611b5857600080fd5b50565b611b64816117ea565b8114611b6f57600080fd5b5056fea2646970667358221220f3ed86d61f86b37e35eb5cb92d9223d675f309513c1946d7a65a3747c6886ea964736f6c63430008070033",
  "immutableReferences": {},
  "source": "// SPDX-License-Identifier: MIT\npragma solidity ^0.8.7;\n\nimport \"@openzeppelin/contracts/token/ERC1155/ERC1155.sol\";\nimport \"@openzeppelin/contracts/access/Ownable.sol\";\nimport \"@openzeppelin/contracts/security/Pausable.sol\";\n\nimport \"./ERC20Helper.sol\";  \nimport \"./PBMTokenManager.sol\"; \n\ncontract PBM is ERC1155, Ownable, Pausable {  \n\n    address public spotToken ; \n    uint256 public contractExpiry ; \n    mapping (address => bool) public merchantList ; \n\n    string private uriPostExpiry ; \n    address public pbmTokenManager; \n    \n    event merchantPayment(address from , address to, uint256[] tokenIds, uint256[] amounts, uint256 value); \n    event PBMrevokeWithdraw(address beneficiary, uint256 PBMTokenId, address ERC20Token, uint256 ERC20TokenValue);\n\n\n    constructor(address _spotToken, uint256 _expiry, string memory _uriPostExpiry) ERC1155(\"\") {\n        spotToken = _spotToken ;\n        contractExpiry = _expiry ; \n\n        pbmTokenManager = address(new PBMTokenManager(_uriPostExpiry)) ; \n    }\n    \n    function extendPBMExpiry(uint256 extendedExpiry)\n    external \n    onlyOwner\n    whenNotPaused\n    {   \n        require(block.timestamp < contractExpiry, \"PBM: contract is expired\");\n        require(extendedExpiry > contractExpiry, \"PBM : invalid expiry\" ) ; \n        contractExpiry = extendedExpiry; \n    }\n\n\n\n    function createPBMTokenType(string memory companyName, uint256 spotAmount, uint256 tokenExpiry,address creator, string memory tokenURI) \n    external \n    onlyOwner \n    {        \n        PBMTokenManager(pbmTokenManager).createTokenType(companyName, spotAmount, tokenExpiry, creator,  tokenURI, contractExpiry);\n    }\n\n    function mint(uint256 tokenId, uint256 amount, address receiver) \n    external  \n    whenNotPaused\n    {\n        require(PBMTokenManager(pbmTokenManager).areTokensValid(serialise(tokenId)), \"PBM: Invalid token id provided\");\n        uint256 valueOfNewTokens = amount*(PBMTokenManager(pbmTokenManager).getTokenValue(tokenId)); \n\n        //Transfer the spot token from the user to the contract to wrap it\n        ERC20Helper.safeTransferFrom(spotToken, msg.sender, address(this), valueOfNewTokens);\n\n        // mint the token if the contract - wrapping the xsgd\n        PBMTokenManager(pbmTokenManager).increaseBalanceSupply(serialise(tokenId), serialise(amount)) ; \n        _mint(receiver, tokenId, amount, ''); \n    }\n\n    function batchMint(uint256[] memory tokenIds, uint256[] memory amounts, address receiver) \n    external \n    whenNotPaused\n    {   \n        require(tokenIds.length == amounts.length, \"Unequal ids and amounts supplied\"); \n\n        // calculate the value of the new tokens\n        uint256 valueOfNewTokens = 0 ; \n        require(PBMTokenManager(pbmTokenManager).areTokensValid(tokenIds), \"PBM: Invalid token id(s) provided\");\n\n        for (uint256 i = 0; i < tokenIds.length; i++) {\n            valueOfNewTokens += (amounts[i]*(PBMTokenManager(pbmTokenManager).getTokenValue(tokenIds[i])));  \n        } \n\n        // Transfer spot tokenf from user to contract to wrap it\n        ERC20Helper.safeTransferFrom(spotToken, msg.sender, address(this), valueOfNewTokens);\n        PBMTokenManager(pbmTokenManager).increaseBalanceSupply(tokenIds, amounts);\n        _mintBatch(receiver, tokenIds, amounts, '');\n    }\n\n    function safeTransferFrom( address from, address to, uint256 id, uint256 amount, bytes memory data) \n    public   \n    override\n    whenNotPaused  \n    {\n        require(\n            from == _msgSender() || isApprovedForAll(from, _msgSender()),\n            \"ERC1155: caller is not token owner nor approved\"\n        );\n\n        require(PBMTokenManager(pbmTokenManager).areTokensValid(serialise(id)), \"PBM: Invalid token id provided\");\n\n        if (merchantList[to]){\n            uint256 valueOfTokens = amount*(PBMTokenManager(pbmTokenManager).getTokenValue(id)); \n\n            // burn and transfer underlying ERC-20\n            _burn(from, id, amount);\n            PBMTokenManager(pbmTokenManager).decreaseBalanceSupply(serialise(id), serialise(amount)) ; \n            ERC20Helper.safeTransfer(spotToken, to, valueOfTokens);\n            emit merchantPayment(from, to, serialise(id), serialise(amount), valueOfTokens);\n\n        } else {\n            _safeTransferFrom(from, to, id, amount, data);\n        }\n \n    }\n    \n    function safeBatchTransferFrom(address from,address to,uint256[] memory ids,uint256[] memory amounts, bytes memory data) \n    public  \n    override\n    whenNotPaused \n    {\n        require(\n            from == _msgSender() || isApprovedForAll(from, _msgSender()),\n            \"ERC1155: caller is not token owner nor approved\"\n        );\n        require(ids.length == amounts.length, \"Unequal ids and amounts supplied\"); \n        require(PBMTokenManager(pbmTokenManager).areTokensValid(ids), \"PBM: Invalid token id(s) provided\");\n\n        if (merchantList[to]){\n            uint256 valueOfTokens = 0 ; \n            for (uint256 i = 0; i < ids.length; i++) {\n                valueOfTokens += (amounts[i]*(PBMTokenManager(pbmTokenManager).getTokenValue(ids[i]))) ; \n            } \n\n            _burnBatch(from, ids, amounts);\n            PBMTokenManager(pbmTokenManager).decreaseBalanceSupply(ids, amounts);\n            ERC20Helper.safeTransfer(spotToken, to, valueOfTokens);\n\n            emit merchantPayment(from, to, ids, amounts, valueOfTokens);\n\n        } else {\n            _safeBatchTransferFrom(from, to, ids, amounts, data);\n        }\n    }\n    \n    function revokePBM(uint256 tokenId) \n    external \n    whenNotPaused \n    {\n        uint256 PBMTokenBalanceSupply = PBMTokenManager(pbmTokenManager).getTokenCount(tokenId); \n        uint256 valueOfTokens = PBMTokenBalanceSupply*(PBMTokenManager(pbmTokenManager).getTokenValue(tokenId)); \n\n        PBMTokenManager(pbmTokenManager).revokePBM(tokenId, msg.sender); \n\n        // transfering underlying ERC20 tokens\n        ERC20Helper.safeTransfer(spotToken, msg.sender, valueOfTokens);\n\n        emit PBMrevokeWithdraw(msg.sender, tokenId, spotToken, valueOfTokens);\n\n    }\n\n    function getTokenDetails(uint256 tokenId) \n    external \n    view \n    returns (string memory, uint256, uint256, address) \n    {\n        return PBMTokenManager(pbmTokenManager).getTokenDetails(tokenId); \n    }\n\n    function uri(uint256 tokenId)\n    public  \n    view\n    override(ERC1155)\n    returns (string memory)\n    {\n        return PBMTokenManager(pbmTokenManager).uri(tokenId);\n    }\n\n    function serialise(uint256 num)\n    internal \n    pure\n    returns (uint256[] memory) {\n        uint256[] memory array  = new uint256[](1) ; \n        array[0] = num ; \n        return array ;\n    }\n}",
  "sourcePath": "/Users/mihir/Desktop/code/Orchid-PBM/contracts/PBM.sol",
  "compiler": {
    "name": "solc",
    "version": "0.8.7+commit.e28d00a7.Emscripten.clang"
  },
  "schemaVersion": "3.4.3",
  "updatedAt": "2022-09-19T07:59:57.060Z",
  "devdoc": {
    "kind": "dev",
    "methods": {
      "balanceOf(address,uint256)": {
        "details": "See {IERC1155-balanceOf}. Requirements: - `account` cannot be the zero address."
      },
      "balanceOfBatch(address[],uint256[])": {
        "details": "See {IERC1155-balanceOfBatch}. Requirements: - `accounts` and `ids` must have the same length."
      },
      "isApprovedForAll(address,address)": {
        "details": "See {IERC1155-isApprovedForAll}."
      },
      "owner()": {
        "details": "Returns the address of the current owner."
      },
      "paused()": {
        "details": "Returns true if the contract is paused, and false otherwise."
      },
      "renounceOwnership()": {
        "details": "Leaves the contract without owner. It will not be possible to call `onlyOwner` functions anymore. Can only be called by the current owner. NOTE: Renouncing ownership will leave the contract without an owner, thereby removing any functionality that is only available to the owner."
      },
      "safeBatchTransferFrom(address,address,uint256[],uint256[],bytes)": {
        "details": "See {IERC1155-safeBatchTransferFrom}."
      },
      "safeTransferFrom(address,address,uint256,uint256,bytes)": {
        "details": "See {IERC1155-safeTransferFrom}."
      },
      "setApprovalForAll(address,bool)": {
        "details": "See {IERC1155-setApprovalForAll}."
      },
      "supportsInterface(bytes4)": {
        "details": "See {IERC165-supportsInterface}."
      },
      "transferOwnership(address)": {
        "details": "Transfers ownership of the contract to a new account (`newOwner`). Can only be called by the current owner."
      }
    },
    "version": 1
  },
  "userdoc": {
    "kind": "user",
    "methods": {},
    "version": 1
  }
}