{
  "contractName": "PBM",
  "abi": [
    {
      "inputs": [
        {
          "internalType": "string",
          "name": "_name",
          "type": "string"
        },
        {
          "internalType": "string",
          "name": "_code",
          "type": "string"
        }
      ],
      "stateMutability": "nonpayable",
      "type": "constructor"
    },
    {
      "anonymous": false,
      "inputs": [
        {
          "indexed": true,
          "internalType": "address",
          "name": "account",
          "type": "address"
        },
        {
          "indexed": true,
          "internalType": "address",
          "name": "operator",
          "type": "address"
        },
        {
          "indexed": false,
          "internalType": "bool",
          "name": "approved",
          "type": "bool"
        }
      ],
      "name": "ApprovalForAll",
      "type": "event"
    },
    {
      "anonymous": false,
      "inputs": [
        {
          "indexed": false,
          "internalType": "address",
          "name": "from",
          "type": "address"
        },
        {
          "indexed": false,
          "internalType": "address",
          "name": "to",
          "type": "address"
        },
        {
          "indexed": false,
          "internalType": "uint256[]",
          "name": "tokenIds",
          "type": "uint256[]"
        },
        {
          "indexed": false,
          "internalType": "uint256[]",
          "name": "amounts",
          "type": "uint256[]"
        },
        {
          "indexed": false,
          "internalType": "address",
          "name": "ERC20Token",
          "type": "address"
        },
        {
          "indexed": false,
          "internalType": "uint256",
          "name": "ERC20TokenValue",
          "type": "uint256"
        }
      ],
      "name": "MerchantPayment",
      "type": "event"
    },
    {
      "anonymous": false,
      "inputs": [
        {
          "indexed": true,
          "internalType": "address",
          "name": "previousOwner",
          "type": "address"
        },
        {
          "indexed": true,
          "internalType": "address",
          "name": "newOwner",
          "type": "address"
        }
      ],
      "name": "OwnershipTransferred",
      "type": "event"
    },
    {
      "anonymous": false,
      "inputs": [
        {
          "indexed": false,
          "internalType": "address",
          "name": "beneficiary",
          "type": "address"
        },
        {
          "indexed": false,
          "internalType": "uint256",
          "name": "PBMTokenId",
          "type": "uint256"
        },
        {
          "indexed": false,
          "internalType": "address",
          "name": "ERC20Token",
          "type": "address"
        },
        {
          "indexed": false,
          "internalType": "uint256",
          "name": "ERC20TokenValue",
          "type": "uint256"
        }
      ],
      "name": "PBMrevokeWithdraw",
      "type": "event"
    },
    {
      "anonymous": false,
      "inputs": [
        {
          "indexed": false,
          "internalType": "address",
          "name": "account",
          "type": "address"
        }
      ],
      "name": "Paused",
      "type": "event"
    },
    {
      "anonymous": false,
      "inputs": [
        {
          "indexed": true,
          "internalType": "address",
          "name": "operator",
          "type": "address"
        },
        {
          "indexed": true,
          "internalType": "address",
          "name": "from",
          "type": "address"
        },
        {
          "indexed": true,
          "internalType": "address",
          "name": "to",
          "type": "address"
        },
        {
          "indexed": false,
          "internalType": "uint256[]",
          "name": "ids",
          "type": "uint256[]"
        },
        {
          "indexed": false,
          "internalType": "uint256[]",
          "name": "values",
          "type": "uint256[]"
        }
      ],
      "name": "TransferBatch",
      "type": "event"
    },
    {
      "anonymous": false,
      "inputs": [
        {
          "indexed": true,
          "internalType": "address",
          "name": "operator",
          "type": "address"
        },
        {
          "indexed": true,
          "internalType": "address",
          "name": "from",
          "type": "address"
        },
        {
          "indexed": true,
          "internalType": "address",
          "name": "to",
          "type": "address"
        },
        {
          "indexed": false,
          "internalType": "uint256",
          "name": "id",
          "type": "uint256"
        },
        {
          "indexed": false,
          "internalType": "uint256",
          "name": "value",
          "type": "uint256"
        }
      ],
      "name": "TransferSingle",
      "type": "event"
    },
    {
      "anonymous": false,
      "inputs": [
        {
          "indexed": false,
          "internalType": "string",
          "name": "value",
          "type": "string"
        },
        {
          "indexed": true,
          "internalType": "uint256",
          "name": "id",
          "type": "uint256"
        }
      ],
      "name": "URI",
      "type": "event"
    },
    {
      "anonymous": false,
      "inputs": [
        {
          "indexed": false,
          "internalType": "address",
          "name": "account",
          "type": "address"
        }
      ],
      "name": "Unpaused",
      "type": "event"
    },
    {
      "inputs": [
        {
          "internalType": "address",
          "name": "account",
          "type": "address"
        },
        {
          "internalType": "uint256",
          "name": "id",
          "type": "uint256"
        }
      ],
      "name": "balanceOf",
      "outputs": [
        {
          "internalType": "uint256",
          "name": "",
          "type": "uint256"
        }
      ],
      "stateMutability": "view",
      "type": "function"
    },
    {
      "inputs": [
        {
          "internalType": "address[]",
          "name": "accounts",
          "type": "address[]"
        },
        {
          "internalType": "uint256[]",
          "name": "ids",
          "type": "uint256[]"
        }
      ],
      "name": "balanceOfBatch",
      "outputs": [
        {
          "internalType": "uint256[]",
          "name": "",
          "type": "uint256[]"
        }
      ],
      "stateMutability": "view",
      "type": "function"
    },
    {
      "inputs": [],
      "name": "code",
      "outputs": [
        {
          "internalType": "string",
          "name": "",
          "type": "string"
        }
      ],
      "stateMutability": "view",
      "type": "function"
    },
    {
      "inputs": [],
      "name": "contractExpiry",
      "outputs": [
        {
          "internalType": "uint256",
          "name": "",
          "type": "uint256"
        }
      ],
      "stateMutability": "view",
      "type": "function"
    },
    {
      "inputs": [
        {
          "internalType": "address",
          "name": "account",
          "type": "address"
        },
        {
          "internalType": "address",
          "name": "operator",
          "type": "address"
        }
      ],
      "name": "isApprovedForAll",
      "outputs": [
        {
          "internalType": "bool",
          "name": "",
          "type": "bool"
        }
      ],
      "stateMutability": "view",
      "type": "function"
    },
    {
      "inputs": [],
      "name": "name",
      "outputs": [
        {
          "internalType": "string",
          "name": "",
          "type": "string"
        }
      ],
      "stateMutability": "view",
      "type": "function"
    },
    {
      "inputs": [],
      "name": "owner",
      "outputs": [
        {
          "internalType": "address",
          "name": "",
          "type": "address"
        }
      ],
      "stateMutability": "view",
      "type": "function"
    },
    {
      "inputs": [],
      "name": "paused",
      "outputs": [
        {
          "internalType": "bool",
          "name": "",
          "type": "bool"
        }
      ],
      "stateMutability": "view",
      "type": "function"
    },
    {
      "inputs": [],
      "name": "pbmAddressList",
      "outputs": [
        {
          "internalType": "address",
          "name": "",
          "type": "address"
        }
      ],
      "stateMutability": "view",
      "type": "function"
    },
    {
      "inputs": [],
      "name": "pbmTokenManager",
      "outputs": [
        {
          "internalType": "address",
          "name": "",
          "type": "address"
        }
      ],
      "stateMutability": "view",
      "type": "function"
    },
    {
      "inputs": [],
      "name": "renounceOwnership",
      "outputs": [],
      "stateMutability": "nonpayable",
      "type": "function"
    },
    {
      "inputs": [
        {
          "internalType": "address",
          "name": "operator",
          "type": "address"
        },
        {
          "internalType": "bool",
          "name": "approved",
          "type": "bool"
        }
      ],
      "name": "setApprovalForAll",
      "outputs": [],
      "stateMutability": "nonpayable",
      "type": "function"
    },
    {
      "inputs": [],
      "name": "spotToken",
      "outputs": [
        {
          "internalType": "address",
          "name": "",
          "type": "address"
        }
      ],
      "stateMutability": "view",
      "type": "function"
    },
    {
      "inputs": [
        {
          "internalType": "bytes4",
          "name": "interfaceId",
          "type": "bytes4"
        }
      ],
      "name": "supportsInterface",
      "outputs": [
        {
          "internalType": "bool",
          "name": "",
          "type": "bool"
        }
      ],
      "stateMutability": "view",
      "type": "function"
    },
    {
      "inputs": [
        {
          "internalType": "address",
          "name": "newOwner",
          "type": "address"
        }
      ],
      "name": "transferOwnership",
      "outputs": [],
      "stateMutability": "nonpayable",
      "type": "function"
    },
    {
      "inputs": [
        {
          "internalType": "address",
          "name": "_spotToken",
          "type": "address"
        },
        {
          "internalType": "uint256",
          "name": "_expiry",
          "type": "uint256"
        },
        {
          "internalType": "address",
          "name": "_pbmAddressList",
          "type": "address"
        },
        {
          "internalType": "address",
          "name": "_pbmTokenManager",
          "type": "address"
        }
      ],
      "name": "initialise",
      "outputs": [],
      "stateMutability": "nonpayable",
      "type": "function"
    },
    {
      "inputs": [
        {
          "internalType": "string",
          "name": "companyName",
          "type": "string"
        },
        {
          "internalType": "uint256",
          "name": "spotAmount",
          "type": "uint256"
        },
        {
          "internalType": "uint256",
          "name": "tokenExpiry",
          "type": "uint256"
        },
        {
          "internalType": "address",
          "name": "creator",
          "type": "address"
        },
        {
          "internalType": "string",
          "name": "tokenURI",
          "type": "string"
        }
      ],
      "name": "createPBMTokenType",
      "outputs": [],
      "stateMutability": "nonpayable",
      "type": "function"
    },
    {
      "inputs": [
        {
          "internalType": "uint256",
          "name": "tokenId",
          "type": "uint256"
        },
        {
          "internalType": "uint256",
          "name": "amount",
          "type": "uint256"
        },
        {
          "internalType": "address",
          "name": "receiver",
          "type": "address"
        }
      ],
      "name": "mint",
      "outputs": [],
      "stateMutability": "nonpayable",
      "type": "function"
    },
    {
      "inputs": [
        {
          "internalType": "uint256[]",
          "name": "tokenIds",
          "type": "uint256[]"
        },
        {
          "internalType": "uint256[]",
          "name": "amounts",
          "type": "uint256[]"
        },
        {
          "internalType": "address",
          "name": "receiver",
          "type": "address"
        }
      ],
      "name": "batchMint",
      "outputs": [],
      "stateMutability": "nonpayable",
      "type": "function"
    },
    {
      "inputs": [
        {
          "internalType": "address",
          "name": "from",
          "type": "address"
        },
        {
          "internalType": "address",
          "name": "to",
          "type": "address"
        },
        {
          "internalType": "uint256",
          "name": "id",
          "type": "uint256"
        },
        {
          "internalType": "uint256",
          "name": "amount",
          "type": "uint256"
        },
        {
          "internalType": "bytes",
          "name": "data",
          "type": "bytes"
        }
      ],
      "name": "safeTransferFrom",
      "outputs": [],
      "stateMutability": "nonpayable",
      "type": "function"
    },
    {
      "inputs": [
        {
          "internalType": "address",
          "name": "from",
          "type": "address"
        },
        {
          "internalType": "address",
          "name": "to",
          "type": "address"
        },
        {
          "internalType": "uint256[]",
          "name": "ids",
          "type": "uint256[]"
        },
        {
          "internalType": "uint256[]",
          "name": "amounts",
          "type": "uint256[]"
        },
        {
          "internalType": "bytes",
          "name": "data",
          "type": "bytes"
        }
      ],
      "name": "safeBatchTransferFrom",
      "outputs": [],
      "stateMutability": "nonpayable",
      "type": "function"
    },
    {
      "inputs": [
        {
          "internalType": "uint256",
          "name": "tokenId",
          "type": "uint256"
        }
      ],
      "name": "revokePBM",
      "outputs": [],
      "stateMutability": "nonpayable",
      "type": "function"
    },
    {
      "inputs": [
        {
          "internalType": "uint256",
          "name": "tokenId",
          "type": "uint256"
        }
      ],
      "name": "getTokenDetails",
      "outputs": [
        {
          "internalType": "string",
          "name": "",
          "type": "string"
        },
        {
          "internalType": "uint256",
          "name": "",
          "type": "uint256"
        },
        {
          "internalType": "uint256",
          "name": "",
          "type": "uint256"
        },
        {
          "internalType": "address",
          "name": "",
          "type": "address"
        }
      ],
      "stateMutability": "view",
      "type": "function"
    },
    {
      "inputs": [
        {
          "internalType": "uint256",
          "name": "tokenId",
          "type": "uint256"
        }
      ],
      "name": "uri",
      "outputs": [
        {
          "internalType": "string",
          "name": "",
          "type": "string"
        }
      ],
      "stateMutability": "view",
      "type": "function"
    },
    {
      "inputs": [],
      "name": "pause",
      "outputs": [],
      "stateMutability": "nonpayable",
      "type": "function"
    },
    {
      "inputs": [],
      "name": "unpause",
      "outputs": [],
      "stateMutability": "nonpayable",
      "type": "function"
    }
  ],
  "bytecode": "0x60806040526000600660006101000a81548173ffffffffffffffffffffffffffffffffffffffff021916908373ffffffffffffffffffffffffffffffffffffffff1602179055506000600760006101000a81548173ffffffffffffffffffffffffffffffffffffffff021916908373ffffffffffffffffffffffffffffffffffffffff1602179055506000600860006101000a81548173ffffffffffffffffffffffffffffffffffffffff021916908373ffffffffffffffffffffffffffffffffffffffff1602179055506000600860146101000a81548160ff021916908315150217905550348015620000f257600080fd5b5060405162006244380380620062448339818101604052810190620001189190620003c7565b604051806020016040528060008152506200013981620001af60201b60201c565b506200015a6200014e620001cb60201b60201c565b620001d360201b60201c565b6000600360146101000a81548160ff02191690831515021790555081600490805190602001906200018d92919062000299565b508060059080519060200190620001a692919062000299565b505050620005d0565b8060029080519060200190620001c792919062000299565b5050565b600033905090565b6000600360009054906101000a900473ffffffffffffffffffffffffffffffffffffffff16905081600360006101000a81548173ffffffffffffffffffffffffffffffffffffffff021916908373ffffffffffffffffffffffffffffffffffffffff1602179055508173ffffffffffffffffffffffffffffffffffffffff168173ffffffffffffffffffffffffffffffffffffffff167f8be0079c531659141344cd1fd0a4f28419497f9722a3daafe3b4186f6b6457e060405160405180910390a35050565b828054620002a790620004e1565b90600052602060002090601f016020900481019282620002cb576000855562000317565b82601f10620002e657805160ff191683800117855562000317565b8280016001018555821562000317579182015b8281111562000316578251825591602001919060010190620002f9565b5b5090506200032691906200032a565b5090565b5b80821115620003455760008160009055506001016200032b565b5090565b6000620003606200035a8462000475565b6200044c565b9050828152602081018484840111156200037f576200037e620005b0565b5b6200038c848285620004ab565b509392505050565b600082601f830112620003ac57620003ab620005ab565b5b8151620003be84826020860162000349565b91505092915050565b60008060408385031215620003e157620003e0620005ba565b5b600083015167ffffffffffffffff811115620004025762000401620005b5565b5b620004108582860162000394565b925050602083015167ffffffffffffffff811115620004345762000433620005b5565b5b620004428582860162000394565b9150509250929050565b6000620004586200046b565b905062000466828262000517565b919050565b6000604051905090565b600067ffffffffffffffff8211156200049357620004926200057c565b5b6200049e82620005bf565b9050602081019050919050565b60005b83811015620004cb578082015181840152602081019050620004ae565b83811115620004db576000848401525b50505050565b60006002820490506001821680620004fa57607f821691505b602082108114156200051157620005106200054d565b5b50919050565b6200052282620005bf565b810181811067ffffffffffffffff821117156200054457620005436200057c565b5b80604052505050565b7f4e487b7100000000000000000000000000000000000000000000000000000000600052602260045260246000fd5b7f4e487b7100000000000000000000000000000000000000000000000000000000600052604160045260246000fd5b600080fd5b600080fd5b600080fd5b600080fd5b6000601f19601f8301169050919050565b615c6480620005e06000396000f3fe608060405234801561001057600080fd5b506004361061018d5760003560e01c8063715018a6116100de578063c1e0372811610097578063ee0d824911610071578063ee0d82491461044f578063f242432a1461046b578063f2fde38b14610487578063fb34b201146104a35761018d565b8063c1e03728146103d0578063e7d3fe6b14610403578063e985e9c51461041f5761018d565b8063715018a61461034857806373e17e76146103525780638456cb591461036e57806389aba642146103785780638da5cb5b14610396578063a22cb465146103b45761018d565b80632eb2c2d61161014b57806351e86cf61161012557806351e86cf6146102d25780635c975abb146102f05780635ed7be9d1461030e57806363be47d21461032a5761018d565b80632eb2c2d61461027c5780633f4ba83a146102985780634e1273f4146102a25761018d565b8062fdd58e1461019257806301ffc9a7146101c257806306fdde03146101f25780630ad89462146102105780630e89341c1461022e57806324c12bf61461025e575b600080fd5b6101ac60048036038101906101a791906140e8565b6104bf565b6040516101b9919061503b565b60405180910390f35b6101dc60048036038101906101d791906142bf565b610588565b6040516101e99190614c43565b60405180910390f35b6101fa61066a565b6040516102079190614c5e565b60405180910390f35b6102186106f8565b60405161022591906149f9565b60405180910390f35b61024860048036038101906102439190614498565b61071e565b6040516102559190614c5e565b60405180910390f35b6102666107d7565b6040516102739190614c5e565b60405180910390f35b61029660048036038101906102919190613f42565b610865565b005b6102a0610d89565b005b6102bc60048036038101906102b7919061418f565b610d9b565b6040516102c99190614bea565b60405180910390f35b6102da610eb4565b6040516102e791906149f9565b60405180910390f35b6102f8610eda565b6040516103059190614c43565b60405180910390f35b610328600480360381019061032391906143e5565b610ef1565b005b610332610fe8565b60405161033f91906149f9565b60405180910390f35b61035061100e565b005b61036c60048036038101906103679190614498565b611022565b005b610376611247565b005b610380611259565b60405161038d919061503b565b60405180910390f35b61039e61125f565b6040516103ab91906149f9565b60405180910390f35b6103ce60048036038101906103c991906140a8565b611289565b005b6103ea60048036038101906103e59190614498565b61129f565b6040516103fa9493929190614c80565b60405180910390f35b61041d600480360381019061041891906144f2565b611365565b005b61043960048036038101906104349190613f02565b611564565b6040516104469190614c43565b60405180910390f35b61046960048036038101906104649190614128565b6115f8565b005b61048560048036038101906104809190614011565b61180d565b005b6104a1600480360381019061049c9190613ea8565b611caf565b005b6104bd60048036038101906104b89190614207565b611d33565b005b60008073ffffffffffffffffffffffffffffffffffffffff168373ffffffffffffffffffffffffffffffffffffffff161415610530576040517f08c379a000000000000000000000000000000000000000000000000000000000815260040161052790614e3b565b60405180910390fd5b60008083815260200190815260200160002060008473ffffffffffffffffffffffffffffffffffffffff1673ffffffffffffffffffffffffffffffffffffffff16815260200190815260200160002054905092915050565b60007fd9b67a26000000000000000000000000000000000000000000000000000000007bffffffffffffffffffffffffffffffffffffffffffffffffffffffff1916827bffffffffffffffffffffffffffffffffffffffffffffffffffffffff1916148061065357507f0e89341c000000000000000000000000000000000000000000000000000000007bffffffffffffffffffffffffffffffffffffffffffffffffffffffff1916827bffffffffffffffffffffffffffffffffffffffffffffffffffffffff1916145b80610663575061066282611fc4565b5b9050919050565b6004805461067790615369565b80601f01602080910402602001604051908101604052809291908181526020018280546106a390615369565b80156106f05780601f106106c5576101008083540402835291602001916106f0565b820191906000526020600020905b8154815290600101906020018083116106d357829003601f168201915b505050505081565b600660009054906101000a900473ffffffffffffffffffffffffffffffffffffffff1681565b6060600760009054906101000a900473ffffffffffffffffffffffffffffffffffffffff1673ffffffffffffffffffffffffffffffffffffffff16630e89341c836040518263ffffffff1660e01b815260040161077b919061503b565b60006040518083038186803b15801561079357600080fd5b505afa1580156107a7573d6000803e3d6000fd5b505050506040513d6000823e3d601f19601f820116820180604052508101906107d09190614319565b9050919050565b600580546107e490615369565b80601f016020809104026020016040519081016040528092919081815260200182805461081090615369565b801561085d5780601f106108325761010080835404028352916020019161085d565b820191906000526020600020905b81548152906001019060200180831161084057829003601f168201915b505050505081565b61086d61202e565b600860149054906101000a900460ff166108bc576040517f08c379a00000000000000000000000000000000000000000000000000000000081526004016108b390614f1b565b60405180910390fd5b6108c4612078565b73ffffffffffffffffffffffffffffffffffffffff168573ffffffffffffffffffffffffffffffffffffffff16148061090a575061090985610904612078565b611564565b5b610949576040517f08c379a000000000000000000000000000000000000000000000000000000000815260040161094090614d5b565b60405180910390fd5b815183511461098d576040517f08c379a000000000000000000000000000000000000000000000000000000000815260040161098490614f3b565b60405180910390fd5b600860009054906101000a900473ffffffffffffffffffffffffffffffffffffffff1673ffffffffffffffffffffffffffffffffffffffff16631a2f7167856040518263ffffffff1660e01b81526004016109e891906149f9565b602060405180830381600087803b158015610a0257600080fd5b505af1158015610a16573d6000803e3d6000fd5b505050506040513d601f19601f82011682018060405250810190610a3a9190614292565b15610c87576000805b8451811015610b5657600760009054906101000a900473ffffffffffffffffffffffffffffffffffffffff1673ffffffffffffffffffffffffffffffffffffffff1663d10424c7868381518110610a9d57610a9c615473565b5b60200260200101516040518263ffffffff1660e01b8152600401610ac1919061503b565b60206040518083038186803b158015610ad957600080fd5b505afa158015610aed573d6000803e3d6000fd5b505050506040513d601f19601f82011682018060405250810190610b1191906144c5565b848281518110610b2457610b23615473565b5b6020026020010151610b369190615259565b82610b419190615203565b91508080610b4e906153cc565b915050610a43565b50610b62868585612080565b600760009054906101000a900473ffffffffffffffffffffffffffffffffffffffff1673ffffffffffffffffffffffffffffffffffffffff1663e21c8b5985856040518363ffffffff1660e01b8152600401610bbf929190614c0c565b600060405180830381600087803b158015610bd957600080fd5b505af1158015610bed573d6000803e3d6000fd5b50505050610c1e600660009054906101000a900473ffffffffffffffffffffffffffffffffffffffff16868361234f565b7f68c9cd42836993caa70415e61f3c3baceb0bb31dcb22af6e5e0db98fa8870fac86868686600660009054906101000a900473ffffffffffffffffffffffffffffffffffffffff1686604051610c7996959493929190614a14565b60405180910390a150610d82565b600860009054906101000a900473ffffffffffffffffffffffffffffffffffffffff1673ffffffffffffffffffffffffffffffffffffffff1663fe575a87856040518263ffffffff1660e01b8152600401610ce291906149f9565b602060405180830381600087803b158015610cfc57600080fd5b505af1158015610d10573d6000803e3d6000fd5b505050506040513d601f19601f82011682018060405250810190610d349190614292565b15610d74576040517f08c379a0000000000000000000000000000000000000000000000000000000008152600401610d6b90614ffb565b60405180910390fd5b610d818585858585612514565b5b5050505050565b610d91612836565b610d996128b4565b565b60608151835114610de1576040517f08c379a0000000000000000000000000000000000000000000000000000000008152600401610dd890614f7b565b60405180910390fd5b6000835167ffffffffffffffff811115610dfe57610dfd6154a2565b5b604051908082528060200260200182016040528015610e2c5781602001602082028036833780820191505090505b50905060005b8451811015610ea957610e79858281518110610e5157610e50615473565b5b6020026020010151858381518110610e6c57610e6b615473565b5b60200260200101516104bf565b828281518110610e8c57610e8b615473565b5b60200260200101818152505080610ea2906153cc565b9050610e32565b508091505092915050565b600860009054906101000a900473ffffffffffffffffffffffffffffffffffffffff1681565b6000600360149054906101000a900460ff16905090565b610ef9612836565b600860149054906101000a900460ff16610f48576040517f08c379a0000000000000000000000000000000000000000000000000000000008152600401610f3f90614f1b565b60405180910390fd5b600760009054906101000a900473ffffffffffffffffffffffffffffffffffffffff1673ffffffffffffffffffffffffffffffffffffffff166380d69c8a86868686866009546040518763ffffffff1660e01b8152600401610faf96959493929190614ccc565b600060405180830381600087803b158015610fc957600080fd5b505af1158015610fdd573d6000803e3d6000fd5b505050505050505050565b600760009054906101000a900473ffffffffffffffffffffffffffffffffffffffff1681565b611016612836565b6110206000612917565b565b61102a61202e565b600860149054906101000a900460ff16611079576040517f08c379a000000000000000000000000000000000000000000000000000000000815260040161107090614f1b565b60405180910390fd5b6000600760009054906101000a900473ffffffffffffffffffffffffffffffffffffffff1673ffffffffffffffffffffffffffffffffffffffff1663d20874d8836040518263ffffffff1660e01b81526004016110d6919061503b565b60206040518083038186803b1580156110ee57600080fd5b505afa158015611102573d6000803e3d6000fd5b505050506040513d601f19601f8201168201806040525081019061112691906144c5565b9050600760009054906101000a900473ffffffffffffffffffffffffffffffffffffffff1673ffffffffffffffffffffffffffffffffffffffff166336a3409c83336040518363ffffffff1660e01b8152600401611185929190615056565b600060405180830381600087803b15801561119f57600080fd5b505af11580156111b3573d6000803e3d6000fd5b505050506111e4600660009054906101000a900473ffffffffffffffffffffffffffffffffffffffff16338361234f565b7fa1c359e2aefcb2a02fa122099023552498d16ee2c91b81d3cfd8cd086f037d443383600660009054906101000a900473ffffffffffffffffffffffffffffffffffffffff168460405161123b9493929190614ba5565b60405180910390a15050565b61124f612836565b6112576129dd565b565b60095481565b6000600360009054906101000a900473ffffffffffffffffffffffffffffffffffffffff16905090565b61129b611294612078565b8383612a40565b5050565b60606000806000600760009054906101000a900473ffffffffffffffffffffffffffffffffffffffff1673ffffffffffffffffffffffffffffffffffffffff1663c1e03728866040518263ffffffff1660e01b8152600401611301919061503b565b60006040518083038186803b15801561131957600080fd5b505afa15801561132d573d6000803e3d6000fd5b505050506040513d6000823e3d601f19601f820116820180604052508101906113569190614362565b93509350935093509193509193565b61136d61202e565b600860149054906101000a900460ff166113bc576040517f08c379a00000000000000000000000000000000000000000000000000000000081526004016113b390614f1b565b60405180910390fd5b6000600760009054906101000a900473ffffffffffffffffffffffffffffffffffffffff1673ffffffffffffffffffffffffffffffffffffffff1663d10424c7856040518263ffffffff1660e01b8152600401611419919061503b565b60206040518083038186803b15801561143157600080fd5b505afa158015611445573d6000803e3d6000fd5b505050506040513d601f19601f8201168201806040525081019061146991906144c5565b836114749190615259565b90506114a4600660009054906101000a900473ffffffffffffffffffffffffffffffffffffffff16333084612bad565b600760009054906101000a900473ffffffffffffffffffffffffffffffffffffffff1673ffffffffffffffffffffffffffffffffffffffff1663f600d9f46114eb86612d75565b6114f486612d75565b6040518363ffffffff1660e01b8152600401611511929190614c0c565b600060405180830381600087803b15801561152b57600080fd5b505af115801561153f573d6000803e3d6000fd5b5050505061155e82858560405180602001604052806000815250612def565b50505050565b6000600160008473ffffffffffffffffffffffffffffffffffffffff1673ffffffffffffffffffffffffffffffffffffffff16815260200190815260200160002060008373ffffffffffffffffffffffffffffffffffffffff1673ffffffffffffffffffffffffffffffffffffffff16815260200190815260200160002060009054906101000a900460ff16905092915050565b611600612836565b600860149054906101000a900460ff1615611650576040517f08c379a000000000000000000000000000000000000000000000000000000000815260040161164790614e1b565b60405180910390fd5b3073ffffffffffffffffffffffffffffffffffffffff168173ffffffffffffffffffffffffffffffffffffffff16638da5cb5b6040518163ffffffff1660e01b8152600401602060405180830381600087803b1580156116af57600080fd5b505af11580156116c3573d6000803e3d6000fd5b505050506040513d601f19601f820116820180604052508101906116e79190613ed5565b73ffffffffffffffffffffffffffffffffffffffff161461173d576040517f08c379a00000000000000000000000000000000000000000000000000000000081526004016117349061501b565b60405180910390fd5b83600660006101000a81548173ffffffffffffffffffffffffffffffffffffffff021916908373ffffffffffffffffffffffffffffffffffffffff1602179055508260098190555081600860006101000a81548173ffffffffffffffffffffffffffffffffffffffff021916908373ffffffffffffffffffffffffffffffffffffffff16021790555080600760006101000a81548173ffffffffffffffffffffffffffffffffffffffff021916908373ffffffffffffffffffffffffffffffffffffffff16021790555050505050565b61181561202e565b600860149054906101000a900460ff16611864576040517f08c379a000000000000000000000000000000000000000000000000000000000815260040161185b90614f1b565b60405180910390fd5b61186c612078565b73ffffffffffffffffffffffffffffffffffffffff168573ffffffffffffffffffffffffffffffffffffffff1614806118b257506118b1856118ac612078565b611564565b5b6118f1576040517f08c379a00000000000000000000000000000000000000000000000000000000081526004016118e890614d5b565b60405180910390fd5b600860009054906101000a900473ffffffffffffffffffffffffffffffffffffffff1673ffffffffffffffffffffffffffffffffffffffff16631a2f7167856040518263ffffffff1660e01b815260040161194c91906149f9565b602060405180830381600087803b15801561196657600080fd5b505af115801561197a573d6000803e3d6000fd5b505050506040513d601f19601f8201168201806040525081019061199e9190614292565b15611bad576000600760009054906101000a900473ffffffffffffffffffffffffffffffffffffffff1673ffffffffffffffffffffffffffffffffffffffff1663d10424c7856040518263ffffffff1660e01b8152600401611a00919061503b565b60206040518083038186803b158015611a1857600080fd5b505afa158015611a2c573d6000803e3d6000fd5b505050506040513d601f19601f82011682018060405250810190611a5091906144c5565b83611a5b9190615259565b9050611a68868585612fa0565b600760009054906101000a900473ffffffffffffffffffffffffffffffffffffffff1673ffffffffffffffffffffffffffffffffffffffff1663e21c8b59611aaf86612d75565b611ab886612d75565b6040518363ffffffff1660e01b8152600401611ad5929190614c0c565b600060405180830381600087803b158015611aef57600080fd5b505af1158015611b03573d6000803e3d6000fd5b50505050611b34600660009054906101000a900473ffffffffffffffffffffffffffffffffffffffff16868361234f565b7f68c9cd42836993caa70415e61f3c3baceb0bb31dcb22af6e5e0db98fa8870fac8686611b6087612d75565b611b6987612d75565b600660009054906101000a900473ffffffffffffffffffffffffffffffffffffffff1686604051611b9f96959493929190614a14565b60405180910390a150611ca8565b600860009054906101000a900473ffffffffffffffffffffffffffffffffffffffff1673ffffffffffffffffffffffffffffffffffffffff1663fe575a87856040518263ffffffff1660e01b8152600401611c0891906149f9565b602060405180830381600087803b158015611c2257600080fd5b505af1158015611c36573d6000803e3d6000fd5b505050506040513d601f19601f82011682018060405250810190611c5a9190614292565b15611c9a576040517f08c379a0000000000000000000000000000000000000000000000000000000008152600401611c9190614ffb565b60405180910390fd5b611ca785858585856131e7565b5b5050505050565b611cb7612836565b600073ffffffffffffffffffffffffffffffffffffffff168173ffffffffffffffffffffffffffffffffffffffff161415611d27576040517f08c379a0000000000000000000000000000000000000000000000000000000008152600401611d1e90614ddb565b60405180910390fd5b611d3081612917565b50565b611d3b61202e565b600860149054906101000a900460ff16611d8a576040517f08c379a0000000000000000000000000000000000000000000000000000000008152600401611d8190614f1b565b60405180910390fd5b8151835114611dce576040517f08c379a0000000000000000000000000000000000000000000000000000000008152600401611dc590614f3b565b60405180910390fd5b6000805b8451811015611ee557600760009054906101000a900473ffffffffffffffffffffffffffffffffffffffff1673ffffffffffffffffffffffffffffffffffffffff1663d10424c7868381518110611e2c57611e2b615473565b5b60200260200101516040518263ffffffff1660e01b8152600401611e50919061503b565b60206040518083038186803b158015611e6857600080fd5b505afa158015611e7c573d6000803e3d6000fd5b505050506040513d601f19601f82011682018060405250810190611ea091906144c5565b848281518110611eb357611eb2615473565b5b6020026020010151611ec59190615259565b82611ed09190615203565b91508080611edd906153cc565b915050611dd2565b50611f14600660009054906101000a900473ffffffffffffffffffffffffffffffffffffffff16333084612bad565b600760009054906101000a900473ffffffffffffffffffffffffffffffffffffffff1673ffffffffffffffffffffffffffffffffffffffff1663f600d9f485856040518363ffffffff1660e01b8152600401611f71929190614c0c565b600060405180830381600087803b158015611f8b57600080fd5b505af1158015611f9f573d6000803e3d6000fd5b50505050611fbe82858560405180602001604052806000815250613483565b50505050565b60007f01ffc9a7000000000000000000000000000000000000000000000000000000007bffffffffffffffffffffffffffffffffffffffffffffffffffffffff1916827bffffffffffffffffffffffffffffffffffffffffffffffffffffffff1916149050919050565b612036610eda565b15612076576040517f08c379a000000000000000000000000000000000000000000000000000000000815260040161206d90614e7b565b60405180910390fd5b565b600033905090565b600073ffffffffffffffffffffffffffffffffffffffff168373ffffffffffffffffffffffffffffffffffffffff1614156120f0576040517f08c379a00000000000000000000000000000000000000000000000000000000081526004016120e790614ebb565b60405180910390fd5b8051825114612134576040517f08c379a000000000000000000000000000000000000000000000000000000000815260040161212b90614f9b565b60405180910390fd5b600061213e612078565b905061215e818560008686604051806020016040528060008152506136b0565b60005b83518110156122ab57600084828151811061217f5761217e615473565b5b60200260200101519050600084838151811061219e5761219d615473565b5b60200260200101519050600080600084815260200190815260200160002060008973ffffffffffffffffffffffffffffffffffffffff1673ffffffffffffffffffffffffffffffffffffffff1681526020019081526020016000205490508181101561223f576040517f08c379a000000000000000000000000000000000000000000000000000000000815260040161223690614dfb565b60405180910390fd5b81810360008085815260200190815260200160002060008a73ffffffffffffffffffffffffffffffffffffffff1673ffffffffffffffffffffffffffffffffffffffff1681526020019081526020016000208190555050505080806122a3906153cc565b915050612161565b50600073ffffffffffffffffffffffffffffffffffffffff168473ffffffffffffffffffffffffffffffffffffffff168273ffffffffffffffffffffffffffffffffffffffff167f4a39dc06d4c0dbc64b70af90fd698a233a518aa5d07e595d983b8c0526c8f7fb8686604051612323929190614c0c565b60405180910390a4612349818560008686604051806020016040528060008152506136b8565b50505050565b600073ffffffffffffffffffffffffffffffffffffffff168373ffffffffffffffffffffffffffffffffffffffff1614156123bf576040517f08c379a00000000000000000000000000000000000000000000000000000000081526004016123b690614dbb565b60405180910390fd5b6000808473ffffffffffffffffffffffffffffffffffffffff1663a9059cbb60e01b85856040516024016123f4929190614b7c565b604051602081830303815290604052907bffffffffffffffffffffffffffffffffffffffffffffffffffffffff19166020820180517bffffffffffffffffffffffffffffffffffffffffffffffffffffffff838183161783525050505060405161245e91906149e2565b6000604051808303816000865af19150503d806000811461249b576040519150601f19603f3d011682016040523d82523d6000602084013e6124a0565b606091505b50915091508180156124ce57506000815114806124cd5750808060200190518101906124cc9190614292565b5b5b61250d576040517f08c379a000000000000000000000000000000000000000000000000000000000815260040161250490614fdb565b60405180910390fd5b5050505050565b8151835114612558576040517f08c379a000000000000000000000000000000000000000000000000000000000815260040161254f90614f9b565b60405180910390fd5b600073ffffffffffffffffffffffffffffffffffffffff168473ffffffffffffffffffffffffffffffffffffffff1614156125c8576040517f08c379a00000000000000000000000000000000000000000000000000000000081526004016125bf90614e9b565b60405180910390fd5b60006125d2612078565b90506125e28187878787876136b0565b60005b845181101561279357600085828151811061260357612602615473565b5b60200260200101519050600085838151811061262257612621615473565b5b60200260200101519050600080600084815260200190815260200160002060008b73ffffffffffffffffffffffffffffffffffffffff1673ffffffffffffffffffffffffffffffffffffffff168152602001908152602001600020549050818110156126c3576040517f08c379a00000000000000000000000000000000000000000000000000000000081526004016126ba90614edb565b60405180910390fd5b81810360008085815260200190815260200160002060008c73ffffffffffffffffffffffffffffffffffffffff1673ffffffffffffffffffffffffffffffffffffffff168152602001908152602001600020819055508160008085815260200190815260200160002060008b73ffffffffffffffffffffffffffffffffffffffff1673ffffffffffffffffffffffffffffffffffffffff16815260200190815260200160002060008282546127789190615203565b925050819055505050508061278c906153cc565b90506125e5565b508473ffffffffffffffffffffffffffffffffffffffff168673ffffffffffffffffffffffffffffffffffffffff168273ffffffffffffffffffffffffffffffffffffffff167f4a39dc06d4c0dbc64b70af90fd698a233a518aa5d07e595d983b8c0526c8f7fb878760405161280a929190614c0c565b60405180910390a46128208187878787876136b8565b61282e8187878787876136c0565b505050505050565b61283e612078565b73ffffffffffffffffffffffffffffffffffffffff1661285c61125f565b73ffffffffffffffffffffffffffffffffffffffff16146128b2576040517f08c379a00000000000000000000000000000000000000000000000000000000081526004016128a990614efb565b60405180910390fd5b565b6128bc6138a7565b6000600360146101000a81548160ff0219169083151502179055507f5db9ee0a495bf2e6ff9c91a7834c1ba4fdd244a5e8aa4e537bd38aeae4b073aa612900612078565b60405161290d91906149f9565b60405180910390a1565b6000600360009054906101000a900473ffffffffffffffffffffffffffffffffffffffff16905081600360006101000a81548173ffffffffffffffffffffffffffffffffffffffff021916908373ffffffffffffffffffffffffffffffffffffffff1602179055508173ffffffffffffffffffffffffffffffffffffffff168173ffffffffffffffffffffffffffffffffffffffff167f8be0079c531659141344cd1fd0a4f28419497f9722a3daafe3b4186f6b6457e060405160405180910390a35050565b6129e561202e565b6001600360146101000a81548160ff0219169083151502179055507f62e78cea01bee320cd4e420270b5ea74000d11b0c9f74754ebdbfc544b05a258612a29612078565b604051612a3691906149f9565b60405180910390a1565b8173ffffffffffffffffffffffffffffffffffffffff168373ffffffffffffffffffffffffffffffffffffffff161415612aaf576040517f08c379a0000000000000000000000000000000000000000000000000000000008152600401612aa690614f5b565b60405180910390fd5b80600160008573ffffffffffffffffffffffffffffffffffffffff1673ffffffffffffffffffffffffffffffffffffffff16815260200190815260200160002060008473ffffffffffffffffffffffffffffffffffffffff1673ffffffffffffffffffffffffffffffffffffffff16815260200190815260200160002060006101000a81548160ff0219169083151502179055508173ffffffffffffffffffffffffffffffffffffffff168373ffffffffffffffffffffffffffffffffffffffff167f17307eab39ab6107e8899845ad3d59bd9653f200f220920489ca2b5937696c3183604051612ba09190614c43565b60405180910390a3505050565b600073ffffffffffffffffffffffffffffffffffffffff168473ffffffffffffffffffffffffffffffffffffffff161415612c1d576040517f08c379a0000000000000000000000000000000000000000000000000000000008152600401612c1490614dbb565b60405180910390fd5b6000808573ffffffffffffffffffffffffffffffffffffffff166323b872dd60e01b868686604051602401612c5493929190614aeb565b604051602081830303815290604052907bffffffffffffffffffffffffffffffffffffffffffffffffffffffff19166020820180517bffffffffffffffffffffffffffffffffffffffffffffffffffffffff8381831617835250505050604051612cbe91906149e2565b6000604051808303816000865af19150503d8060008114612cfb576040519150601f19603f3d011682016040523d82523d6000602084013e612d00565b606091505b5091509150818015612d2e5750600081511480612d2d575080806020019051810190612d2c9190614292565b5b5b612d6d576040517f08c379a0000000000000000000000000000000000000000000000000000000008152600401612d6490614e5b565b60405180910390fd5b505050505050565b60606000600167ffffffffffffffff811115612d9457612d936154a2565b5b604051908082528060200260200182016040528015612dc25781602001602082028036833780820191505090505b5090508281600081518110612dda57612dd9615473565b5b60200260200101818152505080915050919050565b600073ffffffffffffffffffffffffffffffffffffffff168473ffffffffffffffffffffffffffffffffffffffff161415612e5f576040517f08c379a0000000000000000000000000000000000000000000000000000000008152600401612e5690614fbb565b60405180910390fd5b6000612e69612078565b90506000612e76856138f0565b90506000612e83856138f0565b9050612e94836000898585896136b0565b8460008088815260200190815260200160002060008973ffffffffffffffffffffffffffffffffffffffff1673ffffffffffffffffffffffffffffffffffffffff1681526020019081526020016000206000828254612ef39190615203565b925050819055508673ffffffffffffffffffffffffffffffffffffffff16600073ffffffffffffffffffffffffffffffffffffffff168473ffffffffffffffffffffffffffffffffffffffff167fc3d58168c5ae7397731d063d5bbf3d657854427343f4c083240f7aacaa2d0f628989604051612f7192919061507f565b60405180910390a4612f88836000898585896136b8565b612f978360008989898961396a565b50505050505050565b600073ffffffffffffffffffffffffffffffffffffffff168373ffffffffffffffffffffffffffffffffffffffff161415613010576040517f08c379a000000000000000000000000000000000000000000000000000000000815260040161300790614ebb565b60405180910390fd5b600061301a612078565b90506000613027846138f0565b90506000613034846138f0565b9050613054838760008585604051806020016040528060008152506136b0565b600080600087815260200190815260200160002060008873ffffffffffffffffffffffffffffffffffffffff1673ffffffffffffffffffffffffffffffffffffffff168152602001908152602001600020549050848110156130eb576040517f08c379a00000000000000000000000000000000000000000000000000000000081526004016130e290614dfb565b60405180910390fd5b84810360008088815260200190815260200160002060008973ffffffffffffffffffffffffffffffffffffffff1673ffffffffffffffffffffffffffffffffffffffff16815260200190815260200160002081905550600073ffffffffffffffffffffffffffffffffffffffff168773ffffffffffffffffffffffffffffffffffffffff168573ffffffffffffffffffffffffffffffffffffffff167fc3d58168c5ae7397731d063d5bbf3d657854427343f4c083240f7aacaa2d0f6289896040516131b892919061507f565b60405180910390a46131de848860008686604051806020016040528060008152506136b8565b50505050505050565b600073ffffffffffffffffffffffffffffffffffffffff168473ffffffffffffffffffffffffffffffffffffffff161415613257576040517f08c379a000000000000000000000000000000000000000000000000000000000815260040161324e90614e9b565b60405180910390fd5b6000613261612078565b9050600061326e856138f0565b9050600061327b856138f0565b905061328b8389898585896136b0565b600080600088815260200190815260200160002060008a73ffffffffffffffffffffffffffffffffffffffff1673ffffffffffffffffffffffffffffffffffffffff16815260200190815260200160002054905085811015613322576040517f08c379a000000000000000000000000000000000000000000000000000000000815260040161331990614edb565b60405180910390fd5b85810360008089815260200190815260200160002060008b73ffffffffffffffffffffffffffffffffffffffff1673ffffffffffffffffffffffffffffffffffffffff168152602001908152602001600020819055508560008089815260200190815260200160002060008a73ffffffffffffffffffffffffffffffffffffffff1673ffffffffffffffffffffffffffffffffffffffff16815260200190815260200160002060008282546133d79190615203565b925050819055508773ffffffffffffffffffffffffffffffffffffffff168973ffffffffffffffffffffffffffffffffffffffff168573ffffffffffffffffffffffffffffffffffffffff167fc3d58168c5ae7397731d063d5bbf3d657854427343f4c083240f7aacaa2d0f628a8a60405161345492919061507f565b60405180910390a461346a848a8a86868a6136b8565b613478848a8a8a8a8a61396a565b505050505050505050565b600073ffffffffffffffffffffffffffffffffffffffff168473ffffffffffffffffffffffffffffffffffffffff1614156134f3576040517f08c379a00000000000000000000000000000000000000000000000000000000081526004016134ea90614fbb565b60405180910390fd5b8151835114613537576040517f08c379a000000000000000000000000000000000000000000000000000000000815260040161352e90614f9b565b60405180910390fd5b6000613541612078565b9050613552816000878787876136b0565b60005b845181101561360b5783818151811061357157613570615473565b5b602002602001015160008087848151811061358f5761358e615473565b5b6020026020010151815260200190815260200160002060008873ffffffffffffffffffffffffffffffffffffffff1673ffffffffffffffffffffffffffffffffffffffff16815260200190815260200160002060008282546135f19190615203565b925050819055508080613603906153cc565b915050613555565b508473ffffffffffffffffffffffffffffffffffffffff16600073ffffffffffffffffffffffffffffffffffffffff168273ffffffffffffffffffffffffffffffffffffffff167f4a39dc06d4c0dbc64b70af90fd698a233a518aa5d07e595d983b8c0526c8f7fb8787604051613683929190614c0c565b60405180910390a461369a816000878787876136b8565b6136a9816000878787876136c0565b5050505050565b505050505050565b505050505050565b6136df8473ffffffffffffffffffffffffffffffffffffffff16613b51565b1561389f578373ffffffffffffffffffffffffffffffffffffffff1663bc197c8187878686866040518663ffffffff1660e01b8152600401613725959493929190614a83565b602060405180830381600087803b15801561373f57600080fd5b505af192505050801561377057506040513d601f19601f8201168201806040525081019061376d91906142ec565b60015b6138165761377c6154d1565b806308c379a014156137d95750613791615b3c565b8061379c57506137db565b806040517f08c379a00000000000000000000000000000000000000000000000000000000081526004016137d09190614c5e565b60405180910390fd5b505b6040517f08c379a000000000000000000000000000000000000000000000000000000000815260040161380d90614d3b565b60405180910390fd5b63bc197c8160e01b7bffffffffffffffffffffffffffffffffffffffffffffffffffffffff1916817bffffffffffffffffffffffffffffffffffffffffffffffffffffffff19161461389d576040517f08c379a000000000000000000000000000000000000000000000000000000000815260040161389490614d7b565b60405180910390fd5b505b505050505050565b6138af610eda565b6138ee576040517f08c379a00000000000000000000000000000000000000000000000000000000081526004016138e590614d9b565b60405180910390fd5b565b60606000600167ffffffffffffffff81111561390f5761390e6154a2565b5b60405190808252806020026020018201604052801561393d5781602001602082028036833780820191505090505b509050828160008151811061395557613954615473565b5b60200260200101818152505080915050919050565b6139898473ffffffffffffffffffffffffffffffffffffffff16613b51565b15613b49578373ffffffffffffffffffffffffffffffffffffffff1663f23a6e6187878686866040518663ffffffff1660e01b81526004016139cf959493929190614b22565b602060405180830381600087803b1580156139e957600080fd5b505af1925050508015613a1a57506040513d601f19601f82011682018060405250810190613a1791906142ec565b60015b613ac057613a266154d1565b806308c379a01415613a835750613a3b615b3c565b80613a465750613a85565b806040517f08c379a0000000000000000000000000000000000000000000000000000000008152600401613a7a9190614c5e565b60405180910390fd5b505b6040517f08c379a0000000000000000000000000000000000000000000000000000000008152600401613ab790614d3b565b60405180910390fd5b63f23a6e6160e01b7bffffffffffffffffffffffffffffffffffffffffffffffffffffffff1916817bffffffffffffffffffffffffffffffffffffffffffffffffffffffff191614613b47576040517f08c379a0000000000000000000000000000000000000000000000000000000008152600401613b3e90614d7b565b60405180910390fd5b505b505050505050565b6000808273ffffffffffffffffffffffffffffffffffffffff163b119050919050565b6000613b87613b82846150cd565b6150a8565b90508083825260208201905082856020860282011115613baa57613ba96154f8565b5b60005b85811015613bda5781613bc08882613d1a565b845260208401935060208301925050600181019050613bad565b5050509392505050565b6000613bf7613bf2846150f9565b6150a8565b90508083825260208201905082856020860282011115613c1a57613c196154f8565b5b60005b85811015613c4a5781613c308882613e7e565b845260208401935060208301925050600181019050613c1d565b5050509392505050565b6000613c67613c6284615125565b6150a8565b905082815260208101848484011115613c8357613c826154fd565b5b613c8e848285615327565b509392505050565b6000613ca9613ca484615156565b6150a8565b905082815260208101848484011115613cc557613cc46154fd565b5b613cd0848285615327565b509392505050565b6000613ceb613ce684615156565b6150a8565b905082815260208101848484011115613d0757613d066154fd565b5b613d12848285615336565b509392505050565b600081359050613d2981615bd2565b92915050565b600081519050613d3e81615bd2565b92915050565b600082601f830112613d5957613d586154f3565b5b8135613d69848260208601613b74565b91505092915050565b600082601f830112613d8757613d866154f3565b5b8135613d97848260208601613be4565b91505092915050565b600081359050613daf81615be9565b92915050565b600081519050613dc481615be9565b92915050565b600081359050613dd981615c00565b92915050565b600081519050613dee81615c00565b92915050565b600082601f830112613e0957613e086154f3565b5b8135613e19848260208601613c54565b91505092915050565b600082601f830112613e3757613e366154f3565b5b8135613e47848260208601613c96565b91505092915050565b600082601f830112613e6557613e646154f3565b5b8151613e75848260208601613cd8565b91505092915050565b600081359050613e8d81615c17565b92915050565b600081519050613ea281615c17565b92915050565b600060208284031215613ebe57613ebd615507565b5b6000613ecc84828501613d1a565b91505092915050565b600060208284031215613eeb57613eea615507565b5b6000613ef984828501613d2f565b91505092915050565b60008060408385031215613f1957613f18615507565b5b6000613f2785828601613d1a565b9250506020613f3885828601613d1a565b9150509250929050565b600080600080600060a08688031215613f5e57613f5d615507565b5b6000613f6c88828901613d1a565b9550506020613f7d88828901613d1a565b945050604086013567ffffffffffffffff811115613f9e57613f9d615502565b5b613faa88828901613d72565b935050606086013567ffffffffffffffff811115613fcb57613fca615502565b5b613fd788828901613d72565b925050608086013567ffffffffffffffff811115613ff857613ff7615502565b5b61400488828901613df4565b9150509295509295909350565b600080600080600060a0868803121561402d5761402c615507565b5b600061403b88828901613d1a565b955050602061404c88828901613d1a565b945050604061405d88828901613e7e565b935050606061406e88828901613e7e565b925050608086013567ffffffffffffffff81111561408f5761408e615502565b5b61409b88828901613df4565b9150509295509295909350565b600080604083850312156140bf576140be615507565b5b60006140cd85828601613d1a565b92505060206140de85828601613da0565b9150509250929050565b600080604083850312156140ff576140fe615507565b5b600061410d85828601613d1a565b925050602061411e85828601613e7e565b9150509250929050565b6000806000806080858703121561414257614141615507565b5b600061415087828801613d1a565b945050602061416187828801613e7e565b935050604061417287828801613d1a565b925050606061418387828801613d1a565b91505092959194509250565b600080604083850312156141a6576141a5615507565b5b600083013567ffffffffffffffff8111156141c4576141c3615502565b5b6141d085828601613d44565b925050602083013567ffffffffffffffff8111156141f1576141f0615502565b5b6141fd85828601613d72565b9150509250929050565b6000806000606084860312156142205761421f615507565b5b600084013567ffffffffffffffff81111561423e5761423d615502565b5b61424a86828701613d72565b935050602084013567ffffffffffffffff81111561426b5761426a615502565b5b61427786828701613d72565b925050604061428886828701613d1a565b9150509250925092565b6000602082840312156142a8576142a7615507565b5b60006142b684828501613db5565b91505092915050565b6000602082840312156142d5576142d4615507565b5b60006142e384828501613dca565b91505092915050565b60006020828403121561430257614301615507565b5b600061431084828501613ddf565b91505092915050565b60006020828403121561432f5761432e615507565b5b600082015167ffffffffffffffff81111561434d5761434c615502565b5b61435984828501613e50565b91505092915050565b6000806000806080858703121561437c5761437b615507565b5b600085015167ffffffffffffffff81111561439a57614399615502565b5b6143a687828801613e50565b94505060206143b787828801613e93565b93505060406143c887828801613e93565b92505060606143d987828801613d2f565b91505092959194509250565b600080600080600060a0868803121561440157614400615507565b5b600086013567ffffffffffffffff81111561441f5761441e615502565b5b61442b88828901613e22565b955050602061443c88828901613e7e565b945050604061444d88828901613e7e565b935050606061445e88828901613d1a565b925050608086013567ffffffffffffffff81111561447f5761447e615502565b5b61448b88828901613e22565b9150509295509295909350565b6000602082840312156144ae576144ad615507565b5b60006144bc84828501613e7e565b91505092915050565b6000602082840312156144db576144da615507565b5b60006144e984828501613e93565b91505092915050565b60008060006060848603121561450b5761450a615507565b5b600061451986828701613e7e565b935050602061452a86828701613e7e565b925050604061453b86828701613d1a565b9150509250925092565b600061455183836149c4565b60208301905092915050565b614566816152b3565b82525050565b600061457782615197565b61458181856151c5565b935061458c83615187565b8060005b838110156145bd5781516145a48882614545565b97506145af836151b8565b925050600181019050614590565b5085935050505092915050565b6145d3816152c5565b82525050565b60006145e4826151a2565b6145ee81856151d6565b93506145fe818560208601615336565b6146078161550c565b840191505092915050565b600061461d826151a2565b61462781856151e7565b9350614637818560208601615336565b80840191505092915050565b600061464e826151ad565b61465881856151f2565b9350614668818560208601615336565b6146718161550c565b840191505092915050565b60006146896034836151f2565b91506146948261552a565b604082019050919050565b60006146ac602f836151f2565b91506146b782615579565b604082019050919050565b60006146cf6028836151f2565b91506146da826155c8565b604082019050919050565b60006146f26014836151f2565b91506146fd82615617565b602082019050919050565b60006147156012836151f2565b915061472082615640565b602082019050919050565b60006147386026836151f2565b915061474382615669565b604082019050919050565b600061475b6024836151f2565b9150614766826156b8565b604082019050919050565b600061477e6018836151f2565b915061478982615707565b602082019050919050565b60006147a1602a836151f2565b91506147ac82615730565b604082019050919050565b60006147c46026836151f2565b91506147cf8261577f565b604082019050919050565b60006147e76010836151f2565b91506147f2826157ce565b602082019050919050565b600061480a6025836151f2565b9150614815826157f7565b604082019050919050565b600061482d6023836151f2565b915061483882615846565b604082019050919050565b6000614850602a836151f2565b915061485b82615895565b604082019050919050565b60006148736020836151f2565b915061487e826158e4565b602082019050919050565b60006148966014836151f2565b91506148a18261590d565b602082019050919050565b60006148b96020836151f2565b91506148c482615936565b602082019050919050565b60006148dc6029836151f2565b91506148e78261595f565b604082019050919050565b60006148ff6029836151f2565b915061490a826159ae565b604082019050919050565b60006149226028836151f2565b915061492d826159fd565b604082019050919050565b60006149456021836151f2565b915061495082615a4c565b604082019050919050565b60006149686027836151f2565b915061497382615a9b565b604082019050919050565b600061498b601d836151f2565b915061499682615aea565b602082019050919050565b60006149ae601a836151f2565b91506149b982615b13565b602082019050919050565b6149cd8161531d565b82525050565b6149dc8161531d565b82525050565b60006149ee8284614612565b915081905092915050565b6000602082019050614a0e600083018461455d565b92915050565b600060c082019050614a29600083018961455d565b614a36602083018861455d565b8181036040830152614a48818761456c565b90508181036060830152614a5c818661456c565b9050614a6b608083018561455d565b614a7860a08301846149d3565b979650505050505050565b600060a082019050614a98600083018861455d565b614aa5602083018761455d565b8181036040830152614ab7818661456c565b90508181036060830152614acb818561456c565b90508181036080830152614adf81846145d9565b90509695505050505050565b6000606082019050614b00600083018661455d565b614b0d602083018561455d565b614b1a60408301846149d3565b949350505050565b600060a082019050614b37600083018861455d565b614b44602083018761455d565b614b5160408301866149d3565b614b5e60608301856149d3565b8181036080830152614b7081846145d9565b90509695505050505050565b6000604082019050614b91600083018561455d565b614b9e60208301846149d3565b9392505050565b6000608082019050614bba600083018761455d565b614bc760208301866149d3565b614bd4604083018561455d565b614be160608301846149d3565b95945050505050565b60006020820190508181036000830152614c04818461456c565b905092915050565b60006040820190508181036000830152614c26818561456c565b90508181036020830152614c3a818461456c565b90509392505050565b6000602082019050614c5860008301846145ca565b92915050565b60006020820190508181036000830152614c788184614643565b905092915050565b60006080820190508181036000830152614c9a8187614643565b9050614ca960208301866149d3565b614cb660408301856149d3565b614cc3606083018461455d565b95945050505050565b600060c0820190508181036000830152614ce68189614643565b9050614cf560208301886149d3565b614d0260408301876149d3565b614d0f606083018661455d565b8181036080830152614d218185614643565b9050614d3060a08301846149d3565b979650505050505050565b60006020820190508181036000830152614d548161467c565b9050919050565b60006020820190508181036000830152614d748161469f565b9050919050565b60006020820190508181036000830152614d94816146c2565b9050919050565b60006020820190508181036000830152614db4816146e5565b9050919050565b60006020820190508181036000830152614dd481614708565b9050919050565b60006020820190508181036000830152614df48161472b565b9050919050565b60006020820190508181036000830152614e148161474e565b9050919050565b60006020820190508181036000830152614e3481614771565b9050919050565b60006020820190508181036000830152614e5481614794565b9050919050565b60006020820190508181036000830152614e74816147b7565b9050919050565b60006020820190508181036000830152614e94816147da565b9050919050565b60006020820190508181036000830152614eb4816147fd565b9050919050565b60006020820190508181036000830152614ed481614820565b9050919050565b60006020820190508181036000830152614ef481614843565b9050919050565b60006020820190508181036000830152614f1481614866565b9050919050565b60006020820190508181036000830152614f3481614889565b9050919050565b60006020820190508181036000830152614f54816148ac565b9050919050565b60006020820190508181036000830152614f74816148cf565b9050919050565b60006020820190508181036000830152614f94816148f2565b9050919050565b60006020820190508181036000830152614fb481614915565b9050919050565b60006020820190508181036000830152614fd481614938565b9050919050565b60006020820190508181036000830152614ff48161495b565b9050919050565b600060208201905081810360008301526150148161497e565b9050919050565b60006020820190508181036000830152615034816149a1565b9050919050565b600060208201905061505060008301846149d3565b92915050565b600060408201905061506b60008301856149d3565b615078602083018461455d565b9392505050565b600060408201905061509460008301856149d3565b6150a160208301846149d3565b9392505050565b60006150b26150c3565b90506150be828261539b565b919050565b6000604051905090565b600067ffffffffffffffff8211156150e8576150e76154a2565b5b602082029050602081019050919050565b600067ffffffffffffffff821115615114576151136154a2565b5b602082029050602081019050919050565b600067ffffffffffffffff8211156151405761513f6154a2565b5b6151498261550c565b9050602081019050919050565b600067ffffffffffffffff821115615171576151706154a2565b5b61517a8261550c565b9050602081019050919050565b6000819050602082019050919050565b600081519050919050565b600081519050919050565b600081519050919050565b6000602082019050919050565b600082825260208201905092915050565b600082825260208201905092915050565b600081905092915050565b600082825260208201905092915050565b600061520e8261531d565b91506152198361531d565b9250827fffffffffffffffffffffffffffffffffffffffffffffffffffffffffffffffff0382111561524e5761524d615415565b5b828201905092915050565b60006152648261531d565b915061526f8361531d565b9250817fffffffffffffffffffffffffffffffffffffffffffffffffffffffffffffffff04831182151516156152a8576152a7615415565b5b828202905092915050565b60006152be826152fd565b9050919050565b60008115159050919050565b60007fffffffff0000000000000000000000000000000000000000000000000000000082169050919050565b600073ffffffffffffffffffffffffffffffffffffffff82169050919050565b6000819050919050565b82818337600083830152505050565b60005b83811015615354578082015181840152602081019050615339565b83811115615363576000848401525b50505050565b6000600282049050600182168061538157607f821691505b6020821081141561539557615394615444565b5b50919050565b6153a48261550c565b810181811067ffffffffffffffff821117156153c3576153c26154a2565b5b80604052505050565b60006153d78261531d565b91507fffffffffffffffffffffffffffffffffffffffffffffffffffffffffffffffff82141561540a57615409615415565b5b600182019050919050565b7f4e487b7100000000000000000000000000000000000000000000000000000000600052601160045260246000fd5b7f4e487b7100000000000000000000000000000000000000000000000000000000600052602260045260246000fd5b7f4e487b7100000000000000000000000000000000000000000000000000000000600052603260045260246000fd5b7f4e487b7100000000000000000000000000000000000000000000000000000000600052604160045260246000fd5b600060033d11156154f05760046000803e6154ed60005161551d565b90505b90565b600080fd5b600080fd5b600080fd5b600080fd5b600080fd5b6000601f19601f8301169050919050565b60008160e01c9050919050565b7f455243313135353a207472616e7366657220746f206e6f6e204552433131353560008201527f526563656976657220696d706c656d656e746572000000000000000000000000602082015250565b7f455243313135353a2063616c6c6572206973206e6f7420746f6b656e206f776e60008201527f6572206e6f7220617070726f7665640000000000000000000000000000000000602082015250565b7f455243313135353a204552433131353552656365697665722072656a6563746560008201527f6420746f6b656e73000000000000000000000000000000000000000000000000602082015250565b7f5061757361626c653a206e6f7420706175736564000000000000000000000000600082015250565b7f45524332303a206e696c20616464726573730000000000000000000000000000600082015250565b7f4f776e61626c653a206e6577206f776e657220697320746865207a65726f206160008201527f6464726573730000000000000000000000000000000000000000000000000000602082015250565b7f455243313135353a206275726e20616d6f756e7420657863656564732062616c60008201527f616e636500000000000000000000000000000000000000000000000000000000602082015250565b7f50424d3a20416c726561647920696e697469616c697365640000000000000000600082015250565b7f455243313135353a2061646472657373207a65726f206973206e6f742061207660008201527f616c6964206f776e657200000000000000000000000000000000000000000000602082015250565b7f45524332303a20496e737566666963656e742062616c616e6365206f7220617060008201527f70726f76616c0000000000000000000000000000000000000000000000000000602082015250565b7f5061757361626c653a2070617573656400000000000000000000000000000000600082015250565b7f455243313135353a207472616e7366657220746f20746865207a65726f20616460008201527f6472657373000000000000000000000000000000000000000000000000000000602082015250565b7f455243313135353a206275726e2066726f6d20746865207a65726f206164647260008201527f6573730000000000000000000000000000000000000000000000000000000000602082015250565b7f455243313135353a20696e73756666696369656e742062616c616e636520666f60008201527f72207472616e7366657200000000000000000000000000000000000000000000602082015250565b7f4f776e61626c653a2063616c6c6572206973206e6f7420746865206f776e6572600082015250565b7f50424d3a206e6f7420696e697469616c69736564000000000000000000000000600082015250565b7f556e657175616c2069647320616e6420616d6f756e747320737570706c696564600082015250565b7f455243313135353a2073657474696e6720617070726f76616c2073746174757360008201527f20666f722073656c660000000000000000000000000000000000000000000000602082015250565b7f455243313135353a206163636f756e747320616e6420696473206c656e67746860008201527f206d69736d617463680000000000000000000000000000000000000000000000602082015250565b7f455243313135353a2069647320616e6420616d6f756e7473206c656e6774682060008201527f6d69736d61746368000000000000000000000000000000000000000000000000602082015250565b7f455243313135353a206d696e7420746f20746865207a65726f2061646472657360008201527f7300000000000000000000000000000000000000000000000000000000000000602082015250565b7f496e746572616374696f6e2077697468207468652073706f7420746f6b656e2060008201527f6661696c65642e00000000000000000000000000000000000000000000000000602082015250565b7f50424d3a2027746f27206164647265737320626c61636b6c6973746564000000600082015250565b7f546f6b656e4d616e61676572206f776e6572206e6f742050424d000000000000600082015250565b600060443d1015615b4c57615bcf565b615b546150c3565b60043d036004823e80513d602482011167ffffffffffffffff82111715615b7c575050615bcf565b808201805167ffffffffffffffff811115615b9a5750505050615bcf565b80602083010160043d038501811115615bb7575050505050615bcf565b615bc68260200185018661539b565b82955050505050505b90565b615bdb816152b3565b8114615be657600080fd5b50565b615bf2816152c5565b8114615bfd57600080fd5b50565b615c09816152d1565b8114615c1457600080fd5b50565b615c208161531d565b8114615c2b57600080fd5b5056fea2646970667358221220486a3f2592162a550bd03c18d060842c4ef99458de2e12527ccfd6d1b9263a6364736f6c63430008070033",
  "immutableReferences": {},
  "source": "// SPDX-License-Identifier: MIT\npragma solidity ^0.8.7;\n\nimport \"@openzeppelin/contracts/token/ERC1155/ERC1155.sol\";\nimport \"@openzeppelin/contracts/access/Ownable.sol\";\nimport \"@openzeppelin/contracts/security/Pausable.sol\";\n\nimport \"./ERC20Helper.sol\";  \nimport \"./PBMTokenManager.sol\";\nimport \"./IPBM.sol\";  \nimport \"./IPBMAddressList.sol\";\n\ncontract PBM is ERC1155, Ownable, Pausable, IPBM {  \n\n    // name, token code as identifiers\n    string public name ; \n    string public code ; \n    \n    // undelrying ERC-20 tokens\n    address public spotToken = address(0); \n    // address of the token manager\n    address public pbmTokenManager = address(0); \n    // address of the PBM-Addresslist\n    address public pbmAddressList = address(0); \n\n    // tracks contract initialisation\n    bool internal initialised = false;\n    // time of expiry ( epoch )\n    uint256 public contractExpiry ; \n\n    constructor(string memory _name, string memory _code) ERC1155(\"\") {\n        name = _name ; \n        code = _code ;\n    }\n\n    /**\n     * @dev See {IPBM-initalise}.\n     *\n     * Requirements:\n     *\n     * - caller must be owner \n     * - contract must not be intialised\n     * - owner of PBMTokenManager should be the PBM (this)\n     */\n    function initialise(address _spotToken, uint256 _expiry, address _pbmAddressList, address _pbmTokenManager)\n    external \n    override\n    onlyOwner\n    {\n        require(!initialised, \"PBM: Already initialised\"); \n        require(IPBMTokenManager(_pbmTokenManager).owner() == address(this), \"TokenManager owner not PBM\"); \n\n        spotToken = _spotToken;\n        contractExpiry = _expiry; \n        pbmAddressList = _pbmAddressList; \n        pbmTokenManager = _pbmTokenManager; \n    }\n\n    /**\n     * @dev See {IPBM-createPBMTokenType}.\n     *\n     * Requirements:\n     *\n     * - caller must be owner \n     * - contract must be expired\n     * - `tokenExpiry` must be less than contract expiry\n     * - `amount` should not be 0\n     * - contract must not be initialised\n     */\n    function createPBMTokenType(string memory companyName, uint256 spotAmount, uint256 tokenExpiry,address creator, string memory tokenURI) \n    external \n    override\n    onlyOwner \n    {        \n        require(initialised, \"PBM: not initialised\"); \n        PBMTokenManager(pbmTokenManager).createTokenType(companyName, spotAmount, tokenExpiry, creator,  tokenURI, contractExpiry);\n    }\n\n    /**\n     * @dev See {IPBM-mint}.\n     *     \n     * IMPT: Before minting, the caller should approve the contract address to spend ERC-20 tokens on behalf of the caller.\n     *       This can be done by calling the `approve` or `increaseMinterAllowance` functions of the ERC-20 contract and specifying `_spender` to be the PBM contract address. \n             Ref : https://eips.ethereum.org/EIPS/eip-20\n     *\n     * Requirements:\n     *\n     * - contract must not be paused\n     * - contract must be initialised\n     * - tokens must not be expired\n     * - `tokenId` should be a valid id that has already been created\n     * - caller should have the necessary amount of the ERC-20 tokens required to mint\n     * - caller should have approved the PBM contract to spend the ERC-20 tokens\n     */\n    function mint(uint256 tokenId, uint256 amount, address receiver) \n    external  \n    override\n    whenNotPaused\n    {\n        require(initialised, \"PBM: not initialised\"); \n        uint256 valueOfNewTokens = amount*(PBMTokenManager(pbmTokenManager).getTokenValue(tokenId)); \n\n        //Transfer the spot token from the user to the contract to wrap it\n        ERC20Helper.safeTransferFrom(spotToken, msg.sender, address(this), valueOfNewTokens);\n\n        // mint the token if the contract - wrapping the xsgd\n        PBMTokenManager(pbmTokenManager).increaseBalanceSupply(serialise(tokenId), serialise(amount)) ; \n        _mint(receiver, tokenId, amount, ''); \n    }\n\n    /**\n     * @dev See {IPBM-batchMint}.\n     *     \n     * IMPT: Before minting, the caller should approve the contract address to spend ERC-20 tokens on behalf of the caller.\n     *       This can be done by calling the `approve` or `increaseMinterAllowance` functions of the ERC-20 contract and specifying `_spender` to be the PBM contract address. \n             Ref : https://eips.ethereum.org/EIPS/eip-20\n     *\n     * Requirements:\n     *\n     * - contract must not be paused\n     * - contract must be initialised\n     * - tokens must not be expired\n     * - `tokenIds` should all be valid ids that have already been created\n     * - `tokenIds` and `amounts` list need to have the same number of values\n     * - caller should have the necessary amount of the ERC-20 tokens required to mint\n     * - caller should have approved the PBM contract to spend the ERC-20 tokens\n     */\n    function batchMint(uint256[] memory tokenIds, uint256[] memory amounts, address receiver) \n    external \n    override\n    whenNotPaused\n    {   \n        require(initialised, \"PBM: not initialised\"); \n        require(tokenIds.length == amounts.length, \"Unequal ids and amounts supplied\"); \n\n        // calculate the value of the new tokens\n        uint256 valueOfNewTokens = 0 ; \n\n        for (uint256 i = 0; i < tokenIds.length; i++) {\n            valueOfNewTokens += (amounts[i]*(PBMTokenManager(pbmTokenManager).getTokenValue(tokenIds[i])));  \n        } \n\n        // Transfer spot tokenf from user to contract to wrap it\n        ERC20Helper.safeTransferFrom(spotToken, msg.sender, address(this), valueOfNewTokens);\n        PBMTokenManager(pbmTokenManager).increaseBalanceSupply(tokenIds, amounts);\n        _mintBatch(receiver, tokenIds, amounts, '');\n    }\n\n    /**\n     * @dev See {IPBM-safeTransferFrom}.\n     *     \n     *\n     * Requirements:\n     *\n     * - contract must not be paused\n     * - contract must be initialised\n     * - tokens must not be expired\n     * - `tokenId` should be a valid ids that has already been created\n     * - caller should have the PBMs that are being transferred (or)\n     *          caller should have the approval to spend the PBMs on behalf of the owner (`from` addresss)\n     */\n    function safeTransferFrom( address from, address to, uint256 id, uint256 amount, bytes memory data) \n    public   \n    override(ERC1155, IPBM)\n    whenNotPaused  \n    {\n        require(initialised, \"PBM: not initialised\"); \n        require(\n            from == _msgSender() || isApprovedForAll(from, _msgSender()),\n            \"ERC1155: caller is not token owner nor approved\"\n        );\n\n        if (IPBMAddressList(pbmAddressList).isMerchant(to)){\n            uint256 valueOfTokens = amount*(PBMTokenManager(pbmTokenManager).getTokenValue(id)); \n\n            // burn and transfer underlying ERC-20\n            _burn(from, id, amount);\n            PBMTokenManager(pbmTokenManager).decreaseBalanceSupply(serialise(id), serialise(amount)) ; \n            ERC20Helper.safeTransfer(spotToken, to, valueOfTokens);\n            emit MerchantPayment(from, to, serialise(id), serialise(amount), spotToken, valueOfTokens);\n\n        } else {\n            require(!IPBMAddressList(pbmAddressList).isBlacklisted(to), \"PBM: 'to' address blacklisted\");\n            _safeTransferFrom(from, to, id, amount, data);\n        }\n \n    }\n\n    /**\n     * @dev See {IPBM-safeBatchTransferFrom}.\n     *     \n     *\n     * Requirements:\n     *\n     * - contract must not be paused\n     * - contract must be initialised\n     * - tokens must not be expired\n     * - `tokenIds` should all be  valid ids that has already been created\n     * - `tokenIds` and `amounts` list need to have the same number of values\n     * - caller should have the PBMs that are being transferred (or)\n     *          caller should have the approval to spend the PBMs on behalf of the owner (`from` addresss)\n     */ \n    function safeBatchTransferFrom(address from,address to,uint256[] memory ids,uint256[] memory amounts, bytes memory data) \n    public  \n    override(ERC1155, IPBM)\n    whenNotPaused \n    {\n        require(initialised, \"PBM: not initialised\"); \n        require(\n            from == _msgSender() || isApprovedForAll(from, _msgSender()),\n            \"ERC1155: caller is not token owner nor approved\"\n        );\n        require(ids.length == amounts.length, \"Unequal ids and amounts supplied\"); \n\n        if (IPBMAddressList(pbmAddressList).isMerchant(to)) {\n            uint256 valueOfTokens = 0 ; \n            for (uint256 i = 0; i < ids.length; i++) {\n                valueOfTokens += (amounts[i]*(PBMTokenManager(pbmTokenManager).getTokenValue(ids[i]))) ; \n            } \n\n            _burnBatch(from, ids, amounts);\n            PBMTokenManager(pbmTokenManager).decreaseBalanceSupply(ids, amounts);\n            ERC20Helper.safeTransfer(spotToken, to, valueOfTokens);\n\n            emit MerchantPayment(from, to, ids, amounts, spotToken, valueOfTokens);\n\n        } else {\n            require(!IPBMAddressList(pbmAddressList).isBlacklisted(to), \"PBM: 'to' address blacklisted\");\n            _safeBatchTransferFrom(from, to, ids, amounts, data);\n        }\n    }\n    \n    /**\n     * @dev See {IPBM-revokePBM}.\n     *\n     * Requirements:\n     *\n     * - contract must be initialised\n     * - `tokenId` should be a valid ids that has already been created\n     * - caller must be the creator of the tokenType \n     * - token must be expired\n     */ \n    function revokePBM(uint256 tokenId) \n    external \n    override\n    whenNotPaused \n    {\n        require(initialised, \"PBM: not initialised\"); \n        uint256 valueOfTokens = PBMTokenManager(pbmTokenManager).getPBMRevokeValue(tokenId);\n\n        PBMTokenManager(pbmTokenManager).revokePBM(tokenId, msg.sender); \n\n        // transfering underlying ERC20 tokens\n        ERC20Helper.safeTransfer(spotToken, msg.sender, valueOfTokens);\n\n        emit PBMrevokeWithdraw(msg.sender, tokenId, spotToken, valueOfTokens);\n\n    }\n    /**\n     * @dev See {IPBM-getTokenDetails}.\n     *\n     */ \n    function getTokenDetails(uint256 tokenId) \n    external \n    view \n    override\n    returns (string memory, uint256, uint256, address) \n    {\n        return PBMTokenManager(pbmTokenManager).getTokenDetails(tokenId); \n    }\n\n    /**\n     * @dev See {IPBM-uri}.\n     *\n     */ \n    function uri(uint256 tokenId)\n    public  \n    view\n    override(ERC1155, IPBM)\n    returns (string memory)\n    {\n        return PBMTokenManager(pbmTokenManager).uri(tokenId);\n    }\n\n    /**\n     * @dev see {Pausable _pause}\n     *\n     * Requirements : \n     * - caller should be owner\n     */\n    function pause() \n    external \n    onlyOwner\n    {\n        _pause();\n    }\n\n    /**\n     * @dev see {Pausable _unpause}\n     *\n     * Requirements : \n     * - caller should be owner\n     */\n    function unpause()\n    external \n    onlyOwner\n    {\n        _unpause();\n    }\n\n    function serialise(uint256 num)\n    internal \n    pure\n    returns (uint256[] memory) {\n        uint256[] memory array  = new uint256[](1) ; \n        array[0] = num ; \n        return array ;\n    }\n}",
  "sourcePath": "/Users/mihir/Desktop/code/Orchid-PBM/contracts/PBM.sol",
  "compiler": {
    "name": "solc",
    "version": "0.8.7+commit.e28d00a7.Emscripten.clang"
  },
  "schemaVersion": "3.4.3",
  "updatedAt": "2022-10-11T06:31:04.271Z",
  "devdoc": {
    "kind": "dev",
    "methods": {
      "balanceOf(address,uint256)": {
        "details": "See {IERC1155-balanceOf}. Requirements: - `account` cannot be the zero address."
      },
      "balanceOfBatch(address[],uint256[])": {
        "details": "See {IERC1155-balanceOfBatch}. Requirements: - `accounts` and `ids` must have the same length."
      },
      "batchMint(uint256[],uint256[],address)": {
        "details": "See {IPBM-batchMint}.      IMPT: Before minting, the caller should approve the contract address to spend ERC-20 tokens on behalf of the caller.       This can be done by calling the `approve` or `increaseMinterAllowance` functions of the ERC-20 contract and specifying `_spender` to be the PBM contract address.  Ref : https://eips.ethereum.org/EIPS/eip-20 Requirements: - contract must not be paused - contract must be initialised - tokens must not be expired - `tokenIds` should all be valid ids that have already been created - `tokenIds` and `amounts` list need to have the same number of values - caller should have the necessary amount of the ERC-20 tokens required to mint - caller should have approved the PBM contract to spend the ERC-20 tokens"
      },
      "createPBMTokenType(string,uint256,uint256,address,string)": {
        "details": "See {IPBM-createPBMTokenType}. Requirements: - caller must be owner  - contract must be expired - `tokenExpiry` must be less than contract expiry - `amount` should not be 0 - contract must not be initialised"
      },
      "getTokenDetails(uint256)": {
        "details": "See {IPBM-getTokenDetails}."
      },
      "initialise(address,uint256,address,address)": {
        "details": "See {IPBM-initalise}. Requirements: - caller must be owner  - contract must not be intialised - owner of PBMTokenManager should be the PBM (this)"
      },
      "isApprovedForAll(address,address)": {
        "details": "See {IERC1155-isApprovedForAll}."
      },
      "mint(uint256,uint256,address)": {
        "details": "See {IPBM-mint}.      IMPT: Before minting, the caller should approve the contract address to spend ERC-20 tokens on behalf of the caller.       This can be done by calling the `approve` or `increaseMinterAllowance` functions of the ERC-20 contract and specifying `_spender` to be the PBM contract address.  Ref : https://eips.ethereum.org/EIPS/eip-20 Requirements: - contract must not be paused - contract must be initialised - tokens must not be expired - `tokenId` should be a valid id that has already been created - caller should have the necessary amount of the ERC-20 tokens required to mint - caller should have approved the PBM contract to spend the ERC-20 tokens"
      },
      "owner()": {
        "details": "Returns the address of the current owner."
      },
      "pause()": {
        "details": "see {Pausable _pause} Requirements :  - caller should be owner"
      },
      "paused()": {
        "details": "Returns true if the contract is paused, and false otherwise."
      },
      "renounceOwnership()": {
        "details": "Leaves the contract without owner. It will not be possible to call `onlyOwner` functions anymore. Can only be called by the current owner. NOTE: Renouncing ownership will leave the contract without an owner, thereby removing any functionality that is only available to the owner."
      },
      "revokePBM(uint256)": {
        "details": "See {IPBM-revokePBM}. Requirements: - contract must be initialised - `tokenId` should be a valid ids that has already been created - caller must be the creator of the tokenType  - token must be expired"
      },
      "safeBatchTransferFrom(address,address,uint256[],uint256[],bytes)": {
        "details": "See {IPBM-safeBatchTransferFrom}.      Requirements: - contract must not be paused - contract must be initialised - tokens must not be expired - `tokenIds` should all be  valid ids that has already been created - `tokenIds` and `amounts` list need to have the same number of values - caller should have the PBMs that are being transferred (or)          caller should have the approval to spend the PBMs on behalf of the owner (`from` addresss)"
      },
      "safeTransferFrom(address,address,uint256,uint256,bytes)": {
        "details": "See {IPBM-safeTransferFrom}.      Requirements: - contract must not be paused - contract must be initialised - tokens must not be expired - `tokenId` should be a valid ids that has already been created - caller should have the PBMs that are being transferred (or)          caller should have the approval to spend the PBMs on behalf of the owner (`from` addresss)"
      },
      "setApprovalForAll(address,bool)": {
        "details": "See {IERC1155-setApprovalForAll}."
      },
      "supportsInterface(bytes4)": {
        "details": "See {IERC165-supportsInterface}."
      },
      "transferOwnership(address)": {
        "details": "Transfers ownership of the contract to a new account (`newOwner`). Can only be called by the current owner."
      },
      "unpause()": {
        "details": "see {Pausable _unpause} Requirements :  - caller should be owner"
      },
      "uri(uint256)": {
        "details": "See {IPBM-uri}."
      }
    },
    "version": 1
  },
  "userdoc": {
    "events": {
      "MerchantPayment(address,address,uint256[],uint256[],address,uint256)": {
        "notice": "Emitted when underlying ERC-20 tokens are transferred to a whitelisted merchant ( payment )"
      },
      "PBMrevokeWithdraw(address,uint256,address,uint256)": {
        "notice": "Emitted when a PBM type creator withdraws the underlying ERC-20 tokens from all the remaining expired PBMs"
      }
    },
    "kind": "user",
    "methods": {},
    "version": 1
  }
}