{
  "contractName": "PBMAddressList",
  "abi": [
    {
      "anonymous": false,
      "inputs": [
        {
          "indexed": false,
          "internalType": "string",
          "name": "action",
          "type": "string"
        },
        {
          "indexed": false,
          "internalType": "address[]",
          "name": "addresses",
          "type": "address[]"
        },
        {
          "indexed": false,
          "internalType": "string",
          "name": "metadata",
          "type": "string"
        }
      ],
      "name": "Blackist",
      "type": "event"
    },
    {
      "anonymous": false,
      "inputs": [
        {
          "indexed": false,
          "internalType": "string",
          "name": "action",
          "type": "string"
        },
        {
          "indexed": false,
          "internalType": "address[]",
          "name": "addresses",
          "type": "address[]"
        },
        {
          "indexed": false,
          "internalType": "string",
          "name": "metadata",
          "type": "string"
        }
      ],
      "name": "MerchantList",
      "type": "event"
    },
    {
      "anonymous": false,
      "inputs": [
        {
          "indexed": true,
          "internalType": "address",
          "name": "previousOwner",
          "type": "address"
        },
        {
          "indexed": true,
          "internalType": "address",
          "name": "newOwner",
          "type": "address"
        }
      ],
      "name": "OwnershipTransferred",
      "type": "event"
    },
    {
      "inputs": [],
      "name": "owner",
      "outputs": [
        {
          "internalType": "address",
          "name": "",
          "type": "address"
        }
      ],
      "stateMutability": "view",
      "type": "function"
    },
    {
      "inputs": [],
      "name": "renounceOwnership",
      "outputs": [],
      "stateMutability": "nonpayable",
      "type": "function"
    },
    {
      "inputs": [
        {
          "internalType": "address",
          "name": "newOwner",
          "type": "address"
        }
      ],
      "name": "transferOwnership",
      "outputs": [],
      "stateMutability": "nonpayable",
      "type": "function"
    },
    {
      "inputs": [
        {
          "internalType": "address[]",
          "name": "addresses",
          "type": "address[]"
        },
        {
          "internalType": "string",
          "name": "metadata",
          "type": "string"
        }
      ],
      "name": "blacklistAddresses",
      "outputs": [],
      "stateMutability": "nonpayable",
      "type": "function"
    },
    {
      "inputs": [
        {
          "internalType": "address[]",
          "name": "addresses",
          "type": "address[]"
        },
        {
          "internalType": "string",
          "name": "metadata",
          "type": "string"
        }
      ],
      "name": "unBlacklistAddresses",
      "outputs": [],
      "stateMutability": "nonpayable",
      "type": "function"
    },
    {
      "inputs": [
        {
          "internalType": "address",
          "name": "_address",
          "type": "address"
        }
      ],
      "name": "isBlacklisted",
      "outputs": [
        {
          "internalType": "bool",
          "name": "",
          "type": "bool"
        }
      ],
      "stateMutability": "view",
      "type": "function"
    },
    {
      "inputs": [
        {
          "internalType": "address[]",
          "name": "addresses",
          "type": "address[]"
        },
        {
          "internalType": "string",
          "name": "metadata",
          "type": "string"
        }
      ],
      "name": "addMerchantAddresses",
      "outputs": [],
      "stateMutability": "nonpayable",
      "type": "function"
    },
    {
      "inputs": [
        {
          "internalType": "address[]",
          "name": "addresses",
          "type": "address[]"
        },
        {
          "internalType": "string",
          "name": "metadata",
          "type": "string"
        }
      ],
      "name": "removeMerchantAddresses",
      "outputs": [],
      "stateMutability": "nonpayable",
      "type": "function"
    },
    {
      "inputs": [
        {
          "internalType": "address",
          "name": "_address",
          "type": "address"
        }
      ],
      "name": "isMerchant",
      "outputs": [
        {
          "internalType": "bool",
          "name": "",
          "type": "bool"
        }
      ],
      "stateMutability": "view",
      "type": "function"
    }
  ],
  "bytecode": "0x608060405234801561001057600080fd5b5061002d61002261003260201b60201c565b61003a60201b60201c565b6100fe565b600033905090565b60008060009054906101000a900473ffffffffffffffffffffffffffffffffffffffff169050816000806101000a81548173ffffffffffffffffffffffffffffffffffffffff021916908373ffffffffffffffffffffffffffffffffffffffff1602179055508173ffffffffffffffffffffffffffffffffffffffff168173ffffffffffffffffffffffffffffffffffffffff167f8be0079c531659141344cd1fd0a4f28419497f9722a3daafe3b4186f6b6457e060405160405180910390a35050565b610fa18061010d6000396000f3fe608060405234801561001057600080fd5b50600436106100935760003560e01c80638da5cb5b116100665780638da5cb5b1461010a5780639e662bf214610128578063d99940e614610144578063f2fde38b14610160578063fe575a871461017c57610093565b8063194ef60b146100985780631a2f7167146100b4578063380518e9146100e4578063715018a614610100575b600080fd5b6100b260048036038101906100ad919061090e565b6101ac565b005b6100ce60048036038101906100c991906108e1565b610283565b6040516100db9190610b09565b60405180910390f35b6100fe60048036038101906100f9919061090e565b6102d9565b005b6101086103b0565b005b6101126103c4565b60405161011f9190610aee565b60405180910390f35b610142600480360381019061013d919061090e565b6103ed565b005b61015e6004803603810190610159919061090e565b6104c3565b005b61017a600480360381019061017591906108e1565b61059a565b005b610196600480360381019061019191906108e1565b61061e565b6040516101a39190610b09565b60405180910390f35b6101b4610674565b60005b8251811015610245576001600260008584815181106101d9576101d8610e02565b5b602002602001015173ffffffffffffffffffffffffffffffffffffffff1673ffffffffffffffffffffffffffffffffffffffff16815260200190815260200160002060006101000a81548160ff021916908315150217905550808061023d90610d8a565b9150506101b7565b507fff664f40077a8366ec7f3b10f2e89380936c7ecfd299c6bb0b3a83dc409b52558282604051610277929190610b44565b60405180910390a15050565b6000600160008373ffffffffffffffffffffffffffffffffffffffff1673ffffffffffffffffffffffffffffffffffffffff16815260200190815260200160002060009054906101000a900460ff169050919050565b6102e1610674565b60005b82518110156103725760006002600085848151811061030657610305610e02565b5b602002602001015173ffffffffffffffffffffffffffffffffffffffff1673ffffffffffffffffffffffffffffffffffffffff16815260200190815260200160002060006101000a81548160ff021916908315150217905550808061036a90610d8a565b9150506102e4565b507fff664f40077a8366ec7f3b10f2e89380936c7ecfd299c6bb0b3a83dc409b525582826040516103a4929190610b8e565b60405180910390a15050565b6103b8610674565b6103c260006106f2565b565b60008060009054906101000a900473ffffffffffffffffffffffffffffffffffffffff16905090565b6103f5610674565b60005b825181101561048557600180600085848151811061041957610418610e02565b5b602002602001015173ffffffffffffffffffffffffffffffffffffffff1673ffffffffffffffffffffffffffffffffffffffff16815260200190815260200160002060006101000a81548160ff021916908315150217905550808061047d90610d8a565b9150506103f8565b507f255c7bb3f43b415fcde5cc3fd6b38794d983721f30b0a924ab3db736c38c457382826040516104b7929190610b44565b60405180910390a15050565b6104cb610674565b60005b825181101561055c576000600160008584815181106104f0576104ef610e02565b5b602002602001015173ffffffffffffffffffffffffffffffffffffffff1673ffffffffffffffffffffffffffffffffffffffff16815260200190815260200160002060006101000a81548160ff021916908315150217905550808061055490610d8a565b9150506104ce565b507f255c7bb3f43b415fcde5cc3fd6b38794d983721f30b0a924ab3db736c38c4573828260405161058e929190610b8e565b60405180910390a15050565b6105a2610674565b600073ffffffffffffffffffffffffffffffffffffffff168173ffffffffffffffffffffffffffffffffffffffff161415610612576040517f08c379a000000000000000000000000000000000000000000000000000000000815260040161060990610b24565b60405180910390fd5b61061b816106f2565b50565b6000600260008373ffffffffffffffffffffffffffffffffffffffff1673ffffffffffffffffffffffffffffffffffffffff16815260200190815260200160002060009054906101000a900460ff169050919050565b61067c6107b6565b73ffffffffffffffffffffffffffffffffffffffff1661069a6103c4565b73ffffffffffffffffffffffffffffffffffffffff16146106f0576040517f08c379a00000000000000000000000000000000000000000000000000000000081526004016106e790610bd8565b60405180910390fd5b565b60008060009054906101000a900473ffffffffffffffffffffffffffffffffffffffff169050816000806101000a81548173ffffffffffffffffffffffffffffffffffffffff021916908373ffffffffffffffffffffffffffffffffffffffff1602179055508173ffffffffffffffffffffffffffffffffffffffff168173ffffffffffffffffffffffffffffffffffffffff167f8be0079c531659141344cd1fd0a4f28419497f9722a3daafe3b4186f6b6457e060405160405180910390a35050565b600033905090565b60006107d16107cc84610c1d565b610bf8565b905080838252602082019050828560208602820111156107f4576107f3610e65565b5b60005b85811015610824578161080a8882610870565b8452602084019350602083019250506001810190506107f7565b5050509392505050565b600061084161083c84610c49565b610bf8565b90508281526020810184848401111561085d5761085c610e6a565b5b610868848285610d17565b509392505050565b60008135905061087f81610f54565b92915050565b600082601f83011261089a57610899610e60565b5b81356108aa8482602086016107be565b91505092915050565b600082601f8301126108c8576108c7610e60565b5b81356108d884826020860161082e565b91505092915050565b6000602082840312156108f7576108f6610e74565b5b600061090584828501610870565b91505092915050565b6000806040838503121561092557610924610e74565b5b600083013567ffffffffffffffff81111561094357610942610e6f565b5b61094f85828601610885565b925050602083013567ffffffffffffffff8111156109705761096f610e6f565b5b61097c858286016108b3565b9150509250929050565b6000610992838361099e565b60208301905092915050565b6109a781610ccf565b82525050565b6109b681610ccf565b82525050565b60006109c782610c8a565b6109d18185610cad565b93506109dc83610c7a565b8060005b83811015610a0d5781516109f48882610986565b97506109ff83610ca0565b9250506001810190506109e0565b5085935050505092915050565b610a2381610ce1565b82525050565b6000610a3482610c95565b610a3e8185610cbe565b9350610a4e818560208601610d26565b610a5781610e79565b840191505092915050565b6000610a6f602683610cbe565b9150610a7a82610e8a565b604082019050919050565b6000610a92600383610cbe565b9150610a9d82610ed9565b602082019050919050565b6000610ab5600683610cbe565b9150610ac082610f02565b602082019050919050565b6000610ad8602083610cbe565b9150610ae382610f2b565b602082019050919050565b6000602082019050610b0360008301846109ad565b92915050565b6000602082019050610b1e6000830184610a1a565b92915050565b60006020820190508181036000830152610b3d81610a62565b9050919050565b60006060820190508181036000830152610b5d81610a85565b90508181036020830152610b7181856109bc565b90508181036040830152610b858184610a29565b90509392505050565b60006060820190508181036000830152610ba781610aa8565b90508181036020830152610bbb81856109bc565b90508181036040830152610bcf8184610a29565b90509392505050565b60006020820190508181036000830152610bf181610acb565b9050919050565b6000610c02610c13565b9050610c0e8282610d59565b919050565b6000604051905090565b600067ffffffffffffffff821115610c3857610c37610e31565b5b602082029050602081019050919050565b600067ffffffffffffffff821115610c6457610c63610e31565b5b610c6d82610e79565b9050602081019050919050565b6000819050602082019050919050565b600081519050919050565b600081519050919050565b6000602082019050919050565b600082825260208201905092915050565b600082825260208201905092915050565b6000610cda82610ced565b9050919050565b60008115159050919050565b600073ffffffffffffffffffffffffffffffffffffffff82169050919050565b6000819050919050565b82818337600083830152505050565b60005b83811015610d44578082015181840152602081019050610d29565b83811115610d53576000848401525b50505050565b610d6282610e79565b810181811067ffffffffffffffff82111715610d8157610d80610e31565b5b80604052505050565b6000610d9582610d0d565b91507fffffffffffffffffffffffffffffffffffffffffffffffffffffffffffffffff821415610dc857610dc7610dd3565b5b600182019050919050565b7f4e487b7100000000000000000000000000000000000000000000000000000000600052601160045260246000fd5b7f4e487b7100000000000000000000000000000000000000000000000000000000600052603260045260246000fd5b7f4e487b7100000000000000000000000000000000000000000000000000000000600052604160045260246000fd5b600080fd5b600080fd5b600080fd5b600080fd5b600080fd5b6000601f19601f8301169050919050565b7f4f776e61626c653a206e6577206f776e657220697320746865207a65726f206160008201527f6464726573730000000000000000000000000000000000000000000000000000602082015250565b7f6164640000000000000000000000000000000000000000000000000000000000600082015250565b7f72656d6f76650000000000000000000000000000000000000000000000000000600082015250565b7f4f776e61626c653a2063616c6c6572206973206e6f7420746865206f776e6572600082015250565b610f5d81610ccf565b8114610f6857600080fd5b5056fea26469706673582212203e0e05e7299a7f8333a5f938674cd171c22306b2d5c3fceea7f12872ece386ae64736f6c63430008070033",
  "immutableReferences": {},
  "source": "// SPDX-License-Identifier: MIT\npragma solidity ^0.8.0; \n\nimport \"@openzeppelin/contracts/access/Ownable.sol\";\n\nimport \"./IPBMAddressList.sol\";\n\ncontract PBMAddressList is Ownable, IPBMAddressList {\n\n    // list of merchants who are able to receive the underlying ERC-20 tokens\n    mapping (address => bool) internal merchantList ; \n    // list of merchants who are unable to receive the PBM tokens\n    mapping (address => bool) internal blacklistedAddresses ; \n\n    /**\n     * @dev See {IPBMAddressList-blacklistAddresses}.\n     *\n     * Requirements:\n     *\n     * - caller must be owner \n     */\n    function blacklistAddresses(address[] memory addresses, string memory metadata) \n    external\n    override\n    onlyOwner\n    {\n        for (uint256 i = 0; i < addresses.length; i++) {\n            blacklistedAddresses[addresses[i]] = true;\n        }\n        emit Blackist(\"add\", addresses, metadata); \n    }  \n\n    /**\n     * @dev See {IPBMAddressList-unBlacklistAddresses}.\n     *\n     * Requirements:\n     *\n     * - caller must be owner \n     */\n    function unBlacklistAddresses(address[] memory addresses, string memory metadata) \n    external \n    override\n    onlyOwner\n    {\n        for (uint256 i = 0; i < addresses.length; i++) {\n            blacklistedAddresses[addresses[i]] = false;\n        } \n        emit Blackist(\"remove\", addresses, metadata); \n    }\n\n    /**\n     * @dev See {IPBMAddressList-isBlacklisted}.\n     *\n     */\n    function isBlacklisted(address _address)\n    external \n    override\n    view \n    returns (bool)\n    {\n        return blacklistedAddresses[_address];  \n    }\n\n    /**\n     * @dev See {IPBMAddressList-addMerchantAddresses}.\n     *\n     * Requirements:\n     *\n     * - caller must be owner \n     */\n    function addMerchantAddresses(address[] memory addresses, string memory metadata) \n    external\n    override\n    onlyOwner\n    {\n        for (uint256 i = 0; i < addresses.length; i++) {\n            merchantList[addresses[i]] = true;\n        }\n        emit MerchantList(\"add\", addresses, metadata); \n    }  \n\n    /**\n     * @dev See {IPBMAddressList-removeMerchantAddresses}.\n     *\n     * Requirements:\n     *\n     * - caller must be owner \n     */\n    function removeMerchantAddresses(address[] memory addresses, string memory metadata) \n    external \n    override\n    onlyOwner\n    {\n        for (uint256 i = 0; i < addresses.length; i++) {\n            merchantList[addresses[i]] = false;\n        } \n        emit MerchantList(\"remove\", addresses, metadata); \n    }\n\n    /** \n     * @dev See {IPBMAddressList-isMerchant}.\n     *\n     */\n    function isMerchant(address _address)\n    external \n    override\n    view \n    returns (bool)\n    {\n        return merchantList[_address];  \n    }\n\n}\n",
  "sourcePath": "/Users/mihir/Desktop/code/Orchid-PBM/contracts/PBMAddressList.sol",
  "compiler": {
    "name": "solc",
    "version": "0.8.7+commit.e28d00a7.Emscripten.clang"
  },
  "schemaVersion": "3.4.3",
  "updatedAt": "2022-10-25T08:22:40.067Z",
  "devdoc": {
    "kind": "dev",
    "methods": {
      "addMerchantAddresses(address[],string)": {
        "details": "See {IPBMAddressList-addMerchantAddresses}. Requirements: - caller must be owner "
      },
      "blacklistAddresses(address[],string)": {
        "details": "See {IPBMAddressList-blacklistAddresses}. Requirements: - caller must be owner "
      },
      "isBlacklisted(address)": {
        "details": "See {IPBMAddressList-isBlacklisted}."
      },
      "isMerchant(address)": {
        "details": "See {IPBMAddressList-isMerchant}."
      },
      "owner()": {
        "details": "Returns the address of the current owner."
      },
      "removeMerchantAddresses(address[],string)": {
        "details": "See {IPBMAddressList-removeMerchantAddresses}. Requirements: - caller must be owner "
      },
      "renounceOwnership()": {
        "details": "Leaves the contract without owner. It will not be possible to call `onlyOwner` functions anymore. Can only be called by the current owner. NOTE: Renouncing ownership will leave the contract without an owner, thereby removing any functionality that is only available to the owner."
      },
      "transferOwnership(address)": {
        "details": "Transfers ownership of the contract to a new account (`newOwner`). Can only be called by the current owner."
      },
      "unBlacklistAddresses(address[],string)": {
        "details": "See {IPBMAddressList-unBlacklistAddresses}. Requirements: - caller must be owner "
      }
    },
    "version": 1
  },
  "userdoc": {
    "events": {
      "Blackist(string,address[],string)": {
        "notice": "Event emitted when the Blacklist is edited"
      },
      "MerchantList(string,address[],string)": {
        "notice": "Event emitted when the Merchant List is edited"
      }
    },
    "kind": "user",
    "methods": {},
    "version": 1
  }
}