{
  "contractName": "PBMAddressList",
  "abi": [
    {
      "anonymous": false,
      "inputs": [
        {
          "indexed": true,
          "internalType": "address",
          "name": "previousOwner",
          "type": "address"
        },
        {
          "indexed": true,
          "internalType": "address",
          "name": "newOwner",
          "type": "address"
        }
      ],
      "name": "OwnershipTransferred",
      "type": "event"
    },
    {
      "inputs": [],
      "name": "owner",
      "outputs": [
        {
          "internalType": "address",
          "name": "",
          "type": "address"
        }
      ],
      "stateMutability": "view",
      "type": "function",
      "constant": true
    },
    {
      "inputs": [],
      "name": "renounceOwnership",
      "outputs": [],
      "stateMutability": "nonpayable",
      "type": "function"
    },
    {
      "inputs": [
        {
          "internalType": "address",
          "name": "newOwner",
          "type": "address"
        }
      ],
      "name": "transferOwnership",
      "outputs": [],
      "stateMutability": "nonpayable",
      "type": "function"
    },
    {
      "inputs": [
        {
          "internalType": "address[]",
          "name": "addresses",
          "type": "address[]"
        }
      ],
      "name": "blacklistAddresses",
      "outputs": [],
      "stateMutability": "nonpayable",
      "type": "function"
    },
    {
      "inputs": [
        {
          "internalType": "address[]",
          "name": "addresses",
          "type": "address[]"
        }
      ],
      "name": "unBlacklistAddresses",
      "outputs": [],
      "stateMutability": "nonpayable",
      "type": "function"
    },
    {
      "inputs": [
        {
          "internalType": "address",
          "name": "_address",
          "type": "address"
        }
      ],
      "name": "isBlacklisted",
      "outputs": [
        {
          "internalType": "bool",
          "name": "",
          "type": "bool"
        }
      ],
      "stateMutability": "view",
      "type": "function",
      "constant": true
    },
    {
      "inputs": [
        {
          "internalType": "address[]",
          "name": "addresses",
          "type": "address[]"
        }
      ],
      "name": "addMerchantAddresses",
      "outputs": [],
      "stateMutability": "nonpayable",
      "type": "function"
    },
    {
      "inputs": [
        {
          "internalType": "address[]",
          "name": "addresses",
          "type": "address[]"
        }
      ],
      "name": "removeMerchantAddresses",
      "outputs": [],
      "stateMutability": "nonpayable",
      "type": "function"
    },
    {
      "inputs": [
        {
          "internalType": "address",
          "name": "_address",
          "type": "address"
        }
      ],
      "name": "isMerchant",
      "outputs": [
        {
          "internalType": "bool",
          "name": "",
          "type": "bool"
        }
      ],
      "stateMutability": "view",
      "type": "function",
      "constant": true
    }
  ],
  "bytecode": "0x608060405234801561001057600080fd5b5061002d61002261003260201b60201c565b61003a60201b60201c565b6100fe565b600033905090565b60008060009054906101000a900473ffffffffffffffffffffffffffffffffffffffff169050816000806101000a81548173ffffffffffffffffffffffffffffffffffffffff021916908373ffffffffffffffffffffffffffffffffffffffff1602179055508173ffffffffffffffffffffffffffffffffffffffff168173ffffffffffffffffffffffffffffffffffffffff167f8be0079c531659141344cd1fd0a4f28419497f9722a3daafe3b4186f6b6457e060405160405180910390a35050565b610b748061010d6000396000f3fe608060405234801561001057600080fd5b50600436106100935760003560e01c806377a54eb81161006657806377a54eb81461010a5780638da5cb5b14610126578063e10adc1614610144578063f2fde38b14610160578063fe575a871461017c57610093565b80631a2f7167146100985780632a58e9ff146100c857806330a5d1c0146100e4578063715018a614610100575b600080fd5b6100b260048036038101906100ad9190610789565b6101ac565b6040516100bf919061087e565b60405180910390f35b6100e260048036038101906100dd91906107b6565b610202565b005b6100fe60048036038101906100f991906107b6565b61029f565b005b61010861033c565b005b610124600480360381019061011f91906107b6565b610350565b005b61012e6103ed565b60405161013b9190610863565b60405180910390f35b61015e600480360381019061015991906107b6565b610416565b005b61017a60048036038101906101759190610789565b6104b2565b005b61019660048036038101906101919190610789565b610536565b6040516101a3919061087e565b60405180910390f35b6000600160008373ffffffffffffffffffffffffffffffffffffffff1673ffffffffffffffffffffffffffffffffffffffff16815260200190815260200160002060009054906101000a900460ff169050919050565b61020a61058c565b60005b815181101561029b5760006002600084848151811061022f5761022e610a2c565b5b602002602001015173ffffffffffffffffffffffffffffffffffffffff1673ffffffffffffffffffffffffffffffffffffffff16815260200190815260200160002060006101000a81548160ff0219169083151502179055508080610293906109b4565b91505061020d565b5050565b6102a761058c565b60005b8151811015610338576000600160008484815181106102cc576102cb610a2c565b5b602002602001015173ffffffffffffffffffffffffffffffffffffffff1673ffffffffffffffffffffffffffffffffffffffff16815260200190815260200160002060006101000a81548160ff0219169083151502179055508080610330906109b4565b9150506102aa565b5050565b61034461058c565b61034e600061060a565b565b61035861058c565b60005b81518110156103e95760016002600084848151811061037d5761037c610a2c565b5b602002602001015173ffffffffffffffffffffffffffffffffffffffff1673ffffffffffffffffffffffffffffffffffffffff16815260200190815260200160002060006101000a81548160ff02191690831515021790555080806103e1906109b4565b91505061035b565b5050565b60008060009054906101000a900473ffffffffffffffffffffffffffffffffffffffff16905090565b61041e61058c565b60005b81518110156104ae57600180600084848151811061044257610441610a2c565b5b602002602001015173ffffffffffffffffffffffffffffffffffffffff1673ffffffffffffffffffffffffffffffffffffffff16815260200190815260200160002060006101000a81548160ff02191690831515021790555080806104a6906109b4565b915050610421565b5050565b6104ba61058c565b600073ffffffffffffffffffffffffffffffffffffffff168173ffffffffffffffffffffffffffffffffffffffff16141561052a576040517f08c379a000000000000000000000000000000000000000000000000000000000815260040161052190610899565b60405180910390fd5b6105338161060a565b50565b6000600260008373ffffffffffffffffffffffffffffffffffffffff1673ffffffffffffffffffffffffffffffffffffffff16815260200190815260200160002060009054906101000a900460ff169050919050565b6105946106ce565b73ffffffffffffffffffffffffffffffffffffffff166105b26103ed565b73ffffffffffffffffffffffffffffffffffffffff1614610608576040517f08c379a00000000000000000000000000000000000000000000000000000000081526004016105ff906108b9565b60405180910390fd5b565b60008060009054906101000a900473ffffffffffffffffffffffffffffffffffffffff169050816000806101000a81548173ffffffffffffffffffffffffffffffffffffffff021916908373ffffffffffffffffffffffffffffffffffffffff1602179055508173ffffffffffffffffffffffffffffffffffffffff168173ffffffffffffffffffffffffffffffffffffffff167f8be0079c531659141344cd1fd0a4f28419497f9722a3daafe3b4186f6b6457e060405160405180910390a35050565b600033905090565b60006106e96106e4846108fe565b6108d9565b9050808382526020820190508285602086028201111561070c5761070b610a8f565b5b60005b8581101561073c57816107228882610746565b84526020840193506020830192505060018101905061070f565b5050509392505050565b60008135905061075581610b27565b92915050565b600082601f8301126107705761076f610a8a565b5b81356107808482602086016106d6565b91505092915050565b60006020828403121561079f5761079e610a99565b5b60006107ad84828501610746565b91505092915050565b6000602082840312156107cc576107cb610a99565b5b600082013567ffffffffffffffff8111156107ea576107e9610a94565b5b6107f68482850161075b565b91505092915050565b6108088161093b565b82525050565b6108178161094d565b82525050565b600061082a60268361092a565b915061083582610aaf565b604082019050919050565b600061084d60208361092a565b915061085882610afe565b602082019050919050565b600060208201905061087860008301846107ff565b92915050565b6000602082019050610893600083018461080e565b92915050565b600060208201905081810360008301526108b28161081d565b9050919050565b600060208201905081810360008301526108d281610840565b9050919050565b60006108e36108f4565b90506108ef8282610983565b919050565b6000604051905090565b600067ffffffffffffffff82111561091957610918610a5b565b5b602082029050602081019050919050565b600082825260208201905092915050565b600061094682610959565b9050919050565b60008115159050919050565b600073ffffffffffffffffffffffffffffffffffffffff82169050919050565b6000819050919050565b61098c82610a9e565b810181811067ffffffffffffffff821117156109ab576109aa610a5b565b5b80604052505050565b60006109bf82610979565b91507fffffffffffffffffffffffffffffffffffffffffffffffffffffffffffffffff8214156109f2576109f16109fd565b5b600182019050919050565b7f4e487b7100000000000000000000000000000000000000000000000000000000600052601160045260246000fd5b7f4e487b7100000000000000000000000000000000000000000000000000000000600052603260045260246000fd5b7f4e487b7100000000000000000000000000000000000000000000000000000000600052604160045260246000fd5b600080fd5b600080fd5b600080fd5b600080fd5b6000601f19601f8301169050919050565b7f4f776e61626c653a206e6577206f776e657220697320746865207a65726f206160008201527f6464726573730000000000000000000000000000000000000000000000000000602082015250565b7f4f776e61626c653a2063616c6c6572206973206e6f7420746865206f776e6572600082015250565b610b308161093b565b8114610b3b57600080fd5b5056fea2646970667358221220b36ed19d2f71a9228edd35cfcc7db5ba15eb88d50644e1d8f7e031171a5cabc364736f6c63430008070033",
  "immutableReferences": {},
  "source": "// SPDX-License-Identifier: MIT\npragma solidity ^0.8.0; \n\nimport \"@openzeppelin/contracts/access/Ownable.sol\";\n\nimport \"./IPBMAddressList.sol\";\n\ncontract PBMAddressList is Ownable, IPBMAddressList {\n\n    // list of merchants who are able to receive the underlying ERC-20 tokens\n    mapping (address => bool) internal merchantList ; \n    // list of merchants who are unable to receive the PBM tokens\n    mapping (address => bool) internal blacklistedAddresses ; \n\n    /**\n     * @dev See {IPBMAddressList-blacklistAddresses}.\n     *\n     * Requirements:\n     *\n     * - caller must be owner \n     */\n    function blacklistAddresses(address[] memory addresses) \n    external\n    override\n    onlyOwner\n    {\n        for (uint256 i = 0; i < addresses.length; i++) {\n            blacklistedAddresses[addresses[i]] = true;\n        }\n    }  \n\n    /**\n     * @dev See {IPBMAddressList-unBlacklistAddresses}.\n     *\n     * Requirements:\n     *\n     * - caller must be owner \n     */\n    function unBlacklistAddresses(address[] memory addresses) \n    external \n    override\n    onlyOwner\n    {\n        for (uint256 i = 0; i < addresses.length; i++) {\n            blacklistedAddresses[addresses[i]] = false;\n        } \n    }\n\n    /**\n     * @dev See {IPBMAddressList-isBlacklisted}.\n     *\n     */\n    function isBlacklisted(address _address)\n    external \n    override\n    view \n    returns (bool)\n    {\n        return blacklistedAddresses[_address];  \n    }\n\n    /**\n     * @dev See {IPBMAddressList-addMerchantAddresses}.\n     *\n     * Requirements:\n     *\n     * - caller must be owner \n     */\n    function addMerchantAddresses(address[] memory addresses) \n    external\n    override\n    onlyOwner\n    {\n        for (uint256 i = 0; i < addresses.length; i++) {\n            merchantList[addresses[i]] = true;\n        }\n    }  \n\n    /**\n     * @dev See {IPBMAddressList-removeMerchantAddresses}.\n     *\n     * Requirements:\n     *\n     * - caller must be owner \n     */\n    function removeMerchantAddresses(address[] memory addresses) \n    external \n    override\n    onlyOwner\n    {\n        for (uint256 i = 0; i < addresses.length; i++) {\n            merchantList[addresses[i]] = false;\n        } \n    }\n\n    /** \n     * @dev See {IPBMAddressList-isMerchant}.\n     *\n     */\n    function isMerchant(address _address)\n    external \n    override\n    view \n    returns (bool)\n    {\n        return merchantList[_address];  \n    }\n\n}\n",
  "sourcePath": "/Users/mihir/Desktop/code/Orchid-PBM/contracts/PBMAddressList.sol",
  "compiler": {
    "name": "solc",
    "version": "0.8.7+commit.e28d00a7.Emscripten.clang"
  },
  "schemaVersion": "3.4.3",
  "updatedAt": "2022-10-10T14:31:09.293Z",
  "networkType": "ethereum",
  "devdoc": {
    "kind": "dev",
    "methods": {
      "addMerchantAddresses(address[])": {
        "details": "See {IPBMAddressList-addMerchantAddresses}. Requirements: - caller must be owner "
      },
      "blacklistAddresses(address[])": {
        "details": "See {IPBMAddressList-blacklistAddresses}. Requirements: - caller must be owner "
      },
      "isBlacklisted(address)": {
        "details": "See {IPBMAddressList-isBlacklisted}."
      },
      "isMerchant(address)": {
        "details": "See {IPBMAddressList-isMerchant}."
      },
      "owner()": {
        "details": "Returns the address of the current owner."
      },
      "removeMerchantAddresses(address[])": {
        "details": "See {IPBMAddressList-removeMerchantAddresses}. Requirements: - caller must be owner "
      },
      "renounceOwnership()": {
        "details": "Leaves the contract without owner. It will not be possible to call `onlyOwner` functions anymore. Can only be called by the current owner. NOTE: Renouncing ownership will leave the contract without an owner, thereby removing any functionality that is only available to the owner."
      },
      "transferOwnership(address)": {
        "details": "Transfers ownership of the contract to a new account (`newOwner`). Can only be called by the current owner."
      },
      "unBlacklistAddresses(address[])": {
        "details": "See {IPBMAddressList-unBlacklistAddresses}. Requirements: - caller must be owner "
      }
    },
    "version": 1
  },
  "userdoc": {
    "kind": "user",
    "methods": {},
    "version": 1
  }
}