{
  "contractName": "PBMTokenManager",
  "abi": [
    {
      "inputs": [
        {
          "internalType": "string",
          "name": "_uriPostExpiry",
          "type": "string"
        }
      ],
      "stateMutability": "nonpayable",
      "type": "constructor"
    },
    {
      "anonymous": false,
      "inputs": [
        {
          "indexed": false,
          "internalType": "uint256",
          "name": "tokenId",
          "type": "uint256"
        },
        {
          "indexed": false,
          "internalType": "string",
          "name": "tokenName",
          "type": "string"
        },
        {
          "indexed": false,
          "internalType": "uint256",
          "name": "amount",
          "type": "uint256"
        },
        {
          "indexed": false,
          "internalType": "uint256",
          "name": "expiry",
          "type": "uint256"
        },
        {
          "indexed": false,
          "internalType": "address",
          "name": "creator",
          "type": "address"
        }
      ],
      "name": "NewPBMTypeCreated",
      "type": "event"
    },
    {
      "anonymous": false,
      "inputs": [
        {
          "indexed": true,
          "internalType": "address",
          "name": "previousOwner",
          "type": "address"
        },
        {
          "indexed": true,
          "internalType": "address",
          "name": "newOwner",
          "type": "address"
        }
      ],
      "name": "OwnershipTransferred",
      "type": "event"
    },
    {
      "inputs": [],
      "name": "owner",
      "outputs": [
        {
          "internalType": "address",
          "name": "",
          "type": "address"
        }
      ],
      "stateMutability": "view",
      "type": "function"
    },
    {
      "inputs": [],
      "name": "renounceOwnership",
      "outputs": [],
      "stateMutability": "nonpayable",
      "type": "function"
    },
    {
      "inputs": [
        {
          "internalType": "address",
          "name": "newOwner",
          "type": "address"
        }
      ],
      "name": "transferOwnership",
      "outputs": [],
      "stateMutability": "nonpayable",
      "type": "function"
    },
    {
      "inputs": [
        {
          "internalType": "string",
          "name": "companyName",
          "type": "string"
        },
        {
          "internalType": "uint256",
          "name": "spotAmount",
          "type": "uint256"
        },
        {
          "internalType": "uint256",
          "name": "tokenExpiry",
          "type": "uint256"
        },
        {
          "internalType": "address",
          "name": "creator",
          "type": "address"
        },
        {
          "internalType": "string",
          "name": "tokenURI",
          "type": "string"
        },
        {
          "internalType": "uint256",
          "name": "contractExpiry",
          "type": "uint256"
        }
      ],
      "name": "createTokenType",
      "outputs": [
        {
          "internalType": "uint256",
          "name": "",
          "type": "uint256"
        }
      ],
      "stateMutability": "nonpayable",
      "type": "function"
    },
    {
      "inputs": [
        {
          "internalType": "uint256",
          "name": "tokenId",
          "type": "uint256"
        },
        {
          "internalType": "address",
          "name": "sender",
          "type": "address"
        }
      ],
      "name": "revokePBM",
      "outputs": [],
      "stateMutability": "nonpayable",
      "type": "function"
    },
    {
      "inputs": [
        {
          "internalType": "uint256[]",
          "name": "tokenIds",
          "type": "uint256[]"
        },
        {
          "internalType": "uint256[]",
          "name": "amounts",
          "type": "uint256[]"
        }
      ],
      "name": "increaseBalanceSupply",
      "outputs": [],
      "stateMutability": "nonpayable",
      "type": "function"
    },
    {
      "inputs": [
        {
          "internalType": "uint256[]",
          "name": "tokenIds",
          "type": "uint256[]"
        },
        {
          "internalType": "uint256[]",
          "name": "amounts",
          "type": "uint256[]"
        }
      ],
      "name": "decreaseBalanceSupply",
      "outputs": [],
      "stateMutability": "nonpayable",
      "type": "function"
    },
    {
      "inputs": [
        {
          "internalType": "uint256",
          "name": "tokenId",
          "type": "uint256"
        }
      ],
      "name": "uri",
      "outputs": [
        {
          "internalType": "string",
          "name": "",
          "type": "string"
        }
      ],
      "stateMutability": "view",
      "type": "function"
    },
    {
      "inputs": [
        {
          "internalType": "uint256[]",
          "name": "tokenIds",
          "type": "uint256[]"
        }
      ],
      "name": "areTokensValid",
      "outputs": [
        {
          "internalType": "bool",
          "name": "",
          "type": "bool"
        }
      ],
      "stateMutability": "view",
      "type": "function"
    },
    {
      "inputs": [
        {
          "internalType": "uint256",
          "name": "tokenId",
          "type": "uint256"
        }
      ],
      "name": "getTokenDetails",
      "outputs": [
        {
          "internalType": "string",
          "name": "",
          "type": "string"
        },
        {
          "internalType": "uint256",
          "name": "",
          "type": "uint256"
        },
        {
          "internalType": "uint256",
          "name": "",
          "type": "uint256"
        },
        {
          "internalType": "address",
          "name": "",
          "type": "address"
        }
      ],
      "stateMutability": "view",
      "type": "function"
    },
    {
      "inputs": [
        {
          "internalType": "uint256",
          "name": "tokenId",
          "type": "uint256"
        }
      ],
      "name": "getTokenValue",
      "outputs": [
        {
          "internalType": "uint256",
          "name": "",
          "type": "uint256"
        }
      ],
      "stateMutability": "view",
      "type": "function"
    },
    {
      "inputs": [
        {
          "internalType": "uint256",
          "name": "tokenId",
          "type": "uint256"
        }
      ],
      "name": "getTokenCount",
      "outputs": [
        {
          "internalType": "uint256",
          "name": "",
          "type": "uint256"
        }
      ],
      "stateMutability": "view",
      "type": "function"
    },
    {
      "inputs": [
        {
          "internalType": "uint256",
          "name": "tokenId",
          "type": "uint256"
        }
      ],
      "name": "getTokenCreator",
      "outputs": [
        {
          "internalType": "address",
          "name": "",
          "type": "address"
        }
      ],
      "stateMutability": "view",
      "type": "function"
    }
  ],
  "bytecode": "0x60a060405260006001553480156200001657600080fd5b50604051620020773803806200207783398181016040528101906200003c9190620002ad565b6200005c62000050620000b360201b60201c565b620000bb60201b60201c565b3073ffffffffffffffffffffffffffffffffffffffff1660808173ffffffffffffffffffffffffffffffffffffffff1660601b815250508060029080519060200190620000ab9291906200017f565b505062000482565b600033905090565b60008060009054906101000a900473ffffffffffffffffffffffffffffffffffffffff169050816000806101000a81548173ffffffffffffffffffffffffffffffffffffffff021916908373ffffffffffffffffffffffffffffffffffffffff1602179055508173ffffffffffffffffffffffffffffffffffffffff168173ffffffffffffffffffffffffffffffffffffffff167f8be0079c531659141344cd1fd0a4f28419497f9722a3daafe3b4186f6b6457e060405160405180910390a35050565b8280546200018d9062000393565b90600052602060002090601f016020900481019282620001b15760008555620001fd565b82601f10620001cc57805160ff1916838001178555620001fd565b82800160010185558215620001fd579182015b82811115620001fc578251825591602001919060010190620001df565b5b5090506200020c919062000210565b5090565b5b808211156200022b57600081600090555060010162000211565b5090565b600062000246620002408462000327565b620002fe565b90508281526020810184848401111562000265576200026462000462565b5b620002728482856200035d565b509392505050565b600082601f8301126200029257620002916200045d565b5b8151620002a48482602086016200022f565b91505092915050565b600060208284031215620002c657620002c56200046c565b5b600082015167ffffffffffffffff811115620002e757620002e662000467565b5b620002f5848285016200027a565b91505092915050565b60006200030a6200031d565b9050620003188282620003c9565b919050565b6000604051905090565b600067ffffffffffffffff8211156200034557620003446200042e565b5b620003508262000471565b9050602081019050919050565b60005b838110156200037d57808201518184015260208101905062000360565b838111156200038d576000848401525b50505050565b60006002820490506001821680620003ac57607f821691505b60208210811415620003c357620003c2620003ff565b5b50919050565b620003d48262000471565b810181811067ffffffffffffffff82111715620003f657620003f56200042e565b5b80604052505050565b7f4e487b7100000000000000000000000000000000000000000000000000000000600052602260045260246000fd5b7f4e487b7100000000000000000000000000000000000000000000000000000000600052604160045260246000fd5b600080fd5b600080fd5b600080fd5b600080fd5b6000601f19601f8301169050919050565b60805160601c611bd6620004a16000396000610d280152611bd66000f3fe608060405234801561001057600080fd5b50600436106100cf5760003560e01c80638da5cb5b1161008c578063d10424c711610066578063d10424c71461023b578063e21c8b591461026b578063f2fde38b14610287578063f600d9f4146102a3576100cf565b80638da5cb5b146101ba578063934689a9146101d8578063c1e0372814610208576100cf565b80630e89341c146100d4578063234661c41461010457806336a3409c1461013457806348fd09f514610150578063715018a61461018057806380d69c8a1461018a575b600080fd5b6100ee60048036038101906100e991906112a3565b6102bf565b6040516100fb91906114d3565b60405180910390f35b61011e600480360381019061011991906112a3565b610417565b60405161012b9190611601565b60405180910390f35b61014e600480360381019061014991906112d0565b610437565b005b61016a6004803603810190610165919061111d565b610524565b60405161017791906114b8565b60405180910390f35b61018861059c565b005b6101a4600480360381019061019f91906111de565b6105b0565b6040516101b19190611601565b60405180910390f35b6101c2610840565b6040516101cf919061149d565b60405180910390f35b6101f260048036038101906101ed91906112a3565b610869565b6040516101ff919061149d565b60405180910390f35b610222600480360381019061021d91906112a3565b6108a9565b60405161023294939291906114f5565b60405180910390f35b610255600480360381019061025091906112a3565b6109c6565b6040516102629190611601565b60405180910390f35b61028560048036038101906102809190611166565b6109e6565b005b6102a1600480360381019061029c91906110f0565b610aa3565b005b6102bd60048036038101906102b89190611166565b610b27565b005b60606003600083815260200190815260200160002060020154421061037057600280546102eb90611864565b80601f016020809104026020016040519081016040528092919081815260200182805461031790611864565b80156103645780601f1061033957610100808354040283529160200191610364565b820191906000526020600020905b81548152906001019060200180831161034757829003601f168201915b50505050509050610412565b60036000838152602001908152602001600020600501805461039190611864565b80601f01602080910402602001604051908101604052809291908181526020018280546103bd90611864565b801561040a5780601f106103df5761010080835404028352916020019161040a565b820191906000526020600020905b8154815290600101906020018083116103ed57829003601f168201915b505050505090505b919050565b600060036000838152602001908152602001600020600401549050919050565b61043f610be4565b6003600083815260200190815260200160002060030160009054906101000a900473ffffffffffffffffffffffffffffffffffffffff1673ffffffffffffffffffffffffffffffffffffffff168173ffffffffffffffffffffffffffffffffffffffff161480156104c55750426003600084815260200190815260200160002060020154115b610504576040517f08c379a00000000000000000000000000000000000000000000000000000000081526004016104fb90611541565b60405180910390fd5b600060036000848152602001908152602001600020600401819055505050565b600080600090505b825181101561059157600360008281526020019081526020016000206002015442118061056f575060006003600083815260200190815260200160002060010154145b1561057e576000915050610597565b8080610589906118c7565b91505061052c565b50600190505b919050565b6105a4610be4565b6105ae6000610c62565b565b60006105ba610be4565b6105c2610d26565b81851115610605576040517f08c379a00000000000000000000000000000000000000000000000000000000081526004016105fc906115a1565b60405180910390fd5b428511610647576040517f08c379a000000000000000000000000000000000000000000000000000000000815260040161063e906115c1565b60405180910390fd5b600086141561068b576040517f08c379a0000000000000000000000000000000000000000000000000000000008152600401610682906115e1565b60405180910390fd5b60008761069788610d80565b6040516020016106a8929190611479565b60405160208183030381529060405290508060036000600154815260200190815260200160002060000190805190602001906106e5929190610f15565b50866003600060015481526020019081526020016000206001018190555085600360006001548152602001908152602001600020600201819055508460036000600154815260200190815260200160002060030160006101000a81548173ffffffffffffffffffffffffffffffffffffffff021916908373ffffffffffffffffffffffffffffffffffffffff1602179055506000600360006001548152602001908152602001600020600401819055508360036000600154815260200190815260200160002060050190805190602001906107c1929190610f15565b507fbbb805bf89819da42bb55052edd2bf6db1c2256ec4c19cf1607de95efc92762f600154828989896040516107fb95949392919061161c565b60405180910390a161081860018054610ee190919063ffffffff16565b60018190555061083360018054610ef790919063ffffffff16565b9150509695505050505050565b60008060009054906101000a900473ffffffffffffffffffffffffffffffffffffffff16905090565b60006003600083815260200190815260200160002060030160009054906101000a900473ffffffffffffffffffffffffffffffffffffffff169050919050565b6060600080600060036000868152602001908152602001600020600001600360008781526020019081526020016000206001015460036000888152602001908152602001600020600201546003600089815260200190815260200160002060030160009054906101000a900473ffffffffffffffffffffffffffffffffffffffff1683805461093790611864565b80601f016020809104026020016040519081016040528092919081815260200182805461096390611864565b80156109b05780601f10610985576101008083540402835291602001916109b0565b820191906000526020600020905b81548152906001019060200180831161099357829003601f168201915b5050505050935093509350935093509193509193565b600060036000838152602001908152602001600020600101549050919050565b6109ee610be4565b60005b8251811015610a9e57610a57828281518110610a1057610a0f6119ce565b5b602002602001015160036000868581518110610a2f57610a2e6119ce565b5b6020026020010151815260200190815260200160002060040154610ef790919063ffffffff16565b60036000858481518110610a6e57610a6d6119ce565b5b60200260200101518152602001908152602001600020600401819055508080610a96906118c7565b9150506109f1565b505050565b610aab610be4565b600073ffffffffffffffffffffffffffffffffffffffff168173ffffffffffffffffffffffffffffffffffffffff161415610b1b576040517f08c379a0000000000000000000000000000000000000000000000000000000008152600401610b1290611561565b60405180910390fd5b610b2481610c62565b50565b610b2f610be4565b60005b8251811015610bdf57610b98828281518110610b5157610b506119ce565b5b602002602001015160036000868581518110610b7057610b6f6119ce565b5b6020026020010151815260200190815260200160002060040154610ee190919063ffffffff16565b60036000858481518110610baf57610bae6119ce565b5b60200260200101518152602001908152602001600020600401819055508080610bd7906118c7565b915050610b32565b505050565b610bec610f0d565b73ffffffffffffffffffffffffffffffffffffffff16610c0a610840565b73ffffffffffffffffffffffffffffffffffffffff1614610c60576040517f08c379a0000000000000000000000000000000000000000000000000000000008152600401610c5790611581565b60405180910390fd5b565b60008060009054906101000a900473ffffffffffffffffffffffffffffffffffffffff169050816000806101000a81548173ffffffffffffffffffffffffffffffffffffffff021916908373ffffffffffffffffffffffffffffffffffffffff1602179055508173ffffffffffffffffffffffffffffffffffffffff168173ffffffffffffffffffffffffffffffffffffffff167f8be0079c531659141344cd1fd0a4f28419497f9722a3daafe3b4186f6b6457e060405160405180910390a35050565b7f000000000000000000000000000000000000000000000000000000000000000073ffffffffffffffffffffffffffffffffffffffff163073ffffffffffffffffffffffffffffffffffffffff1614610d7e57600080fd5b565b60606000821415610dc8576040518060400160405280600181526020017f30000000000000000000000000000000000000000000000000000000000000008152509050610edc565b600082905060005b60008214610dfa578080610de3906118c7565b915050600a82610df39190611775565b9150610dd0565b60008167ffffffffffffffff811115610e1657610e156119fd565b5b6040519080825280601f01601f191660200182016040528015610e485781602001600182028036833780820191505090505b5090505b60008514610ed557600182610e6191906117a6565b9150600a85610e709190611910565b6030610e7c919061171f565b60f81b818381518110610e9257610e916119ce565b5b60200101907effffffffffffffffffffffffffffffffffffffffffffffffffffffffffffff1916908160001a905350600a85610ece9190611775565b9450610e4c565b8093505050505b919050565b60008183610eef919061171f565b905092915050565b60008183610f0591906117a6565b905092915050565b600033905090565b828054610f2190611864565b90600052602060002090601f016020900481019282610f435760008555610f8a565b82601f10610f5c57805160ff1916838001178555610f8a565b82800160010185558215610f8a579182015b82811115610f89578251825591602001919060010190610f6e565b5b509050610f979190610f9b565b5090565b5b80821115610fb4576000816000905550600101610f9c565b5090565b6000610fcb610fc68461169b565b611676565b90508083825260208201905082856020860282011115610fee57610fed611a31565b5b60005b8581101561101e578161100488826110db565b845260208401935060208301925050600181019050610ff1565b5050509392505050565b600061103b611036846116c7565b611676565b90508281526020810184848401111561105757611056611a36565b5b611062848285611822565b509392505050565b60008135905061107981611b72565b92915050565b600082601f83011261109457611093611a2c565b5b81356110a4848260208601610fb8565b91505092915050565b600082601f8301126110c2576110c1611a2c565b5b81356110d2848260208601611028565b91505092915050565b6000813590506110ea81611b89565b92915050565b60006020828403121561110657611105611a40565b5b60006111148482850161106a565b91505092915050565b60006020828403121561113357611132611a40565b5b600082013567ffffffffffffffff81111561115157611150611a3b565b5b61115d8482850161107f565b91505092915050565b6000806040838503121561117d5761117c611a40565b5b600083013567ffffffffffffffff81111561119b5761119a611a3b565b5b6111a78582860161107f565b925050602083013567ffffffffffffffff8111156111c8576111c7611a3b565b5b6111d48582860161107f565b9150509250929050565b60008060008060008060c087890312156111fb576111fa611a40565b5b600087013567ffffffffffffffff81111561121957611218611a3b565b5b61122589828a016110ad565b965050602061123689828a016110db565b955050604061124789828a016110db565b945050606061125889828a0161106a565b935050608087013567ffffffffffffffff81111561127957611278611a3b565b5b61128589828a016110ad565b92505060a061129689828a016110db565b9150509295509295509295565b6000602082840312156112b9576112b8611a40565b5b60006112c7848285016110db565b91505092915050565b600080604083850312156112e7576112e6611a40565b5b60006112f5858286016110db565b92505060206113068582860161106a565b9150509250929050565b611319816117da565b82525050565b611328816117ec565b82525050565b6000611339826116f8565b6113438185611703565b9350611353818560208601611831565b61135c81611a45565b840191505092915050565b6000611372826116f8565b61137c8185611714565b935061138c818560208601611831565b80840191505092915050565b60006113a5601183611703565b91506113b082611a56565b602082019050919050565b60006113c8602683611703565b91506113d382611a7f565b604082019050919050565b60006113eb602083611703565b91506113f682611ace565b602082019050919050565b600061140e601683611703565b915061141982611af7565b602082019050919050565b6000611431601683611703565b915061143c82611b20565b602082019050919050565b6000611454601083611703565b915061145f82611b49565b602082019050919050565b61147381611818565b82525050565b60006114858285611367565b91506114918284611367565b91508190509392505050565b60006020820190506114b26000830184611310565b92915050565b60006020820190506114cd600083018461131f565b92915050565b600060208201905081810360008301526114ed818461132e565b905092915050565b6000608082019050818103600083015261150f818761132e565b905061151e602083018661146a565b61152b604083018561146a565b6115386060830184611310565b95945050505050565b6000602082019050818103600083015261155a81611398565b9050919050565b6000602082019050818103600083015261157a816113bb565b9050919050565b6000602082019050818103600083015261159a816113de565b9050919050565b600060208201905081810360008301526115ba81611401565b9050919050565b600060208201905081810360008301526115da81611424565b9050919050565b600060208201905081810360008301526115fa81611447565b9050919050565b6000602082019050611616600083018461146a565b92915050565b600060a082019050611631600083018861146a565b8181036020830152611643818761132e565b9050611652604083018661146a565b61165f606083018561146a565b61166c6080830184611310565b9695505050505050565b6000611680611691565b905061168c8282611896565b919050565b6000604051905090565b600067ffffffffffffffff8211156116b6576116b56119fd565b5b602082029050602081019050919050565b600067ffffffffffffffff8211156116e2576116e16119fd565b5b6116eb82611a45565b9050602081019050919050565b600081519050919050565b600082825260208201905092915050565b600081905092915050565b600061172a82611818565b915061173583611818565b9250827fffffffffffffffffffffffffffffffffffffffffffffffffffffffffffffffff0382111561176a57611769611941565b5b828201905092915050565b600061178082611818565b915061178b83611818565b92508261179b5761179a611970565b5b828204905092915050565b60006117b182611818565b91506117bc83611818565b9250828210156117cf576117ce611941565b5b828203905092915050565b60006117e5826117f8565b9050919050565b60008115159050919050565b600073ffffffffffffffffffffffffffffffffffffffff82169050919050565b6000819050919050565b82818337600083830152505050565b60005b8381101561184f578082015181840152602081019050611834565b8381111561185e576000848401525b50505050565b6000600282049050600182168061187c57607f821691505b602082108114156118905761188f61199f565b5b50919050565b61189f82611a45565b810181811067ffffffffffffffff821117156118be576118bd6119fd565b5b80604052505050565b60006118d282611818565b91507fffffffffffffffffffffffffffffffffffffffffffffffffffffffffffffffff82141561190557611904611941565b5b600182019050919050565b600061191b82611818565b915061192683611818565b92508261193657611935611970565b5b828206905092915050565b7f4e487b7100000000000000000000000000000000000000000000000000000000600052601160045260246000fd5b7f4e487b7100000000000000000000000000000000000000000000000000000000600052601260045260246000fd5b7f4e487b7100000000000000000000000000000000000000000000000000000000600052602260045260246000fd5b7f4e487b7100000000000000000000000000000000000000000000000000000000600052603260045260246000fd5b7f4e487b7100000000000000000000000000000000000000000000000000000000600052604160045260246000fd5b600080fd5b600080fd5b600080fd5b600080fd5b600080fd5b6000601f19601f8301169050919050565b7f50424d206e6f74207265766f6b61626c65000000000000000000000000000000600082015250565b7f4f776e61626c653a206e6577206f776e657220697320746865207a65726f206160008201527f6464726573730000000000000000000000000000000000000000000000000000602082015250565b7f4f776e61626c653a2063616c6c6572206973206e6f7420746865206f776e6572600082015250565b7f496e76616c696420746f6b656e206578706972792d3100000000000000000000600082015250565b7f496e76616c696420746f6b656e206578706972792d3200000000000000000000600082015250565b7f53706f7420616d6f756e74206973203000000000000000000000000000000000600082015250565b611b7b816117da565b8114611b8657600080fd5b50565b611b9281611818565b8114611b9d57600080fd5b5056fea2646970667358221220dab299a8cc607be366b6a9fa7ece36d581b9f7fdd49d31f6b62d270c76c36d7464736f6c63430008070033",
  "immutableReferences": {
    "2817": [
      {
        "length": 32,
        "start": 3368
      }
    ]
  },
  "source": "// SPDX-License-Identifier: MIT\npragma solidity ^0.8.0; \n\nimport \"./IPBMTokenManager.sol\";\nimport \"./NoDelegateCall.sol\";\n\nimport \"@openzeppelin/contracts/utils/Context.sol\";\nimport \"@openzeppelin/contracts/utils/Strings.sol\";\nimport \"@openzeppelin/contracts/access/Ownable.sol\";\nimport \"@openzeppelin/contracts/utils/math/SafeMath.sol\";\nimport \"@openzeppelin/contracts/security/Pausable.sol\";\n\ncontract PBMTokenManager is Ownable, IPBMTokenManager, NoDelegateCall {\n    using Strings for uint256;\n    using SafeMath for uint256 ; \n\n    uint256 private tokenTypeCount = 0 ; \n\n    struct TokenConfig {\n        string name ; \n        uint256 amount ; \n        uint256 expiry ; \n        address creator ; \n        uint256 balanceSupply ; \n        string uri ; \n    }\n\n    // URI for tokens after expiry\n    string  internal  URIPostExpiry ; \n\n    // tokenId mappings\n    mapping (uint256 => TokenConfig) internal tokenTypes ; \n\n    constructor(string memory _uriPostExpiry){\n        URIPostExpiry = _uriPostExpiry ; \n    }\n        \n    function createTokenType(string memory companyName, uint256 spotAmount, uint256 tokenExpiry, address creator, string memory tokenURI, uint256 contractExpiry) \n    external \n    override \n    onlyOwner\n    noDelegateCall\n    returns (uint256)\n    {   \n        require(tokenExpiry <= contractExpiry, \"Invalid token expiry-1\") ; \n        require(tokenExpiry > block.timestamp , \"Invalid token expiry-2\") ; \n        require(spotAmount != 0 , \"Spot amount is 0\") ; \n\n        string memory tokenName = string(abi.encodePacked(companyName,spotAmount.toString())) ; \n        tokenTypes[tokenTypeCount].name = tokenName ; \n        tokenTypes[tokenTypeCount].amount = spotAmount ; \n        tokenTypes[tokenTypeCount].expiry = tokenExpiry ; \n        tokenTypes[tokenTypeCount].creator = creator ; \n        tokenTypes[tokenTypeCount].balanceSupply = 0 ; \n        tokenTypes[tokenTypeCount].uri = tokenURI ; \n\n        emit NewPBMTypeCreated(tokenTypeCount, tokenName, spotAmount, tokenExpiry, creator);\n        tokenTypeCount = uint256(tokenTypeCount.add(1)) ; \n        return uint256(tokenTypeCount.sub(1)) ;  \n    }\n\n    function revokePBM(uint256 tokenId, address sender)\n    external\n    override\n    onlyOwner\n    {\n        require (sender == tokenTypes[tokenId].creator && tokenTypes[tokenId].expiry > block.timestamp, \"PBM not revokable\") ;\n        tokenTypes[tokenId].balanceSupply = 0 ; \n    }\n\n    function increaseBalanceSupply(uint256[] memory tokenIds, uint256[] memory amounts)\n    external\n    override\n    onlyOwner\n    {   \n        for (uint256 i = 0; i < tokenIds.length; i++) {\n            tokenTypes[tokenIds[i]].balanceSupply = uint256(tokenTypes[tokenIds[i]].balanceSupply.add(amounts[i])) ;\n        }\n    }\n\n    function decreaseBalanceSupply(uint256[] memory tokenIds, uint256[] memory amounts)\n    external \n    override\n    onlyOwner\n    {   \n        for (uint256 i = 0; i < tokenIds.length; i++) {\n            tokenTypes[tokenIds[i]].balanceSupply = uint256(tokenTypes[tokenIds[i]].balanceSupply.sub(amounts[i])) ;\n        }\n    }\n\n    function uri(uint256 tokenId)\n    external\n    override\n    view\n    returns (string memory)\n    {\n        if (block.timestamp >= tokenTypes[tokenId].expiry){\n            return URIPostExpiry ; \n        }\n        return tokenTypes[tokenId].uri ; \n    }\n\n    function areTokensValid(uint256[] memory tokenIds) \n    external \n    override\n    view \n    returns (bool) {\n        for (uint256 i = 0; i < tokenIds.length; i++) {\n            if (block.timestamp > tokenTypes[i].expiry || tokenTypes[i].amount == 0){\n                return false ; \n            }\n        } \n        return true ; \n    }   \n\n    function getTokenDetails(uint256 tokenId) \n    external \n    override\n    view \n    returns (string memory, uint256, uint256, address) \n    {\n        return (tokenTypes[tokenId].name, tokenTypes[tokenId].amount, tokenTypes[tokenId].expiry, tokenTypes[tokenId].creator) ; \n    }\n\n    function getTokenValue(uint256 tokenId)\n    external \n    override\n    view \n    returns (uint256) {\n        return tokenTypes[tokenId].amount ; \n    }\n\n    function getTokenCount(uint256 tokenId)\n    external \n    override\n    view \n    returns (uint256) {\n        return tokenTypes[tokenId].balanceSupply ; \n    }\n\n    function getTokenCreator(uint256 tokenId)\n    external \n    override\n    view \n    returns (address) {\n        return tokenTypes[tokenId].creator ; \n    }\n}",
  "sourcePath": "/Users/mihir/Desktop/code/Orchid-PBM/contracts/PBMTokenManager.sol",
  "compiler": {
    "name": "solc",
    "version": "0.8.7+commit.e28d00a7.Emscripten.clang"
  },
  "schemaVersion": "3.4.3",
  "updatedAt": "2022-09-15T03:25:53.804Z",
  "devdoc": {
    "kind": "dev",
    "methods": {
      "areTokensValid(uint256[])": {
        "params": {
          "tokenIds": "The ids for the PBM in query"
        },
        "returns": {
          "_0": "Returns true if all the tokenId are valid else false"
        }
      },
      "createTokenType(string,uint256,uint256,address,string,uint256)": {
        "params": {
          "companyName": "The name of the company/agency issuing this PBM type",
          "contractExpiry": "the expiry time (in epoch) for the overall PBM contract",
          "creator": "The address of the account that creates the PBM type",
          "spotAmount": "The number of ERC-20 tokens that is used as the underlying currency for PBM",
          "tokenExpiry": "The expiry date (in epoch) of th PBM type",
          "tokenURI": "the URI containting the metadata (opensea standard for ERC1155) for the  PBM type"
        },
        "returns": {
          "_0": "the Token id of the the PBM type created"
        }
      },
      "decreaseBalanceSupply(uint256[],uint256[])": {
        "params": {
          "amounts": "The amounts by whch the supply counnt needs to be decreased",
          "tokenIds": "The ids for which the supply count needs to be decreased"
        }
      },
      "getTokenCount(uint256)": {
        "params": {
          "tokenId": "The id for the PBM in query"
        },
        "returns": {
          "_0": "Returns the count of the PBM"
        }
      },
      "getTokenCreator(uint256)": {
        "params": {
          "tokenId": "The id for the PBM in query"
        },
        "returns": {
          "_0": "Returns the address of the creator"
        }
      },
      "getTokenDetails(uint256)": {
        "params": {
          "tokenId": "The id for the PBM in query"
        },
        "returns": {
          "_0": "The name of the PBM type",
          "_1": "Amount of underlying ERC20 held by the each of the PBM token",
          "_2": " Expiry time (in epoch) for the PBM type",
          "_3": "Creator for the PBM type"
        }
      },
      "getTokenValue(uint256)": {
        "params": {
          "tokenId": "The id for the PBM in query"
        },
        "returns": {
          "_0": "Returns the underlying ERC20 amount"
        }
      },
      "increaseBalanceSupply(uint256[],uint256[])": {
        "params": {
          "amounts": "The amounts by whch the supply counnt needs to be increased",
          "tokenIds": "The ids for which the supply count needs to be increased"
        }
      },
      "owner()": {
        "details": "Returns the address of the current owner."
      },
      "renounceOwnership()": {
        "details": "Leaves the contract without owner. It will not be possible to call `onlyOwner` functions anymore. Can only be called by the current owner. NOTE: Renouncing ownership will leave the contract without an owner, thereby removing any functionality that is only available to the owner."
      },
      "revokePBM(uint256,address)": {
        "params": {
          "sender": "updated token URI to convey revoking, if part of design",
          "tokenId": "The PBM tokenId which has been revoked"
        }
      },
      "transferOwnership(address)": {
        "details": "Transfers ownership of the contract to a new account (`newOwner`). Can only be called by the current owner."
      },
      "uri(uint256)": {
        "params": {
          "tokenId": "The id for the PBM in query"
        },
        "returns": {
          "_0": "Returns the metadata URI for the PBM"
        }
      }
    },
    "version": 1
  },
  "userdoc": {
    "events": {
      "NewPBMTypeCreated(uint256,string,uint256,uint256,address)": {
        "notice": "Event emitted when a new PBM token type is created"
      }
    },
    "kind": "user",
    "methods": {
      "areTokensValid(uint256[])": {
        "notice": "Checks if tokens Ids have been created and are not expired"
      },
      "createTokenType(string,uint256,uint256,address,string,uint256)": {
        "notice": "Sets the allowance of a spender from the `msg.sender` to the value `amount`"
      },
      "decreaseBalanceSupply(uint256[],uint256[])": {
        "notice": "decreases the supply count for the PBM "
      },
      "getTokenCount(uint256)": {
        "notice": "gets the count of the PBM type in supply "
      },
      "getTokenCreator(uint256)": {
        "notice": "gets the address of the creator of the PBM type "
      },
      "getTokenDetails(uint256)": {
        "notice": "Retreive the details for a PBM"
      },
      "getTokenValue(uint256)": {
        "notice": "gets the amount of underlying ERC20 tokens the PBM type holds "
      },
      "increaseBalanceSupply(uint256[],uint256[])": {
        "notice": "increases the supply count for the PBM "
      },
      "revokePBM(uint256,address)": {
        "notice": "performs all the necessary actions required after the revoking of a PBM type"
      },
      "uri(uint256)": {
        "notice": "Returns the URI (metadata) for the PBM with the corresponding tokenId"
      }
    },
    "version": 1
  }
}