{
  "contractName": "PBMTokenManager",
  "abi": [
    {
      "inputs": [
        {
          "internalType": "string",
          "name": "_uriPostExpiry",
          "type": "string"
        }
      ],
      "stateMutability": "nonpayable",
      "type": "constructor"
    },
    {
      "anonymous": false,
      "inputs": [
        {
          "indexed": false,
          "internalType": "uint256",
          "name": "tokenId",
          "type": "uint256"
        },
        {
          "indexed": false,
          "internalType": "string",
          "name": "tokenName",
          "type": "string"
        },
        {
          "indexed": false,
          "internalType": "uint256",
          "name": "amount",
          "type": "uint256"
        },
        {
          "indexed": false,
          "internalType": "uint256",
          "name": "expiry",
          "type": "uint256"
        },
        {
          "indexed": false,
          "internalType": "address",
          "name": "creator",
          "type": "address"
        }
      ],
      "name": "NewPBMTypeCreated",
      "type": "event"
    },
    {
      "anonymous": false,
      "inputs": [
        {
          "indexed": true,
          "internalType": "address",
          "name": "previousOwner",
          "type": "address"
        },
        {
          "indexed": true,
          "internalType": "address",
          "name": "newOwner",
          "type": "address"
        }
      ],
      "name": "OwnershipTransferred",
      "type": "event"
    },
    {
      "inputs": [],
      "name": "owner",
      "outputs": [
        {
          "internalType": "address",
          "name": "",
          "type": "address"
        }
      ],
      "stateMutability": "view",
      "type": "function"
    },
    {
      "inputs": [],
      "name": "renounceOwnership",
      "outputs": [],
      "stateMutability": "nonpayable",
      "type": "function"
    },
    {
      "inputs": [
        {
          "internalType": "address",
          "name": "newOwner",
          "type": "address"
        }
      ],
      "name": "transferOwnership",
      "outputs": [],
      "stateMutability": "nonpayable",
      "type": "function"
    },
    {
      "inputs": [
        {
          "internalType": "string",
          "name": "companyName",
          "type": "string"
        },
        {
          "internalType": "uint256",
          "name": "spotAmount",
          "type": "uint256"
        },
        {
          "internalType": "uint256",
          "name": "tokenExpiry",
          "type": "uint256"
        },
        {
          "internalType": "address",
          "name": "creator",
          "type": "address"
        },
        {
          "internalType": "string",
          "name": "tokenURI",
          "type": "string"
        },
        {
          "internalType": "uint256",
          "name": "contractExpiry",
          "type": "uint256"
        }
      ],
      "name": "createTokenType",
      "outputs": [],
      "stateMutability": "nonpayable",
      "type": "function"
    },
    {
      "inputs": [
        {
          "internalType": "uint256",
          "name": "tokenId",
          "type": "uint256"
        },
        {
          "internalType": "address",
          "name": "sender",
          "type": "address"
        }
      ],
      "name": "revokePBM",
      "outputs": [],
      "stateMutability": "nonpayable",
      "type": "function"
    },
    {
      "inputs": [
        {
          "internalType": "uint256[]",
          "name": "tokenIds",
          "type": "uint256[]"
        },
        {
          "internalType": "uint256[]",
          "name": "amounts",
          "type": "uint256[]"
        }
      ],
      "name": "increaseBalanceSupply",
      "outputs": [],
      "stateMutability": "nonpayable",
      "type": "function"
    },
    {
      "inputs": [
        {
          "internalType": "uint256[]",
          "name": "tokenIds",
          "type": "uint256[]"
        },
        {
          "internalType": "uint256[]",
          "name": "amounts",
          "type": "uint256[]"
        }
      ],
      "name": "decreaseBalanceSupply",
      "outputs": [],
      "stateMutability": "nonpayable",
      "type": "function"
    },
    {
      "inputs": [
        {
          "internalType": "uint256",
          "name": "tokenId",
          "type": "uint256"
        }
      ],
      "name": "uri",
      "outputs": [
        {
          "internalType": "string",
          "name": "",
          "type": "string"
        }
      ],
      "stateMutability": "view",
      "type": "function"
    },
    {
      "inputs": [
        {
          "internalType": "uint256[]",
          "name": "tokenIds",
          "type": "uint256[]"
        }
      ],
      "name": "areTokensValid",
      "outputs": [
        {
          "internalType": "bool",
          "name": "",
          "type": "bool"
        }
      ],
      "stateMutability": "view",
      "type": "function"
    },
    {
      "inputs": [
        {
          "internalType": "uint256",
          "name": "tokenId",
          "type": "uint256"
        }
      ],
      "name": "getTokenDetails",
      "outputs": [
        {
          "internalType": "string",
          "name": "",
          "type": "string"
        },
        {
          "internalType": "uint256",
          "name": "",
          "type": "uint256"
        },
        {
          "internalType": "uint256",
          "name": "",
          "type": "uint256"
        },
        {
          "internalType": "address",
          "name": "",
          "type": "address"
        }
      ],
      "stateMutability": "view",
      "type": "function"
    },
    {
      "inputs": [
        {
          "internalType": "uint256",
          "name": "tokenId",
          "type": "uint256"
        }
      ],
      "name": "getTokenValue",
      "outputs": [
        {
          "internalType": "uint256",
          "name": "",
          "type": "uint256"
        }
      ],
      "stateMutability": "view",
      "type": "function"
    },
    {
      "inputs": [
        {
          "internalType": "uint256",
          "name": "tokenId",
          "type": "uint256"
        }
      ],
      "name": "getTokenCount",
      "outputs": [
        {
          "internalType": "uint256",
          "name": "",
          "type": "uint256"
        }
      ],
      "stateMutability": "view",
      "type": "function"
    },
    {
      "inputs": [
        {
          "internalType": "uint256",
          "name": "tokenId",
          "type": "uint256"
        }
      ],
      "name": "getTokenCreator",
      "outputs": [
        {
          "internalType": "address",
          "name": "",
          "type": "address"
        }
      ],
      "stateMutability": "view",
      "type": "function"
    }
  ],
  "bytecode": "0x60a060405260006001553480156200001657600080fd5b5060405162001fbb38038062001fbb83398181016040528101906200003c9190620002ad565b6200005c62000050620000b360201b60201c565b620000bb60201b60201c565b3073ffffffffffffffffffffffffffffffffffffffff1660808173ffffffffffffffffffffffffffffffffffffffff1660601b815250508060029080519060200190620000ab9291906200017f565b505062000482565b600033905090565b60008060009054906101000a900473ffffffffffffffffffffffffffffffffffffffff169050816000806101000a81548173ffffffffffffffffffffffffffffffffffffffff021916908373ffffffffffffffffffffffffffffffffffffffff1602179055508173ffffffffffffffffffffffffffffffffffffffff168173ffffffffffffffffffffffffffffffffffffffff167f8be0079c531659141344cd1fd0a4f28419497f9722a3daafe3b4186f6b6457e060405160405180910390a35050565b8280546200018d9062000393565b90600052602060002090601f016020900481019282620001b15760008555620001fd565b82601f10620001cc57805160ff1916838001178555620001fd565b82800160010185558215620001fd579182015b82811115620001fc578251825591602001919060010190620001df565b5b5090506200020c919062000210565b5090565b5b808211156200022b57600081600090555060010162000211565b5090565b600062000246620002408462000327565b620002fe565b90508281526020810184848401111562000265576200026462000462565b5b620002728482856200035d565b509392505050565b600082601f8301126200029257620002916200045d565b5b8151620002a48482602086016200022f565b91505092915050565b600060208284031215620002c657620002c56200046c565b5b600082015167ffffffffffffffff811115620002e757620002e662000467565b5b620002f5848285016200027a565b91505092915050565b60006200030a6200031d565b9050620003188282620003c9565b919050565b6000604051905090565b600067ffffffffffffffff8211156200034557620003446200042e565b5b620003508262000471565b9050602081019050919050565b60005b838110156200037d57808201518184015260208101905062000360565b838111156200038d576000848401525b50505050565b60006002820490506001821680620003ac57607f821691505b60208210811415620003c357620003c2620003ff565b5b50919050565b620003d48262000471565b810181811067ffffffffffffffff82111715620003f657620003f56200042e565b5b80604052505050565b7f4e487b7100000000000000000000000000000000000000000000000000000000600052602260045260246000fd5b7f4e487b7100000000000000000000000000000000000000000000000000000000600052604160045260246000fd5b600080fd5b600080fd5b600080fd5b600080fd5b6000601f19601f8301169050919050565b60805160601c611b1a620004a16000396000610c980152611b1a6000f3fe608060405234801561001057600080fd5b50600436106100cf5760003560e01c80638da5cb5b1161008c578063d10424c711610066578063d10424c714610227578063e21c8b5914610257578063f2fde38b14610273578063f600d9f41461028f576100cf565b80638da5cb5b146101a6578063934689a9146101c4578063c1e03728146101f4576100cf565b80630e89341c146100d4578063234661c41461010457806336a3409c1461013457806348fd09f514610150578063715018a61461018057806380d69c8a1461018a575b600080fd5b6100ee60048036038101906100e991906111e7565b6102ab565b6040516100fb9190611417565b60405180910390f35b61011e600480360381019061011991906111e7565b610403565b60405161012b9190611545565b60405180910390f35b61014e60048036038101906101499190611214565b610423565b005b61016a60048036038101906101659190611061565b610511565b60405161017791906113fc565b60405180910390f35b610188610589565b005b6101a4600480360381019061019f9190611122565b61059d565b005b6101ae610810565b6040516101bb91906113e1565b60405180910390f35b6101de60048036038101906101d991906111e7565b610839565b6040516101eb91906113e1565b60405180910390f35b61020e600480360381019061020991906111e7565b610879565b60405161021e9493929190611439565b60405180910390f35b610241600480360381019061023c91906111e7565b610996565b60405161024e9190611545565b60405180910390f35b610271600480360381019061026c91906110aa565b6109b6565b005b61028d60048036038101906102889190611034565b610a43565b005b6102a960048036038101906102a491906110aa565b610ac7565b005b60606003600083815260200190815260200160002060020154421061035c57600280546102d7906117a8565b80601f0160208091040260200160405190810160405280929190818152602001828054610303906117a8565b80156103505780601f1061032557610100808354040283529160200191610350565b820191906000526020600020905b81548152906001019060200180831161033357829003601f168201915b505050505090506103fe565b60036000838152602001908152602001600020600501805461037d906117a8565b80601f01602080910402602001604051908101604052809291908181526020018280546103a9906117a8565b80156103f65780601f106103cb576101008083540402835291602001916103f6565b820191906000526020600020905b8154815290600101906020018083116103d957829003601f168201915b505050505090505b919050565b600060036000838152602001908152602001600020600401549050919050565b61042b610b54565b6003600083815260200190815260200160002060030160009054906101000a900473ffffffffffffffffffffffffffffffffffffffff1673ffffffffffffffffffffffffffffffffffffffff168173ffffffffffffffffffffffffffffffffffffffff161480156104b2575060036000838152602001908152602001600020600201544210155b6104f1576040517f08c379a00000000000000000000000000000000000000000000000000000000081526004016104e890611485565b60405180910390fd5b600060036000848152602001908152602001600020600401819055505050565b600080600090505b825181101561057e57600360008281526020019081526020016000206002015442118061055c575060006003600083815260200190815260200160002060010154145b1561056b576000915050610584565b80806105769061180b565b915050610519565b50600190505b919050565b610591610b54565b61059b6000610bd2565b565b6105a5610b54565b6105ad610c96565b808411156105f0576040517f08c379a00000000000000000000000000000000000000000000000000000000081526004016105e7906114e5565b60405180910390fd5b428411610632576040517f08c379a000000000000000000000000000000000000000000000000000000000815260040161062990611505565b60405180910390fd5b6000851415610676576040517f08c379a000000000000000000000000000000000000000000000000000000000815260040161066d90611525565b60405180910390fd5b60008661068287610cf0565b6040516020016106939291906113bd565b60405160208183030381529060405290508060036000600154815260200190815260200160002060000190805190602001906106d0929190610e59565b50856003600060015481526020019081526020016000206001018190555084600360006001548152602001908152602001600020600201819055508360036000600154815260200190815260200160002060030160006101000a81548173ffffffffffffffffffffffffffffffffffffffff021916908373ffffffffffffffffffffffffffffffffffffffff1602179055506000600360006001548152602001908152602001600020600401819055508260036000600154815260200190815260200160002060050190805190602001906107ac929190610e59565b507fbbb805bf89819da42bb55052edd2bf6db1c2256ec4c19cf1607de95efc92762f600154828888886040516107e6959493929190611560565b60405180910390a160018060008282546108009190611663565b9250508190555050505050505050565b60008060009054906101000a900473ffffffffffffffffffffffffffffffffffffffff16905090565b60006003600083815260200190815260200160002060030160009054906101000a900473ffffffffffffffffffffffffffffffffffffffff169050919050565b6060600080600060036000868152602001908152602001600020600001600360008781526020019081526020016000206001015460036000888152602001908152602001600020600201546003600089815260200190815260200160002060030160009054906101000a900473ffffffffffffffffffffffffffffffffffffffff16838054610907906117a8565b80601f0160208091040260200160405190810160405280929190818152602001828054610933906117a8565b80156109805780601f1061095557610100808354040283529160200191610980565b820191906000526020600020905b81548152906001019060200180831161096357829003601f168201915b5050505050935093509350935093509193509193565b600060036000838152602001908152602001600020600101549050919050565b6109be610b54565b60005b8251811015610a3e578181815181106109dd576109dc611912565b5b6020026020010151600360008584815181106109fc576109fb611912565b5b602002602001015181526020019081526020016000206004016000828254610a2491906116ea565b925050819055508080610a369061180b565b9150506109c1565b505050565b610a4b610b54565b600073ffffffffffffffffffffffffffffffffffffffff168173ffffffffffffffffffffffffffffffffffffffff161415610abb576040517f08c379a0000000000000000000000000000000000000000000000000000000008152600401610ab2906114a5565b60405180910390fd5b610ac481610bd2565b50565b610acf610b54565b60005b8251811015610b4f57818181518110610aee57610aed611912565b5b602002602001015160036000858481518110610b0d57610b0c611912565b5b602002602001015181526020019081526020016000206004016000828254610b359190611663565b925050819055508080610b479061180b565b915050610ad2565b505050565b610b5c610e51565b73ffffffffffffffffffffffffffffffffffffffff16610b7a610810565b73ffffffffffffffffffffffffffffffffffffffff1614610bd0576040517f08c379a0000000000000000000000000000000000000000000000000000000008152600401610bc7906114c5565b60405180910390fd5b565b60008060009054906101000a900473ffffffffffffffffffffffffffffffffffffffff169050816000806101000a81548173ffffffffffffffffffffffffffffffffffffffff021916908373ffffffffffffffffffffffffffffffffffffffff1602179055508173ffffffffffffffffffffffffffffffffffffffff168173ffffffffffffffffffffffffffffffffffffffff167f8be0079c531659141344cd1fd0a4f28419497f9722a3daafe3b4186f6b6457e060405160405180910390a35050565b7f000000000000000000000000000000000000000000000000000000000000000073ffffffffffffffffffffffffffffffffffffffff163073ffffffffffffffffffffffffffffffffffffffff1614610cee57600080fd5b565b60606000821415610d38576040518060400160405280600181526020017f30000000000000000000000000000000000000000000000000000000000000008152509050610e4c565b600082905060005b60008214610d6a578080610d539061180b565b915050600a82610d6391906116b9565b9150610d40565b60008167ffffffffffffffff811115610d8657610d85611941565b5b6040519080825280601f01601f191660200182016040528015610db85781602001600182028036833780820191505090505b5090505b60008514610e4557600182610dd191906116ea565b9150600a85610de09190611854565b6030610dec9190611663565b60f81b818381518110610e0257610e01611912565b5b60200101907effffffffffffffffffffffffffffffffffffffffffffffffffffffffffffff1916908160001a905350600a85610e3e91906116b9565b9450610dbc565b8093505050505b919050565b600033905090565b828054610e65906117a8565b90600052602060002090601f016020900481019282610e875760008555610ece565b82601f10610ea057805160ff1916838001178555610ece565b82800160010185558215610ece579182015b82811115610ecd578251825591602001919060010190610eb2565b5b509050610edb9190610edf565b5090565b5b80821115610ef8576000816000905550600101610ee0565b5090565b6000610f0f610f0a846115df565b6115ba565b90508083825260208201905082856020860282011115610f3257610f31611975565b5b60005b85811015610f625781610f48888261101f565b845260208401935060208301925050600181019050610f35565b5050509392505050565b6000610f7f610f7a8461160b565b6115ba565b905082815260208101848484011115610f9b57610f9a61197a565b5b610fa6848285611766565b509392505050565b600081359050610fbd81611ab6565b92915050565b600082601f830112610fd857610fd7611970565b5b8135610fe8848260208601610efc565b91505092915050565b600082601f83011261100657611005611970565b5b8135611016848260208601610f6c565b91505092915050565b60008135905061102e81611acd565b92915050565b60006020828403121561104a57611049611984565b5b600061105884828501610fae565b91505092915050565b60006020828403121561107757611076611984565b5b600082013567ffffffffffffffff8111156110955761109461197f565b5b6110a184828501610fc3565b91505092915050565b600080604083850312156110c1576110c0611984565b5b600083013567ffffffffffffffff8111156110df576110de61197f565b5b6110eb85828601610fc3565b925050602083013567ffffffffffffffff81111561110c5761110b61197f565b5b61111885828601610fc3565b9150509250929050565b60008060008060008060c0878903121561113f5761113e611984565b5b600087013567ffffffffffffffff81111561115d5761115c61197f565b5b61116989828a01610ff1565b965050602061117a89828a0161101f565b955050604061118b89828a0161101f565b945050606061119c89828a01610fae565b935050608087013567ffffffffffffffff8111156111bd576111bc61197f565b5b6111c989828a01610ff1565b92505060a06111da89828a0161101f565b9150509295509295509295565b6000602082840312156111fd576111fc611984565b5b600061120b8482850161101f565b91505092915050565b6000806040838503121561122b5761122a611984565b5b60006112398582860161101f565b925050602061124a85828601610fae565b9150509250929050565b61125d8161171e565b82525050565b61126c81611730565b82525050565b600061127d8261163c565b6112878185611647565b9350611297818560208601611775565b6112a081611989565b840191505092915050565b60006112b68261163c565b6112c08185611658565b93506112d0818560208601611775565b80840191505092915050565b60006112e9601183611647565b91506112f48261199a565b602082019050919050565b600061130c602683611647565b9150611317826119c3565b604082019050919050565b600061132f602083611647565b915061133a82611a12565b602082019050919050565b6000611352601683611647565b915061135d82611a3b565b602082019050919050565b6000611375601683611647565b915061138082611a64565b602082019050919050565b6000611398601083611647565b91506113a382611a8d565b602082019050919050565b6113b78161175c565b82525050565b60006113c982856112ab565b91506113d582846112ab565b91508190509392505050565b60006020820190506113f66000830184611254565b92915050565b60006020820190506114116000830184611263565b92915050565b600060208201905081810360008301526114318184611272565b905092915050565b600060808201905081810360008301526114538187611272565b905061146260208301866113ae565b61146f60408301856113ae565b61147c6060830184611254565b95945050505050565b6000602082019050818103600083015261149e816112dc565b9050919050565b600060208201905081810360008301526114be816112ff565b9050919050565b600060208201905081810360008301526114de81611322565b9050919050565b600060208201905081810360008301526114fe81611345565b9050919050565b6000602082019050818103600083015261151e81611368565b9050919050565b6000602082019050818103600083015261153e8161138b565b9050919050565b600060208201905061155a60008301846113ae565b92915050565b600060a08201905061157560008301886113ae565b81810360208301526115878187611272565b905061159660408301866113ae565b6115a360608301856113ae565b6115b06080830184611254565b9695505050505050565b60006115c46115d5565b90506115d082826117da565b919050565b6000604051905090565b600067ffffffffffffffff8211156115fa576115f9611941565b5b602082029050602081019050919050565b600067ffffffffffffffff82111561162657611625611941565b5b61162f82611989565b9050602081019050919050565b600081519050919050565b600082825260208201905092915050565b600081905092915050565b600061166e8261175c565b91506116798361175c565b9250827fffffffffffffffffffffffffffffffffffffffffffffffffffffffffffffffff038211156116ae576116ad611885565b5b828201905092915050565b60006116c48261175c565b91506116cf8361175c565b9250826116df576116de6118b4565b5b828204905092915050565b60006116f58261175c565b91506117008361175c565b92508282101561171357611712611885565b5b828203905092915050565b60006117298261173c565b9050919050565b60008115159050919050565b600073ffffffffffffffffffffffffffffffffffffffff82169050919050565b6000819050919050565b82818337600083830152505050565b60005b83811015611793578082015181840152602081019050611778565b838111156117a2576000848401525b50505050565b600060028204905060018216806117c057607f821691505b602082108114156117d4576117d36118e3565b5b50919050565b6117e382611989565b810181811067ffffffffffffffff8211171561180257611801611941565b5b80604052505050565b60006118168261175c565b91507fffffffffffffffffffffffffffffffffffffffffffffffffffffffffffffffff82141561184957611848611885565b5b600182019050919050565b600061185f8261175c565b915061186a8361175c565b92508261187a576118796118b4565b5b828206905092915050565b7f4e487b7100000000000000000000000000000000000000000000000000000000600052601160045260246000fd5b7f4e487b7100000000000000000000000000000000000000000000000000000000600052601260045260246000fd5b7f4e487b7100000000000000000000000000000000000000000000000000000000600052602260045260246000fd5b7f4e487b7100000000000000000000000000000000000000000000000000000000600052603260045260246000fd5b7f4e487b7100000000000000000000000000000000000000000000000000000000600052604160045260246000fd5b600080fd5b600080fd5b600080fd5b600080fd5b600080fd5b6000601f19601f8301169050919050565b7f50424d206e6f74207265766f6b61626c65000000000000000000000000000000600082015250565b7f4f776e61626c653a206e6577206f776e657220697320746865207a65726f206160008201527f6464726573730000000000000000000000000000000000000000000000000000602082015250565b7f4f776e61626c653a2063616c6c6572206973206e6f7420746865206f776e6572600082015250565b7f496e76616c696420746f6b656e206578706972792d3100000000000000000000600082015250565b7f496e76616c696420746f6b656e206578706972792d3200000000000000000000600082015250565b7f53706f7420616d6f756e74206973203000000000000000000000000000000000600082015250565b611abf8161171e565b8114611aca57600080fd5b50565b611ad68161175c565b8114611ae157600080fd5b5056fea2646970667358221220781ef39a2ed0d89047d2083c99d8236d98a4a4c3a4b66f575d5ce46f14df81e764736f6c63430008070033",
  "immutableReferences": {
    "2610": [
      {
        "length": 32,
        "start": 3224
      }
    ]
  },
  "source": "// SPDX-License-Identifier: MIT\npragma solidity ^0.8.0; \n\nimport \"./IPBMTokenManager.sol\";\nimport \"./NoDelegateCall.sol\";\n\nimport \"@openzeppelin/contracts/utils/Strings.sol\";\nimport \"@openzeppelin/contracts/access/Ownable.sol\";\n\ncontract PBMTokenManager is Ownable, IPBMTokenManager, NoDelegateCall {\n    using Strings for uint256;\n\n    uint256 private tokenTypeCount = 0 ; \n\n    struct TokenConfig {\n        string name ; \n        uint256 amount ; \n        uint256 expiry ; \n        address creator ; \n        uint256 balanceSupply ; \n        string uri ; \n    }\n\n    // URI for tokens after expiry\n    string  internal  URIPostExpiry ; \n\n    // tokenId mappings\n    mapping (uint256 => TokenConfig) internal tokenTypes ; \n\n    constructor(string memory _uriPostExpiry){\n        URIPostExpiry = _uriPostExpiry ; \n    }\n        \n    function createTokenType(string memory companyName, uint256 spotAmount, uint256 tokenExpiry, address creator, string memory tokenURI, uint256 contractExpiry) \n    external \n    override \n    onlyOwner\n    noDelegateCall\n    {   \n        require(tokenExpiry <= contractExpiry, \"Invalid token expiry-1\") ; \n        require(tokenExpiry > block.timestamp , \"Invalid token expiry-2\") ; \n        require(spotAmount != 0 , \"Spot amount is 0\") ;  \n\n        string memory tokenName = string(abi.encodePacked(companyName,spotAmount.toString())) ; \n        tokenTypes[tokenTypeCount].name = tokenName ; \n        tokenTypes[tokenTypeCount].amount = spotAmount ; \n        tokenTypes[tokenTypeCount].expiry = tokenExpiry ; \n        tokenTypes[tokenTypeCount].creator = creator ; \n        tokenTypes[tokenTypeCount].balanceSupply = 0 ; \n        tokenTypes[tokenTypeCount].uri = tokenURI ; \n\n        emit NewPBMTypeCreated(tokenTypeCount, tokenName, spotAmount, tokenExpiry, creator);\n        tokenTypeCount += 1 ;\n    }\n\n    function revokePBM(uint256 tokenId, address sender)\n    external\n    override\n    onlyOwner\n    {\n        require (sender == tokenTypes[tokenId].creator && block.timestamp >= tokenTypes[tokenId].expiry, \"PBM not revokable\") ;\n        tokenTypes[tokenId].balanceSupply = 0 ; \n    }\n\n    function increaseBalanceSupply(uint256[] memory tokenIds, uint256[] memory amounts)\n    external\n    override\n    onlyOwner\n    {   \n        for (uint256 i = 0; i < tokenIds.length; i++) {\n            tokenTypes[tokenIds[i]].balanceSupply += amounts[i] ;\n        }\n    }\n\n    function decreaseBalanceSupply(uint256[] memory tokenIds, uint256[] memory amounts)\n    external \n    override\n    onlyOwner\n    {   \n        for (uint256 i = 0; i < tokenIds.length; i++) {\n            tokenTypes[tokenIds[i]].balanceSupply -= amounts[i] ;\n        }\n    }\n\n    function uri(uint256 tokenId)\n    external\n    override\n    view\n    returns (string memory)\n    {\n        if (block.timestamp >= tokenTypes[tokenId].expiry){\n            return URIPostExpiry ; \n        }\n        return tokenTypes[tokenId].uri ; \n    }\n\n    function areTokensValid(uint256[] memory tokenIds) \n    external \n    override\n    view \n    returns (bool) {\n        for (uint256 i = 0; i < tokenIds.length; i++) {\n            if (block.timestamp > tokenTypes[i].expiry || tokenTypes[i].amount == 0){\n                return false ; \n            }\n        } \n        return true ; \n    }   \n\n    function getTokenDetails(uint256 tokenId) \n    external \n    override\n    view \n    returns (string memory, uint256, uint256, address) \n    {\n        return (tokenTypes[tokenId].name, tokenTypes[tokenId].amount, tokenTypes[tokenId].expiry, tokenTypes[tokenId].creator) ; \n    }\n\n    function getTokenValue(uint256 tokenId)\n    external \n    override\n    view \n    returns (uint256) {\n        return tokenTypes[tokenId].amount ; \n    }\n\n    function getTokenCount(uint256 tokenId)\n    external \n    override\n    view \n    returns (uint256) {\n        return tokenTypes[tokenId].balanceSupply ; \n    }\n\n    function getTokenCreator(uint256 tokenId)\n    external \n    override\n    view \n    returns (address) {\n        return tokenTypes[tokenId].creator ; \n    }\n}",
  "sourcePath": "/Users/mihir/Desktop/code/Orchid-PBM/contracts/PBMTokenManager.sol",
  "compiler": {
    "name": "solc",
    "version": "0.8.7+commit.e28d00a7.Emscripten.clang"
  },
  "schemaVersion": "3.4.3",
  "updatedAt": "2022-09-19T08:21:04.275Z",
  "devdoc": {
    "kind": "dev",
    "methods": {
      "areTokensValid(uint256[])": {
        "params": {
          "tokenIds": "The ids for the PBM in query"
        },
        "returns": {
          "_0": "Returns true if all the tokenId are valid else false"
        }
      },
      "createTokenType(string,uint256,uint256,address,string,uint256)": {
        "params": {
          "companyName": "The name of the company/agency issuing this PBM type",
          "contractExpiry": "the expiry time (in epoch) for the overall PBM contract",
          "creator": "The address of the account that creates the PBM type",
          "spotAmount": "The number of ERC-20 tokens that is used as the underlying currency for PBM",
          "tokenExpiry": "The expiry date (in epoch) of th PBM type",
          "tokenURI": "the URI containting the metadata (opensea standard for ERC1155) for the  PBM type"
        }
      },
      "decreaseBalanceSupply(uint256[],uint256[])": {
        "params": {
          "amounts": "The amounts by whch the supply counnt needs to be decreased",
          "tokenIds": "The ids for which the supply count needs to be decreased"
        }
      },
      "getTokenCount(uint256)": {
        "params": {
          "tokenId": "The id for the PBM in query"
        },
        "returns": {
          "_0": "Returns the count of the PBM"
        }
      },
      "getTokenCreator(uint256)": {
        "params": {
          "tokenId": "The id for the PBM in query"
        },
        "returns": {
          "_0": "Returns the address of the creator"
        }
      },
      "getTokenDetails(uint256)": {
        "params": {
          "tokenId": "The id for the PBM in query"
        },
        "returns": {
          "_0": "The name of the PBM type",
          "_1": "Amount of underlying ERC20 held by the each of the PBM token",
          "_2": " Expiry time (in epoch) for the PBM type",
          "_3": "Creator for the PBM type"
        }
      },
      "getTokenValue(uint256)": {
        "params": {
          "tokenId": "The id for the PBM in query"
        },
        "returns": {
          "_0": "Returns the underlying ERC20 amount"
        }
      },
      "increaseBalanceSupply(uint256[],uint256[])": {
        "params": {
          "amounts": "The amounts by whch the supply counnt needs to be increased",
          "tokenIds": "The ids for which the supply count needs to be increased"
        }
      },
      "owner()": {
        "details": "Returns the address of the current owner."
      },
      "renounceOwnership()": {
        "details": "Leaves the contract without owner. It will not be possible to call `onlyOwner` functions anymore. Can only be called by the current owner. NOTE: Renouncing ownership will leave the contract without an owner, thereby removing any functionality that is only available to the owner."
      },
      "revokePBM(uint256,address)": {
        "params": {
          "sender": "updated token URI to convey revoking, if part of design",
          "tokenId": "The PBM tokenId which has been revoked"
        }
      },
      "transferOwnership(address)": {
        "details": "Transfers ownership of the contract to a new account (`newOwner`). Can only be called by the current owner."
      },
      "uri(uint256)": {
        "params": {
          "tokenId": "The id for the PBM in query"
        },
        "returns": {
          "_0": "Returns the metadata URI for the PBM"
        }
      }
    },
    "version": 1
  },
  "userdoc": {
    "events": {
      "NewPBMTypeCreated(uint256,string,uint256,uint256,address)": {
        "notice": "Event emitted when a new PBM token type is created"
      }
    },
    "kind": "user",
    "methods": {
      "areTokensValid(uint256[])": {
        "notice": "Checks if tokens Ids have been created and are not expired"
      },
      "createTokenType(string,uint256,uint256,address,string,uint256)": {
        "notice": "Sets the allowance of a spender from the `msg.sender` to the value `amount`"
      },
      "decreaseBalanceSupply(uint256[],uint256[])": {
        "notice": "decreases the supply count for the PBM "
      },
      "getTokenCount(uint256)": {
        "notice": "gets the count of the PBM type in supply "
      },
      "getTokenCreator(uint256)": {
        "notice": "gets the address of the creator of the PBM type "
      },
      "getTokenDetails(uint256)": {
        "notice": "Retreive the details for a PBM"
      },
      "getTokenValue(uint256)": {
        "notice": "gets the amount of underlying ERC20 tokens the PBM type holds "
      },
      "increaseBalanceSupply(uint256[],uint256[])": {
        "notice": "increases the supply count for the PBM "
      },
      "revokePBM(uint256,address)": {
        "notice": "performs all the necessary actions required after the revoking of a PBM type"
      },
      "uri(uint256)": {
        "notice": "Returns the URI (metadata) for the PBM with the corresponding tokenId"
      }
    },
    "version": 1
  }
}