{
  "contractName": "PBMTokenManager",
  "abi": [
    {
      "inputs": [
        {
          "internalType": "string",
          "name": "_uriPostExpiry",
          "type": "string"
        }
      ],
      "stateMutability": "nonpayable",
      "type": "constructor"
    },
    {
      "anonymous": false,
      "inputs": [
        {
          "indexed": false,
          "internalType": "uint256",
          "name": "tokenId",
          "type": "uint256"
        },
        {
          "indexed": false,
          "internalType": "string",
          "name": "tokenName",
          "type": "string"
        },
        {
          "indexed": false,
          "internalType": "uint256",
          "name": "amount",
          "type": "uint256"
        },
        {
          "indexed": false,
          "internalType": "uint256",
          "name": "expiry",
          "type": "uint256"
        },
        {
          "indexed": false,
          "internalType": "address",
          "name": "creator",
          "type": "address"
        }
      ],
      "name": "NewPBMTypeCreated",
      "type": "event"
    },
    {
      "anonymous": false,
      "inputs": [
        {
          "indexed": true,
          "internalType": "address",
          "name": "previousOwner",
          "type": "address"
        },
        {
          "indexed": true,
          "internalType": "address",
          "name": "newOwner",
          "type": "address"
        }
      ],
      "name": "OwnershipTransferred",
      "type": "event"
    },
    {
      "inputs": [],
      "name": "owner",
      "outputs": [
        {
          "internalType": "address",
          "name": "",
          "type": "address"
        }
      ],
      "stateMutability": "view",
      "type": "function"
    },
    {
      "inputs": [],
      "name": "renounceOwnership",
      "outputs": [],
      "stateMutability": "nonpayable",
      "type": "function"
    },
    {
      "inputs": [
        {
          "internalType": "address",
          "name": "newOwner",
          "type": "address"
        }
      ],
      "name": "transferOwnership",
      "outputs": [],
      "stateMutability": "nonpayable",
      "type": "function"
    },
    {
      "inputs": [
        {
          "internalType": "string",
          "name": "companyName",
          "type": "string"
        },
        {
          "internalType": "uint256",
          "name": "spotAmount",
          "type": "uint256"
        },
        {
          "internalType": "uint256",
          "name": "tokenExpiry",
          "type": "uint256"
        },
        {
          "internalType": "address",
          "name": "creator",
          "type": "address"
        },
        {
          "internalType": "string",
          "name": "tokenURI",
          "type": "string"
        },
        {
          "internalType": "uint256",
          "name": "contractExpiry",
          "type": "uint256"
        }
      ],
      "name": "createTokenType",
      "outputs": [],
      "stateMutability": "nonpayable",
      "type": "function"
    },
    {
      "inputs": [
        {
          "internalType": "uint256",
          "name": "tokenId",
          "type": "uint256"
        },
        {
          "internalType": "address",
          "name": "sender",
          "type": "address"
        }
      ],
      "name": "revokePBM",
      "outputs": [],
      "stateMutability": "nonpayable",
      "type": "function"
    },
    {
      "inputs": [
        {
          "internalType": "uint256[]",
          "name": "tokenIds",
          "type": "uint256[]"
        },
        {
          "internalType": "uint256[]",
          "name": "amounts",
          "type": "uint256[]"
        }
      ],
      "name": "increaseBalanceSupply",
      "outputs": [],
      "stateMutability": "nonpayable",
      "type": "function"
    },
    {
      "inputs": [
        {
          "internalType": "uint256[]",
          "name": "tokenIds",
          "type": "uint256[]"
        },
        {
          "internalType": "uint256[]",
          "name": "amounts",
          "type": "uint256[]"
        }
      ],
      "name": "decreaseBalanceSupply",
      "outputs": [],
      "stateMutability": "nonpayable",
      "type": "function"
    },
    {
      "inputs": [
        {
          "internalType": "uint256",
          "name": "tokenId",
          "type": "uint256"
        }
      ],
      "name": "uri",
      "outputs": [
        {
          "internalType": "string",
          "name": "",
          "type": "string"
        }
      ],
      "stateMutability": "view",
      "type": "function"
    },
    {
      "inputs": [
        {
          "internalType": "uint256[]",
          "name": "tokenIds",
          "type": "uint256[]"
        }
      ],
      "name": "areTokensValid",
      "outputs": [
        {
          "internalType": "bool",
          "name": "",
          "type": "bool"
        }
      ],
      "stateMutability": "view",
      "type": "function"
    },
    {
      "inputs": [
        {
          "internalType": "uint256",
          "name": "tokenId",
          "type": "uint256"
        }
      ],
      "name": "getTokenDetails",
      "outputs": [
        {
          "internalType": "string",
          "name": "",
          "type": "string"
        },
        {
          "internalType": "uint256",
          "name": "",
          "type": "uint256"
        },
        {
          "internalType": "uint256",
          "name": "",
          "type": "uint256"
        },
        {
          "internalType": "address",
          "name": "",
          "type": "address"
        }
      ],
      "stateMutability": "view",
      "type": "function"
    },
    {
      "inputs": [
        {
          "internalType": "uint256",
          "name": "tokenId",
          "type": "uint256"
        }
      ],
      "name": "getPBMRevokeValue",
      "outputs": [
        {
          "internalType": "uint256",
          "name": "",
          "type": "uint256"
        }
      ],
      "stateMutability": "view",
      "type": "function"
    },
    {
      "inputs": [
        {
          "internalType": "uint256",
          "name": "tokenId",
          "type": "uint256"
        }
      ],
      "name": "getTokenValue",
      "outputs": [
        {
          "internalType": "uint256",
          "name": "",
          "type": "uint256"
        }
      ],
      "stateMutability": "view",
      "type": "function"
    },
    {
      "inputs": [
        {
          "internalType": "uint256",
          "name": "tokenId",
          "type": "uint256"
        }
      ],
      "name": "getTokenCount",
      "outputs": [
        {
          "internalType": "uint256",
          "name": "",
          "type": "uint256"
        }
      ],
      "stateMutability": "view",
      "type": "function"
    },
    {
      "inputs": [
        {
          "internalType": "uint256",
          "name": "tokenId",
          "type": "uint256"
        }
      ],
      "name": "getTokenCreator",
      "outputs": [
        {
          "internalType": "address",
          "name": "",
          "type": "address"
        }
      ],
      "stateMutability": "view",
      "type": "function"
    }
  ],
  "bytecode": "0x60a060405260006001553480156200001657600080fd5b506040516200252d3803806200252d83398181016040528101906200003c9190620002ad565b6200005c62000050620000b360201b60201c565b620000bb60201b60201c565b3073ffffffffffffffffffffffffffffffffffffffff1660808173ffffffffffffffffffffffffffffffffffffffff1660601b815250508060029080519060200190620000ab9291906200017f565b505062000482565b600033905090565b60008060009054906101000a900473ffffffffffffffffffffffffffffffffffffffff169050816000806101000a81548173ffffffffffffffffffffffffffffffffffffffff021916908373ffffffffffffffffffffffffffffffffffffffff1602179055508173ffffffffffffffffffffffffffffffffffffffff168173ffffffffffffffffffffffffffffffffffffffff167f8be0079c531659141344cd1fd0a4f28419497f9722a3daafe3b4186f6b6457e060405160405180910390a35050565b8280546200018d9062000393565b90600052602060002090601f016020900481019282620001b15760008555620001fd565b82601f10620001cc57805160ff1916838001178555620001fd565b82800160010185558215620001fd579182015b82811115620001fc578251825591602001919060010190620001df565b5b5090506200020c919062000210565b5090565b5b808211156200022b57600081600090555060010162000211565b5090565b600062000246620002408462000327565b620002fe565b90508281526020810184848401111562000265576200026462000462565b5b620002728482856200035d565b509392505050565b600082601f8301126200029257620002916200045d565b5b8151620002a48482602086016200022f565b91505092915050565b600060208284031215620002c657620002c56200046c565b5b600082015167ffffffffffffffff811115620002e757620002e662000467565b5b620002f5848285016200027a565b91505092915050565b60006200030a6200031d565b9050620003188282620003c9565b919050565b6000604051905090565b600067ffffffffffffffff8211156200034557620003446200042e565b5b620003508262000471565b9050602081019050919050565b60005b838110156200037d57808201518184015260208101905062000360565b838111156200038d576000848401525b50505050565b60006002820490506001821680620003ac57607f821691505b60208210811415620003c357620003c2620003ff565b5b50919050565b620003d48262000471565b810181811067ffffffffffffffff82111715620003f657620003f56200042e565b5b80604052505050565b7f4e487b7100000000000000000000000000000000000000000000000000000000600052602260045260246000fd5b7f4e487b7100000000000000000000000000000000000000000000000000000000600052604160045260246000fd5b600080fd5b600080fd5b600080fd5b600080fd5b6000601f19601f8301169050919050565b60805160601c61208c620004a160003960006110a2015261208c6000f3fe608060405234801561001057600080fd5b50600436106100ea5760003560e01c8063934689a91161008c578063d20874d811610066578063d20874d814610272578063e21c8b59146102a2578063f2fde38b146102be578063f600d9f4146102da576100ea565b8063934689a9146101df578063c1e037281461020f578063d10424c714610242576100ea565b806348fd09f5116100c857806348fd09f51461016b578063715018a61461019b57806380d69c8a146101a55780638da5cb5b146101c1576100ea565b80630e89341c146100ef578063234661c41461011f57806336a3409c1461014f575b600080fd5b61010960048036038101906101049190611627565b6102f6565b604051610116919061189d565b60405180910390f35b61013960048036038101906101349190611627565b61044e565b6040516101469190611a0b565b60405180910390f35b61016960048036038101906101649190611654565b6104e8565b005b610185600480360381019061018091906114a1565b6105d6565b6040516101929190611882565b60405180910390f35b6101a361064e565b005b6101bf60048036038101906101ba9190611562565b610662565b005b6101c96108d5565b6040516101d69190611867565b60405180910390f35b6101f960048036038101906101f49190611627565b6108fe565b6040516102069190611867565b60405180910390f35b61022960048036038101906102249190611627565b6109b8565b60405161023994939291906118bf565b60405180910390f35b61025c60048036038101906102579190611627565b610b2e565b6040516102699190611a0b565b60405180910390f35b61028c60048036038101906102879190611627565b610bc8565b6040516102999190611a0b565b60405180910390f35b6102bc60048036038101906102b791906114ea565b610c62565b005b6102d860048036038101906102d39190611474565b610d9e565b005b6102f460048036038101906102ef91906114ea565b610e22565b005b6060600360008381526020019081526020016000206002015442106103a7576002805461032290611cc8565b80601f016020809104026020016040519081016040528092919081815260200182805461034e90611cc8565b801561039b5780601f106103705761010080835404028352916020019161039b565b820191906000526020600020905b81548152906001019060200180831161037e57829003601f168201915b50505050509050610449565b6003600083815260200190815260200160002060050180546103c890611cc8565b80601f01602080910402602001604051908101604052809291908181526020018280546103f490611cc8565b80156104415780601f1061041657610100808354040283529160200191610441565b820191906000526020600020905b81548152906001019060200180831161042457829003601f168201915b505050505090505b919050565b60008060036000848152602001908152602001600020600101541415801561048b5750600360008381526020019081526020016000206002015442105b6104ca576040517f08c379a00000000000000000000000000000000000000000000000000000000081526004016104c19061192b565b60405180910390fd5b60036000838152602001908152602001600020600401549050919050565b6104f0610f5e565b6003600083815260200190815260200160002060030160009054906101000a900473ffffffffffffffffffffffffffffffffffffffff1673ffffffffffffffffffffffffffffffffffffffff168173ffffffffffffffffffffffffffffffffffffffff16148015610577575060036000838152602001908152602001600020600201544210155b6105b6576040517f08c379a00000000000000000000000000000000000000000000000000000000081526004016105ad9061190b565b60405180910390fd5b600060036000848152602001908152602001600020600401819055505050565b600080600090505b8251811015610643576003600082815260200190815260200160002060020154421180610621575060006003600083815260200190815260200160002060010154145b15610630576000915050610649565b808061063b90611d2b565b9150506105de565b50600190505b919050565b610656610f5e565b6106606000610fdc565b565b61066a610f5e565b6106726110a0565b808411156106b5576040517f08c379a00000000000000000000000000000000000000000000000000000000081526004016106ac9061198b565b60405180910390fd5b4284116106f7576040517f08c379a00000000000000000000000000000000000000000000000000000000081526004016106ee906119ab565b60405180910390fd5b600085141561073b576040517f08c379a0000000000000000000000000000000000000000000000000000000008152600401610732906119cb565b60405180910390fd5b60008661074787611130565b604051602001610758929190611843565b6040516020818303038152906040529050806003600060015481526020019081526020016000206000019080519060200190610795929190611299565b50856003600060015481526020019081526020016000206001018190555084600360006001548152602001908152602001600020600201819055508360036000600154815260200190815260200160002060030160006101000a81548173ffffffffffffffffffffffffffffffffffffffff021916908373ffffffffffffffffffffffffffffffffffffffff160217905550600060036000600154815260200190815260200160002060040181905550826003600060015481526020019081526020016000206005019080519060200190610871929190611299565b507fbbb805bf89819da42bb55052edd2bf6db1c2256ec4c19cf1607de95efc92762f600154828888886040516108ab959493929190611a26565b60405180910390a160018060008282546108c59190611b29565b9250508190555050505050505050565b60008060009054906101000a900473ffffffffffffffffffffffffffffffffffffffff16905090565b60008060036000848152602001908152602001600020600101541415801561093b5750600360008381526020019081526020016000206002015442105b61097a576040517f08c379a00000000000000000000000000000000000000000000000000000000081526004016109719061192b565b60405180910390fd5b6003600083815260200190815260200160002060030160009054906101000a900473ffffffffffffffffffffffffffffffffffffffff169050919050565b606060008060008060036000878152602001908152602001600020600101541415610a18576040517f08c379a0000000000000000000000000000000000000000000000000000000008152600401610a0f9061192b565b60405180910390fd5b60036000868152602001908152602001600020600001600360008781526020019081526020016000206001015460036000888152602001908152602001600020600201546003600089815260200190815260200160002060030160009054906101000a900473ffffffffffffffffffffffffffffffffffffffff16838054610a9f90611cc8565b80601f0160208091040260200160405190810160405280929190818152602001828054610acb90611cc8565b8015610b185780601f10610aed57610100808354040283529160200191610b18565b820191906000526020600020905b815481529060010190602001808311610afb57829003601f168201915b5050505050935093509350935093509193509193565b600080600360008481526020019081526020016000206001015414158015610b6b5750600360008381526020019081526020016000206002015442105b610baa576040517f08c379a0000000000000000000000000000000000000000000000000000000008152600401610ba19061192b565b60405180910390fd5b60036000838152602001908152602001600020600101549050919050565b60008060036000848152602001908152602001600020600101541415610c23576040517f08c379a0000000000000000000000000000000000000000000000000000000008152600401610c1a9061192b565b60405180910390fd5b60036000838152602001908152602001600020600401546003600084815260200190815260200160002060010154610c5b9190611bb0565b9050919050565b610c6a610f5e565b60005b8251811015610d9957600060036000858481518110610c8f57610c8e611e32565b5b602002602001015181526020019081526020016000206001015414158015610ce6575060036000848381518110610cc957610cc8611e32565b5b602002602001015181526020019081526020016000206002015442105b610d25576040517f08c379a0000000000000000000000000000000000000000000000000000000008152600401610d1c9061192b565b60405180910390fd5b818181518110610d3857610d37611e32565b5b602002602001015160036000858481518110610d5757610d56611e32565b5b602002602001015181526020019081526020016000206004016000828254610d7f9190611c0a565b925050819055508080610d9190611d2b565b915050610c6d565b505050565b610da6610f5e565b600073ffffffffffffffffffffffffffffffffffffffff168173ffffffffffffffffffffffffffffffffffffffff161415610e16576040517f08c379a0000000000000000000000000000000000000000000000000000000008152600401610e0d9061194b565b60405180910390fd5b610e1f81610fdc565b50565b610e2a610f5e565b60005b8251811015610f5957600060036000858481518110610e4f57610e4e611e32565b5b602002602001015181526020019081526020016000206001015414158015610ea6575060036000848381518110610e8957610e88611e32565b5b602002602001015181526020019081526020016000206002015442105b610ee5576040517f08c379a0000000000000000000000000000000000000000000000000000000008152600401610edc9061192b565b60405180910390fd5b818181518110610ef857610ef7611e32565b5b602002602001015160036000858481518110610f1757610f16611e32565b5b602002602001015181526020019081526020016000206004016000828254610f3f9190611b29565b925050819055508080610f5190611d2b565b915050610e2d565b505050565b610f66611291565b73ffffffffffffffffffffffffffffffffffffffff16610f846108d5565b73ffffffffffffffffffffffffffffffffffffffff1614610fda576040517f08c379a0000000000000000000000000000000000000000000000000000000008152600401610fd19061196b565b60405180910390fd5b565b60008060009054906101000a900473ffffffffffffffffffffffffffffffffffffffff169050816000806101000a81548173ffffffffffffffffffffffffffffffffffffffff021916908373ffffffffffffffffffffffffffffffffffffffff1602179055508173ffffffffffffffffffffffffffffffffffffffff168173ffffffffffffffffffffffffffffffffffffffff167f8be0079c531659141344cd1fd0a4f28419497f9722a3daafe3b4186f6b6457e060405160405180910390a35050565b7f000000000000000000000000000000000000000000000000000000000000000073ffffffffffffffffffffffffffffffffffffffff163073ffffffffffffffffffffffffffffffffffffffff161461112e576040517f08c379a0000000000000000000000000000000000000000000000000000000008152600401611125906119eb565b60405180910390fd5b565b60606000821415611178576040518060400160405280600181526020017f3000000000000000000000000000000000000000000000000000000000000000815250905061128c565b600082905060005b600082146111aa57808061119390611d2b565b915050600a826111a39190611b7f565b9150611180565b60008167ffffffffffffffff8111156111c6576111c5611e61565b5b6040519080825280601f01601f1916602001820160405280156111f85781602001600182028036833780820191505090505b5090505b60008514611285576001826112119190611c0a565b9150600a856112209190611d74565b603061122c9190611b29565b60f81b81838151811061124257611241611e32565b5b60200101907effffffffffffffffffffffffffffffffffffffffffffffffffffffffffffff1916908160001a905350600a8561127e9190611b7f565b94506111fc565b8093505050505b919050565b600033905090565b8280546112a590611cc8565b90600052602060002090601f0160209004810192826112c7576000855561130e565b82601f106112e057805160ff191683800117855561130e565b8280016001018555821561130e579182015b8281111561130d5782518255916020019190600101906112f2565b5b50905061131b919061131f565b5090565b5b80821115611338576000816000905550600101611320565b5090565b600061134f61134a84611aa5565b611a80565b9050808382526020820190508285602086028201111561137257611371611e95565b5b60005b858110156113a25781611388888261145f565b845260208401935060208301925050600181019050611375565b5050509392505050565b60006113bf6113ba84611ad1565b611a80565b9050828152602081018484840111156113db576113da611e9a565b5b6113e6848285611c86565b509392505050565b6000813590506113fd81612028565b92915050565b600082601f83011261141857611417611e90565b5b813561142884826020860161133c565b91505092915050565b600082601f83011261144657611445611e90565b5b81356114568482602086016113ac565b91505092915050565b60008135905061146e8161203f565b92915050565b60006020828403121561148a57611489611ea4565b5b6000611498848285016113ee565b91505092915050565b6000602082840312156114b7576114b6611ea4565b5b600082013567ffffffffffffffff8111156114d5576114d4611e9f565b5b6114e184828501611403565b91505092915050565b6000806040838503121561150157611500611ea4565b5b600083013567ffffffffffffffff81111561151f5761151e611e9f565b5b61152b85828601611403565b925050602083013567ffffffffffffffff81111561154c5761154b611e9f565b5b61155885828601611403565b9150509250929050565b60008060008060008060c0878903121561157f5761157e611ea4565b5b600087013567ffffffffffffffff81111561159d5761159c611e9f565b5b6115a989828a01611431565b96505060206115ba89828a0161145f565b95505060406115cb89828a0161145f565b94505060606115dc89828a016113ee565b935050608087013567ffffffffffffffff8111156115fd576115fc611e9f565b5b61160989828a01611431565b92505060a061161a89828a0161145f565b9150509295509295509295565b60006020828403121561163d5761163c611ea4565b5b600061164b8482850161145f565b91505092915050565b6000806040838503121561166b5761166a611ea4565b5b60006116798582860161145f565b925050602061168a858286016113ee565b9150509250929050565b61169d81611c3e565b82525050565b6116ac81611c50565b82525050565b60006116bd82611b02565b6116c78185611b0d565b93506116d7818560208601611c95565b6116e081611ea9565b840191505092915050565b60006116f682611b02565b6117008185611b1e565b9350611710818560208601611c95565b80840191505092915050565b6000611729601183611b0d565b915061173482611eba565b602082019050919050565b600061174c601883611b0d565b915061175782611ee3565b602082019050919050565b600061176f602683611b0d565b915061177a82611f0c565b604082019050919050565b6000611792602083611b0d565b915061179d82611f5b565b602082019050919050565b60006117b5601683611b0d565b91506117c082611f84565b602082019050919050565b60006117d8601683611b0d565b91506117e382611fad565b602082019050919050565b60006117fb601083611b0d565b915061180682611fd6565b602082019050919050565b600061181e601983611b0d565b915061182982611fff565b602082019050919050565b61183d81611c7c565b82525050565b600061184f82856116eb565b915061185b82846116eb565b91508190509392505050565b600060208201905061187c6000830184611694565b92915050565b600060208201905061189760008301846116a3565b92915050565b600060208201905081810360008301526118b781846116b2565b905092915050565b600060808201905081810360008301526118d981876116b2565b90506118e86020830186611834565b6118f56040830185611834565b6119026060830184611694565b95945050505050565b600060208201905081810360008301526119248161171c565b9050919050565b600060208201905081810360008301526119448161173f565b9050919050565b6000602082019050818103600083015261196481611762565b9050919050565b6000602082019050818103600083015261198481611785565b9050919050565b600060208201905081810360008301526119a4816117a8565b9050919050565b600060208201905081810360008301526119c4816117cb565b9050919050565b600060208201905081810360008301526119e4816117ee565b9050919050565b60006020820190508181036000830152611a0481611811565b9050919050565b6000602082019050611a206000830184611834565b92915050565b600060a082019050611a3b6000830188611834565b8181036020830152611a4d81876116b2565b9050611a5c6040830186611834565b611a696060830185611834565b611a766080830184611694565b9695505050505050565b6000611a8a611a9b565b9050611a968282611cfa565b919050565b6000604051905090565b600067ffffffffffffffff821115611ac057611abf611e61565b5b602082029050602081019050919050565b600067ffffffffffffffff821115611aec57611aeb611e61565b5b611af582611ea9565b9050602081019050919050565b600081519050919050565b600082825260208201905092915050565b600081905092915050565b6000611b3482611c7c565b9150611b3f83611c7c565b9250827fffffffffffffffffffffffffffffffffffffffffffffffffffffffffffffffff03821115611b7457611b73611da5565b5b828201905092915050565b6000611b8a82611c7c565b9150611b9583611c7c565b925082611ba557611ba4611dd4565b5b828204905092915050565b6000611bbb82611c7c565b9150611bc683611c7c565b9250817fffffffffffffffffffffffffffffffffffffffffffffffffffffffffffffffff0483118215151615611bff57611bfe611da5565b5b828202905092915050565b6000611c1582611c7c565b9150611c2083611c7c565b925082821015611c3357611c32611da5565b5b828203905092915050565b6000611c4982611c5c565b9050919050565b60008115159050919050565b600073ffffffffffffffffffffffffffffffffffffffff82169050919050565b6000819050919050565b82818337600083830152505050565b60005b83811015611cb3578082015181840152602081019050611c98565b83811115611cc2576000848401525b50505050565b60006002820490506001821680611ce057607f821691505b60208210811415611cf457611cf3611e03565b5b50919050565b611d0382611ea9565b810181811067ffffffffffffffff82111715611d2257611d21611e61565b5b80604052505050565b6000611d3682611c7c565b91507fffffffffffffffffffffffffffffffffffffffffffffffffffffffffffffffff821415611d6957611d68611da5565b5b600182019050919050565b6000611d7f82611c7c565b9150611d8a83611c7c565b925082611d9a57611d99611dd4565b5b828206905092915050565b7f4e487b7100000000000000000000000000000000000000000000000000000000600052601160045260246000fd5b7f4e487b7100000000000000000000000000000000000000000000000000000000600052601260045260246000fd5b7f4e487b7100000000000000000000000000000000000000000000000000000000600052602260045260246000fd5b7f4e487b7100000000000000000000000000000000000000000000000000000000600052603260045260246000fd5b7f4e487b7100000000000000000000000000000000000000000000000000000000600052604160045260246000fd5b600080fd5b600080fd5b600080fd5b600080fd5b600080fd5b6000601f19601f8301169050919050565b7f50424d206e6f74207265766f6b61626c65000000000000000000000000000000600082015250565b7f50424d3a20496e76616c696420546f6b656e2049642873290000000000000000600082015250565b7f4f776e61626c653a206e6577206f776e657220697320746865207a65726f206160008201527f6464726573730000000000000000000000000000000000000000000000000000602082015250565b7f4f776e61626c653a2063616c6c6572206973206e6f7420746865206f776e6572600082015250565b7f496e76616c696420746f6b656e206578706972792d3100000000000000000000600082015250565b7f496e76616c696420746f6b656e206578706972792d3200000000000000000000600082015250565b7f53706f7420616d6f756e74206973203000000000000000000000000000000000600082015250565b7f44656c65676174652063616c6c73207265737472696374656400000000000000600082015250565b61203181611c3e565b811461203c57600080fd5b50565b61204881611c7c565b811461205357600080fd5b5056fea264697066735822122058707fee7a0f38a6c3286c3dab6b31248872a1d8987ecbbce0b7d9521c86351364736f6c63430008070033",
  "immutableReferences": {
    "2743": [
      {
        "length": 32,
        "start": 4258
      }
    ]
  },
  "source": "// SPDX-License-Identifier: MIT\npragma solidity ^0.8.0; \n\nimport \"./IPBMTokenManager.sol\";\nimport \"./NoDelegateCall.sol\";\n\nimport \"@openzeppelin/contracts/utils/Strings.sol\";\nimport \"@openzeppelin/contracts/access/Ownable.sol\";\n\ncontract PBMTokenManager is Ownable, IPBMTokenManager, NoDelegateCall {\n    using Strings for uint256;\n\n    // counter used to create new token types\n    uint256 internal tokenTypeCount = 0 ; \n\n    // structure representing all the details of a PBM type\n    struct TokenConfig {\n        string name ; \n        uint256 amount ; \n        uint256 expiry ; \n        address creator ; \n        uint256 balanceSupply ; \n        string uri ; \n    }\n\n    // URI for tokens after expiry\n    string  internal  URIPostExpiry ; \n\n    // mapping of token ids to token details\n    mapping (uint256 => TokenConfig) internal tokenTypes ; \n\n    constructor(string memory _uriPostExpiry){\n        URIPostExpiry = _uriPostExpiry ; \n    }\n\n    /**\n     * @dev See {IPBMTokenManager-createPBMTokenType}.\n     *\n     * Requirements:\n     *\n     * - caller must be owner ( PBM contract )\n     * - contract must not be expired\n     * - token expiry must be less than contract expiry\n     * - `amount` should not be 0\n     */ \n    function createTokenType(string memory companyName, uint256 spotAmount, uint256 tokenExpiry, address creator, string memory tokenURI, uint256 contractExpiry) \n    external \n    override \n    onlyOwner\n    noDelegateCall\n    {   \n        require(tokenExpiry <= contractExpiry, \"Invalid token expiry-1\") ; \n        require(tokenExpiry > block.timestamp , \"Invalid token expiry-2\") ; \n        require(spotAmount != 0 , \"Spot amount is 0\") ;  \n\n        string memory tokenName = string(abi.encodePacked(companyName,spotAmount.toString())) ; \n        tokenTypes[tokenTypeCount].name = tokenName ; \n        tokenTypes[tokenTypeCount].amount = spotAmount ; \n        tokenTypes[tokenTypeCount].expiry = tokenExpiry ; \n        tokenTypes[tokenTypeCount].creator = creator ; \n        tokenTypes[tokenTypeCount].balanceSupply = 0 ; \n        tokenTypes[tokenTypeCount].uri = tokenURI ; \n\n        emit NewPBMTypeCreated(tokenTypeCount, tokenName, spotAmount, tokenExpiry, creator);\n        tokenTypeCount += 1 ;\n    }\n\n    /**\n     * @dev See {IPBMTokenManager-revokePBM}.\n     *\n     * Requirements:\n     *\n     * - caller must be owner ( PBM contract )\n     * - token must be expired\n     * - `tokenId` should be a valid id that has already been created\n     * - `sender` must be the token type creator\n     */ \n    function revokePBM(uint256 tokenId, address sender)\n    external\n    override\n    onlyOwner\n    {\n        \n        require (sender == tokenTypes[tokenId].creator && block.timestamp >= tokenTypes[tokenId].expiry, \"PBM not revokable\") ;\n        tokenTypes[tokenId].balanceSupply = 0 ; \n    }\n\n    /**\n     * @dev See {IPBMTokenManager-increaseBalanceSupply}.\n     *\n     * Requirements:\n     *\n     * - caller must be owner ( PBM contract )\n     * - `tokenId` should be a valid id that has already been created\n     * - `sender` must be the token type creator\n     */ \n    function increaseBalanceSupply(uint256[] memory tokenIds, uint256[] memory amounts)\n    external\n    override\n    onlyOwner\n    {  \n        for (uint256 i = 0; i < tokenIds.length; i++) {\n            require(tokenTypes[tokenIds[i]].amount!=0 && block.timestamp < tokenTypes[tokenIds[i]].expiry, \"PBM: Invalid Token Id(s)\"); \n            tokenTypes[tokenIds[i]].balanceSupply += amounts[i] ;\n        }\n    }\n\n    /**\n     * @dev See {IPBMTokenManager-decreaseBalanceSupply}.\n     *\n     * Requirements:\n     *\n     * - caller must be owner ( PBM contract )\n     * - `tokenId` should be a valid id that has already been created\n     * - `sender` must be the token type creator\n     */ \n    function decreaseBalanceSupply(uint256[] memory tokenIds, uint256[] memory amounts)\n    external \n    override\n    onlyOwner\n    {   \n        for (uint256 i = 0; i < tokenIds.length; i++) {\n            require(tokenTypes[tokenIds[i]].amount!=0 && block.timestamp < tokenTypes[tokenIds[i]].expiry, \"PBM: Invalid Token Id(s)\"); \n            tokenTypes[tokenIds[i]].balanceSupply -= amounts[i] ;\n        }\n    }\n\n    /**\n     * @dev See {IPBMTokenManager-uri}.\n     *\n     */ \n    function uri(uint256 tokenId)\n    external\n    override\n    view\n    returns (string memory)\n    {\n        if (block.timestamp >= tokenTypes[tokenId].expiry){\n            return URIPostExpiry ; \n        }\n        return tokenTypes[tokenId].uri ; \n    }\n\n    /**\n     * @dev See {IPBMTokenManager-areTokensValid}.\n     *\n     */ \n    function areTokensValid(uint256[] memory tokenIds) \n    external \n    override\n    view \n    returns (bool) {\n        for (uint256 i = 0; i < tokenIds.length; i++) {\n            if (block.timestamp > tokenTypes[i].expiry || tokenTypes[i].amount == 0){\n                return false ; \n            }\n        } \n        return true ; \n    }   \n\n    /**\n     * @dev See {IPBMTokenManager-getTokenDetails}.\n     *\n     * Requirements:\n     *\n     * - `tokenId` should be a valid id that has already been created\n     */ \n    function getTokenDetails(uint256 tokenId) \n    external \n    override\n    view \n    returns (string memory, uint256, uint256, address) \n    {\n        require(tokenTypes[tokenId].amount!=0, \"PBM: Invalid Token Id(s)\"); \n        return (tokenTypes[tokenId].name, tokenTypes[tokenId].amount, tokenTypes[tokenId].expiry, tokenTypes[tokenId].creator) ; \n    }\n\n    /**\n     * @dev See {IPBMTokenManager-getPBMRevokeValue}.\n     *\n     * Requirements:\n     *\n     * - `tokenId` should be a valid id that has already been created\n     */ \n    function getPBMRevokeValue(uint256 tokenId)\n    external \n    override \n    view \n    returns (uint256)\n    {\n        require(tokenTypes[tokenId].amount!=0, \"PBM: Invalid Token Id(s)\"); \n        return tokenTypes[tokenId].amount*tokenTypes[tokenId].balanceSupply; \n    }\n\n    /**\n     * @dev See {IPBMTokenManager-getTokenValue}.\n     *\n     * Requirements:\n     *\n     * - `tokenId` should be a valid id that has already been created\n     */ \n    function getTokenValue(uint256 tokenId)\n    external \n    override\n    view \n    returns (uint256) {\n        require(tokenTypes[tokenId].amount!=0 && block.timestamp < tokenTypes[tokenId].expiry, \"PBM: Invalid Token Id(s)\"); \n        return tokenTypes[tokenId].amount ; \n    }\n\n    /**\n     * @dev See {IPBMTokenManager-getTokenCount}.\n     *\n     * Requirements:\n     *\n     * - `tokenId` should be a valid id that has already been created\n     */ \n    function getTokenCount(uint256 tokenId)\n    external \n    override\n    view \n    returns (uint256) {\n        require(tokenTypes[tokenId].amount!=0 && block.timestamp < tokenTypes[tokenId].expiry, \"PBM: Invalid Token Id(s)\"); \n        return tokenTypes[tokenId].balanceSupply ; \n    }\n\n    /**\n     * @dev See {IPBMTokenManager-getTokenCreator}.\n     *\n     * Requirements:\n     *\n     * - `tokenId` should be a valid id that has already been created\n     */ \n    function getTokenCreator(uint256 tokenId)\n    external \n    override\n    view \n    returns (address) {\n        require(tokenTypes[tokenId].amount!=0 && block.timestamp < tokenTypes[tokenId].expiry, \"PBM: Invalid Token Id(s)\"); \n        return tokenTypes[tokenId].creator ; \n    }\n}",
  "sourcePath": "/Users/mihir/Desktop/code/Orchid-PBM/contracts/PBMTokenManager.sol",
  "compiler": {
    "name": "solc",
    "version": "0.8.7+commit.e28d00a7.Emscripten.clang"
  },
  "schemaVersion": "3.4.3",
  "updatedAt": "2022-10-25T08:22:40.077Z",
  "devdoc": {
    "kind": "dev",
    "methods": {
      "areTokensValid(uint256[])": {
        "details": "See {IPBMTokenManager-areTokensValid}."
      },
      "createTokenType(string,uint256,uint256,address,string,uint256)": {
        "details": "See {IPBMTokenManager-createPBMTokenType}. Requirements: - caller must be owner ( PBM contract ) - contract must not be expired - token expiry must be less than contract expiry - `amount` should not be 0"
      },
      "decreaseBalanceSupply(uint256[],uint256[])": {
        "details": "See {IPBMTokenManager-decreaseBalanceSupply}. Requirements: - caller must be owner ( PBM contract ) - `tokenId` should be a valid id that has already been created - `sender` must be the token type creator"
      },
      "getPBMRevokeValue(uint256)": {
        "details": "See {IPBMTokenManager-getPBMRevokeValue}. Requirements: - `tokenId` should be a valid id that has already been created"
      },
      "getTokenCount(uint256)": {
        "details": "See {IPBMTokenManager-getTokenCount}. Requirements: - `tokenId` should be a valid id that has already been created"
      },
      "getTokenCreator(uint256)": {
        "details": "See {IPBMTokenManager-getTokenCreator}. Requirements: - `tokenId` should be a valid id that has already been created"
      },
      "getTokenDetails(uint256)": {
        "details": "See {IPBMTokenManager-getTokenDetails}. Requirements: - `tokenId` should be a valid id that has already been created"
      },
      "getTokenValue(uint256)": {
        "details": "See {IPBMTokenManager-getTokenValue}. Requirements: - `tokenId` should be a valid id that has already been created"
      },
      "increaseBalanceSupply(uint256[],uint256[])": {
        "details": "See {IPBMTokenManager-increaseBalanceSupply}. Requirements: - caller must be owner ( PBM contract ) - `tokenId` should be a valid id that has already been created - `sender` must be the token type creator"
      },
      "owner()": {
        "details": "Returns the address of the current owner."
      },
      "renounceOwnership()": {
        "details": "Leaves the contract without owner. It will not be possible to call `onlyOwner` functions anymore. Can only be called by the current owner. NOTE: Renouncing ownership will leave the contract without an owner, thereby removing any functionality that is only available to the owner."
      },
      "revokePBM(uint256,address)": {
        "details": "See {IPBMTokenManager-revokePBM}. Requirements: - caller must be owner ( PBM contract ) - token must be expired - `tokenId` should be a valid id that has already been created - `sender` must be the token type creator"
      },
      "transferOwnership(address)": {
        "details": "Transfers ownership of the contract to a new account (`newOwner`). Can only be called by the current owner."
      },
      "uri(uint256)": {
        "details": "See {IPBMTokenManager-uri}."
      }
    },
    "version": 1
  },
  "userdoc": {
    "events": {
      "NewPBMTypeCreated(uint256,string,uint256,uint256,address)": {
        "notice": "Event emitted when a new PBM token type is created"
      }
    },
    "kind": "user",
    "methods": {},
    "version": 1
  }
}